:100000000C94B2030C94EA030C94EA030C94EA03F4
:100010000C94EA030C94EA030C94EA030C94EA03AC
:100020000C94EA030C94EA030C94FD1E0C94B91E84
:100030000C94FA1F0C94EA030C94EA030C94EA0360
:100040000C94EA030C94EA030C94EA030C94EA037C
:100050000C94EA030C94D61F0C94EA030C94EA0364
:100060000C94EA030C94EA030C94EA030C94EA035C
:100070000C94EA030C94EA030C94EA030C94EA034C
:100080000C94EA030C94EA030C94EA030C94EA033C
:100090000C94EA030C94EA030C94EA030C94EA032C
:1000A0000C94EA030C94EA030C94EA03050109801A
:1000B000A101850319012AB700150126B700950192
:1000C00075108100C0050C0901A101850419012AE0
:1000D000A002150126A002950175108100C00660DE
:1000E000FF0961A1010962150026FF00952075082E
:1000F00081020963150026FF00952075089102C052
:1001000005010906A101050719E029E715002501E8
:10011000950875018102950175088101050719008F
:1001200029FF150026FF00950675088100050819AE
:10013000012905950575019102950175039101C08D
:1001400000000000000000000000000000000000AF
:10015000000000000000000000000000000000009F
:10016000000000007E0F00D4FFFFFFC700000078F2
:1001700000000000000000002A2B28000000000002
:100180000000000000000000000000290000000046
:100190002C1E3420212224342627252E362D3738B4
:1001A000271E1F202122232425263333362E3738BD
:1001B0001F0405060708090A0B0C0D0E0F1011127B
:1001C000131415161718191A1B1C1D2F3130232D47
:1001D000350405060708090A0B0C0D0E0F10111245
:1001E000131415161718191A1B1C1D2F3130354CF6
:1001F0001E0F0500047F3F1F643214643214783CE4
:100200001E1E140A05000101010101010101010284
:1002100002020202020202020303030303030303B6
:100220000404040404040405050505050606060681
:1002300006070707070708080808090909090A0A3D
:100240000A0B0B0B0C0C0C0D0D0D0E0E0E0F0F0FE1
:10025000101011111112121313141415151616176C
:1002600017181819191A1A1B1B1C1D1D1E1E1F20DA
:1002700020212222232424252626272829292A2B27
:100280002C2D2D2E2F30313232333435363738394C
:100290003A3B3C3D3E3F4041424344454647484946
:1002A0004A4C4D4E4F50515354555658595A5B5D18
:1002B0005E5F616264656668696B6C6D6F707273B6
:1002C0007577787A7B7D7E8082838587888A8C8E1D
:1002D0008F91939596989A9C9EA0A2A3A5A7A9AB4F
:1002E000ADAFB1B3B5B7BABCBEC0C2C4C6C9CBCD41
:1002F000CFD1D4D6D8DBDDDFE2E4E7E9EBEEF0F3F3
:10030000F5F8FAFDFFFFAA7F55402223252628296C
:100310002A2C2D2F3032333536383A3B3D3E404281
:10032000434547494A4C4E5051535557595A5C5EC4
:100330006062646668696B6D6F71737577797B7DD8
:100340007F81838587898A8C8E90929496989A9CD7
:100350009E9FA1A3A5A7A8AAACAEAFB1B3B4B6B8EF
:10036000B9BBBCBEBFC1C2C3C5C6C7C9CACBCCCD51
:10037000CED0D1D2D2D3D4D5D6D7D7D8D9D9DADA2C
:10038000DBDBDBDCDCDCDCDCDDDDDDDDDCDCDCDCAC
:10039000DCDBDBDBDADAD9D9D8D7D7D6D5D4D3D2E0
:1003A000D2D1D0CECDCCCBCAC9C7C6C5C3C2C1BFBE
:1003B000BEBCBBB9B8B6B4B3B1AFAEACAAA8A7A522
:1003C000A3A19F9E9C9A98969492908E8C8A8987DE
:1003D0008583817F7D7B79777573716F6D6B6968BC
:1003E000666462605E5C5A5957555351504E4C4A90
:1003F0004947454342403E3D3B3A3836353332303B
:100400002F2D2C2A29282625232229003A003D00B9
:100410003E004A004D0040004100440045003B00C2
:100420003C003F0046004B004E00420043004C00A1
:10043000000035001E00210022002A0053002E007B
:100440002300260027001F0020002D00310054004B
:10045000550024002500560000002B001400150054
:1004600017005F00600030001C00120013001A002B
:1004700008002F004B006100570018000C003100ED
:1004800000003900040009000A005C005D008000E3
:100490000B000F003300160007007B004E005E00CB
:1004A00056000D000E0034000000E1001D00190090
:1004B000050059005A007F001100370038001B006A
:1004C00006007C004D005B0058001000360028003C
:1004D00000000253E0002C0001517D003500630054
:1004E000810051005200E300E2002C000251630041
:1004F00062002C0050004F00000029003A003D002F
:100500003E004A004D0040004100440045003B00D1
:100510003C003F0046004B004E00420043004C00B0
:10052000000035001E00210022002A0053002E008A
:100530002300260027001F0020002D00310054005A
:10054000550024002500560000002B001400150063
:1005500017005F00600030001C00120013001A003A
:1005600008002F004B006100570018000C003100FC
:1005700000003900040009000A005C005D008000F2
:100580000B000F003300160007007B004E005E00DA
:1005900056000D000E0034000000E1001D0019009F
:1005A000050059005A007F001100370038001B0079
:1005B00006007C004D005B0058001000360028004B
:1005C00000000100E0000100010035006200810030
:1005D0002C0051005200E300E20001007D006200A7
:1005E00063002C005000005C000029003A003D0030
:1005F0003E004A004D0040004100440045003B00E1
:100600003C003F0046004B004E00420043004C00BF
:10061000000035001E00210022002A0053002E0099
:100620002300260027001F0020002D003100540069
:10063000550024002500560000002B001400150072
:1006400017005F00600030001C00120013001A0049
:1006500008002F004B006100570018000C0031000B
:1006600000003900040009000A005C005D00800001
:100670000B000F003300160007007B004E005E00E9
:1006800056000D000E0034000000E1001D001900AE
:10069000050059005A007F001100370038001B0088
:1006A00006007C004D005B0058001000360028005A
:1006B00000000100E000010001003500620081003F
:1006C0002C0051005200E300E20001007D006200B6
:1006D00063002C005000005C000009025B00030175
:1006E00000A0FA0904000001030101000921110121
:1006F00000012240000705810308000109040100F0
:100700000203000000092111010001222200070557
:1007100082032000010705030320000109040200F1
:100720000103000000092111010001223200070528
:10073000840320000112010002000000087070967E
:10074000820100010200010A03420046004F0050EE
:100750000000000A034E00610073007000000004F6
:100760000309040011241FBECFEFDAE0DEBFCDBFC6
:1007700004B603FE18C08091560390915703A091D0
:100780005803B09159038730904BA740B04B59F4B0
:100790001092560310925703109258031092590367
:1007A000E0E0F8E3099523E0A0EAB1E001C01D9282
:1007B000A635B207E1F711E0A0E0B1E0E2E5FCE424
:1007C00002C005900D92A03AB107D9F70E942120EE
:1007D0000C94FE250C940000E8EDF0E080818E7F03
:1007E00080831092E2001092DA001092E100A0EEF5
:1007F000B0E08C9181608C9380818F77808319BC6D
:10080000A7EDB0E08C918E7F8C9380818F7E80836A
:100810001092370308952091E4003091E50095E6A9
:10082000A9012091EC00822F817020FF06C08091E9
:10083000E80080FF06C080E008952091E80022FDD6
:100840001AC080914403882389F0853089F0809113
:10085000EB0085FD0FC02091E4003091E5004217C8
:100860005307F9F29150E1F684E0089582E008958B
:1008700083E0089581E00895EF92FF920F931F9314
:10088000CF937C018B010E940B04C82F811117C0EC
:100890008091E80085FD0BC08091E8008E77809301
:1008A000E8000E940B04882399F3C82F08C0F701C1
:1008B00081917F018093F1000150110949F78C2F3C
:1008C000CF911F910F91FF90EF9008958091460373
:1008D00087FF13C08091E80082FF06C08091E80086
:1008E0008B778093E80004C0809144038111F2CF9C
:1008F0000895809144038823D9F38091E80080FF14
:10090000F8CF8091E8008E77ECCF982F9093E90094
:10091000242F762F50E0891731F07091EC00209150
:10092000ED005091F00021FD07C09F5F973071F7F7
:100930008093E90081E008953091EB003E7F309391
:10094000EB003091ED003D7F3093ED003091EB00F6
:1009500031603093EB007093EC002093ED005093E6
:10096000F0002091EE0027FDE0CF80E00895CF92C7
:10097000DF92EF92FF920F931F93CF93DF93C8ED17
:10098000D0E088818F7E8883E7EDF0E08081816010
:10099000808384E082BF81E08093370388818E7FEB
:1009A000888302EE10E0F80110821092DA0081EEE6
:1009B000C82ED12CF601108288818F778883888198
:1009C0008068888388818F7D888319BC1092440356
:1009D00010924503109243031092420390EEE92EC9
:1009E000F12CF70180818B7F8083888181608883EF
:1009F00042E060E080E00E948504F60180818E7F05
:100A00008083F80180818160808380818860808319
:100A1000F70180818E7F8083888180618883DF9168
:100A2000CF911F910F91FF90EF90DF90CF9008959D
:100A3000FC0180914C0390914D0386179707A0F01D
:100A40006115710529F49091E8009E779093E80074
:100A500090E06115710551F4911108C08091E80092
:100A600082FF34C080E00895BC01F2CF809144033E
:100A70008823C1F18530C1F18091E80083FD30C049
:100A80008091E80082FDEACF8091E80080FFE1CF0D
:100A90008091F3002091F200382F6115710519F053
:100AA0002830310558F091E02830310509F090E008
:100AB0002091E8002E772093E800CBCF819180939E
:100AC000F100615071092F5F3F4FE7CF80914403E0
:100AD000882341F0853041F08091E80083FFBECF4C
:100AE00081E0089582E0089583E0089508950895CF
:100AF00008958091390308952FB7F89480914E039B
:100B000090914F03A0915003B09151032FBF0895CE
:100B100020913103309132032817390771F09093F7
:100B2000320380933103E0912F03F091300330972B
:100B300021F00084F185E02D0994089520912D0382
:100B400030912E032817390771F090932E0380936C
:100B50002D03E0912F03F0913003309721F00680B0
:100B6000F781E02D09940895E0912F03F09130036F
:100B7000309721F00190F081E02D099480E00895F4
:100B8000FA01811101C0FB01099480912803982F7B
:100B90009E7F29F4817082608093280308958635B2
:100BA000E8F381708465F8CFAF92BF92DF92EF9245
:100BB000FF920F931F93CF93DF93082F162FE90116
:100BC000E42FF0E0EB5FFD4F611110C0E4915E2F68
:100BD0004E2F4983E8835A83DF91CF911F910F9164
:100BE000FF90EF90DF90BF90AF900895E62EF12C2C
:100BF0004491D42EE42FF0E026E0829FC00111241E
:100C00002FEF30E0B9010E949924802F90E0880FE7
:100C1000991F55E5569FD001579FB00D11248A1B8F
:100C20009B0B982F990F890F5901AE18BF08AE9EE4
:100C3000D001AF9EB00DBE9EB00D11245B2F189F4A
:100C400080011124012F11275901A01AB10AAE9E6B
:100C50008001AF9E100DBE9E100D11245901A81ADF
:100C6000B108AE9CC001AF9C900DBE9C900D1124AC
:100C7000892F9927281B390B2E9FC0012F9F900D7C
:100C80003E9F900D1124E92F62307105A1F050F4C0
:100C90006115710509F49DCF6130710581F0EB2F6D
:100CA000512F97CF6430710569F080F0663071057F
:100CB00009F48FCFF4CFE42F4B2F592F8ACFE42F95
:100CC000412F87CFEB2F542F492F83CF4B2F5D2DF3
:100CD000E12F7FCF80E00895F894E82FE295EF7040
:100CE000F0E031A1282F2F7081E090E001C0880F43
:100CF0002A95EAF7982F9095932391A392A1892B97
:100D000082A3789408959091380292FF06C0282F0C
:100D100028712830F9F4877F846093FF06C0282F5C
:100D200028712831F1F4877E84612091390220FFF7
:100D300006C0382F38713830D9F4877F816021FFA1
:100D400006C0282F28712831D1F4877E816194FD57
:100D5000877E0895282F24712430F9F68B7F8860D0
:100D6000DCCF282F2471243101F78B7E8861DDCF01
:100D7000382F3171313019F78E7F8860E0CF282FFE
:100D80002171213121F78E7E8861E1CFCF93DF93EE
:100D9000EC0182389105A9F1D8F58133910509F468
:100DA00096C048F58932910509F48AC08A9709F4FA
:100DB00095C0C11522E5D20708F0B6C0C11531E5CE
:100DC000D30708F026C1C83ED10508F09CC0C03E3C
:100DD000D10560F5C83AD10508F087C0C53AD105FC
:100DE00008F0EFC0C130D10509F12097F9F0C43007
:100DF000D105E0F440C08533910509F45AC0C99784
:100E0000C1F680913802837089F0C0EED0E00EC048
:100E1000833E910599F170F4803E910501F1823E87
:100E2000910539F68091380282FD21C0CE01DF9113
:100E3000CF910895863E910561F1873E910571F14C
:100E4000843E910509F0B5CF8091390281FFEECF44
:100E500080913802C7EED0E084FD0DC0E7CF8091CD
:100E6000380280FD07C19091390290FFDFCFC3EEB9
:100E7000D0E084FFDBCFD0E0C0E0D8CF8091380253
:100E800082FDFBC09091390290FDBFCF84FFCECF91
:100E9000F2CF8091380283FDDDCFC8CF8091380238
:100EA00083FDEEC09091390291FFF0CFC4EED0E007
:100EB000BDCF8091380285FFB9CFC9E2D0E0B6CF6F
:100EC0008091380285FFB2CFC5E3D0E0AFCF8091EB
:100ED000380286FFABCFCAE2D0E0A8CF80913802BB
:100EE00086FFA4CFC1E3D0E0A1CFCF3BD10518F658
:100EF000C85AD0E0CC0FDD1FCE5DDE4F0990D881FF
:100F0000C02DD46493CFC11540E5D40708F064C068
:100F1000C11580E4D80708F05CC0CE019A95811510
:100F20009F4108F483CFA7CFC11536E5D30718F545
:100F3000C11545E5D40708F084C0C11584E5D8077C
:100F400008F07AC09C2F969596959E0123703327C2
:100F5000C115D34508F462C0C1E0D0E002C0CC0F97
:100F6000DD1F2A95E2F730E2939FC0011124C82BC0
:100F7000D92BDA685BCFC1158AE5D80778F4C1159B
:100F800099E5D90708F068C0C11528E5D20708F42B
:100F900072CFDC2FCC27C06FD06A48CFCE019056DD
:100FA0008115904208F067CF8D2F8F710E948306C4
:100FB00090E0982F882788279F719C012C2BE901AE
:100FC00049C0C55AD0E0C15EDE4FC881D0E0D064D0
:100FD0002DCFDF70D06A2ACFCE01E4E096958795B9
:100FE000EA95E1F783702C2F26952695237040E231
:100FF000249F90011124382B8C2F8370C1E0D0E006
:1010000002C0CC0FDD1F8A95E2F7C22BD32BDC6820
:101010000DCFDC2FCC27C16FD06A08CFC1E0D0E064
:1010200002C0CC0FDD1F2A95E2F720E2929FC0019B
:101030001124C82BD92BEBCFDC2FCC27C46FD06A5F
:10104000F5CE8C2F0E948306C82FD0E0DC2FCC2752
:10105000CC27DF71D062EACE8C2F8F700E9483067E
:1010600034E0D695C7953A95E1F7CF709C2FEC0107
:10107000D069DCCEC9E3D0E0D9CEC2EED0E0D6CE86
:10108000C6EED0E0D3CE80911B02811110921B02DC
:101090000895809590911A02982390931A020895CA
:1010A000E4EAF1E09191891303C0DF0111971C92EA
:1010B00091E0EA3AF907B1F70895A4EAB1E0EFEF59
:1010C00090E02D91821751F0EF3F19F4211101C0EA
:1010D000E92F9F5F9630A9F7EF3F09F408950E2E90
:1010E000000CFF0BEE55FE4F8283089580910F0296
:1010F0009091DE01981301C008958F5F8770FACF39
:101100002AE0929F800D1124982F977086958695DE
:10111000869523E0829FF0011124E555FE4F50E0B3
:1011200040E080E0219130E0092E02C036952795FD
:101130000A94E2F721703327042E01C0220F0A948B
:10114000EAF7822B4F5F5F4F4330510559F70895FF
:101150002AE0929F800D1124982F977041E001C0E2
:10116000440F9A95EAF786958695869593E0899F30
:10117000F0011124E555FE4F90E080E070E05191C0
:10118000DF0111979B01082E02C0369527950A941E
:10119000E2F7217021952527242325272C930196FA
:1011A0008330910561F7089580933403709336037B
:1011B00060933503809144038430F9F48093E9000F
:1011C0008FEF9091E800815095FD06C095ED9A95BE
:1011D000F1F700008111F5CF8091E80085FF0DC087
:1011E00050E040E063E070E084E393E00E943C0460
:1011F0008091E8008E778093E8000895BC0184E038
:101200000C94D408BC0183E00C94D408CF93DF93F2
:10121000EC0181E08093E9008FEF9091E80081502C
:1012200095FD06C095ED9A95F1F700008111F5CF77
:101230008091E80085FF14C050E040E068E070E075
:10124000CE010E943C048091E8008E778093E800F4
:1012500088E0FE01AAE3B3E001900D928A95E1F7E0
:10126000DF91CF91089581E08093E00080E2809348
:10127000D8001092C9008FE19EE40197F1F700C0F9
:10128000000087E090EBDC018093560390935703B6
:10129000A0935803B093590388E19CE00FB6F894EB
:1012A000A895809360000FBE90936000FFCF80915F
:1012B000280380FD0AC0E8E7F2E011821082128262
:1012C000339652E0EA3BF507C1F7229A35B13B7FEE
:1012D00025B124604FB7F89488E792E0FC01519162
:1012E000CF0168E025B9000000C057FF35B9550FA0
:1012F000000000C000C000C035B900C06A9591F779
:10130000F2E08A3B9F0751F74FBF8FE594E00197CA
:10131000F1F700C000000895EF92FF920F931F9322
:10132000CF93DF938C01C8E7D2E0F12CE12CF801D8
:10133000948160912A0380912903FBE0EF16F10468
:10134000FCF49923F9F09E0140912B030E94D405EF
:101350002FEFE21AF20A239686E1E816F10439F734
:101360000E945709F801848190E0019681709927C5
:101370008483DF91CF911F910F91FF90EF9008959B
:10138000992309F39E0140E0E1CF8F929F92AF92A3
:10139000BF92CF92DF92EF92FF920F931F93CF9362
:1013A000DF93EC014C81042F10E09801D8010E94DA
:1013B000EF259B01AC010E94BA254B015C01E0E2E4
:1013C000F0E0E01BF10BA5E5B0E0AC019B010E9451
:1013D000BA256B017C019F01DF010E94CE249B0195
:1013E000AC010E94C5259B01AC01280D391D4A1D89
:1013F0005B1DC701B6010E94CD25F22E822F90E021
:1014000039E23F15D8F143E0249F9001112435952E
:101410002795122F109598E7C92E92E0D92E00E05B
:1014200085E5E82EEF188E2D01FD8F2D9601412FB9
:1014300060912A030E94D4050F5F53E0C50ED11CB2
:10144000063189F70E9457099C8181E0992319F0A0
:10145000903219F48FEF80931D0180911D01890F47
:101460008C83DF91CF911F910F91FF90EF90DF90D0
:10147000CF90BF90AF909F908F90089525E530E07A
:10148000A901481B590BCA019A01220F331F280FCB
:10149000391F37FFBCCF2F5F3F4FB9CF0F931F933B
:1014A000CF93DF93C8E7D2E0FE011182108212824F
:1014B000339682E0EA3BF807C1F710E000E0809144
:1014C0007602082E000C990B081719078CF18091F1
:1014D0001C01082E000C990B801791074CF19E01FE
:1014E00040912B0360912A03809129030E94D40527
:1014F0000F5F1F4F23960631110509F70E94570908
:1015000080911B0190917602980F90937602209122
:101510001C01280F20931C01121614F495311CF0A5
:10152000819580931B01DF91CF911F910F910895B9
:10153000198218821A82DCCFBF92CF92DF92EF928B
:10154000FF920F931F93CF93DF93FC018281DD24E1
:10155000DA9480FD02C0DD24D39408E712E0D0E0E5
:10156000C0E026E1B22EF80111821082128294E0CE
:10157000E92EF12CC12C809175028C0D87310CF471
:101580003DC06B2D0E948B24892F082E000C990BD7
:101590008C179D0791F480912B038E9DA0018F9D48
:1015A000500D112455954795559547959801609193
:1015B0002A03809129030E94D405CD0CF1E0EF1A93
:1015C000F108C9F621960D5F1F4FC631D10559F6B6
:1015D0000E9457098091750291E0D91215C08111BE
:1015E00011C085E180937502DF91CF911F910F911A
:1015F000FF90EF90DF90CF90BF90089587FFC5CF09
:101600008A5EC3CF8150EECF90E00196BE010E946A
:10161000AD24E8CFEF92FF921F93CF93DF93EC01BD
:1016200088E7E82E82E0F82E10E08C819701409147
:101630002B0360912A03810F0E94D405155F83E07C
:10164000E80EF11C123F89F70E9457099A818C819C
:1016500090FF08C08F5F8C83DF91CF911F91FF9027
:10166000EF9008958150F7CF9091280390FF0CC020
:10167000E8E7F2E0818360834283339692E0EA3BBD
:10168000F907C1F70C94570908950F931F93CF934F
:10169000DF9300D00F92CDB7DEB78C018091770237
:1016A00081110AC09E012F5F3F4F4FEF6FEF0E94E5
:1016B000D4058A8180937702F8016481613069F0F2
:1016C0008091770240E0662361F040E0623011F4DF
:1016D0004091770280E060E004C06091770240E0D2
:1016E00080E00E94340BF801848190E0019663E071
:1016F00070E00E94AD2484830F900F900F90DF91D3
:10170000CF911F910F910895CF93DF9300D00F9247
:10171000CDB7DEB79091280390FF0AC09E012F5FDE
:101720003F4F0E94D4054B8169818A810E94340B0E
:101730000F900F900F90DF91CF910895CF93DF938B
:10174000EC01E8E2F3E0438162818C810E94840B2A
:101750008C818F5F8C83DF91CF910895CF93DF933E
:10176000EC01EC81F0E0E65FFC4F4491E8E2F3E04D
:10177000628181810E94840B8C818F5F8C83DF91D9
:10178000CF910895CF93DF93C7EFD2E060E0CE0111
:101790000E9467252196C11584E0D807B9F7DF912B
:1017A000CF9108956F927F928F929F92AF92BF9246
:1017B000CF92DF92EF92FF920F931F93CF93DF931D
:1017C0008AE0C82E84E0D82E9BE2E92EFF24F39411
:1017D000E701C05FD10936011BC0F50185909490E7
:1017E000692DC8010E946725682DC80101960E94D5
:1017F000672582E0A80EB11C0E5F1F4FC017D107EE
:1018000061F784E1680E711C6496CE15DF0529F03E
:101810008E01045111095301E0CF7E0180EFE80EE3
:10182000F11C80EFC80ED11C8BEFE81683E0F806A0
:1018300079F6DF91CF911F910F91FF90EF90DF909C
:10184000CF90BF90AF909F908F907F906F900895B2
:10185000CF93C82F6FEF811162E283E290E00E9484
:1018600067256FEFC11165E084E290E00E94672573
:101870006FEFC11167E185E290E0CF910C9467258D
:1018800080E00E94280C60E086E290E00E946725DC
:101890000E94D20B0E94C20B81E00C94280C0F9383
:1018A0001F93CF93DF93C42FD0E0CC0FDD1F24E133
:1018B000629FC00DD11D112430EF839FC00DD11D3B
:1018C0001124CE0187960E945325082F10E0102F77
:1018D0000027CE0188960E9453259801282BC90124
:1018E000DF91CF911F910F910895462F833038F4E7
:1018F0007C3028F46A3018F4672F0C944F0C90E079
:1019000080E00895CF92DF92FF920F931F93CF93C1
:10191000DF936C010091550380911C02082BC7E0F6
:10192000D0E010E0FC2EC8010C2E02C095958795E2
:101930000A94E2F780FD0CC02197A0F7F12C8F2DBF
:10194000DF91CF911F910F91FF90DF90CF9008957D
:10195000B6018C2F0E94750C0E94C606019761F398
:10196000EECFCF93DF93EC010E94820CBE010E9468
:10197000750CDF91CF910C94C606FC01808191819A
:101980000E94B10C92959F70963091F058F4925F3E
:101990009F70923058F4803F19F030F4883E30F454
:1019A00081E008959A5FF4CF843FD1F380E00895F9
:1019B000883EB0F3813FD1F7F3CF83E290E00E94FD
:1019C0005325823289F484E290E00E9453258530C9
:1019D00059F485E290E00E94532591E0873109F0A7
:1019E00090E0892F8170089580E0FCCFCF9384E050
:1019F00090E00E945325C82F82E290E00E94532578
:101A0000982F8C2FCF9108954F925F926F927F9273
:101A10008F929F92AF92BF92CF92DF92EF92FF92FE
:101A20000F931F93CF93DF93FC016280448081E08A
:101A30008483EAE0F3E07490E9E8F3E0E491CAEB30
:101A4000D2E038E7E32E32E0F32E48E2C42E43E042
:101A5000D42E52E0A52EBB24B39488248A94912CD2
:101A600055245A94E7190E2F10E082E0861530F0C5
:101A700080912903888380912A038983411021C0A2
:101A80001B821A8297014A81698188810E94D4054C
:101A9000259683E0E80EF11CCC16DD0631F7DF91C8
:101AA000CF911F910F91FF90EF90DF90CF90BF905B
:101AB000AF909F908F907F906F905F904F900C941D
:101AC00057098B818823E9F081508B83859DC00164
:101AD00011246C8170E00E949924FB01FF27E65FCE
:101AE000FC4F8491E82FE719E59DC0011124B8014E
:101AF0000E94992480912B03689FB00111247A835E
:101B0000C1CF0E94292520912B03269521582A9D7B
:101B1000A0012B9D500D1124452F552784179507A3
:101B20000CF0B0CF82E0861588F40E942925B4011C
:101B30000E94AD2488830E94292520912A0326959E
:101B4000622F70E00E94AD24280F29831A828091B1
:101B50002B03893C20F088EC8C838B8393CF8431DA
:101B6000D8F784E1F9CFCF92DF92EF92FF926B0129
:101B70007C010E94C505B701A60188E090E0FF90B6
:101B8000EF90DF90CF900C9479255F926F927F92C7
:101B90008F929F92AF92BF92CF92DF92EF92FF927D
:101BA0000F931F93CF93DF9300D00F92CDB7DEB783
:101BB000182F762E042F622E9091280390FF29C0B3
:101BC000E92FE695AE2FB0E0AA59BE4F8C918093D5
:101BD00073029E7F923081F59E012F5F3F4F812FD0
:101BE0000E94D4054B8169818A810E94340B109335
:101BF000290370922A0300932B03662051F0609111
:101C000028037091290380912A0390912B030E944D
:101C1000B30D0F900F900F90DF91CF911F910F9107
:101C2000FF90EF90DF90CF90BF90AF909F908F90FC
:101C30007F906F905F900895823019F400912B038C
:101C4000D6CF863019F410912903D1CF8930D9F33A
:101C5000893169F6E9518E2F8170582EE695F0E0B2
:101C6000EB5FFC4FA590B490BB2488E7E82E82E0A0
:101C7000F82ED12CC12C96E1892E912CC601B401ED
:101C80000E949924812F511013C0860F9701402F75
:101C9000672D0E94D405CA0CDB1C83E0E80EF11C02
:101CA0008AEBE81682E0F80649F70E9457099FCFB1
:101CB000861BECCFE8E2F3E043812CE0421B08F402
:101CC00040E021E0628181810C94C50DE8E2F3E0FF
:101CD00043812CE0420F08F44FEF21E062818181C3
:101CE0000C94C50DE8E2F3E062812CE0621B08F47D
:101CF00060E021E0438181810C94C50DE8E2F3E0CE
:101D000062812CE0620F08F46FEF21E04381818152
:101D10000C94C50DE8E2F3E0818121E0438162810A
:101D20008C500C94C50DE8E2F3E0818121E0438101
:101D30006281845F0C94C50D80912C03882319F077
:101D4000815080932C036091280370912903809126
:101D50002A0390912B030C94B30D80912C038330B4
:101D600018F48F5F80932C036091280370912903EE
:101D700080912A0390912B030C94B30D909128032A
:101D800090FF3DC09170811129C09260909328030B
:101D9000662351F0609128037091290380912A03F2
:101DA00090912B030E94B30D60912803669570E01B
:101DB0004BE050E080E191E00E943925892BA9F0A9
:101DC0001092740281E08093700220E040912B0316
:101DD00060912A03809129030C94C50D8B3210F079
:101DE0009465D4CF880F982BD1CF81E08093740273
:101DF0000E947C0590936E0280936D02E3CF08955C
:101E0000809128038695815009F48AE261E00C9460
:101E1000BE0E8091280386958F5F8B3208F081E09B
:101E200061E00C94BE0E9091280390FF07C0969538
:101E3000981720F0961710F40C94090F61E00C9499
:101E4000BE0EE8E2F3E083E0808311828FEF8283AD
:101E50008383148260817181828193810C94B30D9C
:101E600069EE7EEF90E080E00E94852560E082E0F0
:101E700090E00E94672560E083E090E00E94672583
:101E800010921C0260E084E090E00E94672560E010
:101E900082E290E00E94672560E085E090E00E9489
:101EA000672560E086E090E00E9467256FEF87E09D
:101EB00090E00E94672540E050E0BA0188E090E0A1
:101EC0000E94792560E08DE090E00E94672540E067
:101ED00050E0BA0188E190E00E94792560E087E156
:101EE00090E00E94672540E050E0BA018CE190E06C
:101EF0000E94792570E060E080E290E00E948525F4
:101F000040E050E0BA0188E190E00E94792580E04D
:101F10000E94280C0E94400C40E050E0BA018FE083
:101F200090E00E94792540E050E0BA0183E190E022
:101F30000C9479256F927F928F929F92AF92BF926D
:101F4000CF92DF92EF92FF920F931F93CF93DF9385
:101F5000CDB7DEB768970FB6F894DEBF0FBECDBF22
:101F60008E010F5F1F4F88E1F80111928A95E9F702
:101F700090E5E92E91E0F92E680166246394712CB6
:101F800036E6832E31E0932EF70181917F018F3F5A
:101F900009F445C0F894E82FE295EF70F0E021A134
:101FA0008F70A30102C0440F551F8A95E2F7CA0142
:101FB000922F982B91A392A18095892382A3789444
:101FC00000C0ECE5F1E021E030E0B12CA12C419122
:101FD0004F3F09F46EC0A42FA295AF70B0E0909669
:101FE0008C9190E04F7002C0959587954A95E2F7E5
:101FF00080FD5FC0C901A82AB92A220F331F8E169F
:102000009F0629F7F701319780818F3F11F00E94D9
:102010006C0650EA5A95F1F7F601B182A082F2E01F
:10202000CF0ED11C4CE5E41641E0F40609F0ACCF2C
:1020300048E150E0B80180E292E00E944625FF248A
:10204000F394009709F4F12C892BB1F188E1F801A0
:10205000A0E2B2E001900D928A95E1F781E08093D1
:102060001F020E947C0590931E0280931D02209106
:102070001D0230911E024FB7F89480914E0390914B
:102080004F03A0915003B09151034FBF821B930B9C
:102090000597B0F0E0E2F2E0A5E5B2E08191919120
:1020A0008D939D9352E0E833F507C1F710921F021C
:1020B00007C090E080E09FCF80911F028111D7CFB1
:1020C0008F2D68960FB6F894DEBF0FBECDBFDF919F
:1020D000CF911F910F91FF90EF90DF90CF90BF9025
:1020E000AF909F908F907F906F90089580911A028B
:1020F00090911902892B8093A20190911B02992340
:1021000091F0892B8093A20120E084EA91E0FC0108
:102110003191CF0131112F5FF1E08A3A9F07B9F772
:1021200021110E94430848E050E061E172E082EA38
:1021300091E00E944625892BA9F088E0E2EAF1E0CF
:10214000A1E1B2E001900D928A95E1F7E0912F03B1
:10215000F0913003309731F00280F381E02D82EA74
:1021600091E00994089590E080E00E949E0590E03F
:1021700080E00E948805109219020C9476108093DA
:1021800055030C94B31080915503982F9670963098
:1021900019F488600C94BF10877FFCCF21E030E0F9
:1021A00001C0220F8A95EAF720958091550382237A
:1021B0000C94BF1090911002809589238093100297
:1021C000282F277091F4282F082E000C330B92171C
:1021D000130659F09091390292FD07C085958595B7
:1021E00085950E94CE10109210020895CF93C09151
:1021F0003902C2FB992790F9981799F080FBC2F930
:10220000C09339026091380284E090E00E94672513
:102210006C2F82E290E00E94672582E0CF910C94BF
:10222000DA10CF91089521E030E001C0220F8A95A5
:10223000EAF780915503822B0C94BF1080931C0207
:102240000C94B31010921A02E4EAF1E086E0DF0188
:102250001D928A95E9F70C94B3101F93CF93DF93E7
:10226000CDB7DEB7AA970FB6F894DEBF0FBECDBFCD
:1022700086E493E02091F100DC012D93CD01B3E0E1
:102280008E349B07B9F780914703833009F472C0FD
:10229000B8F4813009F449C0823009F4B3C08091A8
:1022A000E80083FF8BC280914603909147039A30E8
:1022B00008F084C2E92FF0E0E050FA4D0C94C124FC
:1022C0008A3009F48EC08B3009F471C0893039F737
:1022D00080914603813219F780914A0390914B0314
:1022E000009711F00297D9F68091E800877F8093DC
:1022F000E8008091E80082FF38C09091F30080915F
:10230000F200029731F48091F100813011F08630B3
:1023100021F48091F100809339038091E8008B775C
:102320008093E8000E946604BACF80914603813A08
:1023300009F0B5CF8091E800877F8093E800809115
:102340004A0390914B03892B61F468E08AE393E0A0
:1023500070E00E9418058091E8008B778093E80078
:102360009ECF60E090E080E0F3CF80914403811144
:10237000C0CF95CF80914603813A09F090CF8091EC
:102380004A0390914B03892B09F089CF8091E80093
:10239000877F8093E8008091E80080FFFCCF8091E8
:1023A0001E018093F1008091E8008E77B9CF809173
:1023B0004603813209F073CF80914A0390914B0319
:1023C000892B09F06CCF8091E800877F8093E8002B
:1023D0000E9466048091480380931E010E9422118E
:1023E0005ECF80914603813209F059CF8091E80099
:1023F000877F8093E8000E94660480914903809360
:1024000038034DCF80914603813A09F048CF80913F
:10241000E800877F8093E8008091E80080FFFCCF90
:1024200080913803BECF803899F0823809F0C6C158
:1024300080914A038F70873008F0C0C18093E90013
:102440008091EB0085FB882780F91092E90006C097
:102450008091420390914303911182609091E80032
:10246000977F9093E8008093F1001092F1008091A3
:10247000E8008E779FC1882309F48DC1823009F06E
:102480009DC180914803811190C180914A038F7052
:102490002FEF280F263008F091C18093E90020919A
:1024A000EB0020FF82C1933031F48091EB00806219
:1024B0008093EB007AC19091EB0090619093EB00D8
:1024C00021E030E001C0220F8A95EAF72093EA006C
:1024D0001092EA008091EB008860EACF81116EC112
:1024E000109148031F778091E3008078812B8093BF
:1024F000E3008091E800877F8093E8000E946604F3
:102500008091E80080FFFCCF8091E3008068809399
:10251000E30082E0111183E0809344034FC18058AF
:10252000823008F04BC120914803309149032C3D83
:10253000E3E03E07A1F583E08A838AE289834FB70F
:10254000F894DE01139620E03EE051E2E32FF0E044
:1025500050935700E49120FF03C0E295EF703F5F76
:10256000EF708E2F90E0EA30C0F0C7968D939D9368
:102570002F5F243159F74FBF8091E800877F809308
:10258000E8006AE270E0CE0101960E941805809191
:10259000E8008B778093E80011C1C096E7CF809167
:1025A0004A0390914B03432F55274330510509F4BB
:1025B0004AC078F54130510509F47AC08BE590E0C6
:1025C000EAEDF6E04230510509F0F8C02091E8004C
:1025D000277F2093E80020914C0330914D03821710
:1025E000930708F49C0140E02115310509F065C00E
:1025F000411163C08091E80082FDC9CF80914403FE
:10260000882329F2853019F28091E80083FFF2CF08
:10261000BECF4132510509F43CC04232510509F0A8
:10262000CDC08330910508F0C9C0FC01EE0FFF1F3B
:10263000EC56FE4F0190F081E02D8F569E4FDC014D
:102640008C9190E01AC0332721303105D1F021154B
:10265000310561F02230310509F0B0C0E7E4F7E060
:10266000E4918E2F90E0E7E4F7E007C0EFE5F7E0B4
:10267000E4918E2F90E0EFE5F7E0009709F49EC01B
:10268000A5CFE3E5F7E0E4918E2F90E0E3E5F7E0F6
:10269000F4CF8330910508F091C0880F991FFC0199
:1026A000E656FE4F0190F081E02D89E090E08ECF5C
:1026B00082E190E0E5E3F7E089CF8091440388234D
:1026C00009F465CF853009F462CF8091E80083FD7D
:1026D0005ECF8091E80082FD8DCF8091E80080FF81
:1026E00083CF9091F3008091F2002115310519F00C
:1026F0008830910550F041E0089709F040E0809162
:10270000E8008E778093E8006FCF44914093F1000A
:102710003196215031090196E8CF803809F04EC03A
:102720008091E800877F8093E80080914503809343
:10273000F1009DCE811142C0109148031230F0F596
:102740008091E800877F8093E800109345030E9402
:102750006604112311F084E005C08091E30087FD39
:10276000FACF81E08093440342E061EC81E00E9473
:10277000850442E261EC84E00E94850442E261EC5F
:1027800082E00E94850442E260EC83E00E948504BE
:102790008091440313C080914803813079F481E033
:1027A000933009F080E0809343031092E900809118
:1027B000E800877F8093E8000E9466048091E8002B
:1027C00083FF0AC08091E800877F8093E8008091B2
:1027D000EB0080628093EB00AA960FB6F894DEBF00
:1027E0000FBECDBFDF91CF911F910895882321F0B7
:1027F0000E9449080C9476100895882339F090912E
:102800001A02982B90931A020C947610089588233C
:1028100009F44BC0823871F40E94B40581FF45C0B1
:1028200089E30E945D080E94761089E30E945008A7
:102830000C947610833859F40E94B40580FF35C09B
:1028400083E50E945D080E94761083E5EFCF84380F
:1028500059F40E94B40582FF28C087E40E945D08F5
:102860000E94761087E4E2CF9CEF980F913AF0F245
:1028700090E2980F983050F4877091E001C0990F62
:102880008A95EAF7892F0E944908D2CF9BE5980FD5
:10289000933020F490E080E00C949E05885A8731B4
:1028A00020F490E080E00C9488050895CF93C82F21
:1028B000882309F488C08238C1F40E94B40581FDE0
:1028C00082C089E30E945D080E9476102FEF81EE9E
:1028D00094E0215080409040E1F700C0000089E37F
:1028E0000E945008CF910C9476108338A1F40E9476
:1028F000B40580FD68C083E50E945D080E947610E3
:102900002FEF81EE94E0215080409040E1F700C02D
:10291000000083E5E5CF8438A1F40E94B40582FD70
:1029200052C087E40E945D080E9476102FEF81EE6E
:1029300094E0215080409040E1F700C0000087E41F
:10294000CFCF8CEF8C0F813A68F4E4EAF1E081910B
:10295000C81799F121E0EA3AF207C9F78C2F0E94D3
:102960005D08C0CF80E28C0F883068F4C77021E02A
:1029700030E001C0220FCA95EAF780911A02822B3B
:1029800080931A02AFCFEBE5EC0FE33040F4F0E0B8
:10299000E15EFE4F808190E0CF910C949E05C85A75
:1029A000C73188F4EC2FF0E0EE0FFF1FEE5DFE4F15
:1029B00080819181CF910C9488058C2F0E945008C2
:1029C0000E947610CBCFCF9108951F93CF93DF93C2
:1029D000182FD0E0C0E0893311F4C0E5D0E0812F9A
:1029E0000E945614209731F4812FDF91CF911F91CF
:1029F0000C9407148FE99FE00197F1F700C00000E5
:102A00002197F0CF0F931F93CF93DF93C62FD42F2F
:102A1000022FFC0182818823A1F0609354030E945D
:102A20007C059093530380935203C77081E001C0EB
:102A3000880FCA95EAF7DF91CF911F910F910C94FF
:102A4000FD1380915403681340C0209152033091CC
:102A500053034FB7F89480914E0390914F03A09188
:102A60005003B09151034FBF821B930B883C9105DB
:102A700060F510E21D0F6D17B9F080E2860F883007
:102A800040F4C77081E001C0880FCA95EAF70E9440
:102A9000F613183048F481E09D2F977001C0880F1D
:102AA0009A95EAF70E94FD13802F0E94E5141830D2
:102AB00098F4D77081E001C0880FDA95EAF7DF91CA
:102AC000CF911F910F910C94F613C77081E001C054
:102AD000880FCA95EAF7F3CFDF91CF911F910F913D
:102AE00008953F924F925F926F927F928F929F9242
:102AF000AF92BF92CF92DF92EF92FF920F931F930C
:102B0000CF93DF9300D000D00F92CDB7DEB78C010A
:102B1000FC0183819481892B31F08081918189230B
:102B20008F3F09F07BC50F900F900F900F900F9083
:102B3000DF91CF911F910F91FF90EF90DF90CF9099
:102B4000BF90AF909F908F907F906F905F904F90CD
:102B50003F9008950E94820CF82E682F89819A81F7
:102B60000E94A80869817A818F2D0E94750C7C01D2
:102B7000F8018281882309F444C5970122513F4519
:102B80002031310508F010C58FEF93E00E945325E6
:102B9000FEEEEF0E57EF852E52E0952E8823A1F121
:102BA00080911002877009F4BECFF80182818823DA
:102BB00009F4B9CF8091390282FDB5CF82E00F9040
:102BC0000F900F900F900F90DF91CF911F910F9169
:102BD000FF90EF90DF90CF90BF90AF909F908F903D
:102BE0007F906F905F904F903F900C94DA1081141B
:102BF00024E09206A9F2C4010E945325811101C06C
:102C0000EA943FEF831A930AE110F1CF1C821B82F2
:102C1000442443944AE0342E74018FEFE81AF80AF2
:102C2000C4010E94532589831A82882309F4B8CFEE
:102C30009FEF980F933000F58A83498292E0890EC6
:102C4000911CC7010E9453258B83882309F4A8CFC8
:102C5000FE0131967F01F70120812223E9F2213024
:102C600009F049C091818281913041F4F2E0EF0E88
:102C7000F11C0E94E51409C04701EACF923049F4E3
:102C800022E0E20EF11C0E9456143FEFE31AF30A11
:102C9000E2CF933031F432E0E30EF11C0E940714CE
:102CA000F4CF943021F08FEFE81AF80AEECF92E0DB
:102CB000E90EF11C30E020E0B7016F5F7F4FF701B4
:102CC00041818053990B8A30910550F02150310990
:102CD000E0F28FE99FE00197F1F700C00000F6CF26
:102CE000329EF001339EF00D11249C012E0F3F1FE8
:102CF000842F7B01E1CFE22FF0E0E059FE4F5490AA
:102D0000822F86958695869590E0FC01E05AFE4FCD
:102D100064902770712C022E02C0759467940A94F7
:102D2000E2F7E1E06E227724FC01E05BFE4FA49025
:102D3000B12C022E02C0B594A7940A94E2F7F1E0F8
:102D4000AF22BB24FC01E05CFE4FC490D12C02C03A
:102D5000D594C7942A95E2F721E0C222DD246114BC
:102D6000710419F081EE0E945614A114B10419F0F7
:102D700086EE0E945614852D0E94E514AB2819F0AA
:102D800086EE0E940714672819F081EE0E9407144E
:102D9000CD2809F47ACF8CE26CCF81E00E94131128
:102DA0000E94C310FDCE81E00E94CE10F9CF82E0D8
:102DB000F5CF95EFE9169CE5F90609F46CC008F427
:102DC00066C027E245EE66EEF6EFEF16FCE5FF067D
:102DD00009F413C4882309F432C41092540323E085
:102DE000E2162DE5F20608F05DC03AEFE3163CE589
:102DF000F30630F4C70182509C45449708F05EC04A
:102E00000E94F60C9093390280933802E1E1EE16AD
:102E1000ECE5FE0609F436C108F0A4C029E0E2168C
:102E20002CE5F20609F41CC108F06DC085E0E81637
:102E30008CE5F80609F408C108F056C0E3E0EE1688
:102E4000ECE5FE0609F4F6C008F0FAC080913802FD
:102E5000816022E0E2162CE5F20609F4EEC06091F2
:102E60003802F090390284E090E00E9467256F2DCF
:102E700082E290E00E9467250E94221191CE27E213
:102E800045EE65EEBAC326E241EE60EEB6C327E238
:102E900045EE64EEB2C326E241EE62EEAEC328E236
:102EA00041E0EFCF81E6E8168DE5F80609F4A8CFFA
:102EB00095EAE9169DE5F90609F4A2CF36E1E31695
:102EC0003CE5F30609F07BC480911A028A7A91E00E
:102ED00009F490E09093AA01811102C189E20E9455
:102EE0005D080E9476105CCE80913802806237E0E7
:102EF000E3163CE5F30609F4A0C008F4ADC08091E8
:102F0000380280649AC0809138028B7F9DE0E91678
:102F10009CE5F90609F491C0B0F4809138028E7FE7
:102F2000FBE0EF16FCE5FF0609F487C0809138024C
:102F30008C602CE0E2162CE5F20608F47EC080914D
:102F400038028D7F7AC0809138028F7E3FE0E31691
:102F50003CE5F30609F471C008F488C0809138029A
:102F60008F7D6BC09DEFE9169CE5F90609F486C0DC
:102F700078F5F5E1EF16FCE5FF0609F491C0A0F441
:102F800080913802837F33E1E3163CE5F30609F4D0
:102F900054C008F47BC00E94221190913802892FFE
:102FA00097FB87F9805849C09BEFE9169CE5F90625
:102FB00009F44EC008F05EC0809139028160FAEFDA
:102FC000EF16FCE5FF0609F04ACF8093390247CFA0
:102FD00021E0E2162DE5F20609F46EC0B8F48FEF99
:102FE000E8168CE5F80609F457C080913902836031
:102FF000E1149DE5F90648F380913902982F9095E8
:1030000091708E7F892B90FB81F9DFCFE1E6EE1680
:10301000EDE5FE0609F456C0F5EAEF16FDE5FF06FC
:1030200009F457C022E0E2162DE5F20609F017CFA9
:1030300060E043C0809138028260809338020FCFF5
:10304000809138028460F9CF809138028860F5CF92
:10305000809139028260B9CF809138028061EDCFD2
:103060000E942211809138028068E7CF8091380257
:10307000877FE3CF809139028E7FA7CF809139027D
:103080008D7FA3CF809138028F7BD7CF0E942211F2
:10309000809138028F77D1CF809139028C7F95CF84
:1030A0008091380282FB992790F921E0922790FBCA
:1030B00082F990FB83F9C1CF61E08EE090E00E943D
:1030C0006725CDCE90913802892F8F7E94FF806145
:1030D000B4CF90913802892F8E7F90FF8160ADCF61
:1030E00085E3FDCE8091AA01811104C089E20E948E
:1030F0005008F7CE85E3FBCF81608093280361E021
:1031000086950E94BE0E4CCD40E05FE069E07FE016
:103110000E94C00545CD49E05FE060E07FE0F8CF68
:1031200043E95EE06AE87EE0F3CF42E75EE06EE707
:103130007EE0EECF4AE55EE066E67EE0E9CF46E679
:103140005EE06AE57EE0E4CF4DEA5EE06CE97EE0B9
:10315000DFCF61E081E0D5CF65E082E00E94130F10
:103160001FCD68E086E0FACF64E18FE0F7CF67E13A
:1031700085E1F4CF62E289E1F1CF61E083E2C1CF82
:103180000E942211FFEF24E33CE0F1502040304048
:10319000E1F700C000000E94330981E036C380E0FF
:1031A00034C3C7010E948008D82E40C32F2D2F7032
:1031B000C22E8F2D807F19F0C29490EFC922DD209E
:1031C000B9F0CC2069F080E28E0D883010F08110CB
:1031D00009C080911A02C82AC0921A020E94761071
:1031E0008E2D4DC080911902C82AC0921902F6CFC7
:1031F0008E2D0E940714CC2009F443C080E28E0D6E
:10320000883010F0811004C08C2D0E94490806C03F
:10321000C09480911902C822C09219020E947610AF
:1032200030C03F2D3F70C32E8F2D807F803219F02C
:10323000C29480EFC822882089F081E0881609F4C2
:103240007FC0DD2009F489C0BB2009F47FC0F801EC
:10325000858180FFC5CF8F70858378C0209139022A
:1032600022FF4BC0DD2009F442C0CC2039F0809110
:103270001A02C82AC0921A020E94761080E00E94A8
:103280005614292D2850330B2430310510F40E9498
:10329000B405AA2009F447CC8091100280FD43CCEC
:1032A000F80112828595859585950E941311C801B4
:1032B0000E947115809110028595859585950F90D6
:1032C0000F900F900F900F90DF91CF911F910F9162
:1032D000FF90EF90DF90CF90BF90AF909F908F9036
:1032E0007F906F905F904F903F900C94CE1080E055
:1032F0000E940714CC2029F287CFDD20A1F0909105
:103300001B028C2D892BB11003C00E94FD13B9CF75
:10331000E1E0BE12FACF22FDB4CF981709F4B1CF85
:1033200080931B02AECFB11006C00E9443088C2DC3
:103330000E94F613A6CFF1E0BF1609F4A2CFF5CF95
:10334000DD2031F022E02B1508F49BCF8C2DDDCF52
:1033500031E03B1508F495CFEACFBB2041F3F9E308
:103360008F1209C02FEF37EE83E0215030408040AC
:10337000E1F700C000008E2D0E94071482CF8F2D30
:1033800086958695837061F0813009F07ACFC70108
:103390009370D11002C090E080E00E94880571CF48
:1033A000C7019370D11002C090E080E00E949E059A
:1033B00068CF8F2D837091F5D11063CF4E2D42953C
:1033C00046954770440F440F8E2D8F70042E01C018
:1033D000880F0A94EAF72E2D2071E4FE07C02FE033
:1033E00030E001C0220F4A95EAF720953F2D36952F
:1033F00036953370323069F050F440911C02313010
:1034000029F0822B84230E941E113BCF842B822B18
:10341000FACF282B80911C028227F5CF8695DD20DC
:1034200011F08F2D8170882309F42BCF4E2D4295FA
:1034300046954770440F440F8E2D8F70042E01C0A7
:10344000880F0A94EAF72E2D2071E4FE07C02FE0C2
:1034500030E001C0220F4A95EAF720953F2D3695BE
:1034600036953370323069F050F440915503313065
:1034700029F0822B84230E94BF1003CF842B822B40
:10348000FACF282B809155038227F5CF9F2D9F706F
:10349000F92EDD2029F0892F0E9413118E2D35CFB2
:1034A0008E2D0E94F6138F2D0E94CE10EACE8E2D07
:1034B000E2EF8E16B1F1E81570F0F0EF8F16D1F053
:1034C00021EF821691F0DD2009F45EC0B11088CEA4
:1034D0008F2D8F712AC033EF831651F194EF89122B
:1034E000F2CF8091390282FF2FC08F2D8F71DD20A6
:1034F000D9F21BC0DD2081F0E1E0EB1508F4C1CE6C
:103500002F2D2F7181E090E001C0880F2A95EAF7F6
:10351000909155038927AFCFF2E0FB1508F4B1CEA7
:10352000EFCF8F2D8F71D110BFCF0E941311A9CE75
:1035300080E0DD2009F49FCF9F2D9F7181E001C0C5
:10354000880F9A95EAF797CFDD2099F02F2D2F71EC
:10355000F22E822F0E9413118091390282FD07C042
:1035600038E0F39EC00111248360809310028F2DF8
:10357000DCCF81E00E94DA1081E08B1508F081CE6B
:1035800082E00E94DA107DCEBB2059F0893309F029
:10359000F2CE9FEFE7EEF3E09150E040F040E1F72C
:1035A000E8CE8F2D8F7180CFF0E1EF16FFE5FF069B
:1035B00009F4F3CB21E1E2162FE5F20609F4F7CB8B
:1035C00093EFE9169CE5F90609F45DCC08F0F1CB20
:1035D000F8EDEF16FCE5FF0609F451CC29EDE216F3
:1035E0002CE5F20609F45BCC37EDE3163CE5F30677
:1035F00009F0F0CB26E241EE61EEC8010E9402150F
:10360000CFCA30E1E3163FE5F30609F4CCCB91E1F4
:10361000E9169FE5F906A1F682E0C6CB85E0DE015A
:10362000119601900D928A95E1F7F8012281898126
:103630009A8121118FCA0E948008F82E93CAF6E160
:10364000EF16FCE5FF0609F44DCD80911A02827257
:103650002CECE2162CE5F20609F476CD08F06DC0EC
:1036600096ECE9169CE5F90609F45ACDE8F5F3EC79
:10367000EF16FCE5FF0609F447CD28F532ECE3161A
:103680003CE5F30609F0C3C08091280380FF34CDE8
:103690008E7F809328036091280370912903809185
:1036A0002A0390912B030E94B30D109274028FEFA6
:1036B00090E7E2E081509040E040E1F700C0000078
:1036C0000E9457096DCA94ECE9169CE5F90609F4C5
:1036D00022CD4AE85EE063E97EE0E5ECEE16ECE53B
:1036E000FE0609F415CD93C0F9ECEF16FCE5FF06D4
:1036F00009F420CD88F437ECE3163CE5F30609F431
:1037000014CD4EE75EE062E77EE098ECE9169CE5BA
:10371000F90609F4FDCC7BC0EAECEE16ECE5FE06FA
:1037200009F40DCD4CE95EE06DEA7EE0FBECEF16AE
:10373000FCE5FF0609F4ECCC6AC021EDE2162CE5AD
:10374000F20609F411CDB8F48EECE8168CE5F80613
:1037500009F402CD08F4FDCCEFECEE16ECE5FE0624
:1037600009F4FFCC6EE089E0F0EDEF16FCE5FF0612
:1037700009F4F4CC4CC024EDE2162CE5F20609F471
:10378000F9CC78F482EDE8168CE5F80609F4EFCC74
:1037900061E088E193EDE9169CE5F90609F4B1CC06
:1037A00036C0E5EDEE16ECE5FE0609F4E6CC6AE27D
:1037B00085E2FDE5EF16FF0609F4D0CC28C02AE526
:1037C000E2162DE5F20609F4E8CC68F4E1148CE584
:1037D000F80609F4D5CC9EEDE9169CE5F906B9F496
:1037E0000E94300FDDC9EBE5EE16EDE5FE0609F4AB
:1037F000D6CCFCE5EF16FDE5FF0649F480913902D1
:1038000082FB882780F991E089270E94F610F80151
:103810008281E080F180882309F4C3CCC7010E9433
:10382000820CD82E682FC7010E94A808B7018D2DE1
:103830000E94750C0E94C6067C01882EF801D28079
:10384000B580B2943FE0B322809110028770C1F03E
:10385000AD2CDD20B1F08F2D807F803421F080E20F
:103860008E0D883068F08091390282FD09C082E0B7
:103870000E94DA10809110028770AA24A39481110B
:10388000A12C9F2C92942FE09222FBE0F91508F4D2
:10389000F8CCE92DF0E0E65FF94D0C94C1241F93BC
:1038A000CF93DF938091DD01807FA9F48091DA01CD
:1038B000882389F080910F02D091DE016091D801B8
:1038C0007091D901A091DB01B091DC01C62FC72313
:1038D00016E0D81304C0DF91CF911F91089590E0B6
:1038E000109711F0CF3F19F401968770F2CF189F0F
:1038F0009001199F300D1124F901E152FE4F4181D1
:103900004713F2CF40814613EFCF42814111ECCFF4
:10391000438154814A1B5B0B483C510528F7809139
:10392000DD018F7080618093DD01F901EC51FE4F64
:1039300080818F708061808388ED91E00E94711595
:10394000DF91CF911F910C947608AF92BF92CF92E6
:10395000DF92EF92FF920F931F93CF93DF93CDB738
:10396000DEB761970FB6F894DEBF0FBECDBF8C01F6
:1039700085E0F801DE011D9601900D928A95E1F730
:10398000F801E28088EDA82E81E0B82E6091DB017D
:103990007091DC016115710509F432C19091D80173
:1039A0004091D901892F84238F3F09F429C12081B7
:1039B0003181C380D480F090DA01F601E61BF70B69
:1039C000FF2009F4E8C08091DD01582F507FE83CCA
:1039D000F10508F0ABC0511177C0FE2C431321C094
:1039E00092131FC0E1101DC08F7080618093DD01B4
:1039F000C5010E9471158091DD01F80185838F2D2D
:103A000061960FB6F894DEBF0FBECDBFDF91CF91A8
:103A10001F910F91FF90EF90DF90CF90BF90AF90EC
:103A20000895CD2829F0822F83238F3F09F003C109
:103A300080E0F82FF170DF2E80FF3CC080910F02F4
:103A40004091DE0156E0841315C02D873E878D8599
:103A50009E850E94B10C292F22952F702230F0F004
:103A6000243018F59F70F1F0F8019581907FD1F422
:103A7000D12C1EC090E0589FF001599FF00D1124E9
:103A8000E152FE4F6181361306C06081261303C0E8
:103A90006281E6120FC001968770D5CF9F7011F03A
:103AA000882331F3805E883018F3C8010E947115B5
:103AB000FD2CA5CFEE2009F4A2CF8091DD0181601D
:103AC0008093DD01F12C9BCF431306C0921304C0F9
:103AD000F801EE2009F479C0C8010E94BD0C8823CA
:103AE00009F1EE20F9F08091DD01803270F0209133
:103AF000D8013091D90138872F831986DB86CA8691
:103B00008C87CE0107960E94711586E0F801A8ED1A
:103B1000B1E001900D928A95E1F70E944F1CFF24BD
:103B2000F3946DCFC8010E947115F9CF51110AC0ED
:103B300088ED91E00E94711586E0F50111928A9559
:103B4000E9F7C0CF43130FC092130DC0E1100BC0B3
:103B5000F8018583C8010E94711586E0F501119274
:103B60008A95E9F74CCFC8010E94BD0C8823D1F299
:103B7000EE20C1F28091DD01803238F22091D8012F
:103B80003091D9013A8329831B82DD82CC828E83D6
:103B9000CE010196B8CFE83CF105F8F6FE2CEE20F8
:103BA00009F243131FC092131DC08091DD0180FDF7
:103BB00010C0982F907F69F0F8018583903F31F015
:103BC000982F907F905F8F70892B8583C8010E940A
:103BD000711586E0F801A8EDB1E001900D928A958B
:103BE000E1F70DCFC8010E94BD0C81118ECF8091ED
:103BF000DD0181608093DD01C8010E947115FFCE57
:103C0000EE2009F48FCFC8010E94BD0CF82E882346
:103C100009F488CF86E0F801A8EDB1E001900D929B
:103C20008A95E1F78091D8019091D9010E94B10C59
:103C30000E944F1CE4CE81E08E25FBCE1F93CF93D4
:103C4000DF93CDB7DEB767970FB6F894DEBF0FBE30
:103C5000CDBF4B8B5C8B6D8B7E8B8F8B61111092EC
:103C600019021A8A198A85E0FE017396DE011D96F3
:103C700001900D928A95E1F786E0FE013D96DE0106
:103C8000179601900D928A95E1F7CE0107960E9452
:103C9000A51C882389F016E080910F029091DE0127
:103CA000891349C067960FB6F894DEBF0FBECDBF2B
:103CB000DF91CF911F91089586E0FE013796DE01D6
:103CC000119601900D928A95E1F78A859B85892B43
:103CD00011F38F81988589238F3FE9F22091DE01CE
:103CE00030E0C90101968770992740910F0248176B
:103CF000190671F40E9422111092DE0110920F0237
:103D000086E0E8EDF1E0DF011D928A95E9F7C3CF87
:103D100096E0929FD001939FB00D1124A152BE4F07
:103D2000FE01319601900D929A95E1F78093DE01A4
:103D30000E947608B0CF819FC001112481529E4F0E
:103D40000E94A51C882309F4ADCF80910F0290E05A
:103D500001968770992780930F029ECF90E080E0B4
:103D60000E946125893E9E4F11F40C94DD0C80E089
:103D700008951F920F920FB60F9211242F933F9325
:103D80004F935F936F937F938F939F93AF93BF9363
:103D9000CF93DF93EF93FF93D091E900DF70809191
:103DA000EC00C82FC17080FDC0E81092E90080913E
:103DB000F000877F8093F00078940E942D1110927C
:103DC000E9008091F00088608093F000CD2BCF70E7
:103DD000C093E900FF91EF91DF91CF91BF91AF9137
:103DE0009F918F917F916F915F914F913F912F9113
:103DF0000F900FBE0F901F9018951F920F920FB645
:103E00000F9211242F933F934F935F936F937F9360
:103E10008F939F93AF93BF93EF93FF938091E100B4
:103E200082FF09C08091E20082FF05C08091E1001D
:103E30008B7F8093E1008091DA0080FF24C0809125
:103E4000D80080FF20C08091DA008E7F8093DA0056
:103E50008091D90080FF9DC080E189BD82E189BD4C
:103E600009B400FEFDCF81E08093440380913703C5
:103E7000811109C00E94EC030E94B7048091E20006
:103E800084608093E2008091E10080FF17C0809100
:103E9000E20080FF13C08091E2008E7F8093E200F9
:103EA0008091E20080618093E2008091D80080627E
:103EB0008093D80019BC85E0809344038091E10091
:103EC00084FF2BC08091E20084FF27C080E189BD80
:103ED00082E189BD89B5982F917080FFFBCF8091D9
:103EE000D8008F7D8093D8008091E1008F7E8093F1
:103EF000E1008091E2008F7E8093E2008091E200F9
:103F000081608093E20080914503882309F447C0D3
:103F100084E080934403809144038091E10083FF17
:103F200027C08091E20083FF23C08091E100877F5A
:103F30008093E10082E080934403109245038091D6
:103F4000E1008E7F8093E1008091E2008E7F80937C
:103F5000E2008091E20080618093E20042E060E054
:103F600080E00E9485048091F00088608093F000DA
:103F7000FF91EF91BF91AF919F918F917F916F9141
:103F80005F914F913F912F910F900FBE0F901F9017
:103F9000189519BC109244031092370374CF809186
:103FA000E30087FD93E090934403B5CF78941F928C
:103FB0001FB61F9211248F939F93AF93BF9380914D
:103FC0004E0390914F03A0915003B091510301967D
:103FD000A11DB11D80934E0390934F03A0935003F6
:103FE000B0935103BF91AF919F918F911F901FBECE
:103FF0001F9018951F921FB61F9211248F939F93A5
:10400000AF93BF9380913303811113C080914E030E
:1040100090914F03A0915003B09151034196A11D7F
:10402000B11D80934E0390934F03A0935003B09320
:104030005103BF91AF919F918F911F901FBE1F9011
:104040001895CDB7DEB7AA970FB6F894DEBF0FBEAE
:10405000CDBF84B7877F84BF0FB6F894A8958091B1
:104060006000886180936000109260000FBE80E85D
:1040700090E00FB6F89480936100909361000FBEBA
:1040800085B7806885BF85B7806885BF8AE696E07A
:104090009093A1018093A0010E94EC030E94B704B9
:1040A0008091E20084608093E200789480914403E0
:1040B0008823A1F01091E9001F709091EC00892FE6
:1040C000817090FD80E8182B1092E9008091E80043
:1040D00083FD0E942D111F701093E90082E084BDC2
:1040E00093E095BD9AEF97BD80936E000E94DD0C22
:1040F000811102C00E94400C00E511E08CE5E82E21
:1041000081E0F82ED8018D918D018F3F11F00E9432
:104110006C06E016F106B1F70CE511E0B6E6EB2E01
:10412000B1E0FB2EF80181918F018F3F11F00E94C9
:104130006C06E016F106B1F788E1E5E5F2E0DF0193
:10414000282F1D922A95E9F7E0E2F2E0DF011D92A7
:104150008A95E9F70E94AE1E811102C00E94300FBD
:1041600082E090E00E94532580933B020E94F60C6F
:1041700090933902809338020E949A0FEFE3FCE992
:104180003197F1F700C000000E949A0F809155020C
:1041900080FF08C06FEF7FEF90E080E00E948525F0
:1041A0000E94330983E090E00E9453250E941E1173
:1041B00080913A02811133C00E94AE1E811104C069
:1041C0000E94300F0E94210F88E090E00E945B2542
:1041D000609328037093290380932A0390932B0301
:1041E0006E7F71F40E94210F88E090E00E945B25B1
:1041F000609328037093290380932A0390932B03E1
:104200000E94C505109274028091280380FF04C0AB
:1042100060E086950E94BE0E81E080933A0284E0C1
:1042200091E09093300380932F0368E1A62EB12C88
:1042300070E4672EE0E17E2EF2E18F2EA0E19A2E4F
:1042400080914403853049F480914403853009F41A
:10425000C0C00E9422110E94B4050E949A0F8823B8
:1042600059F08FB7F89440914E0350914F036091ED
:104270005003709151038FBF55E5E52E52E0F52EA6
:10428000ECE3F2E0D70110E000E0702F8D919D91FA
:10429000219131912817390709F4D9C028273927E6
:1042A00060E0CC24C394D12CA9014C215D21452B85
:1042B00009F4C7C069A37AA39C012C213D2191E098
:1042C000232B09F490E09BA30E947C058160782F4A
:1042D0009DA38CA349A15AA16BA18DA10E941E1E72
:1042E000000F111FF801E45CFD4F80819181C82609
:1042F000D926D182C082809174028823D1F1809125
:104300007302E0912803E695E81BE0936F02823088
:1043100009F0B4C0F0E0EF5FFD4FE4910E2F10E024
:104320008EEAC82E8BE0D82E80917002882361F02F
:10433000109270020E947C0590936E0280936D0231
:1043400010927202109271020E947C05E0916D023F
:10435000F0916E028E1B9F0B8F3F9F4750F4E00F32
:10436000F11FF0936E02E0936D028DE692E0F6018C
:1043700009950E94B40590915402891380935402C8
:1043800080914403843009F05BCF83E08093E9009F
:104390008091E80082FF54CF8091E80090E085FF93
:1043A00006C00E940B04882309F4D4C091E08091D8
:1043B000E8008B778093E800992309F441CFE981E5
:1043C000E150E33108F046C1F0E0EA5EF94D0C94AB
:1043D000C12480914403843009F1109233030FB655
:1043E000F894A895A09260000FBE6092600083B719
:1043F000817F846083BF83B7816083BF7894889511
:1044000083B78E7F83BF0FB6F894A8958091600024
:10441000886180936000109260000FBE809143031A
:10442000882309F411CF0E949A0FE5E5F2E081910B
:104430009191892B09F044C222E0ED36F207B9F7D9
:1044400003CF6F5FCC0CDD1C6A3009F02DCF0F5FFE
:104450001F4F0C30110509F018CF8FEF8EA38FA3DB
:1044600018A60E947C058160782F9AA789A74EA183
:104470005FA168A58AA50E941E1E3DCF863059F413
:10448000F0E0E250FE4FE4910E2F10E0BEE9CB2E9B
:10449000BBE0DB2E49CF893061F4E695F0E0E550D2
:1044A000FE4FE4910E2F10E0AAE0CA2EABE0DA2E08
:1044B0003BCF8F3061F4E695F0E0E850FE4FE49199
:1044C0000E2F10E0FCE9CF2EFAE0DF2E2DCF853144
:1044D00059F4F0E0EB50FE4FE4910E2F10E0EEE4C3
:1044E000CE2EEAE0DE2E20CF08E210E055ECC52EFD
:1044F00059E0D52E883109F417CF833249F4E3EF20
:10450000F1E00591149175E4C72E7BE0D72E0CCF16
:1045100004EF11E04CE8C42E49E0D42E843209F4B3
:1045200003CF00ED17E037E7C32E35E0D32E8532F9
:1045300009F0FACE8E2F63E00E947F24E92FF0E08D
:10454000E051FE4FE4910E2F10E064E0C62E6DE0C6
:10455000D62EEACE00E210E0CE0101966C018091E9
:10456000E80085FD0AC08091E8008B778093E80021
:104570000E940B04882399F319CF8091F100D60192
:104580008D936D010150110951F710CF1A8289E006
:10459000DBC08A81823009F4A9C18330D9F181302E
:1045A00009F058C02FB7F89460914E0370914F03F3
:1045B00080915003909151032FBF0E94C7246B83B9
:1045C0007C838D839E8380914403843009F038CEB0
:1045D0001091E9001F709091EC00892F817090FD7F
:1045E00080E8182B82E08093E9008091E80080FF4A
:1045F0000DC050E040E060E270E0CE0101960E9404
:104600003C048091E8008E778093E8001F7010933F
:10461000E90016CEFE0131968DE692E0D7012C918D
:1046200011963C91B2E0EB0EF11C3283238332965B
:104630008E159F0599F7C7CF8A81823059F46B8117
:104640007C818D819E810E94C72486E290E00E9439
:104650006725B9CF8FEF8983B6CF4C816B818A8173
:104660000E944F0C9827892798279E838D83ABCF74
:104670000D811E811027012710278A81EB80E4E13C
:10468000EE9E70011124F0EF8F9FE00CF11C1124BD
:104690008C8190E0880F991FE80EF91E612FC701E9
:1046A00087960E946725602FC7018896D0CF0E9409
:1046B000D20B89CF8A818138C1F060F4803809F04B
:1046C00082CF20E04B8160912A03809129030E94D0
:1046D000C50D79CF823859F1833809F074CF20E0C5
:1046E00040912B036C818B81F2CF60E08B810E9423
:1046F000BE0E9B8180912803911111C08E7F809303
:104700002803109274022FEF40E782E021504040CE
:104710008040E1F700C000000E94570954CF81603B
:104720008093280360E086950E94BE0E4CCF8B815B
:1047300080932C0348CF8A818138A1F038F48038E7
:1047400009F041CF80912B038B833DCF823891F0CC
:10475000833809F038CF809129038B8380912A0315
:104760008C8331CF8091280380FF02C08695ECCFE7
:1047700080E0EACF80912C03E7CF6091280370910D
:10478000290380912A0390912B030E94B30D1BCF24
:104790009A8219CF81E08A83FACEEA80FB80FE24D8
:1047A000EF24FE248E010F5F1F4FCC80C00ED12E50
:1047B000D11CC70189509D4FC016D10609F403CF03
:1047C000A9E0EA16A1E0FA0650F40E945325F80188
:1047D0008483BFEFEB1AFB0A0F5F1F4FEACFD801AC
:1047E00014961C92F6CF0A811B81102701271027EF
:1047F000FE0131966F01EC80E00EF12EF11CC80134
:1048000089509D4FE016F10609F4DDCE0930F1E044
:104810001F0728F4D60114966C910E946725BFEFFC
:10482000CB1ADB0A0F5F1F4FEACF0E94C20BCBCE21
:1048300083E08A83C8CEEA80FB80FE24EF24FE2436
:104840008E010F5F1F4FCC80C00ED12ED11CC7012F
:104850008796C016D10609F4B6CEE0EDEE16E2E07A
:10486000FE0658F40E945325D80114968C93FFEF4E
:10487000EF1AFF0A0F5F1F4FEACFF8011482F7CF3C
:104880000A811B81102701271027CE0101966C0198
:10489000EC80E00EF12EF11CC8018796E016F106BF
:1048A00009F491CE003DA2E01A0720F4F6016481DC
:1048B0000E946725FFEFCF1ADF0A0F5F1F4FECCF73
:1048C00079BC89BC09B400FEFDCF8091D8008F7DF2
:1048D0008093D8008091E00082608093E000809116
:1048E000E00081FDFCCF0E942211AECC86E290E078
:1048F0000E9453251B821C821D828E8364CE991BCD
:1049000079E004C0991F961708F0961B881F7A95C6
:10491000C9F78095089587FB082E062687FD8195A7
:1049200067FD61950E947F240EF4919507FC8195A7
:104930000895AA1BBB1B51E107C0AA1FBB1FA617E6
:10494000B70710F0A61BB70B881F991F5A95A9F738
:1049500080959095BC01CD01089597FB072E16F424
:10496000009407D077FD09D00E94992407FC05D058
:104970003EF4909581959F4F0895709561957F4F76
:104980000895EE0FFF1F0590F491E02D099469271B
:104990009627692778278727782708950E94EF258B
:1049A000332312F48A1B9B0B0C94D8240E94EF250E
:1049B000B7FF0895821B930B08958F929F92AF9239
:1049C000BF92CF92DF92EF92FF92CF93DF93EC01F1
:1049D000688179818A819B816115710581059105C5
:1049E00021F464E279ED8BE597E02DE133EF41E0CE
:1049F00050E00E949B2549015A019B01AC01A7EAA6
:104A0000B1E40E94BA256B017C01ACEEB4EFA501C4
:104A100094010E94C825DC01CB018C0D9D1DAE1DAB
:104A2000BF1DB7FF03C00197A109B04888839983D0
:104A3000AA83BB839F77DF91CF91FF90EF90DF90A8
:104A4000CF90BF90AF909F908F9008950E94DD24EB
:104A5000089580E091E00E94DD240895B0E0A0E098
:104A60008093000190930101A0930201B093030190
:104A70000895FC014150504030F001900616D1F7E6
:104A80003197CF010895882799270895FB01DC010C
:104A900004C08D910190801921F441505040C8F715
:104AA000881B990B0895F999FECF92BD81BDF89AA4
:104AB000992780B50895A6E1B0E044E050E00C9459
:104AC0008D25A8E1B0E042E050E00C948D25262F22
:104AD000F999FECF92BD81BDF89A019700B40216F4
:104AE00039F01FBA20BD0FB6F894FA9AF99A0FBEA2
:104AF00008950396272F0E9468250E946725252F79
:104B00000E946825242F0C9468250196272F0E9467
:104B100068250C946725DC01CB01FC01F999FECFD7
:104B200006C0F2BDE1BDF89A319600B40D92415035
:104B30005040B8F70895052E97FB1EF400940E948C
:104B4000B22557FD07D00E94CD2507FC03D04EF4B7
:104B50000C94B22550954095309521953F4F4F4F7D
:104B60005F4F089590958095709561957F4F8F4F19
:104B70009F4F08950E94EF25A59F900DB49F900D23
:104B8000A49F800D911D11240895B7FF0C94BA25A0
:104B90000E94BA25821B930B0895A1E21A2EAA1B2C
:104BA000BB1BFD010DC0AA1FBB1FEE1FFF1FA217DD
:104BB000B307E407F50720F0A21BB30BE40BF50BDA
:104BC000661F771F881F991F1A9469F76095709563
:104BD000809590959B01AC01BD01CF010895A29FE6
:104BE000B001B39FC001A39F700D811D1124911DC1
:104BF000B29F700D811D1124911D0895F894FFCF6F
:104C000013123B12DE133B12DE136E128F12DE13F1
:104C10008D139A13D618D61811191119BF194119E5
:104C200041194119D919461A571A571AC622C922C9
:104C30001C232D23382357235A239B23BD232A23A8
:104C40002A23C823CA23CD23F323152418241B2485
:024C50004024FE
:104C5200010000007905060978050209FE087605BB
:104C620001191A1B1C1D1E1F202122010201018194
:104C72008283E200E900EA00B500B600B700CD0089
:104C82008301CC008A0192019401210223022402B1
:104C92002502260227022A02B300B4006F00700028
:104CA2009091929395F7F6F5F4F1F0C6313094961F
:104CB20097343536666700010202020206060609CB
:104CC20009090909090F0F0F0F0F0F1515151819EB
:104CD20019191919191919191923242525252525F1
:104CE200254022320001DE00AC00EC060507250754
:00000001FF
