:100000000C94FF020C9446030C9446030C94460394
:100010000C9446030C9446030C9446030C9446033C
:100020000C9446030C9446030C942A2B0C94FE2B40
:100030000C94DE220C9446030C9446030C94460365
:100040000C9446030C9446030C9446030C9446030C
:100050000C9446030C9435230C9446030C944603ED
:100060000C9446030C9446030C9446030C944603EC
:100070000C9446030C9446030C9446030C944603DC
:100080000C9446030C9446030C9446030C944603CC
:100090000C9446030C9446030C9446030C944603BC
:1000A0000C9446030C9446030C9446032900080064
:1000B000150018000C002A0014001A0017001C007C
:1000C000120013002B00070009000D000E0028008D
:1000D000040016000A000B000F003300E1000600C8
:1000E000190010003600E5001D001B00050011007E
:1000F00037003800E000E4000000000000000000CD
:10010000E2002C42C25C2C41E600E7003500AB0067
:100110000100010052000100AC00AE00010001002E
:100120002F0030000100A8000100500051003400F1
:10013000AA00A900010001004F0001000100010018
:10014000010001002D00010001000100010001007B
:100150002E0038000100005C0000000000000000DC
:100160000100010001000100010001000100200068
:1001700021002400250001001E001F002200230092
:10018000260027000100010001000100010001001C
:100190000100010001000100010001000100010057
:1001A0000100010001000100010001000100010047
:1001B000010031000100010000000000000000000B
:1001C0000100010001000100010001000000000029
:1001D000000000002A2B28000000000000000000A2
:1001E0000000000000000029000000002C1E342048
:1001F000212224342627252E362D3738271E1F206E
:100200002122232425263333362E37381F040506B2
:100210000708090A0B0C0D0E0F10111213141516F6
:100220001718191A1B1C1D2F3130232D35040506F4
:100230000708090A0B0C0D0E0F10111213141516D6
:100240001718191A1B1C1D2F3130354C00000000E7
:10025000000000000000000000000000000000009E
:100260007E0F00D4FFFFFFC70000007832190A009C
:10027000047F3F1F643214643214783C1E1E140A3B
:10028000052223252628292A2C2D2F3032333536D6
:10029000383A3B3D3E4042434547494A4C4E505117
:1002A000535557595A5C5E6062646668696B6D6F3E
:1002B00071737577797B7D7F81838587898A8C8E41
:1002C00090929496989A9C9E9FA1A3A5A7A8AAAC49
:1002D000AEAFB1B3B4B6B8B9BBBCBEBFC1C2C3C583
:1002E000C6C7C9CACBCCCDCED0D1D2D2D3D4D5D625
:1002F000D7D7D8D9D9DADADBDBDBDCDCDCDCDCDD58
:10030000DDDDDDDCDCDCDCDCDBDBDBDADAD9D9D83B
:10031000D7D7D6D5D4D3D2D2D1D0CECDCCCBCAC9D3
:10032000C7C6C5C3C2C1BFBEBCBBB9B8B6B4B3B102
:10033000AFAEACAAA8A7A5A3A19F9E9C9A9896949D
:1003400092908E8C8A89878583817F7D7B79777572
:1003500073716F6D6B6968666462605E5C5A595751
:10036000555351504E4C4A4947454342403E3D3B10
:100370003A3836353332302F2D2C2A29282625239A
:1003800022FFAA7F55400001010101010101010185
:100390000202020202020202020303030303030336
:1003A0000304040404040404050505050506060603
:1003B0000606070707070708080808090909090AC0
:1003C0000A0A0B0B0B0C0C0C0D0D0D0E0E0E0F0F65
:1003D0000F101011111112121313141415151616F3
:1003E0001717181819191A1A1B1B1C1D1D1E1E1F62
:1003F0002020212222232424252626272829292AB1
:100400002B2C2D2D2E2F30313232333435363738D8
:10041000393A3B3C3D3E3F404142434445464748D4
:10042000494A4C4D4E4F50515354555658595A5BAA
:100430005D5E5F616264656668696B6C6D6F70724A
:10044000737577787A7B7D7E8082838587888A8CB6
:100450008E8F91939596989A9C9EA0A2A3A5A7A9EA
:10046000ABADAFB1B3B5B7BABCBEC0C2C4C6C9CBE1
:10047000CDCFD1D4D6D8DBDDDFE2E4E7E9EBEEF097
:10048000F3F5F8FAFDFF0403300000001003430009
:10049000520033005700560041004E0000000A038E
:1004A0004E0061007300700000000403090409029B
:1004B0005B00030100A0FA09040000010301010030
:1004C0000921110100012240000705810308000AEB
:1004D00009040100020300000009211101000122AA
:1004E0002200070582032000010705030320000105
:1004F000090402000103000000092111010001228A
:1005000081000705840320000A1201100100000089
:1005100008707036450100010203010660FF0961A1
:10052000A1010962150026FF0095207508810209C6
:1005300063150026FF00952075089102C00501098A
:1005400002A10185020901A100050919012905156A
:10055000002501950575018102950175038101054D
:1005600001093009311581257F9502750881060939
:10057000381581257F950175088106050C0A38021A
:100580001581257F950175088106C0C00501098088
:10059000A101850319012AB700150126B7009501AD
:1005A00075108100C0050C0901A101850419012AFB
:1005B000A002150126A002950175108100C0050159
:1005C0000906A101050719E029E71500250195088D
:1005D000750181029501750881010507190029FF40
:1005E000150026FF009506750881000508190129E8
:1005F00005950575019102950175039101C01124BE
:100600001FBECFEFDAE0DEBFCDBF04B603FE27C0CA
:100610008091440390914503A0914603B091470314
:100620008730904BA740B04BD1F410924403109206
:100630004503109246031092470314BE84B7877F88
:1006400084BF0FB6F894A89580916000886180936C
:100650006000109260000FBEE0E0F8E3099511E041
:10066000A0E0B1E0EAECFEE502C005900D92AC3EE0
:10067000B107D9F723E0ACEEB1E001C01D92A4347C
:10068000B207E1F70E94EF270C94142F0C9400009E
:100690001F93CF93DF93182FC62F0E944803D82FA4
:1006A000882389F0113039F489EFC11109C08AEF2C
:1006B0000E94CA1808C0111106C0CC2349F089EA6B
:1006C0000E94CA18DC2F8D2FDF91CF911F910895C2
:1006D0008AEAEECF81E0089581E008950C946C03DE
:1006E00008950C9470031F93CF93DF9300D000D034
:1006F0000F92CDB7DEB749835A836B83309167027F
:1007000089819A8131111DC06623B9F02223A9F095
:100710000E944920182F682F89819A810E94F21F18
:1007200069817A81812F0F900F900F900F900F9019
:10073000DF91CF911F910C94A6130E942020182FB7
:10074000EFCF0E94492069817A81EDCFFC01262FED
:10075000408151816281738184810C947303CF93B2
:10076000DF93EC0160E00E94A603BE01DF91CF9110
:100770000C947103FF920F931F93CF93DF93E82F95
:10078000F0E0E453FE4FF490C82FC695C695C69589
:10079000D0E0FE01E45AFD4F0491877010E0082E6E
:1007A00002C0159507950A94E2F701701127C45B02
:1007B000DD4FFE01C491D0E002C0D595C7958A9562
:1007C000E2F7C170DD270115110519F081EE0E94D5
:1007D000E217209719F086EE0E94E2178F2D0E94F3
:1007E000CA18CD2B19F086EE0E947418012B41F027
:1007F00081EEDF91CF911F910F91FF900C947418AF
:10080000DF91CF911F910F91FF900895EF92FF928A
:100810000F931F93CF93DF93EC01162F0AE088818B
:10082000882309F454C0813009F04EC08981813099
:1008300099F47E0122E0E20EF11C8A810E94CA181E
:10084000E7012196812F815050F3EFE9FFE03197C6
:10085000F1F700C00000F7CF823041F47E0182E062
:10086000E80EF11C8A810E94E217EACF833041F43E
:100870007E01E2E0EE0EF11C8A810E947418E0CF46
:10088000843011F02196DDCF2A81229690E080E01D
:10089000AE014F5F5F4F2053330B2A30310548F0D4
:1008A000019778F2EFE9FFE03197F1F700C000001F
:1008B000F7CF089FB001099F700D1124C901860F61
:1008C000971F2981EA01E4CF0E94BA03BACFDF91D2
:1008D000CF911F910F91FF90EF90089560E00C94DD
:1008E00006048F929F92AF92BF92CF92DF92EF92C7
:1008F000FF920F931F936B017C0181E090E0A0E0D9
:10090000B0E04C015D0104C0880C991CAA1CBB1C02
:100910004A95D2F7B501A4014C015D0104C0880CD1
:10092000991CAA1CBB1C2A95D2F7482959296A2967
:100930007B2904C0880F991FAA1FBB1F0A95D2F7F5
:100940008A019B010C211D212E213F21041715072F
:100950002607370789F48C299D29AE29BF29BC01B8
:10096000CD011F910F91FF90EF90DF90CF90BF903E
:10097000AF909F908F90089580959095A095B09599
:100980008C219D21AE21BF21EACF0F93382F262F36
:100990006091BE027091BF028091C0029091C1022D
:1009A000042F432F0E9471040F910C94301F0E945A
:1009B0007F230E949321811102C00E9430220C9457
:1009C00046070C94490708950E94591B0E94E304AE
:1009D0002FEF84E39CE0215080409040E1F700C07D
:1009E00000000C9459230F931F93CF93DF93EC01D6
:1009F00061E00E94A6038C01BE010E947B11882346
:100A000089F1BE01C8010E946E03882359F1BE011D
:100A1000C8010E94FC14882329F1BE01C8010E946C
:100A20004E158823F9F0BE01C8010E947116882373
:100A3000C9F0BE01C8010E94960F882399F08A81EF
:100A4000882339F001158CE5180751F00E3D1C453F
:100A500079F0CE01DF91CF911F910F910C946A0331
:100A60000E94E40480E0DF91CF911F910F910895DF
:100A70000E943022F7CF08950C943B0581E0089541
:100A80000C943E05CF93C82F0E943C058C2FCF912C
:100A90000C94400590E080E008950895FC01EE0F6D
:100AA000FF1FE459FD4F859194910895CF93DF93F3
:100AB0000E94A6130E946B06EC01811520E59207A7
:100AC00008F042C0811530E4930708F0BDC0883EAD
:100AD000910528F5803E910508F09DC0883A910562
:100AE00088F4853A910508F08FC08130910509F4AA
:100AF00092C0009709F48FC0049708F08CC0D0E032
:100B0000C0E089C08F3B910508F489C0805C9109E1
:100B1000C03CD105A0F30E944E05EC017CC08115BC
:100B2000904250F4C11581E0D80708F074C0C03F6E
:100B3000D10528F3D0656FC0C11590E3D90708F03F
:100B400079C0CE019F70E7CF811525E5920758F552
:100B5000811534E5930708F0A6C0811542E5940796
:100B600050F4C11581E5D80708F471C0DC2FCC27FB
:100B7000C16FD06A50C0982F969596959E012370AC
:100B80003327C115D34508F07FC0C1E0D0E002C0D3
:100B9000CC0FDD1F2A95E2F720E2929FC0011124BD
:100BA000C82BD92B6FC0C11589E5D807A8F4C1158A
:100BB00098E5D90708F07CC0C11526E5D20708F0F2
:100BC0009ECF8C2F0E940207C82FD0E0DC2FCC27AD
:100BD000CC27DF71D0621FC0C1153AE5D30708F4F6
:100BE0006CC0CE0190568115904208F088CF8D2FB1
:100BF0008F710E94020790E0982F882788279F71A5
:100C00009C012C2BE901E6CFC55AD0E0C65ADE4F35
:100C1000C881D0E0D064CE01DF91CF910895C85A49
:100C2000D0E0CC0FDD1FC45DDE4F0990D881C02D10
:100C3000D464F1CFCE019927D3FF03C0EC01D86C67
:100C4000EACFEC01D06CE7CFDF70D06AE4CFCE0101
:100C5000E4E096958795EA95E1F783702C2F269529
:100C60002695237090E2299F90011124382B8C2F18
:100C70008370C1E0D0E002C0CC0FDD1F8A95E2F79F
:100C8000C22BD32BDC68C7CFC1E0D0E002C0CC0FB1
:100C9000DD1F2A95E2F730E2939FC0011124C82B93
:100CA000D92BDA68B8CFD82FCC27C46FD06AB3CF8E
:100CB000DC2FCC27C06FD06AAECF8C2F8F700E94F4
:100CC000020734E0D695C7953A95E1F7CF709C2F8F
:100CD000EC01D069A0CF82389105B1F1B0F4813335
:100CE000910509F475C048F48932910509F469C089
:100CF0008A32910509F473C008958533910509F48A
:100D000059C08933910501F10895833E9105A9F1F8
:100D100038F4803E9105F9F0823E910549F108953D
:100D2000863E9105A9F1873E9105C9F1843E910562
:100D300019F52091360321FF1FC08091350384FDF2
:100D400014C087EE90E00895209135032370A1F040
:100D500080EE90E008952091350320FD47C030914A
:100D6000360330FF09C024FF44C090E080E004C097
:100D70002091350322FDF7CF08952091350322FD00
:100D80003BC03091360330FDE3CF24FFF5CFEDCFEC
:100D90002091350323FFF0CF24FDE7CFD2CF209160
:100DA000350323FD2CC03091360331FFEECF84EEA6
:100DB00090E008952091350325FFDECF89E290E091
:100DC00008952091350325FFD7CF85E390E008955E
:100DD0002091350326FFD0CF8AE290E0089520913C
:100DE000350326FFC9CF81E390E0089589E390E0C1
:100DF000089583EE90E0089582EE90E0089586EEE7
:100E000090E008959091350392FF06C0282F287135
:100E10002830F9F4877F846093FF06C0282F28715B
:100E20002831F1F4877E84612091360320FF06C0CB
:100E3000382F38713830D9F4877F816021FF06C0A0
:100E4000282F28712831D1F4877E816194FD877E17
:100E50000895282F24712430F9F68B7F8860DCCF29
:100E6000282F2471243101F78B7E8861DDCF382F44
:100E70003171313019F78E7F8860E0CF282F2171D2
:100E8000213121F78E7E8861E1CF08950C944507CA
:100E900008950C944807E82FF0E0EC50FD4F808156
:100EA0000895089580EA8A95F1F70895A3E6B1E0E0
:100EB00061E070E08D91E82FE295EF70F0E041A1E4
:100EC0008F709B0101C0220F8A95EAF7922F9095AF
:100ED000942391A382A1822B82A381E0AB36B80731
:100EE00049F7ADE5B1E061E070E08D91E82FE29562
:100EF000EF70F0E041A18F709B0101C0220F8A9535
:100F0000EAF7922F9095942391A382A1822B82A33A
:100F100081E0A336B80749F7ECEEF2E0A4EFB2E0C7
:100F200084EF92E011921D928E179F07D9F788E007
:100F30000E941C080C94D7048F929F92AF92BF928C
:100F4000CF92DF92EF92FF920F931F93CF93DF9395
:100F500083E6A82E81E0B82E0CEE12E0912CCC2472
:100F6000C394D12CF50181915F01C82FC295CF7038
:100F7000D0E099A18F70760101C0EE0C8A95EAF756
:100F8000892F8E2989A38AA18E2C809488218AA3F7
:100F90000E945207EDE5F1E050E040E020E03191A1
:100FA000A32FA295AF70B0E090968C9190E03F7027
:100FB00002C0959587953A95E2F780FD39C08C2D52
:100FC000042E01C0880F0A94EAF7282B4F5F5F4F69
:100FD0004630510521F789A1882289A28AA1E82AF1
:100FE000EAA2F8018081281729F1208381E0982A5C
:100FF0000F5F1F4FFBE6AF16F1E0BF0609F0B2CF5F
:10100000292D48E064EF72E08CEE92E00E941D080A
:101010000E94E104892DDF91CF911F910F91FF90E4
:10102000EF90DF90CF90BF90AF909F908F900895FA
:1010300080E0CBCF80E0DBCF0895FF920F931F932A
:10104000CF93DF93F82E092F162FD72FC42F2223EB
:1010500049F081E08093EE010E940E239093ED0110
:101060008093EC018091EE018823A1F08091EC0146
:101070009091ED010E942623069760F0EF2DF02F4E
:10108000A12FBD2FCE0FDF2FD11DEC17FD0741F48F
:101090001092EE01DF91CF911F910F91FF90089573
:1010A00081918D93F2CFEF92FF920F931F93CF9385
:1010B000DF93EB01E82FD11110C0442321F0F0E0C1
:1010C000EA57FC4FE4916E2F7E2F8E2FDF91CF9148
:1010D0001F910F91FF90EF9008950D2F10E0282F92
:1010E00030E0442329F02A573C4FF901249130E0A5
:1010F000F6E0CF9FC0011124EFEFF0E0BF010E94A6
:10110000BC2DAB018C2F90E0880F991FA5E5A49F03
:10111000B001A59F700D1124861B970B982F990F76
:10112000980FBF01601B710B629FD001639FB00DD0
:10113000729FB00D11248B2F9D9FB0011124672F3A
:101140007727EF01C61BD70BBE01629FE001639FAB
:10115000D00D729FD00D11247F01E91AF108E09E95
:10116000B001E19E700DF09E700D1124672F77275E
:10117000E61BF70BE29F8001E39F100DF29F100D1D
:101180001124E12F722F4230510599F048F4411596
:10119000510569F04130510581F0EB2F8D2F07C0CB
:1011A0004430510569F080F046305105B1F76E2F9B
:1011B0008DCFE22F7B2F812FFACFE22F7D2FF7CF1C
:1011C000EB2F822F712FF3CF7B2F822FED2FEFCFBD
:1011D00041E00C9453080895CF93DF93762FE901F3
:1011E000682F842F0E94E808798368838A83DF91BF
:1011F000CF9108954D3D08F04CED0C94EC08809192
:10120000FC02982F9E7F61F4817082608093FC02C3
:101210008091FF028D3D18F08CED8093FF020895C0
:101220008635B0F381708465F1CF88E090E00C944E
:10123000B52ECF92DF92EF92FF926B017C010E945C
:10124000FF08B701A60188E090E0FF90EF90DF90E3
:10125000CF900C94D32E6091FC027091FD0280918E
:10126000FE029091FF020C941909ECEFF2E083E08A
:10127000808311828FEF82838CED8383148260815F
:101280007181828193810C9419098091FC0280FF05
:1012900002C08695089580E00895909100039330F0
:1012A00018F49F5F90930003882351F06091FC0233
:1012B0007091FD028091FE029091FF020C94190939
:1012C000089581E00C944D0990910003992319F041
:1012D000915090930003882351F06091FC0270912B
:1012E000FD028091FE029091FF020C94190908956D
:1012F00081E00C94640980910003089580930003B9
:10130000662351F06091FC027091FD028091FE0213
:101310009091FF020C941909089560E00C947E09E5
:101320008091FD0208958091FE0208958091FF0250
:10133000089570E00C940610609108018091FC0201
:1013400080FF0AC08091070123E0829FC001112421
:101350008F5F9C4F0C9499098091090190910A012B
:1013600023E0829FF0011124EF5FFC4F891750F7B3
:101370001182108212828F5F3396F8CF9091FC0217
:1013800090FF14C09091090120910A0133E0939FCE
:10139000F0011124EF5FFC4F921710F00C949C09A0
:1013A0008183608342839F5F3396F6CF0895CF9306
:1013B000DF9300D00F92CDB7DEB79091FC0290FF83
:1013C0000AC09E012F5F3F4F0E94FA084B8169813E
:1013D0008A810E94BE090F900F900F90DF91CF91EC
:1013E0000895CF93DF93EC01EC81F0E0EF57FD4FD0
:1013F0004491ECEFF2E0628181810E94D7098C81F7
:101400008F5F8C83DF91CF910895CF93DF93EC01B1
:10141000ECEFF2E0438162818C810E94D7098C81DC
:101420008F5F8C83DF91CF9108950F931F93CF939C
:10143000DF9300D00F92CDB7DEB78C018091EF0122
:1014400081110AC09E012F5F3F4F4CED6FEF0E944C
:10145000FA088A818093EF01F8016481613069F0B4
:101460008091EF0140E0662361F040E0623011F4CA
:101470004091EF0180E060E004C06091EF0140E046
:1014800080E00E94BE09F801848190E0019663E04B
:1014900070E00E94D02D84830F900F900F90DF9109
:1014A000CF911F910F910895AF92BF92CF92DF928B
:1014B000EF92FF920F931F93CF93DF9300D00F9281
:1014C000CDB7DEB7182FF62E042FE22E9091FC0236
:1014D00090FF29C0E92FE695AE2FB0E0A559BE4F89
:1014E0008C91809349029E7F923059F59E012F5F27
:1014F0003F4F812F0E94FA084B8169818A810E94A7
:10150000BE091093FD02F092FE020093FF02EE204E
:1015100051F06091FC027091FD028091FE02909169
:10152000FF020E9419090F900F900F90DF91CF9149
:101530001F910F91FF90EF90DF90CF90BF90AF90F1
:101540000895823019F40091FF02DBCF863019F440
:101550001091FD02D6CF8930D9F3893191F6E95146
:101560008E2F8170D82EE695F0E0EF57FC4FA590B6
:10157000B490C12CBB2460910B01C61618F00E94D8
:101580009C09BFCF2C2D30E0A29EC001A39E900DE0
:10159000B29E900D112470E00E94BC2D812FD110BD
:1015A00013C0860F40910901420F532F511D9A011C
:1015B000220F331F240F351F2F5F3C4F402F6F2DFD
:1015C0000E94FA08C394D7CF861BECCFECEFF2E071
:1015D0009181282F438162818CE0890F0C94540AF9
:1015E00081E00C94E60AECEFF2E09181282F438130
:1015F000628184EF890F0C94540A81E00C94F30A01
:10160000ECEFF2E062812CE0620F08F46FEF282F1C
:10161000438181810C94540A81E00C94000BECEF1F
:10162000F2E062812CE0621B08F460E0282F438125
:1016300081810C94540A81E00C940F0BECEFF2E0E2
:1016400043812CE0420F08F44FEF282F6281818103
:101650000C94540A81E00C941E0BECEFF2E04381F1
:101660002CE0421B08F440E0282F628181810C9419
:10167000540A81E00C942D0B20E00C94540AEF9254
:10168000FF921F93CF93DF93EC0110E0EE24EA94D6
:10169000F12C60910B01161770F00E949C099A8141
:1016A0008C8190FF27C08F5F8C83DF91CF911F913A
:1016B000FF90EF90089520910901422F410F552787
:1016C000551FCA019A01220F331F280F391F2F5FA0
:1016D0003C4F70E0C7010E94D02D962F8C81409125
:1016E000FF026091FE02199F800D11240E94FA08EA
:1016F0001F5FCFCF8150D8CFBF92CF92DF92EF92B2
:10170000FF920F931F93CF93DF93FC0182810FEF22
:1017100080FF01E010E080910B011817C0F00E94DB
:101720009C098091F101013009F051C0811102C082
:1017300080910B0181508093F101DF91CF911F9136
:101740000F91FF90EF90DF90CF90BF900895C091E0
:101750000901C12ED12CCC0DDD2DD11DCE01880F5C
:10176000991FC80FD91FCF5FDC4F198218821A82C8
:1017700034E0E32EF12CB12C8091F1018B0D8131FD
:1017800004F18F70082E000C990BC816D90691F43D
:101790008091FF028E9DA0018F9D500D11245595C3
:1017A0004795559547959E016091FE028091FD02F7
:1017B0000E94FA08B00EF1E0EF1AF108E9F61F5F97
:1017C000AACF87FFDFCF90910B01890FDBCF90E08D
:1017D000019660910B0170E00E94D02DACCF0F9369
:1017E0001F93CF93DF938091090190910A0123E029
:1017F000829FF0011124EF5FFC4F891740F1C0E098
:10180000D3E060910B01C61740F10E949C09209122
:1018100005018091F001820F8093F0019091060103
:10182000920F90930601191654F4082E000C990B90
:1018300040910B014150550B841795071CF02195E1
:1018400020930501DF91CF911F910F91089511828F
:10185000108212828F5F3396D0CF0C2F10E070E091
:10186000C8010E94D02D20910901820F482F50E01D
:101870002091F001022E000C330B02171307BCF06D
:1018800020910601022E000C330B201731077CF04B
:101890008D9F900111242F5F3C4F4091FF0260917A
:1018A000FE028091FD020E94FA08CF5FAACFFA01E2
:1018B000EE0FFF1FE40FF51FEF5FFC4F1182108248
:1018C0001282F3CF8F929F92AF92BF92CF92DF920C
:1018D000EF92FF920F931F93CF93DF93EC014C8114
:1018E000042F10E09801D8010E941B2E9B01AC012F
:1018F0000E94312E4B015C01E0E2F0E0E01BF10BB5
:10190000A5E5B0E0AC019B010E94312E6B017C018A
:101910009F01DF010E94132E9B01AC010E943C2E0F
:101920009B01AC01280D391D4A1D5B1DC701B60185
:101930000E94E42DF22E822F90E039E23F1560F1F3
:1019400043E0249F9001112435952795122F10957F
:1019500000E085E5E82EEF1880910B01081758F19B
:101960000E949C099C8181E0992319F0903219F41E
:101970008FEF8093040180910401890F8C83DF91A4
:10198000CF911F910F91FF90EF90DF90CF90BF907C
:10199000AF909F908F90089525E530E0B901681BC6
:1019A000790B9B01220F331F260F371F37FFCCCF38
:1019B0002F5F3F4FC9CF8E2D01FD8F2D2091090143
:1019C000622F600F7727771F9B01220F331F260F8F
:1019D000371F2F5F3C4F412F6091FE020E94FA0893
:1019E0000F5FBACF0F931F93CF93DF93EC0110E0FB
:1019F00000E090910B019017110609F06CF40E9421
:101A00009C098C8190E00196817099278C83DF91ED
:101A1000CF911F910F91089520910901A801420FC4
:101A2000511D9A01220F331F240F351F2F5F3C4F8A
:101A30004C816091FE028091FD02969590171106EF
:101A400051F04CF0442349F04091FF020E94FA0803
:101A50000F5F1F4FCECF4423B9F340E0F7CF8F92F3
:101A60009F92AF92BF92CF92DF92EF92FF920F932D
:101A70001F93CF93DF93FC01B280948081E0848335
:101A800000E015E05BE4A52E88248394EE24EA941C
:101A9000F12C7BE4C72ED12C80910B01081770F03C
:101AA000DF91CF911F910F91FF90EF90DF90CF903A
:101AB000BF90AF909F908F900C949C09C02FD0E066
:101AC0001C9FF0011D9FF00D1124EE50FE4F911050
:101AD0001CC01382128220910901CE01820F911D38
:101AE0009C01220F331F280F391F2F5F3C4F1C9F73
:101AF000F0011D9FF00D1124EE50FE4F42816181D7
:101B000080810E94FA080F5FC7CF2381222379F1D9
:101B10002150238334818A2D821B311101C0822FF1
:101B20001C9FF0011D9FF00D1124EE50FE4F90916F
:101B3000FF02899FC0011124B6010E94BC2D62835F
:101B4000211104C0332311F01482A38222E02B154B
:101B500010F21C9FF0011D9FF00D1124EE50FE4F5E
:101B60008091FD0280838091FE028183B4CF0E9428
:101B7000902E823091400CF0AECF82E08B1530F584
:101B80000E94902EB7010E94D02D1C9FF0011D9F36
:101B9000F00D1124EE50FE4F808322E02B15C8F487
:101BA0000E94902E2091FE022695622F70E00E94E6
:101BB000D02D280F1C9FF0011D9FF00D1124EE5019
:101BC000FE4F21831282A382848285CF8091FD0201
:101BD000DCCF2091FE02EECFECEFF2E080818E7F31
:101BE000808360817181828193810E9419091092A2
:101BF0004A022FEF80E792E0215080409040E1F7C9
:101C000000C000000C949C09ECEFF2E080818E7F14
:101C1000808310924A022FEF80E792E021508040AB
:101C20009040E1F700C000000C949C096091FC0218
:101C3000669570E04BE050E08CE091E00E94A02EB1
:101C4000892B19F481E080934A020E940E2390931D
:101C500043028093420208959091FC0290FF35C0A8
:101C60009170811128C092609093FC02662351F01C
:101C70006091FC027091FD028091FE029091FF0242
:101C80000E9419096091FC02669570E04BE050E0FB
:101C90008CE091E00E94A02E892BA1F010924A02C4
:101CA00081E0809345024091FF026091FE028091A5
:101CB000FD020C943C0B8B3210F09465D5CF880F4D
:101CC000982BD2CF0E94160EEBCF0895682F9091DB
:101CD000FC02969581E0890F8B3208F081E00C942C
:101CE0002C0E81E00C94660E682F9091FC02969564
:101CF0008FEF890F09F48AE20C942C0E81E00C948A
:101D0000740E61E00C942C0EECEFF2E080818160A7
:101D1000808386950C94810E8091FC0280FD0C944A
:101D2000EC0D0C94840E60E00C942C0E8091480213
:101D300081112EC00E949321811104C00E94302283
:101D40000E9435090E9415096093FC027093FD0200
:101D50008093FE029093FF026E7F61F40E9435092A
:101D60000E9415096093FC027093FD028093FE02AD
:101D70009093FF020E94FF0810924A028091FC0299
:101D800080FF03C086950E94930E81E080934802F5
:101D90000895ECEFF2E080818160808386950C9459
:101DA000930E0F931F93CF93DF9380914A02882362
:101DB00009F49DC080914902E091FC02E695E81B80
:101DC000E09344028230C9F5F0E0E358FD4FE4911E
:101DD000CE2FD0E001EF19E080914502882389F0F1
:101DE000109245020E940E239E0120953095820F8D
:101DF000931F9093430280934202109247021092E5
:101E0000460280914202909143020E9426238C1741
:101E10009D0708F46CC0E0914202F0914302CE0F9E
:101E2000DF1FD0934302C093420282E492E0F801A4
:101E3000DF91CF911F910F910994863049F4F0E022
:101E4000E658FD4FE491CE2FD0E005E01AE0C4CF74
:101E5000893051F4E695F0E0E958FD4FE491CE2F3A
:101E6000D0E00FE31BE0B8CF8F3051F4E695F0E0FF
:101E7000EC58FD4FE491CE2FD0E00CE71BE0ACCF47
:101E8000853149F4F0E0EF58FD4FE491CE2FD0E0DA
:101E90000FEE1BE0A1CFC8E2D0E002E61CE08831E3
:101EA00009F49ACF833239F4EFE6F2E0C591D49188
:101EB00005E11AE091CFC4EFD1E002EF1CE08432DB
:101EC00009F48ACFC0EDD7E00BEE18E0853209F0B7
:101ED00083CF8E2F63E00E94B02DE92FF0E0E4590C
:101EE000FD4FE491CE2FD0E00FE21DE075CFDF91E2
:101EF000CF911F910F910895FA01811101C0FB014B
:101F00000994CF93DF93C82FD62F0E9445098C17D1
:101F100040F00E9445098D1720F4DF91CF910C9479
:101F2000710E8C2FDF91CF910C94810E0F931F9324
:101F3000CF938C01FB01C281CC2309F465C00E94C0
:101F4000DE208272F801E25CFC45E431F10538F4F0
:101F5000EA5EF04D0C94062E0E948C0EC0E08C2F91
:101F6000CF911F910F9108954EE75EE061E77EE00B
:101F70000E947C0FF3CF41E75EE06EE77EE0F8CF92
:101F80004DEF5AE060EF7AE0F3CF40EF5AE06DEFAB
:101F90007AE0EECF4BE15BE06CE07BE0E9CF4CE038
:101FA0005BE06BE17BE0E4CF49E35BE06AE27BE08E
:101FB000DFCF4AE25BE069E37BE0DACF48E759E054
:101FC00061E679E0D5CF41E659E068E779E0D0CF26
:101FD00081E00E94810EC2CF65E082E00E94810F05
:101FE000BDCF68E086E0FACF6EE089E0F7CF64E12C
:101FF0008FE0F4CF67E185E1F1CF88E1EACF62E2DB
:1020000089E1ECCF83E2E5CFC1E0A9CF809A41B36B
:102010004E7F51B35160EFB7F8949B01220F331FED
:10202000260F371F280F391F2817390741F4EFBF34
:102030008FE594E00197F1F700C000000895DC01FE
:102040006D91CD0178E051BB000000C067FF41BB3E
:10205000660F000000C000C000C041BB00C07A9500
:1020600091F7E2CFAF92BF92CF92DF92EF92FF92C1
:102070000F931F93CF93DF93A9EAB1E026EA31E0F3
:1020800081E5A82E82E0B82E6CEA71E041E050E0D4
:102090000D91802F82958F7090E0FC01C1A10F708F
:1020A0007A01002E01C0EE0C0A94EAF7FE2DF0959D
:1020B000CF23FC01C1A3C2A1CE29C2A3E90119917A
:1020C0009E01E12FE295EF70F0E0F1A01F706A0130
:1020D000012E01C0CC0C0A94EAF7EC2CE094EF201E
:1020E000E1A2F2A0FC28F2A2EC0188A190E002C0DB
:1020F000959587950A95E2F78170E0A1F0E002C01E
:10210000F595E7951A95E2F790E0E0FD92E0892BCE
:10211000F50181935F016A177B0709F0B9CFDF9161
:10212000CF911F910F91FF90EF90DF90CF90BF90D4
:10213000AF9008959F92AF92BF92CF92DF92EF92AD
:10214000FF920F931F93CF93DF9301E512E089EA8B
:10215000C82E81E0D82E96EAE92E91E0F92E2EE4E1
:10216000A22E22E0B22ECBE4D2E0912CD801EC9149
:10217000EE0FEE0FED938D01D6012D916D01A22F83
:10218000A295AF70B0E090968C9190E02F7002C055
:10219000959587952A95E2F781709927D7014D91FA
:1021A0007D01A42FA295AF70B0E090962C9130E005
:1021B0004F7002C0359527954A95E2F7A901417005
:1021C000552720FF02C042E050E0842BE82BD801C5
:1021D0001197EC93EF70F0E0EA56FE4F8081F50125
:1021E0009081890F808384303CF088818F5F888361
:1021F00060E0892D0E944803D5018C918D3F3CF40D
:1022000088818150888361E0892D0E944803F5010F
:102210008081837887FF03C081508C6F8F5FD501E9
:102220008D935D0193942196B3E09B129FCFDF9134
:10223000CF911F910F91FF90EF90DF90CF90BF90C3
:10224000AF909F90089582E290E00E94AD2E82327E
:1022500089F483E290E00E94AD2E833059F484E249
:1022600090E00E94AD2E91E0833009F090E0892F3C
:102270008170089580E0FCCFCF93C82F6FEF81115C
:1022800062E282E290E00E94C12EC1110CC0CFEF49
:102290006C2F83E290E00E94C12E6C2F84E290E0CC
:1022A000CF910C94C12EC3E0F3CF80E00E943C118B
:1022B0000C948D21089585E290E00E94AD2E682F48
:1022C00070E090E080E0089585E290E00C94C12EEB
:1022D0000E945A110E94231181110CC060E070E02D
:1022E000CB010E9464110E941E130E940A1481E017
:1022F0000C943C110895CF93FB01C281CC2309F1CA
:102300009C0122513F452031310520F582510E9428
:102310001A14C0E08C2FCF91089581E00E94561FBF
:1023200043E062E081E00E94C504F3CF81E00E94B7
:10233000771F43E062E081E00E94C504EBCF82E0BA
:10234000F6CF8031FFE59F0789F381319F45B9F3CF
:10235000C1E0E0CF8031EFE59E07F9F281319F4582
:10236000C9F682E0DBCF2FEFFC0120830895CF93E5
:10237000DF93EC0188818138A9F028F4803871F06E
:10238000DF91CF910895823881F08338C9F70E9498
:10239000900989830E9493098A83F2CF0E9496094B
:1023A0008983EECF0E944509FBCF0E947B09F8CFBD
:1023B000CF93DF93EC0188818138E1F028F48038F5
:1023C00069F0DF91CF910895823811F18338C9F710
:1023D0000E949609482F6A81898108C0D9810E948C
:1023E0009309C82F0E9490094D2F6C2FDF91CF9138
:1023F0000C943C0B89810E94930E8981811104C049
:10240000DF91CF910C94040EDF91CF910C94C90E03
:102410008981DF91CF910C948D09EF92FF920F93F8
:102420001F93CF93DF93EC01062FDC01ED91CD01DB
:10243000E150E33108F0BFC0F0E0E65DF04D0C94F0
:10244000062E198289E08A83602FCE01DF91CF9119
:102450001F910F91FF90EF900C94E32689818230B9
:1024600069F0833071F08130D9F40E941A230E9400
:102470000C2E6A837B838C839D83E6CF0E945B1145
:10248000F6CF7E01B2E0EB0EF11C10E0812F0E942E
:102490004B07F70181937F011F5F1830B9F7D4CF45
:1024A000602FCE010E94B311CFCF89818230C1F756
:1024B0006A817B818C819D810E940C2E0E94641117
:1024C000C3CF4B816A8189810E94F01298278927A6
:1024D00098279D838C83B8CF2C813D813227232779
:1024E00032274B816A8189810E940913ADCF0E94F6
:1024F0001E13AACF0E94D811A7CF0E94B711A4CF54
:102500000E942B09A1CF0E94B31389839DCF0E9403
:10251000B5139827892798279A83898395CF6B814C
:1025200070E089819A81AE014C5F5F4F98278927BF
:1025300098270E94B81388CF6B8170E089819A81B7
:10254000AE014C5F5F4F9827892798270E94DF13C1
:102550007BCF0E940A1478CF0E94DE12D6CF6B8107
:1025600070E089819A81AE014C5F5F4F982789277F
:1025700098270E94561368CF6B8170E089819A81F9
:10258000AE014C5F5F4F9827892798270E947C13E4
:102590005BCF0E94551158CFCE010E94E326FFEF7A
:1025A00021EE84E0F15020408040E1F700C00000BF
:1025B0000E94592349CF8FEF888346CF84E0089546
:1025C00050E0440F551F9CE0699F400D511D1124A0
:1025D00090E6899F400D511D1124CA0186960895E9
:1025E0000F931F93CF93DF930E94E0128C010E9400
:1025F000AD2EC82FD0E0DC2FCC27C80101960E9459
:10260000AD2E9E01282BC901DF91CF911F910F9113
:1026100008950F931F93CF93DF93122F032F0E94E0
:10262000E012EC01602F0E94C12E612FCE010196B5
:10263000DF91CF911F910F910C94C12EAF92BF9259
:10264000CF92DF92EF92FF921F93CF93DF938CEAAA
:10265000C82E80E0D82ED0E07601C0E014C0F5018D
:1026600025913491412F6C2F8D2F0E94091382E008
:10267000A80EB11C1F5F163091F78CE0E80EF11C1C
:10268000CF5FC83019F0570110E0E9CFDF5F80E677
:10269000C80ED11CD43001F7DF91CF911F91FF906C
:1026A000EF90DF90CF90BF90AF900895EF92FF92A0
:1026B0000F931F93CF93DF93EC018A017C01E60E09
:1026C000F71ECE018696CE15DF0539F4DF91CF9146
:1026D0001F910F91FF90EF900895C03821E0D2072D
:1026E00040F40E94AD2EF80180830F5F1F4F2196AA
:1026F000E8CFF8011082F9CFCF92DF92EF92FF92EC
:102700000F931F93CF93DF937C016A018C01060F17
:10271000171FEC01CE018696C017D10749F4DF914F
:10272000CF911F910F91FF90EF90DF90CF90089580
:10273000C03821E0D20740F4FE01EE19FF09EC0D8C
:10274000FD1D60810E94C12E2196E4CF462F84306A
:1027500038F4783028F4663018F4672F0C94F012AF
:1027600090E080E0089580E108958AE592E0089580
:10277000EF92FF920F931F93CF93DF93EC018A01A7
:102780007C01E60EF71ECE018A559E4FCE15DF0561
:1027900039F4DF91CF911F910F91FF90EF90089541
:1027A000CA3522E0D20740F40E94AD2EF8018083A2
:1027B0000F5F1F4F2196E7CFF8011082F9CFCF921C
:1027C000DF92EF92FF920F931F93CF93DF937C01E1
:1027D0006A018C01060F171FEC01CE018A559E4F2E
:1027E000C017D10749F4DF91CF911F910F91FF904E
:1027F000EF90DF90CF900895CA3522E0D20740F4E1
:10280000FE01EE19FF09EC0DFD1D60810E94C12E35
:102810002196E3CFCF93DF93C6EAD1E060E0CE010B
:102820000E94C12E2196C11584E0D807B9F7DF9127
:10283000CF910895DF92EF92FF920F931F93CF9362
:10284000DF9300D000D0CDB7DEB7F82E8FE08F1524
:1028500040F08FEF93E00E94AD2E06EA11E088234E
:10286000C1F00F900F900F900F90DF91CF911F91BB
:102870000F91FF90EF90DF900895011584E0180705
:1028800081F3C8010E94AD2E811101C0FA940F5F3F
:102890001F4FF110F2CF19821A821B821C82DD2495
:1028A000D39478018FEFE81AF80AC8010E94AD2E80
:1028B00089831A828823A9F29FEF980F933078F4C6
:1028C0008A83D9820E5F1F4FC7010E94AD2E8B8372
:1028D000882339F2CE0101960E946E04E2CF87016F
:1028E000F9CFAF92BF92CF92DF92EF92FF920F9308
:1028F0001F93CF93DF937C015B01C42FD22FFC0188
:1029000082818823F9F0409356020E940E2390930F
:1029100055028093540280E28C0F883008F061C029
:10292000C77081E001C0880FCA95EAF7DF91CF91A7
:102930001F910F91FF90EF90DF90CF90BF90AF90DD
:102940000C94DD1810915602141340C0809154026B
:10295000909155020E9426236C01B701C5010E9487
:10296000CF1DC816D90690F5C0E2CD0F1D17B9F0DE
:1029700080E2810F883040F4177081E001C0880F39
:102980001A95EAF70E94E418C83048F481E09D2FB8
:10299000977001C0880F9A95EAF70E94DD18802F82
:1029A0000E94CA18C830E8F4D77081E001C0880FCF
:1029B000DA95EAF7DF91CF911F910F91FF90EF9099
:1029C000DF90CF90BF90AF900C94E41880E28C0F12
:1029D000883038F4C77081E001C0880FCA95EAF7E3
:1029E000E9CFDF91CF911F910F91FF90EF90DF9092
:1029F000CF90BF90AF9008950F939C01CB01233FE0
:102A00004CE5340759F1A8F4283DFCE53F0701F1F6
:102A1000293D4CE53407D1F1273D3C4591F406E2D0
:102A200021EE41EE67ED7CE50E94711480E00F918C
:102A30000895253FFCE53F07E9F0B0F0263F3C450F
:102A4000F9F0FC018281882339F110925602EFCF10
:102A500007E225EE45EE68ED7CE5E6CF06E221EEE5
:102A600040EE63EF7CE5E0CF07E225EE44EE64EF55
:102A70007CE5DACF06E221EE42EE65EF7CE5D4CFCD
:102A800007E225EE46EE66EF7CE5CECF08E221E0D8
:102A900045EE69ED7CE5C8CF81E0C9CFCF93DF93E8
:102AA000EC01FB018281882309F419C1C230FCE5E5
:102AB000DF07C0F1C6319CE5D90730F09E012A5FDF
:102AC0003C452930310570F50E94A62190933603CC
:102AD00080933503C031ECE5DE0709F4CFC008F080
:102AE0005BC0C8308CE5D80709F4B6C088F5C4309F
:102AF000ECE5DE0709F4A8C0C0F4C2308CE5D807C5
:102B000009F49CC0809135038260C330DC4509F430
:102B100098C080913503909136030E94B4210E94A1
:102B2000591B80E0DF91CF9108958091350380613A
:102B3000C630ECE5DE0709F484C080913503886077
:102B4000C730DC4508F47DC080913503806279C0D0
:102B5000CC308CE5D80709F489C070F48091350336
:102B60008C60CA30ECE5DE0709F46BC008F478C06D
:102B7000809135038E7F65C0CE308CE5D80709F48F
:102B800079C0809135038B7FCF30DC4508F459C084
:102B9000809135038F7E55C0CB3FECE5DE0709F40D
:102BA00057C030F5C3318CE5D80709F46FC078F40D
:102BB000C131ECE5DE0709F465C0C231DC4509F03E
:102BC000A8CF0E94591B809135038F773AC0C53139
:102BD0008CE5D80709F462C008F476C0809136030A
:102BE0008160CA3FDC4509F094CF8093360391CFD2
:102BF000CF3FFCE5DF0709F44DC088F48091360330
:102C00008D7FCD3F9CE5D90781F3809136038E7F80
:102C1000CE3FDC4550F3809136038360E6CFC13070
:102C2000FDE5DF0709F459C008F444C080E0C23074
:102C3000DD4509F06ECF0E9432226BCF80913503C3
:102C400081608093350365CF809135038460F9CF2F
:102C5000809136038260C9CF809135038064F1CFC3
:102C60000E94591B809135038068EBCF809135031A
:102C70008D7FE7CF80913503877FE3CF8091350348
:102C80008F7DDFCF809135038F7BDBCF8091350344
:102C9000837FD7CF809136038C7FA7CF8091350378
:102CA00082FB992790F921E0922790FB82F990FB13
:102CB00083F9C7CF80913603982F909591708E7FBE
:102CC000892B90FB81F991CF0E94591B909135037C
:102CD000892F97FB87F98058B4CF81E0ACCF81E092
:102CE00021CFCF93DF93EB0186319C4511F50E94F4
:102CF000DE209A81992399F08A7A91E009F490E094
:102D000090935702811109C089E20E94B9200E9464
:102D10002A2180E0DF91CF91089585E3F6CF80915D
:102D20005702811104C089E20E94C020F0CF85E3E0
:102D3000FBCF81E0EFCF90935D0280935C0208951A
:102D4000E0915C02F0915D02309721F00190F081FA
:102D5000E02D099480E00895E0915C02F0915D021D
:102D6000309721F00280F381E02D09940895E091DD
:102D70005C02F0915D02309739F022E0DC012C9387
:102D80000480F581E02D0994089520915A02309134
:102D90005B022817390771F090935B0280935A0207
:102DA000E0915C02F0915D02309721F00680F7819E
:102DB000E02D099408952091580230915902281766
:102DC000390771F09093590280935802E0915C02A8
:102DD000F0915D02309721F00084F185E02D099497
:102DE000089585B7806885BF85B7806885BF0895D9
:102DF000089508950C94F81608950C94FC160E94FA
:102E0000F1160E94F9160C94FA1681E008950C94BC
:102E100005170E9405230E9456070E9468110E9410
:102E200093230E94960E0E9432100C94FD16BF92BE
:102E3000CF92DF92EF92FF920F931F93CF93DF9386
:102E4000CDB7DEB72A970FB6F894DEBF0FBECDBF61
:102E50000E949C070E940717882309F463C08FE52E
:102E6000C82E82E0D82E10E000E0B02E802F0E9405
:102E70004B07E82EF601F1906F01F81609F44CC0EB
:102E80008091D30281FD0E9451079F2D9E2580E0F5
:102E9000FF24F394292F2F21D1F18E83BF82EF20BD
:102EA00081E009F480E088870E940E238160782FFA
:102EB0009A8789874E815F8168858A850E94B317CA
:102EC000F801E15AFD4F8081F826F0820E94D10E70
:102ED0000E949A100E943E250E94A01690915E02C8
:102EE000891789F10E94A01680935E022A960FB678
:102EF000F894DEBF0FBECDBFDF91CF911F910F9130
:102F0000FF90EF90DF90CF90BF900C9442058F5FC1
:102F1000FF0C863009F0BECF0F5F1F4F0830110540
:102F200009F0A3CF8FEF89838A831B820E940E232F
:102F30008160782F9D838C8349815A816B818D813B
:102F40000E94B317C3CF2A960FB6F894DEBF0FBE08
:102F5000CDBFDF91CF911F910F91FF90EF90DF9048
:102F6000CF90BF900895CF93DF93CDB7DEB72B9767
:102F70000FB6F894DEBF0FBECDBF4F835887698769
:102F80007A878B871E821D8285E0FE013796DE01DF
:102F9000119601900D928A95E1F749815A816B81D2
:102FA0007C818D819E812B960FB6F894DEBF0FBE7B
:102FB000CDBFDF91CF910C94D21DFC018081918116
:102FC0000C948B20CF93C82F882309F48BC08238B0
:102FD000C1F40E94A01681FD85C089E30E94B9203A
:102FE0000E942A212FEF81EE94E0215080409040F2
:102FF000E1F700C0000089E30E94C020CF910C944B
:103000002A218338A1F40E94A01680FD6BC083E5BD
:103010000E94B9200E942A212FEF81EE94E02150D6
:1030200080409040E1F700C0000083E5E5CF8438A0
:10303000A1F40E94A01682FD55C087E40E94B92029
:103040000E942A212FEF81EE94E021508040904091
:10305000E1F700C0000087E4CFCF8CEF8C0F813AFE
:1030600090F46C2F80911701909118010E944922D1
:10307000882329F08C2F0E94C0200E942A218C2FA7
:103080000E94B920BBCF80E28C0F883048F4C77013
:1030900081E001C0880FCA95EAF70E94E120AECF17
:1030A000EBE5EC0FE33040F4F0E0E652FE4F8081B8
:1030B00090E0CF910C94C516E8E5EC0FE73150F4A1
:1030C000F0E0EE0FFF1FE455FE4F80819181CF911C
:1030D0000C94DB16C03F30F08C2F0E943824CF9127
:1030E0000C942325CF910895882309F452C0823887
:1030F00071F40E94A01681FF4CC089E30E94B920A0
:103100000E942A2189E30E94C0200C942A2183383E
:1031100059F40E94A01680FF3CC083E50E94B920AC
:103120000E942A2183E5EFCF843859F40E94A0162B
:1031300082FF2FC087E40E94B9200E942A2187E4E1
:10314000E2CF9CEF980F913AF0F290E2980F98300E
:1031500050F4877091E001C0990F8A95EAF7892FA2
:103160000E94E720D2CF9BE5980F933020F490E0A7
:1031700080E00C94C51698E5980F973120F490E004
:1031800080E00C94DB16803F20F00E94A0240C9479
:1031900023250895CF93C82F0E94E217C93349F41D
:1031A0002FEF87EE93E0215080409040E1F700C080
:1031B00000008C2FCF910C947418882321F00E946A
:1031C000E1200C942A210895882321F00E94E72011
:1031D0000C942A210895BF92CF92DF92EF92FF9232
:1031E0000F931F93CF93DF936C01D62FC72FFC0152
:1031F000058102950F70128111110E94FE200E941C
:10320000D720E82E882391F01123D1F08C2F807FD6
:10321000803421F080E28D0F883090F082E00E94AF
:1032200075210E94D72091E0E82EE926BC2EB294A9
:103230009FE0B922EB2DF0E0E35CF04D0C94062EFC
:10324000E12CF4CF0C2F0F70C07F11F00295007F9E
:103250001123A9F0002359F080E28D0F883010F07F
:10326000D11109C0802F0E94E1200E942A218D2FB8
:103270000E94E21714C0802F0E94F120F6CF8D2FFC
:103280000E947418002359F080E28D0F883010F0EE
:10329000D1112CC0802F0E94E7200E942A212B2DC3
:1032A0002850330B2430310520F40E94A0160E94D0
:1032B0004205EE2009F49EC10E94D32080FD9AC1F0
:1032C000F60112820E94CD200E94561FC6010E9464
:1032D0001B1B0E94CD20DF91CF911F910F91FF907A
:1032E000EF90DF90CF90BF900C94771F802F0E94BB
:1032F000F720D3CFFC2FFF70FF2EC07FC03219F014
:10330000F29480EFF822DD2369F0D13049F11123E6
:1033100091F1002351F1F601858180FFA8CF8F70D4
:10332000858323C0112381F0011106C00E94112161
:103330008F290E94DD18B3CF0130C1F70E941121FF
:103340008F290E941721ABCF011106C00E942021B6
:103350008F2D0E94E418A3CF013009F4A0CFF6CF3F
:10336000112329F0063008F09ACF8F2DE2CF0530D7
:1033700008F095CFEDCF002359F3D93349F4FFEF8F
:1033800027EE33E0F15020403040E1F700C000006C
:103390008D2F0E94741883CF8C2F8695869583700D
:1033A00069F0813009F07BCF8D2F9C2F9370111124
:1033B00002C090E080E00E94DB1671CF8D2F9C2F21
:1033C0009370111102C090E080E00E94C51667CF93
:1033D0008D2F112329F00E9438240E9423255FCFCE
:1033E0000E94A024FACF8C2F837009F041C01111E4
:1033F00056CF4D2F429546954770440F440F0D2FE1
:103400000F7010E030E020E0042E04C0000F111F08
:10341000221F331F0A94D2F760E070E0CB01D4FF83
:103420000FC06FE070E080E090E004C0660F771F8F
:10343000881F991F4A95D2F7609570958095909551
:10344000C695C695C370602B712B822B932BC2300F
:1034500049F058F4C13019F00E94081F20CF0E9493
:10346000F61E1DCF0E941A1F1ACF0E94F41E17CFFE
:103470008695112311F08C2F8170882309F40FCFCA
:103480004D2F429546954770440F440F0D2F0F70F6
:1034900010E030E020E0042E04C0000F111F221FB6
:1034A000331F0A94D2F760E070E0CB01D4FF0FC065
:1034B0006FE070E080E090E004C0660F771F881F27
:1034C000991F4A95D2F76095709580959095C6950D
:1034D000C695C370602B712B822B932BC23049F0A1
:1034E00058F4C13019F00E94CD1FD9CE0E94BB1FE5
:1034F000D6CE0E94DF1FD3CE0E94301FD0CECF7019
:10350000112329F08C2F0E94561F8D2F12CF8D2F43
:103510000E94E4188C2F0E94771FC1CED23F89F100
:1035200060F4D03FC9F0D13F29F1112309F442C022
:1035300001119DCE8C2F8F7121C0D33F39F1D43F23
:10354000A1F7112369F1CF718C2F0E94561F63E000
:103550008C2F0E946021A3CE112341F0053008F08A
:103560009ECE8C2F8F710E949A1F99CE063008F044
:1035700096CEF7CF8C2F8F71112369F20E94561FC0
:103580008ECE8C2F8F711123C9F3C5CF112329F053
:103590008C2F8F710E94411F82CE0E943C1F7FCED4
:1035A00081E00E947521023008F479CE82E00E9409
:1035B000752175CE002359F0D93309F0E9CE8FEF8C
:1035C00097EEE3E081509040E040E1F7DFCE8C2FB2
:1035D0008F71A1CF4C2F4F706D2FC6010E944A05ED
:1035E0000E946C1E5CCE4C2F4F706D2FC6010E9446
:1035F0004D0555CEDF91CF911F910F91FF90EF9028
:10360000DF90CF90BF9008950F931F93CF93DF93D8
:10361000EC01688179818A810E9495208C010E9449
:10362000F11F0E94F31EB801CE01DF91CF911F91CF
:103630000F910C94EB18CF93DF93EC018B819C815D
:10364000892B29F08881998189238F3F59F4DF9153
:10365000CF910895CE010E94041BCE01DF91CF913E
:103660000C94AF03CE010E94F3048111F3CF0E94AA
:10367000D720882361F38A81882349F382E0DF9190
:10368000CF910C9475210E94FE200E940E210E9471
:103690002A210E944A260E94232590E080E00E9471
:1036A000C51690E080E00C94DB160E94C7200C94B5
:1036B000431B0E94EE200C94551BE92FE295EF70FE
:1036C000E250EE3070F4F0E0E35BF04D0C94062E27
:1036D000803F19F020F4883E20F481E00895843F73
:1036E000E1F380E00895883EC0F3813FD1F7F5CF44
:1036F00093FB882780F908950E948B200C945D1B12
:10370000CF93DF9300D000D00F92CDB7DEB70F90EC
:103710000F900F900F900F90DF91CF910895CF935E
:10372000DF9300D000D000D0CDB7DEB726960FB61D
:10373000F894DEBF0FBECDBFDF91CF9108951F93E8
:10374000CF93DF93C091680216E0809169028C13D9
:1037500004C0DF91CF911F910895D0E01C9FF0012C
:103760001D9FF00D1124E659FD4F4081518162816A
:103770007381848195810E948F1B2196C770E5CF4C
:1037800040919A0250919B0260919C0270919D021F
:1037900080919E0290919F020C948F1B1F93CF9358
:1037A000DF9380919F02807FA9F480919C028823FF
:1037B00089F080916802C091690260919A027091CB
:1037C0009B02A0919D02B0919E02D62FD72316E0B6
:1037D000C81304C0DF91CF911F91089590E0109716
:1037E00011F0DF3F19F401968770F2CF189F900116
:1037F000199F300D1124F901E659FD4F41814713FE
:10380000F2CF40814613EFCF42814111ECCF43818B
:1038100054814A1B5B0B483C510528F780919F025D
:103820008F70806180939F02F901E159FD4F808183
:103830008F70806180838AE992E00E941B1BDF9178
:10384000CF911F910C949F1BAF92BF92CF92DF92AA
:10385000EF92FF920F931F93CF93DF93CDB7DEB715
:1038600061970FB6F894DEBF0FBECDBF8C0185E027
:10387000F801DE011D9601900D928A95E1F7F8019D
:1038800040815181E2808AE9C82E82E0D82E609181
:103890009D0270919E026115710509F461C19091BC
:1038A0009A0220919B02892F82238F3F09F458C1ED
:1038B000A380B480F0909C02F501E61BF70BFF207B
:1038C00009F4FCC080919F02382F307FE83CF1055D
:1038D00008F0B2C0311179C0FE2C251323C0941317
:1038E00021C0E1101FC08F70806180939F020E94F1
:1038F000C01BC6010E941B1B80919F02F80185839B
:103900008F2D61960FB6F894DEBF0FBECDBFDF914D
:10391000CF911F910F91FF90EF90DF90CF90BF90CC
:10392000AF900895AB2829F0842F85238F3F09F0AD
:1039300033C180E0F82FF170DF2E80FF3CC0809112
:1039400068022091690236E0821315C04D875E87B8
:103950008D859E850E948B20292F22952F702230E5
:10396000F0F0243018F59F70F1F0F8019581907F08
:10397000D1F4D12C1EC090E0389FF001399FF00D9A
:103980001124E659FD4F6181651306C060816413FF
:1039900003C062816E110FC001968770D5CF9F70F2
:1039A00011F0882331F3805E883018F3C8010E943B
:1039B0001B1BFD2CA5CFEE2009F4A2CF80919F0206
:1039C000816080939F02F12C9BCF251306C0941336
:1039D00004C0F801EE2009F48DC04D875E878D8507
:1039E0009E850E947C1B882319F1EE2009F18091AD
:1039F0009F02803270F020919A0230919B023887AA
:103A00002F831986BB86AA868C87CE0107960E94D3
:103A10001B1B86E0F801AAE9B2E001900D928A959D
:103A2000E1F70E94CE1B0E94C01BFF24F39468CFD5
:103A3000C8010E941B1BF9CF311113C07A2DB98A1E
:103A4000A88A6E2D89890E94801B8AE992E00E94D3
:103A50001B1B86E0F60111928A95E9F70E94C01BB4
:103A6000B2CF25130FC094130DC0E1100BC0F801A5
:103A70008583C8010E941B1B86E0F60111928A957E
:103A8000E9F73ECF4D875E878D859E850E947C1B22
:103A9000882371F2EE2061F280919F02803208F457
:103AA000B8CF20919A0230919B023A8329831B82DE
:103AB000BD82AC828E83CE010196A9CFE83CF10590
:103AC00008F041C0FE2CEE2009F4B2CF25132AC025
:103AD000941328C080919F0280FD1BC0982F907F77
:103AE000C1F0F8018583903F31F0982F907F905F6F
:103AF0008F70892B8583C8010E941B1B86E0F8010B
:103B0000AAE9B2E001900D928A95E1F70E94C01BEC
:103B1000F7CE86E0F801AAE9B2E001900D928A950D
:103B2000E1F7EECE4D875E878D859E850E947C1BDA
:103B300081116FCF80919F02816080939F02C801A5
:103B40000E941B1BDDCE7A2DB98AA88A6E2D898929
:103B50000E94801B86E0F60111928A95E9F7D6CF84
:103B6000EE2009F465CF4D875E878D859E850E9486
:103B70007C1BF82E882309F45BCF86E0F801AAE9C4
:103B8000B2E001900D928A95E1F78AE992E00E94F5
:103B9000DD170E94CE1BBACF81E08E25CBCE88ECFC
:103BA00090E008951F93CF93DF93CDB7DEB72C97A6
:103BB0000FB6F894DEBF0FBECDBF4F83588769871D
:103BC0007A878B879C87CE0107960E94241C8823C6
:103BD00069F08A859B85892B39F04F815885842F20
:103BE00085238F3F09F071C016E05FC086E0FE01BB
:103BF0003796DE01119601900D928A95E1F78A853C
:103C00009B85892B89F38F81988589238F3F61F369
:103C10002091690230E0C90101968770992740918F
:103C200068024817190671F40E94591B1092690224
:103C30001092680286E0EAE9F2E0DF011D928A95BF
:103C4000E9F7D2CF96E0929FD001939FB00D112457
:103C5000A659BD4FFE01319601900D929A95E1F75C
:103C6000809369020E949F1BBFCF819FC0011124D6
:103C700086599D4F0E94241C8823E9F0E091680238
:103C80001E9FF0011124E659FD4F40815181628150
:103C90007381848195810E948F1B8091680290E0DE
:103CA00001968770992780936802809168029091AD
:103CB00069028913DACF2C960FB6F894DEBF0FBED7
:103CC000CDBFDF91CF911F91089569857A858B854E
:103CD0009C850E948F1B88CFEF92FF920F931F93BA
:103CE000CF93DF938C01892B81F0F12CEE24E394A8
:103CF000E8012196F8018491843770F4843008F04B
:103D00005FC08130B1F08230A1F1DF91CF911F917E
:103D10000F91FF90EF900895853709F44CC008F497
:103D20003DC09CE7980F903780F78F770E947418FA
:103D300049C00E5F1F4FFE01849190E2980F9830AA
:103D400060F48770FE2D01C0FF0F8A95EAF78F2F70
:103D50000E9401210E942A2102C00E94E2178F2D99
:103D6000815030F2EFE9FFE03197F1F700C0000039
:103D7000F7CF0E5F1F4FFE01849190E2980F9830AD
:103D800050F48770FE2D01C0FF0F8A95EAF78F2F40
:103D90000E940721DFCF0E947418E1CF0E5F1F4FF2
:103DA000FE01C491C150D8F28FE99FE00197F1F76D
:103DB00000C00000F7CF0E5F1F4FFE01F490CFCF81
:103DC0000E94E2178E01CBCF08950C94E41E0E944E
:103DD000E51E6093C2027093C3028093C402909365
:103DE000C5020C94431B08950C94E71E0F931F9378
:103DF0000091C2021091C3022091C4023091C50209
:103E0000602B712B822B932B1F910F910C94E71E2B
:103E10000F931F930091C2021091C3022091C4021C
:103E20003091C50260237123822393231F910F9148
:103E30000C94E71E0F931F930091C2021091C302CE
:103E40002091C4023091C5026027712782279327F1
:103E50001F910F910C94E71E0C94E41E0C942C1FE0
:103E60000E942E1F6093BE027093BF028093C00217
:103E70009093C1020C94431B60E070E0CB010C9462
:103E8000301F0F931F9341E050E060E070E08A0123
:103E90009B0104C0000F111F221F331F8A95D2F708
:103EA000C901B8011F910F910C94301F0F931F93FC
:103EB00041E050E060E070E004C0440F551F661F11
:103EC000771F8A95D2F78091BE029091BF02A09190
:103ED000C002B091C1028A019B01082B192B2A2B29
:103EE0003B2BC901B8011F910F910C94301F0F9308
:103EF0001F9341E050E060E070E004C0440F551FA4
:103F0000661F771F8A95D2F7CB01BA01609570952D
:103F1000809590950091BE021091BF022091C00241
:103F20003091C10260237123822393231F910F914B
:103F30000C94301F0F931F9341E050E060E070E05D
:103F400004C0440F551F661F771F8A95D2F78091D2
:103F5000BE029091BF02A091C002B091C1028A013D
:103F60009B01082719272A273B27C901B8011F9160
:103F70000F910C94301F0F931F930091BE0210916C
:103F8000BF022091C0023091C102602B712B822BA5
:103F9000932B1F910F910C94301F0F931F9300913F
:103FA000BE021091BF022091C0023091C102602375
:103FB0007123822393231F910F910C94301F0F9331
:103FC0001F930091BE021091BF022091C002309158
:103FD000C10260277127822793271F910F910C94AC
:103FE000301F0895E92FEE0FE90FEE0F8E0F982F77
:103FF000977041E001C0440F9A95EAF7869586953F
:10400000869595E0899FF0011124E056FD4F30E040
:1040100020E070E05191DF011197CB01022E02C028
:10402000969587950A94E2F7817081958527842378
:1040300085278C932F5F3F4F2530310559F7089521
:10404000E92FEE0FE90FEE0F8E0F982F97708695E0
:104050008695869525E0829FF0011124E056FD4F5C
:1040600050E040E080E0219130E0092E02C036951A
:1040700027950A94E2F721703327042E01C0220FFE
:104080000A94EAF7822B4F5F5F4F4530510559F78D
:104090000895BF92CF92DF92EF92FF920F931F93FA
:1040A000CF93DF938C01C090BE02D090BF02E0900E
:1040B000C002F090C1028091C2029091C302A0910F
:1040C000C402B091C502C82AD92AEA2AFB2ACFE144
:1040D000D0E0BC2ED701C6010C2E04C0B695A79522
:1040E000979587950A94D2F780FD0EC0219788F79F
:1040F000B12C8B2DDF91CF911F910F91FF90EF90FD
:10410000DF90CF90BF900895B8018C2F0E94560584
:10411000019761F3EECFCF93DF93EC010E9449202A
:10412000BE01DF91CF910C9456051F93CF93DF937F
:10413000EB0190916702992331F0CB01DF91CF9190
:104140001F910C948B20882379F0CB010E94492089
:10415000182F682FCE010E94F21FBE01812FDF9120
:10416000CF911F910C945605CB010E942020182F4F
:10417000F4CF682F80911701909118010C947F2241
:10418000682F80911701909118010C9481228091E1
:104190001701909118010C9483228091C602859595
:1041A0008595859508958091C602877008959091B0
:1041B000C602977081E009F480E008958091D202F0
:1041C00008959091D202892B8093D2020895809510
:1041D0009091D20298239093D20208951092D20225
:1041E00008959091D102892B8093D10208958095F2
:1041F0009091D10298239093D10208951092D10208
:1042000008959091D002892B8093D00208958095D3
:104210009091D00298239093D00208951092D002EA
:1042200008958091C702089508950C9414219091E7
:10423000C702981721F08093C7020C9415210895A6
:104240008091C702882329F01092C70280E00C9465
:1042500015210895E0911701F09118018091D20283
:104260008083E0911701F091180180819091D10233
:10427000892B8083E0911701F09118018081909142
:10428000D002892B80839091C702992381F0E0911D
:104290001701F09118018081892B8083809117018B
:1042A000909118010E94372281110E942021809153
:1042B0001701909118010C94AC1608950C945D218F
:1042C00098E0899F90011124622B6093C6020E949E
:1042D000561F8091C6028595859585950C945E2123
:1042E0001092C60280E00C945E219091C6028095E7
:1042F00089238093C602282F277071F4282F082E57
:10430000000C330B9217130639F08595859585952A
:104310000E94771F0C94702108956FEF7FEF90E05B
:1043200080E00C94DF2E90E080E00E94BB2E21E024
:104330008C3E9E4F09F020E0822F089582E090E0AD
:104340000C94AD2E83E090E00C94AD2ECF9384E0DE
:1043500090E00E94AD2EC82F81E290E00E94AD2E29
:10436000982F8C2FCF910895CF93C92F682F84E079
:1043700090E00E94C12E6C2F81E290E0CF910C94CE
:10438000C12EAB01BC018FE090E00C94D32EAB01A9
:10439000BC0183E190E00C94D32E60E070E0CB018F
:1043A0000C94C72160E070E0CB010E94C1210C9405
:1043B000CD216CEE7EEF90E080E00E94DF2E60E089
:1043C00082E090E00E94C12E60E083E090E00E94D5
:1043D000C12E1092C2021092C3021092C402109217
:1043E000C50260E084E090E00E94C12E60E081E2BE
:1043F00090E00E94C12E60E085E090E00E94C12E16
:1044000060E086E090E00E94C12E6FEF87E090E0D0
:104410000E94C12E40E050E0BA0188E090E00E9486
:10442000D32E60E08DE090E00E94C12E40E050E08D
:10443000BA0188E190E00E94D32E60E087E190E02D
:104440000E94C12E40E050E0BA018CE190E00E9451
:10445000D32E60E080E290E00E94C12E0C94D22125
:104460000C94D921682F8EE090E00C94C12E9C0111
:104470002E5F3F4FAC01485F5F4F80E02417350748
:1044800009F40895F90191919F019923B9F38F5F80
:10449000F5CF662349F0FC01329608962191261744
:1044A00029F0E817F907D1F780E0089581E0089531
:1044B0009C01FC0132969FEF80E04191461751F03C
:1044C0009F3F19F4411101C0982F8F5F8630A9F7E3
:1044D0009F3F09F40895290F311D97FD3A95F90181
:1044E00062830895FC01329608962191261303C039
:1044F000DF0111971C92E817F907B9F708950C949A
:1045000058220C947222029626E0FC0111922A9500
:10451000E9F70895089508950C948B220E948C2247
:1045200080913B03843049F11092D40288E190E0FD
:1045300020E40FB6F894A895809360000FBE2093F6
:10454000600080E00E9442050E948C2283B7817F38
:10455000846083BF83B7816083BF7894889583B775
:104560008E7F83BF0FB6F894A89580916000886114
:1045700080936000109260000FBE08950895CF935D
:104580000E948A220E949C070E94BE22C0E08C2FBB
:104590000E944B07811105C0CF5FC830C1F7CF9192
:1045A000089581E0FCCF08950C94D3220E94591BFA
:1045B0000E94A0160E9442050C94D4221F921FB69E
:1045C0001F9211248F939F93AF93BF938091D40236
:1045D000811113C08091310390913203A091330374
:1045E000B09134034196A11DB11D80933103909386
:1045F0003203A0933303B0933403BF91AF919F91E3
:104600008F911F901FBE1F90189582E084BD93E08C
:1046100095BD9AEF97BD80936E0008952FB7F894DB
:104620008091310390913203A0913303B091340310
:104630002FBF08952FB7F894609131037091320322
:1046400080913303909134032FBF08959C014FB79D
:10465000F8948091310390913203A0913303B0918B
:1046600034034FBF821B930B089578941F921FB69B
:104670001F9211248F939F93AF93BF938091310327
:1046800090913203A0913303B09134030196A11DA0
:10469000B11D8093310390933203A0933303B09301
:1046A0003403BF91AF919F918F911F901FBE1F90B8
:1046B000189581E08093E00080E28093D80010920A
:1046C000C9008FE19EE40197F1F700C0000087E088
:1046D00090EBDC018093440390934503A093460341
:1046E000B093470388E19CE00FB6F894A8958093B7
:1046F00060000FBE90936000FFCF0C9455110E9494
:104700009C078FE39CE90197F1F700C000000E942D
:104710009C0780E00E944B0780FF04C00E947D231D
:104720000C94592308950E949321811102C00E9484
:1047300030220E949E218093D3020E94A621909352
:104740003603809335030E94A221682F70E090E029
:1047500080E00E94F41E6091BE027091BF028091C1
:10476000C0029091C1020C942E1F8091DB0280FF49
:1047700012C060911E0185E0689FB00111247595FB
:1047800067957595679560387105A8F56115710590
:10479000A1F1862F089581FF09C060911E0185E077
:1047A000689FB001112475956795EDCF60911E014A
:1047B00082FD0AC08091DA028823D1F090911D0118
:1047C00060911E01891728F085E0689FB0011124CF
:1047D000DACF869FB001112485E0869F9001879FE4
:1047E000300D1124692F70E0C9010E94D02DCBCF6C
:1047F00065E070E0CECF8FE7089581E00895809165
:10480000DB0280FF0CC060911A0170E0759567951E
:10481000759567956115710549F1862F089581FF9A
:1048200006C060911A0170E075956795F3CF6091AD
:104830001A0182FD0BC09091D9029923A1F06091D9
:10484000190180911A01961738F0682F70E06038CE
:10485000710500F38FE70895899FC001112470E06E
:104860000E94D02DF4CF61E070E0D7CF81E00895B1
:10487000803F31F40E94B52381958093DF02089533
:10488000813F19F40E94B523F8CF823F31F40E9492
:10489000B52381958093DE020895833F19F40E9429
:1048A000B523F8CF893F29F40E94FF238093E002CB
:1048B00008958A3F21F40E94FF238195F7CF8B3F13
:1048C00031F40E94FF2381958093E10208958C3F8B
:1048D00019F40E94FF23F8CF843F31F48091DD0268
:1048E00081608093DD020895853F21F48091DD028F
:1048F0008260F7CF863F21F48091DD028460F1CFA2
:10490000873F21F48091DD028860EBCF883F21F45E
:104910008091DD028061E5CF8D3F31F48091DB0233
:1049200081608093DB0208958E3F21F48091DB0249
:104930008260F7CF8F3FB9F78091DB028460F1CFBF
:104940009091DE02803F59F48091DF0287FF0DC015
:104950001092DF0291110BC01092DA0208C0813F61
:1049600081F48091DF0218169CF3992381F08091E5
:10497000E0029091E102892B09F064C01092D90203
:104980000895823F49F497FFF0CF1092DE028091A4
:10499000DF028111ECCFE0CF833F19F41916ACF39D
:1049A000E4CF2091E002893F29F41216F4F6109228
:1049B000E002DBCF8A3F19F427FFD7CFF8CF209151
:1049C000E1028B3F29F427FFD0CF1092E102CDCF37
:1049D0008C3F19F41216CCF3C8CF843F31F4809188
:1049E000DD028E7F8093DD02C0CF853F21F4809170
:1049F000DD028D7FF7CF863F21F48091DD028B7F32
:104A0000F1CF873F21F48091DD02877FEBCF883F94
:104A100021F48091DD028F7EE5CF8D3F31F48091CE
:104A2000DB028E7F8093DB02A0CF8E3F21F480914A
:104A3000DB028D7FF7CF8F3F09F097CF8091DB02AC
:104A40008B7FF0CF08950E940E239C019091DE028F
:104A50008091DF02982B21F03093D8022093D70267
:104A60009091E0028091E102982B21F03093D602E0
:104A70002093D5028CED92E00C94B716EF92FF9242
:104A80000F931F93CF93DF9300D000D000D0CDB70A
:104A9000DEB786E0ECEDF2E0DE01119601900D92BA
:104AA0008A95E1F7E090DE02F090DF020091E002EB
:104AB0001091E1021092DE021092DF021092E002E9
:104AC0001092E1028E2D8F2991F08091D702909162
:104AD000D8020E942623AC019091DA02992309F4AE
:104AE0003FC080911F018417150608F447C0802F2E
:104AF000812B91F08091D5029091D6020E942623BD
:104B0000AC019091D902992309F477C080911B01DF
:104B10008417150608F47FC08091DE029091DF02B1
:104B2000892B9091E002892B9091E102892B11F061
:104B30000E94232586E0FE013196ACEDB2E00190A3
:104B40000D928A95E1F726960FB6F894DEBF0FBE58
:104B5000CDBFDF91CF911F910F91FF90EF900895FE
:104B6000209120018AE0289F900111242417350705
:104B700008F0BDCF9F5F9093DA0202C09F3FD1F74C
:104B8000EE2059F00E94B5239FEF1E140CF491E023
:104B9000899F802D11248093DE02FF2059F00E940E
:104BA000B5239FEF1F140CF491E0899F802D1124F1
:104BB0008093DF023091DE02332309F498CF2091F5
:104BC000DF02222309F493CF45EB3403C001112403
:104BD000992359F09093DE0245EB240390011124B0
:104BE000332339F03093DF0282CF81E08093DE02FD
:104BF000F3CF81E08093DF027ACF20911C018AE01D
:104C0000289F900111242417350708F085CF9F5F56
:104C10009093D90202C09F3FD1F7002359F00E9420
:104C2000FF239FEF10160CF491E0899F802D112433
:104C30008093E002112359F00E94FF239FEF111689
:104C40000CF491E0899F802D11248093E102309132
:104C5000E002332309F460CF2091E102222309F41A
:104C60005BCF45EB3403C0011124992359F0909395
:104C7000E00245EB240390011124332339F03093F3
:104C8000E1024ACF81E08093E002F3CF81E080939C
:104C9000E10242CF86E0ECEDF2E0DF011D928A9561
:104CA000E9F71092DA021092D9021092DB0208950D
:104CB0008091EA020895CF93DF9300D00F92CDB791
:104CC000DEB790913B03943011F589837B836A832F
:104CD0009093E9008FEF9091E800815095FD06C018
:104CE00095ED9A95F1F700008111F5CF8091E800DC
:104CF00085FF0DC050E040E063E070E0CE0101961A
:104D00000E94D0288091E8008E778093E8000F9071
:104D10000F900F90DF91CF910895BC0184E00C9427
:104D20005B26BC0183E00C945B269C0184E08093AD
:104D3000E9009FEF8091E800915085FD06C085ED68
:104D40008A95F1F700009111F5CF8091E80085FF79
:104D50000CC050E040E066E070E0C9010E94D0283D
:104D60008091E8008E778093E8000895CF93DF93D9
:104D7000EC0181E08093E9008FEF9091E800815091
:104D800095FD06C095ED9A95F1F700008111F5CFDC
:104D90008091E80085FF14C050E040E068E070E0DA
:104DA000CE010E94D0288091E8008E778093E800A1
:104DB00088E0FE01A2EEB2E001900D928A95E1F743
:104DC000DF91CF910895CF93FC01603221F580915E
:104DD0003B03843001F5C091E900CF702091EC00D5
:104DE000922F917020FD90E8C92B82E08093E9001A
:104DF0008091E80080FF0CC050E040E060E270E08D
:104E0000CF010E94D0288091E8008E778093E8003F
:104E1000CF70C093E900CF91089580913A0381113A
:104E200009C00E94AF2A0E940C2B8091E20084608E
:104E30008093E200089510923A030895089508952A
:104E40000C94D62242E061EC81E00E942B2A42E2DF
:104E500061EC84E00E942B2A42E261EC82E00E9435
:104E60002B2A42E260EC83E00C942B2A80913D03D4
:104E7000833009F461C030F48130D1F1823009F41B
:104E80009DC008958A3009F489C08B3009F46FC041
:104E9000893009F050C080913C03813209F04BC049
:104EA0008091400390914103009719F0029709F017
:104EB00042C08091E800877F8093E8008091E800FD
:104EC00082FF35C09091F3008091F200029729F49F
:104ED0008091F1008B7F813021F48091F1008093EB
:104EE000EA028091E8008B778093E8000C945F2AB7
:104EF00080913C03813AF9F48091E800877F8093A8
:104F0000E8008091400390914103892B61F468E0AF
:104F100082EE92E070E00E946E298091E8008B772B
:104F20008093E800089560E090E080E0F3CF809106
:104F30003B038111C3CF089580913C03813AD9F797
:104F40008091400390914103892BA9F78091E8005B
:104F5000877F8093E8008091E80080FFFCCF8091FC
:104F60002B018093F1008091E8008E77BDCF809176
:104F70003C03813201F78091400390914103892BDA
:104F8000D1F68091E800877F8093E8000E945F2A35
:104F900080913E0380932B010C94591B80913C031C
:104FA000813249F68091E800877F8093E8000E9473
:104FB0005F2A80913F038093EB02089580913C0328
:104FC000813A09F0B8CF8091E800877F8093E800AC
:104FD0008091E80080FFFCCF8091EB02C2CFCDB77B
:104FE000DEB7A0970FB6F894DEBF0FBECDBF84B773
:104FF000877F84BF0FB6F894A89580916000886180
:1050000080936000109260000FBE80E890E00FB6C1
:10501000F89480936100909361000FBE0E94FF1688
:105020000E94AF2A0E940C2B8091E2008460809342
:10503000E20078940E94952D0E94091781E291E088
:105040000E949B1613E080913B03853039F10E944A
:10505000171780913B038430B1F71093E9008091DA
:10506000E80082FFF0CF8091E80090E085FF09C062
:1050700050E040E060E270E0CE0101960E941F29FE
:1050800091E08091E8008B778093E8009923D9F232
:1050900060E2CE0101960E940D12D5CF0E948E22B1
:1050A00080913903882379F20E94BF22882359F224
:1050B0000E94BA28C8CF0C945D28292F33272330AB
:1050C000310521F168F42130310509F449C022305D
:1050D000310509F44AC090E080E030E020E029C0CA
:1050E0002132310581F122323105A9F76330710592
:1050F00090F7FB01EE0FFF1FE052FE4F2081318140
:1051000063527E4FFB01808190E013C0992781306C
:10511000910599F0009741F08230910589F003974D
:10512000D1F6E6E8F4E002C0EAEAF4E0849190E027
:105130009F01FA01318320830895EEE9F4E0F6CF70
:10514000ECE8F4E0F3CF6330710528F6660F771FC3
:10515000FB01EA51FE4F2081318189E090E0E9CFE7
:1051600082E190E029E035E0E4CF8BE590E02EEAA3
:1051700034E0DFCF80E189BD82E189BD09B400FE62
:10518000FDCF8091D8008F7D8093D8008091E00082
:1051900082608093E0008091E00081FDFCCF089563
:1051A000AF92BF92CF92DF92FF920F931F93CF9354
:1051B000DF936C01EB018A010E947E2AF82E811197
:1051C00023C00115110539F0F80180819181C81BB8
:1051D000D90BC80ED91EB12CA12C2097A9F0809113
:1051E000E80085FD22C08091E8008E778093E8007A
:1051F00001151105A1F0F80180819181A80EB91E59
:10520000B182A08285E0F82E8F2DDF91CF911F9182
:105210000F91FF90DF90CF90BF90AF9008950E94C4
:105220007E2A8823D1F2F82EEFCFF60181916F010B
:105230008093F1002197FFEFAF1ABF0ACECFAF9254
:10524000BF92CF92DF92FF920F931F93CF93DF9382
:105250006C01EB018A010E947E2AF82E811123C085
:105260000115110539F0F80180819181C81BD90B16
:10527000C80ED91EB12CA12C2097A9F08091E8006E
:1052800085FD22C08091E8008B778093E8000115AE
:105290001105A1F0F80180819181A80EB91EB1829B
:1052A000A08285E0F82E8F2DDF91CF911F910F9175
:1052B000FF90DF90CF90BF90AF9008950E947E2A1C
:1052C0008823D1F2F82EEFCF8091F100F60181937F
:1052D0006F012197FFEFAF1ABF0ACECFFC0180917B
:1052E00042039091430386179707A0F0611571055B
:1052F00029F49091E8009E779093E80090E0611582
:10530000710551F4911108C08091E80082FF34C00A
:1053100080E00895BC01F2CF80913B038823C1F166
:105320008530C1F18091E80083FD30C08091E800B4
:1053300082FDEACF8091E80080FFE1CF8091F30009
:105340002091F200382F6115710519F028303105D0
:1053500058F091E02830310509F090E02091E80004
:105360002E772093E800CBCF81918093F10061509C
:1053700071092F5F3F4FE7CF80913B03882341F0B6
:10538000853041F08091E80083FFBECF81E0089531
:1053900082E0089583E00895FC018091420390919A
:1053A000430386179707A0F06115710529F48091D2
:1053B000E8008E778093E80090E06115710551F464
:1053C000911108C08091E80082FF35C080E0089507
:1053D000BC01F2CF80913B038823C9F18530C9F12C
:1053E0008091E80083FD31C08091E80082FDEACF22
:1053F0008091E80080FFE1CF8091F3002091F200DE
:10540000382F6115710519F02830310558F091E0F9
:105410002830310509F090E08091E8008E77809384
:10542000E800CBCF84918093F100319661507109EF
:105430002F5F3F4FE6CF80913B03882341F08530BB
:1054400041F08091E80083FFBDCF81E0089582E0C4
:10545000089583E00895982F973028F08F708093F7
:10546000E90081E008959093E900242F762F50E021
:10547000981731F07091EC002091ED005091F00000
:1054800021FD02C09F5FE8CF3091EB003E7F30935B
:10549000EB003091ED003D7F3093ED003091EB005B
:1054A00031603093EB007093EC002093ED0050934B
:1054B000F0002091EE0027FDE5CF80E00895809177
:1054C0003C0387FF13C08091E80082FF06C08091F3
:1054D000E8008B778093E80004C080913B03811142
:1054E000F2CF089580913B038823D9F38091E8009F
:1054F00080FFF8CF8091E8008E77ECCF2091E40018
:105500003091E50095E6A9012091EC00822F817091
:1055100020FF06C08091E80080FF06C080E008956B
:105520002091E80022FD1AC080913B03882389F076
:10553000853089F08091EB0085FD0FC02091E4005B
:105540003091E50042175307F9F29150E1F684E0FB
:10555000089582E0089583E0089581E008950E940F
:105560001D2B0E94252BE0EEF0E08081816080837E
:10557000E8EDF0E080818F77808319BCA7EDB0E083
:105580008C918E7F8C9380818F7E808310923A03E2
:1055900008950F931F93CF93DF930E941D2B0E94BA
:1055A000252BC8EDD0E088818F778883888180683B
:1055B000888388818F7D888319BC10923B03109269
:1055C0003703109239031092380300EE10E0F8010F
:1055D00080818B7F808388818160888342E060E066
:1055E00080E00E942B2AE1EEF0E080818E7F8083B4
:1055F000E2EEF0E08081816080838081886080833A
:10560000F80180818E7F8083888180618883DF912B
:10561000CF911F910F910895E8EDF0E080818F7E8A
:105620008083E7EDF0E080818160808384E082BF49
:1056300081E080933A030C94C92AE8EDF0E0808180
:105640008E7F80831092E20008951092DA0010920B
:10565000E10008951F920F920FB60F9211242F931D
:105660003F934F935F936F937F938F939F93AF93EA
:10567000BF93EF93FF938091E10082FF0BC0809175
:10568000E20082FF07C08091E1008B7F8093E10000
:105690000E94942D8091DA0080FF19C08091D8007B
:1056A00080FF15C08091DA008E7F8093DA008091B0
:1056B000D90080FF96C080E189BD82E189BD09B42F
:1056C00000FEFDCF81E080933B030E940D27809177
:1056D000E10080FF19C08091E20080FF15C0809139
:1056E000E2008E7F8093E2008091E20080618093EF
:1056F000E2008091D80080628093D80019BC85E0D8
:1057000080933B030E941F278091E10084FF2BC000
:105710008091E20084FF27C080E189BD82E189BDDC
:1057200089B5982F917080FFFBCF8091D8008F7D35
:105730008093D8008091E1008F7E8093E10080917A
:10574000E2008F7E8093E2008091E200816080938E
:10575000E20080913703882309F449C084E08093F4
:105760003B030E9420278091E10083FF29C08091A4
:10577000E20083FF25C08091E100877F8093E100F4
:1057800082E080933B03109237038091E1008E7F8B
:105790008093E1008091E2008E7F8093E20080910F
:1057A000E20080618093E20042E060E080E00E94DD
:1057B0002B2A8091F00088608093F0000E941E27C1
:1057C000FF91EF91BF91AF919F918F917F916F91D9
:1057D0005F914F913F912F910F900FBE0F901F90AF
:1057E000189519BC10923B030E941B2770CF809123
:1057F000E30087FD93E090933B03B3CF1F920F929A
:105800000FB60F9211242F933F934F935F936F9393
:105810007F938F939F93AF93BF93CF93DF93EF9338
:10582000FF93D091E900DF708091EC00C82FC17028
:1058300080FDC0E81092E9008091F000877F80939E
:10584000F00078940E94422C1092E9008091F000C0
:1058500088608093F000CD2BCF70C093E900FF915A
:10586000EF91DF91CF91BF91AF919F918F917F91F8
:105870006F915F914F913F912F910F900FBE0F90BD
:105880001F9018951F93CF93DF93CDB7DEB7AA97DC
:105890000FB6F894DEBF0FBECDBF8CE393E020912E
:1058A000F100FC012193CF01F3E084349F07B9F7A5
:1058B0000E9436278091E80083FF1EC180913C033F
:1058C00090913D039A3008F017C1E92FF0E0E55AB6
:1058D000F04D0C94062E803899F0823809F00CC1F6
:1058E000809140038F70873008F006C18093E900F3
:1058F0008091EB0085FB882780F91092E90006C0B3
:105900008091380390913903911182609091E80061
:10591000977F9093E8008093F1001092F1008091BE
:10592000E8008E77E5C0882309F4D3C0823009F0FF
:10593000E3C080913E038111D6C0809140038F70F7
:105940002FEF280F263008F0D7C08093E900209170
:10595000EB0020FFC8C0933031F48091EB008062EF
:105960008093EB00C0C09091EB0090619093EB00AE
:1059700021E030E001C0220F8A95EAF72093EA0087
:105980001092EA008091EB008860EACF8111B4C0E8
:1059900010913E031F778091E3008078812B8093E4
:1059A000E3008091E800877F8093E8000E945F2AEF
:1059B0008091E80080FFFCCF8091E30080688093B5
:1059C000E30082E0111183E080933B0395C080588F
:1059D000823008F091C080913E0390913F038C3D4E
:1059E00023E09207A1F583E08A838AE289834FB797
:1059F000F894DE01139620E03EE051E2E32FF0E060
:105A000050935700E49120FF03C0E295EF703F5F91
:105A1000EF708E2F90E0EA30C0F0C7968D939D9383
:105A20002F5F243159F74FBF8091E800877F809323
:105A3000E8006AE270E0CE0101960E946E29809132
:105A4000E8008B778093E80057C0C096E7CF60915D
:105A5000400370914103AE014F5F5F4F0E945B288E
:105A6000BC01892B09F448C09091E800977F90937E
:105A7000E80089819A810E94CC29E1CF8038E1F544
:105A80008091E800877F8093E800809137038093BE
:105A9000F10045CF811130C090913E03923060F506
:105AA0008091E800877F8093E800909337030E94FD
:105AB0005F2A80913703882311F084E005C080912C
:105AC000E30087FDFACF81E080933B030E94222709
:105AD00013C080913E03813079F481E0933009F066
