:100000000C9472020C94B9020C94B9020C94B902CB
:100010000C94B9020C94B9020C94B9020C94B90274
:100020000C94B9020C94B9020C940A260C94DE26A6
:100030000C94BE1D0C94B9020C94B9020C94B90234
:100040000C94B9020C94B9020C94B9020C94B90244
:100050000C94B9020C94151E0C94B9020C94B902BC
:100060000C94B9020C94B9020C94B9020C94B90224
:100070000C94B9020C94B9020C94B9020C94B90214
:100080000C94B9020C94B9020C94B9020C94B90204
:100090000C94B9020C94B9020C94B9020C94B902F4
:1000A0000C94B9020C94B9020C94B902290008000E
:1000B000150018000C002A0014001A0017001C007C
:1000C000120013002B00070009000D000E0028008D
:1000D000040016000A000B000F003300E1000600C8
:1000E000190010003600E5001D001B00050011007E
:1000F00037003800E000E4000000000000000000CD
:10010000E2002C42C25C2C41E600E7003500AB0067
:100110000100010052000100AC00AE00010001002E
:100120002F0030000100A8000100500051003400F1
:10013000AA00A900010001004F0001000100010018
:10014000010001002D00010001000100010001007B
:100150002E0038000100005C0000000000000000DC
:100160000100010001000100010001000100200068
:1001700021002400250001001E001F002200230092
:10018000260027000100010001000100010001001C
:100190000100010001000100010001000100010057
:1001A0000100010001000100010001000100010047
:1001B000010031000100010000000000000000000B
:1001C0000100010001000100010001000000000029
:1001D000000000002A2B28000000000000000000A2
:1001E0000000000000000029000000002C1E342048
:1001F000212224342627252E362D3738271E1F206E
:100200002122232425263333362E37381F040506B2
:100210000708090A0B0C0D0E0F10111213141516F6
:100220001718191A1B1C1D2F3130232D35040506F4
:100230000708090A0B0C0D0E0F10111213141516D6
:100240001718191A1B1C1D2F3130354C00000000E7
:10025000000000000000000000000000000000009E
:100260007E0F00D4FFFFFFC70000007800010101EE
:100270000101010101010202020202020202020363
:100280000303030303030304040404040404050533
:1002900005050506060606060707070707080808F6
:1002A00008090909090A0A0A0B0B0B0C0C0C0D0DA5
:1002B0000D0E0E0E0F0F0F1010111111121213133D
:1002C0001414151516161717181819191A1A1B1BB6
:1002D0001C1D1D1E1E1F2020212222232424252612
:1002E00026272829292A2B2C2D2D2E2F303132324A
:1002F000333435363738393A3B3C3D3E3F40414256
:10030000434445464748494A4C4D4E4F505153543B
:10031000555658595A5B5D5E5F61626465666869EF
:100320006B6C6D6F7072737577787A7B7D7E80826F
:10033000838587888A8C8E8F91939596989A9C9EB8
:10034000A0A2A3A5A7A9ABADAFB1B3B5B7BABCBEC8
:10035000C0C2C4C6C9CBCDCFD1D4D6D8DBDDDFE295
:10036000E4E7E9EBEEF0F3F5F8FAFDFF0403300003
:1003700000001003430052003300570056004100B4
:100380004E0000000A034E00610073007000000080
:100390000403090409025B00030100A0FA09040038
:1003A00000010301010009211101000122400007A1
:1003B00005810308000A0904010002030000000986
:1003C00021110100012222000705820320000107FC
:1003D00005030320000109040200010300000009D5
:1003E00021110100012281000705840320000A1267
:1003F0000110010000000870703645010001020381
:10040000010660FF0961A1010962150026FF009540
:1004100020750881020963150026FF0095207508E4
:100420009102C005010902A10185020901A100058F
:100430000919012905150025019505750181029508
:1004400001750381010501093009311581257F9569
:10045000027508810609381581257F950175088187
:1004600006050C0A38021581257F9501750881065D
:10047000C0C005010980A101850319012AB7001533
:100480000126B700950175108100C0050C0901A176
:1004900001850419012AA002150126A00295017503
:1004A000108100C005010906A101050719E029E72F
:1004B00015002501950875018102950175088101D6
:1004C0000507190029FF150026FF0095067508810C
:1004D0000005081901290595057501910295017519
:1004E000039101C011241FBECFEFDAE0DEBFCDBF04
:1004F00004B603FE27C08091110390911203A091CE
:100500001303B09114038730904BA740B04BD1F444
:1005100010921103109212031092130310921403FD
:1005200014BE84B7877F84BF0FB6F894A8958091D6
:100530006000886180936000109260000FBEE0E070
:10054000F8E3099511E0A0E0B1E0ECEBF2E502C0C0
:1005500005900D92A23BB107D9F723E0A2EBB1E0E1
:1005600001C01D92A131B207E1F70E94CF220C9485
:100570000D290C9400001F93CF93DF93182FC62FE3
:100580000E94BB02D82F882389F0113039F489EFFB
:10059000C11109C08AEF0E94AA1308C0111106C038
:1005A000CC2349F089EA0E94AA13DC2F8D2FDF911A
:1005B000CF911F9108958AEAEECF81E0089581E0FE
:1005C00008950C94DF0208950C94E3021F93CF93D7
:1005D000DF9300D000D00F92CDB7DEB749835A83A6
:1005E0006B833091D40189819A8131111DC06623BA
:1005F000B9F02223A9F00E94291B182F682F8981A6
:100600009A810E94D21A69817A81812F0F900F906E
:100610000F900F900F90DF91CF911F910C94880E47
:100620000E94001B182FEFCF0E94291B69817A813D
:10063000EDCFFC01262F408151816281738184813D
:100640000C94E602CF93DF93EC0160E00E94190363
:10065000BE01DF91CF910C94E402FF920F931F93A0
:10066000CF93DF93E82FF0E0E453FE4FF490C82FD0
:10067000C695C695C695D0E0FE01E45AFD4F04919B
:10068000877010E0082E02C0159507950A94E2F7CE
:1006900001701127C45BDD4FFE01C491D0E002C0A0
:1006A000D595C7958A95E2F7C170DD27011511052B
:1006B00019F081EE0E94C212209719F086EE0E9476
:1006C000C2128F2D0E94AA13CD2B19F086EE0E9424
:1006D0005413012B41F081EEDF91CF911F910F91C7
:1006E000FF900C945413DF91CF911F910F91FF90C5
:1006F0000895EF92FF920F931F93CF93DF93EC0136
:10070000162F0AE08881882309F454C0813009F04B
:100710004EC08981813099F47E0122E0E20EF11C05
:100720008A810E94AA13E7012196812F815050F3FC
:10073000EFE9FFE03197F1F700C00000F7CF82301A
:1007400041F47E0182E0E80EF11C8A810E94C2120F
:10075000EACF833041F47E01E2E0EE0EF11C8A81A3
:100760000E945413E0CF843011F02196DDCF2A810E
:10077000229690E080E0AE014F5F5F4F2053330B35
:100780002A30310548F0019778F2EFE9FFE0319720
:10079000F1F700C00000F7CF089FB001099F700D6E
:1007A0001124C901860F971F2981EA01E4CF0E9415
:1007B0002D03BACFDF91CF911F910F91FF90EF9052
:1007C000089560E00C9479038F929F92AF92BF924C
:1007D000CF92DF92EF92FF920F931F936B017C01F8
:1007E00081E090E0A0E0B0E04C015D0104C0880C25
:1007F000991CAA1CBB1C4A95D2F7B501A4014C0157
:100800005D0104C0880C991CAA1CBB1C2A95D2F758
:10081000482959296A297B2904C0880F991FAA1FD2
:10082000BB1F0A95D2F78A019B010C211D212E21A5
:100830003F21041715072607370789F48C299D29BE
:10084000AE29BF29BC01CD011F910F91FF90EF9000
:10085000DF90CF90BF90AF909F908F90089580953C
:100860009095A095B0958C219D21AE21BF21EACF16
:100870000F93382F262F60912B0270912C028091BC
:100880002D0290912E02042F432F0E94E4030F911A
:100890000C94101A0E945F1E0E94731C811102C0EA
:1008A0000E94101D0C94B9060C94BC0608950E9479
:1008B00039160E9456042FEF84E39CE021508040BB
:1008C0009040E1F700C000000C94391E0F931F9375
:1008D000CF93DF93EC0161E00E9419038C01BE010C
:1008E0000E945D0C882389F1BE01C8010E94E102CB
:1008F000882359F1BE01C8010E94DE0F882329F127
:10090000BE01C8010E9430108823F9F0BE01C80161
:100910000E9453118823C9F0BE01C8010E94900AA9
:10092000882399F08A81882339F001158CE518070E
:1009300051F00E3D1C4579F0CE01DF91CF911F9112
:100940000F910C94DD020E94570480E0DF91CF915B
:100950001F910F9108950E94101DF7CF08950C94D8
:10096000AE0481E008950C94B104CF93C82F0E9487
:10097000AF048C2FCF910C94B30490E080E00895E5
:100980000895FC01EE0FFF1FE459FD4F85919491EE
:100990000895CF93DF930E94880E0E94DE05EC013C
:1009A000811520E5920708F042C0811530E49307D5
:1009B00008F0BDC0883E910528F5803E910508F0FD
:1009C0009DC0883A910588F4853A910508F08FC05A
:1009D0008130910509F492C0009709F48FC0049703
:1009E00008F08CC0D0E0C0E089C08F3B910508F4CE
:1009F00089C0805C9109C03CD105A0F30E94C1046C
:100A0000EC017CC08115904250F4C11581E0D807FB
:100A100008F074C0C03FD10528F3D0656FC0C11580
:100A200090E3D90708F079C0CE019F70E7CF811518
:100A300025E5920758F5811534E5930708F0A6C01F
:100A4000811542E5940750F4C11581E5D80708F4F3
:100A500071C0DC2FCC27C16FD06A50C0982F9695FB
:100A600096959E0123703327C115D34508F07FC0AA
:100A7000C1E0D0E002C0CC0FDD1F2A95E2F720E2F2
:100A8000929FC0011124C82BD92B6FC0C11589E5D5
:100A9000D807A8F4C11598E5D90708F07CC0C1159E
:100AA00026E5D20708F09ECF8C2F0E947506C82F2E
:100AB000D0E0DC2FCC27CC27DF71D0621FC0C1155E
:100AC0003AE5D30708F46CC0CE01905681159042E8
:100AD00008F088CF8D2F8F710E94750690E0982FB7
:100AE000882788279F719C012C2BE901E6CFC55AE6
:100AF000D0E0C85BDE4FC881D0E0D064CE01DF918A
:100B0000CF910895C85AD0E0CC0FDD1FC65EDE4FEE
:100B10000990D881C02DD464F1CFCE019927D3FF9D
:100B200003C0EC01D86CEACFEC01D06CE7CFDF70EA
:100B3000D06AE4CFCE01E4E096958795EA95E1F797
:100B400083702C2F26952695237090E2299F900183
:100B50001124382B8C2F8370C1E0D0E002C0CC0F61
:100B6000DD1F8A95E2F7C22BD32BDC68C7CFC1E02B
:100B7000D0E002C0CC0FDD1F2A95E2F730E2939F50
:100B8000C0011124C82BD92BDA68B8CFD82FCC27B5
:100B9000C46FD06AB3CFDC2FCC27C06FD06AAECF82
:100BA0008C2F8F700E94750634E0D695C7953A95C4
:100BB000E1F7CF709C2FEC01D069A0CF823891056E
:100BC000B1F1B0F48133910509F475C048F489326C
:100BD000910509F469C08A32910509F473C008953A
:100BE0008533910509F459C08933910501F10895C0
:100BF000833E9105A9F138F4803E9105F9F0823EDB
:100C0000910549F10895863E9105A9F1873E910528
:100C1000C9F1843E910519F52091030321FF1FC0FE
:100C20008091020384FD14C087EE90E00895209126
:100C300002032370A1F080EE90E00895209102035A
:100C400020FD47C03091030330FF09C024FF44C09A
:100C500090E080E004C02091020322FDF7CF0895C8
:100C60002091020322FD3BC03091030330FDE3CF0E
:100C700024FFF5CFEDCF2091020323FFF0CF24FD19
:100C8000E7CFD2CF2091020323FD2CC03091030384
:100C900031FFEECF84EE90E008952091020325FF0E
:100CA000DECF89E290E008952091020325FFD7CF9F
:100CB00085E390E008952091020326FFD0CF8AE2D9
:100CC00090E008952091020326FFC9CF81E390E0D0
:100CD000089589E390E0089583EE90E0089582EE10
:100CE00090E0089586EE90E008959091020392FFBF
:100CF00006C0282F28712830F9F4877F846093FF7D
:100D000006C0282F28712831F1F4877E8461209154
:100D1000030320FF06C0382F38713830D9F4877F9D
:100D2000816021FF06C0282F28712831D1F4877EE9
:100D3000816194FD877E0895282F24712430F9F66F
:100D40008B7F8860DCCF282F2471243101F78B7EC4
:100D50008861DDCF382F3171313019F78E7F88608F
:100D6000E0CF282F2171213121F78E7E8861E1CFDC
:100D700008950C94B80608950C94BB06E82FF0E093
:100D8000EF59FD4F80810895089580EA8A95F1F723
:100D90000895A1E5B1E061E070E08D91E82FE29562
:100DA000EF70F0E041A18F709B0101C0220F8A9586
:100DB000EAF7922F9095942391A382A1822B82A38C
:100DC00081E0A935B80749F7ABE4B1E061E070E034
:100DD0008D91E82FE295EF70F0E041A18F709B01BB
:100DE00001C0220F8A95EAF7922F9095942391A340
:100DF00082A1822B82A381E0A135B80749F7E9E5FA
:100E0000F2E0A1E6B2E081E692E011921D928E1727
:100E10009F07D9F788E00E948F070C944A048F92AD
:100E20009F92AF92BF92CF92DF92EF92FF920F9379
:100E30001F93CF93DF9381E5A82E81E0B82E09E5BB
:100E400012E0912CCC24C394D12CF50181915F0147
:100E5000C82FC295CF70D0E099A18F70760101C0E4
:100E6000EE0C8A95EAF7892F8E2989A38AA18E2C08
:100E7000809488218AA30E94C506EBE4F1E050E04B
:100E800040E020E03191A32FA295AF70B0E09096A2
:100E90008C9190E03F7002C0959587953A95E2F766
:100EA00080FD39C08C2D042E01C0880F0A94EAF70A
:100EB000282B4F5F5F4F4630510521F789A18822CB
:100EC00089A28AA1E82AEAA2F8018081281729F1DB
:100ED000208381E0982A0F5F1F4FF9E5AF16F1E0FC
:100EE000BF0609F0B2CF292D48E061E672E089E53E
:100EF00092E00E9490070E945404892DDF91CF91C7
:100F00001F910F91FF90EF90DF90CF90BF90AF9027
:100F10009F908F90089580E0CBCF80E0DBCF089545
:100F2000FF920F931F93CF93DF93F82E092F162F65
:100F3000D72FC42F222349F081E08093B4010E946F
:100F4000EE1D9093B3018093B2018091B401882388
:100F5000A1F08091B2019091B3010E94061E069704
:100F600060F0EF2DF02FA12FBD2FCE0FDF2FD11D61
:100F7000EC17FD0741F41092B401DF91CF911F915E
:100F80000F91FF90089581918D93F2CFEF92FF9290
:100F90000F931F93CF93DF93EB01E82FD11110C074
:100FA000442321F0F0E0E459FD4FE4916E2F7E2FB1
:100FB0008E2FDF91CF911F910F91FF90EF900895A9
:100FC0000D2F10E0282F30E0442329F024593D4F05
:100FD000F901249130E0F6E0CF9FC0011124EFEF3A
:100FE000F0E0BF010E949028AB018C2F90E0880FA9
:100FF000991FA5E5A49FB001A59F700D1124861B24
:10100000970B982F990F980FBF01601B710B629F70
:10101000D001639FB00D729FB00D11248B2F9D9F47
:10102000B0011124672F7727EF01C61BD70BBE0134
:10103000629FE001639FD00D729FD00D11247F014C
:10104000E91AF108E09EB001E19E700DF09E700D6E
:101050001124672F7727E61BF70BE29F8001E39FA0
:10106000100DF29F100D1124E12F722F4230510507
:1010700099F048F44115510569F04130510581F06E
:10108000EB2F8D2F07C04430510569F080F04630BA
:101090005105B1F76E2F8DCFE22F7B2F812FFACF25
:1010A000E22F7D2FF7CFEB2F822F712FF3CF7B2FE6
:1010B000822FED2FEFCF41E00C94C607CF93DF9343
:1010C000762FE901682F842F0E945B08798368835B
:1010D0008A83DF91CF910895463A08F045EA0C944F
:1010E0005E0880916902982F9E7F71F48091690259
:1010F000817082608093690280916C02863A18F058
:1011000085EA80936C020895843080F7F5CF88E0FB
:1011100090E00C94CD28CF92DF92EF92FF926B017A
:101120007C010E947108B701A60188E090E0FF9061
:10113000EF90DF90CF900C94EB2860916902709152
:101140006A0280916B0290916C020C948B08E9E624
:10115000F2E083E0808311828FEF828385EA8383CC
:10116000148260817181828193810C948B088091BB
:10117000690280FF02C08695089580E008959091ED
:101180006D02933018F49F5F90936D02882351F0A5
:101190006091690270916A0280916B0290916C0279
:1011A0000C948B08089581E00C94BF0890916D0217
:1011B000992319F0915090936D02882351F060911A
:1011C000690270916A0280916B0290916C020C949A
:1011D0008B08089581E00C94D60880916D020895E3
:1011E00080936D02662351F06091690270916A02EA
:1011F00080916B0290916C020C948B08089560E0D2
:101200000C94F00880916A02089580916B02089511
:1012100080916C02089570E00C94E80A60910101DD
:101220008091690280FF0AC08091000123E0829FC3
:10123000C001112482599D4F0C940B098091020129
:101240009091030123E0829FF0011124E259FD4FA8
:10125000891750F71182108212828F5F3396F8CF70
:10126000E9E6F2E080818E7F8083608171818281F6
:1012700093810E948B082FEF80E792E021508040FD
:101280009040E1F700C000000C940E09E9E6F2E09E
:1012900080818E7F80832FEF80E792E02150804015
:1012A0009040E1F700C000000C940E099091690293
:1012B00090FF14C0909102012091030133E0939FAD
:1012C000F0011124E259FD4F921710F00C940E0911
:1012D0008183608342839F5F3396F6CF0895EF92B8
:1012E000FF920F931F93CF93DF9300D00F92CDB750
:1012F000DEB7F82E062F142FE22E8091690280FFB0
:1013000028C0E82FE695F0E0E75AFE4F90819093D1
:10131000B6018E7F823059F49E012F5F3F4F8F2D93
:101320000E946C084B8169818A810E945609F09263
:101330006A0200936B0210936C02EE2051F06091F0
:10134000690270916A0280916B0290916C020E9416
:101350008B080F900F900F90DF91CF911F910F91FD
:10136000FF90EF900895E9E6F2E09181282F438104
:1013700062818CE0890F0C946F0981E00C94B309B1
:10138000E9E6F2E09181282F4381628184EF890FA1
:101390000C946F0981E00C94C009E9E6F2E06281E7
:1013A0002CE0620F08F46FEF282F438181810C94A9
:1013B0006F0981E00C94CD09E9E6F2E062812CE04E
:1013C000621B08F460E0282F438181810C946F092F
:1013D00081E00C94DC09E9E6F2E043812CE0420F65
:1013E00008F44FEF282F628181810C946F0981E00E
:1013F0000C94EB09E9E6F2E043812CE0421B08F48F
:1014000040E0282F628181810C946F0981E00C9467
:10141000FA0920E00C946F098091690280FF18C0DE
:101420008170826080936902662351F06091690245
:1014300070916A0280916B0290916C020E948B08FD
:1014400040916C0260916B0280916A020C94090ACF
:101450000895682F81E00C940C0A81E00C94290A0D
:10146000682F9091690296958FEF890F09F481E0BA
:101470000C940C0A81E00C94300A61E00C940C0A84
:10148000E9E6F2E080818160808386950C943D0AD4
:101490008091690280FD0C9430090C94400A60E050
:1014A0000C940C0A8091B50181112CC00E94731C10
:1014B000811104C00E94101D0E94A7080E94870885
:1014C0006093690270936A0280936B0290936C023E
:1014D0006E7F61F40E94A7080E94870860936902EA
:1014E00070936A0280936B0290936C020E94710861
:1014F0008091690280FF03C086950E944F0A81E0B7
:101500008093B5010895E9E6F2E0808181608083EF
:1015100086950C944F0AFA01811101C0FB010994D0
:101520000F931F93CF938C01FB01C281CC2309F44D
:101530004DC00E94BE1B8272F801E25CFC45E431A2
:10154000F10538F4E15FF64D0C94B8280E94480A82
:10155000C0E08C2FCF911F910F9108954AE35AE07C
:101560006DE27AE00E948B0AF3CF4DE25AE06AE323
:101570007AE0F8CF4AEC59E06DEB79E0F3CF4DEB30
:1015800059E06AEC79E0EECF48EE59E069ED79E098
:10159000E9CF49ED59E068EE79E0E4CF46E05AE062
:1015A00067EF79E0DFCF47EF59E066E07AE0DACF26
:1015B0004AEE58E063ED78E0D5CF43ED58E06AEEAF
:1015C00078E0D0CF81E00E943D0AC2CFC1E0C1CF18
:1015D0006E9A4EB14F7B5EB15064EFB7F8949B01A9
:1015E000220F331F260F371F280F391F28173907DF
:1015F00041F4EFBF8FE594E00197F1F700C00000E0
:101600000895DC016D91CD0178E05EB9000000C065
:1016100067FF4EB9660F000000C000C000C04EB9A1
:1016200000C07A9591F7E2CFAF92BF92CF92DF924E
:10163000EF92FF920F931F93CF93DF93AEE6B1E04B
:101640002BE631E08EEBA82E81E0B82E61E771E049
:1016500041E050E00D91802F82958F7090E0FC0169
:10166000C1A10F707A01002E01C0EE0C0A94EAF7B6
:10167000FE2DF095CF23FC01C1A3C2A1CE29C2A3A8
:10168000E90119919E01E12FE295EF70F0E0F1A0E0
:101690001F706A01012E01C0CC0C0A94EAF7EC2CF1
:1016A000E094EF20E1A2F2A0FC28F2A2EC0188A1D4
:1016B00090E002C0959587950A95E2F78170E0A1C8
:1016C000F0E002C0F595E7951A95E2F790E0E0FDAD
:1016D00092E0892BF50181935F016A177B0709F07E
:1016E000B9CFDF91CF911F910F91FF90EF90DF90D5
:1016F000CF90BF90AF9008959F92AF92BF92CF923C
:10170000DF92EF92FF920F931F93CF93DF930EEB35
:1017100011E08EE6C82E81E0D82E9BE6E92E91E0FE
:10172000F92E2BEBA22E21E0B22EC8EBD1E0912CAA
:10173000D801EC91EE0FEE0FED938D01D6012D91B6
:101740006D01A22FA295AF70B0E090968C9190E0C1
:101750002F7002C0959587952A95E2F78170992799
:10176000D7014D917D01A42FA295AF70B0E0909666
:101770002C9130E04F7002C0359527954A95E2F7DD
:10178000A9014170552720FF02C042E050E0842BA0
:10179000E82BD8011197EC93EF70F0E0E55AFE4F7B
:1017A0008081F5019081890F808384303CF08881AD
:1017B0008F5F888360E0892D0E94BB02D5018C91E8
:1017C0008D3F3CF488818150888361E0892D0E949F
:1017D000BB02F5018081837887FF03C081508C6F45
:1017E0008F5FD5018D935D0193942196B3E09B1299
:1017F0009FCFDF91CF911F910F91FF90EF90DF90DE
:10180000CF90BF90AF909F90089582E290E00E94A9
:10181000C528823289F483E290E00E94C528833093
:1018200059F484E290E00E94C52891E0833009F0E9
:1018300090E0892F8170089580E0FCCFCF93C82F6E
:101840006FEF811162E282E290E00E94D928C1111B
:101850000CC0CFEF6C2F83E290E00E94D9286C2F50
:1018600084E290E0CF910C94D928C3E0F3CF80E0DC
:101870000E941E0C0C946D1C089585E290E00E945D
:10188000C528682F70E090E080E0089585E290E040
:101890000C94D9280E943C0C0E94050C81110CC0AC
:1018A00060E070E0CB010E94460C0E94000E0E9496
:1018B000EC0E81E00C941E0C0895CF93FB01C281C5
:1018C000CC2309F19C0122513F452031310520F5FF
:1018D00082510E94FC0EC0E08C2FCF91089581E0D0
:1018E0000E94361A43E062E081E00E943804F3CFA0
:1018F00081E00E94571A43E062E081E00E943804D0
:10190000EBCF82E0F6CF8031FFE59F0789F381318D
:101910009F45B9F3C1E0E0CF8031EFE59E07F9F2D2
:1019200081319F45C9F682E0DBCF2FEFFC01208398
:101930000895CF93DF93EC0188818138A9F028F4D2
:10194000803871F0DF91CF910895823881F083382B
:10195000C9F70E94020989830E9405098A83F2CF90
:101960000E9408098983EECF0E94B708FBCF0E942E
:10197000ED08F8CFCF93DF93EC0188818138E1F057
:1019800028F4803869F0DF91CF910895823811F101
:101990008338C9F70E940809482F6A81898108C0E5
:1019A000D9810E940509C82F0E9402094D2F6C2F72
:1019B000DF91CF910C94090A89810E944F0A898195
:1019C000811104C0DF91CF910C944609DF91CF9132
:1019D0000C94830A8981DF91CF910C94FF08EF92D8
:1019E000FF920F931F93CF93DF93EC01062FDC013F
:1019F000ED91CD01E150E33108F0BFC0F0E0ED5DC5
:101A0000F64D0C94B828198289E08A83602FCE01A4
:101A1000DF91CF911F910F91FF90EF900C94C32114
:101A20008981823069F0833071F08130D9F40E946D
:101A3000FA1D0E94BE286A837B838C839D83E6CF38
:101A40000E943D0CF6CF7E01B2E0EB0EF11C10E0DF
:101A5000812F0E94BE06F70181937F011F5F18301E
:101A6000B9F7D4CF602FCE010E94950CCFCF8981DA
:101A70008230C1F76A817B818C819D810E94BE2862
:101A80000E94460CC3CF4B816A8189810E94D20D8E
:101A90009827892798279D838C83B8CF2C813D81F7
:101AA0003227232732274B816A8189810E94EB0DDF
:101AB000ADCF0E94000EAACF0E94BA0CA7CF0E9401
:101AC000990CA4CF0E949D08A1CF0E94950E8983F6
:101AD0009DCF0E94970E9827892798279A838983FC
:101AE00095CF6B8170E089819A81AE014C5F5F4F29
:101AF0009827892798270E949A0E88CF6B8170E0DB
:101B000089819A81AE014C5F5F4F9827892798277A
:101B10000E94C10E7BCF0E94EC0E78CF0E94C00DB8
:101B2000D6CF6B8170E089819A81AE014C5F5F4FA7
:101B30009827892798270E94380E68CF6B8170E01C
:101B400089819A81AE014C5F5F4F9827892798273A
:101B50000E945E0E5BCF0E94370C58CFCE010E94D0
:101B6000C321FFEF21EE84E0F15020408040E1F7F7
:101B700000C000000E94391E49CF8FEF888346CFF6
:101B800084E0089550E0440F551F9CE0699F400D8C
:101B9000511D112490E6899F400D511D1124CA0149
:101BA000869608950F931F93CF93DF930E94C20DE3
:101BB0008C010E94C528C82FD0E0DC2FCC27C8019B
:101BC00001960E94C5289E01282BC901DF91CF9163
:101BD0001F910F9108950F931F93CF93DF93122FAF
:101BE000032F0E94C20DEC01602F0E94D928612FA3
:101BF000CE010196DF91CF911F910F910C94D928BE
:101C0000AF92BF92CF92DF92EF92FF921F93CF934A
:101C1000DF938CEAC82E80E0D82ED0E07601C0E0B9
:101C200014C0F50125913491412F6C2F8D2F0E9406
:101C3000EB0D82E0A80EB11C1F5F163091F78CE00F
:101C4000E80EF11CCF5FC83019F0570110E0E9CF62
:101C5000DF5F80E6C80ED11CD43001F7DF91CF9151
:101C60001F91FF90EF90DF90CF90BF90AF900895BD
:101C7000EF92FF920F931F93CF93DF93EC018A01B2
:101C80007C01E60EF71ECE018696CE15DF0539F4EF
:101C9000DF91CF911F910F91FF90EF900895C03881
:101CA00021E0D20740F40E94C528F80180830F5F2D
:101CB0001F4F2196E8CFF8011082F9CFCF92DF9223
:101CC000EF92FF920F931F93CF93DF937C016A01F2
:101CD0008C01060F171FEC01CE018696C017D107A5
:101CE00049F4DF91CF911F910F91FF90EF90DF901A
:101CF000CF900895C03821E0D20740F4FE01EE19DC
:101D0000FF09EC0DFD1D60810E94D9282196E4CFCA
:101D1000462F843038F4783028F4663018F4672F72
:101D20000C94D20D90E080E0089580E108958AE55A
:101D300092E00895EF92FF920F931F93CF93DF935A
:101D4000EC018A017C01E60EF71ECE018A559E4FFA
:101D5000CE15DF0539F4DF91CF911F910F91FF90E0
:101D6000EF900895CA3522E0D20740F40E94C528BA
:101D7000F80180830F5F1F4F2196E7CFF801108293
:101D8000F9CFCF92DF92EF92FF920F931F93CF93F1
:101D9000DF937C016A018C01060F171FEC01CE0155
:101DA0008A559E4FC017D10749F4DF91CF911F91FB
:101DB0000F91FF90EF90DF90CF900895CA3522E009
:101DC000D20740F4FE01EE19FF09EC0DFD1D608104
:101DD0000E94D9282196E3CFCF93DF93C6EAD1E0C2
:101DE00060E0CE010E94D9282196C11584E0D80771
:101DF000B9F7DF91CF910895DF92EF92FF920F93A1
:101E00001F93CF93DF9300D000D0CDB7DEB7F82E6D
:101E10008FE08F1540F08FEF93E00E94C52806EA0F
:101E200011E08823C1F00F900F900F900F90DF9179
:101E3000CF911F910F91FF90EF90DF9008950115C2
:101E400084E0180781F3C8010E94C528811101C0F0
:101E5000FA940F5F1F4FF110F2CF19821A821B8282
:101E60001C82DD24D39478018FEFE81AF80AC801A8
:101E70000E94C52889831A828823A9F29FEF980FB0
:101E8000933078F48A83D9820E5F1F4FC7010E9476
:101E9000C5288B83882339F2CE0101960E94E10385
:101EA000E2CF8701F9CFAF92BF92CF92DF92EF924C
:101EB000FF920F931F93CF93DF937C015B01C42F9D
:101EC000D22FFC0182818823F9F04093C3010E9444
:101ED000EE1D9093C2018093C10180E28C0F883087
:101EE00008F061C0C77081E001C0880FCA95EAF7A9
:101EF000DF91CF911F910F91FF90EF90DF90CF90E6
:101F0000BF90AF900C94BD131091C301141340C047
:101F10008091C1019091C2010E94061E6C01B7011F
:101F2000C5010E94AF18C816D90690F5C0E2CD0FC2
:101F30001D17B9F080E2810F883040F4177081E0FE
:101F400001C0880F1A95EAF70E94C413C83048F4FC
:101F500081E09D2F977001C0880F9A95EAF70E9443
:101F6000BD13802F0E94AA13C830E8F4D77081E017
:101F700001C0880FDA95EAF7DF91CF911F910F9199
:101F8000FF90EF90DF90CF90BF90AF900C94C41370
:101F900080E28C0F883038F4C77081E001C0880F70
:101FA000CA95EAF7E9CFDF91CF911F910F91FF908A
:101FB000EF90DF90CF90BF90AF9008950F939C016A
:101FC000CB01233F4CE5340759F1A8F4283DFCE54B
:101FD0003F0701F1293D4CE53407D1F1273D3C4550
:101FE00091F406E221EE41EE67ED7CE50E94530F8D
:101FF00080E00F910895253FFCE53F07E9F0B0F040
:10200000263F3C45F9F0FC018281882339F110928A
:10201000C301EFCF07E225EE45EE68ED7CE5E6CFA4
:1020200006E221EE40EE63EF7CE5E0CF07E225EE2D
:1020300044EE64EF7CE5DACF06E221EE42EE65EF96
:102040007CE5D4CF07E225EE46EE66EF7CE5CECF09
:1020500008E221E045EE69ED7CE5C8CF81E0C9CF1B
:10206000CF93DF93EC01FB018281882309F419C12E
:10207000C230FCE5DF07C0F1C6319CE5D90730F07E
:102080009E012A5F3C452930310570F50E94861C6F
:102090009093030380930203C031ECE5DE0709F45B
:1020A000CFC008F05BC0C8308CE5D80709F4B6C0D3
:1020B00088F5C430ECE5DE0709F4A8C0C0F4C230EE
:1020C0008CE5D80709F49CC0809102038260C3307C
:1020D000DC4509F498C080910203909103030E94AB
:1020E000941C0E94391680E0DF91CF910895809171
:1020F00002038061C630ECE5DE0709F484C08091FC
:1021000002038860C730DC4508F47DC0809102037B
:10211000806279C0CC308CE5D80709F489C070F4AE
:10212000809102038C60CA30ECE5DE0709F46BC0D5
:1021300008F478C0809102038E7F65C0CE308CE5B4
:10214000D80709F479C0809102038B7FCF30DC453A
:1021500008F459C0809102038F7E55C0CB3FECE557
:10216000DE0709F457C030F5C3318CE5D80709F410
:102170006FC078F4C131ECE5DE0709F465C0C23107
:10218000DC4509F0A8CF0E943916809102038F77B1
:102190003AC0C5318CE5D80709F462C008F476C0AE
:1021A000809103038160CA3FDC4509F094CF80939E
:1021B000030391CFCF3FFCE5DF0709F44DC088F45E
:1021C000809103038D7FCD3F9CE5D90781F38091FA
:1021D00003038E7FCE3FDC4550F380910303836081
:1021E000E6CFC130FDE5DF0709F459C008F444C06B
:1021F00080E0C230DD4509F06ECF0E94121D6BCF2A
:102200008091020381608093020365CF8091020375
:102210008460F9CF809103038260C9CF809102036B
:102220008064F1CF0E943916809102038068EBCF61
:10223000809102038D7FE7CF80910203877FE3CFF8
:10224000809102038F7DDFCF809102038F7BDBCFF4
:1022500080910203837FD7CF809103038C7FA7CF28
:102260008091020382FB992790F921E0922790FB4D
:1022700082F990FB83F9C7CF80910303982F909543
:1022800091708E7F892B90FB81F991CF0E94391636
:1022900090910203892F97FB87F98058B4CF81E092
:1022A000ACCF81E021CFCF93DF93EB0186319C450A
:1022B00011F50E94BE1B9A81992399F08A7A91E0C8
:1022C00009F490E09093C401811109C089E20E9451
:1022D000991B0E940A1C80E0DF91CF91089585E34D
:1022E000F6CF8091C401811104C089E20E94A01B35
:1022F000F0CF85E3FBCF81E0EFCF9093CA018093CD
:10230000C9010895E091C901F091CA01309721F007
:102310000190F081E02D099480E00895E091C901D9
:10232000F091CA01309721F00280F381E02D0994E9
:102330000895E091C901F091CA01309739F022E087
:10234000DC012C930480F581E02D099408952091FF
:10235000C7013091C8012817390771F09093C8015F
:102360008093C701E091C901F091CA01309721F033
:102370000680F781E02D099408952091C5013091E0
:10238000C6012817390771F09093C6018093C501E3
:10239000E091C901F091CA01309721F00084F185E4
:1023A000E02D0994089585B7806885BF85B780685A
:1023B00085BF0895089508950C94DA1108950C943A
:1023C000DE110E94D3110E94DB110C94DC1181E01C
:1023D00008950C94E7110E94E51D0E94C9060E9411
:1023E0004A0C0E94731E0E94520A0E94140B0C9405
:1023F000DF11BF92CF92DF92EF92FF920F931F9364
:10240000CF93DF93CDB7DEB72A970FB6F894DEBF30
:102410000FBECDBF0E940F070E94E911882309F467
:1024200061C08CECC82E81E0D82E10E000E0B02E08
:10243000802F0E94BE06E82EF601F1906F01F8167B
:1024400009F44AC08091400281FD0E94C4069F2D7C
:102450009E2580E0FF24F394292F2F21C1F18E8344
:10246000BF82EF2081E009F480E088870E94EE1DA2
:102470008160782F9A8789874E815F8168858A85F8
:102480000E949312F801E453FE4F8081F826F082F7
:102490000E947C0B0E941E200E9482119091CB0111
:1024A000891789F10E9482118093CB012A960FB679
:1024B000F894DEBF0FBECDBFDF91CF911F910F917A
:1024C000FF90EF90DF90CF90BF900C94B5048F5F9A
:1024D000FF0C863009F0C0CF0F5F1F4F0830110589
:1024E00009F0A5CF8FEF89838A831B820E94EE1D9E
:1024F0008160782F9D838C8349815A816B818D8186
:102500000E949312C5CF2A960FB6F894DEBF0FBE75
:10251000CDBFDF91CF911F910F91FF90EF90DF9092
:10252000CF90BF900895CF93DF93CDB7DEB72B97B1
:102530000FB6F894DEBF0FBECDBF4F8358876987B3
:102540007A878B871E821D8285E0FE013796DE0129
:10255000119601900D928A95E1F749815A816B811C
:102560007C818D819E812B960FB6F894DEBF0FBEC5
:10257000CDBFDF91CF910C94B218FC018081918185
:102580000C946B1BCF93C82F882309F48BC082381F
:10259000C1F40E94821181FD85C089E30E94991BCC
:1025A0000E940A1C2FEF81EE94E021508040904061
:1025B000E1F700C0000089E30E94A01BCF910C94BA
:1025C0000A1C8338A1F40E94821180FD6BC083E550
:1025D0000E94991B0E940A1C2FEF81EE94E021506B
:1025E00080409040E1F700C0000083E5E5CF8438EB
:1025F000A1F40E94821182FD55C087E40E94991BBC
:102600000E940A1C2FEF81EE94E021508040904000
:10261000E1F700C0000087E4CFCF8CEF8C0F813A48
:1026200090F46C2F80910501909106010E94291D64
:10263000882329F08C2F0E94A01B0E940A1C8C2F3B
:102640000E94991BBBCF80E28C0F883048F4C77082
:1026500081E001C0880FCA95EAF70E94C11BAECF86
:10266000EBE5EC0FE33040F4F0E0E156FE4F808103
:1026700090E0CF910C94A711E8E5EC0FE73150F40E
:10268000F0E0EE0FFF1FEF58FE4F80819181CF9158
:102690000C94BD11C03F30F08C2F0E94181FCF91B9
:1026A0000C940320CF910895882309F452C08238F6
:1026B00071F40E94821181FF4CC089E30E94991B32
:1026C0000E940A1C89E30E94A01B0C940A1C8338F8
:1026D00059F40E94821180FF3CC083E50E94991B3F
:1026E0000E940A1C83E5EFCF843859F40E948211BE
:1026F00082FF2FC087E40E94991B0E940A1C87E476
:10270000E2CF9CEF980F913AF0F290E2980F983058
:1027100050F4877091E001C0990F8A95EAF7892FEC
:102720000E94C71BD2CF9BE5980F933020F490E016
:1027300080E00C94A71198E5980F973120F490E071
:1027400080E00C94BD11803F20F00E94801F0C940B
:1027500003200895CF93C82F0E94C212C93349F4B1
:102760002FEF87EE93E0215080409040E1F700C0CA
:1027700000008C2FCF910C945413882321F00E94D9
:10278000C11B0C940A1C0895882321F00E94C71BCA
:102790000C940A1C0895BF92CF92DF92EF92FF92A1
:1027A0000F931F93CF93DF936C01D62FC72FFC019C
:1027B000058102950F70128111110E94DE1B0E948B
:1027C000B71BE82E882391F01123D1F08C2F807F46
:1027D000803421F080E28D0F883090F082E00E94FA
:1027E000551C0E94B71B91E0E82EE926BC2EB2943E
:1027F0009FE0B922EB2DF0E0EA5CF64D0C94B8288E
:10280000E12CF4CF0C2F0F70C07F11F00295007FE8
:102810001123A9F0002359F080E28D0F883010F0C9
:10282000D11109C0802F0E94C11B0E940A1C8D2F4C
:102830000E94C21214C0802F0E94D11BF6CF8D2F90
:102840000E945413002359F080E28D0F883010F05D
:10285000D1112CC0802F0E94C71B0E940A1C2B2D57
:102860002850330B2430310520F40E9482110E943D
:10287000B504EE2009F49EC10E94B31B80FD9AC1ED
:10288000F60112820E94AD1B0E94361AC6010E94F8
:10289000FB150E94AD1BDF91CF911F910F91FF900F
:1028A000EF90DF90CF90BF900C94571A802F0E942A
:1028B000D71BD3CFFC2FFF70FF2EC07FC03219F083
:1028C000F29480EFF822DD2369F0D13049F1112331
:1028D00091F1002351F1F601858180FFA8CF8F701F
:1028E000858323C0112381F0011106C00E94F11BD2
:1028F0008F290E94BD13B3CF0130C1F70E94F11B95
:102900008F290E94F71BABCF011106C00E94001C4B
:102910008F2D0E94C413A3CF013009F4A0CFF6CFAE
:10292000112329F0063008F09ACF8F2DE2CF053021
:1029300008F095CFEDCF002359F3D93349F4FFEFD9
:1029400027EE33E0F15020403040E1F700C00000B6
:102950008D2F0E94541383CF8C2F8695869583707C
:1029600069F0813009F07BCF8D2F9C2F937011116E
:1029700002C090E080E00E94BD1171CF8D2F9C2F8E
:102980009370111102C090E080E00E94A71167CF00
:102990008D2F112329F00E94181F0E9403205FCF62
:1029A0000E94801FFACF8C2F837009F041C0111153
:1029B00056CF4D2F429546954770440F440F0D2F2B
:1029C0000F7010E030E020E0042E04C0000F111F53
:1029D000221F331F0A94D2F760E070E0CB01D4FFCE
:1029E0000FC06FE070E080E090E004C0660F771FDA
:1029F000881F991F4A95D2F760957095809590959C
:102A0000C695C695C370602B712B822B932BC23059
:102A100049F058F4C13019F00E94E81920CF0E9403
:102A2000D6191DCF0E94FA191ACF0E94D41917CFB8
:102A30008695112311F08C2F8170882309F40FCF14
:102A40004D2F429546954770440F440F0D2F0F7040
:102A500010E030E020E0042E04C0000F111F221F00
:102A6000331F0A94D2F760E070E0CB01D4FF0FC0AF
:102A70006FE070E080E090E004C0660F771F881F71
:102A8000991F4A95D2F76095709580959095C69557
:102A9000C695C370602B712B822B932BC23049F0EB
:102AA00058F4C13019F00E94AD1AD9CE0E949B1A79
:102AB000D6CE0E94BF1AD3CE0E94101AD0CECF70AD
:102AC000112329F08C2F0E94361A8D2F12CF8D2FB3
:102AD0000E94C4138C2F0E94571AC1CED23F89F195
:102AE00060F4D03FC9F0D13F29F1112309F442C06D
:102AF00001119DCE8C2F8F7121C0D33F39F1D43F6E
:102B0000A1F7112369F1CF718C2F0E94361A63E06F
:102B10008C2F0E94401CA3CE112341F0053008F0F9
:102B20009ECE8C2F8F710E947A1A99CE063008F0B3
:102B300096CEF7CF8C2F8F71112369F20E94361A2F
:102B40008ECE8C2F8F711123C9F3C5CF112329F09D
:102B50008C2F8F710E94211A82CE0E941C1A7FCE68
:102B600081E00E94551C023008F479CE82E00E9478
:102B7000551C75CE002359F0D93309F0E9CE8FEFFB
:102B800097EEE3E081509040E040E1F7DFCE8C2FFC
:102B90008F71A1CF4C2F4F706D2FC6010E94BD04C5
:102BA0000E944C195CCE4C2F4F706D2FC6010E94B5
:102BB000C00455CEDF91CF911F910F91FF90EF9000
:102BC000DF90CF90BF9008950F931F93CF93DF9323
:102BD000EC01688179818A810E94751B8C010E94B9
:102BE000D11A0E94D319B801CE01DF91CF911F9164
:102BF0000F910C94CB13CF93DF93EC018B819C81CD
:102C0000892B29F08881998189238F3F59F4DF919D
:102C1000CF910895CE010E94E415CE01DF91CF91AE
:102C20000C942203CE010E9466048111F3CF0E940E
:102C3000B71B882361F38A81882349F382E0DF91FF
:102C4000CF910C94551C0E94DE1B0E94EE1B0E942B
:102C50000A1C0E942A210E94032090E080E00E942A
:102C6000A71190E080E00C94BD110E94A71B0C946A
:102C700023160E94CE1B0C943516E92FE295EF70B7
:102C8000E250EE3070F4F0E0EA5BF64D0C94B828B8
:102C9000803F19F020F4883E20F481E00895843FBD
:102CA000E1F380E00895883EC0F3813FD1F7F5CF8E
:102CB00093FB882780F908950E946B1B0C943D16A6
:102CC000CF93DF9300D000D00F92CDB7DEB70F9037
:102CD0000F900F900F900F90DF91CF910895CF93A9
:102CE000DF9300D000D000D0CDB7DEB726960FB668
:102CF000F894DEBF0FBECDBFDF91CF9108951F9333
:102D0000CF93DF93C091D50116E08091D6018C134B
:102D100004C0DF91CF911F910895D0E01C9FF00176
:102D20001D9FF00D1124E952FE4F408151816281B7
:102D30007381848195810E946F162196C770E5CFBB
:102D400040910702509108026091090270910A02B5
:102D500080910B0290910C020C946F161F93CF93ED
:102D6000DF9380910C02807FA9F48091090288236F
:102D700089F08091D501C091D601609107027091D0
:102D80000802A0910A02B0910B02D62FD72316E0B9
:102D9000C81304C0DF91CF911F91089590E0109760
:102DA00011F0DF3F19F401968770F2CF189F900160
:102DB000199F300D1124F901E952FE4F418147134B
:102DC000F2CF40814613EFCF42814111ECCF4381D6
:102DD00054814A1B5B0B483C510528F780910C023B
:102DE0008F70806180930C02F901E452FE4F808164
:102DF0008F708061808387E092E00E94FB15DF91F5
:102E0000CF911F910C947F16AF92BF92CF92DF9219
:102E1000EF92FF920F931F93CF93DF93CDB7DEB75F
:102E200061970FB6F894DEBF0FBECDBF8C0185E071
:102E3000F801DE011D9601900D928A95E1F7F801E7
:102E400040815181E28087E0C82E82E0D82E6091D7
:102E50000A0270910B026115710509F461C190912C
:102E6000070220910802892F82238F3F09F458C15D
:102E7000A380B480F0900902F501E61BF70BFF2058
:102E800009F4FCC080910C02382F307FE83CF1053A
:102E900008F0B2C0311179C0FE2C251323C0941361
:102EA00021C0E1101FC08F70806180930C020E94CE
:102EB000A016C6010E94FB1580910C02F8018583C3
:102EC0008F2D61960FB6F894DEBF0FBECDBFDF9198
:102ED000CF911F910F91FF90EF90DF90CF90BF9017
:102EE000AF900895AB2829F0842F85238F3F09F0F8
:102EF00033C180E0F82FF170DF2E80FF3CC080915D
:102F0000D5012091D60136E0821315C04D875E872A
:102F10008D859E850E946B1B292F22952F70223054
:102F2000F0F0243018F59F70F1F0F8019581907F52
:102F3000D1F4D12C1EC090E0389FF001399FF00DE4
:102F40001124E952FE4F6181651306C0608164134C
:102F500003C062816E110FC001968770D5CF9F703C
:102F600011F0882331F3805E883018F3C8010E9485
:102F7000FB15FD2CA5CFEE2009F4A2CF80910C0209
:102F8000816080930C02F12C9BCF251306C0941313
:102F900004C0F801EE2009F48DC04D875E878D8551
:102FA0009E850E945C16882319F1EE2009F180911C
:102FB0000C02803270F020910702309108023887AD
:102FC0002F831986BB86AA868C87CE0107960E941E
:102FD000FB1586E0F801A7E0B2E001900D928A951A
:102FE000E1F70E94AE160E94A016FF24F39468CF6A
:102FF000C8010E94FB15F9CF311113C07A2DB98A8F
:10300000A88A6E2D89890E94601687E092E00E944E
:10301000FB1586E0F60111928A95E9F70E94A01649
:10302000B2CF25130FC094130DC0E1100BC0F801EF
:103030008583C8010E94FB1586E0F60111928A95EE
:10304000E9F73ECF4D875E878D859E850E945C1691
:10305000882371F2EE2061F280910C02803208F434
:10306000B8CF20910702309108023A8329831B824E
:10307000BD82AC828E83CE010196A9CFE83CF105DA
:1030800008F041C0FE2CEE2009F4B2CF25132AC06F
:10309000941328C080910C0280FD1BC0982F907F54
:1030A000C1F0F8018583903F31F0982F907F905FB9
:1030B0008F70892B8583C8010E94FB1586E0F8017B
:1030C000A7E0B2E001900D928A95E1F70E94A01668
:1030D000F7CE86E0F801A7E0B2E001900D928A9564
:1030E000E1F7EECE4D875E878D859E850E945C164A
:1030F00081116FCF80910C02816080930C02C80116
:103100000E94FB15DDCE7A2DB98AA88A6E2D898999
:103110000E94601686E0F60111928A95E9F7D6CFF3
:10312000EE2009F465CF4D875E878D859E850E94D0
:103130005C16F82E882309F45BCF86E0F801A7E03F
:10314000B2E001900D928A95E1F787E092E00E944B
:10315000BD120E94AE16BACF81E08E25CBCE88EC90
:1031600090E008951F93CF93DF93CDB7DEB72C97F0
:103170000FB6F894DEBF0FBECDBF4F835887698767
:103180007A878B879C87CE0107960E940417882335
:1031900069F08A859B85892B39F04F815885842F6A
:1031A00085238F3F09F071C016E05FC086E0FE0105
:1031B0003796DE01119601900D928A95E1F78A8586
:1031C0009B85892B89F38F81988589238F3F61F3B4
:1031D0002091D60130E0C90101968770992740916E
:1031E000D5014817190671F40E9439161092D601BC
:1031F0001092D50186E0E7E0F2E0DF011D928A95AA
:10320000E9F7D2CF96E0929FD001939FB00D1124A1
:10321000A952BE4FFE01319601900D929A95E1F7A9
:103220008093D6010E947F16BFCF819FC0011124D9
:1032300089529E4F0E9404178823E9F0E091D5013E
:103240001E9FF0011124E952FE4F4081518162819D
:103250007381848195810E946F168091D50190E0E1
:103260000196877099278093D5018091D50190911F
:10327000D6018913DACF2C960FB6F894DEBF0FBEB5
:10328000CDBFDF91CF911F91089569857A858B8598
:103290009C850E946F1688CFEF92FF920F931F9329
:1032A000CF93DF938C01892B81F0F12CEE24E394F2
:1032B000E8012196F8018491843770F4843008F095
:1032C0005FC08130B1F08230A1F1DF91CF911F91C9
:1032D0000F91FF90EF900895853709F44CC008F4E2
:1032E0003DC09CE7980F903780F78F770E9454136A
:1032F00049C00E5F1F4FFE01849190E2980F9830F5
:1033000060F48770FE2D01C0FF0F8A95EAF78F2FBA
:103310000E94E11B0E940A1C02C00E94C2128F2D53
:10332000815030F2EFE9FFE03197F1F700C0000083
:10333000F7CF0E5F1F4FFE01849190E2980F9830F7
:1033400050F48770FE2D01C0FF0F8A95EAF78F2F8A
:103350000E94E71BDFCF0E945413E1CF0E5F1F4F87
:10336000FE01C491C150D8F28FE99FE00197F1F7B7
:1033700000C00000F7CF0E5F1F4FFE01F490CFCFCB
:103380000E94C2128E01CBCF08950C94C4190E94E2
:10339000C51960932F02709330028093310290938D
:1033A00032020C94231608950C94C7190F931F939F
:1033B00000912F021091300220913102309132029F
:1033C000602B712B822B932B1F910F910C94C7199B
:1033D0000F931F9300912F02109130022091310220
:1033E0003091320260237123822393231F910F9126
:1033F0000C94C7190F931F9300912F021091300264
:103400002091310230913202602771278227932761
:103410001F910F910C94C7190C94C4190C940C1A99
:103420000E940E1A60932B0270932C0280932D023F
:1034300090932E020C94231660E070E0CB010C9464
:10344000101A0F931F9341E050E060E070E08A0192
:103450009B0104C0000F111F221F331F8A95D2F752
:10346000C901B8011F910F910C94101A0F931F936B
:1034700041E050E060E070E004C0440F551F661F5B
:10348000771F8A95D2F780912B0290912C02A09100
:103490002D02B0912E028A019B01082B192B2A2B99
:1034A0003B2BC901B8011F910F910C94101A0F9377
:1034B0001F9341E050E060E070E004C0440F551FEE
:1034C000661F771F8A95D2F7CB01BA016095709578
:1034D0008095909500912B0210912C0220912D0245
:1034E00030912E0260237123822393231F910F9129
:1034F0000C94101A0F931F9341E050E060E070E0CD
:1035000004C0440F551F661F771F8A95D2F780911C
:103510002B0290912C02A0912D02B0912E028A01D3
:103520009B01082719272A273B27C901B8011F91AA
:103530000F910C94101A0F931F9300912B0210916E
:103540002C0220912D0230912E02602B712B822BA8
:10355000932B1F910F910C94101A0F931F930091AE
:103560002B0210912C0220912D0230912E0260230B
:103570007123822393231F910F910C94101A0F93A0
:103580001F9300912B0210912C0220912D0230915B
:103590002E0260277127822793271F910F910C9489
:1035A000101A0895E92FEE0FE90FEE0F8E0F982FE6
:1035B000977041E001C0440F9A95EAF78695869589
:1035C000869595E0899FF0011124E35FFD4F30E07F
:1035D00020E070E05191DF011197CB01022E02C073
:1035E000969587950A94E2F78170819585278423C3
:1035F00085278C932F5F3F4F2530310559F708956C
:10360000E92FEE0FE90FEE0F8E0F982F977086952A
:103610008695869525E0829FF0011124E35FFD4F9A
:1036200050E040E080E0219130E0092E02C0369564
:1036300027950A94E2F721703327042E01C0220F48
:103640000A94EAF7822B4F5F5F4F4530510559F7D7
:103650000895BF92CF92DF92EF92FF920F931F9344
:10366000CF93DF938C01C0902B02D0902C02E0907E
:103670002D02F0902E0280912F0290913002A091A5
:103680003102B0913202C82AD92AEA2AFB2ACFE1B4
:10369000D0E0BC2ED701C6010C2E04C0B695A7956C
:1036A000979587950A94D2F780FD0EC0219788F7E9
:1036B000B12C8B2DDF91CF911F910F91FF90EF9047
:1036C000DF90CF90BF900895B8018C2F0E94C9045D
:1036D000019761F3EECFCF93DF93EC010E94291B9A
:1036E000BE01DF91CF910C94C9041F93CF93DF9358
:1036F000EB019091D401992331F0CB01DF91CF916F
:103700001F910C946B1B882379F0CB010E94291B1D
:10371000182F682FCE010E94D21ABE01812FDF918F
:10372000CF911F910C94C904CB010E94001B182F4C
:10373000F4CF682F80910501909106010C945F1DD4
:10374000682F80910501909106010C94611D809174
:103750000501909106010C94631D809133028595BB
:10376000859585950895809133028770089590918D
:103770003302977081E009F480E0089580913F0260
:10378000089590913F02892B80933F020895809580
:1037900090913F02982390933F02089510923F0228
:1037A000089590913E02892B80933E020895809562
:1037B00090913E02982390933E02089510923E020B
:1037C000089590913D02892B80933D020895809544
:1037D00090913D02982390933D02089510923D02EE
:1037E000089580913402089508950C94F41B9091EB
:1037F0003402981721F0809334020C94F51B08953D
:1038000080913402882329F01092340280E00C94D5
:10381000F51B0895E0910501F091060180913F02AA
:103820008083E0910501F0910601808190913E0234
:10383000892B8083E0910501F091060180819091B0
:103840003D02892B808390913402992381F0E0918D
:103850000501F09106018081892B8083809105010B
:10386000909106010E94171D81110E94001C8091F9
:103870000501909106010C948E1108950C943D1C45
:1038800098E0899F90011124622B609333020E947B
:10389000361A809133028595859585950C943E1C4A
:1038A0001092330280E00C943E1C9091330280957C
:1038B000892380933302282F277071F4282F082E34
:1038C000000C330B9217130639F085958595859575
:1038D0000E94571A0C94501C08956FEF7FEF90E0F0
:1038E00080E00C94F72890E080E00E94D32821E04B
:1038F0008C3E9E4F09F020E0822F089582E090E0F8
:103900000C94C52883E090E00C94C528CF9384E004
:1039100090E00E94C528C82F81E290E00E94C5284F
:10392000982F8C2FCF910895CF93C92F682F84E0C3
:1039300090E00E94D9286C2F81E290E0CF910C9406
:10394000D928AB01BC018FE090E00C94EB28AB01CF
:10395000BC0183E190E00C94EB2860E070E0CB01C7
:103960000C94A71C60E070E0CB010E94A11C0C9499
:10397000AD1C6CEE7EEF90E080E00E94F72860E0E6
:1039800082E090E00E94D92860E083E090E00E940D
:10399000D92810922F021092300210923102109208
:1039A000320260E084E090E00E94D92860E081E289
:1039B00090E00E94D92860E085E090E00E94D9283C
:1039C00060E086E090E00E94D9286FEF87E090E009
:1039D0000E94D92840E050E0BA0188E090E00E94BF
:1039E000EB2860E08DE090E00E94D92840E050E0B4
:1039F000BA0188E190E00E94EB2860E087E190E066
:103A00000E94D92840E050E0BA018CE190E00E9489
:103A1000EB2860E080E290E00E94D9280C94B21C70
:103A20000C94B91C682F8EE090E00C94D9289C016E
:103A30002E5F3F4FAC01485F5F4F80E02417350792
:103A400009F40895F90191919F019923B9F38F5FCA
:103A5000F5CF662349F0FC0132960896219126178E
:103A600029F0E817F907D1F780E0089581E008957B
:103A70009C01FC0132969FEF80E04191461751F086
:103A80009F3F19F4411101C0982F8F5F8630A9F72D
:103A90009F3F09F40895290F311D97FD3A95F901CB
:103AA00062830895FC01329608962191261303C083
:103AB000DF0111971C92E817F907B9F708950C94E4
:103AC000381D0C94521D029626E0FC0111922A9595
:103AD000E9F70895089508950C946B1D0E946C1DDC
:103AE00080910803843049F11092410288E190E00E
:103AF00020E40FB6F894A895809360000FBE209341
:103B0000600080E00E94B5040E946C1D83B7817F35
:103B1000846083BF83B7816083BF7894889583B7BF
:103B20008E7F83BF0FB6F894A8958091600088615E
:103B300080936000109260000FBE08950895CF93A7
:103B40000E946A1D0E940F070E949E1DC0E08C2FDC
:103B50000E94BE06811105C0CF5FC830C1F7CF916A
:103B6000089581E0FCCF08950C94B31D0E9439168E
:103B70000E9482110E94B5040C94B41D1F921FB6BE
:103B80001F9211248F939F93AF93BF938091410213
:103B9000811113C08091FE029091FF02A091000359
:103BA000B09101034196A11DB11D8093FE02909337
:103BB000FF02A0930003B0930103BF91AF919F91C7
:103BC0008F911F901FBE1F90189582E084BD93E0D7
:103BD00095BD9AEF97BD80936E0008952FB7F89426
:103BE0008091FE029091FF02A0910003B091010329
:103BF0002FBF08952FB7F8946091FE027091FF02D5
:103C000080910003909101032FBF08959C014FB74D
:103C1000F8948091FE029091FF02A0910003B09170
:103C200001034FBF821B930B089578941F921FB618
:103C30001F9211248F939F93AF93BF938091FE02A5
:103C40009091FF02A0910003B09101030196A11D84
:103C5000B11D8093FE029093FF02A0930003B093E6
:103C60000103BF91AF919F918F911F901FBE1F9035
:103C7000189581E08093E00080E28093D800109254
:103C8000C9008FE19EE40197F1F700C0000087E0D2
:103C900090EBDC018093110390931203A093130324
:103CA000B093140388E19CE00FB6F894A895809334
:103CB00060000FBE90936000FFCF0C94370C0E9401
:103CC0000F078FE39CE90197F1F700C000000E9405
:103CD0000F0780E00E94BE0680FF04C00E945D1EA8
:103CE0000C94391E08950E94731C811102C00E9419
:103CF000101D0E947E1C809340020E94861C90939F
:103D00000303809302030E94821C682F70E090E0FE
:103D100080E00E94D41960912B0270912C02809156
:103D20002D0290912E020C940E1A8091480280FF71
:103D300012C060910C0185E0689FB0011124759557
:103D400067957595679560387105A8F561157105DA
:103D5000A1F1862F089581FF09C060910C0185E0D3
:103D6000689FB001112475956795EDCF60910C01A6
:103D700082FD0AC0809147028823D1F090910B0107
:103D800060910C01891728F085E0689FB00111242B
:103D9000DACF869FB001112485E0869F9001879F2E
:103DA000300D1124692F70E0C9010E94A428CBCFE7
:103DB00065E070E0CECF8FE7089581E008958091AF
:103DC000480280FF0CC06091080170E0759567950E
:103DD000759567956115710549F1862F089581FFE5
:103DE00006C06091080170E075956795F3CF60910A
:103DF000080182FD0BC0909146029923A1F06091C9
:103E0000070180910801961738F0682F70E060383C
:103E1000710500F38FE70895899FC001112470E0B8
:103E20000E94A428F4CF61E070E0D7CF81E008952C
:103E3000803F31F40E94951E819580934C02089535
:103E4000813F19F40E94951EF8CF823F31F40E9401
:103E5000951E819580934B020895833F19F40E942B
:103E6000951EF8CF893F29F40E94DF1E80934D02F2
:103E700008958A3F21F40E94DF1E8195F7CF8B3F82
:103E800031F40E94DF1E819580934E0208958C3F8D
:103E900019F40E94DF1EF8CF843F31F480914A026A
:103EA000816080934A020895853F21F480914A02FF
:103EB0008260F7CF863F21F480914A028460F1CF7F
:103EC000873F21F480914A028860EBCF883F21F43C
:103ED00080914A028061E5CF8D3F31F480914802A4
:103EE00081608093480208958E3F21F480914802BA
:103EF0008260F7CF8F3FB9F7809148028460F1CF9D
:103F000090914B02803F59F480914C0287FF0DC085
:103F100010924C0291110BC01092470208C0813FD1
:103F200081F480914C0218169CF3992381F08091C2
:103F30004D0290914E02892B09F064C01092460206
:103F40000895823F49F497FFF0CF10924B02809181
:103F50004C028111ECCFE0CF833F19F41916ACF37A
:103F6000E4CF20914D02893F29F41216F4F6109205
:103F70004D02DBCF8A3F19F427FFD7CFF8CF20912E
:103F80004E028B3F29F427FFD0CF10924E02CDCFA7
:103F90008C3F19F41216CCF3C8CF843F31F48091D2
:103FA0004A028E7F80934A02C0CF853F21F48091E0
:103FB0004A028D7FF7CF863F21F480914A028B7FA2
:103FC000F1CF873F21F480914A02877FEBCF883F72
:103FD00021F480914A028F7EE5CF8D3F31F48091AC
:103FE00048028E7F80934802A0CF8E3F21F48091BB
:103FF00048028D7FF7CF8F3F09F097CF809148021D
:104000008B7FF0CF08950E94EE1D9C0190914B0292
:1040100080914C02982B21F030934502209344026A
:1040200090914D0280914E02982B21F030934302E3
:104030002093420289E492E00C949911EF92FF924E
:104040000F931F93CF93DF9300D000D000D0CDB754
:10405000DEB786E0E9E4F2E0DE01119601900D9210
:104060008A95E1F7E0904B02F0904C0200914D02EE
:1040700010914E0210924B0210924C0210924D027F
:1040800010924E028E2D8F2991F0809144029091D2
:1040900045020E94061EAC0190914702992309F443
:1040A0003FC080910D018417150608F447C0802F8A
:1040B000812B91F080914202909143020E94061E52
:1040C000AC0190914602992309F477C080910901CF
:1040D0008417150608F47FC080914B0290914C0222
:1040E000892B90914D02892B90914E02892B11F0D2
:1040F0000E94032086E0FE013196A9E4B2E001901F
:104100000D928A95E1F726960FB6F894DEBF0FBEA2
:10411000CDBFDF91CF911F910F91FF90EF90089548
:1041200020910E018AE0289F900111242417350761
:1041300008F0BDCF9F5F9093470202C09F3FD1F729
:10414000EE2059F00E94951E9FEF1E140CF491E092
:10415000899F802D112480934B02FF2059F00E94EB
:10416000951E9FEF1F140CF491E0899F802D112460
:1041700080934C0230914B02332309F498CF209165
:104180004C02222309F493CF45EB3403C0011124E0
:10419000992359F090934B0245EB2403900111248D
:1041A000332339F030934C0282CF81E080934B026D
:1041B000F3CF81E080934C027ACF20910A018AE00C
:1041C000289F900111242417350708F085CF9F5FA1
:1041D0009093460202C09F3FD1F7002359F00E94FE
:1041E000DF1E9FEF10160CF491E0899F802D1124A3
:1041F00080934D02112359F00E94DF1E9FEF11168C
:104200000CF491E0899F802D112480934E0230910F
:104210004D02332309F460CF20914E02222309F48A
:104220005BCF45EB3403C0011124992359F09093DF
:104230004D0245EB240390011124332339F03093D0
:104240004E024ACF81E080934D02F3CF81E080930C
:104250004E0242CF86E0E9E4F2E0DF011D928A954A
:10426000E9F7109247021092460210924802089510
:10427000809157020895CF93DF9300D00F92CDB76E
:10428000DEB790910803943011F589837B836A83AC
:104290009093E9008FEF9091E800815095FD06C062
:1042A00095ED9A95F1F700008111F5CF8091E80026
:1042B00085FF0DC050E040E063E070E0CE01019664
:1042C0000E94B0238091E8008E778093E8000F90E1
:1042D0000F900F90DF91CF910895BC0184E00C9472
:1042E0003B21BC0183E00C943B219C0184E0809342
:1042F000E9009FEF8091E800915085FD06C085EDB3
:104300008A95F1F700009111F5CF8091E80085FFC3
:104310000CC050E040E066E070E0C9010E94B023AC
:104320008091E8008E778093E8000895CF93DF9323
:10433000EC0181E08093E9008FEF9091E8008150DB
:1043400095FD06C095ED9A95F1F700008111F5CF26
:104350008091E80085FF14C050E040E068E070E024
:10436000CE010E94B0238091E8008E778093E80010
:1043700088E0FE01AFE4B2E001900D928A95E1F78A
:10438000DF91CF910895CF93FC01603221F58091A8
:104390000803843001F5C091E900CF702091EC0052
:1043A000922F917020FD90E8C92B82E08093E90064
:1043B0008091E80080FF0CC050E040E060E270E0D7
:1043C000CF010E94B0238091E8008E778093E800AF
:1043D000CF70C093E900CF910895809107038111B8
:1043E00009C00E948F250E94EC258091E200846024
:1043F0008093E200089510920703089508950895A8
:104400000C94B61D42E061EC81E00E940B2542E273
:1044100061EC84E00E940B2542E261EC82E00E94A4
:104420000B2542E260EC83E00C940B2580910A039B
:10443000833009F461C030F48130D1F1823009F465
:104440009DC008958A3009F489C08B3009F46FC08B
:10445000893009F050C080910903813209F04BC0C6
:1044600080910D0390910E03009719F0029709F0C7
:1044700042C08091E800877F8093E8008091E80047
:1044800082FF35C09091F3008091F200029729F4E9
:104490008091F1008B7F813021F48091F100809335
:1044A00057028091E8008B778093E8000C943F25B9
:1044B00080910903813AF9F48091E800877F809325
:1044C000E80080910D0390910E03892B61F468E060
:1044D0008FE492E070E00E944E248091E8008B7798
:1044E0008093E800089560E090E080E0F3CF809151
:1044F00008038111C3CF089580910903813AD9F748
:1045000080910D0390910E03892BA9F78091E8000B
:10451000877F8093E8008091E80080FFFCCF809146
:1045200019018093F1008091E8008E77BDCF8091D2
:104530000903813201F780910D0390910E03892BBD
:10454000D1F68091E800877F8093E8000E943F25A4
:1045500080910B03809319010C9439168091090303
:10456000813249F68091E800877F8093E8000E94BD
:104570003F2580910C038093580208958091090390
:10458000813A09F0B8CF8091E800877F8093E800F6
:104590008091E80080FFFCCF80915802C2CFCDB758
:1045A000DEB7A0970FB6F894DEBF0FBECDBF84B7BD
:1045B000877F84BF0FB6F894A895809160008861CA
:1045C00080936000109260000FBE80E890E00FB60C
:1045D000F89480936100909361000FBE0E94E111F6
:1045E0000E948F250E94EC258091E20084608093D8
:1045F000E20078940E9475280E94EB118FE091E010
:104600000E947D1113E080910803853039F10E94EA
:10461000F911809108038430B1F71093E90080917B
:10462000E80082FFF0CF8091E80090E085FF09C0AC
:1046300050E040E060E270E0CE0101960E94FF236E
:1046400091E08091E8008B778093E8009923D9F27C
:1046500060E2CE0101960E94EF0CD5CF0E946E1D44
:1046600080910603882379F20E949F1D882359F2C6
:104670000E949A23C8CF0C943D23292F332723303F
:10468000310521F168F42130310509F449C02230A7
:10469000310509F44AC090E080E030E020E029C014
:1046A0002132310581F122323105A9F763307105DC
:1046B00090F7FB01EE0FFF1FEB55FE4F208131817C
:1046C0006E557E4FFB01808190E013C099278130A9
:1046D000910599F0009741F08230910589F0039798
:1046E000D1F6ECE6F3E002C0E0E9F3E0849190E07B
:1046F0009F01FA01318320830895E4E8F3E0F6CFC7
:10470000E2E7F3E0F3CF6330710528F6660F771F19
:10471000FB01E555FE4F2081318189E090E0E9CF32
:1047200082E190E02FEE33E0E4CF8BE590E024E9E6
:1047300033E0DFCF80E189BD82E189BD09B400FEAD
:10474000FDCF8091D8008F7D8093D8008091E000CC
:1047500082608093E0008091E00081FDFCCF0895AD
:10476000AF92BF92CF92DF92FF920F931F93CF939E
:10477000DF936C01EB018A010E945E25F82E811106
:1047800023C00115110539F0F80180819181C81B02
:10479000D90BC80ED91EB12CA12C2097A9F080915D
:1047A000E80085FD22C08091E8008E778093E800C4
:1047B00001151105A1F0F80180819181A80EB91EA3
:1047C000B182A08285E0F82E8F2DDF91CF911F91CD
:1047D0000F91FF90DF90CF90BF90AF9008950E940F
:1047E0005E258823D1F2F82EEFCFF60181916F017B
:1047F0008093F1002197FFEFAF1ABF0ACECFAF929F
:10480000BF92CF92DF92FF920F931F93CF93DF93CC
:104810006C01EB018A010E945E25F82E811123C0F4
:104820000115110539F0F80180819181C81BD90B60
:10483000C80ED91EB12CA12C2097A9F08091E800B8
:1048400085FD22C08091E8008B778093E8000115F8
:104850001105A1F0F80180819181A80EB91EB182E5
:10486000A08285E0F82E8F2DDF91CF911F910F91BF
:10487000FF90DF90CF90BF90AF9008950E945E258B
:104880008823D1F2F82EEFCF8091F100F6018193C9
:104890006F012197FFEFAF1ABF0ACECFFC018091C5
:1048A0000F039091100386179707A0F0611571050B
:1048B00029F49091E8009E779093E80090E06115CC
:1048C000710551F4911108C08091E80082FF34C055
:1048D00080E00895BC01F2CF809108038823C1F1E4
:1048E0008530C1F18091E80083FD30C08091E800FF
:1048F00082FDEACF8091E80080FFE1CF8091F30054
:104900002091F200382F6115710519F0283031051A
:1049100058F091E02830310509F090E02091E8004E
:104920002E772093E800CBCF81918093F1006150E6
:1049300071092F5F3F4FE7CF80910803882341F033
:10494000853041F08091E80083FFBECF81E008957B
:1049500082E0089583E00895FC0180910F03909117
:10496000100386179707A0F06115710529F480914F
:10497000E8008E778093E80090E06115710551F4AE
:10498000911108C08091E80082FF35C080E0089551
:10499000BC01F2CF809108038823C9F18530C9F1A9
:1049A0008091E80083FD31C08091E80082FDEACF6C
:1049B0008091E80080FFE1CF8091F3002091F20028
:1049C000382F6115710519F02830310558F091E044
:1049D0002830310509F090E08091E8008E778093CF
:1049E000E800CBCF84918093F1003196615071093A
:1049F0002F5F3F4FE6CF80910803882341F0853039
:104A000041F08091E80083FFBDCF81E0089582E00E
:104A1000089583E00895982F973028F08F70809341
:104A2000E90081E008959093E900242F762F50E06B
:104A3000981731F07091EC002091ED005091F0004A
:104A400021FD02C09F5FE8CF3091EB003E7F3093A5
:104A5000EB003091ED003D7F3093ED003091EB00A5
:104A600031603093EB007093EC002093ED00509395
:104A7000F0002091EE0027FDE5CF80E008958091C1
:104A8000090387FF13C08091E80082FF06C0809170
:104A9000E8008B778093E80004C0809108038111BF
:104AA000F2CF0895809108038823D9F38091E8001C
:104AB00080FFF8CF8091E8008E77ECCF2091E40062
:104AC0003091E50095E6A9012091EC00822F8170DC
:104AD00020FF06C08091E80080FF06C080E00895B6
:104AE0002091E80022FD1AC080910803882389F0F4
:104AF000853089F08091EB0085FD0FC02091E400A6
:104B00003091E50042175307F9F29150E1F684E045
:104B1000089582E0089583E0089581E008950E9459
:104B2000FD250E940526E0EEF0E080818160808313
:104B3000E8EDF0E080818F77808319BCA7EDB0E0CD
:104B40008C918E7F8C9380818F7E8083109207035F
:104B500008950F931F93CF93DF930E94FD250E942A
:104B60000526C8EDD0E088818F77888388818068AA
:104B7000888388818F7D888319BC109208031092E6
:104B80000403109206031092050300EE10E0F801F2
:104B900080818B7F808388818160888342E060E0B0
:104BA00080E00E940B25E1EEF0E080818E7F808323
:104BB000E2EEF0E080818160808380818860808384
:104BC000F80180818E7F8083888180618883DF9176
:104BD000CF911F910F910895E8EDF0E080818F7ED5
:104BE0008083E7EDF0E080818160808384E082BF94
:104BF00081E0809307030C94A925E8EDF0E0808123
:104C00008E7F80831092E20008951092DA00109255
:104C1000E10008951F920F920FB60F9211242F9367
:104C20003F934F935F936F937F938F939F93AF9334
:104C3000BF93EF93FF938091E10082FF0BC08091BF
:104C4000E20082FF07C08091E1008B7F8093E1004A
:104C50000E9474288091DA0080FF19C08091D800EA
:104C600080FF15C08091DA008E7F8093DA008091FA
:104C7000D90080FF96C080E189BD82E189BD09B479
:104C800000FEFDCF81E0809308030E94ED2180911A
:104C9000E10080FF19C08091E20080FF15C0809183
:104CA000E2008E7F8093E2008091E2008061809339
:104CB000E2008091D80080628093D80019BC85E022
:104CC000809308030E94FF218091E10084FF2BC0A4
:104CD0008091E20084FF27C080E189BD82E189BD27
:104CE00089B5982F917080FFFBCF8091D8008F7D80
:104CF0008093D8008091E1008F7E8093E1008091C5
:104D0000E2008F7E8093E2008091E20081608093D8
:104D1000E20080910403882309F449C084E0809371
:104D200008030E9400228091E10083FF29C0809146
:104D3000E20083FF25C08091E100877F8093E1003E
:104D400082E080930803109204038091E1008E7F3B
:104D50008093E1008091E2008E7F8093E200809159
:104D6000E20080618093E20042E060E080E00E9427
:104D70000B258091F00088608093F0000E94FE2156
:104D8000FF91EF91BF91AF919F918F917F916F9123
:104D90005F914F913F912F910F900FBE0F901F90F9
:104DA000189519BC109208030E94FB2170CF8091C6
:104DB000E30087FD93E090930803B3CF1F920F9217
:104DC0000FB60F9211242F933F934F935F936F93DE
:104DD0007F938F939F93AF93BF93CF93DF93EF9383
:104DE000FF93D091E900DF708091EC00C82FC17073
:104DF00080FDC0E81092E9008091F000877F8093E9
:104E0000F00078940E9422271092E9008091F0002F
:104E100088608093F000CD2BCF70C093E900FF91A4
:104E2000EF91DF91CF91BF91AF919F918F917F9142
:104E30006F915F914F913F912F910F900FBE0F9007
:104E40001F9018951F93CF93DF93CDB7DEB7AA9726
:104E50000FB6F894DEBF0FBECDBF89E093E020917E
:104E6000F100FC012193CF01F3E081319F07B9F7F5
:104E70000E9416228091E80083FF1EC180910903E1
:104E800090910A039A3008F017C1E92FF0E0EC5A2C
:104E9000F64D0C94B828803899F0823809F00CC18E
:104EA00080910D038F70873008F006C18093E90070
:104EB0008091EB0085FB882780F91092E90006C0FD
:104EC0008091050390910603911182609091E80012
:104ED000977F9093E8008093F1001092F100809109
:104EE000E8008E77E5C0882309F4D3C0823009F04A
:104EF000E3C080910B038111D6C080910D038F70A8
:104F00002FEF280F263008F0D7C08093E9002091BA
:104F1000EB0020FFC8C0933031F48091EB00806239
:104F20008093EB00C0C09091EB0090619093EB00F8
:104F300021E030E001C0220F8A95EAF72093EA00D1
:104F40001092EA008091EB008860EACF8111B4C032
:104F500010910B031F778091E3008078812B809361
:104F6000E3008091E800877F8093E8000E943F255E
:104F70008091E80080FFFCCF8091E30080688093FF
:104F8000E30082E0111183E08093080395C080580C
:104F9000823008F091C080910B0390910C038C3DFE
:104FA00023E09207A1F583E08A838AE289834FB7E1
:104FB000F894DE01139620E03EE051E2E32FF0E0AA
:104FC00050935700E49120FF03C0E295EF703F5FDC
:104FD000EF708E2F90E0EA30C0F0C7968D939D93CE
:104FE0002F5F243159F74FBF8091E800877F80936E
:104FF000E8006AE270E0CE0101960E944E248091A2
:10500000E8008B778093E80057C0C096E7CF6091A7
:105010000D0370910E03AE014F5F5F4F0E943B2363
:10502000BC01892B09F448C09091E800977F9093C8
:10503000E80089819A810E94AC24E1CF8038E1F5B3
:105040008091E800877F8093E8008091040380933B
:10505000F10045CF811130C090910B03923060F583
:105060008091E800877F8093E800909304030E947A
:105070003F2580910403882311F084E005C08091CE
:10508000E30087FDFACF81E0809308030E940222AB
:1050900013C080910B03813079F481E0933009F0E3
:1050A00080E0809306031092E9008091E800877FFA
:1050B0008093E8000E943F258091E80083FF0AC0AA
:1050C0008091E800877F8093E8008091EB00806208
:1050D0008093EB00AA960FB6F894DEBF0FBECDBF4B
:1050E000DF91CF911F9108950895CF938091080388
:1050F0008823A1F0C091E900CF709091EC00892F36
:10510000817090FD80E8C82B1092E9008091E80042
:1051100083FD0E942227CF70C093E900CF910895AC
:10512000AA1BBB1B51E107C0AA1FBB1FA617B707CD
:1051300010F0A61BB70B881F991F5A95A9F78095E9
:105140009095BC01CD01089597FB072E16F40094AD
:1051500007D077FD09D00E94902807FC05D03EF4C7
:10516000909581959F4F0895709561957F4F089513
:10517000EE0FFF1F0590F491E02D09946927962703
:1051800069277827872778270895F999FECF92BD58
:1051900081BDF89A992780B50895A6E1B0E044E072
:1051A00050E00C94FF28A8E1B0E042E050E00C94FD
:1051B000FF28262FF999FECF92BD81BDF89A01975D
:1051C00000B4021639F01FBA20BD0FB6F894FA9A4F
:1051D000F99A0FBE08950396272F0E94DA280E949D
:1051E000D928252F0E94DA28242F0C94DA2801963A
:1051F000272F0E94DA280C94D928DC01CB01FC016E
:10520000F999FECF06C0F2BDE1BDF89A319600B41F
:105210000D9241505040B8F70895F894FFCFA60A78
:10522000AE0AB50ABA0ABF0AC40AC90ACE0AD30A24
:10523000D80ADD0AE20AA80AA80AA80AA80AA80A3F
:10524000A80AA80AA80A030D100D370D430D4E0D2C
:10525000590D5C0D5F0D620DAB0DAE0D650D690D49
:10526000710D7E0D8B0D8E0D910D9E0D021402148D
:105270005A145A14AC14C8142F142F14D3145F15D5
:105280006E156E15CA152F142F14D315481648160F
:1052900051165116531651165116511648164816E6
:1052A00058165116511658164B2773275C2873272A
:0C52B0005C28A627C7275C281E282A2897
:1052BC00003000303035022808641E140A321E38C3
:1052CC00219621752171216D2101E200E900EA008E
:1052DC00B500B600B700CD008301CC008A01920165
:1052EC0094012102230224022502260227022A020B
:1052FC00B300B4006F00700081828367663635346A
:10530C00F737F1F4F592939091000100FF01000141
:10531C000000FFFF0000010001FF00969495959599
:10532C0094E200E900EA00B500B600B700CD0083B6
:10533C0001CC008A0192019401210223022402254E
:10534C0002260227022A02B300B4006F007000810B
:10535C008283402281A40401042304A603BF03DF3B
:02536C0003003C
:00000001FF
