:100000000C94FF020C9446030C9446030C94460394
:100010000C9446030C9446030C9446030C9446033C
:100020000C9446030C9446030C94302B0C94042C33
:100030000C94E4220C9446030C9446030C9446035F
:100040000C9446030C9446030C9446030C9446030C
:100050000C9446030C943B230C9446030C944603E7
:100060000C9446030C9446030C9446030C944603EC
:100070000C9446030C9446030C9446030C944603DC
:100080000C9446030C9446030C9446030C944603CC
:100090000C9446030C9446030C9446030C944603BC
:1000A0000C9446030C9446030C9446032900080064
:1000B000150018000C002A0014001A0017001C007C
:1000C000120013002B00070009000D000E0028008D
:1000D000040016000A000B000F003300E1000600C8
:1000E000190010003600E5001D001B00050011007E
:1000F00037003800E000E4000000000000000000CD
:10010000E2002C42C25C2C41E600E7003500AB0067
:100110000100010052000100AC00AE00010001002E
:100120002F0030000100A8000100500051003400F1
:10013000AA00A900010001004F0001000100010018
:10014000010001002D00010001000100010001007B
:100150002E0038000100005C0000000000000000DC
:100160000100010001000100010001000100200068
:1001700021002400250001001E001F002200230092
:10018000260027000100010001000100010001001C
:100190000100010001000100010001000100010057
:1001A0000100010001000100010001000100010047
:1001B000010031000100010000000000000000000B
:1001C0000100010001000100010001000000000029
:1001D000000000002A2B28000000000000000000A2
:1001E0000000000000000029000000002C1E342048
:1001F000212224342627252E362D3738271E1F206E
:100200002122232425263333362E37381F040506B2
:100210000708090A0B0C0D0E0F10111213141516F6
:100220001718191A1B1C1D2F3130232D35040506F4
:100230000708090A0B0C0D0E0F10111213141516D6
:100240001718191A1B1C1D2F3130354C00000000E7
:10025000000000000000000000000000000000009E
:100260007E0F00D4FFFFFFC70000007832190A009C
:10027000047F3F1F643214643214783C1E1E140A3B
:10028000052223252628292A2C2D2F3032333536D6
:10029000383A3B3D3E4042434547494A4C4E505117
:1002A000535557595A5C5E6062646668696B6D6F3E
:1002B00071737577797B7D7F81838587898A8C8E41
:1002C00090929496989A9C9E9FA1A3A5A7A8AAAC49
:1002D000AEAFB1B3B4B6B8B9BBBCBEBFC1C2C3C583
:1002E000C6C7C9CACBCCCDCED0D1D2D2D3D4D5D625
:1002F000D7D7D8D9D9DADADBDBDBDCDCDCDCDCDD58
:10030000DDDDDDDCDCDCDCDCDBDBDBDADAD9D9D83B
:10031000D7D7D6D5D4D3D2D2D1D0CECDCCCBCAC9D3
:10032000C7C6C5C3C2C1BFBEBCBBB9B8B6B4B3B102
:10033000AFAEACAAA8A7A5A3A19F9E9C9A9896949D
:1003400092908E8C8A89878583817F7D7B79777572
:1003500073716F6D6B6968666462605E5C5A595751
:10036000555351504E4C4A4947454342403E3D3B10
:100370003A3836353332302F2D2C2A29282625239A
:1003800022FFAA7F55400001010101010101010185
:100390000202020202020202020303030303030336
:1003A0000304040404040404050505050506060603
:1003B0000606070707070708080808090909090AC0
:1003C0000A0A0B0B0B0C0C0C0D0D0D0E0E0E0F0F65
:1003D0000F101011111112121313141415151616F3
:1003E0001717181819191A1A1B1B1C1D1D1E1E1F62
:1003F0002020212222232424252626272829292AB1
:100400002B2C2D2D2E2F30313232333435363738D8
:10041000393A3B3C3D3E3F404142434445464748D4
:10042000494A4C4D4E4F50515354555658595A5BAA
:100430005D5E5F616264656668696B6C6D6F70724A
:10044000737577787A7B7D7E8082838587888A8CB6
:100450008E8F91939596989A9C9EA0A2A3A5A7A9EA
:10046000ABADAFB1B3B5B7BABCBEC0C2C4C6C9CBE1
:10047000CDCFD1D4D6D8DBDDDFE2E4E7E9EBEEF097
:10048000F3F5F8FAFDFF0403300000001003430009
:10049000520033005700560041004E0000000A038E
:1004A0004E0061007300700000000403090409029B
:1004B0005B00030100A0FA09040000010301010030
:1004C0000921110100012240000705810308000AEB
:1004D00009040100020300000009211101000122AA
:1004E0002200070582032000010705030320000105
:1004F000090402000103000000092111010001228A
:1005000081000705840320000A1201100100000089
:1005100008707036450100010203010660FF0961A1
:10052000A1010962150026FF0095207508810209C6
:1005300063150026FF00952075089102C00501098A
:1005400002A10185020901A100050919012905156A
:10055000002501950575018102950175038101054D
:1005600001093009311581257F9502750881060939
:10057000381581257F950175088106050C0A38021A
:100580001581257F950175088106C0C00501098088
:10059000A101850319012AB700150126B7009501AD
:1005A00075108100C0050C0901A101850419012AFB
:1005B000A002150126A002950175108100C0050159
:1005C0000906A101050719E029E71500250195088D
:1005D000750181029501750881010507190029FF40
:1005E000150026FF009506750881000508190129E8
:1005F00005950575019102950175039101C01124BE
:100600001FBECFEFDAE0DEBFCDBF04B603FE27C0CA
:100610008091440490914504A0914604B091470410
:100620008730904BA740B04BD1F410924404109205
:100630004504109246041092470414BE84B7877F85
:1006400084BF0FB6F894A89580916000886180936C
:100650006000109260000FBEE0E0F8E3099511E041
:10066000A0E0B1E0E2EFFEE502C005900D92AC3EE5
:10067000B107D9F724E0ACEEB1E001C01D92A4347B
:10068000B207E1F70E94F5270C94282F0C94000084
:100690001F93CF93DF93182FC62F0E944803D82FA4
:1006A000882389F0113039F489EFC11109C08AEF2C
:1006B0000E94D01808C0111106C0CC2349F089EA65
:1006C0000E94D018DC2F8D2FDF91CF911F910895BC
:1006D0008AEAEECF81E0089581E008950C946C03DE
:1006E00008950C9470031F93CF93DF9300D000D034
:1006F0000F92CDB7DEB749835A836B8330910703DE
:1007000089819A8131111DC06623B9F02223A9F095
:100710000E944F20182F682F89819A810E94F81F0C
:1007200069817A81812F0F900F900F900F900F9019
:10073000DF91CF911F910C94AC130E942620182FAB
:10074000EFCF0E944F2069817A81EDCFFC01262FE7
:10075000408151816281738184810C947303CF93B2
:10076000DF93EC0160E00E94A603BE01DF91CF9110
:100770000C947103FF920F931F93CF93DF93E82F95
:10078000F0E0E453FE4FF490C82FC695C695C69589
:10079000D0E0FE01E45AFD4F0491877010E0082E6E
:1007A00002C0159507950A94E2F701701127C45B02
:1007B000DD4FFE01C491D0E002C0D595C7958A9562
:1007C000E2F7C170DD270115110519F081EE0E94D5
:1007D000E817209719F086EE0E94E8178F2D0E94E7
:1007E000D018CD2B19F086EE0E947A18012B41F01B
:1007F00081EEDF91CF911F910F91FF900C947A18A9
:10080000DF91CF911F910F91FF900895EF92FF928A
:100810000F931F93CF93DF93EC01162F0AE088818B
:10082000882309F454C0813009F04EC08981813099
:1008300099F47E0122E0E20EF11C8A810E94D01818
:10084000E7012196812F815050F3EFE9FFE03197C6
:10085000F1F700C00000F7CF823041F47E0182E062
:10086000E80EF11C8A810E94E817EACF833041F438
:100870007E01E2E0EE0EF11C8A810E947A18E0CF40
:10088000843011F02196DDCF2A81229690E080E01D
:10089000AE014F5F5F4F2053330B2A30310548F0D4
:1008A000019778F2EFE9FFE03197F1F700C000001F
:1008B000F7CF089FB001099F700D1124C901860F61
:1008C000971F2981EA01E4CF0E94BA03BACFDF91D2
:1008D000CF911F910F91FF90EF90089560E00C94DD
:1008E00006048F929F92AF92BF92CF92DF92EF92C7
:1008F000FF920F931F936B017C0181E090E0A0E0D9
:10090000B0E04C015D0104C0880C991CAA1CBB1C02
:100910004A95D2F7B501A4014C015D0104C0880CD1
:10092000991CAA1CBB1C2A95D2F7482959296A2967
:100930007B2904C0880F991FAA1FBB1F0A95D2F7F5
:100940008A019B010C211D212E213F21041715072F
:100950002607370789F48C299D29AE29BF29BC01B8
:10096000CD011F910F91FF90EF90DF90CF90BF903E
:10097000AF909F908F90089580959095A095B09599
:100980008C219D21AE21BF21EACF0F93382F262F36
:1009900060915E0370915F038091600390916103A9
:1009A000042F432F0E9471040F910C94361F0E9454
:1009B00085230E949921811102C00E9436220C9445
:1009C00046070C94490708950E945F1B0E94E304A8
:1009D0002FEF84E39CE0215080409040E1F700C07D
:1009E00000000C945F230F931F93CF93DF93EC01D0
:1009F00061E00E94A6038C01BE010E948111882340
:100A000089F1BE01C8010E946E03882359F1BE011D
:100A1000C8010E940215882329F1BE01C8010E9465
:100A200054158823F9F0BE01C8010E947716882367
:100A3000C9F0BE01C8010E949D0F882399F08A81E8
:100A4000882339F001158CE5180751F00E3D1C453F
:100A500079F0CE01DF91CF911F910F910C946A0331
:100A60000E94E40480E0DF91CF911F910F910895DF
:100A70000E943622F7CF08950C943B0581E008953B
:100A80000C943E05CF93C82F0E943C058C2FCF912C
:100A90000C94400590E080E008950895FC01EE0F6D
:100AA000FF1FE459FD4F859194910895CF93DF93F3
:100AB0000E94AC130E946B06EC01811520E59207A1
:100AC00008F042C0811530E4930708F0BDC0883EAD
:100AD000910528F5803E910508F09DC0883A910562
:100AE00088F4853A910508F08FC08130910509F4AA
:100AF00092C0009709F48FC0049708F08CC0D0E032
:100B0000C0E089C08F3B910508F489C0805C9109E1
:100B1000C03CD105A0F30E944E05EC017CC08115BC
:100B2000904250F4C11581E0D80708F074C0C03F6E
:100B3000D10528F3D0656FC0C11590E3D90708F03F
:100B400079C0CE019F70E7CF811525E5920758F552
:100B5000811534E5930708F0A6C0811542E5940796
:100B600050F4C11581E5D80708F471C0DC2FCC27FB
:100B7000C16FD06A50C0982F969596959E012370AC
:100B80003327C115D34508F07FC0C1E0D0E002C0D3
:100B9000CC0FDD1F2A95E2F720E2929FC0011124BD
:100BA000C82BD92B6FC0C11589E5D807A8F4C1158A
:100BB00098E5D90708F07CC0C11526E5D20708F0F2
:100BC0009ECF8C2F0E940207C82FD0E0DC2FCC27AD
:100BD000CC27DF71D0621FC0C1153AE5D30708F4F6
:100BE0006CC0CE0190568115904208F088CF8D2FB1
:100BF0008F710E94020790E0982F882788279F71A5
:100C00009C012C2BE901E6CFC55AD0E0C65ADE4F35
:100C1000C881D0E0D064CE01DF91CF910895C85A49
:100C2000D0E0CC0FDD1FC45DDE4F0990D881C02D10
:100C3000D464F1CFCE019927D3FF03C0EC01D86C67
:100C4000EACFEC01D06CE7CFDF70D06AE4CFCE0101
:100C5000E4E096958795EA95E1F783702C2F269529
:100C60002695237090E2299F90011124382B8C2F18
:100C70008370C1E0D0E002C0CC0FDD1F8A95E2F79F
:100C8000C22BD32BDC68C7CFC1E0D0E002C0CC0FB1
:100C9000DD1F2A95E2F730E2939FC0011124C82B93
:100CA000D92BDA68B8CFD82FCC27C46FD06AB3CF8E
:100CB000DC2FCC27C06FD06AAECF8C2F8F700E94F4
:100CC000020734E0D695C7953A95E1F7CF709C2F8F
:100CD000EC01D069A0CF82389105B1F1B0F4813335
:100CE000910509F475C048F48932910509F469C089
:100CF0008A32910509F473C008958533910509F48A
:100D000059C08933910501F10895833E9105A9F1F8
:100D100038F4803E9105F9F0823E910549F108953D
:100D2000863E9105A9F1873E9105C9F1843E910562
:100D300019F52091360421FF1FC08091350484FDF0
:100D400014C087EE90E00895209135042370A1F03F
:100D500080EE90E008952091350420FD47C0309149
:100D6000360430FF09C024FF44C090E080E004C096
:100D70002091350422FDF7CF08952091350422FDFE
:100D80003BC03091360430FDE3CF24FFF5CFEDCFEB
:100D90002091350423FFF0CF24FDE7CFD2CF20915F
:100DA000350423FD2CC03091360431FFEECF84EEA4
:100DB00090E008952091350425FFDECF89E290E090
:100DC00008952091350425FFD7CF85E390E008955D
:100DD0002091350426FFD0CF8AE290E0089520913B
:100DE000350426FFC9CF81E390E0089589E390E0C0
:100DF000089583EE90E0089582EE90E0089586EEE7
:100E000090E008959091350492FF06C0282F287134
:100E10002830F9F4877F846093FF06C0282F28715B
:100E20002831F1F4877E84612091360420FF06C0CA
:100E3000382F38713830D9F4877F816021FF06C0A0
:100E4000282F28712831D1F4877E816194FD877E17
:100E50000895282F24712430F9F68B7F8860DCCF29
:100E6000282F2471243101F78B7E8861DDCF382F44
:100E70003171313019F78E7F8860E0CF282F2171D2
:100E8000213121F78E7E8861E1CF08950C944507CA
:100E900008950C944807E82FF0E0EC56FC4F808151
:100EA0000895089580EA8A95F1F70895A3E6B1E0E0
:100EB00061E070E08D91E82FE295EF70F0E041A1E4
:100EC0008F709B0101C0220F8A95EAF7922F9095AF
:100ED000942391A382A1822B82A381E0AB36B80731
:100EE00049F7ADE5B1E061E070E08D91E82FE29562
:100EF000EF70F0E041A18F709B0101C0220F8A9535
:100F0000EAF7922F9095942391A382A1822B82A33A
:100F100081E0A336B80749F7ECE8F3E0A4E9B3E0D1
:100F200084E993E011921D928E179F07D9F788E00C
:100F30000E941C080C94D7048F929F92AF92BF928C
:100F4000CF92DF92EF92FF920F931F93CF93DF9395
:100F500083E6A82E81E0B82E0CE813E0912CCC2477
:100F6000C394D12CF50181915F01C82FC295CF7038
:100F7000D0E099A18F70760101C0EE0C8A95EAF756
:100F8000892F8E2989A38AA18E2C809488218AA3F7
:100F90000E945207EDE5F1E050E040E020E03191A1
:100FA000A32FA295AF70B0E090968C9190E03F7027
:100FB00002C0959587953A95E2F780FD39C08C2D52
:100FC000042E01C0880F0A94EAF7282B4F5F5F4F69
:100FD0004630510521F789A1882289A28AA1E82AF1
:100FE000EAA2F8018081281729F1208381E0982A5C
:100FF0000F5F1F4FFBE6AF16F1E0BF0609F0B2CF5F
:10100000292D48E064E973E08CE893E00E941D0814
:101010000E94E104892DDF91CF911F910F91FF90E4
:10102000EF90DF90CF90BF90AF909F908F900895FA
:1010300080E0CBCF80E0DBCF0895FF920F931F932A
:10104000CF93DF93F82E092F162FD72FC42F2223EB
:1010500049F081E08093EE010E9414239093ED010A
:101060008093EC018091EE018823A1F08091EC0146
:101070009091ED010E942C23069760F0EF2DF02F48
:10108000A12FBD2FCE0FDF2FD11DEC17FD0741F48F
:101090001092EE01DF91CF911F910F91FF90089573
:1010A00081918D93F2CFEF92FF920F931F93CF9385
:1010B000DF93EB01E82FD11110C0442321F0F0E0C1
:1010C000EA57FC4FE4916E2F7E2F8E2FDF91CF9148
:1010D0001F910F91FF90EF9008950D2F10E0282F92
:1010E00030E0442329F02A573C4FF901249130E0A5
:1010F000F6E0CF9FC0011124EFEFF0E0BF010E94A6
:10110000D02DAB018C2F90E0880F991FA5E5A49FEF
:10111000B001A59F700D1124861B970B982F990F76
:10112000980FBF01601B710B629FD001639FB00DD0
:10113000729FB00D11248B2F9D9FB0011124672F3A
:101140007727EF01C61BD70BBE01629FE001639FAB
:10115000D00D729FD00D11247F01E91AF108E09E95
:10116000B001E19E700DF09E700D1124672F77275E
:10117000E61BF70BE29F8001E39F100DF29F100D1D
:101180001124E12F722F4230510599F048F4411596
:10119000510569F04130510581F0EB2F8D2F07C0CB
:1011A0004430510569F080F046305105B1F76E2F9B
:1011B0008DCFE22F7B2F812FFACFE22F7D2FF7CF1C
:1011C000EB2F822F712FF3CF7B2F822FED2FEFCFBD
:1011D00041E00C9453080895CF93DF93762FE901F3
:1011E000682F842F0E94E808798368838A83DF91BF
:1011F000CF910895463A08F045EA0C94EC088091A6
:101200009C03982F9E7F61F48170826080939C0381
:1012100080919F03863A18F085EA80939F03089592
:101220008635B0F381708465F1CF88E090E00C944E
:10123000C92ECF92DF92EF92FF926B017C010E9448
:10124000FF08B701A60188E090E0FF90EF90DF90E3
:10125000CF900C94E72E60919C0370919D03809138
:101260009E0390919F030C941909ECE9F3E083E04D
:10127000808311828FEF828385EA83831482608169
:101280007181828193810C94190980919C0380FF64
:1012900002C08695089580E008959091A003933050
:1012A00018F49F5F9093A003882351F060919C03F2
:1012B00070919D0380919E0390919F030C94190956
:1012C000089581E00C944D099091A003992319F0A1
:1012D00091509093A003882351F060919C037091EA
:1012E0009D0380919E0390919F030C94190908958A
:1012F00081E00C9464098091A00308958093A00379
:10130000662351F060919C0370919D0380919E0330
:1013100090919F030C941909089560E00C947E0944
:1013200080919D03089580919E03089580919F036D
:10133000089570E00C940D106091080180919C0359
:1013400080FF0AC08091070123E0829FC001112421
:101350008F559C4F0C9499098091090190910A0135
:1013600023E0829FF0011124EF55FC4F891750F7BD
:101370001182108212828F5F3396F8CF90919C0376
:1013800090FF14C09091090120910A0133E0939FCE
:10139000F0011124EF55FC4F921710F00C949C09AA
:1013A0008183608342839F5F3396F6CF0895CF9306
:1013B000DF9300D00F92CDB7DEB790919C0390FFE2
:1013C0000AC09E012F5F3F4F0E94FA084B8169813E
:1013D0008A810E94BE090F900F900F90DF91CF91EC
:1013E0000895CF93DF93EC01EC81F0E0EF57FD4FD0
:1013F0004491ECE9F3E0628181810E94D7098C81FC
:101400008F5F8C83DF91CF910895CF93DF93EC01B1
:10141000ECE9F3E0438162818C810E94D7098C81E1
:101420008F5F8C83DF91CF9108950F931F93CF939C
:10143000DF9300D00F92CDB7DEB78C018091EF0122
:1014400081110AC09E012F5F3F4F45EA6FEF0E9456
:10145000FA088A818093EF01F8016481613069F0B4
:101460008091EF0140E0662361F040E0623011F4CA
:101470004091EF0180E060E004C06091EF0140E046
:1014800080E00E94BE09F801848190E0019663E04B
:1014900070E00E94E42D84830F900F900F90DF91F5
:1014A000CF911F910F910895AF92BF92CF92DF928B
:1014B000EF92FF920F931F93CF93DF9300D00F9281
:1014C000CDB7DEB7182FF62E042FE22E90919C0395
:1014D00090FF29C0E92FE695AE2FB0E0A559BE4F89
:1014E0008C918093E9029E7F923059F59E012F5F87
:1014F0003F4F812F0E94FA084B8169818A810E94A7
:10150000BE0910939D03F0929E0300939F03EE206B
:1015100051F060919C0370919D0380919E03909186
:101520009F030E9419090F900F900F90DF91CF91A8
:101530001F910F91FF90EF90DF90CF90BF90AF90F1
:101540000895823019F400919F03DBCF863019F49F
:1015500010919D03D6CF8930D9F3893191F6E951A5
:101560008E2F8170D82EE695F0E0EF57FC4FA590B6
:10157000B490C12CBB2460910B01C61618F00E94D8
:101580009C09BFCF2C2D30E0A29EC001A39E900DE0
:10159000B29E900D112470E00E94D02D812FD110A9
:1015A00013C0860F40910901420F532F511D9A011C
:1015B000220F331F240F351F2F553C4F402F6F2D07
:1015C0000E94FA08C394D7CF861BECCFECE9F3E076
:1015D0009181282F438162818CE0890F0C94540AF9
:1015E00081E00C94E60AECE9F3E09181282F438135
:1015F000628184EF890F0C94540A81E00C94F30A01
:10160000ECE9F3E062812CE0620F08F46FEF282F21
:10161000438181810C94540A81E00C94000BECE925
:10162000F3E062812CE0621B08F460E0282F438124
:1016300081810C94540A81E00C940F0BECE9F3E0E7
:1016400043812CE0420F08F44FEF282F6281818103
:101650000C94540A81E00C941E0BECE9F3E04381F6
:101660002CE0421B08F440E0282F628181810C9419
:10167000540A81E00C942D0B20E00C94540AEF9254
:10168000FF921F93CF93DF93EC0110E0EE24EA94D6
:10169000F12C60910B01161770F00E949C099A8141
:1016A0008C8190FF27C08F5F8C83DF91CF911F913A
:1016B000FF90EF90089520910901422F410F552787
:1016C000551FCA019A01220F331F280F391F2F55AA
:1016D0003C4F70E0C7010E94E42D962F8C81409111
:1016E0009F0360919E03199F800D11240E94FA08A8
:1016F0001F5FCFCF8150D8CFAF92BF92CF92DF92F2
:10170000EF92FF920F931F93CF93DF93FC0182819F
:101710000FEF80FF01E010E040E3A42E80910B0169
:101720001817C8F00E949C098091F101013009F05E
:1017300055C0811102C080910B0181508093F1014D
:10174000DF91CF911F910F91FF90EF90DF90CF909D
:10175000BF90AF900895C0910901C12ED12CCC0D3E
:10176000DD2DD11DCE01880F991FC80FD91FCF5570
:10177000DC4F198218821A8234E0E32EF12CB12C4E
:101780008091F1018B0D81331CF16A2D0E94C22DD5
:10179000892F082E000C990BC816D90691F4809158
:1017A0009F038E9DA0018F9D500D11245595479547
:1017B000559547959E0160919E0380919D030E94DF
:1017C000FA08B00EF1E0EF1AF108D1F61F5FA6CFCC
:1017D00087FFDFCF90910B01890FDBCF90E001965F
:1017E00060910B0170E00E94E42DA8CF0F931F932E
:1017F000CF93DF938091090190910A0123E0829FAA
:10180000F0011124EF55FC4F891740F1C0E0D3E0FF
:1018100060910B01C61740F10E949C0920910501BF
:101820008091F001820F8093F00190910601920F58
:1018300090930601191654F4082E000C990B409150
:101840000B014150550B841795071CF021952093EF
:101850000501DF91CF911F910F91089511821082A0
:1018600012828F5F3396D0CF0C2F10E070E0C8014A
:101870000E94E42D20910901820F482F50E0209111
:10188000F001022E000C330B02171307BCF020915D
:101890000601022E000C330B201731077CF08D9FC0
:1018A000900111242F553C4F40919F0360919E035E
:1018B00080919D030E94FA08CF5FAACFFA01EE0F34
:1018C000FF1FE40FF51FEF55FC4F118210821282AB
:1018D000F3CF8F929F92AF92BF92CF92DF92EF920F
:1018E000FF920F931F93CF93DF93EC014C81042F52
:1018F00010E09801D8010E942F2E9B01AC010E949C
:10190000452E4B015C01E0E2F0E0E01BF10BA5E5A8
:10191000B0E0AC019B010E94452E6B017C019F0150
:10192000DF010E94272E9B01AC010E94502E9B01DB
:10193000AC01280D391D4A1D5B1DC701B6010E946F
:10194000F82DF22E822F90E039E23F1560F143E04E
:10195000249F9001112435952795122F109500E0B2
:1019600085E5E82EEF1880910B01081758F10E94C9
:101970009C099C8181E0992319F0903219F48FEF32
:101980008093040180910401890F8C83DF91CF91B2
:101990001F910F91FF90EF90DF90CF90BF90AF908D
:1019A0009F908F90089525E530E0B901681B790B71
:1019B0009B01220F331F260F371F37FFCCCF2F5F1E
:1019C0003F4FC9CF8E2D01FD8F2D20910901622F30
:1019D000600F7727771F9B01220F331F260F371FBA
:1019E0002F553C4F412F60919E030E94FA080F5FD4
:1019F000BACF0F931F93CF93DF93EC0110E000E079
:101A000090910B019017110609F06CF40E949C094B
:101A10008C8190E00196817099278C83DF91CF9122
:101A20001F910F91089520910901A801420F511DA6
:101A30009A01220F331F240F351F2F553C4F4C8125
:101A400060919E0380919D0396959017110651F029
:101A50004CF0442349F040919F030E94FA080F5F25
:101A60001F4FCECF4423B9F340E0F7CF8F929F9220
:101A7000AF92BF92CF92DF92EF92FF920F931F939C
:101A8000CF93DF93FC01B280948081E0848300E0F7
:101A900015E05BE4A52E88248394EE24EA94F12CCF
:101AA0007BE4C72ED12C80910B01081770F0DF91D9
:101AB000CF911F910F91FF90EF90DF90CF90BF904B
:101AC000AF909F908F900C949C09C02FD0E01C9FEA
:101AD000F0011D9FF00D1124EE50FE4F91101CC01F
:101AE0001382128220910901CE01820F911D9C0167
:101AF000220F331F280F391F2F553C4F1C9FF00119
:101B00001D9FF00D1124EE50FE4F428161818081B6
:101B10000E94FA080F5FC7CF2381222379F1215059
:101B2000238334818A2D821B311101C0822F1C9F97
:101B3000F0011D9FF00D1124EE50FE4F90919F0378
:101B4000899FC0011124B6010E94D02D628321110A
:101B500004C0332311F01482A38222E02B1510F26B
:101B60001C9FF0011D9FF00D1124EE50FE4F80913F
:101B70009D03808380919E038183B4CF0E94A42E15
:101B8000823091400CF0AECF82E08B1530F50E9490
:101B9000A42EB7010E94E42D1C9FF0011D9FF00DA3
:101BA0001124EE50FE4F808322E02B15C8F40E94D2
:101BB000A42E20919E032695622F70E00E94E42DB2
:101BC000280F1C9FF0011D9FF00D1124EE50FE4FB9
:101BD00021831282A382848285CF80919D03DCCFF2
:101BE00020919E03EECFECE9F3E080818E7F80832D
:101BF00060817181828193810E9419091092EA02A9
:101C00002FEF80E792E0215080409040E1F700C044
:101C100000000C949C09ECE9F3E080818E7F8083C6
:101C20001092EA022FEF80E792E02150804090402E
:101C3000E1F700C000000C949C0960919C0366953C
:101C400070E04BE050E08CE091E00E94B42E892BD4
:101C500019F481E08093EA020E9414239093E30236
:101C60008093E202089590919C0390FF35C091709B
:101C7000811128C0926090939C03662351F060917B
:101C80009C0370919D0380919E0390919F030E94FD
:101C9000190960919C03669570E04BE050E08CE080
:101CA00091E00E94B42E892BA1F01092EA0281E00B
:101CB0008093E50240919F0360919E0380919D0374
:101CC0000C943C0B8B3210F09465D5CF880F982B79
:101CD000D2CF0E941D0EEBCF0895682F90919C03E8
:101CE000969581E0890F8B3208F081E00C94330ED9
:101CF00081E00C946D0E682F90919C0396958FEF68
:101D0000890F09F48AE20C94330E81E00C947B0E67
:101D100061E00C94330EECE9F3E080818160808314
:101D200086950C94880E80919C0380FD0C94F30D95
:101D30000C948B0E60E00C94330E8091E8028111BC
:101D40002EC00E949921811104C00E9436220E9457
:101D500035090E94150960939C0370939D0380933D
:101D60009E0390939F036E7F61F40E9435090E9449
:101D7000150960939C0370939D0380939E03909339
:101D80009F030E94FF081092EA0280919C0380FF4B
:101D900003C086950E949A0E81E08093E802089520
:101DA000ECE9F3E080818160808386950C949A0E43
:101DB0000F931F93CF93DF938091EA02882309F456
:101DC0009DC08091E902E0919C03E695E81BE093B9
:101DD000E4028230C9F5F0E0E358FD4FE491CE2FE4
:101DE000D0E001EF19E08091E502882389F010929C
:101DF000E5020E9414239E0120953095820F931FC7
:101E00009093E3028093E2021092E7021092E602BE
:101E10008091E2029091E3020E942C238C179D078F
:101E200008F46CC0E091E202F091E302CE0FDF1FF4
:101E3000D093E302C093E20282EE92E0F801DF91D8
:101E4000CF911F910F910994863049F4F0E0E65844
:101E5000FD4FE491CE2FD0E005E01AE0C4CF8930E9
:101E600051F4E695F0E0E958FD4FE491CE2FD0E033
:101E70000FE31BE0B8CF8F3051F4E695F0E0EC585B
:101E8000FD4FE491CE2FD0E00CE71BE0ACCF8531C5
:101E900049F4F0E0EF58FD4FE491CE2FD0E006EF8B
:101EA0001BE0A1CFC8E2D0E009E61CE0883109F4CC
:101EB0009ACF833239F4EFE6F2E0C591D49105E18F
:101EC0001AE091CFC4EFD1E009EF1CE0843209F4AD
:101ED0008ACFC0EDD7E00BEE18E0853209F083CF52
:101EE0008E2F63E00E94B62DE92FF0E0E459FD4FFC
:101EF000E491CE2FD0E006E31DE075CFDF91CF91C6
:101F00001F910F910895FA01811101C0FB010994FD
:101F1000CF93DF93C82FD62F0E9445098C1740F02E
:101F20000E9445098D1720F4DF91CF910C94780E13
:101F30008C2FDF91CF910C94880E0F931F93CF932A
:101F40008C01FB01C281CC2309F465C00E94E4200E
:101F50008272F801E25CFC45E431F10538F4E65D9B
:101F6000F04D0C941A2E0E94930EC0E08C2FCF914E
:101F70001F910F91089545E85EE068E77EE00E94BA
:101F8000830FF3CF48E75EE065E87EE0F8CF4DEFE2
:101F90005AE060EF7AE0F3CF40EF5AE06DEF7AE07D
:101FA000EECF4BE15BE06CE07BE0E9CF4CE05BE047
:101FB0006BE17BE0E4CF49E35BE06AE27BE0DFCF0B
:101FC0004AE25BE069E37BE0DACF48E759E061E6AB
:101FD00079E0D5CF41E659E068E779E0D0CF81E0FC
:101FE0000E94880EC2CF65E082E00E94880FBDCFBC
:101FF00068E086E0FACF6EE089E0F7CF64E18FE039
:10200000F4CF67E185E1F1CF88E1EACF62E289E1CF
:10201000ECCF83E2E5CFC1E0A9CF6E9A4EB14F7B02
:102020005EB15064EFB7F8949B01220F331F260F67
:10203000371F280F391F2817390741F4EFBF8FE5E5
:1020400094E00197F1F700C000000895DC016D9164
:10205000CD0178E05EB9000000C067FF4EB9660FA1
:10206000000000C000C000C04EB900C07A9591F7D2
:10207000E2CFAF92BF92CF92DF92EF92FF920F9397
:102080001F93CF93DF93A9EAB1E026EA31E081EF15
:10209000A82E82E0B82E6CEA71E041E050E00D918C
:1020A000802F82958F7090E0FC01C1A10F707A01A2
:1020B000002E01C0EE0C0A94EAF7FE2DF095CF2316
:1020C000FC01C1A3C2A1CE29C2A3E90119919E01BD
:1020D000E12FE295EF70F0E0F1A01F706A01012E90
:1020E00001C0CC0C0A94EAF7EC2CE094EF20E1A2BA
:1020F000F2A0FC28F2A2EC0188A190E002C0959524
:1021000087950A95E2F78170E0A1F0E002C0F595AD
:10211000E7951A95E2F790E0E0FD92E0892BF50152
:1021200081935F016A177B0709F0B9CFDF91CF91E7
:102130001F910F91FF90EF90DF90CF90BF90AF90E5
:1021400008959F92AF92BF92CF92DF92EF92FF924B
:102150000F931F93CF93DF9301EF12E089EAC82E0C
:1021600081E0D82E96EAE92E91E0F92E2EEEA22EED
:1021700022E0B22ECBEED2E0912CD801EC91EE0F02
:10218000EE0FED938D01D6012D916D01A22FA29539
:10219000AF70B0E090968C9190E02F7002C0959552
:1021A00087952A95E2F781709927D7014D917D0196
:1021B000A42FA295AF70B0E090962C9130E04F70B4
:1021C00002C0359527954A95E2F7A9014170552738
:1021D00020FF02C042E050E0842BE82BD801119789
:1021E000EC93EF70F0E0EA56FE4F8081F5019081AC
:1021F000890F808384303CF088818F5F888360E022
:10220000892D0E944803D5018C918D3F3CF4888133
:102210008150888361E0892D0E944803F501808107
:10222000837887FF03C081508C6F8F5FD5018D93BA
:102230005D0193942196B3E09B129FCFDF91CF91E4
:102240001F910F91FF90EF90DF90CF90BF90AF90D4
:102250009F90089582E290E00E94C12E823289F41C
:1022600083E290E00E94C12E833059F484E290E032
:102270000E94C12E91E0843109F090E0892F817095
:10228000089580E0FCCFCF93C82F6FEF811162E2F9
:1022900082E290E00E94D52E6FEFC11163E083E2ED
:1022A00090E00E94D52E6FEFC11164E184E290E0CE
:1022B000CF910C94D52E80E00E9443110C94932171
:1022C000089585E290E00E94C12E682F70E090E0B2
:1022D00080E0089585E290E00C94D52E0E94601174
:1022E0000E942A1181110CC060E070E0CB010E94B5
:1022F0006A110E9424130E94101481E00C9443116F
:102300000895CF93FB01C281CC2309F19C01225196
:102310003F452031310520F582510E942014C0E054
:102320008C2FCF91089581E00E945C1F43E062E012
:1023300081E00E94C504F3CF81E00E947D1F43E04D
:1023400062E081E00E94C504EBCF82E0F6CF8031ED
:10235000FFE59F0789F381319F45B9F3C1E0E0CFE5
:102360008031EFE59E07F9F281319F45C9F682E0A1
:10237000DBCF2FEFFC0120830895CF93DF93EC0197
:1023800088818138A9F028F4803871F0DF91CF91ED
:102390000895823881F08338C9F70E9490098983B3
:1023A0000E9493098A83F2CF0E9496098983EECF17
:1023B0000E944509FBCF0E947B09F8CFCF93DF93A2
:1023C000EC0188818138E1F028F4803869F0DF91F0
:1023D000CF910895823811F18338C9F70E94960988
:1023E000482F6A81898108C0D9810E949309C82F2A
:1023F0000E9490094D2F6C2FDF91CF910C943C0BD4
:1024000089810E949A0E8981811104C0DF91CF9148
:102410000C940B0EDF91CF910C94D00E8981DF913B
:10242000CF910C948D09EF92FF920F931F93CF934E
:10243000DF93EC01062FDC01ED91CD01E150E3319A
:1024400008F0BFC0F0E0E25CF04D0C941A2E198247
:1024500089E08A83602FCE01DF91CF911F910F9188
:10246000FF90EF900C94E9268981823069F08330E7
:1024700071F08130D9F40E9420230E94202E6A83BB
:102480007B838C839D83E6CF0E946111F6CF7E0112
:10249000B2E0EB0EF11C10E0812F0E944B07F70118
:1024A00081937F011F5F1830B9F7D4CF602FCE0121
:1024B0000E94B911CFCF89818230C1F76A817B81B7
:1024C0008C819D810E94202E0E946A11C3CF4B8176
:1024D0006A8189810E94F6129827892798279D830F
:1024E0008C83B8CF2C813D813227232732274B8123
:1024F0006A8189810E940F13ADCF0E942413AACF55
:102500000E94DE11A7CF0E94BD11A4CF0E942B090B
:10251000A1CF0E94B91389839DCF0E94BB13982736
:10252000892798279A83898395CF6B8170E0898169
:102530009A81AE014C5F5F4F9827892798270E94A8
:10254000BE1388CF6B8170E089819A81AE014C5FA8
:102550005F4F9827892798270E94E5137BCF0E9419
:10256000101478CF0E94E412D6CF6B8170E089817D
:102570009A81AE014C5F5F4F9827892798270E9468
:102580005C1368CF6B8170E089819A81AE014C5FEA
:102590005F4F9827892798270E9482135BCF0E945C
:1025A0005B1158CFCE010E94E926FFEF21EE84E0B7
:1025B000F15020408040E1F700C000000E945F23FE
:1025C00049CF8FEF888346CF84E0089550E0440FD1
:1025D000551F9CE0699F400D511D112490E6899F75
:1025E000400D511D1124CA01869608950F931F9323
:1025F000CF93DF930E94E6128C010E94C12EC82F58
:10260000D0E0DC2FCC27C80101960E94C12E9E018C
:10261000282BC901DF91CF911F910F9108950F933E
:102620001F93CF93DF93122F032F0E94E612EC012A
:10263000602F0E94D52E612FCE010196DF91CF91A0
:102640001F910F910C94D52EAF92BF92CF92DF9233
:10265000EF92FF921F93CF93DF938CEAC82E80E016
:10266000D82ED0E07601C0E014C0F5012591349158
:10267000412F6C2F8D2F0E940F1382E0A80EB11CEA
:102680001F5F163091F78CE0E80EF11CCF5FC83069
:1026900019F0570110E0E9CFDF5F80E6C80ED11CCA
:1026A000D43001F7DF91CF911F91FF90EF90DF9031
:1026B000CF90BF90AF900895EF92FF920F931F932A
:1026C000CF93DF93EC018A017C01E60EF71ECE0169
:1026D0008696CE15DF0539F4DF91CF911F910F91CA
:1026E000FF90EF900895C03821E0D20740F40E9497
:1026F000C12EF80180830F5F1F4F2196E8CFF801AC
:102700001082F9CFCF92DF92EF92FF920F931F9337
:10271000CF93DF937C016A018C01060F171FEC0138
:10272000CE018696C017D10749F4DF91CF911F9152
:102730000F91FF90EF90DF90CF900895C03821E087
:10274000D20740F4FE01EE19FF09EC0DFD1D60817A
:102750000E94D52E2196E4CF462F843038F478306D
:1027600028F4663018F4672F0C94F61290E080E09D
:10277000089580E108958AE592E00895EF92FF922E
:102780000F931F93CF93DF93EC018A017C01E60E38
:10279000F71ECE018A559E4FCE15DF0539F4DF9125
:1027A000CF911F910F91FF90EF900895CA3522E0CD
:1027B000D20740F40E94C12EF80180830F5F1F4FA3
:1027C0002196E7CFF8011082F9CFCF92DF92EF92F6
:1027D000FF920F931F93CF93DF937C016A018C01CB
:1027E000060F171FEC01CE018A559E4FC017D10767
:1027F00049F4DF91CF911F910F91FF90EF90DF90FF
:10280000CF900895CA3522E0D20740F4FE01EE19B8
:10281000FF09EC0DFD1D60810E94D52E2196E3CFAE
:10282000CF93DF93C6EAD1E060E0CE010E94D52EBF
:102830002196C11584E0D807B9F7DF91CF910895AB
:10284000DF92EF92FF920F931F93CF93DF9300D00D
:1028500000D0CDB7DEB7F82E8FE08F1540F08FEFA8
:1028600093E00E94C12E06EA11E08823C1F00F9088
:102870000F900F900F90DF91CF911F910F91FF90CC
:10288000EF90DF900895011584E0180781F3C801E7
:102890000E94C12E811101C0FA940F5F1F4FF110E9
:1028A000F2CF19821A821B821C82DD24D394780114
:1028B0008FEFE81AF80AC8010E94C12E89831A8294
:1028C0008823A9F29FEF980F933078F48A83D982F6
:1028D0000E5F1F4FC7010E94C12E8B83882339F2E0
:1028E000CE0101960E946E04E2CF8701F9CFAF922C
:1028F000BF92CF92DF92EF92FF920F931F93CF93ED
:10290000DF937C015B01C42FD22FFC0182818823DD
:10291000F9F04093F6020E9414239093F5028093FD
:10292000F40280E28C0F883008F061C0C77081E04B
:1029300001C0880FCA95EAF7DF91CF911F910F91DF
:10294000FF90EF90DF90CF90BF90AF900C94E31882
:102950001091F602141340C08091F4029091F50298
:102960000E942C236C01B701C5010E94D51DC81619
:10297000D90690F5C0E2CD0F1D17B9F080E2810FA6
:10298000883040F4177081E001C0880F1A95EAF78B
:102990000E94EA18C83048F481E09D2F977001C06A
:1029A000880F9A95EAF70E94E318802F0E94D018AA
:1029B000C830E8F4D77081E001C0880FDA95EAF7F3
:1029C000DF91CF911F910F91FF90EF90DF90CF900B
:1029D000BF90AF900C94EA1880E28C0F883038F4E6
:1029E000C77081E001C0880FCA95EAF7E9CFDF918F
:1029F000CF911F910F91FF90EF90DF90CF90BF90FC
:102A0000AF9008950F939C01CB01233F4CE5340711
:102A100059F1A8F4283DFCE53F0701F1293D4CE5BB
:102A20003407D1F1273D3C4591F406E221EE41EE19
:102A300067ED7CE50E94771480E00F910895253FB3
:102A4000FCE53F07E9F0B0F0263F3C45F9F0FC011A
:102A50008281882339F11092F602EFCF07E225EE4A
:102A600045EE68ED7CE5E6CF06E221EE40EE63EF51
:102A70007CE5E0CF07E225EE44EE64EF7CE5DACFBB
:102A800006E221EE42EE65EF7CE5D4CF07E225EECB
:102A900046EE66EF7CE5CECF08E221E045EE69ED3B
:102AA0007CE5C8CF81E0C9CFCF93DF93EC01FB0178
:102AB0008281882309F419C1C230FCE5DF07C0F127
:102AC000C6319CE5D90730F09E012A5F3C4529308C
:102AD000310570F50E94AC21909336048093350443
:102AE000C031ECE5DE0709F4CFC008F05BC0C830A8
:102AF0008CE5D80709F4B6C088F5C430ECE5DE07EC
:102B000009F4A8C0C0F4C2308CE5D80709F49CC011
:102B1000809135048260C330DC4509F498C080910F
:102B20003504909136040E94BA210E945F1B80E018
:102B3000DF91CF910895809135048061C630ECE536
:102B4000DE0709F484C0809135048860C730DC4515
:102B500008F47DC080913504806279C0CC308CE56A
:102B6000D80709F489C070F4809135048C60CA30AC
:102B7000ECE5DE0709F46BC008F478C080913504F9
:102B80008E7F65C0CE308CE5D80709F479C080917E
:102B900035048B7FCF30DC4508F459C08091350473
:102BA0008F7E55C0CB3FECE5DE0709F457C030F50A
:102BB000C3318CE5D80709F46FC078F4C131ECE576
:102BC000DE0709F465C0C231DC4509F0A8CF0E94D8
:102BD0005F1B809135048F773AC0C5318CE5D807EB
:102BE00009F462C008F476C0809136048160CA3F5F
:102BF000DC4509F094CF8093360491CFCF3FFCE5BC
:102C0000DF0709F44DC088F4809136048D7FCD3FF5
:102C10009CE5D90781F3809136048E7FCE3FDC4559
:102C200050F3809136048360E6CFC130FDE5DF07C5
:102C300009F459C008F444C080E0C230DD4509F011
:102C40006ECF0E9438226BCF8091350481608093D3
:102C5000350465CF809135048460F9CF80913604C6
:102C60008260C9CF809135048064F1CF0E945F1BE0
:102C7000809135048068EBCF809135048D7FE7CF5C
:102C800080913504877FE3CF809135048F7DDFCF3E
:102C9000809135048F7BDBCF80913504837FD7CF44
:102CA000809136048C7FA7CF8091350482FB9927D1
:102CB00090F921E0922790FB82F990FB83F9C7CF2E
:102CC00080913604982F909591708E7F892B90FB80
:102CD00081F991CF0E945F1B90913504892F97FB5A
:102CE00087F98058B4CF81E0ACCF81E021CFCF937A
:102CF000DF93EB0186319C4511F50E94E4209A8117
:102D0000992399F08A7A91E009F490E09093F70280
:102D1000811109C089E20E94BF200E94302180E019
:102D2000DF91CF91089585E3F6CF8091F70281116D
:102D300004C089E20E94C620F0CF85E3FBCF81E08A
:102D4000EFCF9093FD028093FC020895E091FC0286
:102D5000F091FD02309721F00190F081E02D09946F
:102D600080E00895E091FC02F091FD02309721F09F
:102D70000280F381E02D09940895E091FC02F09126
:102D8000FD02309739F022E0DC012C930480F581BC
:102D9000E02D099408952091FA023091FB02281742
:102DA000390771F09093FB028093FA02E091FC02E4
:102DB000F091FD02309721F00680F781E02D099413
:102DC00008952091F8023091F9022817390771F01F
:102DD0009093F9028093F802E091FC02F091FD02D9
:102DE000309721F00084F185E02D0994089585B78E
:102DF000806885BF85B7806885BF08950895089568
:102E00000C94FE1608950C9402170E94F7160E9467
:102E1000FF160C94001781E008950C940B170E9484
:102E20000B230E9456070E946E110E9499230E9454
:102E30009D0E0E9439100C940317BF92CF92DF921F
:102E4000EF92FF920F931F93CF93DF93CDB7DEB72F
:102E50002A970FB6F894DEBF0FBECDBF0E949C0725
:102E60000E940D17882309F463C08FEFC82E82E0FB
:102E7000D82E10E000E0B02E802F0E944B07E82EE5
:102E8000F601F1906F01F81609F44CC080917303BC
:102E900081FD0E9451079F2D9E2580E0FF24F39421
:102EA000292F2F21D1F18E83BF82EF2081E009F4F9
:102EB00080E088870E9414238160782F9A87898711
:102EC0004E815F8168858A850E94B917F801E150BB
:102ED000FD4F8081F826F0820E94D80E0E94A1103A
:102EE0000E9444250E94A6169091FE02891789F13E
:102EF0000E94A6168093FE022A960FB6F894DEBFB3
:102F00000FBECDBFDF91CF911F910F91FF90EF903A
:102F1000DF90CF90BF900C9442058F5FFF0C8630FE
:102F200009F0BECF0F5F1F4F0830110509F0A3CF86
:102F30008FEF89838A831B820E9414238160782FFC
:102F40009D838C8349815A816B818D810E94B91741
:102F5000C3CF2A960FB6F894DEBF0FBECDBFDF9168
:102F6000CF911F910F91FF90EF90DF90CF90BF9086
:102F70000895CF93DF93CDB7DEB72B970FB6F894B4
:102F8000DEBF0FBECDBF4F83588769877A878B8797
:102F90001E821D8285E0FE013796DE0111960190AA
:102FA0000D928A95E1F749815A816B817C818D81EF
:102FB0009E812B960FB6F894DEBF0FBECDBFDF917A
:102FC000CF910C94D81DFC01808191810C949120AB
:102FD000CF93C82F882309F48BC08238C1F40E9494
:102FE000A61681FD85C089E30E94BF200E94302182
:102FF0002FEF81EE94E0215080409040E1F700C037
:10300000000089E30E94C620CF910C9430218338C0
:10301000A1F40E94A61680FD6BC083E50E94BF202C
:103020000E9430212FEF81EE94E0215080409040AB
:10303000E1F700C0000083E5E5CF8438A1F40E94E9
:10304000A61682FD55C087E40E94BF200E94302151
:103050002FEF81EE94E0215080409040E1F700C0D6
:10306000000087E4CFCF8CEF8C0F813A90F46C2F67
:1030700080911701909118010E944F22882329F016
:103080008C2F0E94C6200E9430218C2F0E94BF20CE
:10309000BBCF80E28C0F883048F4C77081E001C05C
:1030A000880FCA95EAF70E94E720AECFEBE5EC0F58
:1030B000E33040F4F0E0E652FE4F808190E0CF91A3
:1030C0000C94CB16E8E5EC0FE73150F4F0E0EE0F8E
:1030D000FF1FE455FE4F80819181CF910C94E11642
:1030E000C03F30F08C2F0E943E24CF910C942925B4
:1030F000CF910895882309F452C0823871F40E9458
:10310000A61681FF4CC089E30E94BF200E94302197
:1031100089E30E94C6200C943021833859F40E9420
:10312000A61680FF3CC083E50E94BF200E9430218C
:1031300083E5EFCF843859F40E94A61682FF2FC092
:1031400087E40E94BF200E94302187E4E2CF9CEFF9
:10315000980F913AF0F290E2980F983050F48770FF
:1031600091E001C0990F8A95EAF7892F0E94ED201E
:10317000D2CF9BE5980F933020F490E080E00C9440
:10318000CB1698E5980F973120F490E080E00C94EE
:10319000E116803F20F00E94A6240C942925089572
:1031A000CF93C82F0E94E817C93349F42FEF87EE59
:1031B00093E0215080409040E1F700C000008C2F48
:1031C000CF910C947A18882321F00E94E7200C9468
:1031D00030210895882321F00E94ED200C943021A5
:1031E0000895BF92CF92DF92EF92FF920F931F93B9
:1031F000CF93DF936C01D62FC72FFC010581029579
:103200000F70128111110E9404210E94DD20E82E0E
:10321000882391F01123D1F08C2F807F803421F00E
:1032200080E28D0F883090F082E00E947B210E9426
:10323000DD2091E0E82EE926BC2EB2949FE0B92271
:10324000EB2DF0E0EF5AF04D0C941A2EE12CF4CF58
:103250000C2F0F70C07F11F00295007F1123A9F091
:10326000002359F080E28D0F883010F0D11109C091
:10327000802F0E94E7200E9430218D2F0E94E817A6
:1032800014C0802F0E94F720F6CF8D2F0E947A184D
:10329000002359F080E28D0F883010F0D1112CC03E
:1032A000802F0E94ED200E9430212B2D2850330BBF
:1032B0002430310520F40E94A6160E944205EE201B
:1032C00009F49EC10E94D92080FD9AC1F6011282A4
:1032D0000E94D3200E945C1FC6010E94211B0E94F5
:1032E000D320DF91CF911F910F91FF90EF90DF904E
:1032F000CF90BF900C947D1F802F0E94FD20D3CFD4
:10330000FC2FFF70FF2EC07FC03219F0F29480EFC7
:10331000F822DD2369F0D13049F1112391F1002326
:1033200051F1F601858180FFA8CF8F70858323C07E
:10333000112381F0011106C00E9417218F290E94DC
:10334000E318B3CF0130C1F70E9417218F290E94E3
:103350001D21ABCF011106C00E9426218F2D0E9496
:10336000EA18A3CF013009F4A0CFF6CF112329F03A
:10337000063008F09ACF8F2DE2CF053008F095CFB8
:10338000EDCF002359F3D93349F4FFEF27EE33E0B3
:10339000F15020403040E1F700C000008D2F0E9426
:1033A0007A1883CF8C2F86958695837069F081304B
:1033B00009F07BCF8D2F9C2F9370111102C090E0EC
:1033C00080E00E94E11671CF8D2F9C2F9370111118
:1033D00002C090E080E00E94CB1667CF8D2F1123B2
:1033E00029F00E943E240E9429255FCF0E94A62436
:1033F000FACF8C2F837009F041C0111156CF4D2F99
:10340000429546954770440F440F0D2F0F7010E002
:1034100030E020E0042E04C0000F111F221F331FD4
:103420000A94D2F760E070E0CB01D4FF0FC06FE0E8
:1034300070E080E090E004C0660F771F881F991F3E
:103440004A95D2F76095709580959095C695C695EA
:10345000C370602B712B822B932BC23049F058F430
:10346000C13019F00E940E1F20CF0E94FC1E1DCFFC
:103470000E94201F1ACF0E94FA1E17CF8695112393
:1034800011F08C2F8170882309F40FCF4D2F4295B6
:1034900046954770440F440F0D2F0F7010E030E039
:1034A00020E0042E04C0000F111F221F331F0A94B6
:1034B000D2F760E070E0CB01D4FF0FC06FE070E0A6
:1034C00080E090E004C0660F771F881F991F4A951F
:1034D000D2F76095709580959095C695C695C37006
:1034E000602B712B822B932BC23049F058F4C130E2
:1034F00019F00E94D31FD9CE0E94C11FD6CE0E94C0
:10350000E51FD3CE0E94361FD0CECF70112329F0F5
:103510008C2F0E945C1F8D2F12CF8D2F0E94EA18D6
:103520008C2F0E947D1FC1CED23F89F160F4D03F25
:10353000C9F0D13F29F1112309F442C001119DCEF8
:103540008C2F8F7121C0D33F39F1D43FA1F71123C4
:1035500069F1CF718C2F0E945C1F63E08C2F0E9459
:103560006621A3CE112341F0053008F09ECE8C2FAA
:103570008F710E94A01F99CE063008F096CEF7CF2B
:103580008C2F8F71112369F20E945C1F8ECE8C2FBD
:103590008F711123C9F3C5CF112329F08C2F8F719F
:1035A0000E94471F82CE0E94421F7FCE81E00E9470
:1035B0007B21023008F479CE82E00E947B2175CE17
:1035C000002359F0D93309F0E9CE8FEF97EEE3E00D
:1035D00081509040E040E1F7DFCE8C2F8F71A1CF7A
:1035E0004C2F4F706D2FC6010E944A050E94721E1B
:1035F0005CCE4C2F4F706D2FC6010E944D0555CEED
:10360000DF91CF911F910F91FF90EF90DF90CF90BE
:10361000BF9008950F931F93CF93DF93EC016881C0
:1036200079818A810E949B208C010E94F71F0E9451
:10363000F91EB801CE01DF91CF911F910F910C942B
:10364000F118CF93DF93EC018B819C81892B29F0BA
:103650008881998189238F3F59F4DF91CF91089513
:10366000CE010E940A1BCE01DF91CF910C94AF03D3
:10367000CE010E94F3048111F3CF0E94DD20882344
:1036800061F38A81882349F382E0DF91CF910C9422
:103690007B210E9404210E9414210E9430210E945B
:1036A00050260E94292590E080E00E94CB1690E0F1
:1036B00080E00C94E1160E94CD200C94491B0E94DE
:1036C000F4200C945B1BE92FE295EF70E250EE3092
:1036D00070F4F0E0EF59F04D0C941A2E803F19F081
:1036E00020F4883E20F481E00895843FE1F380E0F7
:1036F0000895883EC0F3813FD1F7F5CF93FB88272B
:1037000080F908950E9491200C94631BCF93DF935E
:1037100000D000D00F92CDB7DEB70F900F900F9072
:103720000F900F90DF91CF910895CF93DF9300D04A
:1037300000D000D0CDB7DEB726960FB6F894DEBF26
:103740000FBECDBFDF91CF9108951F93CF93DF932D
:10375000C091080316E0809109038C1304C0DF9127
:10376000CF911F910895D0E01C9FF0011D9FF00D97
:103770001124E65FFC4F4081518162817381848115
:1037800095810E94951B2196C770E5CF40913A0321
:1037900050913B0360913C0370913D0380913E0347
:1037A00090913F030C94951B1F93CF93DF938091CF
:1037B0003F03807FA9F480913C03882389F08091A6
:1037C0000803C091090360913A0370913B03A091F3
:1037D0003D03B0913E03D62FD72316E0C81304C093
:1037E000DF91CF911F91089590E0109711F0DF3F86
:1037F00019F401968770F2CF189F9001199F300D30
:103800001124F901E65FFC4F41814713F2CF40815B
:103810004613EFCF42814111ECCF438154814A1BC3
:103820005B0B483C510528F780913F038F70806106
:1038300080933F03F901E15FFC4F80818F708061CD
:1038400080838AE393E00E94211BDF91CF911F9137
:103850000C94A51BAF92BF92CF92DF92EF92FF9292
:103860000F931F93CF93DF93CDB7DEB761970FB65A
:10387000F894DEBF0FBECDBF8C0185E0F801DE01FC
:103880001D9601900D928A95E1F7F80140815181D2
:10389000E2808AE3C82E83E0D82E60913D037091C8
:1038A0003E036115710509F461C190913A032091BD
:1038B0003B03892F82238F3F09F458C1A380B48032
:1038C000F0903C03F501E61BF70BFF2009F4FCC068
:1038D00080913F03382F307FE83CF10508F0B2C0FB
:1038E000311179C0FE2C251323C0941321C0E1109F
:1038F0001FC08F70806180933F030E94C61BC6016A
:103900000E94211B80913F03F80185838F2D6196D2
:103910000FB6F894DEBF0FBECDBFDF91CF911F91E0
:103920000F91FF90EF90DF90CF90BF90AF900895F0
:10393000AB2829F0842F85238F3F09F033C180E025
:10394000F82FF170DF2E80FF3CC08091080320919A
:10395000090336E0821315C04D875E878D859E85ED
:103960000E949120292F22952F702230F0F02430D0
:1039700018F59F70F1F0F8019581907FD1F4D12C6A
:103980001EC090E0389FF001399FF00D1124E65FD2
:10399000FC4F6181651306C06081641303C06281BE
:1039A0006E110FC001968770D5CF9F7011F08823DC
:1039B00031F3805E883018F3C8010E94211BFD2C72
:1039C000A5CFEE2009F4A2CF80913F0381608093C0
:1039D0003F03F12C9BCF251306C0941304C0F801BC
:1039E000EE2009F48DC04D875E878D859E850E94EF
:1039F000821B882319F1EE2009F180913F03803268
:103A000070F020913A0330913B0338872F83198659
:103A1000BB86AA868C87CE0107960E94211B86E072
:103A2000F801AAE3B3E001900D928A95E1F70E94B4
:103A3000D41B0E94C61BFF24F39468CFC8010E94C8
:103A4000211BF9CF311113C07A2DB98AA88A6E2DA6
:103A500089890E94861B8AE393E00E94211B86E0ED
:103A6000F60111928A95E9F70E94C61BB2CF251381
:103A70000FC094130DC0E1100BC0F8018583C8017D
:103A80000E94211B86E0F60111928A95E9F73ECF4C
:103A90004D875E878D859E850E94821B882371F2EB
:103AA000EE2061F280913F03803208F4B8CF20917C
:103AB0003A0330913B033A8329831B82BD82AC8257
:103AC0008E83CE010196A9CFE83CF10508F041C0F4
:103AD000FE2CEE2009F4B2CF25132AC0941328C07F
:103AE00080913F0380FD1BC0982F907FC1F0F801AB
:103AF0008583903F31F0982F907F905F8F70892B56
:103B00008583C8010E94211B86E0F801AAE3B3E087
:103B100001900D928A95E1F70E94C61BF7CE86E0D0
:103B2000F801AAE3B3E001900D928A95E1F7EECE99
:103B30004D875E878D859E850E94821B81116FCF88
:103B400080913F03816080933F03C8010E94211B45
:103B5000DDCE7A2DB98AA88A6E2D89890E94861BAE
:103B600086E0F60111928A95E9F7D6CFEE2009F4A6
:103B700065CF4D875E878D859E850E94821BF82EBE
:103B8000882309F45BCF86E0F801AAE3B3E0019053
:103B90000D928A95E1F78AE393E00E94E3170E9471
:103BA000D41BBACF81E08E25CBCE88EC90E008956F
:103BB0001F93CF93DF93CDB7DEB72C970FB6F89452
:103BC000DEBF0FBECDBF4F83588769877A878B874B
:103BD0009C87CE0107960E942A1C882369F08A855B
:103BE0009B85892B39F04F815885842F85238F3F02
:103BF00009F071C016E05FC086E0FE013796DE0175
:103C0000119601900D928A95E1F78A859B85892B03
:103C100089F38F81988589238F3F61F32091090370
:103C200030E0C90101968770992740910803481731
:103C3000190671F40E945F1B109209031092080389
:103C400086E0EAE3F3E0DF011D928A95E9F7D2CF3F
:103C500096E0929FD001939FB00D1124A65FBC4FB8
:103C6000FE01319601900D929A95E1F78093090338
:103C70000E94A51BBFCF819FC0011124865F9C4F6E
:103C80000E942A1C8823E9F0E09108031E9FF0019E
:103C90001124E65FFC4F40815181628173818481F0
:103CA00095810E94951B8091080390E00196877092
:103CB0009927809308038091080390910903891341
:103CC000DACF2C960FB6F894DEBF0FBECDBFDF91D2
:103CD000CF911F91089569857A858B859C850E9477
:103CE000951B88CFEF92FF920F931F93CF93DF9393
:103CF0008C01892B81F0F12CEE24E394E8012196CC
:103D0000F8018491843770F4843008F05FC081300A
:103D1000B1F08230A1F1DF91CF911F910F91FF900F
:103D2000EF900895853709F44CC008F43DC09CE736
:103D3000980F903780F78F770E947A1849C00E5FEE
:103D40001F4FFE01849190E2980F983060F48770C5
:103D5000FE2D01C0FF0F8A95EAF78F2F0E940721E1
:103D60000E94302102C00E94E8178F2D815030F24E
:103D7000EFE9FFE03197F1F700C00000F7CF0E5FE9
:103D80001F4FFE01849190E2980F983050F4877095
:103D9000FE2D01C0FF0F8A95EAF78F2F0E940D219B
:103DA000DFCF0E947A18E1CF0E5F1F4FFE01C49152
:103DB000C150D8F28FE99FE00197F1F700C00000F1
:103DC000F7CF0E5F1F4FFE01F490CFCF0E94E81790
:103DD0008E01CBCF08950C94EA1E0E94EB1E6093D7
:103DE00062037093630380936403909365030C9460
:103DF000491B08950C94ED1E0F931F9300916203CD
:103E0000109163032091640330916503602B712B43
:103E1000822B932B1F910F910C94ED1E0F931F93E8
:103E20000091620310916303209164033091650354
:103E300060237123822393231F910F910C94ED1E15
:103E40000F931F9300916203109163032091640309
:103E50003091650360277127822793271F910F9167
:103E60000C94ED1E0C94EA1E0C94321F0E94341F19
:103E700060935E0370935F0380936003909361038C
:103E80000C94491B60E070E0CB010C94361F0F933B
:103E90001F9341E050E060E070E08A019B0104C0A4
:103EA000000F111F221F331F8A95D2F7C901B801D5
:103EB0001F910F910C94361F0F931F9341E050E018
:103EC00060E070E004C0440F551F661F771F8A959D
:103ED000D2F780915E0390915F03A0916003B0914F
:103EE00061038A019B01082B192B2A2B3B2BC9014B
:103EF000B8011F910F910C94361F0F931F9341E04F
:103F000050E060E070E004C0440F551F661F771F4B
:103F10008A95D2F7CB01BA016095709580959095FE
:103F200000915E0310915F03209160033091610363
:103F300060237123822393231F910F910C94361FCA
:103F40000F931F9341E050E060E070E004C0440F25
:103F5000551F661F771F8A95D2F780915E03909157
:103F60005F03A0916003B09161038A019B01082760
:103F700019272A273B27C901B8011F910F910C94DB
:103F8000361F0F931F9300915E0310915F032091E2
:103F9000600330916103602B712B822B932B1F9157
:103FA0000F910C94361F0F931F9300915E03109195
:103FB0005F032091600330916103602371238223AA
:103FC00093231F910F910C94361F0F931F93009111
:103FD0005E0310915F0320916003309161036027BD
:103FE0007127822793271F910F910C94361F0895F4
:103FF000E92FEE0FE90FEE0F8E0F982F977041E02B
:1040000001C0440F9A95EAF786958695869595E0C6
:10401000899FF0011124E05CFC4F30E020E070E06B
:104020005191DF011197CB01022E02C09695879521
:104030000A94E2F7817081958527842385278C93E4
:104040002F5F3F4F2530310559F70895E92FEE0FC7
:10405000E90FEE0F8E0F982F9770869586958695AF
:1040600025E0829FF0011124E05CFC4F50E040E02D
:1040700080E0219130E0092E02C0369527950A9400
:10408000E2F721703327042E01C0220F0A94EAF7C9
:10409000822B4F5F5F4F4530510559F70895BF920E
:1040A000CF92DF92EF92FF920F931F93CF93DF9304
:1040B0008C01C0905E03D0905F03E0906003F090AD
:1040C00061038091620390916303A0916403B091B6
:1040D0006503C82AD92AEA2AFB2ACFE1D0E0BC2E00
:1040E000D701C6010C2E04C0B695A7959795879564
:1040F0000A94D2F780FD0EC0219788F7B12C8B2D42
:10410000DF91CF911F910F91FF90EF90DF90CF90B3
:10411000BF900895B8018C2F0E945605019761F356
:10412000EECFCF93DF93EC010E944F20BE01DF91D1
:10413000CF910C9456051F93CF93DF93EB01909191
:104140000703992331F0CB01DF91CF911F910C949C
:104150009120882379F0CB010E944F20182F682FDF
:10416000CE010E94F81FBE01812FDF91CF911F91D8
:104170000C945605CB010E942620182FF4CF682FEF
:1041800080911701909118010C948522682F8091DD
:104190001701909118010C9487228091170190913A
:1041A00018010C94892280916603859585958595E3
:1041B00008958091660387700895909166039770C3
:1041C00081E009F480E00895809172030895909150
:1041D0007203892B809372030895809590917203E6
:1041E000982390937203089510927203089590910A
:1041F0007103892B809371030895809590917103C9
:1042000098239093710308951092710308959091EB
:104210007003892B809370030895809590917003AB
:1042200098239093700308951092700308958091DD
:104230006703089508950C941A21909167039817C5
:1042400021F0809367030C941B21089580916703EC
:10425000882329F01092670380E00C941B210895B5
:10426000E0911701F0911801809172038083E09131
:104270001701F0911801808190917103892B80833F
:10428000E0911701F0911801808190917003892BC2
:10429000808390916703992381F0E0911701F09159
:1042A00018018081892B80838091170190911801DA
:1042B0000E943D2281110E94262180911701909138
:1042C00018010C94B21608950C94632198E0899F0C
:1042D00090011124622B609366030E945C1F809101
:1042E00066038595859585950C94642110926603E7
:1042F00080E00C94642190916603809589238093DB
:104300006603282F277071F4282F082E000C330B1A
:104310009217130639F08595859585950E947D1F26
:104320000C94762108956FEF7FEF90E080E00C947D
:10433000F32E90E080E00E94CF2E21E08C3E9E4F35
:1043400009F020E0822F089582E090E00C94C12EC5
:1043500083E090E00C94C12ECF9384E090E00E9423
:10436000C12EC82F81E290E00E94C12E982F8C2F81
:10437000CF910895CF93C92F682F84E090E00E94D9
:10438000D52E6C2F81E290E0CF910C94D52EAB010D
:10439000BC018FE090E00C94E72EAB01BC0183E1FF
:1043A00090E00C94E72E60E070E0CB010C94CD21FE
:1043B00060E070E0CB010E94C7210C94D3216CEE29
:1043C0007EEF90E080E00E94F32E60E082E090E0DB
:1043D0000E94D52E60E083E090E00E94D52E1092DE
:1043E000620310926303109264031092650360E00D
:1043F00084E090E00E94D52E60E081E290E00E948F
:10440000D52E60E085E090E00E94D52E60E086E049
:1044100090E00E94D52E6FEF87E090E00E94D52EAD
:1044200040E050E0BA0188E090E00E94E72E60E0B2
:104430008DE090E00E94D52E40E050E0BA0188E186
:1044400090E00E94E72E60E087E190E00E94D52E88
:1044500040E050E0BA018CE190E00E94E72E60E07D
:1044600080E290E00E94D52E0C94D8210C94DF219C
:10447000682F8EE090E00C94D52E9C012E5F3F4F6C
:10448000AC01485F5F4F80E02417350709F40895B9
:10449000F90191919F019923B9F38F5FF5CF6623BD
:1044A00049F0FC01329608962191261729F0E81769
:1044B000F907D1F780E0089581E008959C01FC019F
:1044C00032969FEF80E04191461751F09F3F19F4DB
:1044D000411101C0982F8F5F8630A9F79F3F09F4E3
:1044E0000895290F311D97FD3A95F90162830895CA
:1044F000FC01329608962191261303C0DF01119723
:104500001C92E817F907B9F708950C945E220C94F1
:104510007822029626E0FC0111922A95E9F7089587
:10452000089508950C9491220E94922280913B0458
:10453000843049F11092740388E190E020E40FB6D2
:10454000F894A895809360000FBE2093600080E0EF
:104550000E9442050E94922283B7817F846083BFBC
:1045600083B7816083BF7894889583B78E7F83BF3C
:104570000FB6F894A89580916000886180936000E0
:10458000109260000FBE08950895CF930E9490226C
:104590000E949C070E94C422C0E08C2F0E944B07FF
:1045A000811105C0CF5FC830C1F7CF91089581E078
:1045B000FCCF08950C94D9220E945F1B0E94A6167E
:1045C0000E9442050C94DA221F921FB61F921124FA
:1045D0008F939F93AF93BF9380917403811113C006
:1045E0008091310490913204A0913304B09134044D
:1045F0004196A11DB11D8093310490933204A09384
:104600003304B0933404BF91AF919F918F911F9069
:104610001FBE1F90189582E084BD93E095BD9AEF70
:1046200097BD80936E0008952FB7F8948091310460
:1046300090913204A0913304B09134042FBF0895B7
:104640002FB7F89460913104709132048091330453
:10465000909134042FBF08959C014FB7F894809136
:10466000310490913204A0913304B09134044FBFCF
:10467000821B930B089578941F921FB61F921124EA
:104680008F939F93AF93BF938091310490913204A5
:10469000A0913304B09134040196A11DB11D809303
:1046A000310490933204A0933304B0933404BF9147
:1046B000AF919F918F911F901FBE1F90189581E021
:1046C0008093E00080E28093D8001092C9008FE1CF
:1046D0009EE40197F1F700C0000087E090EBDC0159
:1046E0008093440490934504A0934604B0934704F8
:1046F00088E19CE00FB6F894A895809360000FBE07
:1047000090936000FFCF0C945B110E949C078FE395
:104710009CE90197F1F700C000000E949C0780E02F
:104720000E944B0780FF04C00E9483230C945F23E8
:1047300008950E949921811102C00E9436220E9490
:10474000A421809373030E94AC219093360480933C
:1047500035040E94A821682F70E090E080E00E945C
:10476000FA1E60915E0370915F03809160039091E7
:1047700061030C94341F80917B0380FF12C0609111
:104780001E0185E0689FB0011124759567957595A8
:10479000679560387105A8F561157105A1F1862F3F
:1047A000089581FF09C060911E0185E0689FB001F6
:1047B000112475956795EDCF60911E0182FD0AC0A9
:1047C00080917A038823D1F090911D0160911E01A0
:1047D000891728F085E0689FB0011124DACF869F01
:1047E000B001112485E0869F9001879F300D112430
:1047F000692F70E0C9010E94E42DCBCF65E070E025
:10480000CECF8FE7089581E0089580917B0380FFEC
:104810000CC060911A0170E0759567957595679564
:104820006115710549F1862F089581FF06C06091D9
:104830001A0170E075956795F3CF60911A0182FDBA
:104840000BC0909179039923A1F060911901809197
:104850001A01961738F0682F70E06038710500F380
:104860008FE70895899FC001112470E00E94E42D14
:10487000F4CF61E070E0D7CF81E00895803F31F45C
:104880000E94BB23819580937F030895813F19F493
:104890000E94BB23F8CF823F31F40E94BB23819555
:1048A00080937E030895833F19F40E94BB23F8CFC1
:1048B000893F29F40E9405248093800308958A3F4C
:1048C00021F40E9405248195F7CF8B3F31F40E949B
:1048D000052481958093810308958C3F19F40E94EB
:1048E0000524F8CF843F31F480917D03816080936B
:1048F0007D030895853F21F480917D038260F7CF89
:10490000863F21F480917D038460F1CF873F21F4BD
:1049100080917D038860EBCF883F21F480917D03F7
:104920008061E5CF8D3F31F480917B03816080937E
:104930007B0308958E3F21F480917B038260F7CF43
:104940008F3FB9F780917B038460F1CF90917E0314
:10495000803F59F480917F0387FF0DC010927F0341
:1049600091110BC010927A0308C0813F81F48091AD
:104970007F0318169CF3992381F080918003909116
:104980008103892B09F064C0109279030895823F56
:1049900049F497FFF0CF10927E0380917F0381113D
:1049A000ECCFE0CF833F19F41916ACF3E4CF20919C
:1049B0008003893F29F41216F4F610928003DBCFAE
:1049C0008A3F19F427FFD7CFF8CF209181038B3F7F
:1049D00029F427FFD0CF10928103CDCF8C3F19F45B
:1049E0001216CCF3C8CF843F31F480917D038E7FC3
:1049F00080937D03C0CF853F21F480917D038D7F1F
:104A0000F7CF863F21F480917D038B7FF1CF873FE5
:104A100021F480917D03877FEBCF883F21F4809143
:104A20007D038F7EE5CF8D3F31F480917B038E7FB8
:104A300080937B03A0CF8E3F21F480917B038D7FF9
:104A4000F7CF8F3F09F097CF80917B038B7FF0CF1B
:104A500008950E9414239C0190917E0380917F030E
:104A6000982B21F030937803209377039091800363
:104A700080918103982B21F0309376032093750366
:104A80008CE793E00C94BD16EF92FF920F931F9367
:104A9000CF93DF9300D000D000D0CDB7DEB786E053
:104AA000ECE7F3E0DE01119601900D928A95E1F7B3
:104AB000E0907E03F0907F030091800310918103CA
:104AC00010927E0310927F03109280031092810354
:104AD0008E2D8F2991F080917703909178030E9419
:104AE0002C23AC0190917A03992309F43FC0809163
:104AF0001F018417150608F447C0802F812B91F001
:104B000080917503909176030E942C23AC019091C3
:104B10007903992309F477C080911B018417150646
:104B200008F47FC080917E0390917F03892B909140
:104B30008003892B90918103892B11F00E942925F4
:104B400086E0FE013196ACE7B3E001900D928A95C4
:104B5000E1F726960FB6F894DEBF0FBECDBFDF910A
:104B6000CF911F910F91FF90EF9008952091200118
:104B70008AE0289F900111242417350708F0BDCF43
:104B80009F5F90937A0302C09F3FD1F7EE2059F0C8
:104B90000E94BB239FEF1E140CF491E0899F802D8F
:104BA000112480937E03FF2059F00E94BB239FEFC6
:104BB0001F140CF491E0899F802D112480937F03B2
:104BC00030917E03332309F498CF20917F03222371
:104BD00009F493CF45EB3403C0011124992359F014
:104BE00090937E0345EB240390011124332339F085
:104BF00030937F0382CF81E080937E03F3CF81E007
:104C000080937F037ACF20911C018AE0289F900136
:104C100011242417350708F085CF9F5F90937903FF
:104C200002C09F3FD1F7002359F00E9405249FEF57
:104C300010160CF491E0899F802D1124809380033D
:104C4000112359F00E9405249FEF11160CF491E0F6
:104C5000899F802D11248093810330918003332319
:104C600009F460CF20918103222309F45BCF45EB47
:104C70003403C0011124992359F09093800345EB2C
:104C8000240390011124332339F0309381034ACF58
:104C900081E080938003F3CF81E08093810342CF52
:104CA00086E0ECE7F3E0DF011D928A95E9F71092C8
:104CB0007A031092790310927B03089580918A03FE
:104CC0000895CF93DF9300D00F92CDB7DEB79091C8
:104CD0003B04943011F589837B836A839093E900C8
:104CE0008FEF9091E800815095FD06C095ED9A9563
:104CF000F1F700008111F5CF8091E80085FF0DC02C
:104D000050E040E063E070E0CE0101960E94D628BA
:104D10008091E8008E778093E8000F900F900F90BD
:104D2000DF91CF910895BC0184E00C946126BC0111
:104D300083E00C9461269C0184E08093E9009FEF5E
:104D40008091E800915085FD06C085ED8A95F1F7C8
:104D500000009111F5CF8091E80085FF0CC050E074
:104D600040E066E070E0C9010E94D6288091E8002A
:104D70008E778093E8000895CF93DF93EC0181E074
:104D80008093E9008FEF9091E800815095FD06C077
:104D900095ED9A95F1F700008111F5CF8091E8002B
:104DA00085FF14C050E040E068E070E0CE010E9452
:104DB000D6288091E8008E778093E80088E0FE0195
:104DC000A2E8B3E001900D928A95E1F7DF91CF91CF
:104DD0000895CF93FC01603221F580913B0484302B
:104DE00001F5C091E900CF702091EC00922F9170F5
:104DF00020FD90E8C92B82E08093E9008091E800D3
:104E000080FF0CC050E040E060E270E0CF010E9403
:104E1000D6288091E8008E778093E800CF70C09309
:104E2000E900CF91089580913A04811109C00E9450
:104E3000B52A0E94122B8091E20084608093E200E8
:104E4000089510923A040895089508950C94DC2270
:104E500042E061EC81E00E94312A42E261EC84E0B0
:104E60000E94312A42E261EC82E00E94312A42E251
:104E700060EC83E00C94312A80913D04833009F486
:104E800061C030F48130D1F1823009F49DC00895C1
:104E90008A3009F489C08B3009F46FC0893009F079
:104EA00050C080913C04813209F04BC08091400495
:104EB00090914104009719F0029709F042C0809147
:104EC000E800877F8093E8008091E80082FF35C08A
:104ED0009091F3008091F200029729F48091F10003
:104EE0008B7F813021F48091F10080938A0380913F
:104EF000E8008B778093E8000C94652A80913C044D
:104F0000813AF9F48091E800877F8093E8008091EE
:104F1000400490914104892B61F468E082E893E0B9
:104F200070E00E9474298091E8008B778093E800FC
:104F3000089560E090E080E0F3CF80913B04811120
:104F4000C3CF089580913C04813AD9F78091400401
:104F500090914104892BA9F78091E800877F809385
:104F6000E8008091E80080FFFCCF80912B018093C6
:104F7000F1008091E8008E77BDCF80913C048132B2
:104F800001F78091400490914104892BD1F68091E2
:104F9000E800877F8093E8000E94652A80913E04A4
:104FA00080932B010C945F1B80913C04813249F665
:104FB0008091E800877F8093E8000E94652A8091B5
:104FC0003F0480938B03089580913C04813A09F05B
:104FD000B8CF8091E800877F8093E8008091E80057
:104FE00080FFFCCF80918B03C2CFCDB7DEB7A097F7
:104FF0000FB6F894DEBF0FBECDBF84B7877F84BFE6
:105000000FB6F894A8958091600088618093600045
:10501000109260000FBE80E890E00FB6F894809385
:105020006100909361000FBE0E9405170E94B52A8F
:105030000E94122B8091E20084608093E2007894B9
:105040000E949B2D0E940F1781E291E00E94A11601
:1050500013E080913B04853039F10E941D17809147
:105060003B048430B1F71093E9008091E80082FF9F
:10507000F0CF8091E80090E085FF09C050E040E06B
:1050800060E270E0CE0101960E94252991E08091B6
:10509000E8008B778093E8009923D9F260E2CE0193
:1050A00001960E941312D5CF0E9494228091390458
:1050B000882379F20E94C522882359F20E94C028D1
:1050C000C8CF0C946328292F33272330310521F1D1
:1050D00068F42130310509F449C02230310509F462
:1050E0004AC090E080E030E020E029C02132310564
:1050F00081F122323105A9F76330710590F7FB0188
:10510000EE0FFF1FE052FE4F2081318163527E4F30
:10511000FB01808190E013C099278130910599F0BF
:10512000009741F08230910589F00397D1F6E6E8C7
:10513000F4E002C0EAEAF4E0849190E09F01FA0111
:10514000318320830895EEE9F4E0F6CFECE8F4E053
:10515000F3CF6330710528F6660F771FFB01EA5124
:10516000FE4F2081318189E090E0E9CF82E190E03B
:1051700029E035E0E4CF8BE590E02EEA34E0DFCFA4
:1051800080E189BD82E189BD09B400FEFDCF809137
:10519000D8008F7D8093D8008091E000826080935A
:1051A000E0008091E00081FDFCCF0895AF92BF92B6
:1051B000CF92DF92FF920F931F93CF93DF936C01F7
:1051C000EB018A010E94842AF82E811123C0011567
:1051D000110539F0F80180819181C81BD90BC80EE7
:1051E000D91EB12CA12C2097A9F08091E80085FD53
:1051F00022C08091E8008E778093E80001151105A8
:10520000A1F0F80180819181A80EB91EB182A0821F
:1052100085E0F82E8F2DDF91CF911F910F91FF9098
:10522000DF90CF90BF90AF9008950E94842A88238A
:10523000D1F2F82EEFCFF60181916F018093F1004A
:105240002197FFEFAF1ABF0ACECFAF92BF92CF9296
:10525000DF92FF920F931F93CF93DF936C01EB01CB
:105260008A010E94842AF82E811123C0011511059C
:1052700039F0F80180819181C81BD90BC80ED91E65
:10528000B12CA12C2097A9F08091E80085FD22C0C7
:105290008091E8008B778093E80001151105A1F05B
:1052A000F80180819181A80EB91EB182A08285E0AB
:1052B000F82E8F2DDF91CF911F910F91FF90DF90EE
:1052C000CF90BF90AF9008950E94842A8823D1F296
:1052D000F82EEFCF8091F100F60181936F012197B5
:1052E000FFEFAF1ABF0ACECFFC018091420490912C
:1052F000430486179707A0F06115710529F4909172
:10530000E8009E779093E80090E06115710551F4F4
:10531000911108C08091E80082FF34C080E00895B8
:10532000BC01F2CF80913B048823C1F18530C1F1EB
:105330008091E80083FD30C08091E80082FDEACFD3
:105340008091E80080FFE1CF8091F3002091F2008E
:10535000382F6115710519F02830310558F091E0AA
:105360002830310509F090E02091E8002E77209355
:10537000E800CBCF81918093F100615071092F5FDC
:105380003F4FE7CF80913B04882341F0853041F0C7
:105390008091E80083FFBECF81E0089582E0089508
:1053A00083E00895FC0180914204909143048617A4
:1053B0009707A0F06115710529F48091E8008E77B8
:1053C0008093E80090E06115710551F4911108C0D7
:1053D0008091E80082FF35C080E00895BC01F2CFE3
:1053E00080913B048823C9F18530C9F18091E800A0
:1053F00083FD31C08091E80082FDEACF8091E80012
:1054000080FFE1CF8091F3002091F200382F6115E9
:10541000710519F02830310558F091E02830310538
:1054200009F090E08091E8008E778093E800CBCF80
:1054300084918093F1003196615071092F5F3F4F45
:10544000E6CF80913B04882341F0853041F0809184
:10545000E80083FFBDCF81E0089582E0089583E0F6
:105460000895982F973028F08F708093E90081E09D
:1054700008959093E900242F762F50E0981731F08B
:105480007091EC002091ED005091F00021FD02C0E0
:105490009F5FE8CF3091EB003E7F3093EB0030917F
:1054A000ED003D7F3093ED003091EB0031603093A3
:1054B000EB007093EC002093ED005093F0002091EE
:1054C000EE0027FDE5CF80E0089580913C0487FF42
:1054D00013C08091E80082FF06C08091E8008B77BE
:1054E0008093E80004C080913B048111F2CF0895BD
:1054F00080913B048823D9F38091E80080FFF8CFA6
:105500008091E8008E77ECCF2091E4003091E500A7
:1055100095E6A9012091EC00822F817020FF06C042
:105520008091E80080FF06C080E008952091E800A7
:1055300022FD1AC080913B04882389F0853089F0D0
:105540008091EB0085FD0FC02091E4003091E500D3
:1055500042175307F9F29150E1F684E0089582E092
:10556000089583E0089581E008950E94232B0E940E
:105570002B2BE0EEF0E0808181608083E8EDF0E0AD
:1055800080818F77808319BCA7EDB0E08C918E7FEE
:105590008C9380818F7E808310923A0408950F93BC
:1055A0001F93CF93DF930E94232B0E942B2BC8EDD8
:1055B000D0E088818F77888388818068888388811C
:1055C0008F7D888319BC10923B041092370410928F
:1055D00039041092380400EE10E0F80180818B7FCE
:1055E000808388818160888342E060E080E00E945F
:1055F000312AE1EEF0E080818E7F8083E2EEF0E000
:10560000808181608083808188608083F8018081CF
:105610008E7F8083888180618883DF91CF911F9105
:105620000F910895E8EDF0E080818F7E8083E7EDB3
:10563000F0E080818160808384E082BF81E080939C
:105640003A040C94CF2AE8EDF0E080818E7F8083CD
:105650001092E20008951092DA001092E10008958D
:105660001F920F920FB60F9211242F933F934F93D7
:105670005F936F937F938F939F93AF93BF93EF93BA
:10568000FF938091E10082FF0BC08091E20082FFD6
:1056900007C08091E1008B7F8093E1000E949A2DEA
:1056A0008091DA0080FF19C08091D80080FF15C07A
:1056B0008091DA008E7F8093DA008091D90080FF9C
:1056C00096C080E189BD82E189BD09B400FEFDCFAD
:1056D00081E080933B040E9413278091E10080FFCA
:1056E00019C08091E20080FF15C08091E2008E7F9A
:1056F0008093E2008091E20080618093E2008091DB
:10570000D80080628093D80019BC85E080933B0468
:105710000E9425278091E10084FF2BC08091E20048
:1057200084FF27C080E189BD82E189BD89B5982FBA
:10573000917080FFFBCF8091D8008F7D8093D8003F
:105740008091E1008F7E8093E1008091E2008F7E66
:105750008093E2008091E20081608093E20080917A
:105760003704882309F449C084E080933B040E94F5
:1057700026278091E10083FF29C08091E20083FF0A
:1057800025C08091E100877F8093E10082E08093D3
:105790003B04109237048091E1008E7F8093E100FA
:1057A0008091E2008E7F8093E2008091E200806130
:1057B0008093E20042E060E080E00E94312A809124
:1057C000F00088608093F0000E942427FF91EF9101
:1057D000BF91AF919F918F917F916F915F914F9109
:1057E0003F912F910F900FBE0F901F90189519BCED
:1057F00010923B040E94212770CF8091E30087FD27
:1058000093E090933B04B3CF1F920F920FB60F9289
:1058100011242F933F934F935F936F937F938F93B5
:105820009F93AF93BF93CF93DF93EF93FF93D09169
:10583000E900DF708091EC00C82FC17080FDC0E8E6
:105840001092E9008091F000877F8093F0007894B7
:105850000E94482C1092E9008091F00088608093AB
:10586000F000CD2BCF70C093E900FF91EF91DF9155
:10587000CF91BF91AF919F918F917F916F915F91E8
:105880004F913F912F910F900FBE0F901F90189541
:105890001F93CF93DF93CDB7DEB7AA970FB6F894D7
:1058A000DEBF0FBECDBF8CE394E02091F100FC0180
:1058B0002193CF01F4E084349F07B9F70E943C277D
:1058C0008091E80083FF1EC180913C0490913D04CB
:1058D0009A3008F017C1E92FF0E0E159F04D0C942F
:1058E0001A2E803899F0823809F00CC1809140045A
:1058F0008F70873008F006C18093E9008091EB003B
:1059000085FB882780F91092E90006C08091380451
:1059100090913904911182609091E800977F909363
:10592000E8008093F1001092F1008091E8008E77FA
:10593000E5C0882309F4D3C0823009F0E3C0809128
:105940003E048111D6C0809140048F702FEF280F44
:10595000263008F0D7C08093E9002091EB0020FFAB
:10596000C8C0933031F48091EB0080628093EB00EB
:10597000C0C09091EB0090619093EB0021E030E08B
:1059800001C0220F8A95EAF72093EA001092EA00FC
:105990008091EB008860EACF8111B4C010913E0481
:1059A0001F778091E3008078812B8093E3008091C2
:1059B000E800877F8093E8000E94652A8091E800D4
:1059C00080FFFCCF8091E30080688093E30082E059
:1059D000111183E080933B0495C08058823008F019
:1059E00091C080913E0490913F048C3D23E092074A
:1059F000A1F583E08A838AE289834FB7F894DE01B8
:105A0000139620E03EE051E2E32FF0E05093570080
:105A1000E49120FF03C0E295EF703F5FEF708E2F9F
:105A200090E0EA30C0F0C7968D939D932F5F2431AC
:105A300059F74FBF8091E800877F8093E8006AE2C2
:105A400070E0CE0101960E9474298091E8008B7766
:105A50008093E80057C0C096E7CF609140047091F2
:105A60004104AE014F5F5F4F0E946128BC01892B4A
:105A700009F448C09091E800977F9093E8008981ED
:105A80009A810E94D229E1CF8038E1F58091E80027
:105A9000877F8093E800809137048093F10045CFA1
:105AA000811130C090913E04923060F58091E80001
:105AB000877F8093E800909337040E94652A809145
:105AC0003704882311F084E005C08091E30087FD4E
:105AD000FACF81E080933B040E94282713C0809175
