:100000000C9444030C948B030C948B030C948B037F
:100010000C948B030C948B030C948B030C948B0328
:100020000C948B030C948B030C948B030C94472A35
:100030000C94F82A0C941C220C948B030C948B03C4
:100040000C948B030C948B030C948B030C947322F1
:100050000C948B030C948B030C948B030C948B03E8
:100060000C948B030C948B030C948B030C948B03D8
:100070000C948B032900200021002E002300260071
:1000800027004B001E001F0022002D002400250029
:10009000310035002B00080015004A001C0012003A
:1000A00013004E0014001A001700490018000C003D
:1000B0002A00330039000700090047000B000F0039
:1000C00034003000040016000A004C000D000E0041
:1000D00028002F00E1000600190048001100370039
:1000E00038004D001D001B000500460010003600C2
:1000F000E5005200E000E2002C002C412C00E7005B
:10010000E4004F007600E3002C002C002C00E600F9
:100110005000510035003C003D00400041004400CB
:10012000450001003A003B003E003F004200430012
:1001300068004C0001000100010001000100010005
:1001400046000100010065000100010001000100FE
:100150000100010001000100010001000100010097
:100160000100010001000100010001000100010087
:10017000005C010001000100010001000100A90074
:10018000310001000100010001000100A800AA00E7
:1001900001000100005C01000100010001000100FC
:1001A00001000100005C0258010001000100010093
:1001B000010001000100C55CC65C010001000100F6
:1001C000010001000100C25CC75CC85C01000100C5
:1001D000010046003500200021000100010025003B
:1001E000260001001E001F00220001002300240041
:1001F0002700010035022002210201000100250232
:10020000260201001E021F02220201002302240214
:1002100027022A0001000100010001000100A900DD
:10022000310001000100010001000100A800AA0046
:1002300001000100005C010001000100010001005B
:1002400001000100005C010001000100010001004B
:100250000100010000000000000000002A2B28001F
:100260000000000000000000000000000000002965
:10027000000000002C1E3420212224342627252EA5
:10028000362D3738271E1F202122232425263333DD
:10029000362E37381F0405060708090A0B0C0D0E09
:1002A0000F101112131415161718191A1B1C1D2FD5
:1002B0003130232D350405060708090A0B0C0D0EF5
:1002C0000F101112131415161718191A1B1C1D2FB5
:1002D0003130354C0000000000000000000000003C
:1002E00000000000000000007E0F00D4FFFFFFC7E9
:1002F0000000007832190A00047F3F1F6432146442
:100300003214783C1E1E140A052223252628292A89
:100310002C2D2F3032333536383A3B3D3E40424368
:100320004547494A4C4E5051535557595A5C5E60A7
:1003300062646668696B6D6F71737577797B7D7FB9
:1003400081838587898A8C8E90929496989A9C9EB8
:100350009FA1A3A5A7A8AAACAEAFB1B3B4B6B8B9D4
:10036000BBBCBEBFC1C2C3C5C6C7C9CACBCCCDCE3C
:10037000D0D1D2D2D3D4D5D6D7D7D8D9D9DADADB1F
:10038000DBDBDCDCDCDCDCDDDDDDDDDCDCDCDCDCAB
:10039000DBDBDBDADAD9D9D8D7D7D6D5D4D3D2D2EA
:1003A000D1D0CECDCCCBCAC9C7C6C5C3C2C1BFBED2
:1003B000BCBBB9B8B6B4B3B1AFAEACAAA8A7A5A33D
:1003C000A19F9E9C9A98969492908E8C8A898785FC
:1003D00083817F7D7B79777573716F6D6B696866DB
:1003E0006462605E5C5A5957555351504E4C4A49AD
:1003F00047454342403E3D3B3A3836353332302F55
:100400002D2C2A292826252322FFAA7F55400001CA
:1004100001010101010101010202020202020202C4
:100420000203030303030303030404040404040496
:10043000050505050506060606060707070707085A
:10044000080808090909090A0A0A0B0B0B0C0C0C0D
:100450000D0D0D0E0E0E0F0F0F10101111111212A7
:1004600013131414151516161717181819191A1A24
:100470001B1B1C1D1D1E1E1F202021222223242485
:10048000252626272829292A2B2C2D2D2E2F3031C1
:100490003232333435363738393A3B3C3D3E3F40D3
:1004A0004142434445464748494A4C4D4E4F5051BE
:1004B0005354555658595A5B5D5E5F616264656678
:1004C00068696B6C6D6F7072737577787A7B7D7EFF
:1004D0008082838587888A8C8E8F91939596989A4F
:1004E0009C9EA0A2A3A5A7A9ABADAFB1B3B5B7BA67
:1004F000BCBEC0C2C4C6C9CBCDCFD1D4D6D8DBDD3B
:10050000DFE2E4E7E9EBEEF0F3F5F8FAFDFF0403D0
:1005100030000000120350006C0065007800750088
:1005200073003800300000000A034E0061007300C1
:10053000700000000403090409025B00030100A02D
:10054000FA09040000010301010009211101000161
:100550002240000705810308000A09040100020384
:100560000000000921110100012222000705820379
:100570002000010705030320000109040200010314
:1005800000000009211101000122810007058403F8
:1005900020000A1201100100000008707040630181
:1005A00000010203010660FF0961A1010962150053
:1005B00026FF009520750881020963150026FF00BB
:1005C000952075089102C005010902A10185020963
:1005D00001A10005091901290515002501950575D9
:1005E0000181029501750381010501093009311569
:1005F00081257F95027508810609381581257F952B
:100600000175088106050C0A38021581257F9501C0
:1006100075088106C0C005010980A1018503190183
:100620002AB700150126B700950175108100C00595
:100630000C0901A101850419012AA002150126A0B7
:1006400002950175108100C005010906A101050789
:1006500019E029E71500250195087501810295012A
:10066000750881010507190029FF150026FF00956F
:100670000675088100050819012905950575019180
:1006800002950175039101C011241FBECFEFD4E084
:10069000DEBFCDBF04B603FE27C080915303909107
:1006A0005403A0915503B09156038730904BA74057
:1006B000B04BD1F41092530310925403109255038F
:1006C0001092560314BE84B7877F84BF0FB6F89488
:1006D000A89580916000886180936000109260000E
:1006E0000FBEE0E0F8E3099511E0A0E0B1E0E2EE32
:1006F000FCE502C005900D92AA3DB107D9F723E0B1
:10070000AAEDB1E001C01D92A335B207E1F70E9446
:1007100028270C94202E0C94000081E0089581E09D
:1007200008950C948F0308950C9493031F93CF9313
:10073000DF9300D000D00F92CDB7DEB749835A8344
:100740006B833091580289819A8131111DC06623D3
:10075000B9F02223A9F00E94871F182F682F8981E2
:100760009A810E94281F69817A81812F0F900F90B2
:100770000F900F900F90DF91CF911F910C94DF128B
:100780000E945D1F182FEFCF0E94871F69817A8119
:10079000EDCFFC01262F40815181628173818481DC
:1007A0000C949603CF93DF93EC0160E00E94C903A1
:1007B000BE01DF91CF910C949403FF920F931F938E
:1007C000CF93DF93E82FF0E0EC5AFD4FF490C82F61
:1007D000C695C695C695D0E0FE01EC51FD4F04913B
:1007E000877010E0082E02C0159507950A94E2F76D
:1007F00001701127CC52DD4FFE01C491D0E002C040
:10080000D595C7958A95E2F7C170DD2701151105C9
:1008100019F081EE0E940E17209719F086EE0E94C3
:100820000E178F2D0E94F617CD2B19F086EE0E9421
:10083000A017012B41F081EEDF91CF911F910F9115
:10084000FF900C94A017DF91CF911F910F91FF9013
:100850000895EF92FF921F93CF93DF93EC01162F31
:100860008881882309F451C0813009F04BC0898107
:10087000813099F47E0122E0E20EF11C8A810E940F
:10088000F617E7012196812F815050F3EFE9FFE041
:100890003197F1F700C00000F7CF823041F47E01BC
:1008A00082E0E80EF11C8A810E940E17EACF8330A5
:1008B00041F47E01E2E0EE0EF11C8A810E94A01755
:1008C000E0CF843011F02196DDCF2A81229690E08E
:1008D00080E0FE0131962053330B2A30310548F079
:1008E000019780F2EFE9FFE03197F1F700C00000D7
:1008F000F7CF6AE070E00E94B32C820F931F29812A
:10090000EF01E7CF0E94DD03BDCFDF91CF911F91B3
:10091000FF90EF90089560E00C9429048F929F92CD
:10092000AF92BF92CF92DF92EF92FF920F931F93FD
:100930006B017C0181E090E0A0E0B0E04C015D0142
:1009400004C0880C991CAA1CBB1C4A95D2F7B5019F
:10095000A4014C015D0104C0880C991CAA1CBB1C9D
:100960002A95D2F7482959296A297B2904C0880F7A
:10097000991FAA1FBB1F0A95D2F78A019B010C2160
:100980001D212E213F21041715072607370789F45B
:100990008C299D29AE29BF29BC01CD011F910F9142
:1009A000FF90EF90DF90CF90BF90AF909F908F908F
:1009B000089580959095A095B0958C219D21AE21AC
:1009C000BF21EACF0F93382F262F6091C302709179
:1009D000C4028091C5029091C602042F432F0E9449
:1009E0008E040F910C94661E0E94BD220E94D1209D
:1009F000811102C00E946E210C946A070C946D074D
:100A000008950E94851A0E9400052FEF84E39CE060
:100A1000215080409040E1F700C000000C949722E4
:100A20000F931F93CF93DF93EC0161E00E94C90302
:100A30008C01BE010E94AF10882389F1BE01C8015C
:100A40000E949103882359F1BE01C8010E94351408
:100A5000882329F1BE01C8010E9487148823F9F078
:100A6000BE01C8010E94AA158823C9F0BE01C801B1
:100A70000E94BB0F882399F08A81882339F00115E1
:100A80008CE5180751F00E3D1C4579F0CE01DF9141
:100A9000CF911F910F910C948D030E94010580E06E
:100AA000DF91CF911F910F9108950E946E21F7CF92
:100AB00008950C94580581E008950C945B05CF933C
:100AC000C82F0E9459058C2FCF910C945D0590E0A2
:100AD00080E008950895FC01EE0FFF1FEC50FD4FDC
:100AE000859194910895CF93DF930E94DF120E9425
:100AF0008F06EC01811520E5920708F042C08115B0
:100B000030E4930708F0BFC0883E910528F5803E89
:100B1000910508F0A0C0883A910588F4853A9105BE
:100B200008F092C08130910509F495C0009709F44E
:100B300092C0049708F08FC0D0E0C0E08CC08F3B1B
:100B4000910508F48CC0805C9109C03CD105A0F3EC
:100B50000E946B05EC017FC0811540E2940750F4C0
:100B6000C11581E0D80708F076C0C03FD10520F359
:100B7000D06571C0811520E3920708F07BC09F709B
:100B8000E7CF811535E5930770F5811544E59407A6
:100B900008F0ADC0C11582E5D80750F4C11521E5B4
:100BA000D20708F473C0DC2FCC27C16FD06A53C0C2
:100BB0009C2F969596959E0123703327C115D3459A
:100BC00008F083C0C1E0D0E002C0CC0FDD1F2A9541
:100BD000E2F7892F90E0E5E0880F991FEA95E1F7A9
:100BE000C82BD92B70C0C11589E5D807A8F4C11549
:100BF00028E5D20708F080C0C11536E5D30708F014
:100C00009BCF8C2F0E942607C82FD0E0DC2FCC274B
:100C1000CC27DF71D0621FC0C1154AE5D40708F4A4
:100C200070C0CE0190568115904208F085CF8D2F6F
:100C30008F710E94260790E0982F882788279F7140
:100C40009C012C2BE901E6CFC55AD0E0C65ADE4FF5
:100C5000C881D0E0D064CE01DF91CF910895C85A09
:100C6000D0E0CC0FDD1FC45DDE4F0990D881C02DD0
:100C7000D464F1CF9927D3FF03C0EC01D86CEBCF3C
:100C8000EC01D06CE8CFDF70D06AE5CFCE01A4E0F4
:100C900096958795AA95E1F783702C2F2695269532
:100CA000237030E0B5E0220F331FBA95E1F7382BFF
:100CB0008C2F8370C1E0D0E002C0CC0FDD1F8A957D
:100CC000E2F7C22BD32BDC68C6CFC1E0D0E002C074
:100CD000CC0FDD1F2A95E2F7892F90E075E0880F91
:100CE000991F7A95E1F7C82BD92BDA68B4CFD82FA2
:100CF000CC27C46FD06AAFCFDC2FCC27C06FD06AAF
:100D0000AACF8C2F8F700E94260734E0D695C79506
:100D10003A95E1F7CF709C2FEC01D0699CCF8238D7
:100D20009105B1F1B0F48133910509F475C048F42F
:100D30008932910509F469C08A32910509F473C0BA
:100D400008958533910509F459C08933910501F15E
:100D50000895833E9105A9F138F4803E9105F9F09C
:100D6000823E910549F10895863E9105A9F1873E9D
:100D70009105C9F1843E910519F52091450321FFA4
:100D80001FC08091440384FD14C087EE90E0089555
:100D9000209144032370A1F080EE90E0089520910B
:100DA000440320FD47C03091450330FF09C024FFB4
:100DB00044C090E080E004C02091440322FDF7CFBE
:100DC00008952091440322FD3BC03091450330FD3E
:100DD000E3CF24FFF5CFEDCF2091440323FFF0CFE5
:100DE00024FDE7CFD2CF2091440323FD2CC03091C6
:100DF000450331FFEECF84EE90E008952091440347
:100E000025FFDECF89E290E008952091440325FF7D
:100E1000D7CF85E390E008952091440326FFD0CFFB
:100E20008AE290E008952091440326FFC9CF81E330
:100E300090E0089589E390E0089583EE90E00895AE
:100E400082EE90E0089586EE90E00895909144033C
:100E500092FF06C0282F28712830F9F4877F84601C
:100E600093FF06C0282F28712831F1F4877E846112
:100E70002091450320FF06C0382F38713830D9F44F
:100E8000877F816021FF06C0282F28712831D1F487
:100E9000877E816194FD877E0895282F24712430F8
:100EA000F9F68B7F8860DCCF282F2471243101F77D
:100EB0008B7E8861DDCF382F3171313019F78E7F0D
:100EC0008860E0CF282F2171213121F78E7E886143
:100ED000E1CF08950C94690708950C946C07E82FEE
:100EE000F0E0E550FD4F80810895089580EA8A95ED
:100EF000F1F70895A5E6B1E061E070E08D91E82F8B
:100F0000E295EF70F0E041A18F709B0101C0220FCC
:100F10008A95EAF7922F9095942391A382A1822B30
:100F200082A381E0AF36B80749F7ADE5B1E061E0F3
:100F300070E08D91E82FE295EF70F0E041A18F70A5
:100F40009B0101C0220F8A95EAF7922F9095942376
:100F500091A382A1822B82A381E0A536B80749F72D
:100F6000E1EFF2E0ABEFB2E08BEF92E011921D9275
:100F70008E179F07D9F78AE00E9440080C94F4046A
:100F80008F929F92AF92BF92CF92DF92EF92FF9299
:100F90000F931F93CF93DF9385E6A82E81E0B82EA1
:100FA00001EF12E0912CCC24C394D12CF501819156
:100FB0005F01C82FC295CF70D0E099A18F707601E4
:100FC00001C0EE0C8A95EAF7892F8E2989A38AA1A0
:100FD0008E2C809488218AA30E947607EDE5F1E0AB
:100FE00050E040E020E03191A32FA295AF70B0E037
:100FF00090968C9190E03F7002C0959587953A95B8
:10100000E2F780FD39C08C2D042E01C0880F0A94B0
:10101000EAF7282B4F5F5F4F4830510521F789A130
:10102000882289A28AA1E82AEAA2F80180812817E9
:1010300029F1208381E0982A0F5F1F4FFFE6AF164A
:10104000F1E0BF0609F0B2CF292D4AE06BEF72E064
:1010500081EF92E00E9441080E94FE04892DDF91F9
:10106000CF911F910F91FF90EF90DF90CF90BF90A5
:10107000AF909F908F90089580E0CBCF80E0DBCF42
:101080000895FF920F931F93CF93DF93F82E092FAC
:10109000162FD72FC42F222349F081E08093DC0143
:1010A0000E944C229093DB018093DA018091DC0155
:1010B0008823A1F08091DA019091DB010E946422E3
:1010C000069760F0EF2DF02FA12FBD2FCE0FDF2F51
:1010D000D11DEC17FD0741F41092DC01DF91CF9197
:1010E0001F910F91FF90089581918D93F2CFEF9210
:1010F000FF920F931F93CF93DF93982F711111C01D
:10110000442329F0E82FF0E0E25FFB4F9491692F30
:10111000792F892FDF91CF911F910F91FF90EF9041
:101120000895262F30E0C72FD0E0E82FF0E04423C9
:1011300021F0E25FFB4FE491F0E0C90166E070E06E
:101140000E94B32C0FEF10E0B8010E94F72CDB01D6
:10115000220F331FCB0165E570E00E94B32C281BE2
:10116000390BE22EEE0CE20EC8018C1B9D0BBF0169
:101170000E94B32C292FF12CC701BE010E94B32C71
:10118000492F50E0C801841B950BBF010E94B32C6E
:10119000392FC8018E199F09BE010E94B32C492F17
:1011A00050E0C801841B950BBF010E94B32C892F0E
:1011B0007E2FA230B10589F038F4109759F01197BD
:1011C00081F0922F232F06C0A430B10569F080F082
:1011D0001697B9F7692F822F9DCF9E2F722F282F38
:1011E000F9CF9E2F732FF6CF922F2E2F782FF2CF7D
:1011F000722F2E2F932FEECF41E00C947708089595
:10120000CF93DF93762FE901682F842F0E94FC088B
:10121000798368838A83DF91CF9108958091050354
:10122000982F9E7F29F48170826080930503089532
:101230008635E8F381708465F8CF88E090E00C94FF
:10124000C12DCF92DF92EF92FF926B017C010E9441
:101250000E09B701A60188E090E0FF90EF90DF90C3
:10126000CF900C94DF2D609105037091060380915F
:101270000703909108030C942109E5E0F3E083E073
:10128000808311828FEF82838383148260817181D6
:10129000828193810C9421098091050380FF02C013
:1012A0008695089580E0089590910903933018F48D
:1012B0009F5F90930903882351F06091050370911B
:1012C000060380910703909108030C942109089567
:1012D00081E00C94540990910903992319F09150DD
:1012E00090930903882351F06091050370910603E0
:1012F00080910703909108030C942109089581E0DF
:101300000C946B0980910903089580930903662367
:1013100051F060910503709106038091070390914D
:1013200008030C942109089560E00C9485098091CC
:101330000603089580910703089580910803089596
:1013400070E00C942B10309108018091050380FF10
:101350000CC08091070190E063E070E00E94B32C24
:10136000632F865F9C4F0C94A00920910901409146
:101370000A01822F90E063E070E00E94B32CFC0130
:10138000E65FFC4F241728F71182108212822F5F2C
:101390003396F8CFA82FB62F8091050380FF17C092
:1013A0002091090130910A01822F90E063E070E002
:1013B0000E94B32CFC01E65FFC4F231710F00C9445
:1013C000A309A183B08342832F5F3396F6CF08959C
:1013D000CF93DF9300D00F92CDB7DEB79091050386
:1013E00090FF0AC09E012F5F3F4F0E9400094B8172
:1013F00069818A810E94CA090F900F900F90DF9136
:10140000CF910895CF93DF93EC01EC81F0E0E75F9B
:10141000FC4F4491E5E0F3E0628181810E94E8099C
:101420008C818F5F8C83DF91CF910895CF93DF9371
:10143000EC01E5E0F3E0438162818C810E94E809E0
:101440008C818F5F8C83DF91CF9108950F931F93D1
:10145000CF93DF9300D00F92CDB7DEB78C01809190
:10146000DD0181110AC09E012F5F3F4F4FEF6FEFEB
:101470000E9400098A818093DD01F8016481613056
:1014800069F08091DD0140E0662361F040E0623068
:1014900011F44091DD0180E060E004C06091DD0165
:1014A00040E080E00E94CA09F801848190E0019642
:1014B00063E070E00E940B2D84830F900F900F90DB
:1014C000DF91CF911F910F910895AF92BF92CF926C
:1014D000DF92EF92FF920F931F93CF93DF9300D091
:1014E0000F92CDB7DEB7182FF62E042FE22E909173
:1014F000050390FF29C0E92FE695AE2FB0E0A15972
:10150000BE4F8C91809341029E7F923059F59E018F
:101510002F5F3F4F812F0E9400094B8169818A8193
:101520000E94CA0910930603F09207030093080370
:10153000EE2051F06091050370910603809107033E
:10154000909108030E9421090F900F900F90DF9156
:10155000CF911F910F91FF90EF90DF90CF90BF90B0
:10156000AF900895823019F400910803DBCF8630E4
:1015700019F410910603D6CF8930D9F3893191F649
:10158000E9518E2F8170D82EE695F0E0E75FFB4F92
:10159000A590B490C12CBB2440910B01C41618F047
:1015A0000E94A309BFCF2C2D30E0C501B9010E94D4
:1015B000B32C642F70E00E94F72CE12FD11014C0DF
:1015C000E60F80910901820F932F911D63E070E077
:1015D0000E94B32C9C01265F3C4F402F6F2D8E2F15
:1015E0000E940009C394D8CFE61BEBCFE5E0F3E0FF
:1015F0009181282F438162818CE0890F0C94650AC8
:1016000081E00C94F60AE5E0F3E09181282F438114
:10161000628184EF890F0C94650A81E00C94030BBE
:10162000E5E0F3E062812CE0620F08F46FEF282F11
:10163000438181810C94650A81E00C94100BE5E0F4
:10164000F3E062812CE0621B08F460E0282F438104
:1016500081810C94650A81E00C941F0BE5E0F3E0B6
:1016600043812CE0420F08F44FEF282F62818181E3
:101670000C94650A81E00C942E0BE5E0F3E04381C5
:101680002CE0421B08F440E0282F628181810C94F9
:10169000650A81E00C943D0B20E00C94650AEF9202
:1016A000FF921F93CF93DF93EC0110E0EE24EA94B6
:1016B000F12C30910B01131770F00E94A3099A814D
:1016C0008C8190FF27C08F5F8C83DF91CF911F911A
:1016D000FF90EF90089580910901810F9927991F3C
:1016E00063E070E00E94B32CFC01E65FFC4F632FC7
:1016F00070E0C7010E940B2D812F0E94AA2C9C81B3
:101700009F014091080360910703890F0E9400091F
:101710001F5FCFCF8150D8CFAF92BF92CF92DF92D1
:10172000EF92FF920F931F93CF93DF93FC0182817F
:10173000DFEF80FFD1E0C0E032E1A32E80910B010A
:10174000C817C8F00E94A3098091DF01D13009F0C9
:1017500054C0811102C080910B0181508093DF0140
:10176000DF91CF911F910F91FF90EF90DF90CF907D
:10177000BF90AF90089580910901CC2ED12C8C0D93
:101780009D2D911D63E070E00E94B32C865F9C4FFD
:101790007C01FC0111821082128204E010E0B12C65
:1017A0008091DF018B0D833114F16A2D0E94E92CA9
:1017B000892F082E000C990BC816D90691F4809138
:1017C000080390E0B8010E94B32C959587959595F4
:1017D00087959701482F60910703809106030E9427
:1017E0000009BD0E01501109D9F6CF5FA7CF87FFC1
:1017F000E0CF90910B01890FDCCF90E001966091D2
:101800000B0170E00E940B2DA9CFCF93209109010D
:1018100030910A01822F90E063E070E00E94B32CC7
:10182000FC01E65FFC4F231720F1C0E060910B0143
:10183000C61728F10E94A309209105018091DE01BD
:10184000820F8093DE0190910601920F9093060122
:10185000191654F4082E000C990B40910B014150BD
:10186000550B841795071CF0219520930501CF9106
:1018700008951182108212822F5F3396D4CFEC2FFD
:10188000F0E070E0CF010E940B2D90910901890FCB
:1018900090E02091DE01022E000C330B63E070E03B
:1018A0000E94B32CE217F307ACF020910601022E40
:1018B000000C330B2E173F076CF09C01265F3C4F4A
:1018C0004091080360910703809106030E9400097C
:1018D000CF5FACCFFC01E65FFC4F11821082128219
:1018E000F7CF4F925F926F927F928F929F92AF92BB
:1018F000BF92CF92DF92EF92FF920F931F93CF93FD
:10190000DF938C01FC01C481CC2ED12CF12CE12C75
:10191000A7019601C701B6010E94C42CA701960138
:101920000E94C42C2B013C0130E2C32ED12CCC1AD6
:10193000D1080D2C000CEE08FF0825E530E040E052
:1019400050E00E94C42C4B015C01A7019601C70125
:10195000B6010E94C42CA70196010E94C42C9B01D1
:10196000AC01240D351D461D571DC501B4010E9453
:101970001F2DD22F822F90E02A32A0F563E070E075
:101980000E94B32C97FD019695958795C82FC09519
:10199000F12C85E5E82EED1A80910B01F81648F13F
:1019A0000E94A309F801948181E0992319F09032F3
:1019B00019F48FEF8093040180910401890FF801DD
:1019C0008483DF91CF911F910F91FF90EF90DF9073
:1019D000CF90BF90AF909F908F907F906F905F90CF
:1019E0004F90089525E530E0A901481B590BCA0125
:1019F000C5CFEE2DF1FCED2F809109018F0D9927B8
:101A0000991F63E070E00E94B32C9C01265F3C4F5D
:101A10004C2F609107038E2F0E940009F394BCCFD6
:101A20000F931F93CF93DF938C01D0E0C0E03091F0
:101A30000B013C171D0609F074F40E94A309F8017C
:101A4000848190E00196817099278483DF91CF9102
:101A50001F910F910895809109018C0F9D2F911D69
:101A600063E070E00E94B32CAC01465F5C4FF8016C
:101A70009481609107038091060336953C171D06FB
:101A800051F04CF0992349F09A01409108030E94CB
:101A900000092196CCCF9923B9F39A0140E0F7CF02
:101AA0009F92AF92BF92CF92DF92EF92FF920F93ED
:101AB0001F93CF93DF93FC01C280A48081E08483D5
:101AC000D12C8BE4B82E992493940FEF10E09BE473
:101AD000E92EF12C80910B01D81668F0DF91CF919F
:101AE0001F910F91FF90EF90DF90CF90BF90AF903C
:101AF0009F900C94A309CD2DD0E0CE0165E070E05D
:101B00000E94B32CFC01E052FE4FA1101DC01382B5
:101B10001282809109018C0F9D2F911D63E070E06E
:101B20000E94B32C9C01265F3C4FCE0165E070E023
:101B30000E94B32CFC01E052FE4F42816181808102
:101B40000E940009D394C6CF23812223A1F1215002
:101B5000238344813B2D321B411101C0322FCE0122
:101B600065E070E00E94B32CFC01E052FE4F8091D2
:101B70000803632F70E090E00E94B32CB7010E942D
:101B8000F72C6283211104C0442311F01482B38224
:101B900022E02C1508F4BDCFCE0165E070E00E9474
:101BA000B32CFC01E052FE4F8091060380838091AC
:101BB00007038183AECF0E949C2D823091400CF0B0
:101BC000A8CFF2E020910603FC1530F40E949C2D72
:101BD000B8010E940B2D282FCE0165E070E00E9415
:101BE000B32C80529E4FFC012083F2E0209107032A
:101BF000FC1550F40E949C2D209107032695622F1E
:101C000070E00E940B2D280FCE0165E070E00E946D
:101C1000B32CFC01E052FE4F21831282B3829482E6
:101C200078CFE5E0F3E080818E7F808360817181F1
:101C3000828193810E942109109242022FEF80E756
:101C400092E0215080409040E1F700C000000C94E9
:101C5000A309E5E0F3E080818E7F80831092420249
:101C60002FEF80E792E0215080409040E1F700C0E4
:101C700000000C94A30960910503669570E04BE0A9
:101C800050E08CE091E00E94AC2D892B19F481E0AA
:101C9000809342020E944C2290933B0280933A022E
:101CA00008959091050390FF35C09170811128C06F
:101CB000926090930503662351F060910503709143
:101CC000060380910703909108030E942109609107
:101CD0000503669570E04BE050E08CE091E00E94D7
:101CE000AC2D892BA1F01092420281E080933D023D
:101CF0004091080360910703809106030C944C0BFC
:101D00008B3210F09465D5CF880F982BD2CF0E94DC
:101D10003B0EEBCF0895682F90910503969581E0D7
:101D2000890F8B3208F081E00C94510E81E00C9405
:101D30008B0E682F9091050396958FEF890F09F40C
:101D40008AE20C94510E81E00C94990E61E00C949F
:101D5000510EE5E0F3E080818160808386950C94EC
:101D6000A60E8091050380FD0C94110E0C94A90E13
:101D700060E00C94510E8091400281112EC00E94AF
:101D8000D120811104C00E946E210E943D090E9451
:101D90001D096093050370930603809307039093D6
:101DA00008036E7F61F40E943D090E941D09609343
:101DB00005037093060380930703909308030E9422
:101DC0000E09109242028091050380FF03C08695A0
:101DD0000E94B80E81E0809340020895E5E0F3E0B0
:101DE00080818160808386950C94B80E0F931F9339
:101DF000CF93DF9380914202882309F49DC08091A4
:101E00004102E0910503E695E81BE0933C02823035
:101E1000C9F5F0E0EB5FFC4FE491CE2FD0E002E09B
:101E20001AE080913D02882389F010923D020E94C1
:101E30004C229E0120953095820F931F90933B0278
:101E400080933A0210923F0210923E0280913A0231
:101E500090913B020E9464228C179D0708F46CC08D
:101E6000E0913A02F0913B02CE0FDF1FD0933B028C
:101E7000C0933A028AE392E0F801DF91CF911F917B
:101E80000F910994863049F4F0E0EE5FFC4FE49145
:101E9000CE2FD0E006E11AE0C4CF893051F4E695A8
:101EA000F0E0E150FD4FE491CE2FD0E00FE41BE0D5
:101EB000B8CF8F3051F4E695F0E0E450FD4FE49157
:101EC000CE2FD0E00CE81BE0ACCF853149F4F0E038
:101ED000E750FD4FE491CE2FD0E005E01CE0A1CF0C
:101EE000C8E2D0E001E71CE0883109F49ACF8332E0
:101EF00039F4E7EFF2E0C591D49106E21AE091CF10
:101F0000C4EFD1E000E11DE0843209F48ACFC0EDD6
:101F1000D7E00FEF18E0853209F083CF8E2F63E012
:101F20000E94DD2CE92FF0E0EC50FD4FE491CE2F24
:101F3000D0E000E51DE075CFDF91CF911F910F91AB
:101F40000895FA01811101C0FB010994CF93DF9339
:101F5000C82FD62F0E944C098C1740F00E944C09C4
:101F60008D1720F4DF91CF910C94960E8C2FDF917A
:101F7000CF910C94A60E0F931F93CF938C01FB016E
:101F8000C281CC2309F465C00E941C208272F80132
:101F9000E25CFC45E431F10538F4EE5DF14D0C9462
:101FA000412D0E94B10EC0E08C2FCF911F910F9157
:101FB000089543EA5EE066E97EE00E94A10FF3CF58
:101FC00046E95EE063EA7EE0F8CF4DE05BE060E08A
:101FD0007BE0F3CF40E05BE06DE07BE0EECF4BE2F7
:101FE0005BE06CE17BE0E9CF4CE15BE06BE27BE046
:101FF000E4CF49E45BE06AE37BE0DFCF4AE35BE008
:1020000069E47BE0DACF4FE759E068E679E0D5CFC5
:1020100048E659E06FE779E0D0CF81E00E94A60E54
:10202000C2CF65E082E00E94A60FBDCF68E086E0E7
:10203000FACF6EE089E0F7CF64E18FE0F4CF67E19B
:1020400085E1F1CF88E1EACF62E289E1ECCF83E27A
:10205000E5CFC1E0A9CF9C01CB013A9A48B14B7FB3
:10206000E8B1E460FFB7F89463E070E00E94B32C3D
:10207000820F931F8217930741F4FFBF8FE594E00F
:102080000197F1F700C000000895D9015D919D010D
:1020900068E0E8B9000000C057FF48B9550F0000DC
:1020A00000C000C000C048B900C06A9591F7E2CFF7
:1020B00082E290E00E94B92D813289F483E290E0BF
:1020C0000E94B92D823159F484E290E00E94B92D2A
:1020D00091E0813009F090E0892F8170089580E0CF
:1020E000FCCFCF93C82F6FEF811161E282E290E0C5
:1020F0000E94CD2D6FEFC11162E183E290E00E945A
:10210000CD2D6FEFC11161E084E290E0CF910C948E
:10211000CD2D80E00E9471100C94CB20089585E2B3
:1021200090E00E94B92D682F70E090E080E0089563
:1021300085E290E00C94CD2D0E948E100E945810E4
:1021400081110CC060E070E0CB010E9498100E94E9
:1021500057120E94431381E00C9471100895CF939D
:10216000FB01C281CC2309F19C0122513F45203162
:10217000310520F582510E945313C0E08C2FCF917E
:10218000089581E00E948C1E43E062E081E00E949D
:10219000E204F3CF81E00E94AD1E43E062E081E003
:1021A0000E94E204EBCF82E0F6CF8031FFE59F078B
:1021B00089F381319F45B9F3C1E0E0CF8031EFE58C
:1021C0009E07F9F281319F45C9F682E0DBCF2FEF00
:1021D000FC0120830895CF93DF93EC01888181383F
:1021E000A9F028F4803871F0DF91CF9108958238FA
:1021F00081F08338C9F70E94970989830E949A0960
:102200008A83F2CF0E949D098983EECF0E944C09F8
:10221000FBCF0E948209F8CFCF93DF93EC01888136
:102220008138E1F028F4803869F0DF91CF9108958A
:10223000823811F18338C9F70E949D09482F6A81BD
:10224000898108C0D9810E949A09C82F0E949709E4
:102250004D2F6C2FDF91CF910C944C0B89810E94F4
:10226000B80E8981811104C0DF91CF910C94290EA1
:10227000DF91CF910C94EE0E8981DF91CF910C9478
:102280009409EF92FF920F931F93CF93DF93EC018A
:10229000062FDC01ED91CD01E150E33108F0BFC024
:1022A000F0E0EA5CF14D0C94412D198289E08A83BB
:1022B000602FCE01DF91CF911F910F91FF90EF9092
:1022C0000C942F268981823069F0833071F081303F
:1022D000D9F40E9458220E94472D6A837B838C8305
:1022E0009D83E6CF0E948F10F6CF7E01B2E0EB0E09
:1022F000F11C10E0812F0E946F07F70181937F018D
:102300001F5F1A30B9F7D4CF602FCE010E94E710BB
:10231000CFCF89818230C1F76A817B818C819D8199
:102320000E94472D0E949810C3CF4B816A818981FA
:102330000E9429129827892798279D838C83B8CFDC
:102340002C813D813227232732274B816A81898165
:102350000E944212ADCF0E945712AACF0E940C11C8
:10236000A7CF0E94EB10A4CF0E943309A1CF0E94F7
:10237000EC1289839DCF0E94EE1298278927982717
:102380009A83898395CF6B8170E089819A81AE01B0
:102390004C5F5F4F9827892798270E94F11288CFBA
:1023A0006B8170E089819A81AE014C5F5F4F982705
:1023B000892798270E9418137BCF0E94431378CF58
:1023C0000E941212D6CF6B8170E089819A81AE0192
:1023D0004C5F5F4F9827892798270E948F1268CFFC
:1023E0006B8170E089819A81AE014C5F5F4F9827C5
:1023F000892798270E94B5125BCF0E94891058CF79
:10240000CE010E942F26FFEF21EE84E0F150204004
:102410008040E1F700C000000E94972249CF8FEF73
:10242000888346CF84E00895262F30E094E0220F81
:10243000331F9A95E1F750E0440F551F240F351FC5
:1024400090E060EA70E00E94B32C820F931F8696A2
:1024500008950F931F93CF93DF930E9414128C0162
:102460000E94B92DC82FD0E0DC2FCC27C8010196DF
:102470000E94B92D9E01282BC901DF91CF911F9198
:102480000F9108950F931F93CF93DF93122F032F74
:102490000E941412EC01602F0E94CD2D612FCE01FD
:1024A0000196DF91CF911F910F910C94CD2DAF929A
:1024B000BF92CF92DF92EF92FF921F93CF93DF9361
:1024C00084E7C82E80E0D82ED0E07601C0E014C0AA
:1024D000F50125913491412F6C2F8D2F0E944212CE
:1024E00082E0A80EB11C1F5F183091F780E1E80E62
:1024F000F11CCF5FCA3019F0570110E0E9CFDF5F60
:1025000080EAC80ED11CD43001F7DF91CF911F9122
:10251000FF90EF90DF90CF90BF90AF900895EF9233
:10252000FF920F931F93CF93DF93EC018A017C01FD
:10253000E60EF71ECE018696CE15DF0539F4DF9143
:10254000CF911F910F91FF90EF900895C03822E036
:10255000D20740F40E94B92DF80180830F5F1F4F0E
:102560002196E8CFF8011082F9CFCF92DF92EF9257
:10257000FF920F931F93CF93DF937C016A018C012D
:10258000060F171FEC01CE018696C017D10749F43C
:10259000DF91CF911F910F91FF90EF90DF90CF903F
:1025A0000895C03822E0D20740F4FE01EE19FF0979
:1025B000EC0DFD1D60810E94CD2D2196E4CF462FAC
:1025C000843038F47A3028F4683018F4672F0C948B
:1025D000291290E080E0089580E108958AE591E075
:1025E0000895EF92FF920F931F93CF93DF93EC0127
:1025F0008A017C01E60EF71ECE018A559D4FCE154D
:10260000DF0539F4DF91CF911F910F91FF90EF908B
:102610000895CA3521E0D20740F40E94B92DF8018F
:1026200080830F5F1F4F2196E7CFF8011082F9CF0B
:10263000CF92DF92EF92FF920F931F93CF93DF938E
:102640007C016A018C01060F171FEC01CE018A552F
:102650009D4FC017D10749F4DF91CF911F910F9182
:10266000FF90EF90DF90CF900895CA3521E0D20718
:1026700040F4FE01EE19FF09EC0DFD1D60810E9482
:10268000CD2D2196E3CFCF93DF93C6EAD2E060E071
:10269000CE010E94CD2D2196C11584E0D807B9F74F
:1026A000DF91CF910895DF92EF92FF920F931F93E6
:1026B000CF93DF9300D000D0CDB7DEB7F82E8FE0F8
:1026C0008F1540F08FEF93E00E94B92D06EA12E0DB
:1026D0008823C1F00F900F900F900F90DF91CF9152
:1026E0001F910F91FF90EF90DF900895011584E006
:1026F000180781F3C8010E94B92D811101C0FA9415
:102700000F5F1F4FF110F2CF19821A821B821C82B9
:10271000DD24D39478018FEFE81AF80AC8010E94EB
:10272000B92D89831A828823A9F29FEF980F9330DD
:1027300078F48A83D9820E5F1F4FC7010E94B92D9A
:102740008B83882339F2CE0101960E948B04E2CF5D
:102750008701F9CFAF92BF92CF92DF92EF92FF92B3
:102760000F931F93CF93DF937C015B01C42FD22F74
:10277000FC0182818823F9F0409345020E944C229B
:10278000909344028093430280E28C0F883008F0DB
:1027900061C0C77081E001C0880FCA95EAF7DF9178
:1027A000CF911F910F91FF90EF90DF90CF90BF904E
:1027B000AF900C94091810914502141340C08091F9
:1027C0004302909144020E9464226C01B701C5014A
:1027D0000E94011DC816D90690F5C0E2CD0F1D1745
:1027E000B9F080E2810F883040F4177081E001C0B9
:1027F000880F1A95EAF70E941018C83048F481E053
:102800009D2F977001C0880F9A95EAF70E940918CA
:10281000802F0E94F617C830E8F4D77081E001C01D
:10282000880FDA95EAF7DF91CF911F910F91FF9012
:10283000EF90DF90CF90BF90AF900C94101880E293
:102840008C0F883038F4C77081E001C0880FCA95BA
:10285000EAF7E9CFDF91CF911F910F91FF90EF90B1
:10286000DF90CF90BF90AF9008950F939C01CB0164
:10287000233F4CE5340759F1A8F4283DFCE53F0718
:1028800001F1293D4CE53407D1F1273D3C4591F458
:1028900006E221EE41EE67ED7CE50E94AA1380E09E
:1028A0000F910895253FFCE53F07E9F0B0F0263F82
:1028B0003C45F9F0FC018281882339F110924502F0
:1028C000EFCF07E225EE45EE68ED7CE5E6CF06E2C8
:1028D00021EE40EE63EF7CE5E0CF07E225EE44EE2B
:1028E00064EF7CE5DACF06E221EE42EE65EF7CE5AF
:1028F000D4CF07E225EE46EE66EF7CE5CECF08E2C8
:1029000021E045EE69ED7CE5C8CF81E0C9CFCF93EA
:10291000DF93EC01FB018281882309F419C1C230E5
:10292000FCE5DF07C0F1C6319CE5D90730F09E0118
:102930002A5F3C452930310570F50E94E4209093D0
:10294000450380934403C031ECE5DE0709F4CFC0B2
:1029500008F05BC0C8308CE5D80709F4B6C088F52C
:10296000C430ECE5DE0709F4A8C0C0F4C2308CE541
:10297000D80709F49CC0809144038260C330DC45D1
:1029800009F498C080914403909145030E94F2207D
:102990000E94851A80E0DF91CF91089580914403D1
:1029A0008061C630ECE5DE0709F484C08091440301
:1029B0008860C730DC4508F47DC0809144038062A4
:1029C00079C0CC308CE5D80709F489C070F48091C7
:1029D00044038C60CA30ECE5DE0709F46BC008F4F0
:1029E00078C0809144038E7F65C0CE308CE5D807D7
:1029F00009F479C0809144038B7FCF30DC4508F423
:102A000059C0809144038F7E55C0CB3FECE5DE0773
:102A100009F457C030F5C3318CE5D80709F46FC00D
:102A200078F4C131ECE5DE0709F465C0C231DC455C
:102A300009F0A8CF0E94851A809144038F773AC08D
:102A4000C5318CE5D80709F462C008F476C08091DE
:102A500045038160CA3FDC4509F094CF809345036C
:102A600091CFCF3FFCE5DF0709F44DC088F480919A
:102A700045038D7FCD3F9CE5D90781F380914503C8
:102A80008E7FCE3FDC4550F3809145038360E6CFD7
:102A9000C130FDE5DF0709F459C008F444C080E007
:102AA000C230DD4509F06ECF0E9470216BCF80915E
:102AB000440381608093440365CF80914403846024
:102AC000F9CF809145038260C9CF8091440380642F
:102AD000F1CF0E94851A809144038068EBCF8091EA
:102AE00044038D7FE7CF80914403877FE3CF8091BC
:102AF00044038F7DDFCF809144038F7BDBCF8091B8
:102B00004403837FD7CF809145038C7FA7CF8091EB
:102B1000440382FB992790F921E0922790FB82F9E8
:102B200090FB83F9C7CF80914503982F90959170C2
:102B30008E7F892B90FB81F991CF0E94851A90910D
:102B40004403892F97FB87F98058B4CF81E0ACCF3D
:102B500081E021CFCF93DF93EB0186319C4511F5C6
:102B60000E941C209A81992399F08A7A91E009F4B5
:102B700090E090934602811109C089E20E94F71FFC
:102B80000E94682080E0DF91CF91089585E3F6CF21
:102B900080914602811104C089E20E94FE1FF0CF9D
:102BA00085E3FBCF81E0EFCF90934C0280934B0203
:102BB0000895E0914B02F0914C02309721F0019082
:102BC000F081E02D099480E00895E0914B02F091AE
:102BD0004C02309721F00280F381E02D0994089592
:102BE000E0914B02F0914C02309739F022E0DC0189
:102BF0002C930480F581E02D0994089520914902D9
:102C000030914A022817390771F090934A02809355
:102C10004902E0914B02F0914C02309721F006807E
:102C2000F781E02D099408952091470230914802E0
:102C30002817390771F09093480280934702E0917A
:102C40004B02F0914C02309721F00084F185E02D89
:102C500009940895089508950C942A1608950C94E3
:102C60002E160E942B160C942C1681E008950C94BD
:102C700035160E9443220E947A070E949C100E94EF
:102C8000D1220E94BB0E0C942F16BF92CF92DF92DE
:102C9000EF92FF920F931F93CF93DF93CDB7DEB7E1
:102CA0002A970FB6F894DEBF0FBECDBF0E94C007B3
:102CB0000E943716882309F461C08EE4C82E82E092
:102CC000D82E10E000E0B02E802F0E946F07E82E73
:102CD000F601F1906F01F81609F44AC08091D8020C
:102CE00081FD0E9475079F2D9E2580E0FF24F394AF
:102CF000292F2F21C1F18E83BF82EF2081E009F4BB
:102D000080E088870E944C228160782F9A8789878B
:102D10004E815F8168858A850E94DF16F801E25B3B
:102D2000FD4F8081F826F0820E94F60E0E948024DA
:102D30000E94D91590914D02891789F10E94D915E9
:102D400080934D022A960FB6F894DEBF0FBECDBF1A
:102D5000DF91CF911F910F91FF90EF90DF90CF9077
:102D6000BF900C945F058F5FFF0C883009F0C0CFD7
:102D70000F5F1F4F0A30110509F0A5CF8FEF898330
:102D80008A831B820E944C228160782F9D838C83D2
:102D900049815A816B818D810E94DF16C5CF2A96A9
:102DA0000FB6F894DEBF0FBECDBFDF91CF911F915C
:102DB0000F91FF90EF90DF90CF90BF900895CF9349
:102DC000DF93CDB7DEB72B970FB6F894DEBF0FBEFB
:102DD000CDBF4F83588769877A878B871E821D8274
:102DE00085E0FE013796DE01119601900D928A95DD
:102DF000E1F749815A816B817C818D819E812B967F
:102E00000FB6F894DEBF0FBECDBFDF91CF910C940B
:102E1000041DFC01808191810C94C91FCF93C82FA0
:102E2000882309F48BC08238C1F40E94D91581FD32
:102E300085C089E30E94F71F0E9468202FEF81EE72
:102E400094E0215080409040E1F700C0000089E309
:102E50000E94FE1FCF910C9468208338A1F40E9439
:102E6000D91580FD6BC083E50E94F71F0E94682082
:102E70002FEF81EE94E0215080409040E1F700C0B8
:102E8000000083E5E5CF8438A1F40E94D91582FDC6
:102E900055C087E40E94F71F0E9468202FEF81EE43
:102EA00094E0215080409040E1F700C0000087E4AA
:102EB000CFCF8CEF8C0F813A90F46C2F809117015B
:102EC000909118010E948721882329F08C2F0E945D
:102ED000FE1F0E9468208C2F0E94F71FBBCF80E24C
:102EE0008C0F883048F4C77081E001C0880FCA9504
:102EF000EAF70E941F20AECFEBE5EC0FE33040F481
:102F0000F0E0E853FE4F808190E0CF910C94FE15E5
:102F1000E8E5EC0FE73150F4F0E0EE0FFF1FE65666
:102F2000FE4F80819181CF910C941416C03F30F0F8
:102F30008C2F0E947A23CF910C946524CF91089511
:102F4000882309F452C0823871F40E94D91581FF98
:102F50004CC089E30E94F71F0E94682089E30E9409
:102F6000FE1F0C946820833859F40E94D91580FF05
:102F70003CC083E50E94F71F0E94682083E5EFCFE5
:102F8000843859F40E94D91582FF2FC087E40E942B
:102F9000F71F0E94682087E4E2CF9CEF980F913AD8
:102FA000F0F290E2980F983050F4877091E001C0F1
:102FB000990F8A95EAF7892F0E942520D2CF9BE5A9
:102FC000980F933020F490E080E00C94FE1598E583
:102FD000980F973120F490E080E00C941416803F15
:102FE00020F00E94E2230C9465240895CF93C82F0B
:102FF0000E940E17C93349F42FEF87EE93E021505A
:1030000080409040E1F700C000008C2FCF910C94DD
:10301000A017882321F00E941F200C946820089597
:10302000882321F00E9425200C9468200895BF92E7
:10303000CF92DF92EF92FF920F931F93CF93DF9384
:103040006C01D62FC72FFC01058102950F701281EC
:1030500011110E943C200E941520E82E882391F037
:103060001123D1F08C2F807F803421F080E28D0FEE
:10307000883090F082E00E94B3200E94152091E0F9
:10308000E82EE926BC2EB2949FE0B922EB2DF0E0A9
:10309000E75BF14D0C94412DE12CF4CF0C2F0F7018
:1030A000C07F11F00295007F1123A9F0002359F091
:1030B00080E28D0F883010F0D11109C0802F0E945E
:1030C0001F200E9468208D2F0E940E1714C0802F91
:1030D0000E942F20F6CF8D2F0E94A017002359F0B9
:1030E00080E28D0F883010F0D1112CC0802F0E940B
:1030F00025200E9468202B2D2850330B24303105C9
:1031000020F40E94D9150E945F05EE2009F49EC1AB
:103110000E94112080FD9AC1F60112820E940B20AC
:103120000E948C1EC6010E94471A0E940B20DF914C
:10313000CF911F910F91FF90EF90DF90CF90BF90B4
:103140000C94AD1E802F0E943520D3CFFC2FFF7032
:10315000FF2EC07FC03219F0F29480EFF822DD23F9
:1031600069F0D13049F1112391F1002351F1F601B9
:10317000858180FFA8CF8F70858323C0112381F0C4
:10318000011106C00E944F208F290E940918B3CF59
:103190000130C1F70E944F208F290E945520ABCFEC
:1031A000011106C00E945E208F2D0E941018A3CF2F
:1031B000013009F4A0CFF6CF112329F0033008F035
:1031C0009ACF8F2DE2CF023008F095CFEDCF0023BC
:1031D00059F3D93349F4FFEF27EE33E0F1502040A3
:1031E0003040E1F700C000008D2F0E94A01783CF70
:1031F0008C2F86958695837069F0813009F07BCF9E
:103200008D2F9C2F9370111102C090E080E00E94DE
:10321000141671CF8D2F9C2F9370111102C090E066
:1032200080E00E94FE1567CF8D2F112329F00E94A8
:103230007A230E9465245FCF0E94E223FACF8C2F6D
:10324000837009F041C0111156CF4D2F429546951C
:103250004770440F440F0D2F0F7010E030E020E056
:10326000042E04C0000F111F221F331F0A94D2F72F
:1032700060E070E0CB01D4FF0FC06FE070E080E051
:1032800090E004C0660F771F881F991F4A95D2F7F8
:103290006095709580959095C695C695C370602B86
:1032A000712B822B932BC23049F058F4C13019F0A6
:1032B0000E943E1E20CF0E942C1E1DCF0E94501E39
:1032C0001ACF0E942A1E17CF8695112311F08C2F3A
:1032D0008170882309F40FCF4D2F42954695477092
:1032E000440F440F0D2F0F7010E030E020E0042E4B
:1032F00004C0000F111F221F331F0A94D2F760E091
:1033000070E0CB01D4FF0FC06FE070E080E090E090
:1033100004C0660F771F881F991F4A95D2F76095E2
:10332000709580959095C695C695C370602B712B4E
:10333000822B932BC23049F058F4C13019F00E940F
:10334000031FD9CE0E94F11ED6CE0E94151FD3CEE8
:103350000E94661ED0CECF70112329F08C2F0E94C0
:103360008C1E8D2F12CF8D2F0E9410188C2F0E9433
:10337000AD1EC1CED23F89F160F4D03FC9F0D13F3C
:1033800029F1112309F442C001119DCE8C2F8F71B8
:1033900021C0D33F39F1D43FA1F7112369F1CF7197
:1033A0008C2F0E948C1E63E08C2F0E949E20A3CE47
:1033B000112341F0023008F09ECE8C2F8F710E94B5
:1033C000D01E99CE033008F096CEF7CF8C2F8F7198
:1033D000112369F20E948C1E8ECE8C2F8F711123C7
:1033E000C9F3C5CF112329F08C2F8F710E94771E4E
:1033F00082CE0E94721E7FCE81E00E94B3200230F6
:1034000008F479CE82E00E94B32075CE002359F0F3
:10341000D93309F0E9CE8FEF97EEE3E08150904089
:10342000E040E1F7DFCE8C2F8F71A1CF4C2F4F7092
:103430006D2FC6010E9467050E94A21D5CCE4C2F15
:103440004F706D2FC6010E946A0555CEDF91CF9156
:103450001F910F91FF90EF90DF90CF90BF90089554
:103460000F931F93CF93DF93EC01688179818A8159
:103470000E94D31F8C010E94271F0E94291EB801A1
:10348000CE01DF91CF911F910F910C941718CF931C
:10349000DF93EC018B819C81892B29F088819981B4
:1034A00089238F3F59F4DF91CF910895CE010E9477
:1034B000301ACE01DF91CF910C94D203CE010E943D
:1034C00010058111F3CF0E941520882361F38A81B2
:1034D000882349F382E0DF91CF910C94B3200E94BE
:1034E0003C200E944C200E9468200E9496250E9449
:1034F000652490E080E00E94FE1590E080E00C944E
:1035000014160E9405200C946F1A0E942C200C9413
:10351000811AE92FE295EF70E250EE3070F4F0E09E
:10352000E75AF14D0C94412D803F19F020F4883E6C
:1035300020F481E00895843FE1F380E00895883E1F
:10354000C0F3813FD1F7F5CF93FB882780F9089529
:103550000E94C91F0C94891ACF93DF9300D000D02A
:103560000F92CDB7DEB70F900F900F900F900F9086
:10357000DF91CF910895CF93DF9300D000D000D09A
:10358000CDB7DEB726960FB6F894DEBF0FBECDBF1F
:10359000DF91CF910895CF93DF93C091590280912D
:1035A0005A028C1303C0DF91CF910895D0E0CE0171
:1035B00066E070E00E94B32CFC01E55AFD4F4081AB
:1035C000518162817381848195810E94BB1A219609
:1035D000C770E5CF40918B0250918C0260918D02B3
:1035E00070918E0280918F02909190020C94BB1A80
:1035F0001F93CF93DF9380919002807FA1F48091FD
:103600008D02882381F020915902B0915A02409195
:103610008B02A0918C02C0918E02D0918F02142F48
:103620001A23B21304C0DF91CF911F91089530E0A7
:10363000209711F01F3F21F42F5F3F4F2770F1CFEC
:10364000C90166E070E00E94B32CFC01E55AFD4F11
:1036500081818A13F1CF80818413EECF8281811121
:10366000EBCF838194818C1B9D0B883C910520F7C7
:10367000809190028F70806180939002C90166E012
:1036800070E00E94B32CFC01E05AFD4F90819F70C6
:10369000906190838BE892E00E94471ADF91CF916E
:1036A0001F910C94CB1AAF92BF92CF92DF92EF9200
:1036B000FF920F931F93CF93DF93CDB7DEB7619740
:1036C0000FB6F894DEBF0FBECDBF8C0185E0F801C8
:1036D000DE011D9601900D928A95E1F7F801408177
:1036E0002181E2808BE8C82E82E0D82E60918E0284
:1036F00070918F026115710509F464C190918B027C
:1037000030918C02892F83238F3F09F45BC1A38002
:10371000B480F0908D02F501E61BF70BFF2009F451
:10372000FEC080919002582F507FE83CF10508F0D0
:10373000B3C051117AC0FE2C321323C0941321C0A0
:10374000E1101FC08F708061809390020E94EA1A7E
:10375000C6010E94471A80919002F80185838F2D3F
:1037600061960FB6F894DEBF0FBECDBFDF91CF914B
:103770001F910F91FF90EF90DF90CF90BF90AF908F
:103780000895AB2829F0842F82238F3F09F036C19A
:1037900080E0F82FF170DF2EE091590230915A024B
:1037A00080FD20C0EE20D9F280919002816080934C
:1037B0009002F12CD4CFF0E0CF0166E070E00E94DF
:1037C000B32CDC01A55ABD4F11968C911197821331
:1037D00007C08C91841304C012968C918E11E2CF95
:1037E0003196E770E313E7CF4D872E878D859E8551
:1037F0000E94C91F292F22952F70223050F02430AB
:1038000078F49F7051F0F8019581907F31F4D12CBC
:103810000AC09F7011F08823D1F3805E8830B8F31E
:10382000C8010E94471AFD2C9ACF321306C0941388
:1038300004C0F801EE2009F48EC04D872E878D85D7
:103840009E850E94A81A882319F1EE2009F1809123
:103850009002803270F020918B0230918C02388778
:103860002F831986BB86AA868C87CE0107960E9475
:10387000471A86E0F801ABE8B2E001900D928A9514
:10388000E1F70E94F81A0E94EA1AFF24F39467CF26
:10389000C8010E94471AF9CF511114C07A2DB98A74
:1038A000A88A522F6E2D89890E94AC1A8BE892E06B
:1038B0000E94471A86E0F60111928A95E9F70E9464
:1038C000EA1A77CF32130FC094130DC0E1100BC06A
:1038D000F8018583C8010E94471A86E0F60111921B
:1038E0008A95E9F73CCF4D872E878D859E850E946E
:1038F000A81A882369F2EE2059F280919002803252
:1039000008F4B7CF20918B0230918C023A8329833F
:103910001B82BD82AC828E83CE010196A8CFE83C8B
:10392000F10508F041C0FE2CEE2009F4B1CF3213AE
:103930002AC0941328C08091900280FD1BC0982F4C
:10394000907FC1F0F8018583903F31F0982F907FF0
:10395000905F8F70892B8583C8010E94471A86E08B
:10396000F801ABE8B2E001900D928A95E1F70E9470
:10397000EA1AF5CE86E0F801ABE8B2E001900D92CC
:103980008A95E1F7ECCE4D872E878D859E850E9426
:10399000A81A81116ECF809190028160809390026D
:1039A000C8010E94471ADBCE7A2DB98AA88A522F05
:1039B0006E2D89890E94AC1A86E0F60111928A95D3
:1039C000E9F7D5CFEE2009F463CF4D872E878D859B
:1039D0009E850E94A81AF82E882309F459CF86E004
:1039E000F801ABE8B2E001900D928A95E1F78BE81F
:1039F00092E00E9409170E94F81AB9CF81E08E2543
:103A0000C8CE88EC90E00895CF93DF93CDB7DEB7B2
:103A10002C970FB6F894DEBF0FBECDBF4F835887EB
:103A200069877A878B879C87CE0107960E94531BF4
:103A30008823D1F08A859B85892B39F04F81588561
:103A4000842F85238F3F09F076C080915902909191
:103A50005A02891349C02C960FB6F894DEBF0FBEE8
:103A6000CDBFDF91CF91089586E0FE013796DE014C
:103A7000119601900D928A95E1F78A859B85892B95
:103A800021F38F81988589238F3FF9F280915A0223
:103A900090E09C012F5F3F4F2770332740915902E0
:103AA0004217130671F40E94851A10925A0210925E
:103AB000590286E0EBE8F2E0DF011D928A95E9F712
:103AC000C4CF66E070E00E94B32CDC01A55ABD4F64
:103AD00096E0FE01319601900D929A95E1F72093C0
:103AE0005A020E94CB1AB1CF90E066E070E00E94CB
:103AF000B32C855A9D4F0E94531B882309F4ABCFEA
:103B00008091590290E066E070E00E94B32CFC01C5
:103B1000E55AFD4F40815181628173818481958195
:103B20000E94BB1A8091590290E0019687709927F4
:103B3000809359028ACF69857A858B859C850E94FE
:103B4000BB1A83CFEF92FF920F931F93CF93DF9314
:103B50008C01892B81F0F12CEE24E394E80121966D
:103B6000F8018491843770F4843008F05FC08130AC
:103B7000B1F08230A1F1DF91CF911F910F91FF90B1
:103B8000EF900895853709F44CC008F43DC09CE7D8
:103B9000980F903780F78F770E94A01749C00E5F6B
:103BA0001F4FFE01849190E2980F983060F4877067
:103BB000FE2D01C0FF0F8A95EAF78F2F0E943F204C
:103BC0000E94682002C00E940E178F2D815030F293
:103BD000EFE9FFE03197F1F700C00000F7CF0E5F8B
:103BE0001F4FFE01849190E2980F983050F4877037
:103BF000FE2D01C0FF0F8A95EAF78F2F0E94452006
:103C0000DFCF0E94A017E1CF0E5F1F4FFE01C491CE
:103C1000C150D8F28FE99FE00197F1F700C0000092
:103C2000F7CF0E5F1F4FFE01F490CFCF0E940E170B
:103C30008E01CBCF08950C941A1E0E941B1E609318
:103C4000C7027093C8028093C9029093CA020C9471
:103C50006F1A08950C941D1E0F931F930091C702B5
:103C60001091C8022091C9023091CA02602B712BB9
:103C7000822B932B1F910F910C941D1E0F931F935A
:103C80000091C7021091C8022091C9023091CA0266
:103C900060237123822393231F910F910C941D1E87
:103CA0000F931F930091C7021091C8022091C9027F
:103CB0003091CA0260277127822793271F910F91A5
:103CC0000C941D1E0C941A1E0C94621E0E94641EFD
:103CD0006093C3027093C4028093C5029093C6029E
:103CE0000C946F1A60E070E0CB010C94661E0F9389
:103CF0001F9341E050E060E070E08A019B0104C046
:103D0000000F111F221F331F8A95D2F7C901B80176
:103D10001F910F910C94661E0F931F9341E050E08A
:103D200060E070E004C0440F551F661F771F8A953E
:103D3000D2F78091C3029091C402A091C502B091C4
:103D4000C6028A019B01082B192B2A2B3B2BC90188
:103D5000B8011F910F910C94661E0F931F9341E0C1
:103D600050E060E070E004C0440F551F661F771FED
:103D70008A95D2F7CB01BA016095709580959095A0
:103D80000091C3021091C4022091C5023091C60275
:103D900060237123822393231F910F910C94661E3D
:103DA0000F931F9341E050E060E070E004C0440FC7
:103DB000551F661F771F8A95D2F78091C302909195
:103DC000C402A091C502B091C6028A019B010827D6
:103DD00019272A273B27C901B8011F910F910C947D
:103DE000661E0F931F930091C3021091C40220918D
:103DF000C5023091C602602B712B822B932B1F9131
:103E00000F910C94661E0F931F930091C3021091A3
:103E1000C4022091C5023091C6026023712382231F
:103E200093231F910F910C94661E0F931F93009183
:103E3000C3021091C4022091C5023091C6026027CE
:103E40007127822793271F910F910C94661E089566
:103E5000CF93DF93262F990F990F990F890F982FE2
:103E60009770E1E001C0EE0F9A95EAF78695869586
:103E7000869590E065E070E00E94B32CDC01AF56BF
:103E8000BD4F50E040E0622F70E08D91ED01219731
:103E90009B01042E02C0369527950A94E2F7217003
:103EA000219528272E23282728834F5F5F4F4530F1
:103EB000510559F7DF91CF910895990F990F990FF7
:103EC000890FA82FA77086958695869590E065E066
:103ED00070E00E94B32CFC01EF56FD4F50E040E033
:103EE00080E0219130E00A2E02C0369527950A9491
:103EF000E2F721703327042E01C0220F0A94EAF75B
:103F0000822B4F5F5F4F4530510559F70895BF929F
:103F1000CF92DF92EF92FF920F931F93CF93DF9395
:103F20008C01C090C302D090C402E090C502F09012
:103F3000C6028091C7029091C802A091C902B091B7
:103F4000CA02C82AD92AEA2AFB2ACFE1D0E0BC2E2D
:103F5000D701C6010C2E04C0B695A79597958795F5
:103F60000A94D2F780FD0EC0219788F7B12C8B2DD3
:103F7000DF91CF911F910F91FF90EF90DF90CF9045
:103F8000BF900895B8018C2F0E947305019761F3CB
:103F9000EECFCF93DF93EC010E94871FBE01DF912C
:103FA000CF910C9473051F93CF93DF93EB01909106
:103FB0005802992331F0CB01DF91CF911F910C94DE
:103FC000C91F882379F0CB010E94871F182F682F03
:103FD000CE010E94281FBE01812FDF91CF911F913A
:103FE0000C947305CB010E945D1F182FF4CF682F2E
:103FF00080911701909118010C94BD21682F809138
:104000001701909118010C94BF2180911701909194
:1040100018010C94C1218091CB02859585958595D9
:1040200008958091CB02877008959091CB0297708C
:1040300081E009F480E008958091D702089590917D
:10404000D702892B8093D702089580959091D7024B
:1040500098239093D70208951092D70208959091D3
:10406000D602892B8093D602089580959091D6022E
:1040700098239093D60208951092D60208959091B5
:10408000D502892B8093D502089580959091D50211
:1040900098239093D50208951092D50208958091A7
:1040A000CC02089508950C9452209091CC02981758
:1040B00021F08093CC020C94532008958091CC027F
:1040C000882329F01092CC0280E00C9453200895AC
:1040D000E0911701F09118018091D7028083E0915F
:1040E0001701F091180180819091D602892B80836D
:1040F000E0911701F091180180819091D502892BF0
:1041000080839091CC02992381F0E0911701F09186
:1041100018018081892B808380911701909118016B
:104120000E94752181110E945E208091170190915B
:1041300018010C94E51508950C949B20982F990F65
:10414000990F990F962B9093CB020E948C1E809111
:10415000CB028595859585950C949C201092CB0279
:1041600080E00C949C209091CB02809589238093D1
:10417000CB02282F277071F4282F082E000C330B48
:104180009217130639F08595859585950E94AD1E89
:104190000C94AE2008956FEF7FEF90E080E00C94D8
:1041A000EB2D90E080E00E94C72D21E08C3E9E4FD9
:1041B00009F020E0822F089582E090E00C94B92D60
:1041C00083E090E00C94B92DCF9384E090E00E94BE
:1041D000B92DC82F81E290E00E94B92D982F8C2F25
:1041E000CF910895CF93C92F682F84E090E00E946B
:1041F000CD2D6C2F81E290E0CF910C94CD2DAB01B1
:10420000BC018FE090E00C94DF2DAB01BC0183E199
:1042100090E00C94DF2D60E070E0CB010C94052160
:1042200060E070E0CB010E94FF200C940B216CEE4B
:104230007EEF90E080E00E94EB2D60E082E090E075
:104240000E94CD2D60E083E090E00E94CD2D109281
:10425000C7021092C8021092C9021092CA0260E00E
:1042600084E090E00E94CD2D60E081E290E00E9429
:10427000CD2D60E085E090E00E94CD2D60E086E0ED
:1042800090E00E94CD2D6FEF87E090E00E94CD2D51
:1042900040E050E0BA0188E090E00E94DF2D60E04D
:1042A0008DE090E00E94CD2D40E050E0BA0188E121
:1042B00090E00E94DF2D60E087E190E00E94CD2D2C
:1042C00040E050E0BA018CE190E00E94DF2D60E018
:1042D00080E290E00E94CD2D0C9410210C941721C7
:1042E000682F8EE090E00C94CD2D9C012E5F3F4F07
:1042F000AC01485F5F4F80E02417350709F408954B
:10430000F90191919F019923B9F38F5FF5CF66234E
:1043100049F0FC01329608962191261729F0E817FA
:10432000F907D1F780E0089581E008959C01FC0130
:1043300032969FEF80E04191461751F09F3F19F46C
:10434000411101C0982F8F5F8630A9F79F3F09F474
:104350000895290F311D97FD3A95F901628308955B
:10436000FC01329608962191261303C0DF011197B4
:104370001C92E817F907B9F708950C9496210C944C
:10438000B021029626E0FC0111922A95E9F70895E2
:10439000089508950C94C9210E94CA2180914A036E
:1043A000843049F11092D90288E190E020E40FB600
:1043B000F894A895809360000FBE2093600080E081
:1043C0000E945F050E94CA2183B7817F846083BFFA
:1043D00083B7816083BF7894889583B78E7F83BFCE
:1043E0000FB6F894A8958091600088618093600072
:1043F000109260000FBE08950895CF930E94C821C7
:104400000E94C0070E94FC21C0E08C2F0E946F0711
:10441000811105C0CF5FCA30C1F7CF91089581E007
:10442000FCCF08950C9411220E94851A0E94D91580
:104430000E945F050C9412221F921FB61F92112436
:104440008F939F93AF93BF938091D902811113C033
:104450008091400390914103A0914203B0914303A6
:104460004196A11DB11D8093400390934103A093F9
:104470004203B0934303BF91AF919F918F911F90DF
:104480001FBE1F90189582E084BD93E095BD9AEF02
:1044900097BD80936E0008952FB7F89480914003E4
:1044A00090914103A0914203B09143032FBF08951F
:1044B0002FB7F894609140037091410380914203BB
:1044C000909143032FBF08959C014FB7F8948091BA
:1044D000400390914103A0914203B09143034FBF29
:1044E000821B930B089578941F921FB61F9211247C
:1044F0008F939F93AF93BF9380914003909141031B
:10450000A0914203B09143030196A11DB11D809378
:10451000400390934103A0934203B0934303BF91A0
:10452000AF919F918F911F901FBE1F90189581E0B2
:104530008093E00080E28093D8001092C9008FE160
:104540009EE40197F1F700C0000087E090EBDC01EA
:104550008093530390935403A0935503B093560351
:1045600088E19CE00FB6F894A895809360000FBE98
:1045700090936000FFCF0C9489100E94C0078FE3D6
:104580009CE90197F1F700C000000E94C00780E09D
:104590000E946F0780FF04C00E94BB220C949722E8
:1045A00008950E94D120811102C00E946E210E94B4
:1045B000DC208093D8020E94E420909345038093EE
:1045C00044030E94E020682F70E090E080E00E94A9
:1045D0002A1E6091C3027091C4028091C50290911D
:1045E000C6020C94641E8091E00280FF11C080918D
:1045F0001E0190E065E070E00E94B32C95958795D0
:104600009595879580389105B0F50097B1F108959B
:1046100081FF0AC080911E0190E065E070E00E9479
:10462000B32C95958795EECF82FF08C080911E012F
:1046300090E065E070E00E94B32CE4CF8091DF024F
:104640008823B1F020911D0160911E0170E0821756
:1046500010F0CB01EECF90E00E94B32C65E070E04B
:104660000E94B32C622F70E00E940B2DCB01CACFA9
:1046700085E090E008958FE7089581E008958091A6
:10468000E00280FF0CC060911A0170E0759567959B
:10469000759567956115710559F1862F089581FF0C
:1046A00006C060911A0170E075956795F3CF60912F
:1046B0001A0170E082FD0CC06091DE026623A9F051
:1046C0002091190180911A0190E0621730F0BC012D
:1046D00060387105F8F28FE7089570E00E94B32CFE
:1046E000622F70E00E940B2DF3CF61E070E0D5CF18
:1046F00081E00895803F31F40E94F32281958093F8
:10470000E4020895813F19F40E94F322F8CF823F1A
:1047100031F40E94F32281958093E3020895833F50
:1047200019F40E94F322F8CF893F29F40E943F2315
:104730008093E50208958A3F21F40E943F238195EA
:10474000F7CF8B3F31F40E943F2381958093E6029F
:1047500008958C3F19F40E943F23F8CF843F31F431
:104760008091E20281608093E2020895853F21F406
:104770008091E2028260F7CF863F21F48091E202CD
:104780008460F1CF873F21F48091E2028860EBCF13
:10479000883F21F48091E2028061E5CF8D3F31F4C2
:1047A0008091E00281608093E00208958E3F21F4C1
:1047B0008091E0028260F7CF8F3FB9F78091E002ED
:1047C0008460F1CF9091E302803F59F48091E4023C
:1047D00087FF0DC01092E40291110BC01092DF020E
:1047E00008C0813F81F48091E40218169CF399235C
:1047F00081F08091E5029091E602892B09F064C076
:104800001092DE020895823F49F497FFF0CF109294
:10481000E3028091E4028111ECCFE0CF833F19F4F1
:104820001916ACF3E4CF2091E502893F29F4121662
:10483000F4F61092E502DBCF8A3F19F427FFD7CFB9
:10484000F8CF2091E6028B3F29F427FFD0CF1092BA
:10485000E602CDCF8C3F19F41216CCF3C8CF843FBB
:1048600031F48091E2028E7F8093E202C0CF853FD7
:1048700021F48091E2028D7FF7CF863F21F4809171
:10488000E2028B7FF1CF873F21F48091E202877FA4
:10489000EBCF883F21F48091E2028F7EE5CF8D3F00
:1048A00031F48091E0028E7F8093E002A0CF8E3FB2
:1048B00021F48091E0028D7FF7CF8F3F09F097CFF1
:1048C0008091E0028B7FF0CF08950E944C229C01E2
:1048D0009091E3028091E402982B21F03093DD0265
:1048E0002093DC029091E5028091E602982B21F062
:1048F0003093DB022093DA0281EE92E00C94F01503
:10490000EF92FF920F931F93CF93DF9300D000D0CD
:1049100000D0CDB7DEB786E0E1EEF2E0DE01119621
:1049200001900D928A95E1F7E090E302F090E402A5
:104930000091E5021091E6021092E3021092E40267
:104940001092E5021092E6028E2D8F2991F080914F
:10495000DC029091DD020E946422FC012091DF02C2
:10496000222309F43FC080911F018E171F0608F40F
:1049700048C0802F812B91F08091DA029091DB0268
:104980000E946422FC012091DE02222309F47CC0F3
:1049900080911B018E171F0608F485C08091E302E9
:1049A0009091E402892B9091E502892B9091E60287
:1049B000892B11F00E94652486E0FE013196A1EE5C
:1049C000B2E001900D928A95E1F726960FB6F89421
:1049D000DEBF0FBECDBFDF91CF911F910F91FF9032
:1049E000EF9008958091200190E06AE070E00E94CD
:1049F000B32C8E179F0708F0BCCF2F5F2093DF02E8
:104A000002C02F3FD1F7EE2051F00E94F3226FEF4A
:104A10001E140CF461E00E94AA2C8093E302FF2094
:104A200051F00E94F3226FEF1F140CF461E00E941A
:104A3000AA2C8093E4028091E302882309F499CFA1
:104A40002091E402222309F494CF082E000C990B44
:104A500065EB70E00E94B32C992371F09093E30210
:104A6000822F220F990B65EB70E00E94B32C9923E3
:104A700039F09093E4027DCF81E08093E302F0CFA0
:104A800081E08093E40275CF80911C0190E06AE0A0
:104A900070E00E94B32C8E179F0708F07FCF2F5F26
:104AA0002093DE0202C02F3FD1F7002351F00E9475
:104AB0003F236FEF10160CF461E00E94AA2C809344
:104AC000E502112351F00E943F236FEF11160CF401
:104AD00061E00E94AA2C8093E6028091E50288237F
:104AE00009F45CCF2091E602222309F457CF082E67
:104AF000000C990B65EB70E00E94B32C992371F0C8
:104B00009093E502822F220F990B65EB70E00E94D3
:104B1000B32C992339F09093E60240CF81E0809343
:104B2000E502F0CF81E08093E60238CF86E0E1EE47
:104B3000F2E0DF011D928A95E9F71092DF021092F0
:104B4000DE021092E00208958091EF020895CF9363
:104B5000DF9300D00F92CDB7DEB790914A03943027
:104B600011F589837B836A839093E9008FEF90919D
:104B7000E800815095FD06C095ED9A95F1F700008B
:104B80008111F5CF8091E80085FF0DC050E040E035
:104B900063E070E0CE0101960E9409288091E80050
:104BA0008E778093E8000F900F900F90DF91CF9158
:104BB0000895BC0184E00C94A725BC0183E00C940B
:104BC000A7259C0184E08093E9009FEF8091E80095
:104BD000915085FD06C085ED8A95F1F70000911191
:104BE000F5CF8091E80085FF0CC050E040E066E022
:104BF00070E0C9010E9409288091E8008E778093B7
:104C0000E8000895CF93DF93EC0181E08093E90001
:104C10008FEF9091E800815095FD06C095ED9A9533
:104C2000F1F700008111F5CF8091E80085FF14C0F5
:104C300050E040E068E070E0CE010E9409288091D9
:104C4000E8008E778093E80088E0FE01A7EEB2E0EE
:104C500001900D928A95E1F7DF91CF910895CF935E
:104C6000FC01603221F580914A03843001F5C09146
:104C7000E900CF702091EC00922F917020FD90E818
:104C8000C92B82E08093E9008091E80080FF0CC08E
:104C900050E040E060E270E0CF010E94092880917E
:104CA000E8008E778093E800CF70C093E900CF9141
:104CB0000895089508950C94142242E061EC81E077
:104CC0000E94602942E261EC84E00E94602942E295
:104CD00061EC82E00E94602942E260EC83E00C9487
:104CE000602980914C03833009F45FC030F4813037
:104CF000C1F1823009F49BC008958A3009F487C05D
:104D00008B3009F46DC0893009F04EC080914B039F
:104D1000813209F049C080914F0390915003009770
:104D200019F0029709F040C08091E800877F8093D6
:104D3000E8008091E80082FF33C08091F200823069
:104D400029F48091F1008B7F813021F48091F10072
:104D50008093EF028091E8008B778093E8000C94B9
:104D6000942980914B03813AF9F48091E800877F80
:104D70008093E80080914F0390915003892B61F458
:104D800068E087EE92E070E00E94A7288091E8003A
:104D90008B778093E800089560E090E080E0F3CFA7
:104DA00080914A038111C5CF089580914B03813AC8
:104DB000D9F780914F0390915003892BA9F78091E7
:104DC000E800877F8093E8008091E80080FFFCCFB7
:104DD00080912B018093F1008091E8008E77BDCF08
:104DE00080914B03813201F780914F0390915003E2
:104DF000892BD1F68091E800877F8093E8000E949C
:104E0000942980914D0380932B010C94851A8091F5
:104E10004B03813249F68091E800877F8093E80058
:104E20000E94942980914E038093F002089580910E
:104E30004B03813A09F0B8CF8091E800877F8093D7
:104E4000E8008091E80080FFFCCF8091F002C2CFA3
:104E5000CDB7DEB7A0970FB6F894DEBF0FBECDBFBB
:104E600084B7877F84BF0FB6F894A89580916000BF
:104E7000886180936000109260000FBE80E890E02F
:104E80000FB6F89480936100909361000FBE0E946A
:104E900031160E94E4290E94372A8091E200846042
:104EA0008093E20078940E948F2C0E94391681E250
:104EB00091E00E94D41513E080914A03853039F1C6
:104EC0000E94451680914A038430B1F71093E9009F
:104ED0008091E80082FFF0CF8091E80090E085FFAC
:104EE00009C050E040E060E270E0CE0101960E940F
:104EF000582891E08091E8008B778093E80099230F
:104F0000D9F260E2CE0101960E944111D5CF0E94F4
:104F1000CC2180914803882379F20E94FD218823C7
:104F200059F20E94F327C8CF0C949627292F3327D4
:104F30002330310521F168F42130310509F449C0ED
:104F40002230310509F44AC090E080E030E020E0F2
:104F500029C02132310581F122323105A9F76330B0
:104F6000710590F7FB01EE0FFF1FE253FE4F20810A
:104F7000318165537E4FFB01808190E013C09927FA
:104F80008130910599F0009741F08230910589F0C8
:104F90000397D1F6EEE0F5E002C0E4E3F5E084919A
:104FA00090E09F01FA01318320830895E8E2F5E063
:104FB000F6CFE4E1F5E0F3CF6330710528F6660F34
:104FC000771FFB01EC52FE4F2081318189E090E098
:104FD000E9CF82E190E023E935E0E4CF8BE590E092
:104FE00028E335E0DFCF84E089BD86E089BD09B4E0
:104FF00000FEFDCF8091D8008F7D8093D8008091F6
:10500000E00082608093E0008091E00081FDFCCFB1
:105010000895AF92BF92CF92DF92FF920F931F93AA
:10502000CF93DF936C01EB018A010E94B329F82E24
:10503000811123C00115110539F0F801808191819A
:10504000C81BD90BC80ED91EB12CA12C2097A9F0D2
:105050008091E80085FD22C08091E8008E778093E2
:10506000E80001151105A1F0F80180819181A80ED9
:10507000B91EB182A08285E0F82E8F2DDF91CF91ED
:105080001F910F91FF90DF90CF90BF90AF90089548
:105090000E94B3298823D1F2F82EEFCFF601819137
:1050A0006F018093F1002197FFEFAF1ABF0ACECFB7
:1050B000AF92BF92CF92DF92FF920F931F93CF9345
:1050C000DF936C01EB018A010E94B329F82E811154
:1050D00023C00115110539F0F80180819181C81BA9
:1050E000D90BC80ED91EB12CA12C2097A9F0809104
:1050F000E80085FD22C08091E8008B778093E8006E
:1051000001151105A1F0F80180819181A80EB91E49
:10511000B182A08285E0F82E8F2DDF91CF911F9173
:105120000F91FF90DF90CF90BF90AF9008950E94B5
:10513000B3298823D1F2F82EEFCF8091F100F60148
:1051400081936F012197FFEFAF1ABF0ACECFFC0109
:10515000809151039091520386179707A0F0611533
:10516000710529F49091E8009E779093E80090E013
:105170006115710551F4911108C08091E80082FF1A
:1051800032C080E00895BC01F2CF80914A038823A9
:10519000B1F18530B1F18091E80083FD2EC080919E
:1051A000E80082FDEACF8091E80080FFE1CF209106
:1051B000F20030E06115710519F02830310558F022
:1051C00091E02830310509F090E02091E8002E7739
:1051D0002093E800CDCF81918093F1006150710957
:1051E0002F5F3F4FE7CF80914A03882341F08530FE
:1051F00041F08091E80083FFC0CF81E0089582E014
:10520000089583E00895FC01809151039091520329
:1052100086179707A0F06115710529F48091E800C1
:105220008E778093E80090E06115710551F491113B
:1052300008C08091E80082FF33C080E00895BC017F
:10524000F2CF80914A038823B9F18530B9F180917A
:10525000E80083FD2FC08091E80082FDEACF8091B5
:10526000E80080FFE1CF2091F20030E06115710588
:1052700019F02830310558F091E02830310509F057
:1052800090E08091E8008E778093E800CDCF849104
:105290008093F1003196615071092F5F3F4FE6CF47
:1052A00080914A03882341F0853041F08091E800E5
:1052B00083FFBFCF81E0089582E0089583E00895E1
:1052C000982F953028F08F708093E90081E0089541
:1052D0009093E900242F762F50E0981731F07091C9
:1052E000EC002091ED005091F00021FD02C09F5F85
:1052F000E8CF3091EB003E7F3093EB003091ED0032
:105300003D7F3093ED003091EB0031603093EB0046
:105310007093EC002093ED005093F0002091EE008C
:1053200027FDE5CF80E0089580914B0387FF13C0F0
:105330008091E80082FF06C08091E8008B7780931F
:10534000E80004C080914A038111F2CF0895809152
:105350004A038823D9F38091E80080FFF8CF809139
:10536000E8008E77ECCF2091E4003091E50095E6DF
:10537000A9012091EC00822F817020FF06C080914E
:10538000E80080FF06C080E008952091E80022FD3B
:105390001AC080914A03882389F0853089F0809172
:1053A000EB0085FD0FC02091E4003091E50042172D
:1053B0005307F9F29150E1F684E0089582E00895F0
:1053C00083E0089581E008950E94412A0E94442AC2
:1053D000E0EEF0E0808181608083E8EDF0E08081A4
:1053E0008F77808319BCE3E6F0E080818160808361
:1053F0001092490308950E94412A0E94442A8091F4
:10540000D8008F778093D8008091D80080688093EF
:10541000D8008091D8008F7D8093D80084E089BD2A
:1054200086E089BD09B400FEFDCF10924A031092B8
:105430004603109248031092470342E060E080E088
:105440000E9460298091E1008E7F8093E10080912D
:10545000E20081608093E2008091E20088608093A6
:10546000E2008091E0008E7F8093E0000895E3E603
:10547000F0E080818E7F808381E0809349030C94EB
:10548000FB291092E20008951092E10008951F9206
:105490000F920FB60F9211242F933F934F935F9368
:1054A0006F937F938F939F93AF93BF93EF93FF93EC
:1054B0008091E10082FF0BC08091E20082FF07C073
:1054C0008091E1008B7F8093E1000E948E2C80917F
:1054D000E10080FF19C08091E20080FF15C080913B
:1054E000E2008E7F8093E2008091E20080618093F1
:1054F000E2008091D80080628093D80019BC85E0DA
:1055000080934A030E945A268091E10084FF2BC0B9
:105510008091E20084FF27C084E089BD86E089BDD8
:1055200089B5982F917080FFFBCF8091D8008F7D37
:105530008093D8008091E1008F7E8093E10080917C
:10554000E2008F7E8093E2008091E2008160809390
:10555000E20080914603882309F443C084E08093ED
:105560004A030E945B268091E10083FF29C080915D
:10557000E20083FF25C08091E100877F8093E100F6
:1055800082E080934A03109246038091E1008E7F6F
:105590008093E1008091E2008E7F8093E200809111
:1055A000E20080618093E20042E060E080E00E94DF
:1055B00060298091F00088608093F0000E94592655
:1055C000FF91EF91BF91AF919F918F917F916F91DB
:1055D0005F914F913F912F910F900FBE0F901F90B1
:1055E00018958091E30087FD93E090934A03B9CF2B
:1055F0001F920F920FB60F9211242F933F934F9348
:105600005F936F937F938F939F93AF93BF93CF934A
:10561000DF93EF93FF93D091E900DF708091EC006E
:10562000C82FC17080FDC0E81092E9008091F000A1
:10563000877F8093F00078940E943C2B1092E900C1
:105640008091F00088608093F000CD2BCF70C093E4
:10565000E900FF91EF91DF91CF91BF91AF919F91C1
:105660008F917F916F915F914F913F912F910F900B
:105670000FBE0F901F9018951F93CF93DF93CDB758
:10568000DEB7AA970FB6F894DEBF0FBECDBF8BE48E
:1056900093E02091F100FC012193CF01F3E08335E9
:1056A0009F07B9F70E9471268091E80083FF1EC111
:1056B00080914B0390914C039A3008F017C1E92F69
:1056C000F0E0E959F14D0C94412D803899F0823881
:1056D00009F00CC180914F038F70853008F006C12E
:1056E0008093E9008091EB0085FB882780F9109278
:1056F000E90006C0809147039091480391118260B0
:105700009091E800977F9093E8008093F1001092C9
:10571000F1008091E8008E77E5C0882309F4D3C0BA
:10572000823009F0E3C080914D038111D6C0809191
:105730004F038F702FEF280F243008F0D7C08093CD
:10574000E9002091EB0020FFC8C0933031F4809134
:10575000EB0080628093EB00C0C09091EB00906101
:105760009093EB0021E030E001C0220F8A95EAF728
:105770002093EA001092EA008091EB008860EACF63
:105780008111B4C010914D031F778091E3008078A0
:10579000812B8093E3008091E800877F8093E8006D
:1057A0000E9494298091E80080FFFCCF8091E30063
:1057B00080688093E30082E0111183E080934A03C4
:1057C00095C08058823008F091C080914D0390912F
:1057D0004E038C3D23E09207A1F583E08A838AE2A1
:1057E00089834FB7F894DE01139620E03EE051E242
:1057F000E32FF0E050935700E49120FF03C0E295BF
:10580000EF703F5FEF708E2F90E0EA30C0F0C796E8
:105810008D939D932F5F243159F74FBF8091E800FE
:10582000877F8093E8006AE270E0CE0101960E94D3
:10583000A7288091E8008B778093E80057C0C09636
:10584000E7CF60914F0370915003AE014F5F5F4F00
:105850000E949427BC01892B09F448C09091E8006C
:10586000977F9093E80089819A810E940329E1CF74
:105870008038E1F58091E800877F8093E80080918F
:1058800046038093F10045CF811130C090914D03C4
:10589000923060F58091E800877F8093E8009093D4
:1058A00046030E94942980914603882311F084E0E6
:1058B00005C08091E30087FDFACF81E080934A0321
:1058C0000E945D2613C080914D03813079F481E000
:1058D000933009F080E0809348031092E9008091B2
:1058E000E800877F8093E8000E9494298091E80077
:1058F00083FF0AC08091E800877F8093E800809151
:10590000EB0080628093EB00AA960FB6F894DEBF9E
:105910000FBECDBFDF91CF911F9108950895CF9312
:1059200080914A038823A1F0C091E900CF70909143
:10593000EC00892F817090FD80E8C82B1092E9005F
:105940008091E80083FD0E943C2BCF70C093E9005A
:10595000CF910895002480FD060E660F11F0869504
:10596000D1F7802D08950024552704C0080E591F33
:10597000880F991F009729F076956795B8F3710500
:10598000B9F7802D952F0895EE27FF27AA27BB276B
:1059900008C0A20FB31FE41FF51F220F331F441FBF
:1059A000551F969587957795679598F37040A9F759
:1059B000009799F7BD01CF010895991B79E004C0C4
:1059C000991F961708F0961B881F7A95C9F780953E
:1059D000089587FB082E062687FD819567FD619552
:1059E0000E94DD2C0EF4919507FC81950895AA1B69
:1059F000BB1B51E107C0AA1FBB1FA617B70710F0BA
:105A0000A61BB70B881F991F5A95A9F780959095EB
:105A1000BC01CD01089597FB072E16F4009407D022
:105A200077FD09D00E94F72C07FC05D03EF4909535
:105A300081959F4F0895709561957F4F0895A1E2DC
:105A40001A2EAA1BBB1BFD010DC0AA1FBB1FEE1FF8
:105A5000FF1FA217B307E407F50720F0A21BB30B43
:105A6000E40BF50B661F771F881F991F1A9469F7BF
:105A700060957095809590959B01AC01BD01CF011B
:105A80000895EE0FFF1F0590F491E02D099469270A
:105A90009627692778278727782708958F929F92DE
:105AA000AF92BF92CF92DF92EF92FF92CF93DF93AC
:105AB000EC01688179818A819B816115710581057D
:105AC000910521F464E279ED8BE597E02DE133EF68
:105AD00041E050E00E94012E49015A0127EA31E4D9
