:100000000C94E4030C942B040C942B040C942B04FC
:100010000C942B040C942B040C942B040C942B04A4
:100020000C942B040C942B040C945D300C94313103
:100030000C9428260C942B040C942B040C942B0465
:100040000C942B040C945F120C942B040C942B0432
:100050000C941E130C947F260C942B040C942B04EC
:100060000C942B040C942B040C942B040C942B0454
:100070000C942B040C942B040C942B040C942B0444
:100080000C942B040C942B040C942B040C942B0434
:100090000C942B040C942B040C942B040C942B0424
:1000A0000C942B040C942B040C942B04165C1E0053
:1000B0001F0020002100220023002400250026002C
:1000C00027002D002E0031002B0014001A0008001C
:1000D000150017001C0018000C00120013002F0060
:1000E00030002A00390004001600070009000A0049
:1000F0000B000D000E000F0033003400280000003C
:10010000E1001D001B000600190005001100100091
:10011000360037003800E50000002C00E000E30066
:10012000E20000002C000000BF5C00002C0000007A
:10013000E600E700E4004C0035003A003B003C00DC
:100140003D003E003F0040004100420043004400AB
:1001500045004C00C25CC35C52000100010001007C
:100160000100010001000100010001000100010087
:10017000C15C500051004F0001000100010001006E
:10018000010001000100010001000000BE5CBD5C37
:10019000BF5C01000100010001000100010001003D
:1001A0000100010000000100010001000100000049
:1001B000010000000100000001000000010001003A
:1001C000005C010035003A003B003C003D003E0071
:1001D0003F004000410042004300440045004C0005
:1001E000C25CC35C5200010001000100010001007B
:1001F000010001000100010001000100C15C50008C
:1002000051004F0001000100010001000100010048
:100210000100010001000000BE5CBD5CBF5C01008C
:1002200001000100010001000100010001000100C6
:1002300000000100010001000100000001000000B9
:10024000010000000100000001000100005C01004D
:1002500035003A003B003C003D003E003F004000BE
:10026000410042004300440045004C00C25CC35CB6
:100270005200010001000100010001000100010025
:100280000100010001000100C15C500051004F005D
:100290000100010001000100010001000100010056
:1002A00001000000BE5CBD5CBF5C010001000100FC
:1002B0000100010001000100010001000000010037
:1002C0000100010001000000010000000100000029
:1002D0000100000001000100005C010000000000BE
:1002E000000000002A2B2800000000000000000091
:1002F0000000000000000029000000002C1E342037
:10030000212224342627252E362D3738271E1F205C
:100310002122232425263333362E37381F040506A1
:100320000708090A0B0C0D0E0F10111213141516E5
:100330001718191A1B1C1D2F3130232D35040506E3
:100340000708090A0B0C0D0E0F10111213141516C5
:100350001718191A1B1C1D2F3130354C00000000D6
:10036000000000000000000000000000000000008D
:100370007E0F00D4FFFFFFC70000007832190A008B
:10038000047F3F1F643214643214783C1E1E140A2A
:10039000052223252628292A2C2D2F3032333536C5
:1003A000383A3B3D3E4042434547494A4C4E505106
:1003B000535557595A5C5E6062646668696B6D6F2D
:1003C00071737577797B7D7F81838587898A8C8E30
:1003D00090929496989A9C9E9FA1A3A5A7A8AAAC38
:1003E000AEAFB1B3B4B6B8B9BBBCBEBFC1C2C3C572
:1003F000C6C7C9CACBCCCDCED0D1D2D2D3D4D5D614
:10040000D7D7D8D9D9DADADBDBDBDCDCDCDCDCDD46
:10041000DDDDDDDCDCDCDCDCDBDBDBDADAD9D9D82A
:10042000D7D7D6D5D4D3D2D2D1D0CECDCCCBCAC9C2
:10043000C7C6C5C3C2C1BFBEBCBBB9B8B6B4B3B1F1
:10044000AFAEACAAA8A7A5A3A19F9E9C9A9896948C
:1004500092908E8C8A89878583817F7D7B79777561
:1004600073716F6D6B6968666462605E5C5A595740
:10047000555351504E4C4A4947454342403E3D3BFF
:100480003A3836353332302F2D2C2A292826252389
:1004900022FFAA7F5540000000000000000000007D
:1004A0000001010203040506080A0C0F1114181CB0
:1004B0002024292E33393F464C535B626A7179817F
:1004C0008A929AA2AAB2B9C1C8CFD5DCE1E7EBF013
:1004D000F4F7FAFCFDFEFFFEFDFCFAF7F4F0EBE7A3
:1004E000E1DCD5CFC8C1B9B2AAA29A928A8179714A
:1004F0006A625B534C463F39332E2924201C181462
:10050000110F0C0A08060504030201010000000097
:1005100000000000000000010101010101010101D2
:1005200002020202020202020203030303030303A4
:100530000304040404040404050505050506060671
:100540000606070707070708080808090909090A2E
:100550000A0A0B0B0B0C0C0C0D0D0D0E0E0E0F0FD3
:100560000F10101111111212131314141515161661
:100570001717181819191A1A1B1B1C1D1D1E1E1FD0
:100580002020212222232424252626272829292A1F
:100590002B2C2D2D2E2F3031323233343536373847
:1005A000393A3B3C3D3E3F40414243444546474843
:1005B000494A4C4D4E4F50515354555658595A5B19
:1005C0005D5E5F616264656668696B6C6D6F7072B9
:1005D000737577787A7B7D7E8082838587888A8C25
:1005E0008E8F91939596989A9C9EA0A2A3A5A7A959
:1005F000ABADAFB1B3B5B7BABCBEC0C2C4C6C9CB50
:10060000CDCFD1D4D6D8DBDDDFE2E4E7E9EBEEF005
:10061000F3F5F8FAFDFF0403300000000E03530069
:100620004E004F0050003600300000000A034E001C
:1006300061007300700000000403090409025B00FC
:10064000030100A0FA0904000001030101000921CF
:10065000110100012240000705810308000A090476
:100660000100020300000009211101000122220003
:100670000705820320000107050303200001090488
:100680000200010300000009211101000122BC0049
:100690000705840320000A12011001000000087001
:1006A0007016240100010203010660FF0961A10127
:1006B0000962150026FF009520750881020963155F
:1006C0000026FF00952075089102C005010902A1CE
:1006D0000185020901A10005091901290515002557
:1006E00001950575018102950175038101050109D7
:1006F0003009311581257F95027508810609381565
:1007000081257F950175088106050C0A380215813F
:10071000257F950175088106C0C005010980A101EA
:10072000850319012AB700150126B7009501751038
:100730008100C0050C0901A101850419012AA0024C
:10074000150126A002950175108100C0050109065A
:10075000A1018505050719E029E715002501950880
:10076000750181020507190029EF1500250195F093
:100770007501810205081901290595057501910288
:10078000950175039101C005010906A1010507192D
:10079000E029E7150025019508750181029501758D
:1007A0000881010507190029FF150026FF0095069D
:1007B0007508810005081901290595057501910243
:1007C000950175039101C00011241FBECFEFDAE03F
:1007D000DEBFCDBF04B603FE27C0809171039091A8
:1007E0007203A0917303B09174038730904BA740BC
:1007F000B04BD1F4109271031092720310927303F4
:100800001092740314BE84B7877F84BF0FB6F89428
:10081000A8958091600088618093600010926000CC
:100820000FBEE0E0F8E3099511E0A0E0B1E0E8EFE9
:10083000F9E602C005900D92A63EB107D9F723E074
:10084000A6EEB1E001C01D92A137B207E1F70E9408
:10085000222D0C9465340C94000081E0089581E011
:1008600008950C942F0408950C9433041F93CF9390
:10087000DF9300D000D00F92CDB7DEB749835A8303
:100880006B833091540289819A8131111DC0662396
:10089000B9F02223A9F00E941B23182F682F898109
:1008A0009A810E94C72269817A81812F0F900F90CF
:1008B0000F900F900F90DF91CF911F910C945216D3
:1008C0000E94F322182FEFCF0E941B2369817A81A7
:1008D000EDCFFC01262F408151816281738184819B
:1008E0000C943604CF93DF93EC0160E00E9469041E
:1008F000BE01DF91CF910C943404FF920F931F93AC
:10090000CF93DF93E82FF0E0E452FD4FF490C82F2F
:10091000C695C695C695D0E0FE01E459FC4F0491FA
:10092000877010E0082E02C0159507950A94E2F72B
:1009300001701127C45ADC4FFE01C491D0E002C0FF
:10094000D595C7958A95E2F7C170DD270115110588
:1009500019F081EE0E94B21A209719F086EE0E94DB
:10096000B21A8F2D0E949F1BCD2B19F086EE0E948C
:10097000491B012B41F081EEDF91CF911F910F9127
:10098000FF900C94491BDF91CF911F910F91FF9025
:100990000895EF92FF920F931F93CF93DF93EC0193
:1009A000162F0AE08881882309F454C0813009F0A9
:1009B0004EC08981813099F47E0122E0E20EF11C63
:1009C0008A810E949F1BE7012196812F815050F35D
:1009D000EFE9FFE03197F1F700C00000F7CF823078
:1009E00041F47E0182E0E80EF11C8A810E94B21A75
:1009F000EACF833041F47E01E2E0EE0EF11C8A8101
:100A00000E94491BE0CF843011F02196DDCF2A816E
:100A1000229690E080E0AE014F5F5F4F2053330B92
:100A20002A30310548F0019778F2EFE9FFE031977D
:100A3000F1F700C00000F7CF089FB001099F700DCB
:100A40001124C901860F971F2981EA01E4CF0E9472
:100A50007D04BACFDF91CF911F910F91FF90EF905E
:100A6000089560E00C94C9048F929F92AF92BF9258
:100A7000CF92DF92EF92FF920F931F936B017C0155
:100A800081E090E0A0E0B0E04C015D0104C0880C82
:100A9000991CAA1CBB1C4A95D2F7B501A4014C01B4
:100AA0005D0104C0880C991CAA1CBB1C2A95D2F7B6
:100AB000482959296A297B2904C0880F991FAA1F30
:100AC000BB1F0A95D2F78A019B010C211D212E2103
:100AD0003F21041715072607370789F48C299D291C
:100AE000AE29BF29BC01CD011F910F91FF90EF905E
:100AF000DF90CF90BF90AF909F908F90089580959A
:100B00009095A095B0958C219D21AE21BF21EACF73
:100B10000F93382F262F6091BA027091BB028091FB
:100B2000BC029091BD02042F432F0E9434050F9107
:100B30000C9405220E94C9260E946524811102C0DE
:100B40000E940B250E944E130C9411080C9414085B
:100B500008950E942E1E0E94A8052FEF84E39CE0BA
:100B6000215080409040E1F700C000000C94A32683
:100B70000F931F93CF93DF93EC0161E00E94690410
:100B80008C01BE010E94E7138823B9F1BE01C801A0
:100B90000E943104882389F1BE01C8010E94F4112A
:100BA000882359F1BE01C8010E94A817882329F1A2
:100BB000BE01C8010E94FA178823F9F0BE01C801DE
:100BC0000E941D198823C9F0BE01C8010E948A1025
:100BD000882399F08A81882339F001158CE518075C
:100BE00051F00E3D1C4579F0CE01DF91CF911F9160
:100BF0000F910C942D040E94A90580E0DF91CF9104
:100C00001F910F9108950E940B25F7CF08950C9422
:100C1000060681E008950C940906CF93C82F0E9420
:100C200007068C2FCF910C940B0690E080E008957E
:100C30000895FC01EE0FFF1FE458FC4F859194913D
:100C40000895CF93DF930E9452160E943607EC015D
:100C5000811520E5920708F042C0811530E4930722
:100C600008F0BDC0883E910528F5803E910508F04A
:100C70009DC0883A910588F4853A910508F08FC0A7
:100C80008130910509F492C0009709F48FC0049750
:100C900008F08CC0D0E0C0E089C08F3B910508F41B
:100CA00089C0805C9109C03CD105A0F30E9419065F
:100CB000EC017CC08115904250F4C11581E0D80749
:100CC00008F074C0C03FD10528F3D0656FC0C115CE
:100CD00090E3D90708F079C0CE019F70E7CF811566
:100CE00025E5920758F5811534E5930708F0A6C06D
:100CF000811542E5940750F4C11581E5D80708F441
:100D000071C0DC2FCC27C16FD06A50C0982F969548
:100D100096959E0123703327C115D34508F07FC0F7
:100D2000C1E0D0E002C0CC0FDD1F2A95E2F720E23F
:100D3000929FC0011124C82BD92B6FC0C11589E522
:100D4000D807A8F4C11598E5D90708F07CC0C115EB
:100D500026E5D20708F09ECF8C2F0E94CD07C82F22
:100D6000D0E0DC2FCC27CC27DF71D0621FC0C115AB
:100D70003AE5D30708F46CC0CE0190568115904235
:100D800008F088CF8D2F8F710E94CD0790E0982FAB
:100D9000882788279F719C012C2BE901E6CFC55A33
:100DA000D0E0C55ADE4FC881D0E0D064CE01DF91DB
:100DB000CF910895C85AD0E0CC0FDD1FC35DDE4F40
:100DC0000990D881C02DD464F1CFCE019927D3FFEB
:100DD00003C0EC01D86CEACFEC01D06CE7CFDF7038
:100DE000D06AE4CFCE01E4E096958795EA95E1F7E5
:100DF00083702C2F26952695237090E2299F9001D1
:100E00001124382B8C2F8370C1E0D0E002C0CC0FAE
:100E1000DD1F8A95E2F7C22BD32BDC68C7CFC1E078
:100E2000D0E002C0CC0FDD1F2A95E2F730E2939F9D
:100E3000C0011124C82BD92BDA68B8CFD82FCC2702
:100E4000C46FD06AB3CFDC2FCC27C06FD06AAECFCF
:100E50008C2F8F700E94CD0734E0D695C7953A95B8
:100E6000E1F7CF709C2FEC01D069A0CF82389105BB
:100E7000B1F1B0F48133910509F475C048F48932B9
:100E8000910509F469C08A32910509F473C0089587
:100E90008533910509F459C08933910501F108950D
:100EA000833E9105A9F138F4803E9105F9F0823E28
:100EB000910549F10895863E9105A9F1873E910576
:100EC000C9F1843E910519F52091630321FF1FC0EC
:100ED0008091620384FD14C087EE90E00895209114
:100EE00062032370A1F080EE90E0089520916203E8
:100EF00020FD47C03091630330FF09C024FF44C088
:100F000090E080E004C02091620322FDF7CF0895B5
:100F10002091620322FD3BC03091630330FDE3CF9B
:100F200024FFF5CFEDCF2091620323FFF0CF24FD06
:100F3000E7CFD2CF2091620323FD2CC03091630311
:100F400031FFEECF84EE90E008952091620325FFFB
:100F5000DECF89E290E008952091620325FFD7CF8C
:100F600085E390E008952091620326FFD0CF8AE2C6
:100F700090E008952091620326FFC9CF81E390E0BD
:100F8000089589E390E0089583EE90E0089582EE5D
:100F900090E0089586EE90E008959091620392FFAC
:100FA00006C0282F28712830F9F4877F846093FFCA
:100FB00006C0282F28712831F1F4877E84612091A2
:100FC000630320FF06C0382F38713830D9F4877F8B
:100FD000816021FF06C0282F28712831D1F4877E37
:100FE000816194FD877E0895282F24712430F9F6BD
:100FF0008B7F8860DCCF282F2471243101F78B7E12
:101000008861DDCF382F3171313019F78E7F8860DC
:10101000E0CF282F2171213121F78E7E8861E1CF29
:1010200008950C94100808950C941308E82FF0E02C
:10103000EE0FFF1FEC5DFC4F8081918108950895B4
:1010400080EA8A95F1F70895CF93DF93ACE6B1E09B
:1010500041E751E0C1E0D0E08D91E82FE295EF70DB
:10106000F0E061A18F709E0101C0220F8A95EAF71E
:10107000922F9095962391A382A1822B82A34A1747
:101080005B0751F7AEE5B1E061E070E08D91E82FCC
:10109000E295EF70F0E041A18F709B0101C0220F3B
:1010A0008A95EAF7922F9095942391A382A1822B9F
:1010B00082A381E0AC36B80749F710921B03109267
:1010C0001A03109225031092240310921D0310920C
:1010D0001C03109227031092260310921F031092F4
:1010E0001E031092290310922803109221031092DC
:1010F000200310922B0310922A03109223031092C4
:10110000220310922D0310922C0385E00E941309F4
:10111000DF91CF910C949A058F929F92AF92BF92DC
:10112000CF92DF92EF92FF920F931F93CF93DF93B3
:101130008CE6E82E81E0F82E0AE113E0912CAA2437
:10114000A394B12CF70181917F01C82FC295CF7074
:10115000D0E099A18F70650101C0CC0C8A95EAF7A7
:10116000892F8C2989A38AA18C2C809488218AA319
:101170000E942008EEE5F1E050E040E030E020E0A1
:101180006191A62FA295AF70B0E090968C9190E0FF
:101190006F7002C0959587956A95E2F780FD3EC015
:1011A000C501042E02C0880F991F0A94E2F7282B6C
:1011B000392B4F5F5F4F4E30510511F789A18822BF
:1011C00089A28AA1C82ACAA2F80180819181281720
:1011D000390739F13183208381E0982A0E5F1F4F50
:1011E000F1E7EF16F1E0FF0609F0ACCF292D45E05D
:1011F00064E273E08AE193E00E9414090E94A6056C
:10120000892DDF91CF911F910F91FF90EF90DF908B
:10121000CF90BF90AF909F908F90089590E080E026
:10122000C6CF80E0DACF0895FF920F931F93CF933C
:10123000DF93F82E092F162FD72FC42F222349F022
:1012400081E08093E8010E9458269093E701809303
:10125000E6018091E8018823A1F08091E601909158
:10126000E7010E947026069760F0EF2DF02FA12F66
:10127000BD2F90E080E0D0E08C179D0744F01092E5
:10128000E801DF91CF911F910F91FF900895219177
:1012900031912D933D930196EFCFEF92FF920F93F3
:1012A0001F93CF93DF93EB01E82FD11110C044239C
:1012B00021F0F0E0EA5EFA4FE4916E2F7E2F8E2F40
:1012C000DF91CF911F910F91FF90EF9008950D2F17
:1012D00010E0282F30E0442329F02A5E3A4FF9012C
:1012E000249130E0F6E0CF9FC0011124EFEFF0E051
:1012F000BF010E940D33AB018C2F90E0880F991F26
:10130000A5E5A49FB001A59F700D1124861B970B26
:10131000982F990F980FBF01601B710B629FD0012E
:10132000639FB00D729FB00D11248B2F9D9FB00154
:101330001124672F7727EF01C61BD70BBE01629FD1
:10134000E001639FD00D729FD00D11247F01E91A37
:10135000F108E09EB001E19E700DF09E700D112429
:10136000672F7727E61BF70BE29F8001E39F100DA5
:10137000F29F100D1124E12F722F4230510599F088
:1013800048F44115510569F04130510581F0EB2FCA
:101390008D2F07C04430510569F080F0463051056B
:1013A000B1F76E2F8DCFE22F7B2F812FFACFE22F57
:1013B0007D2FF7CFEB2F822F712FF3CF7B2F822F33
:1013C000ED2FEFCF41E00C944D090895CF93DF93BB
:1013D000762FE901682F842F0E94E20979836883C0
:1013E0008A83DF91CF91089580912E03982F9E7F5D
:1013F00029F48170826080932E0308958635E8F386
:1014000081708465F8CF88E090E00C940634CF9228
:10141000DF92EF92FF926B017C010E94F409B70109
:10142000A60188E090E0FF90EF90DF90CF900C94C1
:10143000243460912E0370912F038091300390919A
:1014400031030C94070AEEE2F3E083E0808311821B
:101450008FEF828383831482608171818281938183
:101460000C94070A80912E0380FF02C08695089590
:1014700080E0089590913203933018F49F5F909329
:101480003203882351F060912E0370912F038091D5
:101490003003909131030C94070A089581E00C9475
:1014A0003A0A90913203992319F0915090933203A4
:1014B000882351F060912E0370912F0380913003A7
:1014C000909131030C94070A089581E00C94510A1D
:1014D00080913203089580933203662351F0609126
:1014E0002E0370912F0380913003909131030C945F
:1014F000070A089560E00C946B0A80912F03089509
:1015000080913003089580913103089570E00C9428
:1015100064136091080180912E0380FF0AC08091BE
:10152000070123E0829FC00111248D5C9C4F0C9425
:10153000860A8091090190910A0123E0829FF001BF
:101540001124ED5CFC4F891750F711821082128232
:101550008F5F3396F8CF90912E0390FF14C0909137
:10156000090120910A0133E0939FF0011124ED5C01
:10157000FC4F921710F00C94890A81836083428398
:101580009F5F3396F6CF0895CF93DF9300D00F92ED
:10159000CDB7DEB790912E0390FF0AC09E012F5F5A
:1015A0003F4F0E94E6094B8169818A810E94AB0A04
:1015B0000F900F900F90DF91CF910895CF93DF930D
:1015C000EC01EC81F0E0EF56FC4F4491EEE2F3E0E9
:1015D000628181810E94C40A8C818F5F8C83DF913C
:1015E000CF910895CF93DF93EC01EEE2F3E04381D6
:1015F00062818C810E94C40A8C818F5F8C83DF9111
:10160000CF9108950F931F93CF93DF9300D00F9244
:10161000CDB7DEB78C018091E90181110AC09E012E
:101620002F5F3F4F4FEF6FEF0E94E6098A81809353
:10163000E901F8016481613069F08091E90140E0DD
:10164000662361F040E0623011F44091E90180E0EE
:1016500060E004C06091E90140E080E00E94AB0AD4
:10166000F801848190E0019663E070E00E942133EC
:1016700084830F900F900F90DF91CF911F910F9166
:101680000895AF92BF92CF92DF92EF92FF920F93A5
:101690001F93CF93DF9300D00F92CDB7DEB7182FF3
:1016A000F62E042FE22E90912E0390FF29C0E92FF1
:1016B000E695AE2FB0E0AF58BE4F8C9180933902C3
:1016C0009E7F923059F59E012F5F3F4F812F0E94E0
:1016D000E6094B8169818A810E94AB0A10932F032E
:1016E000F092300300933103EE2051F060912E030D
:1016F00070912F0380913003909131030E94070A6B
:101700000F900F900F90DF91CF911F910F91FF904D
:10171000EF90DF90CF90BF90AF900895823019F492
:1017200000913103DBCF863019F410912F03D6CF0F
:101730008930D9F3893191F6E9518E2F8170D82EF5
:10174000E695F0E0EF56FB4FA590B490C12CBB247A
:1017500060910B01C61618F00E94890ABFCF2C2D8C
:1017600030E0A29EC001A39E900DB29E900D112468
:1017700070E00E940D33812FD11013C0860F40916D
:101780000901420F532F511D9A01220F331F240FBD
:10179000351F2D5C3C4F402F6F2D0E94E609C394EE
:1017A000D7CF861BECCFEEE2F3E09181282F438167
:1017B00062818CE0890F0C94410B81E00C94D30B77
:1017C000EEE2F3E09181282F4381628184EF890F5B
:1017D0000C94410B81E00C94E00BEEE2F3E06281AB
:1017E0002CE0620F08F46FEF282F438181810C9465
:1017F000410B81E00C94ED0BEEE2F3E062812CE012
:10180000621B08F460E0282F438181810C94410B16
:1018100081E00C94FC0BEEE2F3E043812CE0420FFC
:1018200008F44FEF282F628181810C94410B81E0F5
:101830000C940B0CEEE2F3E043812CE0421B08F425
:1018400040E0282F628181810C94410B81E00C944F
:101850001A0C20E00C94410BEF92FF921F93CF9350
:10186000DF93EC0110E0EE24EA94F12C60910B017F
:10187000161770F00E94890A9A818C8190FF27C008
:101880008F5F8C83DF91CF911F91FF90EF90089530
:1018900020910901422F410F5527551FCA019A0176
:1018A000220F331F280F391F2D5C3C4F70E0C701FA
:1018B0000E942133962F8C81409131036091300337
:1018C000199F800D11240E94E6091F5FCFCF815020
:1018D000D8CFAF92BF92CF92DF92EF92FF920F9349
:1018E0001F93CF93DF93FC0182810FEF80FF01E014
:1018F00010E04EE0A42E80910B011817C8F00E9452
:10190000890A8091EB01013009F055C0811102C0B4
:1019100080910B0181508093EB01DF91CF911F915A
:101920000F91FF90EF90DF90CF90BF90AF90089510
:10193000C0910901C12ED12CCC0DDD2DD11DCE01C0
:10194000880F991FC80FD91FCD5CDC4F19821882F0
:101950001A8234E0E32EF12CB12C8091EB018B0D37
:101960008F301CF16A2D0E94FF32892F082E000C47
:10197000990BC816D90691F4809131038E9DA00170
:101980008F9D500D112455954795559547959E016E
:101990006091300380912F030E94E609B00EF1E0C0
:1019A000EF1AF108D1F61F5FA6CF87FFDFCF909126
:1019B0000B01890FDBCF90E0019660910B0170E085
:1019C0000E942133A8CF0F931F93CF93DF93809171
:1019D000090190910A0123E0829FF0011124ED5C3E
:1019E000FC4F891740F1C0E0D3E060910B01C617AE
:1019F00040F10E94890A209105018091EA01820F3D
:101A00008093EA0190910601920F909306011916B6
:101A100054F4082E000C990B40910B014150550BCA
:101A2000841795071CF0219520930501DF91CF9134
:101A30001F910F9108951182108212828F5F339649
:101A4000D0CF0C2F10E070E0C8010E94213320910C
:101A50000901820F482F50E02091EA01022E000C6C
:101A6000330B02171307BCF020910601022E000C65
:101A7000330B201731077CF08D9F900111242D5CD2
:101A80003C4F409131036091300380912F030E94BD
:101A9000E609CF5FAACFFA01EE0FFF1FE40FF51F93
:101AA000ED5CFC4F118210821282F3CF8F929F92D5
:101AB000AF92BF92CF92DF92EF92FF920F931F935C
:101AC000CF93DF93EC014C81042F10E09801D801F3
:101AD0000E946C339B01AC010E9482334B015C017C
:101AE000E0E2F0E0E01BF10BA5E5B0E0AC019B010A
:101AF0000E9482336B017C019F01DF010E946433ED
:101B00009B01AC010E948D339B01AC01280D391D56
:101B10004A1D5B1DC701B6010E943533F22E822F8C
:101B200090E039E23F1560F143E0249F90011124D9
:101B300035952795122F109500E085E5E82EEF18D2
:101B400080910B01081758F10E94890A9C8181E05D
:101B5000992319F0903219F48FEF8093040180914A
:101B60000401890F8C83DF91CF911F910F91FF901A
:101B7000EF90DF90CF90BF90AF909F908F9008959F
:101B800025E530E0B901681B790B9B01220F331F5B
:101B9000260F371F37FFCCCF2F5F3F4FC9CF8E2D7A
:101BA00001FD8F2D20910901622F600F7727771F8C
:101BB0009B01220F331F260F371F2D5C3C4F412FF7
:101BC000609130030E94E6090F5FBACF0F931F9315
:101BD000CF93DF93EC0110E000E090910B019017A0
:101BE000110609F06CF40E94890A8C8190E001963C
:101BF000817099278C83DF91CF911F910F91089568
:101C000020910901A801420F511D9A01220F331F93
:101C1000240F351F2D5C3C4F4C8160913003809127
:101C20002F0396959017110651F04CF0442349F07C
:101C3000409131030E94E6090F5F1F4FCECF44232E
:101C4000B9F340E0F7CF8F929F92AF92BF92CF92BD
:101C5000DF92EF92FF920F931F93CF93DF93FC01DC
:101C6000B280948081E0848300E015E05BE4A52EDF
:101C700088248394EE24EA94F12C7BE4C72ED12CA3
:101C800080910B01081770F0DF91CF911F910F9198
:101C9000FF90EF90DF90CF90BF90AF909F908F908C
:101CA0000C94890AC02FD0E01C9FF0011D9FF00DFD
:101CB0001124E451FE4F91101CC013821282209116
:101CC0000901CE01820F911D9C01220F331F280FA5
:101CD000391F2D5C3C4F1C9FF0011D9FF00D1124FE
:101CE000E451FE4F4281618180810E94E6090F5FCD
:101CF000C7CF2381222379F12150238334818A2D78
:101D0000821B311101C0822F1C9FF0011D9FF00D1D
:101D10001124E451FE4F90913103899FC001112499
:101D2000B6010E940D336283211104C0332311F0E8
:101D30001482A38222E02B1510F21C9FF0011D9F3C
:101D4000F00D1124E451FE4F80912F038083809188
:101D500030038183B4CF0E94E133823091400CF094
:101D6000AECF82E08B1530F50E94E133B7010E94BF
:101D700021331C9FF0011D9FF00D1124E451FE4FF3
:101D8000808322E02B15C8F40E94E13320913003B8
:101D90002695622F70E00E942133280F1C9FF001CE
:101DA0001D9FF00D1124E451FE4F21831282A38266
:101DB000848285CF80912F03DCCF20913003EECF3A
:101DC000EEE2F3E080818E7F808360817181828189
:101DD00093810E94070A10923A022FEF80E792E067
:101DE000215080409040E1F700C000000C94890A27
:101DF000EEE2F3E080818E7F808310923A022FEF33
:101E000080E792E0215080409040E1F700C0000060
:101E10000C94890A60912E03669570E04BE050E0C7
:101E20008CE091E00E94F133892B19F481E08093DA
:101E30003A020E945826909333028093320208950A
:101E400090912E0390FF35C09170811128C092604F
:101E500090932E03662351F060912E0370912F030F
:101E600080913003909131030E94070A60912E0304
:101E7000669570E04BE050E08CE091E00E94F13319
:101E8000892BA1F010923A0281E0809335024091B3
:101E900031036091300380912F030C94290C8B3215
:101EA00010F09465D5CF880F982BD2CF0E940A0FDF
:101EB000EBCF0895682F90912E03969581E0890FBE
:101EC0008B3208F081E00C94200F81E00C945A0FC3
:101ED000682F90912E0396958FEF890F09F48AE26F
:101EE0000C94200F81E00C94680F61E00C94200F9B
:101EF000EEE2F3E080818160808386950C94750F1B
:101F000080912E0380FD0C94E00E0C94780F60E01D
:101F10000C94200F8091380281112EC00E946524FC
:101F2000811104C00E940B250E94230A0E94030A0B
:101F300060932E0370932F038093300390933103AB
:101F40006E7F61F40E94230A0E94030A60932E03AD
:101F500070932F0380933003909331030E94F40910
:101F600010923A0280912E0380FF03C086950E9452
:101F7000870F81E0809338020895EEE2F3E08081DC
:101F80008160808386950C94870F0F931F93CF9366
:101F9000DF9380913A02882309F49DC08091390231
:101FA000E0912E03E695E81BE09334028230C9F5F8
:101FB000F0E0E357FC4FE491CE2FD0E00EED1AE0B5
:101FC00080913502882389F0109235020E945826AC
:101FD0009E0120953095820F931F9093330280933A
:101FE00032021092370210923602809132029091A2
:101FF00033020E9470268C179D0708F46CC0E09194
:102000003202F0913302CE0FDF1FD0933302C09320
:10201000320282E392E0F801DF91CF911F910F919C
:102020000994863049F4F0E0E657FC4FE491CE2F56
:10203000D0E002EF1AE0C4CF893051F4E695F0E029
:10204000E957FC4FE491CE2FD0E00CE21CE0B8CF72
:102050008F3051F4E695F0E0EC57FC4FE491CE2F31
:10206000D0E009E61CE0ACCF853149F4F0E0EF5751
:10207000FC4FE491CE2FD0E003EE1CE0A1CFC8E2EC
:10208000D0E006E51DE0883109F49ACF833239F4B7
:10209000EFE7F3E0C591D49102E01BE091CFC4EFEC
:1020A000D1E006EE1DE0843209F48ACFC0EDD7E01E
:1020B00005EE19E0853209F083CF8E2F63E00E9490
:1020C000F332E92FF0E0E458FC4FE491CE2FD0E05A
:1020D00003E21EE075CFDF91CF911F910F9108951C
:1020E000FA01811101C0FB010994CF93DF93C82F3E
:1020F000D62F0E94320A8C1740F00E94320A8D17A8
:1021000020F4DF91CF910C94650F8C2FDF91CF914C
:102110000C94750F0F931F93CF938C01FB01C28119
:10212000CC2309F465C00E94B0238272F801E25CFE
:10213000FC45E431F10538F4E959FB4C0C94573374
:102140000E94800FC0E08C2FCF911F910F910895B6
:1021500042E75FE065E67FE00E947010F3CF45E65E
:102160005FE062E77FE0F8CF4AEE5BE06DED7BE099
:10217000F3CF4DED5BE06AEE7BE0EECF48E05CE054
:1021800069EF7BE0E9CF49EF5BE068E07CE0E4CF1A
:1021900046E25CE067E17CE0DFCF47E15CE066E2DD
:1021A0007CE0DACF45E65AE06EE47AE0D5CF4EE443
:1021B0005AE065E67AE0D0CF81E00E94750FC2CF89
:1021C00065E082E00E947510BDCF68E086E0FACF3E
:1021D0006EE089E0F7CF64E18FE0F4CF67E185E15D
:1021E000F1CF88E1EACF62E289E1ECCF83E2E5CF8B
:1021F000C1E0A9CF80915D030C94972480915D0389
:10220000869586958695089580915D0381FD07C02A
:10221000826080935D030E9497240C94C3120895FA
:1022200080915D0381FF07C08D7F80935D030E94D5
:1022300097240C94CD12089580915D0381FD0C9438
:1022400010110C94041180915D038695817008959E
:102250008091170108950E946524811102C00E9497
:102260000B250E94932480935D03883320F08770B0
:10227000806380935D0390915D03892F817090FF4F
:1022800004C0892F8695869586950C94831280913B
:102290005D03982F969596959695963040F49F5F9E
:1022A000990F990F990F8770892B80935D03809107
:1022B0005D03816080935D030E94972480915D039C
:1022C0008695869586950C94831280915D03982F50
:1022D000987F79F0885080935D03887F91E009F4BE
:1022E00090E080915D0390FB80F980935D030E94F4
:1022F000972480915D038695869586950C9483122C
:1023000080915D0380FD13C0816080935D03813007
:1023100019F489E080935D0380915D030E94972406
:1023200080915D038695869586950C948312089519
:1023300080915D0380FF08C08E7F80935D030E94C3
:10234000972480E00C948312089580915D0380FDB2
:102350000C9498110C94801190915D03892F8695AF
:10236000869586958F5F8F7197708730D8F4880F28
:10237000880F880F892B80935D0380915D03887F90
:1023800091E009F490E080915D0390FB80F98093E7
:102390005D030E94972480915D03869586958695BE
:1023A0000C94831290935D03E8CF873008F086E0A9
:1023B00090915D039770282F220F220F220F922BEE
:1023C00090935D03987F21E009F420E090915D03F4
:1023D00020FB90F990935D030C9483120E94D51119
:1023E00080915D030C949724FC01DB0112968C9183
:1023F0008823F9F0EB5BFC45E730F105D8F4E558AC
:10240000FB4C0C94573386E00E94EE1180E0089557
:1024100080E0FACF0E946511F9CF0E944711F6CFF4
:102420000E94A511F3CF0E94AC11F0CF0E941C11A5
:10243000EDCF81E00895519A59980895599A0895D9
:1024400059980895CF92DF92EF92FF928C3724E152
:10245000920750F469E070E00E940D33CB01FF90C9
:10246000EF90DF90CF900895B0E0A0E0BC01CD01E7
:102470006A50774D8F4F9F4F982F872F762F662763
:1024800025EF38E241E050E00E94353369017A01DE
:10249000CA01B9010E94E3329B01AC01C701B60138
:1024A0000E94E332672F782F892F992761157105D4
:1024B00021E08207910591F66FEF7FEFCFCF1F925A
:1024C0000F920FB60F9211242F933F934F935F9368
:1024D0006F937F938F939F93AF93BF93EF93FF93EC
:1024E0000E942012FF91EF91BF91AF919F918F9128
:1024F0007F916F915F914F913F912F910F900FBE00
:102500000F901F901895CF93C82F873048F58111F1
:1025100028C08091880090918900892B51F080918A
:102520006F008D7F80936F0080916F008E7F80930E
:102530006F000E9420122C2F30E0AFEFBFEF0E94FF
:102540006C3326E030E040E050E00E943533C901B2
:102550000E9422129093890080938800CF91089561
:10256000C6E08091880090918900892B21F78091A5
:102570006F00826080936F0080916F008160809314
:102580006F00D9CF089510923D0210923C02109234
:102590003E0281E080933B02089510923B020E942C
:1025A000FE100C948312CF930E94281140913C029C
:1025B00050913D024F5F5F4F94EF899F900111242E
:1025C000CA01B9010E940D3390933D0280933C02F1
:1025D000B901660F672F661F770B71950E940D3347
:1025E0006F7780913E02823029F4603439F4109282
:1025F0003B0204C0813011F46F37C9F3E62FF0E0DD
:10260000EA56FB4FC4910E94FE10282F41E051E092
:10261000C49FC001C59F900D112466E070E00E9428
:102620000D33269FC001279F900D11240E94221276
:102630009093890080938800CF9108951F920F9204
:102640000FB60F9211242F933F934F935F936F9385
:102650007F938F939F93AF93BF93EF93FF9380915B
:102660003B0281110E94D3128091880090918900D1
:102670008130914010F00E941E12FF91EF91BF91A6
:10268000AF919F918F917F916F915F914F913F910A
:102690002F910F900FBE0F901F9018950E941B1244
:1026A00082E08093800089E1809381008FEF9FEF2B
:1026B00090938700809386000E942B110E94231123
:1026C00081110C94C3120895219A45B14D7F55B1E3
:1026D0005260EFB7F8949B01220F331F260F371F6C
:1026E000280F391F2817390741F4EFBF8FE594E011
:1026F0000197F1F700C000000895DC016D91CD0154
:1027000078E055B9000000C067FF45B9660F0000CA
:1027100000C000C000C045B900C07A9591F7E2CF73
:1027200082E290E00E94FE33823289F483E290E0FC
:102730000E94FE33853059F484E290E00E94FE331B
:1027400091E0873109F090E0892F8170089580E051
:10275000FCCFCF93C82F6FEF811162E282E290E04D
:102760000E9412346FEFC11165E083E290E00E9495
:1027700012346FEFC11167E184E290E0CF910C94C5
:10278000123480E00E94A9130C945F24089585E21E
:1027900090E00E94FE33682F70E090E080E00895A2
:1027A00085E290E00C9412340E94C6130E949013AC
:1027B00081110CC060E070E0CB010E94D0130E9438
:1027C000CA150E94B61681E00C94A9130895CF9300
:1027D000FB01C281CC2309F19C0122513F452031EC
:1027E000310520F582510E94C616C0E08C2FCF9192
:1027F000089581E00E942B2243E062E081E00E9484
:102800008805F3CF81E00E944C2243E062E081E042
:102810000E948805EBCF82E0F6CF8031FFE59F076D
:1028200089F381319F45B9F3C1E0E0CF8031EFE515
:102830009E07F9F281319F45C9F682E0DBCF2FEF89
:10284000FC0120830895CF93DF93EC0188818930C8
:1028500029F08A3079F0DF91CF9108950E94FE101F
:102860002FEF829FC001112466E070E00E940D33BB
:102870006983F1CF0E9423118983EDCFFC01808110
:10288000893019F08A3069F00895818126E0829FAD
:10289000C00111246FEF70E00E940D33862F0C945D
:1028A000D5118181811102C00C9410110C94041176
:1028B000CF93DF93EC0188818138A9F028F4803828
:1028C00071F0DF91CF910895823881F08338C9F794
:1028D0000E947D0A89830E94800A8A83F2CF0E9427
:1028E000830A8983EECF0E94320AFBCF0E94680AD6
:1028F000F8CFCF93DF93EC0188818138E1F028F4A1
:10290000803869F0DF91CF910895823811F18338D2
:10291000C9F70E94830A482F6A81898108C0D9813A
:102920000E94800AC82F0E947D0A4D2F6C2FDF91D4
:10293000CF910C94290C89810E94870F8981811184
:1029400004C0DF91CF910C94F80EDF91CF910C94DD
:10295000BD0F8981DF91CF910C947A0ADF92EF92BB
:10296000FF920F931F93CF93DF93EC01D62EDC01E0
:10297000ED918D01E150E33108F0C9C0F0E0EE5770
:10298000FB4C0C945733198289E08A836D2DCE015C
:10299000DF91CF911F910F91FF90EF90DF900C94FA
:1029A000162C8981823069F0833071F08130D9F43E
:1029B0000E9464260E945D336A837B838C839D839F
:1029C000E5CF0E94C713F6CF7E0110E0812F0E9451
:1029D0001608F701928383831F5FF2E0EF0EF11C6C
:1029E0001530A1F7D3CF6D2DCE010E941F14CECF8D
:1029F00089818230C1F76A817B818C819D810E94AF
:102A00005D330E94D013C2CF4B816A8189810E94BD
:102A10009C159827892798279D838C83B7CF2C8175
:102A20003D813227232732274B816A8189810E9489
:102A3000B515ACCF0E94CA15A9CFCD010E943E1496
:102A4000C8010E947914A2CFCD010E942314C801AD
:102A50000E9458149BCF0E94FA100E94190A96CF28
:102A60000E945F16898392CF0E946116982789275A
:102A700098279A8389838ACF6B8170E089819A81B4
:102A8000AE014C5F5F4F9827892798270E946416F4
:102A90007DCF6B8170E089819A81AE014C5F5F4F81
:102AA0009827892798270E948B1670CF0E94B61608
:102AB0006DCF0E948A15D6CF6B8170E089819A8193
:102AC000AE014C5F5F4F9827892798270E94021616
:102AD0005DCF6B8170E089819A81AE014C5F5F4F61
:102AE0009827892798270E94281650CF0E94C11343
:102AF0004DCF0E94162C2FEF81EE94E021508040A4
:102B00009040E1F700C000000E94A3263FCF8FEF66
:102B100088833CCF84E0089550E0440F551F9CE12A
:102B2000699F400D511D11249CE8899F400D511D46
:102B30001124CA01869608950F931F93CF93DF93B4
:102B40000E948C158C010E94FE33C82FD0E0DC2F30
:102B5000CC27C80101960E94FE339E01282BC90193
:102B6000DF91CF911F910F9108950F931F93CF93F2
:102B7000DF93122F032F0E948C15EC01602F0E940F
:102B80001234612FCE010196DF91CF911F910F91E9
:102B90000C941234AF92BF92CF92DF92EF92FF92D9
:102BA0001F93CF93DF938CEAC82E80E0D82ED0E01D
:102BB0007601C0E014C0F50125913491412F6C2FAE
:102BC0008D2F0E94B51582E0A80EB11C1F5F1E302C
:102BD00091F78CE1E80EF11CCF5FC53019F0570179
:102BE00010E0E9CFDF5F8CE8C80ED11CD43001F7CC
:102BF000DF91CF911F91FF90EF90DF90CF90BF902A
:102C0000AF900895EF92FF920F931F93CF93DF93AE
:102C1000EC018A017C01E60EF71ECE018696CE15E8
:102C2000DF0539F4DF91CF911F910F91FF90EF9065
:102C30000895C03322E0D20740F40E94FE33F80129
:102C400080830F5F1F4F2196E8CFF8011082F9CFE4
:102C5000CF92DF92EF92FF920F931F93CF93DF9368
:102C60007C016A018C01060F171FEC01CE018696CC
:102C7000C017D10749F4DF91CF911F910F91FF90B9
:102C8000EF90DF90CF900895C03322E0D20740F458
:102C9000FE01EE19FF09EC0DFD1D60810E9412344A
:102CA0002196E4CF462F843038F4753028F46E3006
:102CB00018F4672F0C949C1590E080E0089580E153
:102CC00008958AEA91E00895EF92FF920F931F937F
:102CD000CF93DF93EC018A017C01E60EF71ECE0153
:102CE0008A5A9D4FCE15DF0539F4DF91CF911F91A0
:102CF0000F91FF90EF900895CA3A21E0D20740F477
:102D00000E94FE33F80180830F5F1F4F2196E7CFAB
:102D1000F8011082F9CFCF92DF92EF92FF920F93DA
:102D20001F93CF93DF937C016A018C01060F171F5D
:102D3000EC01CE018A5A9D4FC017D10749F4DF91AB
:102D4000CF911F910F91FF90EF90DF90CF9008955A
:102D5000CA3A21E0D20740F4FE01EE19FF09EC0D5A
:102D6000FD1D60810E9412342196E3CFCF93DF9343
:102D7000C6E5D2E060E0CE010E9412342196C11572
:102D800084E0D807B9F7DF91CF910895DF92EF92F1
:102D9000FF920F931F93CF93DF9300D000D0CDB756
:102DA000DEB7F82E8FE08F1540F08FEF93E00E9492
:102DB000FE3306E512E08823C1F00F900F900F90CC
:102DC0000F90DF91CF911F910F91FF90EF90DF90C7
:102DD0000895011584E0180781F3C8010E94FE33AD
:102DE000811101C0FA940F5F1F4FF110F2CF1982C9
:102DF0001A821B821C82DD24D39478018FEFE81A9B
:102E0000F80AC8010E94FE3389831A828823A9F236
:102E10009FEF980F933078F48A83D9820E5F1F4F0B
:102E2000C7010E94FE338B83882339F2CE010196BD
:102E30000E943105E2CF8701F9CFAF92BF92CF92C6
:102E4000DF92EF92FF920F931F93CF93DF937C015A
:102E50005B01C42FD22FFC0182818823F9F04093BB
:102E600041020E9458269093400280933F0280E2E4
:102E70008C0F883008F061C0C77081E001C0880FF6
:102E8000CA95EAF7DF91CF911F910F91FF90EF90D4
:102E9000DF90CF90BF90AF900C94B21B1091410285
:102EA000141340C080913F02909140020E9470260E
:102EB0006C01B701C5010E94A420C816D90690F57F
:102EC000C0E2CD0F1D17B9F080E2810F883040F4C9
:102ED000177081E001C0880F1A95EAF70E94B91BAC
:102EE000C83048F481E09D2F977001C0880F9A95F3
:102EF000EAF70E94B21B802F0E949F1BC830E8F4A3
:102F0000D77081E001C0880FDA95EAF7DF91CF91A1
:102F10001F910F91FF90EF90DF90CF90BF90AF90F7
:102F20000C94B91B80E28C0F883038F4C77081E0B4
:102F300001C0880FCA95EAF7E9CFDF91CF911F91C1
:102F40000F91FF90EF90DF90CF90BF90AF900895DA
:102F50000F939C01CB01233F4CE5340759F1A8F4B2
:102F6000283DFCE53F0701F1293D4CE53407D1F14F
:102F7000273D3C4591F406E221EE41EE67ED7CE50C
:102F80000E941D1780E00F910895253FFCE53F0743
:102F9000E9F0B0F0263F3C45F9F0FC01828188233E
:102FA00039F110924102EFCF07E225EE45EE68EDD0
:102FB0007CE5E6CF06E221EE40EE63EF7CE5E0CF74
:102FC00007E225EE44EE64EF7CE5DACF06E221EE7F
:102FD00042EE65EF7CE5D4CF07E225EE46EE66EFE4
:102FE0007CE5CECF08E221E045EE69ED7CE5C8CF77
:102FF00081E0C9CFCF93DF93EC01FB01828188236D
:1030000009F419C1C230FCE5DF07C0F1C6319CE507
:10301000D90730F09E012A5F3C452930310570F513
:103020000E9478249093630380936203C031ECE59F
:10303000DE0709F4CFC008F05BC0C8308CE5D807C4
:1030400009F4B6C088F5C430ECE5DE0709F4A8C081
:10305000C0F4C2308CE5D80709F49CC080916203AB
:103060008260C330DC4509F498C08091620390917E
:1030700063030E9486240E942E1E80E0DF91CF9180
:103080000895809162038061C630ECE5DE0709F4A3
:1030900084C0809162038860C730DC4508F47DC03D
:1030A00080916203806279C0CC308CE5D80709F446
:1030B00089C070F4809162038C60CA30ECE5DE0751
:1030C00009F46BC008F478C0809162038E7F65C0FC
:1030D000CE308CE5D80709F479C0809162038B7FEC
:1030E000CF30DC4508F459C0809162038F7E55C013
:1030F000CB3FECE5DE0709F457C030F5C3318CE572
:10310000D80709F46FC078F4C131ECE5DE0709F4A3
:1031100065C0C231DC4509F0A8CF0E942E1E809107
:1031200062038F773AC0C5318CE5D80709F462C0D5
:1031300008F476C0809163038160CA3FDC4509F0E2
:1031400094CF8093630391CFCF3FFCE5DF0709F471
:103150004DC088F4809163038D7FCD3F9CE5D907F6
:1031600081F3809163038E7FCE3FDC4550F38091E5
:1031700063038360E6CFC130FDE5DF0709F459C082
:1031800008F444C080E0C230DD4509F06ECF0E94F3
:103190000D256BCF8091620381608093620365CFC0
:1031A000809162038460F9CF809163038260C9CF0C
:1031B000809162038064F1CF0E942E1E8091620391
:1031C0008068EBCF809162038D7FE7CF80916203AF
:1031D000877FE3CF809162038F7DDFCF8091620391
:1031E0008F7BDBCF80916203837FD7CF8091630396
:1031F0008C7FA7CF8091620382FB992790F921E011
:10320000922790FB82F990FB83F9C7CF80916303EB
:10321000982F909591708E7F892B90FB81F991CF9B
:103220000E942E1E90916203892F97FB87F9805888
:10323000B4CF81E0ACCF81E021CFCF93DF93EB011E
:1032400086319C4511F50E94B0239A81992399F00B
:103250008A7A91E009F490E090934202811109C0CA
:1032600089E20E948B230E94FC2380E0DF91CF91B2
:10327000089585E3F6CF80914202811104C089E26E
:103280000E949223F0CF85E3FBCF81E0EFCF9093B4
:103290004802809347020895E0914702F091480266
:1032A000309721F00190F081E02D099480E008959D
:1032B000E0914702F0914802309799F020912C015B
:1032C000222359F02091620327FF07C0DC012C91D3
:1032D00011962C93119725E02C930280F381E02D19
:1032E00009940895E0914702F0914802309739F02F
:1032F00022E0DC012C930480F581E02D09940895EF
:1033000020914502309146022817390771F09093B9
:10331000460280934502E0914702F09148023097BF
:1033200021F00680F781E02D099408952091430251
:10333000309144022817390771F09093440280932A
:103340004302E0914702F0914802309721F0008457
:10335000F185E02D0994089585B7806885BF85B70C
:10336000806885BF0895089508950C94B319089551
:103370000C94B7190E94AC190E94B4190C94B51999
:1033800081E008950C94C0190E944F260E942408E1
:103390000E94D4130E94DD260E942B110E948A0FE6
:1033A0000C94B8199F92AF92BF92CF92DF92EF9296
:1033B000FF920F931F93CF93DF93CDB7DEB72A977A
:1033C0000FB6F894DEBF0FBECDBF0E948C080E94DE
:1033D000C219882309F474C05AE4A52E52E0B52E10
:1033E00010E000E0902E802F0E9416086C01F5017D
:1033F000E190F1905F01E816F90609F45BC0809155
:10340000E70281FD0E941F0897012C253D2580E0E1
:10341000EE24E394F12CA9014E215F21452B09F400
:1034200043C08E839F82CE20DF2081E0CD2809F427
:1034300080E088870E9458268160782F9A87898744
:103440004E815F8168858A850E94831A000F111F53
:10345000F801E65BFD4F80819181E826F926F18233
:10346000E0820E94C50F0E94C2120E9488280E941A
:103470004C19909149028917A1F10E944C1980932F
:1034800049022A960FB6F894DEBF0FBECDBFDF917A
:10349000CF911F910F91FF90EF90DF90CF90BF9051
:1034A000AF909F900C940D068F5FEE0CFF1C8E303A
:1034B00009F0B1CF0F5F1F4F0530110509F092CF12
:1034C0008FEF89838A831B820E9458268160782F20
:1034D0009D838C8349815A816B818D810E94831ADF
:1034E000C0CF2A960FB6F894DEBF0FBECDBFDF91D6
:1034F000CF911F910F91FF90EF90DF90CF90BF90F1
:10350000AF909F900895CF93DF93CDB7DEB72B9701
:103510000FB6F894DEBF0FBECDBF4F8358876987C3
:103520007A878B871E821D8285E0FE013796DE0139
:10353000119601900D928A95E1F749815A816B812C
:103540007C818D819E812B960FB6F894DEBF0FBED5
:10355000CDBFDF91CF910C94A720FC018081918198
:103560000C945D23CF93C82F882309F490C0823830
:10357000C1F40E944C1981FD8AC089E30E948B230B
:103580000E94FC232FEF81EE94E021508040904078
:10359000E1F700C0000089E30E949223CF910C94D0
:1035A000FC238338A1F40E944C1980FD70C083E590
:1035B0000E948B230E94FC232FEF81EE94E0215088
:1035C00080409040E1F700C0000083E5E5CF8438FB
:1035D000A1F40E944C1982FD5AC087E40E948B23FB
:1035E0000E94FC232FEF81EE94E021508040904018
:1035F000E1F700C0000087E4CFCF8CEF8C0F813A59
:10360000B8F48C2F0E94EF2A811141C06C2F809159
:103610001801909119010E942625882329F08C2FEA
:103620000E9492230E94FC238C2F0E948B23B6CFF2
:1036300080E28C0F883048F4C77081E001C0880FA9
:10364000CA95EAF70E94B323A9CFEBE5EC0FE3306C
:1036500040F4F0E0E653FE4F808190E0CF910C946F
:103660008019E8E5EC0FE73150F4F0E0EE0FFF1FB2
:10367000E456FE4F80819181CF910C949619C03F02
:1036800030F08C2F0E948227CF910C946D28CF911F
:103690000895882309F452C0823871F40E944C19AD
:1036A00081FF4CC089E30E948B230E94FC2389E3A5
:1036B0000E9492230C94FC23833859F40E944C19E5
:1036C00080FF3CC083E50E948B230E94FC2383E59E
:1036D000EFCF843859F40E944C1982FF2FC087E441
:1036E0000E948B230E94FC2387E4E2CF9CEF980F7B
:1036F000913AF0F290E2980F983050F4877091E090
:1037000001C0990F8A95EAF7892F0E94B923D2CF79
:103710009BE5980F933020F490E080E00C948019A2
:1037200098E5980F973120F490E080E00C9496197A
:10373000803F20F00E94EA270C946D280895CF93D3
:10374000C82F0E94B21AC93349F42FEF87EE93E0D5
:10375000215080409040E1F700C000008C2FCF91B5
:103760000C94491B882321F00E94B3230C94FC2362
:103770000895882321F00E94B9230C94FC23089516
:10378000BF92CF92DF92EF92FF920F931F93CF934E
:10379000DF936C01D62FC72FFC01058102950F70B6
:1037A000128111110E94D0230E94A923E82E8823A0
:1037B00091F01123D1F08C2F807F803421F080E2B2
:1037C0008D0F883090F082E00E9447240E94A92348
:1037D00091E0E82EE926BC2EB2949FE0B922EB2DB1
:1037E000F0E0EB56FB4C0C945733E12CF4CF0C2F4C
:1037F0000F70C07F11F00295007F1123A9F0002304
:1038000059F080E28D0F883010F0D11109C0802F5F
:103810000E94B3230E94FC238D2F0E94B21A14C071
:10382000802F0E94C323F6CF8D2F0E94491B0023B7
:1038300059F080E28D0F883010F0D1112CC0802F0C
:103840000E94B9230E94FC232B2D2850330B2430D7
:10385000310520F40E944C190E940D06EE2009F457
:103860009EC10E94A52380FD9AC1F60112820E948A
:103870009F230E942B22C6010E94F01D0E949F23BD
:10388000DF91CF911F910F91FF90EF90DF90CF903C
:10389000BF900C944C22802F0E94C923D3CFFC2FC1
:1038A000FF70FF2EC07FC03219F0F29480EFF82233
:1038B000DD2369F0D13049F1112391F1002351F159
:1038C000F601858180FFA8CF8F70858323C01123E7
:1038D00081F0011106C00E94E3238F290E94B21BD0
:1038E000B3CF0130C1F70E94E3238F290E94E9235F
:1038F000ABCF011106C00E94F2238F2D0E94B91B8D
:10390000A3CF013009F4A0CFF6CF112329F0033063
:1039100008F09ACF8F2DE2CF023008F095CFEDCF8F
:10392000002359F3D93349F4FFEF27EE33E0F15088
:1039300020403040E1F700C000008D2F0E94491B5D
:1039400083CF8C2F86958695837069F0813009F03E
:103950007BCF8D2F9C2F9370111102C090E080E0DF
:103960000E94961971CF8D2F9C2F9370111102C058
:1039700090E080E00E94801967CF8D2F112329F0FD
:103980000E9482270E946D285FCF0E94EA27FACF0B
:103990008C2F837009F041C0111156CF4D2F4295E5
:1039A00046954770440F440F0D2F0F7010E030E024
:1039B00020E0042E04C0000F111F221F331F0A94A1
:1039C000D2F760E070E0CB01D4FF0FC06FE070E091
:1039D00080E090E004C0660F771F881F991F4A950A
:1039E000D2F76095709580959095C695C695C370F1
:1039F000602B712B822B932BC23049F058F4C130CD
:103A000019F00E94DD2120CF0E94CB211DCF0E9402
:103A1000EF211ACF0E94C92117CF8695112311F0EB
:103A20008C2F8170882309F40FCF4D2F4295469536
:103A30004770440F440F0D2F0F7010E030E020E06E
:103A4000042E04C0000F111F221F331F0A94D2F747
:103A500060E070E0CB01D4FF0FC06FE070E080E069
:103A600090E004C0660F771F881F991F4A95D2F710
:103A70006095709580959095C695C695C370602B9E
:103A8000712B822B932BC23049F058F4C13019F0BE
:103A90000E94A222D9CE0E949022D6CE0E94B422A9
:103AA000D3CE0E940522D0CECF70112329F08C2FC7
:103AB0000E942B228D2F12CF8D2F0E94B91B8C2F8D
:103AC0000E944C22C1CED23F89F160F4D03FC9F0B0
:103AD000D13F29F1112309F442C001119DCE8C2F51
:103AE0008F7121C0D33F39F1D43FA1F7112369F180
:103AF000CF718C2F0E942B2263E08C2F0E943224E6
:103B0000A3CE112341F0023008F09ECE8C2F8F718E
:103B10000E946F2299CE033008F096CEF7CF8C2FFB
:103B20008F71112369F20E942B228ECE8C2F8F7100
:103B30001123C9F3C5CF112329F08C2F8F710E9457
:103B4000162282CE0E9411227FCE81E00E9447245D
:103B5000023008F479CE82E00E94472475CE00231B
:103B600059F0D93309F0E9CE8FEF97EEE3E08150B9
:103B70009040E040E1F7DFCE8C2F8F71A1CF4C2F2A
:103B80004F706D2FC6010E9415060E9441215CCE28
:103B90004C2F4F706D2FC6010E94180655CEDF9135
:103BA000CF911F910F91FF90EF90DF90CF90BF903A
:103BB00008950F931F93CF93DF93EC016881798170
:103BC0008A810E9467238C010E94C6220E94C8211C
:103BD000B801CE01DF91CF911F910F910C94C01BC2
:103BE000CF93DF93EC018B819C81892B29F0888115
:103BF000998189238F3F59F4DF91CF910895CE01A8
:103C00000E94D91DCE01DF91CF910C947204CE0198
:103C10000E94B8058111F3CF0E94A923882361F384
:103C20008A81882349F382E0DF91CF910C94472465
:103C30000E94D0230E94E0230E94FC230E9494292A
:103C40000E946D2890E080E00E94801990E080E062
:103C50000C9496190E9499230C94181E0E94C0235C
:103C60000C942A1EE92FE295EF70E250EE3070F4CA
:103C7000F0E0EB55FB4C0C945733803F19F020F4E7
:103C8000883E20F481E00895843FE1F380E00895C8
:103C9000883EC0F3813FD1F7F5CF93FB882780F9A9
:103CA00008950E945D230C94321ECF93DF9300D0C1
:103CB00000D00F92CDB7DEB70F900F900F900F90FE
:103CC0000F90DF91CF910895CF93DF9300D000D074
:103CD00000D0CDB7DEB726960FB6F894DEBF0FBE84
:103CE000CDBFDF91CF9108951F93CF93DF93C09104
:103CF000550216E0809156028C1304C0DF91CF91DB
:103D00001F910895D0E01C9FF0011D9FF00D11241C
:103D1000E95AFD4F4081518162817381848195818F
:103D20000E94641E2196C770E5CF40918702509192
:103D300088026091890270918A0280918B02909131
:103D40008C020C94641E1F93CF93DF9380918C029E
:103D5000807FA9F480918902882389F0809155029F
:103D6000C09156026091870270918802A0918A02E8
:103D7000B0918B02D62FD72316E0C81304C0DF9171
:103D8000CF911F91089590E0109711F0DF3F19F443
:103D900001968770F2CF189F9001199F300D112462
:103DA000F901E95AFD4F41814713F2CF4081461393
:103DB000EFCF42814111ECCF438154814A1B5B0B11
:103DC0004F3A510528F780918C028F708061809363
:103DD0008C02F901E45AFD4F80818F7080618083ED
:103DE00087E892E00E94F01DDF91CF911F910C9423
:103DF000741EAF92BF92CF92DF92EF92FF920F9319
:103E00001F93CF93DF93CDB7DEB761970FB6F894CA
:103E1000DEBF0FBECDBF8C0185E0F801DE011D962F
:103E200001900D928A95E1F7F80140815181E2807D
:103E300087E8C82E82E0D82E60918A0270918B02AA
:103E40006115710509F461C1909187022091880282
:103E5000892F82238F3F09F458C1A380B480F0904A
:103E60008902F501E61BF70BFF2009F4FCC08091E5
:103E70008C02382F307FEF3AF10508F0B2C03111D3
:103E800079C0FE2C251323C0941321C0E1101FC05C
:103E90008F70806180938C020E94951EC6010E94E3
:103EA000F01D80918C02F80185838F2D61960FB6ED
:103EB000F894DEBF0FBECDBFDF91CF911F910F9160
:103EC000FF90EF90DF90CF90BF90AF900895AB2818
:103ED00029F0842F85238F3F09F033C180E0F82F2C
:103EE000F170DF2E80FF3CC0809155022091560278
:103EF00036E0821315C04D875E878D859E850E94B2
:103F00005D23292F22952F702230F0F0243018F5F0
:103F10009F70F1F0F8019581907FD1F4D12C1EC0F3
:103F200090E0389FF001399FF00D1124E95AFD4FC0
:103F30006181651306C06081641303C062816E11E4
:103F40000FC001968770D5CF9F7011F0882331F391
:103F5000805E883018F3C8010E94F01DFD2CA5CFAB
:103F6000EE2009F4A2CF80918C02816080938C02B4
:103F7000F12C9BCF251306C0941304C0F801EE204A
:103F800009F48DC04D875E878D859E850E94511EE8
:103F9000882319F1EE2009F180918C02803270F0B3
:103FA000209187023091880238872F831986BB863B
:103FB000AA868C87CE0107960E94F01D86E0F80144
:103FC000A7E8B2E001900D928A95E1F70E94A31E46
:103FD0000E94951EFF24F39468CFC8010E94F01D33
:103FE000F9CF311113C07A2DB98AA88A6E2D89892B
:103FF0000E94551E87E892E00E94F01D86E0F601BF
:1040000011928A95E9F70E94951EB2CF25130FC031
:1040100094130DC0E1100BC0F8018583C8010E9404
:10402000F01D86E0F60111928A95E9F73ECF4D87A3
:104030005E878D859E850E94511E882371F2EE2039
:1040400061F280918C02803208F4B8CF209187020F
:10405000309188023A8329831B82BD82AC828E8391
:10406000CE010196A9CFEF3AF10508F041C0FE2C30
:10407000EE2009F4B2CF25132AC0941328C08091F2
:104080008C0280FD1BC0982F907FC1F0F8018583C2
:10409000903F31F0982F907F905F8F70892B8583B0
:1040A000C8010E94F01D86E0F801A7E8B2E0019087
:1040B0000D928A95E1F70E94951EF7CE86E0F801F1
:1040C000A7E8B2E001900D928A95E1F7EECE4D8718
:1040D0005E878D859E850E94511E81116FCF8091D4
:1040E0008C02816080938C02C8010E94F01DDDCE9D
:1040F0007A2DB98AA88A6E2D89890E94551E86E07C
:10410000F60111928A95E9F7D6CFEE2009F465CF32
:104110004D875E878D859E850E94511EF82E8823CF
:1041200009F45BCF86E0F801A7E8B2E001900D92B8
:104130008A95E1F787E892E00E94AD1A0E94A31EDB
:10414000BACF81E08E25CBCE8FEA90E008951F9301
:10415000CF93DF93CDB7DEB72C970FB6F894DEBFC1
:104160000FBECDBF4F83588769877A878B879C871F
:10417000CE0107960E94F91E882369F08A859B85E7
:10418000892B39F04F815885842F85238F3F09F083
:1041900071C016E05FC086E0FE013796DE01119621
:1041A00001900D928A95E1F78A859B85892B89F389
:1041B0008F81988589238F3F61F32091560230E0EB
:1041C000C901019687709927409155024817190631
:1041D00071F40E942E1E109256021092550286E033
:1041E000E7E8F2E0DF011D928A95E9F7D2CF96E089
:1041F000929FD001939FB00D1124A95ABD4FFE018B
:10420000319601900D929A95E1F7809356020E94A3
:10421000741EBFCF819FC0011124895A9D4F0E94F7
:10422000F91E8823E9F0E09155021E9FF001112448
:10423000E95AFD4F4081518162817381848195816A
:104240000E94641E8091550290E001968770992724
:104250008093550280915502909156028913DACFCE
:104260002C960FB6F894DEBF0FBECDBFDF91CF9175
:104270001F91089569857A858B859C850E94641EAF
:1042800088CFEF92FF920F931F93CF93DF938C0110
:10429000892B81F0F12CEE24E394E8012196F801BA
:1042A0008491843770F4843008F05FC08130B1F0BD
:1042B0008230A1F1DF91CF911F910F91FF90EF908C
:1042C0000895853709F44CC008F43DC09CE7980F69
:1042D000903780F78F770E94491B49C00E5F1F4FB0
:1042E000FE01849190E2980F983060F48770FE2D63
:1042F00001C0FF0F8A95EAF78F2F0E94D3230E94F7
:10430000FC2302C00E94B21A8F2D815030F2EFE9D7
:10431000FFE03197F1F700C00000F7CF0E5F1F4FAD
:10432000FE01849190E2980F983050F48770FE2D32
:1043300001C0FF0F8A95EAF78F2F0E94D923DFCFA4
:104340000E94491BE1CF0E5F1F4FFE01C491C15077
:10435000D8F28FE99FE00197F1F700C00000F7CF96
:104360000E5F1F4FFE01F490CFCF0E94B21A8E0154
:10437000CBCF08950C94B9210E94BA216093BE025C
:104380007093BF028093C0029093C1020C94181ED8
:1043900008950C94BC210F931F930091BE021091BD
:1043A000BF022091C0023091C102602B712B822B81
:1043B000932B1F910F910C94BC210F931F9300918D
:1043C000BE021091BF022091C0023091C102602351
:1043D0007123822393231F910F910C94BC210F937F
:1043E0001F930091BE021091BF022091C002309134
:1043F000C10260277127822793271F910F910C9488
:10440000BC210C94B9210C9401220E9403226093D8
:10441000BA027093BB028093BC029093BD020C94CD
:10442000181E60E070E0CB010C9405220F931F93DF
:1044300041E050E060E070E08A019B0104C0000FA1
:10444000111F221F331F8A95D2F7C901B8011F918E
:104450000F910C9405220F931F9341E050E060E010
:1044600070E004C0440F551F661F771F8A95D2F76E
:104470008091BA029091BB02A091BC02B091BD02A2
:104480008A019B01082B192B2A2B3B2BC901B80150
:104490001F910F910C9405220F931F9341E050E060
:1044A00060E070E004C0440F551F661F771F8A95B7
:1044B000D2F7CB01BA0160957095809590950091E7
:1044C000BA021091BB022091BC023091BD02602360
:1044D0007123822393231F910F910C9405220F9334
:1044E0001F9341E050E060E070E004C0440F551FAE
:1044F000661F771F8A95D2F78091BA029091BB020E
:10450000A091BC02B091BD028A019B010827192726
:104510002A273B27C901B8011F910F910C9405224E
:104520000F931F930091BA021091BB022091BC021D
:104530003091BD02602B712B822B932B1F910F9119
:104540000C9405220F931F930091BA021091BB02A5
:104550002091BC023091BD026023712382239323FA
:104560001F910F910C9405220F931F930091BA0293
:104570001091BB022091BC023091BD0260277127CF
:10458000822793271F910F910C94052208952EE006
:10459000929F800D1124982F977041E001C0440F25
:1045A0009A95EAF786958695869595E0899FF0011C
:1045B0001124E357FD4F90E080E070E05191DF015E
:1045C00011979B01082E02C0369527950A94E2F7B1
:1045D000217021952527242325272C9301968530AA
:1045E000910561F708952EE0929F800D1124982F78
:1045F000977086958695869525E0829FF001112417
:10460000E357FD4F50E040E080E0219130E0092E7B
:1046100002C0369527950A94E2F721703327042EBD
:1046200001C0220F0A94EAF7822B4F5F5F4F45309B
:10463000510559F70895BF92CF92DF92EF92FF9202
:104640000F931F93CF93DF938C01C090BA02D09049
:10465000BB02E090BC02F090BD028091BE0290913E
:10466000BF02A091C002B091C102C82AD92AEA2A89
:10467000FB2ACFE1D0E0BC2ED701C6010C2E04C02E
:10468000B695A795979587950A94D2F780FD0EC0A9
:10469000219788F7B12C8B2DDF91CF911F910F912E
:1046A000FF90EF90DF90CF90BF900895B8018C2FCE
:1046B0000E942106019761F3EECFCF93DF93EC01C7
:1046C0000E941B23BE01DF91CF910C9421061F9302
:1046D000CF93DF93EB0190915402992331F0CB01FA
:1046E000DF91CF911F910C945D23882379F0CB014A
:1046F0000E941B23182F682FCE010E94C722BE01E3
:10470000812FDF91CF911F910C942106CB010E9444
:10471000F322182FF4CF682F80911801909119017E
:104720000C94A625682F80911801909119010C9482
:10473000B12580911801909119010C94BC258091AC
:10474000C20285958595859508958091C2028770EE
:1047500008959091C202977081E009F480E0089575
:104760008091E60208959091E602892B8093E602FB
:10477000089580959091E60298239093E60208951B
:104780001092E60208959091E502892B8093E5024C
:10479000089580959091E50298239093E5020895FD
:1047A0001092E50208959091E402892B8093E4022F
:1047B000089580959091E40298239093E4020895DF
:1047C0001092E40208958091C302089508950C9414
:1047D000E6239091C302981721F08093C3020C94B2
:1047E000E72308958091C302882329F01092C30221
:1047F00080E00C94E7230895E0911801F0911901ED
:104800008091E6028083E0911801F0911901808186
:104810009091E502892B8083E0911801F0911901B4
:1048200080819091E402892B80839091C302992327
:1048300081F0E0911801F09119018081892B80832A
:1048400080911801909119010E94122581110E94F6
:10485000F22380911801909119010C945819089530
:104860000C942F2498E0899F90011124622B60936F
:10487000C2020E942B228091C20285958595859562
:104880000C9430241092C20280E00C943024909159
:10489000C202809589238093C202282F277071F469
:1048A000282F082E000C330B9217130639F085952C
:1048B000859585950E944C220C94422408956FEFB3
:1048C0007FEF90E080E00C94303490E080E00E9434
:1048D0000C3421E08C3E9E4F09F020E0822F089599
:1048E00082E090E00C94FE3383E090E00C94FE3381
:1048F000CF9384E090E00E94FE33C82F81E290E0E5
:104900000E94FE33982F8C2FCF910895CF93C92FFB
:10491000682F84E090E00E9412346C2F81E290E0D6
:10492000CF910C94123486E090E00C94FE33682F03
:1049300086E090E00C941234AB01BC018FE090E073
:104940000C942434AB01BC0183E190E00C9424343A
:1049500060E070E0CB010C94A22460E070E0CB0139
:104960000E949C240C94A8246CEE7EEF90E080E0E2
:104970000E94303460E082E090E00E94123460E0F7
:1049800083E090E00E9412341092BE021092BF02A7
:104990001092C0021092C10260E084E090E00E9498
:1049A000123460E081E290E00E94123460E085E021
:1049B00090E00E94123460E086E090E00E941234A1
:1049C0006FEF87E090E00E94123440E050E0BA01BF
:1049D00088E090E00E94243460E08DE090E00E9446
:1049E000123440E050E0BA0188E190E00E942434A3
:1049F00060E087E190E00E94123440E050E0BA01AC
:104A00008CE190E00E94243460E080E290E00E941B
:104A100012340C94AD240C94B424682F8EE090E0F2
:104A20000C941234FC01329680912C01882321F0E1
:104A3000809162039EE187FF96E080E0915008F448
:104A4000089521912223D1F38F5FF8CF662301F1DE
:104A500020912C012223F1F02091620327FF1AC03C
:104A6000462F4695469546954E3190F4677021E065
:104A700030E002C0220F331F6A95E2F7840F911DC8
:104A8000FC01828190E02823392381E0232B69F403
:104A900080E00895FC01329608962191261721F0B6
:104AA000E817F907D1F7F4CF81E008959C01FC01E4
:104AB00032969FEF80E04191461751F09F3F19F4E5
:104AC000411101C0982F8F5F8630A9F79F3F09F4ED
:104AD0000895290F311D97FD3A95F90162830895D4
:104AE000FC01329608962191261303C0DF0111972D
:104AF0001C92E817F907B9F70895E62FE695E695B1
:104B0000E695EE3168F4E80FF92FF11D677021E0AA
:104B100030E001C0220F6A95EAF78281822B8283FE
:104B20000895E62FE695E695E695EE3170F4E80FE8
:104B3000F92FF11D677021E030E001C0220F6A9566
:104B4000EAF72095828128232283089520912C0161
:104B5000222329F02091620327FD0C947D250C94DB
:104B6000562520912C01222329F02091620327FD54
:104B70000C9491250C947025FC01329680912C01A7
:104B8000882351F08091620387FF06C08EE1DF0128
:104B90001D928A95E9F7089586E0F9CF0895089562
:104BA0000C94CF250E94D02580916803843061F158
:104BB0001092E80288E190E020E40FB6F894A895FE
:104BC000809360000FBE2093600080E00E948312FB
:104BD00080E00E940D060E94D02583B7817F84600B
:104BE00083BF83B7816083BF7894889583B78E7FB6
:104BF00083BF0FB6F894A895809160008861809378
:104C00006000109260000FBE08950895CF930E9437
:104C1000CE250E948C080E940526C0E08C2F0E94A1
:104C20001608892B31F4CF5FC530C1F780E0CF91F2
:104C3000089581E0FCCF08950C941B260E942E1E3F
:104C40000E942B110E944C190E940D060C941C26E8
:104C50001F921FB61F9211248F939F93AF93BF9300
:104C60008091E802811113C080915E0390915F03EF
:104C7000A0916003B09161034196A11DB11D809385
:104C80005E0390935F03A0936003B0936103BF91B1
:104C9000AF919F918F911F901FBE1F90189582E03A
:104CA00084BD93E095BD9AEF97BD80936E00089503
:104CB0002FB7F89480915E0390915F03A0916003F9
:104CC000B09161032FBF08952FB7F89460915E03F0
:104CD00070915F0380916003909161032FBF0895ED
:104CE0009C014FB7F89480915E0390915F03A0916F
:104CF0006003B09161034FBF821B930B08957894BA
:104D00001F921FB61F9211248F939F93AF93BF934F
:104D100080915E0390915F03A0916003B091610365
:104D20000196A11DB11D80935E0390935F03A09334
:104D30006003B0936103BF91AF919F918F911F90DA
:104D40001FBE1F90189581E08093E00080E2809361
:104D5000D8001092C9008FE19EE40197F1F700C0DE
:104D6000000087E090EBDC01809371039093720365
:104D7000A0937303B093740388E19CE00FB6F8949A
:104D8000A895809360000FBE90936000FFCF0C94B5
:104D9000C1130E948C088FE39CE90197F1F700C0D2
:104DA00000000E948C0880E00E94160880FF04C06A
:104DB0000E94C7260C94A32608950E9465248111A1
:104DC00002C00E940B250E9470248093E7020E947B
:104DD000782490936303809362030E947424682F65
:104DE00070E090E080E00E94C9216091BA02709169
:104DF000BB028091BC029091BD020C940322809171
:104E0000EF0280FF12C060911F0185E0689FB00132
:104E10001124759567957595679560387105A8F5A6
:104E200061157105A1F1862F089581FF09C0609178
:104E30001F0185E0689FB001112475956795EDCF3E
:104E400060911F0182FD0AC08091EE028823D1F09B
:104E500090911E0160911F01891728F085E0689FDD
:104E6000B0011124DACF869FB001112485E0869F1E
:104E70009001879F300D1124692F70E0C9010E94B5
:104E80002133CBCF65E070E0CECF8FE7089581E08E
:104E900008958091EF0280FF0CC060911B0170E0CB
:104EA00075956795759567956115710549F1862F1B
:104EB000089581FF06C060911B0170E075956795AC
:104EC000F3CF60911B0182FD0BC09091ED029923FD
:104ED000A1F060911A0180911B01961738F0682F9C
:104EE00070E06038710500F38FE70895899FC00175
:104EF000112470E00E942133F4CF61E070E0D7CF3D
:104F000081E00895803F31F40E94FF2681958093CF
:104F1000F3020895813F19F40E94FF26F8CF823FE3
:104F200031F40E94FF2681958093F2020895833F19
:104F300019F40E94FF26F8CF893F29F40E944927DF
:104F40008093F40208958A3F21F40E9449278195B5
:104F5000F7CF8B3F31F40E94492781958093F5026A
:104F600008958C3F19F40E944927F8CF843F31F40B
:104F70008091F10281608093F1020895853F21F4D0
:104F80008091F1028260F7CF863F21F48091F10297
:104F90008460F1CF873F21F48091F1028860EBCFEC
:104FA000883F21F48091F1028061E5CF8D3F31F49B
:104FB0008091EF0281608093EF0208958E3F21F48B
:104FC0008091EF028260F7CF8F3FB9F78091EF02B7
:104FD0008460F1CF9091F202803F59F48091F30206
:104FE00087FF0DC01092F30291110BC01092EE02D8
:104FF00008C0813F81F48091F30218169CF3992335
:1050000081F08091F4029091F502892B09F064C03F
:105010001092ED020895823F49F497FFF0CF10926D
:10502000F2028091F3028111ECCFE0CF833F19F4BB
:105030001916ACF3E4CF2091F402893F29F412163B
:10504000F4F61092F402DBCF8A3F19F427FFD7CF92
:10505000F8CF2091F5028B3F29F427FFD0CF109293
:10506000F502CDCF8C3F19F41216CCF3C8CF843F94
:1050700031F48091F1028E7F8093F102C0CF853FA1
:1050800021F48091F1028D7FF7CF863F21F480914A
:10509000F1028B7FF1CF873F21F48091F102877F6E
:1050A000EBCF883F21F48091F1028F7EE5CF8D3FD9
:1050B00031F48091EF028E7F8093EF02A0CF8E3F7C
:1050C00021F48091EF028D7FF7CF8F3F09F097CFCA
:1050D0008091EF028B7FF0CF08950E9458269C01AB
:1050E0009091F2028091F302982B21F03093EC0220
:1050F0002093EB029091F4028091F502982B21F01D
:105100003093EA022093E90280EF92E00C94721946
:10511000EF92FF920F931F93CF93DF9300D000D0B5
:1051200000D0CDB7DEB786E0E0EFF2E0DE01119609
:1051300001900D928A95E1F7E090F202F090F3026F
:105140000091F4021091F5021092F2021092F30213
:105150001092F4021092F5028E2D8F2991F0809119
:10516000EB029091EC020E947026AC019091EE024D
:10517000992309F43FC0809120018417150608F493
:1051800047C0802F812B91F08091E9029091EA0233
:105190000E947026AC019091ED02992309F477C02A
:1051A00080911C018417150608F47FC08091F202DB
:1051B0009091F302892B9091F402892B9091F50242
:1051C000892B11F00E946D2886E0FE013196A0EF38
:1051D000B2E001900D928A95E1F726960FB6F89409
:1051E000DEBF0FBECDBFDF91CF911F910F91FF901A
:1051F000EF900895209121018AE0289F90011124C9
:105200002417350708F0BDCF9F5F9093EE0202C0D0
:105210009F3FD1F7EE2059F00E94FF269FEF1E140A
:105220000CF491E0899F802D11248093F202FF20DD
:1052300059F00E94FF269FEF1F140CF491E0899F04
:10524000802D11248093F3023091F202332309F46C
:1052500098CF2091F302222309F493CF45EB340336
:10526000C0011124992359F09093F20245EB2403D5
:1052700090011124332339F03093F30282CF81E07F
:105280008093F202F3CF81E08093F3027ACF2091F2
:105290001D018AE0289F900111242417350708F08A
:1052A00085CF9F5F9093ED0202C09F3FD1F700230F
:1052B00059F00E9449279FEF10160CF491E0899F46
:1052C000802D11248093F402112359F00E94492764
:1052D0009FEF11160CF491E0899F802D112480938B
:1052E000F5023091F402332309F460CF2091F502E6
:1052F000222309F45BCF45EB3403C0011124992329
:1053000059F09093F40245EB2403900111243323C8
:1053100039F03093F5024ACF81E08093F402F3CF65
:1053200081E08093F50242CF86E0E0EFF2E0DF011A
:105330001D928A95E9F71092EE021092ED021092FA
:10534000EF020895833081F128F4813059F08230E2
:10535000D1F00895853009F449C0B8F1863009F4D8
:1053600056C0089580912101482F460F5527551F9B
:105370004F3F510524F4680F6093210108958FEF8A
:1053800080932101089580912001482F460F5527D1
:10539000551F4F3F510524F4680F60932001089575
:1053A0008FEF80932001089580911F01482F460FB1
:1053B0005527551F4F3F510524F4680F60931F0177
:1053C00008958FEF80931F01089580911E01482F4B
:1053D000460F5527551F4F3F510524F4680F609322
:1053E0001E0108958FEF80931E01089580911B0187
:1053F000482F460F5527551F4F3F510524F4680F7E
:1054000060931B0108958FEF80931B010895809195
:105410001A01482F460F5527551F4F3F510524F4B9
:10542000680F60931A0108958FEF80931A01089511
:10543000833011F128F4813049F0823091F00895E1
:10544000853081F120F18630C1F1089580912101EC
:10545000681720F4861B8093210108951092210182
:10546000089580912001681720F4861B8093200105
:10547000089510922001089580911F01681720F46B
:10548000861B80931F01089510921F01089580913B
:105490001E01681720F4861B80931E010895109248
:1054A0001E01089580911B01681720F4861B8093CC
:1054B0001B01089510921B01089580911A0168172D
:1054C00020F4861B80931A01089510921A01089502
:1054D0000F931F9341E050E060E070E08A019B0170
:1054E00004C0000F111F221F331F8A95D2F7C90174
:1054F000B8010E94C9211F910F910C942E1EEBEF51
:10550000E80FEF3308F05AC0F0E0ED54FB4C0C9478
:1055100057330E940B2581E008958091E702807F38
:105520008093E70281E08093F70208950E94A90525
:10553000F2CF9091E702892F8E7F90FF8160809358
:10554000E70280FDE8CF817F8093E702E4CF90916E
:10555000E702892F8D7F91FF82608093E70281FFB0
:10556000DACF8091E7028160EFCF9091E702892F37
:105570008B7F92FF84608093E70282FDF2CFCBCFD6
:105580009091E702892F877F93FF88608093E702DD
:1055900083FDE7CFC0CF0E942E1E90916203892F1A
:1055A00097FB87F9805880936203B5CF80E00E9413
:1055B000682AB1CF8953FBCF8D51F9CF80E0089590
:1055C00080E008950C94E02A8E518A3030F4E82F60
:1055D000F0E0E353FE4F8081089580E00895CF937B
:1055E000C82F8091F7028130B9F0882331F08230E2
:1055F000A1F11092F70280E00DC00E94B023823228
:10560000D1F78C2F0E94E02A81111BC08C2F0E94A1
:105610007F2A8170CF9108950E94B023823289F34E
:105620008C2F0E94E22A81110AC0C43199F060F4E3
:10563000CB3029F0C03169F782E08093F70281E036
:10564000E8CF81E090E0E5CFC93221F0C833B9F36B
:1056500080E0DFCF1092F702FBCFC93219F188F456
:10566000C43101F120F4C73081F181E0D3CF82EE63
:105670008C0F8630D0F78C2F0E94E42A8093F6029C
:10568000F4CFCE3401F140F46AE0CB3471F780916D
:10569000F6020E94A229E9CFC13579F061E0C23556
:1056A000B1F3E3CF8091F602882319F01092F6024D
:1056B000DCCF81E08093F702ADCF61E08091F6020C
:1056C0000E94182AD2CF6AE0F9CF8EE1809321019F
:1056D00082E3809320018AE080931F0184E180931C
:1056E0001E0188E080931B0188E280931A01BDCFE0
:1056F000809118030895CF93DF9300D00F92CDB718
:10570000DEB790916803943011F589837B836A83B7
:105710009093E9008FEF9091E800815095FD06C0CD
:1057200095ED9A95F1F700008111F5CF8091E80091
:1057300085FF0DC050E040E063E070E0CE010196CF
:105740000E94032E8091E8008E778093E8000F90EE
:105750000F900F90DF91CF910895BC0184E00C94DD
:105760007B2BBC0183E00C947B2B9C0184E0809319
:10577000E9009FEF8091E800915085FD06C085ED1E
:105780008A95F1F700009111F5CF8091E80085FF2F
:105790000CC050E040E066E070E0C9010E94032EBA
:1057A0008091E8008E778093E8000895CF93DF938F
:1057B000EC0180912C018823B1F18091620387FF75
:1057C00032C060E284E08093E9008FEF9091E800BE
:1057D000815095FD06C095ED9A95F1F70000811175
:1057E000F5CF8091E80085FF1BC080912C0170E00F
:1057F00050E040E0811104C050E040E068E070E01B
:10580000CE010E94032E8091E8008E778093E800FD
:1058100080E2FE01A8EFB2E001900D928A95E1F7D7
:10582000DF91CF91089568E081E0CDCFCF93FC0167
:10583000603221F580916803843001F5C091E90060
:10584000CF702091EC00922F917020FD90E8C92B31
:1058500082E08093E9008091E80080FF0CC050E076
:1058600040E060E270E0CF010E94032E8091E800EA
:105870008E778093E800CF70C093E900CF910895B0
:1058800080916703811109C00E94E22F0E943F307E
:105890008091E20084608093E20008951092670393
:1058A0000895089508950C941E2642E061EC81E06D
:1058B0000E945E2F42E261EC84E00E945E2F42E291
:1058C00061EC82E00E945E2F42E260EC83E00C9487
:1058D0005E2F80916A03833009F461C030F4813017
:1058E000D1F1823009F49DC008958A3009F489C04D
:1058F0008B3009F46FC0893009F050C08091690382
:10590000813209F04BC080916D0390916E03009736
:1059100019F0029709F042C08091E800877F8093D8
:10592000E8008091E80082FF35C09091F3008091FB
:10593000F200029729F48091F1008B7F813021F4ED
:105940008091F100809318038091E8008B77809319
:10595000E8000C94922F80916903813AF9F48091C8
:10596000E800877F8093E80080916D0390916E033B
:10597000892B61F460E288EF92E070E00E94A12E32
:105980008091E8008B778093E800089560E090E0D4
:1059900080E0F3CF809168038111C3CF0895809197
:1059A0006903813AD9F780916D0390916E03892B39
:1059B000A9F78091E800877F8093E8008091E80054
:1059C00080FFFCCF80912C018093F1008091E80052
:1059D0008E77BDCF80916903813201F780916D038D
:1059E00090916E03892BD1F68091E800877F809398
:1059F000E8000E94922F80916B0380932C010C94FD
:105A00002E1E80916903813249F68091E800877FDC
:105A10008093E8000E94922F80916C038093190379
:105A2000089580916903813A09F0B8CF8091E80028
:105A3000877F8093E8008091E80080FFFCCF809111
:105A40001903C2CFCDB7DEB7A0970FB6F894DEBF6B
:105A50000FBECDBF84B7877F84BF0FB6F894A895DB
:105A600080916000886180936000109260000FBE9A
:105A700080E890E00FB6F894809361009093610005
:105A80000FBE0E94BA190E94E22F0E943F308091FF
:105A9000E20084608093E20078940E94C8320E9401
:105AA000C41982E291E00E94471913E080916803D3
:105AB000853039F10E94D219809168038430B1F7A2
:105AC0001093E9008091E80082FFF0CF8091E80018
:105AD00090E085FF09C050E040E060E270E0CE0158
