:100000000C946E030C94B5030C94B5030C94B503D7
:100010000C94B5030C94B5030C94B5030C94B50380
:100020000C94B5030C94B5030C94412B0C94152C33
:100030000C94E2220C94B5030C94B5030C94B50314
:100040000C94B5030C94B5030C94B5030C94B50350
:100050000C94B5030C9439230C94B5030C94B5039C
:100060000C94B5030C94B5030C94B5030C94B50330
:100070000C94B5030C94B5030C94B5030C94B50320
:100080000C94B5030C94B5030C94B5030C94B50310
:100090000C94B5030C94B5030C94B5030C94B50300
:1000A0000C94B5030C94B5030C94B5032B00140009
:1000B0001A00090013000A000D000F0018001C00B0
:1000C00033002A004C004B00296104001500160083
:1000D000170007000B00110008000C00120034008C
:1000E0004D004E00E1001D001B0006001900050038
:1000F0000E0010003600370038002800520039008A
:10010000E3003500E2000000015800002C4200002E
:10011000E6000000E400500051004F0035021E02CE
:100120001F022002210222022302240225022602AB
:1001300027022A0001004A0038001E001F0020008C
:100140002100220023002400250026002700310082
:1001500001004D000100010001000100010001004B
:10016000010057002E000100010001000100010004
:100170004C052903010000000100000001000000FF
:10018000350000000100010001000100C55CC75CF2
:10019000010052000100010001002D0201002F00AA
:1001A0003000C95C01000100C65CC85C5000510011
:1001B0004F00010001002D0001002F023002CA5C37
:1001C000010001003A003B003C003D003E003F00C2
:1001D000400041004200430044004500010001008E
:1001E000005C0100010000000100000001000000AF
:1001F000010000000100010001000100C55CC75CB6
:10020000010052000100010001002D0201002F0039
:100210003000C95C01000100C65CC85C50005100A0
:100220004F00010001002D0001002F023002CA5CC6
:10023000010001003A003B003C003D003E003F0051
:10024000400041004200430044004500010001001D
:10025000005C01000100000001000000010000003E
:100260000100000001000100010001000000000089
:10027000000000002A2B2800000000000000000001
:100280000000000000000029000000002C1E3420A7
:10029000212224342627252E362D3738271E1F20CD
:1002A0002122232425263333362E37381F04050612
:1002B0000708090A0B0C0D0E0F1011121314151656
:1002C0001718191A1B1C1D2F3130232D3504050654
:1002D0000708090A0B0C0D0E0F1011121314151636
:1002E0001718191A1B1C1D2F3130354C0000000047
:1002F00000000000000000000000000000000000FE
:100300007E0F00D4FFFFFFC70000007832190A00FB
:10031000047F3F1F643214643214783C1E1E140A9A
:10032000052223252628292A2C2D2F303233353635
:10033000383A3B3D3E4042434547494A4C4E505176
:10034000535557595A5C5E6062646668696B6D6F9D
:1003500071737577797B7D7F81838587898A8C8EA0
:1003600090929496989A9C9E9FA1A3A5A7A8AAACA8
:10037000AEAFB1B3B4B6B8B9BBBCBEBFC1C2C3C5E2
:10038000C6C7C9CACBCCCDCED0D1D2D2D3D4D5D684
:10039000D7D7D8D9D9DADADBDBDBDCDCDCDCDCDDB7
:1003A000DDDDDDDCDCDCDCDCDBDBDBDADAD9D9D89B
:1003B000D7D7D6D5D4D3D2D2D1D0CECDCCCBCAC933
:1003C000C7C6C5C3C2C1BFBEBCBBB9B8B6B4B3B162
:1003D000AFAEACAAA8A7A5A3A19F9E9C9A989694FD
:1003E00092908E8C8A89878583817F7D7B797775D2
:1003F00073716F6D6B6968666462605E5C5A5957B1
:10040000555351504E4C4A4947454342403E3D3B6F
:100410003A3836353332302F2D2C2A2928262523F9
:1004200022FFAA7F554000010101010101010101E4
:100430000202020202020202020303030303030395
:100440000304040404040404050505050506060662
:100450000606070707070708080808090909090A1F
:100460000A0A0B0B0B0C0C0C0D0D0D0E0E0E0F0FC4
:100470000F10101111111212131314141515161652
:100480001717181819191A1A1B1B1C1D1D1E1E1FC1
:100490002020212222232424252626272829292A10
:1004A0002B2C2D2D2E2F3031323233343536373838
:1004B000393A3B3C3D3E3F40414243444546474834
:1004C000494A4C4D4E4F50515354555658595A5B0A
:1004D0005D5E5F616264656668696B6C6D6F7072AA
:1004E000737577787A7B7D7E8082838587888A8C16
:1004F0008E8F91939596989A9C9EA0A2A3A5A7A94A
:10050000ABADAFB1B3B5B7BABCBEC0C2C4C6C9CB40
:10051000CDCFD1D4D6D8DBDDDFE2E4E7E9EBEEF0F6
:10052000F3F5F8FAFDFF0403300000001203340075
:1005300035005F004100580058005F004F00000088
:100540000A034E00610073007000000004030904F8
:1005500009025B00030100A0FA0904000001030185
:100560000100092111010001224000070581030853
:10057000000A090401000203000000092111010022
:100580000122220007058203200001070503032042
:10059000000109040200010300000009211101000B
:1005A0000122BC000705840320000A12011001008B
:1005B000000008707011450200010203010660FF8F
:1005C0000961A1010962150026FF009520750881C7
:1005D000020963150026FF00952075089102C005E9
:1005E000010902A10185020901A1000509190129DA
:1005F0000515002501950575018102950175038199
:10060000010501093009311581257F9502750881A1
:100610000609381581257F950175088106050C0AA4
:1006200038021581257F950175088106C0C0050136
:100630000980A101850319012AB700150126B70019
:10064000950175108100C0050C0901A101850419EF
:10065000012AA002150126A002950175108100C093
:1006600005010906A1018505050719E029E715001F
:1006700025019508750181020507190029EF15006C
:10068000250195F0750181020508190129059505D7
:1006900075019102950175039101C005010906A13B
:1006A00001050719E029E715002501950875018165
:1006B000029501750881010507190029FF1500261B
:1006C000FF009506750881000508190129059505A3
:1006D00075019102950175039101C00011241FBE9F
:1006E000CFEFDAE0DEBFCDBF04B603FE27C08091B6
:1006F000F6029091F702A091F802B091F9028730CA
:10070000904BA740B04BD1F41092F6021092F70232
:100710001092F8021092F90214BE84B7877F84BF4A
:100720000FB6F894A895809160008861809360006E
:10073000109260000FBEE0E0F8E3099511E0A0E040
:10074000B1E0E4E1FFE502C005900D92AA3DB107DA
:10075000D9F722E0AAEDB1E001C01D92A63FB20791
:10076000E1F70E9406280C94392F0C94000081E0D8
:10077000089581E008950C94B90308950C94BD0385
:100780001F93CF93DF9300D000D00F92CDB7DEB789
:1007900049835A836B8330910B0289819A8131118D
:1007A0001DC06623B9F02223A9F00E94E31F182F71
:1007B000682F89819A810E948F1F69817A81812F98
:1007C0000F900F900F900F900F90DF91CF911F918E
:1007D0000C9423130E94BB1F182FEFCF0E94E31F1E
:1007E00069817A81EDCFFC01262F408151816281A0
:1007F000738184810C94C003CF93DF93EC0160E09C
:100800000E94F303BE01DF91CF910C94BE03FF92CF
:100810000F931F93CF93DF93E82FF0E0E459FD4F40
:10082000F490C82FC695C695C695D0E0FE01E45059
:10083000FD4F0491877010E0082E02C015950795B2
:100840000A94E2F701701127C451DD4FFE01C491F3
:10085000D0E002C0D595C7958A95E2F7C170DD2733
:100860000115110519F081EE0E947F17209719F0EC
:1008700086EE0E947F178F2D0E946718CD2B19F0EE
:1008800086EE0E941118012B41F081EEDF91CF918D
:100890001F910F91FF900C941118DF91CF911F9130
:1008A0000F91FF900895EF92FF920F931F93CF93B4
:1008B000DF93EC01162F0AE08881882309F454C0E5
:1008C000813009F04EC08981813099F47E0122E0A7
:1008D000E20EF11C8A810E946718E7012196812FA0
:1008E000815050F3EFE9FFE03197F1F700C00000CD
:1008F000F7CF823041F47E0182E0E80EF11C8A815C
:100900000E947F17EACF833041F47E01E2E0EE0ED1
:10091000F11C8A810E941118E0CF843011F02196D9
:10092000DDCF2A81229690E080E0AE014F5F5F4FDD
:100930002053330B2A30310548F0019778F2EFE964
:10094000FFE03197F1F700C00000F7CF089FB0013A
:10095000099F700D1124C901860F971F2981EA0193
:10096000E4CF0E940704BACFDF91CF911F910F917E
:10097000FF90EF90089560E00C9453048F929F9243
:10098000AF92BF92CF92DF92EF92FF920F931F939D
:100990006B017C0181E090E0A0E0B0E04C015D01E2
:1009A00004C0880C991CAA1CBB1C4A95D2F7B5013F
:1009B000A4014C015D0104C0880C991CAA1CBB1C3D
:1009C0002A95D2F7482959296A297B2904C0880F1A
:1009D000991FAA1FBB1F0A95D2F78A019B010C2100
:1009E0001D212E213F21041715072607370789F4FB
:1009F0008C299D29AE29BF29BC01CD011F910F91E2
:100A0000FF90EF90DF90CF90BF90AF909F908F902E
:100A1000089580959095A095B0958C219D21AE214B
:100A2000BF21EACF0F93382F262F60916702709174
:100A300068028091690290916A02042F432F0E94FC
:100A4000BE040F910C94CD1E0E9483230E942D2181
:100A5000811102C00E94CA210C9493070C9496073E
:100A600008950E94F61A0E9430052FEF84E39CE05F
:100A7000215080409040E1F700C000000C945D23BD
:100A80000F931F93CF93DF93EC0161E00E94F30378
:100A90008C01BE010E94F810882389F1BE01C801B3
:100AA0000E94BB03882359F1BE01C8010E9479143A
:100AB000882329F1BE01C8010E94CB148823F9F0D4
:100AC000BE01C8010E94EE158823C9F0BE01C8010D
:100AD0000E940510882399F08A81882339F0011536
:100AE0008CE5180751F00E3D1C4579F0CE01DF91E1
:100AF000CF911F910F910C94B7030E94310580E0B4
:100B0000DF91CF911F910F9108950E94CA21F7CFD5
:100B100008950C94880581E008950C948B05CF937B
:100B2000C82F0E9489058C2FCF910C948D0590E0E1
:100B300080E008950895FC01EE0FFF1FE45FFC4F75
:100B4000859194910895CF93DF930E9423130E947F
:100B5000B806EC01811520E5920708F042C0811526
:100B600030E4930708F0BDC0883E910528F5803E2B
:100B7000910508F09DC0883A910588F4853A910561
:100B800008F08FC08130910509F492C0009709F4F4
:100B90008FC0049708F08CC0D0E0C0E089C08F3BC4
:100BA000910508F489C0805C9109C03CD105A0F38F
:100BB0000E949B05EC017CC08115904250F4C11548
:100BC00081E0D80708F074C0C03FD10528F3D06594
:100BD0006FC0C11590E3D90708F079C0CE019F70AE
:100BE000E7CF811525E5920758F5811534E5930780
:100BF00008F0A6C0811542E5940750F4C11581E5BF
:100C0000D80708F471C0DC2FCC27C16FD06A50C060
:100C1000982F969596959E0123703327C115D3453D
:100C200008F07FC0C1E0D0E002C0CC0FDD1F2A95E4
:100C3000E2F720E2929FC0011124C82BD92B6FC08C
:100C4000C11589E5D807A8F4C11598E5D90708F0BA
:100C50007CC0C11526E5D20708F09ECF8C2F0E94DC
:100C60004F07C82FD0E0DC2FCC27CC27DF71D06214
:100C70001FC0C1153AE5D30708F46CC0CE019056E9
:100C80008115904208F088CF8D2F8F710E944F07F9
:100C900090E0982F882788279F719C012C2BE901D1
:100CA000E6CFC55AD0E0C65ADE4FC881D0E0D06446
:100CB000CE01DF91CF910895C85AD0E0CC0FDD1F4F
:100CC000C45DDE4F0990D881C02DD464F1CFCE0130
:100CD0009927D3FF03C0EC01D86CEACFEC01D06CAC
:100CE000E7CFDF70D06AE4CFCE01E4E09695879538
:100CF000EA95E1F783702C2F26952695237090E2D4
:100D0000299F90011124382B8C2F8370C1E0D0E0F3
:100D100002C0CC0FDD1F8A95E2F7C22BD32BDC6813
:100D2000C7CFC1E0D0E002C0CC0FDD1F2A95E2F7AB
:100D300030E2939FC0011124C82BD92BDA68B8CFB9
:100D4000D82FCC27C46FD06AB3CFDC2FCC27C06F8D
:100D5000D06AAECF8C2F8F700E944F0734E0D695AB
:100D6000C7953A95E1F7CF709C2FEC01D069A0CFE1
:100D700082389105B1F1B0F48133910509F475C061
:100D800048F48932910509F469C08A32910509F461
:100D900073C008958533910509F459C089339105CD
:100DA00001F10895833E9105A9F138F4803E910543
:100DB000F9F0823E910549F10895863E9105A9F129
:100DC000873E9105C9F1843E910519F52091E8020D
:100DD00021FF1FC08091E70284FD14C087EE90E0E0
:100DE00008952091E7022370A1F080EE90E008952D
:100DF0002091E70220FD47C03091E80230FF09C092
:100E000024FF44C090E080E004C02091E70222FD6E
:100E1000F7CF08952091E70222FD3BC03091E80210
:100E200030FDE3CF24FFF5CFEDCF2091E70223FF84
:100E3000F0CF24FDE7CFD2CF2091E70223FD2CC0D5
:100E40003091E80231FFEECF84EE90E008952091DA
:100E5000E70225FFDECF89E290E008952091E702C6
:100E600025FFD7CF85E390E008952091E70226FF84
:100E7000D0CF8AE290E008952091E70226FFC9CF03
:100E800081E390E0089589E390E0089583EE90E097
:100E9000089582EE90E0089586EE90E00895909196
:100EA000E70292FF06C0282F28712830F9F4877FC7
:100EB000846093FF06C0282F28712831F1F4877EC3
:100EC00084612091E80220FF06C0382F3871383045
:100ED000D9F4877F816021FF06C0282F287128312F
:100EE000D1F4877E816194FD877E0895282F247137
:100EF0002430F9F68B7F8860DCCF282F24712431D1
:100F000001F78B7E8861DDCF382F3171313019F7D1
:100F10008E7F8860E0CF282F2171213121F78E7ECE
:100F20008861E1CF08950C94920708950C94950779
:100F3000E82FF0E0EE0FFF1FE353FD4F808191811A
:100F40000895089580EA8A95F1F70895CF93DF9385
:100F5000ABE6B1E04FE651E0C1E0D0E08D91E82F83
:100F6000E295EF70F0E061A18F709E0101C0220F49
:100F70008A95EAF7922F9095962391A382A1822BCE
:100F800082A34A175B0751F7ADE5B1E04BE651E0AC
:100F9000C1E0D0E08D91E82FE295EF70F0E061A123
:100FA0008F709E0101C0220F8A95EAF7922F9095CB
:100FB000962391A382A1822B82A34A175B0751F744
:100FC0001092C6021092C5021092CE021092CD026B
:100FD0001092C8021092C7021092D0021092CF0253
:100FE0001092CA021092C9021092D2021092D1023B
:100FF0001092CC021092CB021092D4021092D30223
:1010000084E00E948E08DF91CF910C9424058F928A
:101010009F92AF92BF92CF92DF92EF92FF920F9387
:101020001F93CF93DF938BE6E82E81E0F82E05EC3B
:1010300012E0912CAA24A394B12CF70181917F0195
:10104000C82FC295CF70D0E099A18F70650101C003
:10105000CC0C8A95EAF7892F8C2989A38AA18C2C3C
:10106000809488218AA30E94A207EDE5F1E050E078
:1010700040E030E020E06191A62FA295AF70B0E093
:1010800090968C9190E06F7002C0959587956A95C7
:10109000E2F780FD3EC0C501042E02C0880F991FF3
:1010A0000A94E2F7282B392B4F5F5F4F4E305105E2
:1010B00011F789A1882289A28AA1C82ACAA2F801A7
:1010C000808191812817390739F13183208381E0AC
:1010D000982A0E5F1F4FFFE6EF16F1E0FF0609F0BA
:1010E000ACCF292D44E06DEC72E085EC92E00E94DB
:1010F0008F080E942E05892DDF91CF911F910F91AE
:10110000FF90EF90DF90CF90BF90AF909F908F9027
:10111000089590E080E0C6CF80E0DACF0895FF9296
:101120000F931F93CF93DF93F82E092F162FD72FEE
:10113000C42F222349F081E08093DC010E94122316
:101140009093DB018093DA018091DC018823A1F088
:101150008091DA019091DB010E942A23069760F0CA
:10116000EF2DF02FA12FBD2F90E080E0D0E08C1765
:101170009D0744F01092DC01DF91CF911F910F91F8
:10118000FF900895219131912D933D930196EFCFDA
:10119000EF92FF920F931F93CF93DF93EB01E82F12
:1011A000D11110C0442321F0F0E0EA5DFB4FE4913F
:1011B0006E2F7E2F8E2FDF91CF911F910F91FF9079
:1011C000EF9008950D2F10E0282F30E0442329F0F0
:1011D0002A5D3B4FF901249130E0F6E0CF9FC0013A
:1011E0001124EFEFF0E0BF010E94E12DAB018C2F45
:1011F00090E0880F991FA5E5A49FB001A59F700DF1
:101200001124861B970B982F990F980FBF01601B15
:10121000710B629FD001639FB00D729FB00D1124BE
:101220008B2F9D9FB0011124672F7727EF01C61BDD
:10123000D70BBE01629FE001639FD00D729FD00D5E
:1012400011247F01E91AF108E09EB001E19E700DC2
:10125000F09E700D1124672F7727E61BF70BE29F96
:101260008001E39F100DF29F100D1124E12F722FCA
:101270004230510599F048F44115510569F041306B
:10128000510581F0EB2F8D2F07C04430510569F0D7
:1012900080F046305105B1F76E2F8DCFE22F7B2FB6
:1012A000812FFACFE22F7D2FF7CFEB2F822F712FD7
:1012B000F3CF7B2F822FED2FEFCF41E00C94C808A6
:1012C0000895CF93DF93762FE901682F842F0E9432
:1012D0005D09798368838A83DF91CF910895809136
:1012E000D502982F9E7F29F4817082608093D50269
:1012F00008958635E8F381708465F8CF88E090E042
:101300000C94DA2ECF92DF92EF92FF926B017C0168
:101310000E946F09B701A60188E090E0FF90EF906E
:10132000DF90CF900C94F82E6091D5027091D60288
:101330008091D7029091D8020C948209E5EDF2E0F9
:1013400083E0808311828FEF8283838314826081A4
:101350007181828193810C9482098091D50280FFF2
:1013600002C08695089580E008959091D902933047
:1013700018F49F5F9093D902882351F06091D502B1
:101380007091D6028091D7029091D8020C94820974
:10139000089581E00C94B5099091D902992319F030
:1013A00091509093D902882351F06091D5027091A9
:1013B000D6028091D7029091D8020C9482090895A8
:1013C00081E00C94CC098091D90208958093D902D0
:1013D000662351F06091D5027091D6028091D702B8
:1013E0009091D8020C948209089560E00C94E6096B
:1013F0008091D60208958091D70208958091D802F5
:10140000089570E00C947510609108018091D502E8
:1014100080FF0AC08091070123E0829FC001112450
:1014200086529D4F0C94010A8091090190910A0106
:1014300023E0829FF0011124E652FD4F891750F7F7
:101440001182108212828F5F3396F8CF9091D5026D
:1014500090FF14C09091090120910A0133E0939FFD
:10146000F0011124E652FD4F921710F00C94040A7B
:101470008183608342839F5F3396F6CF0895CF9335
:10148000DF9300D00F92CDB7DEB79091D50290FFD9
:101490000AC09E012F5F3F4F0E9461094B81698105
:1014A0008A810E94260A0F900F900F90DF91CF91B2
:1014B0000895CF93DF93EC01EC81F0E0EF5DFC4FFA
:1014C0004491E5EDF2E0628181810E943F0A8C81C6
:1014D0008F5F8C83DF91CF910895CF93DF93EC01E1
:1014E000E5EDF2E0438162818C810E943F0A8C81AC
:1014F0008F5F8C83DF91CF9108950F931F93CF93CC
:10150000DF9300D00F92CDB7DEB78C018091DD0163
:1015100081110AC09E012F5F3F4F4FEF6FEF0E9476
:1015200061098A818093DD01F8016481613069F08D
:101530008091DD0140E0662361F040E0623011F40B
:101540004091DD0180E060E004C06091DD0140E099
:1015500080E00E94260AF801848190E0019663E011
:1015600070E00E94F52D84830F900F900F90DF9113
:10157000CF911F910F910895AF92BF92CF92DF92BA
:10158000EF92FF920F931F93CF93DF9300D00F92B0
:10159000CDB7DEB7182FF62E042FE22E9091D5028C
:1015A00090FF29C0E92FE695AE2FB0E0A159BE4FBC
:1015B0008C918093F6019E7F923059F59E012F5FAA
:1015C0003F4F812F0E9461094B8169818A810E946E
:1015D000260A1093D602F092D7020093D802EE208A
:1015E00051F06091D5027091D6028091D70290910E
:1015F000D8020E9482090F900F900F90DF91CF9137
:101600001F910F91FF90EF90DF90CF90BF90AF9020
:101610000895823019F40091D802DBCF863019F496
:101620001091D602D6CF8930D9F3893191F6E9519C
:101630008E2F8170D82EE695F0E0EF5DFB4FA590E0
:10164000B490C12CBB2460910B01C61618F00E9407
:10165000040ABFCF2C2D30E0A29EC001A39E900DA6
:10166000B29E900D112470E00E94E12D812FD110C7
:1016700013C0860F40910901420F532F511D9A014B
:10168000220F331F240F351F26523D4F402F6F2D41
:101690000E946109C394D7CF861BECCFE5EDF2E041
:1016A0009181282F4381628188E0890F0C94BC0AC4
:1016B00081E00C944E0BE5EDF2E09181282F4381FF
:1016C000628188EF890F0C94BC0A81E00C945B0B5B
:1016D000E5EDF2E0628128E0620F08F46FEF282F59
:1016E000438181810C94BC0A81E00C94680BE5ED88
:1016F000F2E0628128E0621B08F460E0282F438159
:1017000081810C94BC0A81E00C94770BE5EDF2E04A
:10171000438128E0420F08F44FEF282F6281818136
:101720000C94BC0A81E00C94860BE5EDF2E0438159
:1017300028E0421B08F440E0282F628181810C944C
:10174000BC0A81E00C94950B20E00C94BC0AEF924B
:10175000FF921F93CF93DF93EC0110E0EE24EA9405
:10176000F12C60910B01161770F00E94040A9A8107
:101770008C8190FF27C08F5F8C83DF91CF911F9169
:10178000FF90EF90089520910901422F410F5527B6
:10179000551FCA019A01220F331F280F391F2652E5
:1017A0003D4F70E0C7010E94F52D962F8C8140912E
:1017B000D8026091D702199F800D11240E946109FF
:1017C0001F5FCFCF8150D8CFAF92BF92CF92DF9221
:1017D000EF92FF920F931F93CF93DF93FC018281CF
:1017E0000FEF80FF01E010E043E0A42E80910B0199
:1017F0001817C8F00E94040A8091DF01013009F037
:1018000055C0811102C080910B0181508093DF018E
:10181000DF91CF911F910F91FF90EF90DF90CF90CC
:10182000BF90AF900895C0910901C12ED12CCC0D6D
:10183000DD2DD11DCE01880F991FC80FD91FC652AB
:10184000DD4F198218821A8234E0E32EF12CB12C7C
:101850008091DF018B0D84301CF16A2D0E94D32D05
:10186000892F082E000C990BC816D90691F4809187
:10187000D8028E9DA0018F9D500D1124559547953E
:10188000559547959E016091D7028091D6020E949E
:101890006109B00EF1E0EF1AF108D1F61F5FA6CF93
:1018A00087FFDFCF90910B01890FDBCF90E001968E
:1018B00060910B0170E00E94F52DA8CF0F931F934C
:1018C000CF93DF938091090190910A0123E0829FD9
:1018D000F0011124E652FD4F891740F1C0E0D3E03A
:1018E00060910B01C61740F10E94040A2091050186
:1018F0008091DE01820F8093DE0190910601920FAC
:1019000090930601191654F4082E000C990B40917F
:101910000B014150550B841795071CF0219520931E
:101920000501DF91CF911F910F91089511821082CF
:1019300012828F5F3396D0CF0C2F10E070E0C80179
:101940000E94F52D20910901820F482F50E020912F
:10195000DE01022E000C330B02171307BCF020919E
:101960000601022E000C330B201731077CF08D9FEF
:101970009001112426523D4F4091D8026091D70228
:101980008091D6020E946109CF5FAACFFA01EE0FC3
:10199000FF1FE40FF51FE652FD4F118210821282E5
:1019A000F3CF8F929F92AF92BF92CF92DF92EF923E
:1019B000FF920F931F93CF93DF93EC014C81042F81
:1019C00010E09801D8010E94402E9B01AC010E94BA
:1019D000562E4B015C01E0E2F0E0E01BF10BA5E5C7
:1019E000B0E0AC019B010E94562E6B017C019F016F
:1019F000DF010E94382E9B01AC010E94612E9B01E9
:101A0000AC01280D391D4A1D5B1DC701B6010E949E
:101A1000092EF22E822F90E039E23F1560F143E06B
:101A2000249F9001112435952795122F109500E0E1
:101A300085E5E82EEF1880910B01081758F10E94F8
:101A4000040A9C8181E0992319F0903219F48FEFF8
:101A50008093040180910401890F8C83DF91CF91E1
:101A60001F910F91FF90EF90DF90CF90BF90AF90BC
:101A70009F908F90089525E530E0B901681B790BA0
:101A80009B01220F331F260F371F37FFCCCF2F5F4D
:101A90003F4FC9CF8E2D01FD8F2D20910901622F5F
:101AA000600F7727771F9B01220F331F260F371FE9
:101AB00026523D4F412F6091D7020E9461090F5F6E
:101AC000BACF0F931F93CF93DF93EC0110E000E0A8
:101AD00090910B019017110609F06CF40E94040A12
:101AE0008C8190E00196817099278C83DF91CF9152
:101AF0001F910F91089520910901A801420F511DD6
:101B00009A01220F331F240F351F26523D4F4C815F
:101B10006091D7028091D60296959017110651F0E8
:101B20004CF0442349F04091D8020E9461090F5FB4
:101B30001F4FCECF4423B9F340E0F7CF8F929F924F
:101B4000AF92BF92CF92DF92EF92FF920F931F93CB
:101B5000CF93DF93FC01B280948081E0848300E026
:101B600015E05BE4A52E88248394EE24EA94F12CFE
:101B70007BE4C72ED12C80910B01081770F0DF9108
:101B8000CF911F910F91FF90EF90DF90CF90BF907A
:101B9000AF909F908F900C94040AC02FD0E01C9FB0
:101BA000F0011D9FF00D1124E052FE4F91101CC05A
:101BB0001382128220910901CE01820F911D9C0196
:101BC000220F331F280F391F26523D4F1C9FF00153
:101BD0001D9FF00D1124E052FE4F428161818081F2
:101BE0000E9461090F5FC7CF2381222379F1215021
:101BF000238334818A2D821B311101C0822F1C9FC7
:101C0000F0011D9FF00D1124E052FE4F9091D8027B
:101C1000899FC0011124B6010E94E12D6283211128
:101C200004C0332311F01482A38222E02B1510F29A
:101C30001C9FF0011D9FF00D1124E052FE4F80917A
:101C4000D60280838091D7028183B4CF0E94B52EC3
:101C5000823091400CF0AECF82E08B1530F50E94BF
:101C6000B52EB7010E94F52D1C9FF0011D9FF00DB0
:101C70001124E052FE4F808322E02B15C8F40E940D
:101C8000B52E2091D7022695622F70E00E94F52D87
:101C9000280F1C9FF0011D9FF00D1124E052FE4FF4
:101CA00021831282A382848285CF8091D602DCCFE9
:101CB0002091D702EECFE5EDF2E080818E7F808328
:101CC00060817181828193810E9482091092F70163
:101CD0002FEF80E792E0215080409040E1F700C074
:101CE00000000C94040AE5EDF2E080818E7F808391
:101CF0001092F7012FEF80E792E021508040904052
:101D0000E1F700C000000C94040A6091D5026695CA
:101D100070E04BE050E08CE091E00E94C52E892BF2
:101D200019F481E08093F7010E9412239093F0014F
:101D30008093EF0108959091D50290FF35C0917086
:101D4000811128C092609093D502662351F0609172
:101D5000D5027091D6028091D7029091D8020E944C
:101D600082096091D502669570E04BE050E08CE00E
:101D700091E00E94C52E892BA1F01092F70181E01D
:101D80008093F2014091D8026091D7028091D602EF
:101D90000C94A40B8B3210F09465D5CF880F982B40
:101DA000D2CF0E94850EEBCF0895682F9091D50277
:101DB000969581E0890F8B3208F081E00C949B0EA0
:101DC00081E00C94D50E682F9091D50296958FEFF7
:101DD000890F09F48AE20C949B0E81E00C94E30EC7
:101DE00061E00C949B0EE5EDF2E0808181608083E0
:101DF00086950C94F00E8091D50280FD0C945B0EBC
:101E00000C94F30E60E00C949B0E8091F50181110F
:101E10002EC00E942D21811104C00E94CA210E945F
:101E20009E090E947E096093D5027093D60280932A
:101E3000D7029093D8026E7F61F40E949E090E949F
:101E40007E096093D5027093D6028093D702909357
:101E5000D8020E946F091092F7018091D50280FF8D
:101E600003C086950E94020F81E08093F5010895DA
:101E7000E5EDF2E080818160808386950C94020F0D
:101E80000F931F93CF93DF938091F701882309F479
:101E90009DC08091F601E091D502E695E81BE093A4
:101EA000F1018230C9F5F0E0E35EFC4FE491CE2F02
:101EB000D0E009E51AE08091F201882389F01092C0
:101EC000F2010E9412239E0120953095820F931FEC
:101ED0009093F0018093EF011092F4011092F301BE
:101EE0008091EF019091F0010E942A238C179D07A9
:101EF00008F46CC0E091EF01F091F001CE0FDF1F0C
:101F0000D093F001C093EF018FEE91E0F801DF91E3
:101F1000CF911F910F910994863049F4F0E0E65E6D
:101F2000FC4FE491CE2FD0E00DE61AE0C4CF89300B
:101F300051F4E695F0E0E95EFC4FE491CE2FD0E05D
:101F400007EA1BE0B8CF8F3051F4E695F0E0EC5E85
:101F5000FC4FE491CE2FD0E004EE1BE0ACCF8531F6
:101F600049F4F0E0EF5EFC4FE491CE2FD0E00EE5B7
:101F70001CE0A1CFC8E2D0E001ED1CE0883109F4FB
:101F80009ACF833239F4EFE0F3E0C591D4910DE7B5
:101F90001AE091CFC4EFD1E001E61DE0843209F4EC
:101FA0008ACFC0EDD7E000E619E0853209F083CF93
:101FB0008E2F63E00E94C72DE92FF0E0E45FFC4F15
:101FC000E491CE2FD0E00EE91DE075CFDF91CF91E7
:101FD0001F910F910895FA01811101C0FB0109942D
:101FE000CF93DF93C82FD62F0E94AD098C1740F0F6
:101FF0000E94AD098D1720F4DF91CF910C94E00E73
:102000008C2FDF91CF910C94F00E0F931F93CF93F1
:102010008C01FB01C281CC2309F465C00E947820A9
:102020008272F801E25CFC45E431F10538F4E55CCC
:10203000F04D0C942B2E0E94FB0EC0E08C2FCF9104
:102040001F910F9108954DEE5EE060EE7EE00E94DC
:10205000EB0FF3CF40EE5EE06DEE7EE0F8CF45E6AD
:102060005BE068E57BE0F3CF48E55BE065E67BE0BD
:10207000EECF43E85BE064E77BE0E9CF44E75BE079
:1020800063E87BE0E4CF41EA5BE062E97BE0DFCF3D
:1020900042E95BE061EA7BE0DACF40EE59E069ECCF
:1020A00079E0D5CF49EC59E060EE79E0D0CF81E01E
:1020B0000E94F00EC2CF65E082E00E94F00FBDCF1B
:1020C00068E086E0FACF6EE089E0F7CF64E18FE068
:1020D000F4CF67E185E1F1CF88E1EACF62E289E1FF
:1020E000ECCF83E2E5CFC1E0A9CF519A4BB14D7F50
:1020F0005BB15260EFB7F8949B01220F331F260F9C
:10210000371F280F391F2817390741F4EFBF8FE514
:1021100094E00197F1F700C000000895DC016D9193
:10212000CD0178E05BB9000000C067FF4BB9660FD6
:10213000000000C000C000C04BB900C07A9591F704
:10214000E2CF82E290E00E94D22E813289F483E2D3
:1021500090E00E94D22E893059F484E290E00E94EF
:10216000D22E91E0833209F090E0892F817008959A
:1021700080E0FCCFCF93C82F6FEF811161E282E244
:1021800090E00E94E62E6FEFC11169E083E290E0DB
:102190000E94E62E6FEFC11163E284E290E0CF91DE
:1021A0000C94E62E80E00E94BA100C94272108952A
:1021B00085E290E00E94D22E682F70E090E080E0EF
:1021C000089585E290E00C94E62E0E94D7100E94BC
:1021D000A11081110CC060E070E0CB010E94E11001
:1021E0000E949B120E94871381E00C94BA100895FC
:1021F000CF93FB01C281CC2309F19C0122513F45C1
:102200002031310520F582510E949713C0E08C2FB8
:10221000CF91089581E00E94F31E43E062E081E0E7
:102220000E941205F3CF81E00E94141F43E062E098
:1022300081E00E941205EBCF82E0F6CF8031FFE50E
:102240009F0789F381319F45B9F3C1E0E0CF803129
:10225000EFE59E07F9F281319F45C9F682E0DBCFB9
:102260002FEFFC0120830895CF93DF93EC01888149
:102270008138A9F028F4803871F0DF91CF9108956A
:10228000823881F08338C9F70E94F80989830E9457
:10229000FB098A83F2CF0E94FE098983EECF0E9458
:1022A000AD09FBCF0E94E309F8CFCF93DF93EC0198
:1022B00088818138E1F028F4803869F0DF91CF918E
:1022C0000895823811F18338C9F70E94FE09482F1A
:1022D0006A81898108C0D9810E94FB09C82F0E94A8
:1022E000F8094D2F6C2FDF91CF910C94A40B8981AD
:1022F0000E94020F8981811104C0DF91CF910C945B
:10230000730EDF91CF910C94380F8981DF91CF91BB
:102310000C94F509EF92FF920F931F93CF93DF93E5
:10232000EC01062FDC01ED91CD01E150E33108F025
:10233000BFC0F0E0E15BF04D0C942B2E198289E0D8
:102340008A83602FCE01DF91CF911F910F91FF9073
:10235000EF900C94FA268981823069F0833071F015
:102360008130D9F40E941E230E94312E6A837B8320
:102370008C839D83E6CF0E94D810F6CF7E0110E0BB
:10238000812F0E949807F701928383831F5FF2E0F9
:10239000EF0EF11C1430A1F7D4CF602FCE010E94B4
:1023A0003011CFCF89818230C1F76A817B818C81E6
:1023B0009D810E94312E0E94E110C3CF4B816A8122
:1023C00089810E946D129827892798279D838C8385
:1023D000B8CF2C813D813227232732274B816A8158
:1023E00089810E948612ADCF0E949B12AACF0E94C3
:1023F0005511A7CF0E943411A4CF0E949409A1CFF8
:102400000E94301389839DCF0E9432139827892719
:1024100098279A83898395CF6B8170E089819A810F
:10242000AE014C5F5F4F9827892798270E9435138C
:1024300088CF6B8170E089819A81AE014C5F5F4FDC
:102440009827892798270E945C137BCF0E948713C7
:1024500078CF0E945B12D6CF6B8170E089819A8120
:10246000AE014C5F5F4F9827892798270E94D312AF
:1024700068CF6B8170E089819A81AE014C5F5F4FBC
:102480009827892798270E94F9125BCF0E94D210C3
:1024900058CFCE010E94FA262FEF81EE94E0215012
:1024A00080409040E1F700C000000E945D2349CFCA
:1024B0008FEF888346CF84E0089550E0440F551F86
:1024C0009CE1699F400D511D112490E7899F400DAB
:1024D000511D1124CA01869608950F931F93CF931F
:1024E000DF930E945D128C010E94D22EC82FD0E093
:1024F000DC2FCC27C80101960E94D22E9E01282BEA
:10250000C901DF91CF911F910F9108950F931F93F0
:10251000CF93DF93122F032F0E945D12EC01602FE7
:102520000E94E62E612FCE010196DF91CF911F917F
:102530000F910C94E62EAF92BF92CF92DF92EF9262
:10254000FF921F93CF93DF938CEAC82E80E0D82EA2
:10255000D0E07601C0E014C0F50125913491412FFF
:102560006C2F8D2F0E94861282E0A80EB11C1F5F77
:102570001E3091F78CE1E80EF11CCF5FC43019F0EA
:10258000570110E0E9CFDF5F80E7C80ED11CD430DF
:1025900001F7DF91CF911F91FF90EF90DF90CF90E7
:1025A000BF90AF900895EF92FF920F931F93CF9338
:1025B000DF93EC018A017C01E60EF71ECE018696C0
:1025C000CE15DF0539F4DF91CF911F910F91FF9068
:1025D000EF900895C03C21E0D20740F40E94D22E33
:1025E000F80180830F5F1F4F2196E8CFF80110821A
:1025F000F9CFCF92DF92EF92FF920F931F93CF9379
:10260000DF937C016A018C01060F171FEC01CE01DC
:102610008696C017D10749F4DF91CF911F910F9192
:10262000FF90EF90DF90CF900895C03C21E0D2075B
:1026300040F4FE01EE19FF09EC0DFD1D60810E94C2
:10264000E62E2196E4CF462F843038F4743028F4F7
:102650006E3018F4672F0C946D1290E080E00895AE
:1026600080E108958AE192E00895EF92FF920F933E
:102670001F93CF93DF93EC018A017C01E60EF71ED6
:10268000CE018A519E4FCE15DF0539F4DF91CF91EF
:102690001F910F91FF90EF900895CA3122E0D20769
:1026A00040F40E94D22EF80180830F5F1F4F2196C5
:1026B000E7CFF8011082F9CFCF92DF92EF92FF922D
:1026C0000F931F93CF93DF937C016A018C01060F58
:1026D000171FEC01CE018A519E4FC017D10749F454
:1026E000DF91CF911F910F91FF90EF90DF90CF90EE
:1026F0000895CA3122E0D20740F4FE01EE19FF0925
:10270000EC0DFD1D60810E94E62E2196E3CFCF9354
:10271000DF93C6EED1E060E0CE010E94E62E219666
:10272000C11584E0D807B9F7DF91CF910895DF9202
:10273000EF92FF920F931F93CF93DF9300D000D0BF
:10274000CDB7DEB7F82E8FE08F1540F08FEF93E016
:102750000E94D22E06EE11E08823C1F00F900F9058
:102760000F900F90DF91CF911F910F91FF90EF90FD
:10277000DF900895011584E0180781F3C8010E94D5
:10278000D22E811101C0FA940F5F1F4FF110F2CFCA
:1027900019821A821B821C82DD24D39478018FEF68
:1027A000E81AF80AC8010E94D22E89831A82882367
:1027B000A9F29FEF980F933078F48A83D9820E5F45
:1027C0001F4FC7010E94D22E8B83882339F2CE017E
:1027D00001960E94BB04E2CF8701F9CFAF92BF926E
:1027E000CF92DF92EF92FF920F931F93CF93DF93DD
:1027F0007C015B01C42FD22FFC0182818823F9F078
:102800004093FA010E9412239093F9018093F801FA
:1028100080E28C0F883008F061C0C77081E001C091
:10282000880FCA95EAF7DF91CF911F910F91FF9022
:10283000EF90DF90CF90BF90AF900C947A181091EA
:10284000FA01141340C08091F8019091F9010E949F
:102850002A236C01B701C5010E946C1DC816D90658
:1028600090F5C0E2CD0F1D17B9F080E2810F8830DE
:1028700040F4177081E001C0880F1A95EAF70E94B2
:102880008118C83048F481E09D2F977001C0880FEF
:102890009A95EAF70E947A18802F0E946718C8302C
:1028A000E8F4D77081E001C0880FDA95EAF7DF918C
:1028B000CF911F910F91FF90EF90DF90CF90BF903D
:1028C000AF900C94811880E28C0F883038F4C77078
:1028D00081E001C0880FCA95EAF7E9CFDF91CF9177
:1028E0001F910F91FF90EF90DF90CF90BF90AF902E
:1028F00008950F939C01CB01233F4CE5340759F118
:10290000A8F4283DFCE53F0701F1293D4CE53407DB
:10291000D1F1273D3C4591F406E221EE41EE67ED11
:102920007CE50E94EE1380E00F910895253FFCE5C1
:102930003F07E9F0B0F0263F3C45F9F0FC01828109
:10294000882339F11092FA01EFCF07E225EE45EE28
:1029500068ED7CE5E6CF06E221EE40EE63EF7CE534
:10296000E0CF07E225EE44EE64EF7CE5DACF06E245
:1029700021EE42EE65EF7CE5D4CF07E225EE46EE90
:1029800066EF7CE5CECF08E221E045EE69ED7CE51F
:10299000C8CF81E0C9CFCF93DF93EC01FB018281E7
:1029A000882309F419C1C230FCE5DF07C0F1C63144
:1029B0009CE5D90730F09E012A5F3C45293031055E
:1029C00070F50E9440219093E8028093E702C031A5
:1029D000ECE5DE0709F4CFC008F05BC0C8308CE539
:1029E000D80709F4B6C088F5C430ECE5DE0709F471
:1029F000A8C0C0F4C2308CE5D80709F49CC080910F
:102A0000E7028260C330DC4509F498C08091E70298
:102A10009091E8020E944E210E94F61A80E0DF9118
:102A2000CF9108958091E7028061C630ECE5DE0722
:102A300009F484C08091E7028860C730DC4508F45F
:102A40007DC08091E702806279C0CC308CE5D807E8
:102A500009F489C070F48091E7028C60CA30ECE51B
:102A6000DE0709F46BC008F478C08091E7028E7F1E
:102A700065C0CE308CE5D80709F479C08091E702B3
:102A80008B7FCF30DC4508F459C08091E7028F7E00
:102A900055C0CB3FECE5DE0709F457C030F5C33134
:102AA0008CE5D80709F46FC078F4C131ECE5DE0796
:102AB00009F465C0C231DC4509F0A8CF0E94F61ABE
:102AC0008091E7028F773AC0C5318CE5D80709F4C9
:102AD00062C008F476C08091E8028160CA3FDC459C
:102AE00009F094CF8093E80291CFCF3FFCE5DF0758
:102AF00009F44DC088F48091E8028D7FCD3F9CE5BC
:102B0000D90781F38091E8028E7FCE3FDC4550F3F8
:102B10008091E8028360E6CFC130FDE5DF0709F46C
:102B200059C008F444C080E0C230DD4509F06ECFE2
:102B30000E94CC216BCF8091E70281608093E702F5
:102B400065CF8091E7028460F9CF8091E8028260CE
:102B5000C9CF8091E7028064F1CF0E94F61A80917C
:102B6000E7028068EBCF8091E7028D7FE7CF80910D
:102B7000E702877FE3CF8091E7028F7DDFCF8091EF
:102B8000E7028F7BDBCF8091E702837FD7CF8091F5
:102B9000E8028C7FA7CF8091E70282FB992790F90A
:102BA00021E0922790FB82F990FB83F9C7CF8091B7
:102BB000E802982F909591708E7F892B90FB81F978
:102BC00091CF0E94F61A9091E702892F97FB87F91F
:102BD0008058B4CF81E0ACCF81E021CFCF93DF9399
:102BE000EB0186319C4511F50E9478209A8199234A
:102BF00099F08A7A91E009F490E09093FB018111B9
:102C000009C089E20E9453200E94C42080E0DF9125
:102C1000CF91089585E3F6CF8091FB01811104C027
:102C200089E20E945A20F0CF85E3FBCF81E0EFCF0D
:102C300090930102809300020895E0910002F091C8
:102C40000102309721F00190F081E02D099480E09D
:102C50000895E0910002F0910102309799F02091DF
:102C60002B01222359F02091E70227FF07C0DC0146
:102C70002C9111962C93119725E02C930280F381CF
:102C8000E02D09940895E0910002F091010230973F
:102C900039F022E0DC012C930480F581E02D0994C9
:102CA00008952091FE013091FF012817390771F036
:102CB0009093FF018093FE01E0910002F0910102E8
:102CC000309721F00680F781E02D09940895209136
:102CD000FC013091FD012817390771F09093FD0137
:102CE0008093FC01E0910002F0910102309721F005
:102CF0000084F185E02D0994089585B7806885BF2B
:102D000085B7806885BF0895089508950C9484164A
:102D100008950C9488160E947D160E9485160C94C6
:102D2000861681E008950C9491160E9409230E9452
:102D3000A6070E94E5100E9497230E94050F0C949D
:102D400089169F92AF92BF92CF92DF92EF92FF923D
:102D50000F931F93CF93DF93CDB7DEB72A970FB6AC
:102D6000F894DEBF0FBECDBF0E9407080E949316E5
:102D7000882309F472C053E0A52E52E0B52E10E06E
:102D800000E0902E802F0E9498076C01F501E190E1
:102D9000F1905F01E816F90609F459C08091940298
:102DA00081FD0E94A10797012C253D2580E0EE249E
:102DB000E394F12CA9014E215F21452B09F441C078
:102DC0008E839F82CE20DF2081E0CD2809F480E031
:102DD00088870E9412238160782F9A8789874E8185
:102DE0005F8168858A850E945017000F111FF801C6
:102DF000ED5FFD4F80819181E826F926F182E08226
:102E00000E94400F0E9442250E941D1690910202CE
:102E10008917A1F10E941D16809302022A960FB60F
:102E2000F894DEBF0FBECDBFDF91CF911F910F9100
:102E3000FF90EF90DF90CF90BF90AF909F900C9459
:102E40008F058F5FEE0CFF1C8E3009F0B3CF0F5F44
:102E50001F4F0430110509F094CF8FEF89838A83C7
:102E60001B820E9412238160782F9D838C8349816D
:102E70005A816B818D810E945017C2CF2A960FB65E
:102E8000F894DEBF0FBECDBFDF91CF911F910F91A0
:102E9000FF90EF90DF90CF90BF90AF909F900895FC
:102EA000CF93DF93CDB7DEB72B970FB6F894DEBF85
:102EB0000FBECDBF4F83588769877A878B871E8265
:102EC0001D8285E0FE013796DE01119601900D927C
:102ED0008A95E1F749815A816B817C818D819E8140
:102EE0002B960FB6F894DEBF0FBECDBFDF91CF910A
:102EF0000C946F1DFC01808191810C942520CF934F
:102F0000C82F882309F48BC08238C1F40E941D1693
:102F100081FD85C089E30E9453200E94C4202FEFC9
:102F200081EE94E0215080409040E1F700C0000025
:102F300089E30E945A20CF910C94C4208338A1F4D5
:102F40000E941D1680FD6BC083E50E9453200E94E5
:102F5000C4202FEF81EE94E0215080409040E1F7B3
:102F600000C0000083E5E5CF8438A1F40E941D165F
:102F700082FD55C087E40E9453200E94C4202FEF99
:102F800081EE94E0215080409040E1F700C00000C5
:102F900087E4CFCF8CEF8C0F813A90F46C2F809127
:102FA0001701909118010E94E521882329F08C2FA8
:102FB0000E945A200E94C4208C2F0E945320BBCF15
:102FC00080E28C0F883048F4C77081E001C0880F20
:102FD000CA95EAF70E947B20AECFEBE5EC0FE33019
:102FE00040F4F0E0E853FE4F808190E0CF910C94E4
:102FF0005116E8E5EC0FE73150F4F0E0EE0FFF1F5B
:10300000E656FE4F80819181CF910C946716C03FA8
:1030100030F08C2F0E943C24CF910C942725CF9127
:103020000895882309F452C0823871F40E941D1655
:1030300081FF4CC089E30E9453200E94C42089E391
:103040000E945A200C94C420833859F40E941D1603
:1030500080FF3CC083E50E9453200E94C42083E58A
:10306000EFCF843859F40E941D1682FF2FC087E4E9
:103070000E9453200E94C42087E4E2CF9CEF980F67
:10308000913AF0F290E2980F983050F4877091E006
:1030900001C0990F8A95EAF7892F0E948120D2CF2B
:1030A0009BE5980F933020F490E080E00C9451164B
:1030B00098E5980F973120F490E080E00C94671623
:1030C000803F20F00E94A4240C9427250895CF93DC
:1030D000C82F0E947F17C93349F42FEF87EE93E082
:1030E000215080409040E1F700C000008C2FCF912C
:1030F0000C941118882321F00E947B200C94C4208A
:103100000895882321F00E9481200C94C420089502
:10311000BF92CF92DF92EF92FF920F931F93CF93C4
:10312000DF936C01D62FC72FFC01058102950F702C
:10313000128111110E9498200E947120E82E88238C
:1031400091F01123D1F08C2F807F803421F080E228
:103150008D0F883090F082E00E940F210E94712034
:1031600091E0E82EE926BC2EB2949FE0B922EB2D27
:10317000F0E0EE59F04D0C942B2EE12CF4CF0C2FF7
:103180000F70C07F11F00295007F1123A9F000237A
:1031900059F080E28D0F883010F0D11109C0802FD6
:1031A0000E947B200E94C4208D2F0E947F1714C094
:1031B000802F0E948B20F6CF8D2F0E9411180023A4
:1031C00059F080E28D0F883010F0D1112CC0802F83
:1031D0000E9481200E94C4202B2D2850330B2430C4
:1031E000310520F40E941D160E948F05EE2009F47F
:1031F0009EC10E946D2080FD9AC1F60112820E943C
:1032000067200E94F31EC6010E94B81A0E94672020
:10321000DF91CF911F910F91FF90EF90DF90CF90B2
:10322000BF900C94141F802F0E949120D3CFFC2FAD
:10323000FF70FF2EC07FC03219F0F29480EFF822A9
:10324000DD2369F0D13049F1112391F1002351F1CF
:10325000F601858180FFA8CF8F70858323C011235D
:1032600081F0011106C00E94AB208F290E947A18BC
:10327000B3CF0130C1F70E94AB208F290E94B1204B
:10328000ABCF011106C00E94BA208F2D0E94811879
:10329000A3CF013009F4A0CFF6CF112329F00330DA
:1032A00008F09ACF8F2DE2CF023008F095CFEDCF06
:1032B000002359F3D93349F4FFEF27EE33E0F150FF
:1032C00020403040E1F700C000008D2F0E9411180F
:1032D00083CF8C2F86958695837069F0813009F0B5
:1032E0007BCF8D2F9C2F9370111102C090E080E056
:1032F0000E94671671CF8D2F9C2F9370111102C001
:1033000090E080E00E94511667CF8D2F112329F0A5
:103310000E943C240E9427255FCF0E94A424FACF5C
:103320008C2F837009F041C0111156CF4D2F42955B
:1033300046954770440F440F0D2F0F7010E030E09A
:1033400020E0042E04C0000F111F221F331F0A9417
:10335000D2F760E070E0CB01D4FF0FC06FE070E007
:1033600080E090E004C0660F771F881F991F4A9580
:10337000D2F76095709580959095C695C695C37067
:10338000602B712B822B932BC23049F058F4C13043
:1033900019F00E94A51E20CF0E94931E1DCF0E94EF
:1033A000B71E1ACF0E94911E17CF8695112311F0D8
:1033B0008C2F8170882309F40FCF4D2F42954695AD
:1033C0004770440F440F0D2F0F7010E030E020E0E5
:1033D000042E04C0000F111F221F331F0A94D2F7BE
:1033E00060E070E0CB01D4FF0FC06FE070E080E0E0
:1033F00090E004C0660F771F881F991F4A95D2F787
:103400006095709580959095C695C695C370602B14
:10341000712B822B932BC23049F058F4C13019F034
:103420000E946A1FD9CE0E94581FD6CE0E947C1FD0
:10343000D3CE0E94CD1ED0CECF70112329F08C2F79
:103440000E94F31E8D2F12CF8D2F0E9481188C2F7A
:103450000E94141FC1CED23F89F160F4D03FC9F061
:10346000D13F29F1112309F442C001119DCE8C2FC7
:103470008F7121C0D33F39F1D43FA1F7112369F1F6
:10348000CF718C2F0E94F31E63E08C2F0E94FA20D4
:10349000A3CE112341F0023008F09ECE8C2F8F7105
:1034A0000E94371F99CE033008F096CEF7CF8C2FAD
:1034B0008F71112369F20E94F31E8ECE8C2F8F71B3
:1034C0001123C9F3C5CF112329F08C2F8F710E94CE
:1034D000DE1E82CE0E94D91E7FCE81E00E940F2187
:1034E000023008F479CE82E00E940F2175CE0023CD
:1034F00059F0D93309F0E9CE8FEF97EEE3E0815030
:103500009040E040E1F7DFCE8C2F8F71A1CF4C2FA0
:103510004F706D2FC6010E9497050E94091E5CCE58
:103520004C2F4F706D2FC6010E949A0555CEDF912A
:10353000CF911F910F91FF90EF90DF90CF90BF90B0
:1035400008950F931F93CF93DF93EC0168817981E6
:103550008A810E942F208C010E948E1F0E94901E43
:10356000B801CE01DF91CF911F910F910C94881873
:10357000CF93DF93EC018B819C81892B29F088818B
:10358000998189238F3F59F4DF91CF910895CE011E
:103590000E94A11ACE01DF91CF910C94FC03CE01C1
:1035A0000E9440058111F3CF0E947120882361F3AE
:1035B0008A81882349F382E0DF91CF910C940F2117
:1035C0000E9498200E94A8200E94C4200E944E269B
:1035D0000E94272590E080E00E94511690E080E054
:1035E0000C9467160E9461200C94E01A0E948820B7
:1035F0000C94F21AE92FE295EF70E250EE3070F47D
:10360000F0E0EE58F04D0C942B2E803F19F020F492
:10361000883E20F481E00895843FE1F380E008953E
:10362000883EC0F3813FD1F7F5CF93FB882780F91F
:1036300008950E9425200C94FA1ACF93DF9300D0AE
:1036400000D00F92CDB7DEB70F900F900F900F9074
:103650000F90DF91CF910895CF93DF9300D000D0EA
:1036600000D0CDB7DEB726960FB6F894DEBF0FBEFA
:10367000CDBFDF91CF9108951F93CF93DF93C0917A
:103680000C0216E080910D028C1304C0DF91CF91E3
:103690001F910895D0E01C9FF0011D9FF00D112493
:1036A000E25FFD4F40815181628173818481958108
:1036B0000E942C1B2196C770E5CF40913E0250918D
:1036C0003F026091400270914102809142029091CC
:1036D00043020C942C1B1F93CF93DF9380914302E2
:1036E000807FA9F480914002882389F080910C02A8
:1036F000C0910D0260913E0270913F02A091410283
:10370000B0914202D62FD72316E0C81304C0DF9130
:10371000CF911F91089590E0109711F0DF3F19F4B9
:1037200001968770F2CF189F9001199F300D1124D8
:10373000F901E25FFD4F41814713F2CF408146130B
:10374000EFCF42814111ECCF438154814A1B5B0B87
:10375000483C510528F7809143028F708061809327
:103760004302F901ED5EFD4F80818F70806180839F
:103770008EE392E00E94B81ADF91CF911F910C94D2
:103780003C1BAF92BF92CF92DF92EF92FF920F93CA
:103790001F93CF93DF93CDB7DEB761970FB6F89441
:1037A000DEBF0FBECDBF8C0185E0F801DE011D96A6
:1037B00001900D928A95E1F7F80140815181E280F4
:1037C0008EE3C82E82E0D82E6091410270914202B1
:1037D0006115710509F461C190913E0220913F028B
:1037E000892F82238F3F09F458C1A380B480F090C1
:1037F0004002F501E61BF70BFF2009F4FCC08091A5
:103800004302382F307FE83CF10508F0B2C0311197
:1038100079C0FE2C251323C0941321C0E1101FC0D2
:103820008F708061809343020E945D1BC6010E94DD
:10383000B81A80914302F80185838F2D61960FB6E7
:10384000F894DEBF0FBECDBFDF91CF911F910F91D6
:10385000FF90EF90DF90CF90BF90AF900895AB288E
:1038600029F0842F85238F3F09F033C180E0F82FA2
:10387000F170DF2E80FF3CC080910C0220910D0280
:1038800036E0821315C04D875E878D859E850E9428
:103890002520292F22952F702230F0F0243018F5A2
:1038A0009F70F1F0F8019581907FD1F4D12C1EC06A
:1038B00090E0389FF001399FF00D1124E25FFD4F39
:1038C0006181651306C06081641303C062816E115B
:1038D0000FC001968770D5CF9F7011F0882331F308
:1038E000805E883018F3C8010E94B81AFD2CA5CF5D
:1038F000EE2009F4A2CF80914302816080934302BD
:10390000F12C9BCF251306C0941304C0F801EE20C0
:1039100009F48DC04D875E878D859E850E94191B99
:10392000882319F1EE2009F180914302803270F072
:1039300020913E0230913F0238872F831986BB8643
:10394000AA868C87CE0107960E94B81A86E0F801F5
:10395000AEE3B2E001900D928A95E1F70E946B1BF5
:103960000E945D1BFF24F39468CFC8010E94B81A1F
:10397000F9CF311113C07A2DB98AA88A6E2D8989A1
:103980000E941D1B8EE392E00E94B81A86E0F601A9
:1039900011928A95E9F70E945D1BB2CF25130FC0E3
:1039A00094130DC0E1100BC0F8018583C8010E947B
:1039B000B81A86E0F60111928A95E9F73ECF4D8755
:1039C0005E878D859E850E94191B882371F2EE20EB
:1039D00061F280914302803208F4B8CF20913E0218
:1039E00030913F023A8329831B82BD82AC828E8351
:1039F000CE010196A9CFE83CF10508F041C0FE2CAC
:103A0000EE2009F4B2CF25132AC0941328C0809168
:103A1000430280FD1BC0982F907FC1F0F801858381
:103A2000903F31F0982F907F905F8F70892B858326
:103A3000C8010E94B81A86E0F801AEE3B2E0019036
:103A40000D928A95E1F70E945D1BF7CE86E0F801A2
:103A5000AEE3B2E001900D928A95E1F7EECE4D878C
:103A60005E878D859E850E94191B81116FCF809185
:103A70004302816080934302C8010E94B81ADDCEE0
:103A80007A2DB98AA88A6E2D89890E941D1B86E02D
:103A9000F60111928A95E9F7D6CFEE2009F465CFA9
:103AA0004D875E878D859E850E94191BF82E882381
:103AB00009F45BCF86E0F801AEE3B2E001900D922D
:103AC0008A95E1F78EE392E00E947A170E946B1BC1
:103AD000BACF81E08E25CBCE88EC90E008951F937D
:103AE000CF93DF93CDB7DEB72C970FB6F894DEBF38
:103AF0000FBECDBF4F83588769877A878B879C8796
:103B0000CE0107960E94C11B882369F08A859B8598
:103B1000892B39F04F815885842F85238F3F09F0F9
:103B200071C016E05FC086E0FE013796DE01119697
:103B300001900D928A95E1F78A859B85892B89F3FF
:103B40008F81988589238F3F61F320910D0230E0AA
:103B5000C90101968770992740910C0248171906F0
:103B600071F40E94F61A10920D0210920C0286E077
:103B7000EEE3F2E0DF011D928A95E9F7D2CF96E0FD
:103B8000929FD001939FB00D1124A25FBD4FFE0103
:103B9000319601900D929A95E1F780930D020E9463
:103BA0003C1BBFCF819FC0011124825F9D4F0E94AB
:103BB000C11B8823E9F0E0910C021E9FF001112443
:103BC000E25FFD4F408151816281738184819581E3
:103BD0000E942C1B80910C0290E00196877099271F
:103BE00080930C0280910C0290910D028913DACF20
:103BF0002C960FB6F894DEBF0FBECDBFDF91CF91EC
:103C00001F91089569857A858B859C850E942C1B60
:103C100088CFEF92FF920F931F93CF93DF938C0186
:103C2000892B81F0F12CEE24E394E8012196F80130
:103C30008491843770F4843008F05FC08130B1F033
:103C40008230A1F1DF91CF911F910F91FF90EF9002
:103C50000895853709F44CC008F43DC09CE7980FDF
:103C6000903780F78F770E94111849C00E5F1F4F61
:103C7000FE01849190E2980F983060F48770FE2DD9
:103C800001C0FF0F8A95EAF78F2F0E949B200E94A8
:103C9000C42002C00E947F178F2D815030F2EFE9BF
:103CA000FFE03197F1F700C00000F7CF0E5F1F4F24
:103CB000FE01849190E2980F983050F48770FE2DA9
:103CC00001C0FF0F8A95EAF78F2F0E94A120DFCF56
:103CD0000E941118E1CF0E5F1F4FFE01C491C15029
:103CE000D8F28FE99FE00197F1F700C00000F7CF0D
:103CF0000E5F1F4FFE01F490CFCF0E947F178E0101
:103D0000CBCF08950C94811E0E94821E60936B029B
:103D100070936C0280936D0290936E020C94E01A83
:103D200008950C94841E0F931F9300916B021091C1
:103D30006C0220916D0230916E02602B712B822BF0
:103D4000932B1F910F910C94841E0F931F9300913E
:103D50006B0210916C0220916D0230916E02602313
:103D60007123822393231F910F910C94841E0F9330
:103D70001F9300916B0210916C0220916D023091A3
:103D80006E0260277127822793271F910F910C9451
:103D9000841E0C94811E0C94C91E0E94CB1E60933D
:103DA0006702709368028093690290936A020C9490
:103DB000E01A60E070E0CB010C94CD1E0F931F93CE
:103DC00041E050E060E070E08A019B0104C0000F18
:103DD000111F221F331F8A95D2F7C901B8011F9105
:103DE0000F910C94CD1E0F931F9341E050E060E0C3
:103DF00070E004C0440F551F661F771F8A95D2F7E5
:103E00008091670290916802A0916902B0916A0264
:103E10008A019B01082B192B2A2B3B2BC901B801C6
:103E20001F910F910C94CD1E0F931F9341E050E012
:103E300060E070E004C0440F551F661F771F8A952D
:103E4000D2F7CB01BA01609570958095909500915D
:103E50006702109168022091690230916A02602322
:103E60007123822393231F910F910C94CD1E0F93E6
:103E70001F9341E050E060E070E004C0440F551F24
:103E8000661F771F8A95D2F780916702909168022A
:103E9000A0916902B0916A028A019B010827192743
:103EA0002A273B27C901B8011F910F910C94CD1E01
:103EB0000F931F930091670210916802209169028D
:103EC00030916A02602B712B822B932B1F910F91E3
:103ED0000C94CD1E0F931F930091670210916802FE
:103EE0002091690230916A02602371238223932317
:103EF0001F910F910C94CD1E0F931F930091670299
:103F0000109168022091690230916A02602771273E
:103F1000822793271F910F910C94CD1E08952EE0B8
:103F2000929F800D1124982F977041E001C0440F9B
:103F30009A95EAF786958695869595E0899FF00192
:103F40001124EC5BFD4F90E080E070E05191DF01C7
:103F500011979B01082E02C0369527950A94E2F727
:103F6000217021952527242325272C930196853020
:103F7000910561F708952EE0929F800D1124982FEE
:103F8000977086958695869525E0829FF00111248D
:103F9000EC5BFD4F50E040E080E0219130E0092EE5
:103FA00002C0369527950A94E2F721703327042E34
:103FB00001C0220F0A94EAF7822B4F5F5F4F453012
:103FC000510559F70895BF92CF92DF92EF92FF9279
:103FD0000F931F93CF93DF938C01C0906702D09013
:103FE0006802E0906902F0906A0280916B02909101
:103FF0006C02A0916D02B0916E02C82AD92AEA2AF9
:10400000FB2ACFE1D0E0BC2ED701C6010C2E04C0A4
:10401000B695A795979587950A94D2F780FD0EC01F
:10402000219788F7B12C8B2DDF91CF911F910F91A4
:10403000FF90EF90DF90CF90BF900895B8018C2F44
:104040000E94A305019761F3EECFCF93DF93EC01BC
:104050000E94E31FBE01DF91CF910C94A3051F9333
:10406000CF93DF93EB0190910B02992331F0CB01B9
:10407000DF91CF911F910C942520882379F0CB01FB
:104080000E94E31F182F682FCE010E948F1FBE01D0
:10409000812FDF91CF911F910C94A305CB010E943A
:1040A000BB1F182FF4CF682F809117019091180132
:1040B0000C946522682F80911701909118010C943F
:1040C000702280911701909118010C947B228091AD
:1040D0006F02859585958595089580916F0287700B
:1040E000089590916F02977081E009F480E008953F
:1040F00080919302089590919302892B809393026B
:104100000895809590919302982390939302089537
:1041100010929302089590919202892B80939202BB
:104120000895809590919202982390939202089519
:1041300010929202089590919102892B809391029E
:1041400008958095909191029823909391020895FB
:1041500010929102089580917002089508950C9430
:10416000AE2090917002981721F0809370020C9409
:10417000AF20089580917002882329F01092700278
:1041800080E00C94AF200895E0911701F0911801A0
:10419000809193028083E0911701F0911801808152
:1041A00090919202892B8083E0911701F091180180
:1041B000808190919102892B808390917002992344
:1041C00081F0E0911701F09118018081892B8083A3
:1041D00080911701909118010E94D12181110E94B4
:1041E000BA2080911701909118010C942916089516
:1041F0000C94F72098E0899F90011124622B609322
:104200006F020E94F31E80916F02859585958595BA
:104210000C94F82010926F0280E00C94F82090919A
:104220006F028095892380936F02282F277071F485
:10423000282F082E000C330B9217130639F08595A2
:10424000859585950E94141F0C940A2108956FEF9F
:104250007FEF90E080E00C94042F90E080E00E94DB
:10426000E02E21E08C3E9E4F09F020E0822F089541
:1042700082E090E00C94D22E83E090E00C94D22E59
:10428000CF9384E090E00E94D22EC82F81E290E08C
:104290000E94D22E982F8C2FCF910895CF93C92FA3
:1042A000682F84E090E00E94E62E6C2F81E290E07F
:1042B000CF910C94E62EAB01BC018FE090E00C9402
:1042C000F82EAB01BC0183E190E00C94F82E60E085
:1042D00070E0CB010C94612160E070E0CB010E94A2
:1042E0005B210C9467216CEE7EEF90E080E00E94F1
:1042F000042F60E082E090E00E94E62E60E083E020
:1043000090E00E94E62E10926B0210926C021092C6
:104310006D0210926E0260E084E090E00E94E62E52
:1043200060E081E290E00E94E62E60E085E090E0AF
:104330000E94E62E60E086E090E00E94E62E6FEF9D
:1043400087E090E00E94E62E40E050E0BA0188E06D
:1043500090E00E94F82E60E08DE090E00E94E62E52
:1043600040E050E0BA0188E190E00E94F82E60E061
:1043700087E190E00E94E62E40E050E0BA018CE137
:1043800090E00E94F82E60E080E290E00E94E62E2D
:104390000C946C210C947321682F8EE090E00C94A7
:1043A000E62EFC01329680912B01882321F080912A
:1043B000E7029EE187FF96E080E0915008F40895BF
:1043C00021912223D1F38F5FF8CF662301F1209151
:1043D0002B012223F1F02091E70227FF1AC0462F7C
:1043E0004695469546954E3190F4677021E030E051
:1043F00002C0220F331F6A95E2F7840F911DFC0162
:10440000828190E02823392381E0232B69F480E026
:104410000895FC01329608962191261721F0E8179D
:10442000F907D1F7F4CF81E008959C01FC013296A1
:104430009FEF80E04191461751F09F3F19F44111E1
:1044400001C0982F8F5F8630A9F79F3F09F4089528
:10445000290F311D97FD3A95F90162830895FC01FA
:10446000329608962191261303C0DF0111971C9202
:10447000E817F907B9F70895E62FE695E695E6956A
:10448000EE3168F4E80FF92FF11D677021E030E09C
:1044900001C0220F6A95EAF78281822B82830895F8
:1044A000E62FE695E695E695EE3170F4E80FF92FE4
:1044B000F11D677021E030E001C0220F6A95EAF734
:1044C0002095828128232283089520912B01222385
:1044D00029F02091E70227FD0C943C220C94152230
:1044E00020912B01222329F02091E70227FD0C9433
:1044F00050220C942F22FC01329680912B018823AC
:1045000051F08091E70287FF06C08EE1DF011D9226
:104510008A95E9F7089586E0F9CF089508950C94F7
:104520008E220E948F228091ED02843049F11092F8
:10453000950288E190E020E40FB6F894A895809366
:1045400060000FBE2093600080E00E948F050E94F3
:104550008F2283B7817F846083BF83B7816083BFED
:104560007894889583B78E7F83BF0FB6F894A8950B
:1045700080916000886180936000109260000FBE9F
:1045800008950895CF930E948D220E9407080E94EB
:10459000C122C0E08C2F0E949807892B31F4CF5F95
:1045A000C430C1F780E0CF91089581E0FCCF089539
:1045B0000C94D7220E94F61A0E941D160E948F05A5
:1045C0000C94D8221F921FB61F9211248F939F9391
:1045D000AF93BF9380919502811113C08091E30244
:1045E0009091E402A091E502B091E6024196A11DEE
:1045F000B11D8093E3029093E402A093E502B0938F
:10460000E602BF91AF919F918F911F901FBE1F90A7
:10461000189582E084BD93E095BD9AEF97BD809395
:104620006E0008952FB7F8948091E3029091E40210
:10463000A091E502B091E6022FBF08952FB7F8943C
:104640006091E3027091E4028091E5029091E602AC
:104650002FBF08959C014FB7F8948091E302909189
:10466000E402A091E502B091E6024FBF821B930BDA
:10467000089578941F921FB61F9211248F939F93D1
:10468000AF93BF938091E3029091E402A091E50281
:10469000B091E6020196A11DB11D8093E3029093B3
:1046A000E402A093E502B093E602BF91AF919F911F
:1046B0008F911F901FBE1F90189581E08093E0009E
:1046C00080E28093D8001092C9008FE19EE40197A8
:1046D000F1F700C0000087E090EBDC018093F60268
:1046E0009093F702A093F802B093F90288E19CE05E
:1046F0000FB6F894A895809360000FBE9093600069
:10470000FFCF0C94D2100E9407088FE39CE9019719
:10471000F1F700C000000E94070880E00E9498079F
:1047200080FF04C00E9481230C945D2308950E94A1
:104730002D21811102C00E94CA210E94382180933C
:1047400094020E9440219093E8028093E7020E9425
:104750003C21682F70E090E080E00E94911E609103
:104760006702709168028091690290916A020C94CC
:10477000CB1E80919C0280FF12C060911E0185E0DB
:10478000689FB00111247595679575956795603898
:104790007105A8F561157105A1F1862F089581FFB6
:1047A00009C060911E0185E0689FB00111247595D4
:1047B0006795EDCF60911E0182FD0AC080919B023A
:1047C0008823D1F090911D0160911E01891728F076
:1047D00085E0689FB0011124DACF869FB0011124D3
:1047E00085E0869F9001879F300D1124692F70E02E
:1047F000C9010E94F52DCBCF65E070E0CECF8FE7E9
:10480000089581E0089580919C0280FF0CC0609122
:104810001A0170E075956795759567956115710535
:1048200049F1862F089581FF06C060911A0170E05A
:1048300075956795F3CF60911A0182FD0BC0909139
:104840009A029923A1F06091190180911A0196179B
:1048500038F0682F70E06038710500F38FE7089535
:10486000899FC001112470E00E94F52DF4CF61E012
:1048700070E0D7CF81E00895803F31F40E94B923E2
:1048800081958093A0020895813F19F40E94B92375
:10489000F8CF823F31F40E94B923819580939F0223
:1048A0000895833F19F40E94B923F8CF893F29F472
:1048B0000E9403248093A10208958A3F21F40E945C
:1048C00003248195F7CF8B3F31F40E940324819517
:1048D0008093A20208958C3F19F40E940324F8CF1C
:1048E000843F31F480919E02816080939E020895FE
:1048F000853F21F480919E028260F7CF863F21F4AC
:1049000080919E028460F1CF873F21F480919E02C6
:104910008860EBCF883F21F480919E028061E5CFD3
:104920008D3F31F480919C02816080939C020895B8
:104930008E3F21F480919C028260F7CF8F3FB9F7C0
:1049400080919C028460F1CF90919F02803F59F446
:104950008091A00287FF0DC01092A00291110BC0A0
:1049600010929B0208C0813F81F48091A00218162A
:104970009CF3992381F08091A1029091A202892B4E
:1049800009F064C010929A020895823F49F497FF9B
:10499000F0CF10929F028091A0028111ECCFE0CF66
:1049A000833F19F41916ACF3E4CF2091A102893F9B
:1049B00029F41216F4F61092A102DBCF8A3F19F403
:1049C00027FFD7CFF8CF2091A2028B3F29F427FFF2
:1049D000D0CF1092A202CDCF8C3F19F41216CCF397
:1049E000C8CF843F31F480919E028E7F80939E02D7
:1049F000C0CF853F21F480919E028D7FF7CF863F07
:104A000021F480919E028B7FF1CF873F21F480912A
:104A10009E02877FEBCF883F21F480919E028F7E9C
:104A2000E5CF8D3F31F480919C028E7F80939C0274
:104A3000A0CF8E3F21F480919C028D7FF7CF8F3FD6
:104A400009F097CF80919C028B7FF0CF08950E9450
:104A500012239C0190919F028091A002982B21F03B
:104A600030939902209398029091A1028091A20222
:104A7000982B21F030939702209396028DE992E0D3
:104A80000C944316EF92FF920F931F93CF93DF93F3
:104A900000D000D000D0CDB7DEB786E0EDE9F2E07F
:104AA000DE01119601900D928A95E1F7E0909F0248
:104AB000F090A0020091A1021091A20210929F0218
:104AC0001092A0021092A1021092A2028E2D8F29A4
:104AD00091F080919802909199020E942A23AC0152
:104AE00090919B02992309F43FC080911F01841784
:104AF000150608F447C0802F812B91F08091960213
:104B0000909197020E942A23AC0190919A029923D6
:104B100009F477C080911B018417150608F47FC043
:104B200080919F029091A002892B9091A102892BE4
:104B30009091A202892B11F00E94272586E0FE01A8
:104B40003196ADE9B2E001900D928A95E1F7269693
:104B50000FB6F894DEBF0FBECDBFDF91CF911F918E
:104B60000F91FF90EF900895209120018AE0289FF7
:104B7000900111242417350708F0BDCF9F5F909353
:104B80009B0202C09F3FD1F7EE2059F00E94B9234B
:104B90009FEF1E140CF491E0899F802D11248093C7
:104BA0009F02FF2059F00E94B9239FEF1F140CF4BD
:104BB00091E0899F802D11248093A00230919F0263
:104BC000332309F498CF2091A002222309F493CF34
:104BD00045EB3403C0011124992359F090939F02AF
:104BE00045EB240390011124332339F03093A002C4
:104BF00082CF81E080939F02F3CF81E08093A00277
:104C00007ACF20911C018AE0289F9001112424175B
:104C1000350708F085CF9F5F90939A0202C09F3FAF
:104C2000D1F7002359F00E9403249FEF10160CF4D3
:104C300091E0899F802D11248093A102112359F0C6
:104C40000E9403249FEF11160CF491E0899F802DA0
:104C500011248093A2023091A102332309F460CF82
:104C60002091A202222309F45BCF45EB3403C0015B
:104C70001124992359F09093A10245EB240390014C
:104C80001124332339F03093A2024ACF81E080937C
:104C9000A102F3CF81E08093A20242CF86E0EDE94A
:104CA000F2E0DF011D928A95E9F710929B021092C3
:104CB0009A0210929C0208958091C3020895CF93A6
:104CC000DF9300D00F92CDB7DEB79091ED02943014
:104CD00011F589837B836A839093E9008FEF90912C
:104CE000E800815095FD06C095ED9A95F1F700001A
:104CF0008111F5CF8091E80085FF0DC050E040E0C4
:104D000063E070E0CE0101960E94E7288091E80000
:104D10008E778093E8000F900F900F90DF91CF91E6
:104D20000895BC0184E00C945F26BC0183E00C94E0
:104D30005F269C0184E08093E9009FEF8091E8006A
:104D4000915085FD06C085ED8A95F1F7000091111F
:104D5000F5CF8091E80085FF0CC050E040E066E0B0
:104D600070E0C9010E94E7288091E8008E77809367
:104D7000E8000895CF93DF93EC0180912B01882305
:104D8000B1F18091E70287FF32C060E284E0809356
:104D9000E9008FEF9091E800815095FD06C095EDF8
:104DA0009A95F1F700008111F5CF8091E80085FF19
:104DB0001BC080912B0170E050E040E0811104C0E5
:104DC00050E040E068E070E0CE010E94E72880916A
:104DD000E8008E778093E80080E2FE01A3EAB2E06B
:104DE00001900D928A95E1F7DF91CF91089568E0E7
:104DF00081E0CDCFCF93FC01603221F58091ED02AF
:104E0000843001F5C091E900CF702091EC00922F21
:104E1000917020FD90E8C92B82E08093E900809199
:104E2000E80080FF0CC050E040E060E270E0CF019D
:104E30000E94E7288091E8008E778093E800CF7089
:104E4000C093E900CF9108958091EC02811109C0CF
:104E50000E94C62A0E94232B8091E20084608093E6
:104E6000E20008951092EC020895089508950C94BC
:104E7000DA2242E061EC81E00E94422A42E261ECE7
:104E800084E00E94422A42E261EC82E00E94422ACF
:104E900042E260EC83E00C94422A8091EF0283307E
:104EA00009F461C030F48130D1F1823009F49DC041
:104EB00008958A3009F489C08B3009F46FC08930B5
:104EC00009F050C08091EE02813209F04BC0809110
:104ED000F2029091F302009719F0029709F042C094
:104EE0008091E800877F8093E8008091E80082FF4E
:104EF00035C09091F3008091F200029729F48091DF
:104F0000F1008B7F813021F48091F1008093C30206
:104F10008091E8008B778093E8000C94762A80914A
:104F2000EE02813AF9F48091E800877F8093E800EF
:104F30008091F2029091F302892B61F460E283EA9E
:104F400092E070E00E9485298091E8008B77809341
:104F5000E800089560E090E080E0F3CF8091ED02FA
:104F60008111C3CF08958091EE02813AD9F78091E3
:104F7000F2029091F302892BA9F78091E800877FD4
:104F80008093E8008091E80080FFFCCF80912B01A6
:104F90008093F1008091E8008E77BDCF8091EE0282
:104FA000813201F78091F2029091F302892BD1F6C0
:104FB0008091E800877F8093E8000E94762A8091A4
:104FC000F00280932B010C94F61A8091EE0281324C
:104FD00049F68091E800877F8093E8000E94762A56
:104FE0008091F1028093C40208958091EE02813A8B
:104FF00009F0B8CF8091E800877F8093E800809126
:10500000E80080FFFCCF8091C402C2CFCDB7DEB7ED
:10501000A0970FB6F894DEBF0FBECDBF84B7877FD1
:1050200084BF0FB6F894A895809160008861809342
:105030006000109260000FBE80E890E00FB6F89418
:1050400080936100909361000FBE0E948B160E94B6
:10505000C62A0E94232B8091E20084608093E200A4
:1050600078940E94AC2D0E94951681E291E00E94F6
:10507000181613E08091ED02853039F10E94A116D7
:105080008091ED028430B1F71093E9008091E8003F
:1050900082FFF0CF8091E80090E085FF09C050E0EA
:1050A00040E060E270E0CE0101960E94362991E076
:1050B0008091E8008B778093E8009923D9F260E231
:1050C000CE0101960E948A11D5CF0E949122809133
:1050D000EB02882379F20E94C222882359F20E94AF
:1050E000D128C8CF0C947428292F332723303105B9
:1050F00021F168F42130310509F449C0223031052D
:1051000009F44AC090E080E030E020E029C021327C
:10511000310581F122323105A9F76330710590F72D
:10512000FB01EE0FFF1FE253FE4F208131816553DB
:105130007E4FFB01808190E013C09927813091055B
:1051400099F0009741F08230910589F00397D1F6EC
:10515000E6E2F5E002C0ECE4F5E0849190E09F0126
:10516000FA01318320830895E0E4F5E0F6CFECE224
:10517000F5E0F3CF6330710528F6660F771FFB016A
:10518000EC52FE4F2081318189E090E0E9CF82E14D
:1051900090E02BEA35E0E4CF8BE590E020E535E0C8
:1051A000DFCF80E189BD82E189BD09B400FEFDCF7A
:1051B0008091D8008F7D8093D8008091E00082603C
:1051C0008093E0008091E00081FDFCCF0895AF92D4
:1051D000BF92CF92DF92FF920F931F93CF93DF93F3
:1051E0006C01EB018A010E94952AF82E811123C0DF
:1051F0000115110539F0F80180819181C81BD90B87
:10520000C80ED91EB12CA12C2097A9F08091E800DE
:1052100085FD22C08091E8008E778093E80001151B
:105220001105A1F0F80180819181A80EB91EB1820B
:10523000A08285E0F82E8F2DDF91CF911F910F91E5
:10524000FF90DF90CF90BF90AF9008950E94952A75
:105250008823D1F2F82EEFCFF60181916F01809370
:10526000F1002197FFEFAF1ABF0ACECFAF92BF92E6
:10527000CF92DF92FF920F931F93CF93DF936C0136
:10528000EB018A010E94952AF82E811123C0011595
:10529000110539F0F80180819181C81BD90BC80E26
:1052A000D91EB12CA12C2097A9F08091E80085FD92
:1052B00022C08091E8008B778093E80001151105EA
:1052C000A1F0F80180819181A80EB91EB182A0825F
:1052D00085E0F82E8F2DDF91CF911F910F91FF90D8
:1052E000DF90CF90BF90AF9008950E94952A8823B9
:1052F000D1F2F82EEFCF8091F100F60181936F018A
:105300002197FFEFAF1ABF0ACECFFC018091F402C4
:105310009091F50286179707A0F06115710529F4A1
:105320009091E8009E779093E80090E061157105F8
:1053300051F4911108C08091E80082FF34C080E0F0
:105340000895BC01F2CF8091ED028823C1F1853030
:10535000C1F18091E80083FD30C08091E80082FDBA
:10536000EACF8091E80080FFE1CF8091F3002091A7
:10537000F200382F6115710519F02830310558F009
:1053800091E02830310509F090E02091E8002E7777
:105390002093E800CBCF81918093F1006150710997
:1053A0002F5F3F4FE7CF8091ED02882341F085309A
:1053B00041F08091E80083FFBECF81E0089582E054
:1053C000089583E00895FC018091F4029091F50224
:1053D00086179707A0F06115710529F48091E80000
:1053E0008E778093E80090E06115710551F491117A
:1053F00008C08091E80082FF35C080E00895BC01BC
:10540000F2CF8091ED028823C9F18530C9F18091F6
:10541000E80083FD31C08091E80082FDEACF8091F1
:10542000E80080FFE1CF8091F3002091F200382F57
:105430006115710519F02830310558F091E02830D8
:10544000310509F090E08091E8008E778093E800C4
:10545000CBCF84918093F1003196615071092F5F19
:105460003F4FE6CF8091ED02882341F0853041F037
:105470008091E80083FFBDCF81E0089582E0089528
:1054800083E00895982F973028F08F708093E9007B
:1054900081E008959093E900242F762F50E098172B
:1054A00031F07091EC002091ED005091F00021FD61
:1054B00002C09F5FE8CF3091EB003E7F3093EB005E
:1054C0003091ED003D7F3093ED003091EB00316085
:1054D0003093EB007093EC002093ED005093F000BC
:1054E0002091EE0027FDE5CF80E008958091EE0247
:1054F00087FF13C08091E80082FF06C08091E8001A
:105500008B778093E80004C08091ED028111F2CF87
:1055100008958091ED028823D9F38091E80080FFFF
:10552000F8CF8091E8008E77ECCF2091E4003091A5
:10553000E50095E6A9012091EC00822F817020FF03
:1055400006C08091E80080FF06C080E008952091A9
:10555000E80022FD1AC08091ED02882389F0853091
:1055600089F08091EB0085FD0FC02091E40030911F
:10557000E50042175307F9F29150E1F684E00895EF
:1055800082E0089583E0089581E008950E94342B1D
:105590000E943C2BE0EEF0E0808181608083E8EDAA
:1055A000F0E080818F77808319BCA7EDB0E08C910B
:1055B0008E7F8C9380818F7E80831092EC02089581
:1055C0000F931F93CF93DF930E94342B0E943C2BA9
:1055D000C8EDD0E088818F77888388818068888350
:1055E00088818F7D888319BC1092ED021092E902A8
:1055F0001092EB021092EA0200EE10E0F8018081B6
:105600008B7F808388818160888342E060E080E0D6
:105610000E94422AE1EEF0E080818E7F8083E2EEFC
:10562000F0E0808181608083808188608083F801E0
:1056300080818E7F8083888180618883DF91CF9194
:105640001F910F910895E8EDF0E080818F7E8083B7
:10565000E7EDF0E080818160808384E082BF81E0BB
:105660008093EC020C94E02AE8EDF0E080818E7FDC
:1056700080831092E20008951092DA001092E10007
:1056800008951F920F920FB60F9211242F933F93FC
:105690004F935F936F937F938F939F93AF93BF933A
:1056A000EF93FF938091E10082FF0BC08091E200B5
:1056B00082FF07C08091E1008B7F8093E1000E9410
:1056C000AB2D8091DA0080FF19C08091D80080FF57
:1056D00015C08091DA008E7F8093DA008091D90026
:1056E00080FF96C080E189BD82E189BD09B400FEDA
:1056F000FDCF81E08093ED020E9424278091E1009C
:1057000080FF19C08091E20080FF15C08091E20007
:105710008E7F8093E2008091E20080618093E200BE
:105720008091D80080628093D80019BC85E0809376
:10573000ED020E9436278091E10084FF2BC080910A
:10574000E20084FF27C080E189BD82E189BD89B57F
:10575000982F917080FFFBCF8091D8008F7D809330
:10576000D8008091E1008F7E8093E1008091E2007B
:105770008F7E8093E2008091E20081608093E2005E
:105780008091E902882309F449C084E08093ED0206
:105790000E9437278091E10083FF29C08091E200B9
:1057A00083FF25C08091E100877F8093E10082E044
:1057B0008093ED021092E9028091E1008E7F809348
:1057C000E1008091E2008E7F8093E2008091E20010
:1057D00080618093E20042E060E080E00E94422A23
:1057E0008091F00088608093F0000E943527FF913F
:1057F000EF91BF91AF919F918F917F916F915F9149
:105800004F913F912F910F900FBE0F901F901895C1
:1058100019BC1092ED020E94322770CF8091E300F4
:1058200087FD93E09093ED02B3CF1F920F920FB6D6
:105830000F9211242F933F934F935F936F937F9316
:105840008F939F93AF93BF93CF93DF93EF93FF9388
:10585000D091E900DF708091EC00C82FC17080FD0D
:10586000C0E81092E9008091F000877F8093F000FB
:1058700078940E94592C1092E9008091F000886081
:105880008093F000CD2BCF70C093E900FF91EF9192
:10589000DF91CF91BF91AF919F918F917F916F9148
:1058A0005F914F913F912F910F900FBE0F901F90DE
:1058B00018951F93CF93DF93CDB7DEB7AA970FB696
:1058C000F894DEBF0FBECDBF8EEE92E02091F100C6
:1058D000FC012193CF01F2E0863F9F07B9F70E94B8
:1058E0004D278091E80083FF1EC18091EE029091C8
:1058F000EF029A3008F017C1E92FF0E0E058F04DC0
:105900000C942B2E803899F0823809F00CC18091CC
:10591000F2028F70873008F006C18093E900809111
:10592000EB0085FB882780F91092E90006C0809182
:10593000EA029091EB02911182609091E800977FCA
:105940009093E8008093F1001092F1008091E800BC
:105950008E77E5C0882309F4D3C0823009F0E3C014
:105960008091F0028111D6C08091F2028F702FEFEA
:10597000280F263008F0D7C08093E9002091EB0073
:1059800020FFC8C0933031F48091EB008062809397
:10599000EB00C0C09091EB0090619093EB0021E090
:1059A00030E001C0220F8A95EAF72093EA001092B6
:1059B000EA008091EB008860EACF8111B4C01091B9
:1059C000F0021F778091E3008078812B8093E300C1
:1059D0008091E800877F8093E8000E94762A80917A
:1059E000E80080FFFCCF8091E30080688093E300B3
:1059F00082E0111183E08093ED0295C080588230DF
:105A000008F091C08091F0029091F1028C3D23E06A
:105A10009207A1F583E08A838AE289834FB7F894DD
:105A2000DE01139620E03EE051E2E32FF0E05093D8
:105A30005700E49120FF03C0E295EF703F5FEF70E5
:105A40008E2F90E0EA30C0F0C7968D939D932F5F24
:105A5000243159F74FBF8091E800877F8093E80099
:105A60006AE270E0CE0101960E9485298091E800EB
:105A70008B778093E80057C0C096E7CF6091F20221
:105A80007091F302AE014F5F5F4F0E947228BC011C
:105A9000892B09F448C09091E800977F9093E80023
:105AA00089819A810E94E329E1CF8038E1F58091D4
:105AB000E800877F8093E8008091E9028093F100FD
:105AC00045CF811130C09091F002923060F5809105
:105AD000E800877F8093E8009093E9020E94762A8D
