:100000000C9414020C945B020C945B020C945B0243
:100010000C945B020C945B020C945B020C945B02EC
:100020000C945B020C945B020C945B020C94DF203A
:100030000C9490210C94BF1A0C945B020C945B02FC
:100040000C945B020C945B020C945B020C94161BE8
:100050000C945B020C945B020C945B020C945B02AC
:100060000C945B020C945B020C945B020C945B029C
:100070000C945B022B0014001A00090013000A0004
:100080004B000D000F0018001C0033002A002961EE
:10009000040015001600170007004E000B001100A9
:1000A00008000C0012003400E1001D001B000600D7
:1000B000190005004A000E00100036003700380015
:1000C00028003500E300E2000000015800004C0564
:1000D00000002C424C050000E600390035021E02EB
:1000E0001F02200221022202010023022402250213
:1000F000260227022A0038001E001F0020002100CF
:1001000022000100230024002500260027003100E2
:1001100001000100010001000100010001000100D7
:1001200057002E0001000100010029004C052903A1
:100130000000010000000100000001006400000058
:100140003500010001000100010052000100010022
:10015000010001002D0201002F003000010001000C
:100160000100500051004F000100010001002D006E
:1001700001002F02300201003A003B003C003D002C
:100180003E003F00010040004100420043004400A7
:100190004500005C010001000000010000000100BA
:1001A0000000010001000000010001000100010049
:1001B0000100520001000100010001002D020100B8
:1001C0002F003000010001000100500051004F00DD
:1001D0000100010001002D0001002F02300201008A
:1001E0003A003B003C003D003E003F000100400063
:1001F00041004200430044004500005C0100010052
:1002000000000100000001000000010001000000EA
:100210000100010000000000000000002A2B28005F
:1002200000000000000000000000000000000029A5
:10023000000000002C1E3420212224342627252EE5
:10024000362D3738271E1F2021222324252633331D
:10025000362E37381F0405060708090A0B0C0D0E49
:100260000F101112131415161718191A1B1C1D2F15
:100270003130232D350405060708090A0B0C0D0E35
:100280000F101112131415161718191A1B1C1D2FF5
:100290003130354C0000000000000000000000007C
:1002A00000000000000000007E0F00D4FFFFFFC729
:1002B00000000078040330000000200350004800D4
:1002C0004F0045004E0049005800340035005F00E3
:1002D0004F005200540048004F0000000A034E0037
:1002E00061007300700000000403090409025B0050
:1002F000030100A0FA090400000103010100092123
:10030000110100012240000705810308000A0904C9
:100310000100020300000009211101000122220056
:1003200007058203200001070503032000010904DB
:1003300002000103000000092111010001226D00EB
:100340000705840320000A12011001000000087054
:100350007049180100010203010660FF0961A10153
:100360000962150026FF00952075088102096315B2
:100370000026FF00952075089102C005010980A1A3
:1003800001850319012AB700150126B700950175EB
:10039000108100C0050C0901A101850419012AA0E2
:1003A00002150126A002950175108100C005010902
:1003B00006A1018505050719E029E7150025019526
:1003C00008750181020507190029EF15002501951F
:1003D000F07501810205081901290595057501913E
:1003E00002950175039101C005010906A1010507E8
:1003F00019E029E71500250195087501810295018D
:10040000750881010507190029FF150026FF0095D1
:1004100006750881000508190129059505750191E2
:1004200002950175039101C011241FBECFEFD4E0E6
:10043000DEBFCDBF04B603FE27C080918F0290912E
:100440009002A0919102B09192028730904BA74008
:10045000B04BD1F410928F02109290021092910240
:100460001092920214BE84B7877F84BF0FB6F894AF
:10047000A895809160008861809360001092600070
:100480000FBEE0E0F8E3099511E0A0E0B1E0EEE492
:10049000F8E402C005900D92A03AB107D9F722E026
:1004A000A0EAB1E001C01D92AF38B207E1F70E94A7
:1004B000C01D0C94AB230C940000CF93DF939C01E0
:1004C0003A9521153F4168F5EC01CC27D170DC014C
:1004D000AA27B270AC01442754709C0122273870BF
:1004E00094FF11C080E1CD2B09F480E0AB2B09F023
:1004F0008062452B09F08064232B09F08068FB01A2
:10050000DF91CF91099481E0CD2B09F480E0AB2BF2
:1005100009F08260452B09F08460232B81F3886009
:10052000EECFDF91CF910895CF93DF93EC01805E02
:100530009109089720F067E972E1209711F46CE3C4
:1005400070E1CE010E945D028C2FDF91CF910C945F
:100550004B0FCF93DF93EC010E94DA0FCE01805E48
:100560009109089720F06EE972E1209711F463E495
:1005700070E1CE01DF91CF910C945D02CF93DF93B8
:10058000EC010E949402CE01DF91CF910C94A9025C
:1005900081E0089581E008950C94CA0208950C94B6
:1005A000CE021F93CF93DF9300D000D00F92CDB730
:1005B000DEB749835A836B833091B90189819A816F
:1005C00031111DC06623B9F02223A9F00E94BD1786
:1005D000182F682F89819A810E945A1769817A8120
:1005E000812F0F900F900F900F900F90DF91CF9170
:1005F0001F910C945E0A0E949117182FEFCF0E9452
:10060000BD1769817A81EDCFFC01262F4081518190
:100610006281738184810C94D102CF93DF93EC01CA
:1006200060E00E940403BE01DF91CF910C94CF02E1
:10063000FF920F931F93CF93DF93E82FF0E0EC5ED0
:10064000FD4FF490C82FC695C695C695D0E0FE0123
:10065000EC55FD4F0491877010E0082E02C01595EF
:1006600007950A94E2F701701127CC56DD4FFE0181
:10067000C491D0E002C0D595C7958A95E2F7C170C4
:10068000DD270115110519F081EE0E944B0F20970F
:1006900019F086EE0E944B0F8F2D0E942910CD2B52
:1006A00019F086EE0E94DA0F012B41F081EEDF9106
:1006B000CF911F910F91FF900C94DA0FDF91CF91A2
:1006C0001F910F91FF900895EF92FF921F93CF9388
:1006D000DF93EC01162F8881882309F451C0813003
:1006E00009F04BC08981813099F47E0122E0E20E4D
:1006F000F11C8A810E942910E7012196812F8150E7
:1007000050F3EFE9FFE03197F1F700C00000F7CFB9
:10071000823041F47E0182E0E80EF11C8A810E9461
:100720004B0FEACF833041F47E01E2E0EE0EF11C84
:100730008A810E94DA0FE0CF843011F02196DDCF5C
:100740002A81229690E080E0FE0131962053330BFF
:100750002A30310548F0019780F2EFE9FFE0319748
:10076000F1F700C00000F7CF6AE070E00E944B2371
:10077000820F931F2981EF01E7CF0E941803BDCF9D
:10078000DF91CF911F91FF90EF90089560E00C945E
:1007900064038F929F92AF92BF92CF92DF92EF92BB
:1007A000FF920F931F936B017C0181E090E0A0E02A
:1007B000B0E04C015D0104C0880C991CAA1CBB1C54
:1007C0004A95D2F7B501A4014C015D0104C0880C23
:1007D000991CAA1CBB1C2A95D2F7482959296A29B9
:1007E0007B2904C0880F991FAA1FBB1F0A95D2F747
:1007F0008A019B010C211D212E213F210417150781
:100800002607370789F48C299D29AE29BF29BC0109
:10081000CD011F910F91FF90EF90DF90CF90BF908F
:10082000AF909F908F90089580959095A095B095EA
:100830008C219D21AE21BF21EACF0F93382F262F87
:100840006091150270911602809117029091180222
:10085000042F432F0E94C9030F910C9498160E94F5
:10086000601B0E940A19811102C00E94A7190E94F0
:100870003E0B0C94AC060C94AF06282F2F7041F061
:10088000822F90E02A3010F44D960895069708952F
:1008900087E290E0089508950E94B7120E944B04E9
:1008A0002FEF84E39CE0215080409040E1F700C0AE
:1008B00000000C943A1B0F931F93CF93DF93EC012E
:1008C00061E00E9404038C01BE010E948E0888230F
:1008D00089F1BE01C8010E94CC02882359F1BE01F2
:1008E000C8010E94B50B882329F1BE01C8010E94EE
:1008F0005E0C8823F9F0BE01C8010E94B00C882369
:10090000C9F0BE01C8010E94D30D882399F08A81E5
:10091000882339F001158CE5180751F00E3D1C4570
:1009200079F0CE01DF91CF911F910F910C94C80205
:100930000E944C0480E0DF91CF911F910F910895A8
:100940000E94A719F7CF08950C94A30481E008959D
:100950000C94A604CF93C82F0E94A4048C2FCF918F
:100960000C94A80490E080E008950895FC01EE0F37
:10097000FF1FEC54FD4F859194910895CF93DF9321
:100980000E945E0A0E94D105EC01811520E59207C4
:1009900008F041C0811530E4930708F0B6C0803EEE
:1009A000910518F5803C910508F0A0C0883A9105A2
:1009B00070F4853A910508F091C08130910501F1FC
:1009C0000097F1F00497E0F4D0E0C0E019C08F3B4D
:1009D0009105D0F7C85AD0E0CC0FDD1FC35FDE4FC2
:1009E0000990D881C02DD4640BC0811540E29407D2
:1009F00058F4C11581E0D80718F4C83ED10520F796
:100A0000CE01DF91CF910895811520E3920708F080
:100A100073C09F706DC0811535E5930770F5811522
:100A200044E5940708F0A5C0C11582E5D80750F445
:100A3000C11521E5D20708F46BC0DC2FCC27C16FAC
:100A4000D06ADECF9C2F969596959E012370332712
:100A5000C115D34508F07BC0C1E0D0E002C0CC0F87
:100A6000DD1F2A95E2F7892F90E0E5E0880F991FB6
:100A7000EA95E1F7C82BD92B68C0C11589E5D807DD
:100A8000A8F4C11528E5D20708F078C0C11536E5ED
:100A9000D30708F099CF8C2F0E946806C82FD0E0AA
:100AA000DC2FCC27CC27DF71D062AACFC1154AE555
:100AB000D40708F468C0CE0190568115904208F022
:100AC00083CF8D2F8F710E94680690E0982F882722
:100AD00088279F719C012C2BE901E6CFC55AD0E0F5
:100AE000C55CDE4FC881D0E0D0648ACF805C9109BC
:100AF0000E94B604EC0184CF9927D3FF03C0EC0118
:100B0000D86C7ECFEC01D06C7BCFDF70D06A78CF11
:100B1000CE01A4E096958795AA95E1F783702C2FD6
:100B200026952695237030E0B5E0220F331FBA9545
:100B3000E1F7382B8C2F8370C1E0D0E002C0CC0FDE
:100B4000DD1F8A95E2F7C22BD32BDC6859CFC1E0B9
:100B5000D0E002C0CC0FDD1F2A95E2F7892F90E08C
:100B600075E0880F991F7A95E1F7C82BD92BDA68C1
:100B700047CFD82FCC27C46FD06A42CFDC2FCC27E9
:100B8000C06FD06A3DCF8C2F8F700E94680634E012
:100B9000D695C7953A95E1F7CF709C2FEC01D069B7
:100BA0002FCF82389105B1F1B0F48133910509F46A
:100BB00075C048F48932910509F469C08A329105FB
:100BC00009F473C008958533910509F459C0893338
:100BD000910501F10895833E9105A9F138F4803E15
:100BE0009105F9F0823E910549F10895863E9105FF
:100BF000A9F1873E9105C9F1843E910519F520912F
:100C0000810221FF1FC08091800284FD14C087EE05
:100C100090E00895209180022370A1F080EE90E092
:100C200008952091800220FD47C03091810230FF5D
:100C300009C024FF44C090E080E004C020918002FD
:100C400022FDF7CF08952091800222FD3BC0309114
:100C5000810230FDE3CF24FFF5CFEDCF209180025C
:100C600023FFF0CF24FDE7CFD2CF2091800223FDD8
:100C70002CC03091810231FFEECF84EE90E00895D8
:100C80002091800225FFDECF89E290E00895209137
:100C9000800225FFD7CF85E390E008952091800260
:100CA00026FFD0CF8AE290E008952091800226FFAF
:100CB000C9CF81E390E0089589E390E0089583EE41
:100CC00090E0089582EE90E0089586EE90E0089519
:100CD0009091800292FF06C0282F28712830F9F4E5
:100CE000877F846093FF06C0282F28712831F1F494
:100CF000877E84612091810220FF06C0382F3871E1
:100D00003830D9F4877F816021FF06C0282F2871F1
:100D10002831D1F4877E816194FD877E0895282F44
:100D200024712430F9F68B7F8860DCCF282F247162
:100D3000243101F78B7E8861DDCF382F317131305E
:100D400019F78E7F8860E0CF282F2171213121F79C
:100D50008E7E8861E1CF08950C94AB0608950C94C3
:100D6000AE06E82FF0E0EE0FFF1FE159FD4F808146
:100D700091810895089580EA8A95F1F70895CF93B7
:100D8000DF93ABE4B1E04FE451E0C1E0D0E08D91FE
:100D9000E82FE295EF70F0E061A18F709E0101C035
:100DA000220F8A95EAF7922F9095962391A382A11C
:100DB000822B82A34A175B0751F7AEE3B1E04BE405
:100DC00051E0C1E0D0E08D91E82FE295EF70F0E0C6
:100DD00061A18F709E0101C0220F8A95EAF7922FC0
:100DE0009095962391A382A1822B82A34A175B0739
:100DF00051F71092680210926702109270021092DE
:100E00006F0210926A02109269021092720210929E
:100E1000710210926C0210926B0210927402109286
:100E2000730210926E0210926D021092760210926E
:100E3000750284E00E94A707DF91CF910C942F04E4
:100E40008F929F92AF92BF92CF92DF92EF92FF92DA
:100E50000F931F93CF93DF938BE4E82E81E0F82E5E
:100E600007E612E0912CAA24A394B12CF7018191FA
:100E70007F01C82FC295CF70D0E099A18F70650116
:100E800001C0CC0C8A95EAF7892F8C2989A38AA105
:100E90008C2C809488218AA30E94BB06EEE3F1E0AB
:100EA00050E040E030E020E06191A62FA295AF70C5
:100EB000B0E090968C9190E06F7002C09595879508
:100EC0006A95E2F780FD3EC0C501042E02C0880F7E
:100ED000991F0A94E2F7282B392B4F5F5F4F4D3053
:100EE000510511F789A1882289A28AA1C82ACAA21C
:100EF000F801808191812817390739F131832083E6
:100F000081E0982A0E5F1F4FFFE4EF16F1E0FF0625
:100F100009F0ACCF292D44E06FE672E087E692E05D
:100F20000E94A8070E943B04892DDF91CF911F9159
:100F30000F91FF90EF90DF90CF90BF90AF909F9078
:100F40008F90089590E080E0C6CF80E0DACF0895DA
:100F5000FF920F931F93CF93DF93F82E092F162F35
:100F6000D72FC42F222349F081E08093A2010E9451
:100F7000EF1A9093A1018093A0018091A201882390
:100F8000A1F08091A0019091A1010E94071B0697FA
:100F900060F0EF2DF02FA12FBD2F90E080E0D0E08A
:100FA0008C179D0744F01092A201DF91CF911F9101
:100FB0000F91FF900895219131912D933D930196CA
:100FC000EFCF08950C94E1072198299A22982A9A44
:100FD00083B1869581701A9905C090E0892B809322
:100FE000A501089592E0FACFE091A501EE0FEE0F72
:100FF000E093A50143B141FB882780F943B142FB4F
:10100000222720F942FF02C022E030E0822BE82BA9
:10101000E093A501EF70F0E0E15BFE4F80819091DD
:10102000A401890F8093A40184304CF08091A30126
:101030008F5F8093A30160E080E00E94E2078091CF
:10104000A4018D3F4CF48091A30181508093A301B2
:1010500061E080E00E94E2078091A401837887FF2D
:1010600003C081508C6F8F5F8093A401089582E24A
:1010700090E00E946923813289F483E290E00E942B
:101080006923883059F484E290E00E94692391E05A
:10109000853209F090E0892F8170089580E0FCCFBF
:1010A000CF93C82F6FEF811161E282E290E00E943E
:1010B00077236FEFC11168E083E290E00E9477230D
:1010C0006FEFC11165E284E290E0CF910C94772339
:1010D00080E00E9450080C940419089585E290E085
:1010E0000E946923682F70E090E080E0089585E217
:1010F00090E00C9477230E946D080E9437088111BC
:101100000CC060E070E0CB010E9477080E94D60915
:101110000E94C20A81E00C9450080895CF93FB010D
:10112000C281CC2309F19C0122513F452031310578
:1011300020F582510E94D20AC0E08C2FCF910895F1
:1011400081E00E94BE1643E062E081E00E941D043F
:10115000F3CF81E00E94DF1643E062E081E00E946D
:101160001D04EBCF82E0F6CF8031FFE59F0789F3C6
:1011700081319F45B9F3C1E0E0CF8031EFE59E07B3
:10118000F9F281319F45C9F682E0DBCF2FEFFC01F8
:1011900020830895EF92FF920F931F93CF93DF93D5
:1011A000EC01062FE881E150E33108F05EC0F0E089
:1011B000E355FC4D0C945C23198289E08A83602FEF
:1011C000CE01DF91CF911F910F91FF90EF900C9482
:1011D000C71C8981823069F0833071F08130D9F485
:1011E0000E94FB1A0E9462236A837B838C839D8307
:1011F000E6CF0E946E08F6CF7E0110E0812F0E949C
:10120000B106F701928383831F5FF2E0EF0EF11CBA
:101210001430A1F7D4CF602FCE010E94C608CFCFE3
:1012200089818230C1F76A817B818C819D810E9496
:1012300062230E947708C3CF4B816A8189810E9413
:10124000A8099827892798279D838C83B8CF2C815C
:101250003D813227232732274B816A8189810E9471
:10126000C109ADCF0E94D609AACF8FEF8883A7CF3F
:101270000E946B0A8983A3CF0E946D0A9827892751
:1012800098279A8389839BCF6B8170E089819A81AB
:10129000AE014C5F5F4F9827892798270E94700AFC
:1012A0008ECF6B8170E089819A81AE014C5F5F4F78
:1012B0009827892798270E94970A81CF0E94C20AFF
:1012C0007ECF0E948F09D6CF6B8170E089819A8191
:1012D000AE014C5F5F4F9827892798270E940E0A1E
:1012E0006ECF6B8170E089819A81AE014C5F5F4F58
:1012F0009827892798270E94340A61CF0E9468089E
:101300005ECF0E94C71C2FEF81EE94E021508040F9
:101310009040E1F700C000000E943A1B50CF84E0EB
:101320000895E82F862F90E06AE170E00E944B2339
:10133000242F30E0220F331F280F391F8E2F90E00B
:1013400068E670E00E944B23820F931F86960895F3
:101350000F931F93CF93DF930E9491098C010E94FA
:101360006923C82FD0E0DC2FCC27C80101960E944A
:1013700069239E01282BC901DF91CF911F910F9105
:1013800008950F931F93CF93DF93122F032F0E9483
:101390009109EC01602F0E947723612FCE01019605
:1013A000DF91CF911F910F910C947723AF92BF9251
:1013B000CF92DF92EF92FF921F93CF93DF9384E758
:1013C000C82E80E0D82ED0E07601C0E014C0F50130
:1013D00025913491412F6C2F8D2F0E94C10982E0FD
:1013E000A80EB11C1F5F1D3091F78AE1E80EF11CB9
:1013F000CF5FC43019F0570110E0E9CFDF5F88E616
:10140000C80ED11CD43001F7DF91CF911F91FF900E
:10141000EF90DF90CF90BF90AF900895EF92FF9242
:101420000F931F93CF93DF93EC018A017C01E60EAB
:10143000F71ECE018696CE15DF0539F4DF91CF91E8
:101440001F910F91FF90EF900895C03A21E0D207CD
:1014500040F40E946923F80180830F5F1F4F21969B
:10146000E8CFF8011082F9CFCF92DF92EF92FF928E
:101470000F931F93CF93DF937C016A018C01060FBA
:10148000171FEC01CE018696C017D10749F4DF91F2
:10149000CF911F910F91FF90EF90DF90CF90089523
:1014A000C03A21E0D20740F4FE01EE19FF09EC0D2D
:1014B000FD1D60810E9477232196E4CF462F843062
:1014C00038F4743028F46D3018F4672F0C94A809A0
:1014D00090E080E0089580E108958AE392E0089525
:1014E000EF92FF920F931F93CF93DF93EC018A014A
:1014F0007C01E60EF71ECE018A539E4FCE15DF0506
:1015000039F4DF91CF911F910F91FF90EF900895E3
:10151000CA3322E0D20740F40E946923F801808395
:101520000F5F1F4F2196E7CFF8011082F9CFCF92BE
:10153000DF92EF92FF920F931F93CF93DF937C0183
:101540006A018C01060F171FEC01CE018A539E4FD2
:10155000C017D10749F4DF91CF911F910F91FF90F0
:10156000EF90DF90CF900895CA3322E0D20740F485
:10157000FE01EE19FF09EC0DFD1D60810E9477232D
:101580002196E3CFCF93DF93C6ECD1E060E0CE01AC
:101590000E9477232196C11584E0D807B9F7DF911F
:1015A000CF910895DF92EF92FF920F931F93CF9305
:1015B000DF9300D000D0CDB7DEB7F82E8FE08F15C7
:1015C00040F08FEF93E00E94692306EC11E088233E
:1015D000C1F00F900F900F900F90DF91CF911F915E
:1015E0000F91FF90EF90DF900895011584E01807A8
:1015F00081F3C8010E946923811101C0FA940F5F31
:101600001F4FF110F2CF19821A821B821C82DD2437
:10161000D39478018FEFE81AF80AC8010E94692371
:1016200089831A828823A9F29FEF980F933078F468
:101630008A83D9820E5F1F4FC7010E9469238B8363
:10164000882339F2CE0101960E94C603E2CF8701BA
:10165000F9CFCF93DF93EC0197FF0CC0FB018281A0
:10166000882341F00E94540BCE019F770E94980B73
:101670000E94800B81E0DF91CF9108958CE090E093
:101680000E94692390E0B0E0A0E0809377029093FD
:101690007802A0937902B0937A020895609177025C
:1016A0008CE090E00C9477230E94521880937B0288
:1016B0000E94651880917702813089F0882359F063
:1016C000823091F08430B9F08FE39CE90197F1F713
:1016D00000C00000089582EE0E944B0FF5CF88E114
:1016E00093E00E94BE02F0CF82EE0E944B0F87E58E
:1016F0000E942910E9CF86EE0E94291088E1F8CFD8
:1017000080917702813071F0882341F0823031F08E
:10171000843061F080917B020C94621882EE0E940A
:10172000DA0FF8CF8CE20E942910F4CF88E2FBCFC9
:101730000F931F93CF93DF938C01CCE0D0E0C801CF
:101740000C2E02C0969587950A94E2F78F700E943E
:101750003D040E94BE022497CC3F8FEFD80779F753
:10176000DF91CF911F910F9108950F931F93CF9306
:10177000DF93EC018B01FB018281882361F00E94E1
:101780005218CE01815E9C458530910520F48093EE
:1017900077020E944E0BB801CE01DF91CF911F91CD
:1017A0000F910C94290BAF92BF92CF92DF92EF92E0
:1017B000FF920F931F93CF93DF937C015B01C42FA4
:1017C000D22FFC0182818823F9F04093A8010E9466
:1017D000EF1A9093A7018093A60180E28C0F8830C6
:1017E00008F061C0C77081E001C0880FCA95EAF7B0
:1017F000DF91CF911F910F91FF90EF90DF90CF90ED
:10180000BF90AF900C943C101091A801141340C0ED
:101810008091A6019091A7010E94071B6C01B7015E
:10182000C5010E943315C816D90690F5C0E2CD0F48
:101830001D17B9F080E2810F883040F4177081E005
:1018400001C0880F1A95EAF70E944310C83048F487
:1018500081E09D2F977001C0880F9A95EAF70E944A
:101860003C10802F0E942910C830E8F4D77081E026
:1018700001C0880FDA95EAF7DF91CF911F910F91A0
:10188000FF90EF90DF90CF90BF90AF900C944310FB
:1018900080E28C0F883038F4C77081E001C0880F77
:1018A000CA95EAF7E9CFDF91CF911F910F91FF9091
:1018B000EF90DF90CF90BF90AF9008950F939C0171
:1018C000CB01233F4CE5340759F1A8F4283DFCE552
:1018D0003F0701F1293D4CE53407D1F1273D3C4557
:1018E00091F406E221EE41EE67ED7CE50E94D30B18
:1018F00080E00F910895253FFCE53F07E9F0B0F047
:10190000263F3C45F9F0FC018281882339F1109291
:10191000A801EFCF07E225EE45EE68ED7CE5E6CFC6
:1019200006E221EE40EE63EF7CE5E0CF07E225EE34
:1019300044EE64EF7CE5DACF06E221EE42EE65EF9D
:101940007CE5D4CF07E225EE46EE66EF7CE5CECF10
:1019500008E221E045EE69ED7CE5C8CF81E0C9CF22
:10196000CF93DF93EC01FB018281882309F419C135
:10197000C230FCE5DF07C0F1C6319CE5D90730F085
:101980009E012A5F3C452930310570F50E941D19E2
:101990009093810280938002C031ECE5DE0709F468
:1019A000CFC008F05BC0C8308CE5D80709F4B6C0DA
:1019B00088F5C430ECE5DE0709F4A8C0C0F4C230F5
:1019C0008CE5D80709F49CC0809180028260C33006
:1019D000DC4509F498C080918002909181020E94B8
:1019E0002B190E94B71280E0DF91CF91089580916A
:1019F00080028061C630ECE5DE0709F484C0809186
:101A000080028860C730DC4508F47DC08091800288
:101A1000806279C0CC308CE5D80709F489C070F4B5
:101A2000809180028C60CA30ECE5DE0709F46BC05F
:101A300008F478C0809180028E7F65C0CE308CE53E
:101A4000D80709F479C0809180028B7FCF30DC45C4
:101A500008F459C0809180028F7E55C0CB3FECE5E1
:101A6000DE0709F457C030F5C3318CE5D80709F417
:101A70006FC078F4C131ECE5DE0709F465C0C2310E
:101A8000DC4509F0A8CF0E94B712809180028F77C1
:101A90003AC0C5318CE5D80709F462C008F476C0B5
:101AA000809181028160CA3FDC4509F094CF809328
:101AB000810291CFCF3FFCE5DF0709F44DC088F4E8
:101AC000809181028D7FCD3F9CE5D90781F3809184
:101AD00081028E7FCE3FDC4550F38091810283608E
:101AE000E6CFC130FDE5DF0709F459C008F444C072
:101AF00080E0C230DD4509F06ECF0E94A9196BCF9E
:101B00008091800281608093800265CF8091800205
:101B10008460F9CF809181028260C9CF8091800278
:101B20008064F1CF0E94B712809180028068EBCF71
:101B3000809180028D7FE7CF80918002877FE3CF05
:101B4000809180028F7DDFCF809180028F7BDBCF01
:101B500080918002837FD7CF809181028C7FA7CF35
:101B60008091800282FB992790F921E0922790FBD7
:101B700082F990FB83F9C7CF80918102982F9095CD
:101B800091708E7F892B90FB81F991CF0E94B712C3
:101B900090918002892F97FB87F98058B4CF81E01C
:101BA000ACCF81E021CFCF93DF93EB0186319C4511
:101BB00011F50E9452189A81992399F08A7A91E03E
:101BC00009F490E09093A901811109C089E20E9473
:101BD0002D180E94A11880E0DF91CF91089585E330
:101BE000F6CF8091A901811104C089E20E943418C6
:101BF000F0CF85E3FBCF81E0EFCF9093AF018093EF
:101C0000AE010895E091AE01F091AF01309721F05F
:101C10000190F081E02D099480E00895E091AE01FB
:101C2000F091AF01309799F020910C01222359F0E7
:101C30002091800227FF07C0DC012C9111962C9384
:101C4000119725E02C930280F381E02D09940895EB
:101C50002091AC013091AD012817390771F09093B4
:101C6000AD018093AC01E091AE01F091AF013097EE
:101C700021F00680F781E02D099408952091AA01B2
:101C80003091AB012817390771F09093AB01809325
:101C9000AA01E091AE01F091AF01309721F00084EC
:101CA000F185E02D09940895089508950C94540E3B
:101CB00008950C94580E0E94550E0C94560E81E017
:101CC00008950C945F0E0E94E61A0E94BF060E94BF
:101CD0007B080E94741B0E94E4070C94590E9F928B
:101CE000AF92BF92CF92DF92EF92FF920F931F932A
:101CF000CF93DF93CDB7DEB72A970FB6F894DEBF48
:101D00000FBECDBF0E9420070E94610E882309F4F8
:101D100070C051EBA52E51E0B52E10E000E0902EE2
:101D2000802F0E94B1066C01F501E190F1905F01F6
:101D3000E816F90609F457C08091420281FD0E941D
:101D4000BA0697012C253D2580E0EE24E394F12C82
:101D5000A9014E215F21452B09F43FC08E839F824C
:101D6000CE20DF2081E0CD2809F480E088870E9422
:101D7000EF1A8160782F9A8789874E815F81688505
:101D80008A850E941C0F000F111FF801EF54FE4FAF
:101D900080819181E826F926F182E0820E94F40791
:101DA0000E94020E9091B0018917A1F10E94020ECB
:101DB0008093B0012A960FB6F894DEBF0FBECDBF58
:101DC000DF91CF911F910F91FF90EF90DF90CF9017
:101DD000BF90AF909F900C94AA048F5FEE0CFF1CF5
:101DE0008D3009F0B5CF0F5F1F4F0430110509F09A
:101DF00096CF8FEF89838A831B820E94EF1A8160BE
:101E0000782F9D838C8349815A816B818D810E94BB
:101E10001C0FC4CF2A960FB6F894DEBF0FBECDBFFD
:101E2000DF91CF911F910F91FF90EF90DF90CF90B6
:101E3000BF90AF909F900895CF93DF93CDB7DEB75B
:101E40002B970FB6F894DEBF0FBECDBF4F835887D8
:101E500069877A878B871E821D8285E0FE0137960F
:101E6000DE01119601900D928A95E1F749815A8120
:101E70006B817C818D819E812B960FB6F894DEBF9D
:101E80000FBECDBFDF91CF910C943615FC01808140
:101E900091810C94FF17CF93C82F882309F488C031
:101EA0008238C1F40E94020E81FD82C089E30E9443
:101EB0002D180E94A1182FEF81EE94E02150804050
:101EC0009040E1F700C0000089E30E943418CF91F0
:101ED0000C94A1188338A1F40E94020E80FD68C002
:101EE00083E50E942D180E94A1182FEF81EE94E047
:101EF000215080409040E1F700C0000083E5E5CF2D
:101F00008438A1F40E94020E82FD52C087E40E9430
:101F10002D180E94A1182FEF81EE94E021508040EF
:101F20009040E1F700C0000087E4CFCF8CEF8C0F2A
:101F3000813AB8F48C2F0E94121C811139C06C2F89
:101F400080910001909101010E94C219882329F01B
:101F50008C2F0E9434180E94A1188C2F0E942D18DB
:101F6000B6CF80E28C0F883048F4C77081E001C0A2
:101F7000880FCA95EAF70E945518A9CFEBE5EC0F38
:101F8000E33040F4F0E0E357FE4F808190E0CF91E2
:101F90000C94280EC85AC73158F4EC2FF0E0EE0F1D
:101FA000FF1FE15AFE4F80819181CF910C943E0E2C
:101FB000CF910895882309F44BC0823871F40E94B0
:101FC000020E81FF45C089E30E942D180E94A118CE
:101FD00089E30E9434180C94A118833859F40E94A4
:101FE000020E80FF35C083E50E942D180E94A118C3
:101FF00083E5EFCF843859F40E94020E82FF28C097
:1020000087E40E942D180E94A11887E4E2CF9CEF7C
:10201000980F913AF0F290E2980F983050F4877050
:1020200091E001C0990F8A95EAF7892F0E945B1809
:10203000D2CF9BE5980F933020F490E080E00C9491
:10204000280E885A873120F490E080E00C943E0EF0
:102050000895CF93C82F0E944B0FC93349F42FEF37
:1020600087EE93E0215080409040E1F700C00000EF
:102070008C2FCF910C94DA0F882321F00E945518F1
:102080000C94A1180895882321F00E945B180C94E9
:10209000A1180895BF92CF92DF92EF92FF920F9313
:1020A0001F93CF93DF936C01D62FC72FFC010581BF
:1020B00002950F70128111110E9475180E944B1821
:1020C000E82E882391F01123D1F08C2F807F80346B
:1020D00021F080E28D0F883090F082E00E94EC18B1
:1020E0000E944B1891E0E82EE926BC2EB2949FE0A6
:1020F000B922EB2DF0E0E054FC4D0C945C23E12C74
:10210000F4CF0C2F0F70C07F11F00295007F1123C8
:10211000A9F0002359F080E28D0F883010F0D11122
:1021200009C0802F0E9455180E94A1188D2F0E946F
:102130004B0F14C0802F0E946818F6CF8D2F0E947D
:10214000DA0F002359F080E28D0F883010F0D111A2
:102150002CC0802F0E945B180E94A1182B2D2850A4
:10216000330B2430310520F40E94020E0E94AA0491
:10217000EE2009F493C10E94471880FD8FC1F6013B
:1021800012820E9441180E94BE16C6010E946F1260
:102190000E944118DF91CF911F910F91FF90EF9016
:1021A000DF90CF90BF900C94DF16802F0E946E18A6
:1021B000D3CFFC2FFF70FF2EC07FC03219F0F294F6
:1021C00080EFF822DD2369F0D13049F1112391F13C
:1021D000002351F1F601858180FFA8CF8F708583A0
:1021E00023C0112381F0011106C00E9488188F2995
:1021F0000E943C10B3CF0130C1F70E9488188F298C
:102200000E948E18ABCF011106C00E9497188F2D27
:102210000E944310A3CF013009F4A0CFF6CF1123C1
:1022200029F0033008F09ACF8F2DE2CF023008F06A
:1022300095CFEDCF002359F3D93349F4FFEF27EEC3
:1022400033E0F15020403040E1F700C000008D2F16
:102250000E94DA0F83CF8C2F86958695837069F064
:10226000813009F07BCF8D2F9C2F9370111102C00C
:1022700090E080E00E943E0E71CF8D2F9C2F9370D6
:10228000111102C090E080E00E94280E67CF8C2FD1
:10229000837009F041C0111161CF4D2F42954695D1
:1022A0004770440F440F0D2F0F7010E030E020E016
:1022B000042E04C0000F111F221F331F0A94D2F7EF
:1022C00060E070E0CB01D4FF0FC06FE070E080E011
:1022D00090E004C0660F771F881F991F4A95D2F7B8
:1022E0006095709580959095C695C695C370602B46
:1022F000712B822B932BC23049F058F4C13019F066
:102300000E9470162BCF0E945E1628CF0E94821664
:1023100025CF0E945C1622CF8695112311F08C2FB9
:102320008170882309F41ACF4D2F42954695477046
:10233000440F440F0D2F0F7010E030E020E0042E0A
:1023400004C0000F111F221F331F0A94D2F760E050
:1023500070E0CB01D4FF0FC06FE070E080E090E050
:1023600004C0660F771F881F991F4A95D2F76095A2
:10237000709580959095C695C695C370602B712B0E
:10238000822B932BC23049F058F4C13019F00E94CF
:102390003517E4CE0E942317E1CE0E944717DECE08
:1023A0000E949816DBCECF70112329F08C2F0E944B
:1023B000BE168D2F1DCF8D2F0E9443108C2F0E9493
:1023C000DF16CCCED23F89F160F4D03FC9F0D13FC7
:1023D00029F1112309F442C00111A8CE8C2F8F716D
:1023E00021C0D33F39F1D43FA1F7112369F1CF7157
:1023F0008C2F0E94BE1663E08C2F0E94D718AECEA1
:10240000112341F0023008F0A9CE8C2F8F710E9469
:102410000217A4CE033008F0A1CEF7CF8C2F8F7116
:10242000112369F20E94BE1699CE8C2F8F71112351
:10243000C9F3C5CF112329F08C2F8F710E94A916E3
:102440008DCE0E94A4168ACE81E00E94EC18023044
:1024500008F484CE82E00E94EC1880CE002359F06C
:10246000D93309F0F4CE8FEF97EEE3E0815090403E
:10247000E040E1F7EACE8C2F8F71A1CF4C2F4F7047
:102480006D2FC6010E94B2040E94D41567CE4C2F56
:102490004F706D2FC6010E94B50460CEDF91CF91C1
:1024A0001F910F91FF90EF90DF90CF90BF90089514
:1024B0000F931F93CF93DF93EC01688179818A8119
:1024C0000E9409188C010E9459170E945B16B801DE
:1024D000CE01DF91CF911F910F910C944A10CF93B1
:1024E000DF93EC018B819C81892B29F08881998174
:1024F00089238F3F59F4DF91CF910895CE010E9437
:102500005812CE01DF91CF910C940D03CE010E94A1
:102510005B048111F3CF0E944B18882361F38A81F9
:10252000882349F382E0DF91CF910C94EC18882343
:1025300021F00E9468180C94A1180895882321F0B6
:102540000E946E180C94A11808950E9475180E949C
:1025500085180E94A11890E080E00E94280E90E06B
:1025600080E00C943E0E0E943B180C94A5120E9431
:1025700065180C94B312E92FE295EF70E250EE303B
:1025800070F4F0E0E053FC4D0C945C23803F19F0B4
:1025900020F4883E20F481E00895843FE1F380E058
:1025A0000895883EC0F3813FD1F7F5CF93FB88278C
:1025B00080F908950E94FF170C94BB12CF93DF930C
:1025C00000D000D00F92CDB7DEB70F900F900F90D4
:1025D0000F900F90DF91CF910895CF93DF9300D0AC
:1025E00000D000D0CDB7DEB726960FB6F894DEBF88
:1025F0000FBECDBFDF91CF910895CF93DF93C091F0
:10260000BA018091BB018C1303C0DF91CF91089573
:10261000D0E0CE0166E070E00E944B23FC01E45460
:10262000FE4F4081518162817381848195810E9436
:10263000ED122196C770E5CF4091EC015091ED016C
:102640006091EE017091EF018091F0019091F101A4
:102650000C94ED121F93CF93DF938091F101807F53
:10266000A1F48091EE01882381F02091BA01B0910C
:10267000BB014091EC01A091ED01C091EF01D0911F
:10268000F001142F1A23B21304C0DF91CF911F91D0
:10269000089530E0209711F01F3F21F42F5F3F4F46
:1026A0002770F1CFC90166E070E00E944B23FC0166
:1026B000E454FE4F81818A13F1CF80818413EECFE1
:1026C00082818111EBCF838194818C1B9D0B883C8F
:1026D000910520F78091F1018F7080618093F10165
:1026E000C90166E070E00E944B23FC01EF53FE4FEE
:1026F00090819F70906190838CEE91E00E946F12A8
:10270000DF91CF911F910C94FD12AF92BF92CF92A7
:10271000DF92EF92FF920F931F93CF93DF93CDB78A
:10272000DEB761970FB6F894DEBF0FBECDBF8C0148
:1027300085E0F801DE011D9601900D928A95E1F782
:10274000F80140812181E2808CEEC82E81E0D82EF4
:102750006091EF017091F0016115710509F464C198
:102760009091EC013091ED01892F83238F3F09F483
:102770005BC1A380B480F090EE01F501E61BF70B7E
:10278000FF2009F4FEC08091F101582F507FE83CF2
:10279000F10508F0B3C051117AC0FE2C321323C0EA
:1027A000941321C0E1101FC08F7080618093F101EC
:1027B0000E941C13C6010E946F128091F101F80162
:1027C00085838F2D61960FB6F894DEBF0FBECDBF07
:1027D000DF91CF911F910F91FF90EF90DF90CF90FD
:1027E000BF90AF900895AB2829F0842F82238F3FAC
:1027F00009F036C180E0F82FF170DF2EE091BA01C8
:102800003091BB0180FD20C0EE20D9F28091F10112
:1028100081608093F101F12CD4CFF0E0CF0166E02C
:1028200070E00E944B23DC01A454BE4F11968C91A2
:102830001197821307C08C91841304C012968C9157
:102840008E11E2CF3196E770E313E7CF4D872E87E5
:102850008D859E850E94FF17292F22952F7022308B
:1028600050F0243078F49F7051F0F8019581907FFA
:1028700031F4D12C0AC09F7011F08823D1F3805E0F
:102880008830B8F3C8010E946F12FD2C9ACF321322
:1028900006C0941304C0F801EE2009F48EC04D87E1
:1028A0002E878D859E850E94DA12882319F1EE20ED
:1028B00009F18091F101803270F02091EC013091AA
:1028C000ED0138872F831986BB86AA868C87CE01B7
:1028D00007960E946F1286E0F801ACEEB1E001901D
:1028E0000D928A95E1F70E942A130E941C13FF247F
:1028F000F39467CFC8010E946F12F9CF511114C031
:102900007A2DB98AA88A522F6E2D89890E94DE12EB
:102910008CEE91E00E946F1286E0F60111928A958A
:10292000E9F70E941C1377CF32130FC094130DC028
:10293000E1100BC0F8018583C8010E946F1286E088
:10294000F60111928A95E9F73CCF4D872E878D8548
:102950009E850E94DA12882369F2EE2059F2809156
:10296000F101803208F4B7CF2091EC013091ED01F4
:102970003A8329831B82BD82AC828E83CE0101966D
:10298000A8CFE83CF10508F041C0FE2CEE2009F488
:10299000B1CF32132AC0941328C08091F10180FD79
:1029A0001BC0982F907FC1F0F8018583903F31F0D4
:1029B000982F907F905F8F70892B8583C8010E942C
:1029C0006F1286E0F801ACEEB1E001900D928A95AD
:1029D000E1F70E941C13F5CE86E0F801ACEEB1E001
:1029E00001900D928A95E1F7ECCE4D872E878D856B
:1029F0009E850E94DA1281116ECF8091F101816073
:102A00008093F101C8010E946F12DBCE7A2DB98A42
:102A1000A88A522F6E2D89890E94DE1286E0F60167
:102A200011928A95E9F7D5CFEE2009F463CF4D874F
:102A30002E878D859E850E94DA12F82E882309F450
:102A400059CF86E0F801ACEEB1E001900D928A9585
:102A5000E1F78CEE91E00E94460F0E942A13B9CF55
:102A600081E08E25C8CE88EC90E00895CF93DF9367
:102A7000CDB7DEB72C970FB6F894DEBF0FBECDBF33
:102A80004F83588769877A878B879C87CE01079603
:102A90000E9485138823D1F08A859B85892B39F084
:102AA0004F815885842F85238F3F09F076C0809110
:102AB000BA019091BB01891349C02C960FB6F894C6
:102AC000DEBF0FBECDBFDF91CF91089586E0FE013E
:102AD0003796DE01119601900D928A95E1F78A856D
:102AE0009B85892B21F38F81988589238F3FF9F26C
:102AF0008091BB0190E09C012F5F3F4F27703327EF
:102B00004091BA014217130671F40E94B712109255
:102B1000BB011092BA0186E0ECEEF1E0DF011D92FC
:102B20008A95E9F7C4CF66E070E00E944B23DC0190
:102B3000A454BE4F96E0FE01319601900D929A95F5
:102B4000E1F72093BB010E94FD12B1CF90E066E057
:102B500070E00E944B2384549E4F0E94851388236B
:102B600009F4ABCF8091BA0190E066E070E00E947A
:102B70004B23FC01E454FE4F4081518162817381FB
:102B8000848195810E94ED128091BA0190E00196B6
:102B9000877099278093BA018ACF69857A858B855A
:102BA0009C850E94ED1283CFEF92FF920F931F93AB
:102BB000CF93DF938C01892B81F0F12CEE24E394E9
:102BC000E8012196F8018491843770F4843008F08C
:102BD0005FC08130B1F08230A1F1DF91CF911F91C0
:102BE0000F91FF90EF900895853709F44CC008F4D9
:102BF0003DC09CE7980F903780F78F770E94DA0FDF
:102C000049C00E5F1F4FFE01849190E2980F9830EB
:102C100060F48770FE2D01C0FF0F8A95EAF78F2FB1
:102C20000E9478180E94A11802C00E944B0F8F2D9D
:102C3000815030F2EFE9FFE03197F1F700C000007A
:102C4000F7CF0E5F1F4FFE01849190E2980F9830EE
:102C500050F48770FE2D01C0FF0F8A95EAF78F2F81
:102C60000E947E18DFCF0E94DA0FE1CF0E5F1F4F68
:102C7000FE01C491C150D8F28FE99FE00197F1F7AE
:102C800000C00000F7CF0E5F1F4FFE01F490CFCFC2
:102C90000E944B0F8E01CBCF08950C944C160E94CE
:102CA0004D166093190270931A0280931B02909341
:102CB0001C020C94A51208950C944F160F931F93A9
:102CC0000091190210911A0220911B0230911C02EE
:102CD000602B712B822B932B1F910F910C944F160D
:102CE0000F931F930091190210911A0220911B0259
:102CF00030911C0260237123822393231F910F9133
:102D00000C944F160F931F930091190210911A0201
:102D100020911B0230911C02602771278227932784
:102D20001F910F910C944F160C944C160C94941602
:102D30000E949616609315027093160280931702F4
:102D4000909318020C94A51260E070E0CB010C94F3
:102D500098160F931F9341E050E060E070E08A0105
:102D60009B0104C0000F111F221F331F8A95D2F749
:102D7000C901B8011F910F910C9498160F931F93DE
:102D800041E050E060E070E004C0440F551F661F52
:102D9000771F8A95D2F78091150290911602A09123
:102DA0001702B09118028A019B01082B192B2A2BBC
:102DB0003B2BC901B8011F910F910C9498160F93EA
:102DC0001F9341E050E060E070E004C0440F551FE5
:102DD000661F771F8A95D2F7CB01BA01609570956F
:102DE000809590950091150210911602209117027E
:102DF0003091180260237123822393231F910F9136
:102E00000C9498160F931F9341E050E060E070E03F
:102E100004C0440F551F661F771F8A95D2F7809113
:102E2000150290911602A0911702B09118028A0122
:102E30009B01082719272A273B27C901B8011F91A1
:102E40000F910C9498160F931F93009115021091F7
:102E500016022091170230911802602B712B822BE1
:102E6000932B1F910F910C9498160F931F93009121
:102E7000150210911602209117023091180260235A
:102E80007123822393231F910F910C9498160F9313
:102E90001F93009115021091160220911702309194
:102EA000180260277127822793271F910F910C9496
:102EB00098160895CF93DF93282F362F892F6DE032
:102EC0000E944223820F982F9770E1E001C0EE0F1D
:102ED0009A95EAF786958695869590E065E070E08C
:102EE0000E944B23DC01AE50BE4F50E040E0632F08
:102EF00070E08D91ED0121979B01042E02C0369563
:102F000027950A94E2F72170219528272E23282758
:102F100028834F5F5F4F4530510559F7DF91CF91BF
:102F20000895282F892F6DE00E944223820FA82F39
:102F3000A77086958695869590E065E070E00E9482
:102F40004B23FC01EE50FE4F50E040E080E0219129
:102F500030E00A2E02C0369527950A94E2F72170D8
:102F60003327042E01C0220F0A94EAF7822B4F5F09
:102F70005F4F4530510559F70895BF92CF92DF92C8
:102F8000EF92FF920F931F93CF93DF938C01C0902A
:102F90001502D0901602E0901702F090180280916E
:102FA000190290911A02A0911B02B0911C02C82A2A
:102FB000D92AEA2AFB2ACFE1D0E0BC2ED701C601EC
:102FC0000C2E04C0B695A795979587950A94D2F7CD
:102FD00080FD0EC0219788F7B12C8B2DDF91CF910A
:102FE0001F910F91FF90EF90DF90CF90BF900895C9
:102FF000B8018C2F0E94BE04019761F3EECFCF93EE
:10300000DF93EC010E94BD17BE01DF91CF910C94BC
:10301000BE041F93CF93DF93EB019091B9019923E5
:1030200031F0CB01DF91CF911F910C94FF178823D2
:1030300079F0CB010E94BD17182F682FCE010E9496
:103040005A17BE01812FDF91CF911F910C94BE04BE
:10305000CB010E949117182FF4CF682F80910001A7
:10306000909101010C94421A682F80910001909177
:1030700001010C944D1A80910001909101010C9472
:10308000581A80911D0285958595859508958091A2
:103090001D028770089590911D02977081E009F4D8
:1030A00080E0089580914102089590914102892B1A
:1030B00080934102089580959091410298239093C6
:1030C00041020895809341020895109241020895AB
:1030D00090914002892B80934002089580959091B1
:1030E0004002982390934002089510924002089560
:1030F00090913F02892B80933F0208958095909193
:103100003F02982390933F02089510923F02089542
:1031100080911E02089508950C948B1890911E02C0
:10312000981721F080931E020C948C1808958091BA
:103130001E02882329F010921E0280E00C948C1845
:103140000895E0910001F091010180914102808396
:10315000E0910001F0910101808190914002892B62
:103160008083E0910001F0910101808190913F0204
:10317000892B808390911E02992381F0E0910001B8
:10318000F09101018081892B8083809100019091D1
:1031900001010E94AE1981110E94971880910001CF
:1031A000909101010C940E0E08950C94D418982F50
:1031B000990F990F990F962B90931D020E94BE169E
:1031C00080911D028595859585950C94D518109252
:1031D0001D0280E00C94D51890911D0280958923E2
:1031E00080931D02282F277071F4282F082E000CC1
:1031F000330B9217130639F08595859585950E94B6
:10320000DF160C94E71808956FEF7FEF90E080E0F1
:103210000C94952390E080E00E94712321E08C3E85
:103220009E4F09F020E0822F089582E090E00C94F8
:10323000692383E090E00C946923CF9384E090E0CD
:103240000E946923C82F81E290E00E946923982F91
:103250008C2FCF910895CF93C92F682F84E090E0F1
:103260000E9477236C2F81E290E0CF910C9477231A
:10327000AB01BC018FE090E00C948923AB01BC0151
:1032800083E190E00C94892360E070E0CB010C9422
:103290003E1960E070E0CB010E9438190C9444198B
:1032A0006CEE7EEF90E080E00E94952360E082E08B
:1032B00090E00E94772360E083E090E00E94772313
:1032C0001092190210921A0210921B0210921C0204
:1032D00060E084E090E00E94772360E081E290E08B
:1032E0000E94772360E085E090E00E94772360E011
:1032F00086E090E00E9477236FEF87E090E00E94E5
:10330000772340E050E0BA0188E090E00E948923F2
:1033100060E08DE090E00E94772340E050E0BA0149
:1033200088E190E00E94892360E087E190E00E94BC
:10333000772340E050E0BA018CE190E00E948923BD
:1033400060E080E290E00E9477230C9449190C948D
:103350005019682F8EE090E00C947723FC01329690
:1033600080910C01882321F0809180029EE187FFEB
:1033700096E080E0915008F4089521912223D1F342
:103380008F5FF8CF662301F120910C012223F1F029
:103390002091800227FF1AC0462F469546954695F4
:1033A0004E3190F4677021E030E002C0220F331FED
:1033B0006A95E2F7840F911DFC01828190E0282339
:1033C000392381E0232B69F480E00895FC013296D3
:1033D00008962191261721F0E817F907D1F7F4CFC5
:1033E00081E008959C01FC0132969FEF80E04191BD
:1033F000461751F09F3F19F4411101C0982F8F5F7C
:103400008630A9F79F3F09F40895290F311D97FDD4
:103410003A95F90162830895FC013296089621914C
:10342000261303C0DF0111971C92E817F907B9F7BB
:103430000895E62FE695E695E695EE3168F4E80FF7
:10344000F92FF11D677021E030E001C0220F6A956D
:10345000EAF78281822B82830895E62FE695E6952E
:10346000E695EE3170F4E80FF92FF11D677021E059
:1034700030E001C0220F6A95EAF720958281282367
:103480002283089520910C01222329F020918002AB
:1034900027FD0C94191A0C94F21920910C01222387
:1034A00029F02091800227FD0C942D1A0C940C1AFF
:1034B000FC01329680910C01882351F080918002AA
:1034C00087FF06C08EE1DF011D928A95E9F7089516
:1034D00086E0F9CF089508950C946B1A0E946C1A37
:1034E00080918602843049F11092430288E190E095
:1034F00020E40FB6F894A895809360000FBE209347
:10350000600080E00E94AA040E946C1A83B7817F49
:10351000846083BF83B7816083BF7894889583B7C5
:103520008E7F83BF0FB6F894A89580916000886164
:1035300080936000109260000FBE08950895CF93AD
:103540000E946A1A0E9420070E949E1AC0E08C2FD7
:103550000E94B106892B31F4CF5FC430C1F780E0FF
:10356000CF91089581E0FCCF08950C94B41A0E9485
:10357000B7120E94020E0E94AA040C94B51A1F9260
:103580001FB61F9211248F939F93AF93BF93809187
:103590004302811113C080917C0290917D02A09121
:1035A0007E02B0917F024196A11DB11D80937C02E5
:1035B00090937D02A0937E02B0937F02BF91AF9162
:1035C0009F918F911F901FBE1F90189582E084BD20
:1035D00093E095BD9AEF97BD80936E0008952FB745
:1035E000F89480917C0290917D02A0917E02B0912E
:1035F0007F022FBF08952FB7F89460917C027091DD
:103600007D0280917E0290917F022FBF08959C01E0
:103610004FB7F89480917C0290917D02A0917E0238
:10362000B0917F024FBF821B930B089578941F9235
:103630001FB61F9211248F939F93AF93BF938091D6
:103640007C0290917D02A0917E02B0917F02019652
:10365000A11DB11D80937C0290937D02A0937E02F8
:10366000B0937F02BF91AF919F918F911F901FBE2A
:103670001F90189581E08093E00080E28093D8004D
:103680001092C9008FE19EE40197F1F700C000009D
:1036900087E090EBDC0180938F0290939002A093DF
:1036A0009102B093920288E19CE00FB6F894A8953D
:1036B000809360000FBE90936000FFCF0C94680869
:1036C0000E9420078FE39CE90197F1F700C00000FA
:1036D0000E94200780E00E94B10680FF04C00E9483
:1036E0005E1B0C943A1B08950E940A19811102C0B6
:1036F0000E94A7190E941519809342020E941D1969
:1037000090938102809380020E941919682F70E0C3
:1037100090E080E00E945C166091150270911602A4
:1037200080911702909118020C9496160F931F9394
:1037300041E050E060E070E08A019B0104C0000FAE
:10374000111F221F331F8A95D2F7C901B8010E94A9
:103750005C161F910F910C94B712EBEFE80FEF334B
:1037600008F05AC0F0E0E252FC4D0C945C230E9439
:10377000A71981E0089580914202807F80934202E0
:1037800081E08093440208950E944C04F2CF90910E
:103790004202892F8E7F90FF81608093420280FDDC
:1037A000E8CF817F80934202E4CF90914202892F3B
:1037B0008D7F91FF82608093420281FFDACF8091FA
:1037C00042028160EFCF90914202892F8B7F92FF5E
:1037D00084608093420282FDF2CFCBCF909142026F
:1037E000892F877F93FF88608093420283FDE7CF14
:1037F000C0CF0E94B71290918002892F97FB87F962
:10380000805880938002B5CF80E00E94961BB1CF94
:103810008953FBCF8D51F9CF80E0089580E0089562
:103820000C940E1CCF93C82F80914402882331F052
:10383000813099F01092440280E00DC00E9452182D
:103840008232D1F78C2F0E940E1C811116C08C2F52
:103850000E94AD1B8170CF9108950E945218823250
:1038600089F38C2F0E94101C811105C0C43171F0A6
:1038700038F4CB3079F781E0EDCF81E090E0EACF0A
:10388000C93221F0C833B9F380E0E4CF109244028A
:10389000FBCF8091650208950895CF93DF9300D008
:1038A0000F92CDB7DEB790918602943011F58983DF
:1038B0007B836A839093E9008FEF9091E8008150B9
:1038C00095FD06C095ED9A95F1F700008111F5CFB1
:1038D0008091E80085FF0DC050E040E063E070E0BB
:1038E000CE0101960E94A11E8091E8008E77809300
:1038F000E8000F900F900F90DF91CF910895BC01D9
:1039000084E00C944D1CBC0183E00C944D1CCF93BF
:10391000DF93EC0180910C018823B1F1809180024A
:1039200087FF32C060E284E08093E9008FEF9091DE
:10393000E800815095FD06C095ED9A95F1F70000DD
:103940008111F5CF8091E80085FF1BC080910C01AB
:1039500070E050E040E0811104C050E040E068E0D9
:1039600070E0CE010E94A11E8091E8008E778093C6
:10397000E80080E2FE01A5E4B2E001900D928A9594
:10398000E1F7DF91CF91089568E081E0CDCFCF934B
:10399000FC01603221F580918602843001F5C091EE
:1039A000E900CF702091EC00922F917020FD90E8FB
:1039B000C92B82E08093E9008091E80080FF0CC071
:1039C00050E040E060E270E0CF010E94A11E8091D3
:1039D000E8008E778093E800CF70C093E900CF9124
:1039E0000895089508950C94B71A42E061EC81E0BF
:1039F0000E94F81F42E261EC84E00E94F81F42E25C
:103A000061EC82E00E94F81F42E260EC83E00C94DB
:103A1000F81F80918802833009F45FC030F4813050
:103A2000C1F1823009F49BC008958A3009F487C03F
:103A30008B3009F46DC0893009F04EC08091870247
:103A4000813209F049C080918B0290918C020097DD
:103A500019F0029709F040C08091E800877F8093B9
:103A6000E8008091E80082FF33C08091F20082304C
:103A700029F48091F1008B7F813021F48091F10055
:103A8000809365028091E8008B778093E8000C9426
:103A90002C2080918702813AF9F48091E800877F99
:103AA0008093E80080918B0290918C02892B61F4C5
:103AB00060E285E492E070E00E943F1F8091E800A0
:103AC0008B778093E800089560E090E080E0F3CF8A
:103AD000809186028111C5CF089580918702813A35
:103AE000D9F780918B0290918C02892BA9F7809154
:103AF000E800877F8093E8008091E80080FFFCCF9A
:103B000080910C018093F1008091E8008E77BDCF09
:103B100080918702813201F780918B0290918C0213
:103B2000892BD1F68091E800877F8093E8000E947E
:103B30002C208091890280930C010C94B712809103
:103B40008702813249F68091E800877F8093E80000
:103B50000E942C2080918A028093660208958091B1
:103B60008702813A09F0B8CF8091E800877F80937F
:103B7000E8008091E80080FFFCCF80916602C2CF10
:103B8000CDB7DEB7A0970FB6F894DEBF0FBECDBF9E
:103B900084B7877F84BF0FB6F894A89580916000A2
:103BA000886180936000109260000FBE80E890E012
:103BB0000FB6F89480936100909361000FBE0E944D
:103BC0005B0E0E947C200E94CF208091E2008460E6
:103BD0008093E20078940E9427230E94630E82E083
:103BE00091E00E94FD0D13E080918602853039F14D
:103BF0000E946F0E809186028430B1F71093E90025
:103C00008091E80082FFF0CF8091E80090E085FF8E
:103C100009C050E040E060E270E0CE0101960E94F1
:103C2000F01E91E08091E8008B778093E800992363
:103C3000D9F260E2CE0101960E94CA08D5CF0E9457
:103C40006E1A80918402882379F20E949F1A882339
:103C500059F20E948B1EC8CF0C942E1E292F332799
:103C60002330310521F168F42130310509F449C0D0
:103C70002230310509F44AC090E080E030E020E0D5
:103C800029C02132310581F122323105A9F7633093
:103C9000710590F7FB01EE0FFF1FED56FE4F2081DF
:103CA000318160577E4FFB01808190E013C09927DE
:103CB0008130910599F0009741F08230910589F0AB
:103CC0000397D1F6E4EBF2E002C0E8EEF2E0849173
:103CD00090E09F01FA01318320830895ECEDF2E03A
:103CE000F6CFEAEBF2E0F3CF6330710528F6660F0A
:103CF000771FFB01E756FE4F2081318189E090E07C
:103D0000E9CF82E190E027E433E0E4CF8BE590E077
:103D10002CEE32E0DFCF84E089BD86E089BD09B4B6
:103D200000FEFDCF8091D8008F7D8093D8008091D8
:103D3000E00082608093E0008091E00081FDFCCF94
:103D40000895AF92BF92CF92DF92FF920F931F938D
:103D5000CF93DF936C01EB018A010E944B20F82E78
:103D6000811123C00115110539F0F801808191817D
:103D7000C81BD90BC80ED91EB12CA12C2097A9F0B5
:103D80008091E80085FD22C08091E8008E778093C5
:103D9000E80001151105A1F0F80180819181A80EBC
:103DA000B91EB182A08285E0F82E8F2DDF91CF91D0
:103DB0001F910F91FF90DF90CF90BF90AF9008952B
:103DC0000E944B208823D1F2F82EEFCFF60181918B
:103DD0006F018093F1002197FFEFAF1ABF0ACECF9A
:103DE000AF92BF92CF92DF92FF920F931F93CF9328
:103DF000DF936C01EB018A010E944B20F82E8111A8
:103E000023C00115110539F0F80180819181C81B8B
:103E1000D90BC80ED91EB12CA12C2097A9F08091E6
:103E2000E80085FD22C08091E8008B778093E80050
:103E300001151105A1F0F80180819181A80EB91E2C
:103E4000B182A08285E0F82E8F2DDF91CF911F9156
:103E50000F91FF90DF90CF90BF90AF9008950E9498
:103E60004B208823D1F2F82EEFCF8091F100F6019C
:103E700081936F012197FFEFAF1ABF0ACECFFC01EC
:103E800080918D0290918E0286179707A0F06115A0
:103E9000710529F49091E8009E779093E80090E0F6
:103EA0006115710551F4911108C08091E80082FFFD
:103EB00032C080E00895BC01F2CF80918602882351
:103EC000B1F18530B1F18091E80083FD2EC0809181
:103ED000E80082FDEACF8091E80080FFE1CF2091E9
:103EE000F20030E06115710519F02830310558F005
:103EF00091E02830310509F090E02091E8002E771C
:103F00002093E800CDCF81918093F1006150710939
:103F10002F5F3F4FE7CF80918602882341F08530A5
:103F200041F08091E80083FFC0CF81E0089582E0F6
:103F3000089583E00895FC0180918D0290918E0296
:103F400086179707A0F06115710529F48091E800A4
:103F50008E778093E80090E06115710551F491111E
:103F600008C08091E80082FF33C080E00895BC0162
:103F7000F2CF809186028823B9F18530B9F1809122
:103F8000E80083FD2FC08091E80082FDEACF809198
:103F9000E80080FFE1CF2091F20030E0611571056B
:103FA00019F02830310558F091E02830310509F03A
:103FB00090E08091E8008E778093E800CDCF8491E7
:103FC0008093F1003196615071092F5F3F4FE6CF2A
:103FD00080918602882341F0853041F08091E8008D
:103FE00083FFBFCF81E0089582E0089583E00895C4
:103FF000982F953028F08F708093E90081E0089524
:104000009093E900242F762F50E0981731F07091AB
:10401000EC002091ED005091F00021FD02C09F5F67
:10402000E8CF3091EB003E7F3093EB003091ED0014
:104030003D7F3093ED003091EB0031603093EB0029
:104040007093EC002093ED005093F0002091EE006F
:1040500027FDE5CF80E008958091870287FF13C098
:104060008091E80082FF06C08091E8008B77809302
:10407000E80004C0809186028111F2CF08958091FA
:1040800086028823D9F38091E80080FFF8CF8091E1
:10409000E8008E77ECCF2091E4003091E50095E6C2
:1040A000A9012091EC00822F817020FF06C0809131
:1040B000E80080FF06C080E008952091E80022FD1E
:1040C0001AC080918602882389F0853089F080911A
:1040D000EB0085FD0FC02091E4003091E500421710
:1040E0005307F9F29150E1F684E0089582E00895D3
:1040F00083E0089581E008950E94D9200E94DC2089
:10410000E0EEF0E0808181608083E8EDF0E0808186
:104110008F77808319BCE3E6F0E080818160808343
:104120001092850208950E94D9200E94DC2080917F
:10413000D8008F778093D8008091D80080688093D2
:10414000D8008091D8008F7D8093D80084E089BD0D
:1041500086E089BD09B400FEFDCF10928602109260
:104160008202109284021092830242E060E080E0BA
:104170000E94F81F8091E1008E7F8093E100809182
:10418000E20081608093E2008091E2008860809389
:10419000E2008091E0008E7F8093E0000895E3E6E6
:1041A000F0E080818E7F808381E0809385020C9493
:1041B00093201092E20008951092E10008951F925A
:1041C0000F920FB60F9211242F933F934F935F934B
:1041D0006F937F938F939F93AF93BF93EF93FF93CF
:1041E0008091E10082FF0BC08091E20082FF07C056
:1041F0008091E1008B7F8093E1000E9426238091D3
:10420000E10080FF19C08091E20080FF15C080911D
:10421000E2008E7F8093E2008091E20080618093D3
:10422000E2008091D80080628093D80019BC85E0BC
:10423000809386020E94F21C8091E10084FF2BC0D3
:104240008091E20084FF27C084E089BD86E089BDBB
:1042500089B5982F917080FFFBCF8091D8008F7D1A
:104260008093D8008091E1008F7E8093E10080915F
:10427000E2008F7E8093E2008091E2008160809373
:10428000E20080918202882309F443C084E0809395
:1042900086020E94F31C8091E10083FF29C0809177
:1042A000E20083FF25C08091E100877F8093E100D9
:1042B00082E080938602109282028091E1008E7FDC
:1042C0008093E1008091E2008E7F8093E2008091F4
:1042D000E20080618093E20042E060E080E00E94C2
:1042E000F81F8091F00088608093F0000E94F11C1C
:1042F000FF91EF91BF91AF919F918F917F916F91BE
:104300005F914F913F912F910F900FBE0F901F9093
:1043100018958091E30087FD93E090938602B9CFD2
:104320001F920F920FB60F9211242F933F934F932A
:104330005F936F937F938F939F93AF93BF93CF932D
:10434000DF93EF93FF93D091E900DF708091EC0051
:10435000C82FC17080FDC0E81092E9008091F00084
:10436000877F8093F00078940E94D4211092E90016
:104370008091F00088608093F000CD2BCF70C093C7
:10438000E900FF91EF91DF91CF91BF91AF919F91A4
:104390008F917F916F915F914F913F912F910F90EE
:1043A0000FBE0F901F9018951F93CF93DF93CDB73B
:1043B000DEB7AA970FB6F894DEBF0FBECDBF87E871
:1043C00092E02091F100FC012193CF01F2E08F38BF
:1043D0009F07B9F70E94091D8091E80083FF1EC165
:1043E00080918702909188029A3008F017C1E92FD6
:1043F000F0E0E35EFB4D0C945C23803899F082384A
:1044000009F00CC180918B028F70853008F006C1D5
:104410008093E9008091EB0085FB882780F910925A
:10442000E90006C08091830290918402911182601C
:104430009091E800977F9093E8008093F1001092AC
:10444000F1008091E8008E77E5C0882309F4D3C09D
:10445000823009F0E3C0809189028111D6C0809139
:104460008B028F702FEF280F243008F0D7C0809375
:10447000E9002091EB0020FFC8C0933031F4809117
:10448000EB0080628093EB00C0C09091EB009061E4
:104490009093EB0021E030E001C0220F8A95EAF70B
:1044A0002093EA001092EA008091EB008860EACF46
:1044B0008111B4C0109189021F778091E300807848
:1044C000812B8093E3008091E800877F8093E80050
:1044D0000E942C208091E80080FFFCCF8091E300B7
:1044E00080688093E30082E0111183E0809386026C
:1044F00095C08058823008F091C0809189029091D7
:104500008A028C3D23E09207A1F583E08A838AE248
:1045100089834FB7F894DE01139620E03EE051E224
:10452000E32FF0E050935700E49120FF03C0E295A1
:10453000EF703F5FEF708E2F90E0EA30C0F0C796CB
:104540008D939D932F5F243159F74FBF8091E800E1
:10455000877F8093E8006AE270E0CE0101960E94B6
:104560003F1F8091E8008B778093E80057C0C0968A
:10457000E7CF60918B0270918C02AE014F5F5F4F6D
:104580000E942C1EBC01892B09F448C09091E800C0
:10459000977F9093E80089819A810E949B1FE1CFC9
:1045A0008038E1F58091E800877F8093E800809172
:1045B00082028093F10045CF811130C09091890231
:1045C000923060F58091E800877F8093E8009093B7
:1045D00082020E942C2080918202882311F084E0C4
:1045E00005C08091E30087FDFACF81E080938602C9
:1045F0000E94F51C13C080918902813079F481E01A
:10460000933009F080E0809384021092E900809159
:10461000E800877F8093E8000E942C208091E800CA
:1046200083FF0AC08091E800877F8093E800809133
:10463000EB0080628093EB00AA960FB6F894DEBF81
:104640000FBECDBFDF91CF911F9108950895CF93F5
:10465000809186028823A1F0C091E900CF709091EB
:10466000EC00892F817090FD80E8C82B1092E90042
:104670008091E80083FD0E94D421CF70C093E900AF
:10468000CF910895002480FD060E660F11F08695E7
:10469000D1F7802D08950024552704C0080E591F16
:1046A000880F991F009729F076956795B8F37105E3
:1046B000B9F7802D952F0895EE0FFF1F0590F49107
:1046C000E02D099469279627692778278727782777
:1046D0000895F999FECF92BD81BDF89A992780B5CA
:1046E0000895A8E1B0E042E050E00C949D23262F0D
:1046F000F999FECF92BD81BDF89A019700B40216D8
:1047000039F01FBA20BD0FB6F894FA9AF99A0FBE85
:1047100008950396272F0E9478230E947723252F40
:104720000E947823242F0C9478230196272F0E942F
:1047300078230C947723DC01CB01FC01F999FECF9F
:1047400006C0F2BDE1BDF89A319600B40D92415019
:104750005040B8F70895F894FFCFDC08E908100935
:104760001C09270932093509350935097E098109EE
:1047700038093C09440951095E0961096409710954
:1047800081108110D910D9102B11AE10AE10AE10BF
:104790004711D311E211E2113E12AE10AE104712D2
:1047A000C612C612CF12CF12D112CF12CF12CF1211
:1047B000C612C612D612CF12CF12D612C41BBB1B02
:1047C000C71BB91B0C1C0C1CB91B0C1C0C1CE31BC1
:1047D0000C1CEE1BF91B0C1C0C1C0C1C0C1CB91B20
:1047E0000C1C0C1CB91B0C1CD51B0C1C0C1C0A1C17
:1047F0000A1C0A1C0A1C0A1C0A1C0A1C0A1C0A1C89
:10480000041C0C1CC41BB71B0C1C0C1C0C1C0C1C0F
:104810000C1C0C1C0C1C0C1C0C1C0C1C041C0C1C60
:104820000C1CB91B0C1C081C081C081C081C081CB0
:10483000081C081C081C081C041CFD2125220E2332
:0E48400025220E23582279220E23D022DC22BC
:10484E001F02491C871C4C1C831C7F1C01E200E9C3
:10485E0000EA00B500B600B700CD008301CC008A97
:10486E00019201940121022302240225022602272D
:10487E00022A02B300B4006F00700081828393623B
:10488E00653096959434353637676692919064000C
:10489E00FF0100010000FFFF0000010001FF00E228
:1048AE0000E900EA00B500B600B700CD008301CCE8
:1048BE00008A01920194012102230224022502267C
:1048CE000227022A02B300B4006F007000818283B7
:1048DE0040226DE80359037B03FE021703370300E2
:00000001FF
