:100000000C9483020C94BB020C94BB020C94BB02B4
:100010000C94BB020C94BB020C94BB020C94BB026C
:100020000C94BB020C94BB020C94BE290C947A294C
:100030000C94BB2A0C94BB020C94BB020C94BB0224
:100040000C94BB020C94BB020C94BB020C94BB023C
:100050000C94BB020C94972A0C94BB020C94BB0228
:100060000C94BB020C94BB020C94BB020C94BB021C
:100070000C94BB020C94BB020C94BB020C94BB020C
:100080000C94BB020C94BB020C94BB020C94BB02FC
:100090000C94BB020C94BB020C94BB020C94BB02EC
:1000A0000C94BB020C94BB020C94BB020501090228
:1000B000A10185020901A1000509190129081500FE
:1000C0002501950875018102050109300931158165
:1000D000257F95027508810609381581257F9501D0
:1000E00075088106050C0A38021581257F95017572
:1000F000088106C0C005010980A101850319012AF4
:10010000B700150126B700950175108100C0050CD8
:100110000901A101850419012AA002150126A002E6
:10012000950175108100C005010906A1018506052C
:100130000719E029E71500250195087501810205D9
:1001400007190029EF1500250195F07501810205B9
:10015000081901290595057501910295017503910D
:1001600001C00660FF0961A1010962150026FF00B8
:100170009520750881020963150026FF00952075FA
:10018000089102C005010906A101050719E029E748
:1001900015002501950875018102950175088101F9
:1001A0000507190029FF150026FF0095067508812F
:1001B000000508190129059505750191029501753C
:1001C000039101C0000000000000000000000000DA
:1001D000000000000000000000000000000000001F
:1001E00000000000000000007E0F00D4FFFFFFC7EA
:1001F0000000007800000000000000002A2B28000A
:1002000000000000000000000000000000000029C5
:10021000000000002C1E3420212224342627252E05
:10022000362D3738271E1F2021222324252633333D
:10023000362E37381F0405060708090A0B0C0D0E69
:100240000F101112131415161718191A1B1C1D2F35
:100250003130232D350405060708090A0B0C0D0E55
:100260000F101112131415161718191A1B1C1D2F15
:100270003130354C0001010101010101010102028F
:100280000202020202020203030303030303030444
:10029000040404040404050505050506060606060F
:1002A000070707070708080808090909090A0A0AC9
:1002B0000B0B0B0C0C0C0D0D0D0E0E0E0F0F0F106B
:1002C00010111111121213131414151516161717F5
:1002D000181819191A1A1B1B1C1D1D1E1E1F202061
:1002E000212222232424252626272829292A2B2CAB
:1002F0002D2D2E2F30313232333435363738393ACE
:100300003B3C3D3E3F404142434445464748494AC5
:100310004C4D4E4F50515354555658595A5B5D5E93
:100320005F616264656668696B6C6D6F707273752E
:1003300077787A7B7D7E8082838587888A8C8E8F92
:1003400091939596989A9C9EA0A2A3A5A7A9ABADC0
:10035000AFB1B3B5B7BABCBEC0C2C4C6C9CBCDCFAE
:10036000D1D4D6D8DBDDDFE2E4E7E9EBEEF0F3F55C
:10037000F8FAFDFF14001A000800150017001C0011
:1003800018000C00120013000400160007000900FA
:100390000A000B000D000E000F0033001D001B00B3
:1003A0000600190005001100100036003700380063
:1003B00000000000E000000028002C000000E60023
:1003C000AE00000001000100010001000100010079
:1003D0000100010001000100010001000100010015
:1003E0000100010001000100010001000100010005
:1003F00001000100010001000100010001000100F5
:1004000000000000010000000100010000000100E8
:1004100001000000010001000100010001000100D5
:1004200001000100010001000100010001000100C4
:1004300001000100010001000100010001000100B4
:1004400001000100010001000100010001000100A4
:100450000000000001000000010001000000010098
:100460000100000009025B00030100A0FA0904007A
:1004700000010301010009211101000122400007D0
:1004800005810308000109040100020300000009BE
:10049000211101000122220007058203200001072B
:1004A0000503032000010904020001030000000904
:1004B000211101000122B60007058403200001126A
:1004C00001000200000008317445D601000102005D
:1004D0000116034C006500200043006800690066B7
:1004E000006600720065000000160374006F006D66
:1004F0000069006E00610062006F0078003100004A
:1005000000040309040011241FBECFEFDAE0DEBFB0
:10051000CDBF04B603FE18C08091CF039091D003E5
:10052000A091D103B091D2038730904BA740B04B3C
:1005300059F41092CF031092D0031092D10310926D
:10054000D203E0E0F8E3099523E0ACECB1E001C0B0
:100550001D92AF3CB207E1F711E0A0E0B1E0E2EE9E
:10056000F4E602C005900D92AC3CB107D9F70E94A9
:10057000E22A0C9419320C9400009091C8039370F5
:1005800061F081110BC094609093C8031092180120
:100590008091C70381608093C70308958D3210F066
:1005A000906BF2CF880F880F982BEECF9091C803F5
:1005B000937071F08093C9036093CA03473908F0C0
:1005C00046E94093CB038091C70381608093C703C2
:1005D0000895E8EDF0E080818E7F80831092E20044
:1005E0001092DA001092E100A0EEB0E08C918160F0
:1005F0008C9380818F77808319BCA7EDB0E08C91BC
:100600008E7F8C9380818F7E808310926803089503
:100610002091E4003091E50095E6A9012091EC00DD
:10062000822F817020FF06C08091E80080FF06C005
:1006300080E008952091E80022FD1AC080918D038A
:10064000882389F0853089F08091EB0085FD0FC00B
:100650002091E4003091E50042175307F9F29150E0
:10066000E1F684E0089582E0089583E0089581E052
:100670000895EF92FF920F931F93CF937C018B010C
:100680000E940803C82F811117C08091E80085FDE2
:100690000BC08091E8008E778093E8000E940803E9
:1006A000882399F3C82F08C0F70181917F018093B7
:1006B000F1000150110949F78C2FCF911F910F9133
:1006C000FF90EF90089580918F0387FF13C0809172
:1006D000E80082FF06C08091E8008B778093E800F5
:1006E00004C080918D038111F2CF089580918D0314
:1006F0008823D9F38091E80080FFF8CF8091E8004B
:100700008E77ECCF982F9093E900242F762F50E02E
:10071000891731F07091EC002091ED005091F000BC
:1007200021FD07C09F5F973071F78093E90081E05A
:1007300008953091EB003E7F3093EB003091ED0057
:100740003D7F3093ED003091EB0031603093EB0052
:100750007093EC002093ED005093F0002091EE0098
:1007600027FDE0CF80E00895CF92DF92EF92FF92D5
:100770000F931F93CF93DF93C8EDD0E088818F7ED6
:100780008883E7EDF0E080818160808384E082BF30
:1007900081E08093680388818E7F888302EE10E079
:1007A000F80110821092DA0081EEC82ED12CF601E9
:1007B000108288818F778883888180688883888188
:1007C0008F7D888319BC10928D0310928E03109236
:1007D0008C0310928B0390EEE92EF12CF7018081AF
:1007E0008B7F808388818160888342E060E080E045
:1007F0000E948203F60180818E7F8083F8018081D0
:1008000081608083808188608083F70180818E7F12
:100810008083888180618883DF91CF911F910F91C0
:10082000FF90EF90DF90CF900895FC0180919503A9
:100830009091960386179707A0F06115710529F42A
:100840009091E8009E779093E80090E06115710523
:1008500051F4911108C08091E80082FF34C080E01B
:100860000895BC01F2CF80918D038823C1F18530BA
:10087000C1F18091E80083FD30C08091E80082FDE5
:10088000EACF8091E80080FFE1CF8091F3002091D2
:10089000F200382F6115710519F02830310558F034
:1008A00091E02830310509F090E02091E8002E77A2
:1008B0002093E800CBCF81918093F10061507109C2
:1008C0002F5F3F4FE7CF80918D03882341F0853024
:1008D00041F08091E80083FFBECF81E0089582E07F
:1008E000089583E00895089580916A0308959C0116
:1008F0004FB7F89480915F0390916003A0916103DA
:10090000B09162034FBF821B930B08952FB7F894E9
:1009100060915F0370916003809161039091620325
:100920002FBF08952FB7F89480915F0390916003D3
:10093000A0916103B09162032FBF089520915C03E1
:1009400030915D032817390771F090935D03809310
:100950005C03E0915A03F0915B03309721F000842F
:10096000F185E02D099408952091580330915903A1
:100970002817390771F09093590380935803E09139
:100980005A03F0915B03309721F00680F781E02D48
:1009900009940895E0915A03F0915B03309721F098
:1009A0000190F081E02D099480E00895FA01811111
:1009B00001C0FB010994E7E3F3E081836083428394
:1009C000339693E0E835F907C1F70895FC01EE0F7F
:1009D000FF1FE80FF91FE95CFC4F6183408322830E
:1009E0000895E8ECF3E024813AE0231B08F420E0CA
:1009F00024838091C70381608093C7030895E8EC46
:100A0000F3E024813AE0230F08F42FEF2483809150
:100A1000C70381608093C7030895E8ECF3E0438146
:100A200028E0421B08F440E08181628190E00C9450
:100A3000D602E8ECF3E0438128E0420F08F44FEFE0
:100A40008181628190E00C94D602E8ECF3E062814F
:100A500028E0621B08F460E08181438190E00C94FF
:100A6000D602E8ECF3E0628128E0620F08F46FEF51
:100A70008181438190E00C94D602E8ECF3E081811F
:100A8000438162818850990B0C94D602E8ECF3E024
:100A9000818190E04381628108960C94D602809116
:100AA000C80386958695815009F48CE20C94BD02AA
:100AB0008091C803869586958F5F8D3208F081E01E
:100AC0000C94BD02EF92FF920F939701201B310906
:100AD0002F3F310519F010F02FEF30E02095382F1F
:100AE000320F08F43FEF832F0F91FF90EF9008959E
:100AF000EF92FF920F939701201B31092F3F310591
:100B000019F010F02FEF30E0322F3095482F430FBF
:100B100008F44FEF842F620F0F91FF90EF9008952C
:100B2000EF92FF920F93972F093438F4B701601BAF
:100B300071096F3F710519F010F06FEF70E0485FB9
:100B40005F4F4131510540F0A901485F5F4F41318E
:100B5000510510F06FEF70E06095482F460F08F4D4
:100B60004FEF842F37FF02C02D5F3F4F35952795FC
:100B7000359527956091C903620F792F0F91FF90EA
:100B8000EF900895EF92FF920F931F930E0D1F2D7C
:100B9000111DF90137FF03C0F195E195F10924E03A
:100BA000EE0FFF1F2A95E1F7EF3FF10519F014F062
:100BB000EFEFF0E09A0157FF03C03195219531091D
:100BC00094E0220F331F9A95E1F72E173F070CF49C
:100BD000F901E00FF11FEF3FF10519F010F0EFEF11
:100BE000F0E0E095282F3E2F230F08F42FEF822FFF
:100BF0001F910F91FF90EF900895EF92FF920F9346
:100C0000970195E0099F200D311D11242F3F3105DB
:100C100019F010F02FEF30E02095382F320F08F444
:100C20003FEF832F0F91FF90EF90089522E8241B50
:100C300008F420E0620F08954095282F429F412D2F
:100C40001124842F0895E42FF0E0EE0FFF1FE655E6
:100C5000FE4F9081921B97FD9195292F38E1239F9C
:100C6000212D1124620F08950F931F9310E0F801B6
:100C7000EE0FFF1FE655FE4F9081905797FD91951F
:100C8000000F111FF801EE57FE4F01A50052110B86
:100C90002003F001219FF00D112408E310E0091B4F
:100CA000110997FD139540039001419F300D1124C8
:100CB000E20FF31F9F01220F331F2E0F3F1F37FF3D
:100CC00002C021583F4F220F232F221F330B620FE8
:100CD0001F910F9108950F931F93522F10E0F80169
:100CE000EE0FFF1FEE57FE4FA1A5A052BB0B9D01BB
:100CF0005203F001539FF00D1124000F111FD80172
:100D0000A655BE4F0C910057110B40039001419F17
:100D1000300D11242E0F3F1F37FF02C0215C3F4FC3
:100D200096E0359527959A95E1F7620F1F910F91FF
:100D300008950F931F93522F10E0F801EE0FFF1F3D
:100D4000EE57FE4FA1A5A052BB0B9D015203F0012F
:100D5000539FF00D1124000F111FD801A655BE4F4F
:100D60000C910057110B40039001419F300D11244D
:100D70002E0F3F1F37FF02C021583F4F220F232F56
:100D8000221F330B620F1F910F910895EF920F9363
:100D9000972F23E0029FB0011124759567956E0D82
:100DA000792F0F91EF900895322F50E0FA01EE0F56
:100DB000FF1FEE57FE4F91A5905297FD9195440F5E
:100DC000551FFA01E655FE4F2081231B330B290FD7
:100DD000311D97FD3A95620F0895E42FF0E0EE0F74
:100DE000FF1FEE57FE4F61A5621B0895E42FF0E050
:100DF000EE0FFF1FE655FE4F6081621B0895622FC4
:100E00000895E42FF0E0EE0FFF1FE655FE4F4081FE
:100E100034EE439F412D1124E82FF0E050E0445E72
:100E20005F4FDA01A21BB1099D01B7FF03C03195E5
:100E30002195310993E0220F331F9A95E1F7AF0115
:100E4000421B530B9A0157FD20E0582F259F212D5F
:100E50001124822F0895E42FF0E0EE0FFF1FE655D6
:100E6000FE4F408134EE439F412D1124E72FF0E0E7
:100E700050E0445E5F4FDA01A21BB1099D01B7FF4C
:100E800003C031952195310993E0220F331F9A95C4
:100E9000E1F7AF01421B530B9A0157FD20E0279F5A
:100EA000212D1124722F08950C94DB040C94E60478
:100EB000FC019B01009729F480E077FF2BC080E8BC
:100EC0000895AC0197FF04C044275527481B590BD0
:100ED000B901640F751F37FD10C0241B350BC90104
:100EE000A5E0880F991FAA95E1F70E94D13080E212
:100EF000861BF7FF0FC081950895CB0165E0880F31
:100F0000991F6A95E1F7BA01621B730B0E94D130F9
:100F100080E6EECF0895EF920F93CF93DF93D72F14
:100F2000C82FC9010E19BA010E945807602F681B0B
:100F30007D2F8C2FDF91CF910F91EF9008950F931C
:100F4000CF93DF93D72FC82FC901BA010E9458074A
:100F5000682F600F7D2F8C2FDF91CF910F91089517
:100F6000EF920F931F93CF93DF93D62FC72F182F96
:100F7000C9010E19010FBA010E945807081B202F42
:100F8000219F212D1124822F6D2F7C2FDF91CF9156
:100F90001F910F91EF900895EF920F931F93CF93AE
:100FA000DF93D62F172FC82FC9010E19070FBA01CB
:100FB0000E945807702F781B719F712D11246D2F7F
:100FC0008C2FDF91CF911F910F91EF9008950F9388
:100FD0001F93CF93DF93D62FC72F182FC901212F2F
:100FE000201B022FBA010E945807982F990F990FC2
:100FF000891B800F282F219F212D1124822F6D2FD7
:101000007C2FDF91CF911F910F9108950F931F9324
:10101000CF93DF93D62F172FC82FC901272F201B5F
:10102000022FBA010E945807982F990F990F782F15
:10103000791B700F719F712D11246D2F8C2FDF91F3
:10104000CF911F910F910895E82F86FDE0952E2FE7
:101050002F7086FD2F5FE695E695E695E670F0E049
:10106000E559FE4F9181929F902D212D112492954B
:101070009F702295207F922B2081920F87FD919562
:1010800080E8890F08950F931F93CF93DF938B010F
:10109000D82FC42F822F0E942408EC2FF0E0EE0FEF
:1010A000FF1FE655FE4F90819058890F87FD81956F
:1010B000880F682F2CE0629F612D1124600F712F23
:1010C0008D2FDF91CF911F910F91089540911001C5
:1010D0005091110125E038E0429FC001439F900DDF
:1010E000529F900D1124875E994C9093110180932B
:1010F0001001890F0895AC018230910508F408951C
:101100009FEF413E8EE1580740F49A0195E03695F5
:1011100027959A95E1F798E0920F61E0E62FE90FA5
:10112000FF27FF1F9F0135952795822F229FF001F2
:10113000239FF00DF00D11244E175F0738F49FEF39
:10114000920F961758F78FEF860F08952F3FE9F308
:1011500061E0620FF6CF0F93CF93DF93D72FC82FA5
:1011600047FD419588E390E0841B910947FD9395E5
:10117000889FB001899F700D700D1124229FC001BE
:10118000239F900D900D1124860F971F0E947B08BE
:10119000982F990F890F682F600F7D2F8C2FDF916B
:1011A000CF910F91089530E020E0869F212D969FEA
:1011B000200D311D1124C90108952091CC0330E187
:1011C000230F08F42FEF60E1822F90E00E94D308F4
:1011D000BC0188EB9BE00E94BD3090E080E0089568
:1011E000AF92BF92CF92DF92FF920F931F93CF9354
:1011F000DF93362F472FE82FF0E0EC58FD4F7111A9
:101200000FC0E4918E2F2E2F6E2F722FDF91CF9172
:101210001F910F91FF90DF90CF90BF90AF900895F6
:10122000C72FD0E02491F22E022F10E056E0659FE8
:10123000C0011124EFEFF0E0BF010E94BD30832F09
:1012400090E0880F991F35E5369FD001379FB00D8C
:1012500011248A1B9B0B982F990F980F6F01CC1AA2
:10126000DD0AC09ED001C19EB00DD09EB00D1124EC
:101270008B2F499FA0011124452F55276F01C41AB8
:10128000D50AC09EA001C19E500DD09E500D1124C4
:101290005F01A91AB108AC9E6001AD9ED00CBC9E46
:1012A000D00C1124CD2CDD24EC19FD09E09FE001C8
:1012B000E19FD00DF09FD00D1124ED2F623071050C
:1012C000A1F050F46115710509F49ECF61307105EC
:1012D00081F0EB2F852F98CF6430710569F080F095
:1012E0006630710509F490CFF4CFE22F2B2F8D2FAC
:1012F0008BCFE22F252F88CFEB2F822F2D2F84CF5E
:101300002B2F8F2DE52F80CF2F923F925F926F92E0
:101310007F928F929F92AF92BF92CF92DF92EF9285
:10132000FF920F931F93CF93DF93CDB7DEB72A972A
:101330000FB6F894DEBF0FBECDBF8B837E836D8367
:1013400080911501282F220F280F2F832D5F2983CD
:101350002A832C3010F03BE03A8380919B038C83EE
:10136000FF81EF2FF0E0FA87E987CF01880F991FFF
:101370009C012E573E4F69013B81832F90E0FC0179
:101380003196F887EF838A8199859817E8F081E094
:10139000E981EB3008F080E02A960FB6F894DEBFC2
:1013A0000FBECDBFDF91CF911F910F91FF90EF90B6
:1013B000DF90CF90BF90AF909F908F907F906F9075
:1013C0005F903F902F900895E985FA85EE57FE4F84
:1013D00086AD909116018923F1F02090C9033090D9
:1013E000CA032F81388525563C4F39015B8010E0B8
:1013F000FC815F16D0F02091CB03129F112D112498
:10140000B101812F0E94F008462F282F672F898570
:101410009A850E94560729853A852F5F3F4F3A8764
:10142000298732E0C30ED11CAECFF30181913F0179
:10143000F601A0A4A81ABB0881A4F3018781881A29
:101440009908AA9C9001AB9C300D300D1124889C0A
:10145000C001899C900D900D1124820F931F0E9452
:101460007B08082F6091CC0321E0620F08F46FEF36
:10147000F301EE0FFF1FEB59F340858996890E9417
:10148000D3087C019401A501B101812FED81FE817A
:1014900009951B015394182FABCFCF92DF92EF9297
:1014A000FF920F931F93CF93DF938C0180911501CF
:1014B000C82FCC0FC80F23E0D22EDC0ECD2C2BE092
:1014C0002D1510F49BE0C92E2091CC0331E0230FA1
:1014D00008F42FEF30E050E040E06FEF7FEF80E066
:1014E00090E00E94B6317901D0E02C2FCC1570F03D
:1014F00081E0FAE0FD1508F480E0DF91CF911F91C3
:101500000F91FF90EF90DF90CF900895FE01EE577E
:10151000FE4F86AD90911601892311F140919B03F6
:101520004150042E000C550B47FF1CC0C7016091B1
:10153000CC0321E0620F08F46FEF0E94D308AC01E6
:101540006091C9037091CA038091CB03F80109959A
:101550000E94F008462F282F672FCE010E945607C1
:101560002196C3CFFA01E556FC4F818982130AC048
:10157000FA01EE0FFF1FE556FC4F818D928D8E15FF
:101580009F05A8F241505109CFCFDF92EF92FF9211
:101590000F931F93CF93DF937C0180911501C82F88
:1015A000CC0FC80F13E01C0F012F1C3008F00BE00C
:1015B0006091CC036695669521E0620F08F46FEFA9
:1015C00080919703909198030E94D308D82ED0E081
:1015D000C01760F081E01B3008F080E0DF91CF9110
:1015E0001F910F91FF90EF90DF900895FE01EE574D
:1015F000FE4F86AD90911601892391F06091C90349
:101600007091CA038091CB032D2D4C2FF7010995C2
:101610000E94F008462F282F672FCE010E94560700
:101620002196D6CF9F92AF92BF92CF92DF92EF9248
:10163000FF920F931F93CF93DF936C01809115015D
:10164000C82FCC0FC80F13E01C0FB12E1C3010F0A8
:101650003BE0B32E6091CC0366956695809197032D
:10166000909198030E94D308F82E80E48F0D0E9479
:10167000240890E8A92EA80E8F2D0E94240820E8A7
:10168000922E980ED0E0CB1580F081E01B3008F050
:1016900080E0DF91CF911F910F91FF90EF90DF904D
:1016A000CF90BF90AF909F900895FE01EE57FE4FF0
:1016B00086AD909116018923A1F06091C9037091C4
:1016C000CA038091CB03EF2C0C2F292D4A2DF60154
:1016D00009950E94F008462F282F672FCE010E94FF
:1016E00056072196D0CF5F926F927F928F929F92F2
:1016F000AF92BF92CF92DF92EF92FF920F931F9320
:10170000CF93DF933C0180911501C82FCC0FC80FF8
:1017100013E01C0FF12E1C3010F03BE0F32E609113
:10172000CC03669580919703909198030E94D3080B
:10173000582ED0E0CE01880F991F9C012E573E4FA6
:101740006901CF15A0F081E01B3008F080E0DF9147
:10175000CF911F910F91FF90EF90DF90CF90BF90AE
:10176000AF909F908F907F906F905F900895FE0153
:10177000EE57FE4F86AD90911601892379F1F6015F
:1017800080A5282F2057330B590181A5E82FE0525F
:10179000FF0B4F01AA9C9001AB9C300D300D112422
:1017A000EE9FC001EF9F900D900D1124820F931FAB
:1017B0000E947B08082F6091C9037091CA03809131
:1017C000CB03E52C9401A501F30109950E94F008D3
:1017D000462F282F672FCE010E945607F2E0CF0E2A
:1017E000D11C2196AECFAF92BF92CF92DF92EF92F3
:1017F000FF920F931F93CF93DF936C01809115019C
:10180000C82FCC0FC80F13E01C0FB12E1C3010F0E6
:101810003BE0B32E6091CC03669580919703909145
:1018200098030E94D308A82ED0E0CE01880F991FFC
:101830009C012E573E4F7901CB1578F081E01B308B
:1018400008F080E0DF91CF911F910F91FF90EF9012
:10185000DF90CF90BF90AF900895FE01EE57FE4FFE
:1018600086AD909116018923C1F0F70121A5205280
:10187000330B40A54057550B6091C9037091CA03C3
:101880008091CB030A2DF60109950E94F008462F9E
:10189000282F672FCE010E945607F2E0EF0EF11CB1
:1018A0002196CACF0E9492049C019091840280915B
:1018B0008502982B21F03093810220938002909131
:1018C000860280918702982B21F030937F0220932B
:1018D0007E02E0915A03F0915B03309749F082E079
:1018E000809382020480F581E02D82E892E00994E1
:1018F000089540918402803F59F48091850287FFCA
:101900000DC01092850241110BC010927C0208C0DC
:10191000813F81F48091850218169CF3442381F065
:101920008091860290918702892B09F05AC010920B
:101930007B020895823F49F447FFF0CF1092840262
:10194000809185028111ECCFE0CF833F19F414160A
:10195000ACF3E4CF90918602893F29F41916F4F68E
:1019600010928602DBCF8A3F19F497FFD7CFF8CFCA
:10197000909187028B3F29F497FFD0CF1092870276
:10198000CDCF8C3F19F41916CCF3C8CF9CE0980F3B
:10199000953090F4845F990B21E030E0B90102C0EA
:1019A000660F771F8A95E2F7CB01809590918302AD
:1019B000892380938302B2CF8D3F31F480917D02E1
:1019C0008E7F80937D02AACF8E3F21F480917D028D
:1019D0008D7FF7CF8F3F09F0A1CF80917D028B7F64
:1019E000F0CF089580917D0280FD16C081FD16C064
:1019F00082FD16C080917B028823A1F0883280F49A
:101A000028E0829FC001112468E270E00E94D1307A
:101A1000862F672B39F0089582E0089584E00895B9
:101A200088E0089581E0089580917D0280FD14C0D2
:101A300081FD14C082FD16C080917C02882381F054
:101A40008E3180F420E5829FC00111246EE170E0A8
:101A50000E94D130862F089584E1089588E2089588
:101A600088E0089580E50895803F31F40E94140DC8
:101A70008195809385020895813F19F40E94140D89
:101A8000F8CF823F31F40E94140D81958093840237
:101A90000895833F19F40E94140DF8CF893F29F46B
:101AA0000E94F20C8093860208958A3F21F40E94DE
:101AB000F20C8195F7CF8B3F31F40E94F20C8195A7
:101AC0008093870208958C3F19F40E94F20CF8CF9E
:101AD0009CE0980F953070F4845F990B21E030E022
:101AE00001C0220F8A95EAF780918302822B8093AE
:101AF000830208958D3F31F480917D02816080934F
:101B00007D0208958E3F21F480917D028260F7CF9F
:101B10008F3FB9F780917D028460F1CF80E0089516
:101B2000F894E82FE295EF70F0E031A1282F2F70A4
:101B300081E090E001C0880F2A95EAF7982F9095F0
:101B4000932391A392A1892B82A3789408959091D5
:101B5000630392FF06C0282F28712830F9F4877F8D
:101B6000846093FF06C0282F28712831F1F4877E06
:101B700084612091640320FF06C0382F387138300B
:101B8000D9F4877F816021FF06C0282F2871283172
:101B9000D1F4877E816194FD877E0895282F24717A
:101BA0002430F9F68B7F8860DCCF282F2471243114
:101BB00001F78B7E8861DDCF382F3171313019F715
:101BC0008E7F8860E0CF282F2171213121F78E7E12
:101BD0008861E1CFCF93DF93EC0182389105A9F1C1
:101BE000D8F58133910509F496C048F589329105FD
:101BF00009F48AC08A9709F495C0C11521E5D20776
:101C000008F0BCC0C11530E5D30708F014C1C83EC8
:101C1000D10508F09CC0C03ED10560F5C83AD10599
:101C200008F087C0C53AD10508F0FDC0C130D10524
:101C300009F12097F9F0C430D105E0F440C08533B4
:101C4000910509F45AC0C997C1F680916303837066
:101C500089F0C0EED0E00EC0833E910599F170F49A
:101C6000803E910501F1823E910539F68091630332
:101C700082FD21C0CE01DF91CF910895863E91056E
:101C800061F1873E910571F1843E910509F0B5CF70
:101C90008091640381FFEECF80916303C7EED0E0B3
:101CA00084FD0DC0E7CF8091630380FD12C1909148
:101CB000640390FFDFCFC3EED0E084FFDBCFD0E042
:101CC000C0E0D8CF8091630382FD06C19091640388
:101CD00090FDBFCF84FFCECFF2CF8091630383FD11
:101CE000DDCFC8CF8091630383FDF9C09091640379
:101CF00091FFF0CFC4EED0E0BDCF8091630385FFAC
:101D0000B9CFC9E2D0E0B6CF8091630385FFB2CFEF
:101D1000C5E3D0E0AFCF8091630386FFABCFCAE2CB
:101D2000D0E0A8CF8091630386FFA4CFC1E3D0E0C9
:101D3000A1CFCF3BD10518F6C85AD0E0CC0FDD1F9C
:101D4000C15EDE4F0990D881C02DD46493CFC115F8
:101D500040E2D40758F4C11581E0D80708F08ACFD3
:101D6000C03FD10508F4ABCFD06584CFC11590E456
:101D7000D90708F4A4CFDF70D06A7CCFC11525E560
:101D8000D20700F5C11534E5D30708F08AC0C115A4
:101D900043E5D40708F071C0C11582E5D80708F4FF
:101DA00067C0CE018370992721E030E002C0220F86
:101DB000331F8A95E2F7C695C69580E2C89FE00179
:101DC000112452C0C11599E5D907A8F4C11528E519
:101DD000D20708F06BC0C11536E5D30708F06FCF06
:101DE0008C2F0E94A70DC82FD0E0DC2FCC27CC274A
:101DF000DF71D0623FCFC1154AE5D40708F45BC05C
:101E0000CE0190568115904208F059CF8D2F8F71D9
:101E10000E94A70D90E0982F882788279F719C012A
:101E20002C2BE901E6CFC55AD0E0C45EDE4FC88155
:101E3000D0E0D0641FCFCE01E4E096958795EA9577
:101E4000E1F783702C2F26952695237040E2249F7E
:101E500090011124382B8C2F8370C1E0D0E002C098
:101E6000CC0FDD1F8A95E2F7C22BD32BDC6802CFA3
:101E7000DC2FCC27C16FD06AFDCECE0183709927AD
:101E800021E030E002C0220F331F8A95E2F7C695A9
:101E9000C69590E2C99FE0011124C22BD32BDA68CA
:101EA000E9CEDC2FCC27C46FD06AE4CEDC2FCC2760
:101EB000C06FD06ADFCE8C2F8F700E94A70D34E0E8
:101EC000D695C7953A95E1F7CF709C2FEC01D06974
:101ED000D1CEC9E3D0E0CECEC2EED0E0CBCEC6EEBE
:101EE000D0E0C8CE80915902811110925902089514
:101EF000809590915802982390935802089590915C
:101F000014019923D1F09091630397FF16C0E82F35
:101F1000E695E695E695EE31E0F4F0E0E253FE4F0B
:101F2000282F277081E090E001C0880F2A95EAF7FA
:101F300080959281892382830895E0EDF1E091916B
:101F4000891303C0DF0111971C9291E0E63DF90768
:101F5000B1F70895909114019923C1F09091630312
:101F600097FF14C0E82FE695E695E695EE31F8F474
:101F7000F0E0E253FE4F877021E030E001C0220F15
:101F80008A95EAF78281822B82830895A0EDB1E0E1
:101F9000EFEF90E02D91821751F0EF3F19F42111EE
:101FA00001C0E92F9F5F9630A9F7EF3F09F408952C
:101FB0000E2E000CFF0BE253FE4FE6CF8091350250
:101FC00090910402981301C008958F5F8770FACF33
:101FD0002AE0929F800D1124982F97708695869500
:101FE000869523E0829FF0011124E151FE4F50E0DD
:101FF00040E080E0219130E0092E02C0369527951F
:102000000A94E2F721703327042E01C0220F0A94AC
:10201000EAF7822B4F5F5F4F4330510559F7089520
:102020002AE0929F800D1124982F977041E001C003
:10203000440F9A95EAF786958695869593E0899F51
:10204000F0011124E151FE4F90E080E070E05191E9
:10205000DF0111979B01082E02C0369527950A943F
:10206000E2F7217021952527242325272C9301961B
:102070008330910561F7089580936503709367033A
:102080006093660380918D038430F9F48093E900B6
:102090008FEF9091E800815095FD06C095ED9A95DF
:1020A000F1F700008111F5CF8091E80085FF0DC0A8
:1020B00050E040E063E070E085E693E00E94390381
:1020C0008091E8008E778093E8000895BC0184E059
:1020D0000C943C10BC0183E00C943C109C0184E007
:1020E0008093E9009FEF8091E800915085FD06C044
:1020F00085ED8A95F1F700009111F5CF8091E80008
:1021000085FF0CC050E040E066E070E0C9010E942D
:1021100039038091E8008E778093E8000895CF938B
:10212000DF93EC01809114018823B1F18091630366
:1021300087FF32C060E284E08093E9008FEF9091E6
:10214000E800815095FD06C095ED9A95F1F70000E5
:102150008111F5CF8091E80085FF1BC080911401AB
:1021600070E050E040E0811104C050E040E068E0E1
:1021700070E0CE010E9439038091E8008E77809351
:10218000E80080E2FE01ABE6B3E001900D928A9593
:10219000E1F7DF91CF91089568E081E0CDCF81E054
:1021A0008093E00080E28093D8001092C9008FE114
:1021B0009EE40197F1F700C0000087E090EBDC019E
:1021C0008093CF039093D003A093D103B093D20315
:1021D00088E19CE00FB6F894A895809360000FBE4C
:1021E00090936000FFCF809A31B33E7F21B321608E
:1021F0004FB7F89487E393E0FC015191CF0168E079
:1022000021BB000000C057FF31BB550F000000C0CC
:1022100000C000C031BB00C06A9591F7F3E088357B
:102220009F0751F74FBF8FE594E00197F1F700C08A
:1022300000000895CF93DF93C7E6D1E060E0CE01C0
:102240000E9492312196C11584E0D807B9F7DF9139
:10225000CF9108956F927F928F929F92AF92BF928B
:10226000CF92DF92EF92FF920F931F93CF93DF9362
:1022700084E7C82E83E0D82E9BE8E92EF12CE701F5
:10228000C055D10936011BC0F50185909490692D88
:10229000C8010E949231682DC80101960E949231B6
:1022A00082E0A80EB11C0E5F1F4FC017D10761F767
:1022B00084E1680E711C6496CE15DF0529F08E014D
:1022C000045111095301E0CF7E0180E5E80EF11CB5
:1022D00080E5C80ED11C8BECE81681E0F80679F693
:1022E000DF91CF911F910F91FF90EF90DF90CF90F2
:1022F000BF90AF909F908F907F906F900895CF93F5
:10230000C82F6FEF811162E283E290E00E94923168
:102310006FEFC11165E084E290E00E9492316FEFAF
:10232000C11167E185E290E0CF910C94923180E099
:102330000E947F1160E086E290E00E9492310E944C
:102340002A110E941A1181E00C947F110F931F93A0
:10235000CF93DF93C42FD0E0CC0FDD1F24E1629F29
:10236000C00DD11D112430E5839FC00DD11D112456
:10237000CE0187960E947431082F10E0102F00279D
:10238000CE0188960E9474319801282BC901DF91F3
:10239000CF911F910F910895462F843038F47430F7
:1023A00028F46A3018F4672F0C94A61190E080E0AE
:1023B0000895CF92DF92FF920F931F93CF93DF93F5
:1023C0006C010091CE0380915A02082BC7E0D0E047
:1023D00010E0FC2EC8010C2E02C0959587950A943A
:1023E000E2F780FD0CC02197A0F7F12C8F2DDF9133
:1023F000CF911F910F91FF90DF90CF900895B6017C
:102400008C2F0E94CC110E94EA0D019761F3EECF50
:10241000CF93DF93EC010E94D911BE010E94CC1131
:10242000DF91CF910C94EA0DFC01808191810E9493
:10243000081292959F70963091F058F4925F9F70B9
:10244000923058F4803F19F030F4883E30F481E047
:1024500008959A5FF4CF843FD1F380E00895883ED9
:10246000B0F3813FD1F7F3CF83E290E00E94743163
:10247000823289F484E290E00E947431853059F40C
:1024800085E290E00E94743191E0873109F090E09C
:10249000892F8170089580E0FCCFCF9384E090E095
:1024A0000E947431C82F82E290E00E947431982F0C
:1024B0008C2FCF9108951F93CF93DF93EC01FC01F4
:1024C000EE57FE4F86AD6823C9F00E943E31182FAB
:1024D0000E943E318F77782F20E8720F08F47FEF4B
:1024E000612F8091CB030E94F008462F282F672F81
:1024F000CE01DF91CF911F910C945607DF91CF91C0
:102500001F910895DF92EF92FF920F931F93CF9345
:10251000DF938C01FC01EE57FE4F86AD682381F1FD
:10252000D090CA03D091CB03C091C903EC2EF12CFB
:102530000E943E31282FC7018C549F4F68E671E0FE
:102540000E94D1308E199F0997FD03969595879526
:102550009595879523706C2F289F600D11247D2DF4
:102560008D2F0E94F008462F282F672FC801DF917A
:10257000CF911F910F91FF90EF90DF900C94560731
:10258000DF91CF911F910F91FF90EF90DF90089511
:10259000E8ECF3E085E380838091190190911A01C2
:1025A000A0911B0181839283A3838FE784838FEFA4
:1025B000858346E050E06CE170E0CF010E948231FB
:1025C0001092C70308955F926F927F928F929F92AD
:1025D000AF92BF92CF92DF92EF92FF920F931F9331
:1025E000CF93DF93182F80911301811323C0909113
:1025F000C80393702091120130E081E09217130616
:1026000009F480E08170809317018091CD0390914F
:102610001601981739F08093160140E060E080E0E1
:102620000E9454071D3260F4E12FF0E0E55EFD4C9E
:102630000C94E53081E0E6CF80911701811124C030
:10264000C0E0809115018F5F80931501C1110CC00E
:1026500082E08093180180911701811105C011114A
:1026600003C083E080931801DF91CF911F910F91F8
:10267000FF90EF90DF90CF90BF90AF909F908F90A2
:102680007F906F905F90089540E060E080E00E944E
:102690005407D6CF80911501C82FCC0FC80F03E087
:1026A0000C0FF02E0C3010F0ABE0FA2E6091C90345
:1026B0007091CA038091CB030E94F008E62ED72EBA
:1026C000C82ED0E0CF1528F0C1E00B3008F4B9CF08
:1026D000B7CFFE01EE57FE4F86AD909116018923CC
:1026E00031F02C2D4E2D6D2DCE010E9456072196D6
:1026F000E9CF80911501C82FCC0FC80F03E00C0F54
:10270000F02E0C3010F0FBE0FF2ED090CA03E090CA
:10271000CB03D091C9036D2F7D2D8E2D0E94F00823
:10272000C62EB72EA82E6091CC036D0F7D2D8E2D59
:102730000E94F008E62ED72E982ED0E0CF1520F676
:10274000FE01EE57FE4F96AD80911601892359F098
:10275000292D4E2D6D2D90FD03C02A2D4C2D6B2D56
:10276000CE010E9456072196E9CF80911501C82F0E
:10277000CC0FC80F03E00C0FE02E0C3010F0EBE094
:10278000EE2ED090CA03C090CB032091CC0370E40E
:10279000F72E3F2D329F312D1124F32ED0E0CE1590
:1027A00008F092CFFE01EE57FE4F86AD90911601D4
:1027B0008923B9F0FE01EE0FFF1FEE57FE4F81A5F2
:1027C00082958F706091C9038F9D600D11247D2DBE
:1027D0008C2D0E94F008462F282F672FCE010E94D3
:1027E00056072196DCCF80911501C82FCC0FC80F5A
:1027F00003E00C0FE02E0C3010F05BE0E52ED090E3
:10280000CA03C090CB032091CC0340E4F42E3F2DAB
:10281000329F312D1124F32ED0E0CE1508F054CF85
:10282000FE01EE57FE4F86AD909116018923D9F037
:10283000FE01EE0FFF1FEE57FE4F60A5F69EB001A2
:10284000112435E0759567953A95E1F78091C903B4
:10285000680F7D2D8C2D0E94F008462F282F672FA2
:10286000CE010E9456072196D8CF80911501C82F1E
:10287000CC0FC80F03E00C0FF02E0C3010F09BE0D3
:10288000F92EE090C903D091CA03D090CB03609198
:10289000CC03669566956695809197039091980311
:1028A0000E94D3080E942408805887FD8195880FD4
:1028B000282F3D2D239F212D1124822F6E2D7D2F1A
:1028C0000E94F008E62ED72EC82ED0E0CF1508F0D3
:1028D000FBCEFE01EE57FE4F86AD90911601892387
:1028E00031F02C2D4E2D6D2DCE010E9456072196D4
:1028F000EDCF8BE297E00E94C50A07C081E097E028
:10290000FACF86E098E00E94F30BC82F9ACE87EEAC
:1029100097E0F9CF8CEC97E00E94730BF6CF80EB39
:1029200097E0FACF8FEF96E0E6CF86EF96E0E3CF21
:102930008DEE96E0E0CF84ED96E0DDCF86EC96E07C
:10294000EBCF8BEA98E0DFCF8FE997E0DCCF8BE825
:1029500097E0E2CF89E996E00E94120BD6CF8BE692
:1029600096E0FACF84E396E0F7CFC0911701C1114A
:102970001EC06091CC0320E1620F08F46FEF8091DC
:102980009703909198030E94D3086AE070E00E9438
:10299000BD30892B09F054CE0E943E316BE070E0CF
:1029A0000E94D130609116010E9482124ACE80911D
:1029B0001501C82FCC0FC80F03E00C0F802F0C306F
:1029C00008F08BE0D0E0E82EF12CCE15DF050CF0FE
:1029D0007BCE60911601CE010E9482122196F5CF26
:1029E000C0911701C1111EC06091CC0320E1620F9C
:1029F00008F46FEF80919703909198030E94D30899
:102A000065E070E00E94BD30892B09F019CE0E946C
:102A10003E316BE070E00E94D130609116010E945F
:102A20005B120FCE80911501C82FCC0FC80F03E0A9
:102A30000C0F802F0C3008F08BE0D0E0E82EF12C4A
:102A4000CE15DF050CF040CE60911601CE010E943C
:102A50005B122196F5CF80911501C82FCC0FC80FBE
:102A600003E00C0FF02E0C3010F08BE0F82ED0901D
:102A7000CA03E090CB03D091C9036091CC03669563
:102A80006695669580919703909198030E94D3086C
:102A90000E942408805887FD8195880F682F2CE0BC
:102AA000629F612D11246D0F7D2D8E2D0E94F008E7
:102AB000E62ED72EC82ED0E0CF1508F005CEFE01A9
:102AC000EE57FE4F86AD90911601892331F02C2DE3
:102AD0004E2D6D2DCE010E9456072196EDCF83E439
:102AE00098E009CF83E296E006CF409188025091AA
:102AF000890260918A0270918B0280919703909174
:102B00009803A0919903B0919A0384179507A6079B
:102B1000B70708F495CD0E946608082F0E94660842
:102B20009BE0891BF0F7890FC82FD0E0FE01EE571C
:102B3000FE4F8091160196AD892309F478C020E0FC
:102B400040E060E001FD13C00E946608082F0E946B
:102B50006608782F76952FE7720F08F47FEF602FC5
:102B60008091CB030E94F008462F282F672FCE01BB
:102B70000E9456072091CC0330E1230F08F42FEF79
:102B800060E1822F90E00E94D308BC0184EF91E0C5
:102B90000E94BD308091970390919803A091990372
:102BA000B0919A03860F971FA11DB11D80938802D3
:102BB00090938902A0938A02B0938B0241CD4091F9
:102BC000AD025091AE026091AF027091B00280915F
:102BD000970390919803A0919903B0919A03841759
:102BE0009507A607B70708F42BCD8091170181112F
:102BF00020C080911501C82FCC0FC80F03E00C0F27
:102C0000D02E0C3010F0DBE0DD2EEC2EF12CA3E00A
:102C1000CA9FE0011124C457DD4FED1408F442C0EF
:102C2000ECE8F2E08AEA92E00B3008F054C0C1E030
:102C300008CD40E060E080E00E945407BCE8EB2E45
:102C4000B2E0FB2ED0E0C0E00FE70E94660881FFF3
:102C50000CC0F7011082118212822196B3E0EB0EB4
:102C6000F11CCB30D10589F7C4CF0E946608B82E7D
:102C70000E9466088695782F700F08F47FEFCE01CA
:102C8000880F991F8C0F9D1F9C0124573D4F690190
:102C90006B2D8091CB030E94F008D6016D937D933C
:102CA0008C93DBCFF701EE57FE4F86AD9091160166
:102CB000892331F02A8148816981C7010E94560722
:102CC0002396EFEFEE1AFE0AA8CF238134814581C7
:102CD0002193319341938E179F07B9F70E9466089D
:102CE00081FF1FC01092AA021092AB021092AC0298
:102CF0000E94DD08C0909703D0909803E09099035C
:102D0000F0909A03DC01CB018C0D9D1DAE1DBF1D03
:102D10008093AD029093AE02A093AF02B093B00245
:102D20008FCC0E946608C82F0E9466088695782F6F
:102D30002FE7720F08F47FEF6C2F8091CB030E9476
:102D4000F0086093AA027093AB028093AC02D0CFDC
:102D50004091D9025091DA026091DB027091DC025D
:102D60008091970390919803A0919903B0919A0351
:102D700084179507A607B70708F462CC809117015E
:102D8000882329F040E060E080E00E9454076091D1
:102D9000C9037091CA038091CB030E94F008062FEB
:102DA000772E682EC1EBD2E0E2E8AE2EE1E0BE2E37
:102DB000F9E0EF2EF12C670189E0C81AD108512CF7
:102DC00096012F543D4F4901F601EE57FE4F808189
:102DD00090E0D9012C91222309F477C0262D402FB1
:102DE000672D0E945607F401818180835394FFEF81
:102DF000CF1ADF0A24E05212E3CF670179E0572EA1
:102E0000C6018F549D4F4C01F601EE57FE4F808155
:102E100090E0D4012C91222309F45BC0262D402F91
:102E2000672D0E945607F40131978081F401808359
:102E30005A94F1E0CF1AD10825E05212E1CFD50122
:102E400015968C9190E02D81222309F446C0262D01
:102E5000402F672D0E945607F501848190E02C8158
:102E6000222309F43EC0262D402F672D0E945607CD
:102E70000E946608837091E009F090E09C839D8336
:102E80002A96FAE0AF0EB11C2AE0E20EF11C31E303
:102E9000E316F10409F08FCF0E94DD08C09097037C
:102EA000D0909803E0909903F0909A03DC01CB0155
:102EB0008C0D9D1DAE1DBF1D8093D9029093DA022B
:102EC000A093DB02B093DC02BBCB20E040E060E0EB
:102ED00088CF20E040E060E0A4CF20E040E060E068
:102EE000B9CF20E040E060E0C1CF80911501C82F4C
:102EF000CC0FC80F63E0762E7C0E072D98E2971555
:102F000008F408E280911701882361F040E060E056
:102F100080E00E945407E1EEF2E088E2DF011D92BA
:102F20008A95E9F780911501811115C08091DE0223
:102F30009091DF020E94770421E08931910508F425
:102F400020E02093DD02499730F00E949204909394
:102F5000DF028093DE02D0E0C02ED12C4AE0642E46
:102F60005AEA552ECC15DD0534F0C1E0B7E2B715AD
:102F700008F067CB65CB4E01B3E08B2299245E014C
:102F8000B594A794B594A794689CC001699C900DD2
:102F90001124FC01EF51FD4FEA0DFB1D00818E57FE
:102FA0009E4FFC01EA0DFB1D80818F3F51F1E82E01
:102FB000F12CF701EE57FE4F86AD90911601892353
:102FC00001F1302F25E5321B08F430E07091CA037F
:102FD000252D200F08F42FEF4091CB03822F880F6F
:102FE000820F8E5F282F249F212D1124822F652D83
:102FF000631B0E94F008462F282F672FC7010E94ED
:1030000056078091DD02882379F031E0031B08F434
:1030100000E0689CC001699C900D11248F519D4F68
:10302000A80EB91ED5010C9321969CCF8091170153
:10303000882371F040E060E080E00E945407E1EEF8
:10304000F2E088E2DF011D928A95E9F71092E00232
:10305000D0E0C0E077247A9480EDA82EB12C90ECDB
:10306000692E2FE2822E912C7E0100E09E012F51CD
:103070003D4F69018091E002802BA9F50E943E310D
:103080008535954084F5F6017082F701EE57FE4FC5
:10309000E081EF3FB1F0D701AF51BD4F2C91F0E08F
:1030A000213D50F1205D330B629EC001639E900D67
:1030B0001124B4010E94BD30262F4FEFCF010E9492
:1030C00056070F5FFAE0EF0EF11C043099F62196D7
:1030D000CA30D10549F68091E0028F5F8D31B0F49E
:1030E0008093E002ADCAF701EF51FD4F808181501E
:1030F0008E3F58F68083C9CF279DC0011124B501AA
:103100000E94BD30462F20E060E0D8CF1092E00250
:1031100025EF32E083E06BEE72E09EEFE1EEF2E04D
:10312000D901833021F4468D4F3F09F4968F4D919C
:103130004F3F31F4ED012197988319964C931997DD
:1031400031966E177F0769F781502A503109811136
:10315000E5CF76CA8CE196E00E944D0AD6CB86E197
:1031600096E0FACF80919B0321E0382F321B08F4C0
:1031700030E0832F6DEF75E00E948409C6CB6DEFC0
:1031800075E080E0F9CF80919B0321E0382F321B5E
:1031900008F430E0832F62EC75E0EECF62EC75E06E
:1031A000F0CF80919B0321E0382F321B08F430E0F0
:1031B000832F60E975E0E0CF60E975E0E2CF8091B0
:1031C0009B0321E0382F321B08F430E0832F68E79F
:1031D00075E0D2CF68E775E0D4CF80919B0321E002
:1031E000382F321B08F430E0832F62E675E0C4CF3D
:1031F00062E675E0C6CF4F925F926F927F928F9298
:103200009F92AF92BF92CF92DF92EF92FF92C090C7
:103210003203D0903303E0903403F09035038FB73E
:10322000F89440905F035090600360906103709049
:1032300062038FBF530142018C189D08AE08BF087E
:103240000E948604609332037093330380933403A7
:1032500090933503A0910903E9E0F3E04A2F50E091
:103260002FEFC20ED21EE11CF11CC418D508E608CF
:10327000F708A51328C040930903209136032111B4
:1032800035C03091C803232F237019F0232F2695C2
:10329000269530911801313009F441C0332341F1B2
:1032A000323009F44BC0333009F453C0FF90EF9033
:1032B000DF90CF90BF90AF909F908F907F906F9056
:1032C0005F904F900895218D328D2901712C612CD2
:1032D000C414D504E604F70420F441505F5F32962D
:1032E000C8CF280D391D328F218FF8CF20E0D1CFE4
:1032F000109215016093970370939803809399033C
:1033000090939A0389E2E9E0F3E0ABE9B3E001903E
:103310000D928A95E1F781E080931801C7CF822F43
:10332000FF90EF90DF90CF90BF90AF909F908F90E5
:103330007F906F905F904F900C94E3122093130155
:103340008091C8038370809312010E94F31083E080
:10335000E3CF8091C703882351F046E050E06CE151
:1033600070E088EC93E00E9482311092C703409194
:103370009703509198036091990370919A032FB726
:10338000F89480915F0390916003A0916103B091E4
:1033900062032FBF841B950BA60BB70B4097A105AB
:1033A000B10508F483CF1092180180CF4F925F923D
:1033B0006F927F928F929F92AF92BF92CF92DF9245
:1033C000EF92FF920F931F93CF93DF93CDB7DEB7AA
:1033D00028970FB6F894DEBF0FBECDBF8E010F5FEA
:1033E0001F4F88E0F80111928A95E9F79DE4E92ED4
:1033F00091E0F92E680121E5422E21E0522E66244B
:103400006394712C4BE5842E41E0942EF701819159
:103410007F018F3F09F445C0F894E82FE295EF70E3
:10342000F0E021A18F70A30102C0440F551F8A95BF
:10343000E2F7CA01922F982B91A392A1809589233C
:1034400082A3789400C0E1E5F1E021E030E0B12C06
:10345000A12C41914F3F09F476C0A42FA295AF70E3
:10346000B0E090968C9190E04F7002C09595879552
:103470004A95E2F780FD67C0C901A82AB92A220F40
:10348000331F8E169F0629F7F701319780818F3FF2
:1034900011F00E94900D50EA5A95F1F7F601B182B1
:1034A000A082F2E0CF0ED11C4E145F0409F0AECF23
:1034B00048E050E0B8018EE592E00E944E31FF24D2
:1034C000F394009709F4F12C892B09F43FC088E0AC
:1034D000F801AEE5B2E001900D928A95E1F781E046
:1034E00080935D020E94920490935C0280935B0241
:1034F00080915B0290915C020E947704059750F1E5
:1035000080915E0290915F029093740280937302A7
:10351000809160029091610290937602809375028F
:103520008091620290916302909378028093770277
:10353000809164029091650290937A02809379025F
:1035400010925D0207C090E080E097CF80915D020D
:103550008111CECF8F2D28960FB6F894DEBF0FBE07
:10356000CDBFDF91CF911F910F91FF90EF90DF9032
:10357000CF90BF90AF909F908F907F906F905F9013
:103580004F9008958091580290915702892B809313
:10359000CE01909159029923A1F0892B8093CE01FD
:1035A000809114018823D9F18091630387FF37C08C
:1035B0008EE1E0EDF1E090E0815098F591110E94EC
:1035C000720F40E250E067E372E08EEC91E00E94FF
:1035D0004E31892B59F180E2EEECF1E0A7E3B2E045
:1035E00001900D928A95E1F7E0915A03F0915B0307
:1035F0003097E1F080911401882359F080916303A2
:1036000087FF07C08091CE018093CF0186E0809331
:10361000CE010280F381E02D8EEC91E0099486E0EA
:10362000C8CF2191222341F29F5FC6CF089590E039
:1036300080E00E94B40490E080E00E949E0410921A
:1036400057020E94C21A86E0E2E8F2E0DF011D9212
:103650008A95E9F710927C0210927B0210927D020B
:103660000C94520C8093CE030C94171B8091CE03C4
:10367000982F9670963019F488600C94321B877FCF
:10368000FCCF21E030E001C0220F8A95EAF72095B7
:103690008091CE0382230C94321B90913602809548
:1036A000892380933602282F277091F4282F082E23
:1036B000000C330B9217130659F09091640392FD9E
:1036C00007C08595859585950E94411B109236020D
:1036D0000895CF93C0916403C2FB992790F998177E
:1036E00099F080FBC2F9C09364036091630384E0A6
:1036F00090E00E9492316C2F82E290E00E94923121
:1037000082E0CF910C944D1BCF91089521E030E0E1
:1037100001C0220F8A95EAF78091CE03822B0C9488
:10372000321B80935A020C94171B109258028091FE
:103730001401E0EDF1E0882359F08091630387FFE5
:1037400007C08EE1DF011D928A95E9F70C94171BE3
:1037500086E0F8CF1F93CF93DF93CDB7DEB7AA975C
:103760000FB6F894DEBF0FBECDBF8FE893E0209177
:10377000F100DC012D93CD01B3E087399B07B9F748
:1037800080919003833009F472C0B8F4813009F459
:1037900049C0823009F4B3C08091E80083FF8BC236
:1037A00080918F03909190039A3008F084C2E92FA2
:1037B000F0E0E85BFD4C0C94E5308A3009F48EC0F3
:1037C0008B3009F471C0893039F780918F038132D1
:1037D00019F78091930390919403009711F0029749
:1037E000D9F68091E800877F8093E8008091E80017
:1037F00082FF38C09091F3008091F200029731F47B
:103800008091F100813011F0863021F48091F10037
:1038100080936A038091E8008B778093E8000E9490
:103820006303BACF80918F03813A09F0B5CF8091BD
:10383000E800877F8093E800809193039091940340
:10384000892B61F460E28BE693E070E00E9415043E
:103850008091E8008B778093E8009ECF60E090E055
:1038600080E0F3CF80918D038111C0CF95CF8091FF
:103870008F03813A09F090CF809193039091940344
:10388000892B09F089CF8091E800877F8093E80039
:103890008091E80080FFFCCF809114018093F100BB
:1038A0008091E8008E77B9CF80918F03813209F043
:1038B00073CF8091930390919403892B09F06CCF7F
:1038C0008091E800877F8093E8000E9463038091E5
:1038D0009103809314010E94951B5ECF80918F030A
:1038E000813209F059CF8091E800877F8093E8000A
:1038F0000E94630380919203809369034DCF80916E
:103900008F03813A09F048CF8091E800877F809348
:10391000E8008091E80080FFFCCF80916903BECF72
:10392000803899F0823809F0C6C1809193038F7076
:10393000873008F0C0C18093E9008091EB0085FBDF
:10394000882780F91092E90006C080918B0390913E
:103950008C03911182609091E800977F9093E8002A
:103960008093F1001092F1008091E8008E779FC162
:10397000882309F48DC1823009F09DC180919103A3
:10398000811190C1809193038F702FEF280F263003
:1039900008F091C18093E9002091EB0020FF82C1E3
:1039A000933031F48091EB0080628093EB007AC118
:1039B0009091EB0090619093EB0021E030E001C02A
:1039C000220F8A95EAF72093EA001092EA0080918C
:1039D000EB008860EACF81116EC1109191031F77CF
:1039E0008091E3008078812B8093E3008091E80050
:1039F000877F8093E8000E9463038091E80080FF46
:103A0000FCCF8091E30080688093E30082E0111195
:103A100083E080938D034FC18058823008F04BC102
:103A200020919103309192032C3DE3E03E07A1F5F4
:103A300083E08A838AE289834FB7F894DE01139684
:103A400020E03EE051E2E32FF0E050935700E49194
:103A500020FF03C0E295EF703F5FEF708E2F90E084
:103A6000EA30C0F0C7968D939D932F5F243159F7AC
:103A70004FBF8091E800877F8093E8006AE270E0A2
:103A8000CE0101960E9415048091E8008B77809307
:103A9000E80011C1C096E7CF809193039091940301
:103AA000432F55274330510509F44AC078F541307A
:103AB000510509F47AC08BE590E0E4E6F4E0423089
:103AC000510509F0F8C02091E800277F2093E80015
:103AD00020919503309196038217930708F49C0177
:103AE00040E02115310509F065C0411163C08091A6
:103AF000E80082FDC9CF80918D03882329F28530AB
:103B000019F28091E80083FFF2CFBECF4132510518
:103B100009F43CC04232510509F0CDC08330910513
:103B200008F0C9C0FC01EE0FFF1FEA58FE4F0190DC
:103B3000F081E02D8D589E4FDC018C9190E01AC0F1
:103B4000332721303105D1F02115310561F02230C4
:103B5000310509F0B0C0E1EDF4E0E4918E2F90E082
:103B6000E1EDF4E007C0E1E0F5E0E4918E2F90E0B4
:103B7000E1E0F5E0009709F49EC0A5CFE9EEF4E09E
:103B8000E4918E2F90E0E9EEF4E0F4CF83309105DC
:103B900008F091C0880F991FFC01E458FE4F019076
:103BA000F081E02D89E090E08ECF82E190E0EFEBB4
:103BB000F4E089CF80918D03882309F465CF8530A7
:103BC00009F462CF8091E80083FD5ECF8091E80028
:103BD00082FD8DCF8091E80080FF83CF9091F3002C
:103BE0008091F2002115310519F08830910550F0CF
:103BF00041E0089709F040E08091E8008E778093DB
:103C0000E8006FCF44914093F10031962150310983
:103C10000196E8CF803809F04EC08091E800877F98
:103C20008093E80080918E038093F1009DCE8111F6
:103C300042C0109191031230F0F58091E800877F27
:103C40008093E80010938E030E946303112311F008
:103C500084E005C08091E30087FDFACF81E0809386
:103C60008D0342E061EC81E00E94820342E261EC5C
:103C700084E00E94820342E261EC82E00E948203BF
:103C800042E260EC83E00E94820380918D0313C0C6
:103C900080919103813079F481E0933009F080E0E4
:103CA00080938C031092E9008091E800877F8093D5
:103CB000E8000E9463038091E80083FF0AC08091BE
:103CC000E800877F8093E8008091EB00806280931A
:103CD000EB00AA960FB6F894DEBF0FBECDBFDF9102
:103CE000CF911F910895882321F00E94780F0C94A2
:103CF000C21A0895882339F090915802982B909316
:103D000058020C94C21A0895882309F452C08238CC
:103D100071F40E94CA0481FF4CC089E30E94AA0F7B
:103D20000E94C21A89E30E947F0F0C94C21A833842
:103D300059F40E94CA0480FF3CC083E50E94AA0F88
:103D40000E94C21A83E5EFCF843859F40E94CA0456
:103D500082FF2FC087E40E94AA0F0E94C21A87E444
:103D6000E2CF9CEF980F913AF0F290E2980F9830E2
:103D700050F4877091E001C0990F8A95EAF7892F76
:103D80000E94780FD2CF9BE5980F933020F490E0FB
:103D900080E00C94B40498E5980F973120F490E0FB
:103DA00080E00C949E04803F20F00E94790C0C94DB
:103DB000520C0895CF93C82F882309F4AEC08238DF
:103DC000C1F40E94CA0481FDA8C089E30E94AA0F21
:103DD0000E94C21A2FEF81EE94E021508040904063
:103DE000E1F700C0000089E30E947F0FCF910C949F
:103DF000C21A8338A1F40E94CA0480FD8EC083E5F4
:103E00000E94AA0F0E94C21A2FEF81EE94E0215067
:103E100080409040E1F700C0000083E5E5CF8438A2
:103E2000A1F40E94CA0482FD78C087E40E94AA0F10
:103E30000E94C21A2FEF81EE94E021508040904002
:103E4000E1F700C0000087E4CFCF8CEF8C0F813A00
:103E500088F580911401882301F18091630387FF25
:103E60001CC0EC2FE695E695E695F0E0E253FE4F98
:103E7000828190E04C2F477021E030E002C0220F99
:103E8000331F4A95E2F782239323892B79F08C2FF5
:103E90000E947F0F0E94C21A09C0E0EDF1E08191FB
:103EA000C817A9F321E0E63DF207C9F78C2F0E945D
:103EB000AA0F9CCF80E28C0F883068F4C77021E095
:103EC00030E001C0220FCA95EAF780915802822B98
:103ED000809358028BCFEBE5EC0FE33040F4F0E039
:103EE000E45EFE4F808190E0CF910C94B404E8E54D
:103EF000EC0FE73150F4F0E0EE0FFF1FE15EFE4FF4
:103F000080819181CF910C949E04C03F30F08C2F22
:103F10000E94340DCF910C94520CCF9108951F93B1
:103F2000CF93DF93182FD0E0C0E0893311F4C0E5C0
:103F3000D0E0812F0E94DA1E209731F4812FDF918B
:103F4000CF911F910C94841E8FE99FE00197F1F7A8
:103F500000C000002197F0CF0F931F93CF93DF9302
:103F6000C62FD42F022FFC0182818823A1F06093F9
:103F7000C6030E9492049093C5038093C403C77044
:103F800081E001C0880FCA95EAF7DF91CF911F91B8
:103F90000F910C947A1E8091C603681335C08091EE
:103FA000C4039091C5030E947704883C910560F595
:103FB00010E21D0FCD17B9F080E28C0F883040F46D
:103FC000C77081E001C0880FCA95EAF70E94731E8E
:103FD000183048F481E09D2F977001C0880F9A95A2
:103FE000EAF70E947A1E802F0E948F1F183098F4E3
:103FF000D77081E001C0880FDA95EAF7DF91CF91A1
:104000001F910F910C94731EC77081E001C0880F3F
:10401000CA95EAF7F3CFDF91CF911F910F910895E1
:1040200090E080E00E947C31893E9E4F11F40C9418
:10403000341280E0089569EE7EEF90E080E00E9407
:10404000B03160E082E090E00E94923160E083E075
:1040500090E00E94923110925A0260E084E090E079
:104060000E94923160E082E290E00E94923160E032
:1040700085E090E00E94923160E086E090E00E944E
:1040800092316FEF87E090E00E94923140E050E083
:10409000BA0188E090E00E94A43160E08DE090E0F9
:1040A0000E94923140E050E0BA0188E190E00E9425
:1040B000A43160E087E190E00E94923140E050E05E
:1040C000BA018CE190E00E94A43170E060E080E2EF
:1040D00090E00E94B03140E050E0BA0188E190E009
:1040E0000E94A43180E00E947F110E94971140E05D
:1040F00050E0BA018FE090E00E94A43140E050E02F
:10410000BA0183E190E00C94A4313F924F925F9208
:104110006F927F928F929F92AF92BF92CF92DF92D7
:10412000EF92FF920F931F93CF93DF9300D000D0B5
:104130000F92CDB7DEB78C01FC0183819481892B6E
:1041400031F08081918189238F3F09F077C50F90ED
:104150000F900F900F900F90DF91CF911F910F91C3
:10416000FF90EF90DF90CF90BF90AF909F908F9097
:104170007F906F905F904F903F9008950E94D9116B
:10418000F82E682F89819A810E94101069817A81A6
:104190008F2D0E94CC117C01F8018281882309F4C3
:1041A00040C5970122513F452031310508F00CC52B
:1041B0008FEF93E00E947431FEEEEF0E57E6852EEE
:1041C000992493948823A1F180913602877009F491
:1041D000BECFF8018281882309F4B9CF80916403AE
:1041E00082FDB5CF82E00F900F900F900F900F904F
:1041F000DF91CF911F910F91FF90EF90DF90CF90C3
:10420000BF90AF909F908F907F906F905F904F90F6
:104210003F900C944D1B811424E09206A9F2C40136
:104220000E947431811101C0EA943FEF831A930A0E
:10423000E110F1CF1C821B82442443944AE0342EC7
:1042400074018FEFE81AF80AC4010E94743189835F
:104250001A82882309F4B8CF9FEF980F933000F5A6
:104260008A83498292E0890E911CC7010E947431B1
:104270008B83882309F4A8CFFE0131967F01F701D3
:1042800020812223E9F2213009F049C09181828105
:10429000913041F4F2E0EF0EF11C0E948F1F09C033
:1042A0004701EACF923049F422E0E20EF11C0E946D
:1042B000DA1E3FEFE31AF30AE2CF933031F432E033
:1042C000E30EF11C0E94841EF4CF943021F08FEF96
:1042D000E81AF80AEECF92E0E90EF11C30E020E097
:1042E000B7016F5F7F4FF70141818053990B8A308F
:1042F000910550F021503109E0F28FE99FE00197DC
:10430000F1F700C00000F6CF329EF001339EF00DB1
:1043100011249C012E0F3F1F842F7B01E1CFE22F40
:10432000F0E0EC50FE4F5490822F8695869586954E
:1043300090E0FC01EC51FE4F64902770712C022E2E
:1043400002C0759467940A94E2F7E1E06E22772444
:10435000FC01EC52FE4FA490B12C022E02C0B59489
:10436000A7940A94E2F7F1E0AF22BB24FC01EC53DE
:10437000FE4FC490D12C02C0D594C7942A95E2F781
:1043800021E0C222DD246114710419F081EE0E9443
:10439000DA1EA114B10419F086EE0E94DA1E852DF2
:1043A0000E948F1FAB2819F086EE0E94841E67289A
:1043B00019F081EE0E94841ECD2809F47ACF8CE298
:1043C0006CCF81E00E94861B0E94361BFDCE81E0EF
:1043D0000E94411BF9CF82E0F5CF95EFE9169CE5ED
:1043E000F90609F46CC008F466C027E245EE66EEF3
:1043F000F6EFEF16FCE5FF0609F40FC4882309F475
:104400002EC41092C60323E0E2162DE5F20608F052
:104410005DC03AEFE3163CE5F30630F4C701825085
:104420009C45449708F05EC00E944D12909364032F
:1044300080936303E1E1EE16ECE5FE0609F436C174
:1044400008F0A4C029E0E2162CE5F20609F41CC12C
:1044500008F06DC085E0E8168CE5F80609F408C19F
:1044600008F056C0E3E0EE16ECE5FE0609F4F6C0EF
:1044700008F0FAC080916303816022E0E2162CE527
:10448000F20609F4EEC060916303F090640384E0E7
:1044900090E00E9492316F2D82E290E00E94923172
:1044A0000E94951B91CE27E245EE65EEB6C326E24B
:1044B00041EE60EEB2C327E245EE64EEAEC326E203
:1044C00041EE62EEAAC328E241E0EFCF81E6E816B2
:1044D0008DE5F80609F4A8CF95EAE9169DE5F906F9
:1044E00009F4A2CF36E1E3163CE5F30609F033C444
:1044F000809158028A7A91E009F490E09093EE015D
:10450000811102C189E20E94AA0F0E94C21A5CCEE8
:1045100080916303806237E0E3163CE5F30609F41B
:10452000A0C008F4ADC08091630380649AC08091FC
:1045300063038B7F9DE0E9169CE5F90609F491C0C1
:10454000B0F4809163038E7FFBE0EF16FCE5FF067D
:1045500009F487C0809163038C602CE0E2162CE59F
:10456000F20608F47EC0809163038D7F7AC080914B
:1045700063038F7E3FE0E3163CE5F30609F471C068
:1045800008F488C0809163038F7D6BC09DEFE916AE
:104590009CE5F90609F486C078F5F5E1EF16FCE52F
:1045A000FF0609F491C0A0F480916303837F33E197
:1045B000E3163CE5F30609F454C008F47BC00E94FE
:1045C000951B90916303892F97FB87F9805849C009
:1045D0009BEFE9169CE5F90609F44EC008F05EC0B1
:1045E000809164038160FAEFEF16FCE5FF0609F0A5
:1045F0004ACF8093640347CF21E0E2162DE5F2060F
:1046000009F46EC0B8F48FEFE8168CE5F80609F4EB
:1046100057C0809164038360E1149DE5F90648F377
:1046200080916403982F909591708E7F892B90FBD9
:1046300081F9DFCFE1E6EE16EDE5FE0609F456C09E
:10464000F5EAEF16FDE5FF0609F457C022E0E21691
:104650002DE5F20609F017CF60E043C080916303B7
:104660008260809363030FCF809163038460F9CFEE
:10467000809163038860F5CF809164038260B9CF35
:10468000809163038061EDCF0E94951B809163034D
:104690008068E7CF80916303877FE3CF80916403D5
:1046A0008E7FA7CF809164038D7FA3CF809163031A
:1046B0008F7BD7CF0E94951B809163038F77D1CFDB
:1046C000809164038C7F95CF8091630382FB99274F
:1046D00090F921E0922790FB82F990FB83F9C1CFFA
:1046E00061E08EE090E00E949231CDCE9091630324
:1046F000892F8F7E94FF8061B4CF90916303892FBF
:104700008E7F90FF8160ADCF85E3FDCE8091EE017D
:10471000811104C089E20E947F0FF7CE85E3FBCFB1
:104720004FE455E068E575E00E94D6044DCD48E5BC
:1047300055E06FE475E0F8CF4DE355E066E475E0D1
:10474000F3CF46E455E06DE375E0EECF45E255E08A
:1047500061E375E0E9CF41E355E065E275E0E4CF60
:1047600049E155E06DE075E0DFCF41EF54E06FEFD8
:1047700074E0DACF4FEF54E061EF74E0D5CF81E021
:104780000E94BD0221CD8DE0FBCF0E94951B8FEFD3
:1047900094E3ECE081509040E040E1F700C000007D
:1047A0000E94CF1081E0FDC280E0FBC2C7010E94E1
:1047B000E80FD82E07C32F2D2F70C22E8F2D807F8C
:1047C00019F0C29490EFC922DD20B9F0CC2069F035
:1047D00080E28E0D883010F0811009C0809158025F
:1047E000C82AC09258020E94C21A8E2D4DC08091D4
:1047F0005702C82AC0925702F6CF8E2D0E94841EFF
:10480000CC2009F443C080E28E0D883010F0811076
:1048100004C08C2D0E94780F06C0C094809157026E
:10482000C822C09257020E94C21A30C03F2D3F706A
:10483000C32E8F2D807F803219F0C29480EFC82262
:10484000882089F081E0881609F47FC0DD2009F412
:1048500089C0BB2009F47FC0F801858180FFC5CFE6
:104860008F70858378C02091640322FF4BC0DD20C8
:1048700009F442C0CC2039F080915802C82AC09275
:1048800058020E94C21A80E00E94DA1E292D285088
:10489000330B2430310510F40E94CA04AA2009F415
:1048A00056CC8091360280FD52CCF801128285955B
:1048B000859585950E94861BC8010E948520809160
:1048C00036028595859585950F900F900F900F90E6
:1048D0000F90DF91CF911F910F91FF90EF90DF909C
:1048E000CF90BF90AF909F908F907F906F905F9090
:1048F0004F903F900C94411B80E00E94841ECC207E
:1049000029F287CFDD20A1F0909159028C2D892BBF
:10491000B11003C00E947A1EB9CFE1E0BE12FACFF7
:1049200022FDB4CF981709F4B1CF80935902AECFCE
:10493000B11006C00E94720F8C2D0E94731EA6CF6C
:10494000F1E0BF1609F4A2CFF5CFDD2031F025E06C
:104950002B1508F49BCF8C2DDDCF34E03B1508F4EC
:1049600095CFEACFBB2041F3F9E38F1209C02FEFB7
:1049700037EE83E0215030408040E1F700C0000076
:104980008E2D0E94841E82CF8F2D869586958370F2
:1049900061F0813009F07ACFC7019370D11002C065
:1049A00090E080E00E949E0471CFC7019370D11007
:1049B00002C090E080E00E94B40468CF8E2DDD201C
:1049C00029F00E94340D0E94520C60CF0E94790C95
:1049D000FACF8F2D837091F5D11058CF4E2D42957F
:1049E00046954770440F440F8E2D8F70042E01C0E2
:1049F000880F0A94EAF72E2D2071E4FE07C02FE0FD
:104A000030E001C0220F4A95EAF720953F2D3695F8
:104A100036953370323069F050F440915A0231309B
:104A200029F0822B84230E94911B30CF842B822B70
:104A3000FACF282B80915A028227F5CF8695DD2068
:104A400011F08F2D8170882309F420CF4E2D4295CF
:104A500046954770440F440F8E2D8F70042E01C071
:104A6000880F0A94EAF72E2D2071E4FE07C02FE08C
:104A700030E001C0220F4A95EAF720953F2D369588
:104A800036953370323069F050F44091CE033130B6
:104A900029F0822B84230E94321BF8CE842B822B98
:104AA000FACF282B8091CE038227F5CF9F2D9F70C0
:104AB000F92EDD2029F0892F0E94861B8E2D2ACF0A
:104AC0008E2D0E94731E8F2D0E94411BDFCE8E2DD6
:104AD000E2EF8E16B1F1E81570F0F0EF8F16D1F01D
:104AE00021EF821691F0DD2009F45EC0B1107DCE79
:104AF0008F2D8F712AC033EF831651F194EF8912F5
:104B0000F2CF8091640382FF2FC08F2D8F71DD2043
:104B1000D9F21BC0DD2081F0E4E0EB1508F4B6CE3D
:104B20002F2D2F7181E090E001C0880F2A95EAF7C0
:104B30009091CE038927AFCFF5E0FB1508F4A6CE00
:104B4000EFCF8F2D8F71D110BFCF0E94861B9ECECD
:104B500080E0DD2009F49FCF9F2D9F7181E001C08F
:104B6000880F9A95EAF797CFDD2099F02F2D2F71B6
:104B7000F22E822F0E94861B8091640382FD07C063
:104B800038E0F39EC00111248360809336028F2D9C
:104B9000DCCF81E00E944D1B81E08B1508F076CEC2
:104BA00082E00E944D1B72CEBB2059F0893309F080
:104BB000E7CE9FEFE7EEF3E09150E040F040E1F701
:104BC000DDCE8F2D8F7180CFF0E1EF16FFE5FF0670
:104BD00009F4F7CB21E1E2162FE5F20609F4FBCB4D
:104BE00093EFE9169CE5F90609F461CC08F0F5CBE2
:104BF000F8EDEF16FCE5FF0609F455CC29EDE216B9
:104C00002CE5F20609F45FCC37EDE3163CE5F3063C
:104C100009F0F4CB26E241EE61EEC8010E94AC1F20
:104C2000D3CA30E1E3163FE5F30609F4D0CB91E1B6
:104C3000E9169FE5F906A1F682E0CACB85E0DE0120
:104C4000119601900D928A95E1F7F80122818981F0
:104C50009A81211193CA0E94E80FF82E97CAF6E1B3
:104C6000EF16FCE5FF0609F451CD809158028272DF
:104C70002AECE2162CE5F20609F472CDE0F595EC8B
:104C8000E9169CE5F90609F457CDE0F4F3ECEF16CC
:104C9000FCE5FF0609F444CD08F049CD32ECE316FB
:104CA0003CE5F30609F07FC08091C80391E08927B5
:104CB0008093C803109218018091C703816080938C
:104CC000C70382CA97ECE9169CE5F90609F43ECDC4
:104CD00008F437CDF8ECEF16FCE5FF0609F43BCD00
:104CE0004DE055E069E175E029ECE2162CE5F206AD
:104CF00009F41ACD58C03FECE3163CE5F30609F47D
:104D000042CDB0F4ECECEE16ECE5FE0609F432CD43
:104D100008F42BCD2DECE2162CE5F20609F42FCD8C
:104D200085E03EECE3163CE5F30609F429CD3BC0F3
:104D300086EDE8168CE5F80640F482E191EDE9167F
:104D40009CE5F90608F41CCD3FCAEDE5EE16FE061B
:104D500009F43ACA28C0FAE5EF16FDE5FF0609F4A2
:104D600021CD68F4E1143CE5F30609F40ECD8EED97
:104D7000E8168CE5F806B9F40E941B2025CA9BE5CD
:104D8000E9169DE5F90609F40FCDECE5EE16EDE523
:104D9000FE0649F48091640382FB882780F991E044
:104DA00089270E94691BF8018281E080F1808823B5
:104DB00009F4FCCCC7010E94D911D82E682FC70175
:104DC0000E941010B7018D2D0E94CC110E94EA0D97
:104DD0007C01882EF801D280B580B2943FE0B322E6
:104DE000809136028770C1F0AD2CDD20B1F08F2D9F
:104DF000807F803421F080E28E0D883068F08091D1
:104E0000640382FD09C082E00E944D1B809136023E
:104E10008770AA24A3948111A12C9F2C92942FE037
:104E20009222FBE0F91508F431CDE92DF0E0EE5ABD
:104E3000FD4C0C94E5301F93CF93DF9380910302D8
:104E4000807FA9F480910002882389F08091350247
:104E5000D09104026091FE017091FF01A0910102C6
:104E6000B0910202C62FC72316E0D81304C0DF9109
:104E7000CF911F91089590E0109711F0CF3F19F452
:104E800001968770F2CF189F9001199F300D112461
:104E9000F901EB5FFD4F41814713F2CF408146138B
:104EA000EFCF42814111ECCF438154814A1B5B0B10
:104EB000483C510528F7809103028F7080618093F0
:104EC0000302F901E65FFD4F80818F70806180836E
:104ED0008EEF91E00E948520DF91CF911F910C947D
:104EE000DE0FAF92BF92CF92DF92EF92FF920F93BD
:104EF0001F93CF93DF93CDB7DEB761970FB6F894CA
:104F0000DEBF0FBECDBF8C0185E0F801DE011D962E
:104F100001900D928A95E1F7F801E2808EEFA82EBC
:104F200081E0B82E60910102709102026115710555
:104F300009F432C19091FE014091FF01892F842331
:104F40008F3F09F429C120813181C380D480F09042
:104F50000002F601E61BF70BFF2009F4E8C0809180
:104F60000302582F507FE83CF10508F0ABC0511107
:104F700077C0FE2C431321C092131FC0E1101DC047
:104F80008F70806180930302C5010E94852080910B
:104F90000302F80185838F2D61960FB6F894DEBF6A
:104FA0000FBECDBFDF91CF911F910F91FF90EF907A
:104FB000DF90CF90BF90AF900895CD2829F0822F39
:104FC00083238F3F09F003C180E0F82FF170DF2EBB
:104FD00080FF3CC0809135024091040256E084136A
:104FE00015C02D873E878D859E850E940812292F2A
:104FF00022952F702230F0F0243018F59F70F1F0D8
:10500000F8019581907FD1F4D12C1EC090E0589F7B
:10501000F001599FF00D1124EB5FFD4F61813613B4
:1050200006C06081261303C06281E6120FC001969C
:105030008770D5CF9F7011F0882331F3805E883060
:1050400018F3C8010E948520FD2CA5CFEE2009F49D
:10505000A2CF80910302816080930302F12C9BCF49
:10506000431306C0921304C0F801EE2009F479C07E
:10507000C8010E941412882309F1EE20F9F08091F2
:105080000302803270F02091FE013091FF013887D9
:105090002F831986DB86CA868C87CE0107960E94ED
:1050A000852086E0F801AEEFB1E001900D928A957F
:1050B000E1F70E941B27FF24F3946DCFC8010E94E3
:1050C0008520F9CF51110AC08EEF91E00E94852012
:1050D00086E0F50111928A95E9F7C0CF43130FC01E
:1050E00092130DC0E1100BC0F8018583C8010E9426
:1050F000852086E0F50111928A95E9F74CCFC80129
:105100000E9414128823D1F2EE20C1F28091030292
:10511000803238F22091FE013091FF013A832983D9
:105120001B82DD82CC828E83CE010196B8CFE83C13
:10513000F105F8F6FE2CEE2009F243131FC092137E
:105140001DC08091030280FD10C0982F907F69F0F0
:10515000F8018583903F31F0982F907F905F8F709A
:10516000892B8583C8010E94852086E0F801AEEF77
:10517000B1E001900D928A95E1F70DCFC8010E9430
:10518000141281118ECF80910302816080930302FB
:10519000C8010E948520FFCEEE2009F48FCFC80100
:1051A0000E941412F82E882309F488CF86E0F801B3
:1051B000AEEFB1E001900D928A95E1F78091FE018A
:1051C0009091FF010E9408120E941B27E4CE81E00B
:1051D0008E25FBCE1F93CF93DF93CDB7DEB76797B6
:1051E0000FB6F894DEBF0FBECDBF4B8B5C8B6D8BC3
:1051F0007E8B8F8B6111109257021A8A198A85E073
:10520000FE017396DE011D9601900D928A95E1F7DD
:1052100086E0FE013D96DE01179601900D928A957B
:10522000E1F7CE0107960E947127882389F016E0E6
:105230008091350290910402891349C067960FB698
:10524000F894DEBF0FBECDBFDF91CF911F910895BF
:1052500086E0FE013796DE01119601900D928A9547
:10526000E1F78A859B85892B11F38F8198858923A6
:105270008F3FE9F22091040230E0C9010196877066
:105280009927409135024817190671F40E94951B21
:10529000109204021092350286E0EEEFF1E0DF0199
:1052A0001D928A95E9F7C3CF96E0929FD001939F14
:1052B000B00D1124AB5FBD4FFE01319601900D92F0
:1052C0009A95E1F7809304020E94DE0FB0CF819F90
:1052D000C00111248B5F9D4F0E947127882309F420
:1052E000ADCF8091350290E0019687709927809329
:1052F00035029ECF1F920F920FB60F9211242F935B
:105300003F934F935F936F937F938F939F93AF934D
:10531000BF93CF93DF93EF93FF93D091E900DF70BA
:105320008091EC00C82FC17080FDC0E81092E900A8
:105330008091F000877F8093F00078940E94AA1BF0
:105340001092E9008091F00088608093F000CD2BEE
:10535000CF70C093E900FF91EF91DF91CF91BF91A2
:10536000AF919F918F917F916F915F914F913F91FD
:105370002F910F900FBE0F901F9018951F920F92B4
:105380000FB60F9211242F933F934F935F936F9318
:105390007F938F939F93AF93BF93EF93FF938091EE
:1053A000E10082FF09C08091E20082FF05C0809188
:1053B000E1008B7F8093E1008091DA0080FF24C0C0
:1053C0008091D80080FF20C08091DA008E7F80938A
:1053D000DA008091D90080FF9DC080E189BD82E123
:1053E00089BD09B400FEFDCF81E080938D038091DB
:1053F0006803811109C00E94E9020E94B4038091F0
:10540000E20084608093E2008091E10080FF17C099
:105410008091E20080FF13C08091E2008E7F809334
:10542000E2008091E20080618093E2008091D800E8
:1054300080628093D80019BC85E080938D038091B1
:10544000E10084FF2BC08091E20084FF27C080E14F
:1054500089BD82E189BD89B5982F917080FFFBCF0E
:105460008091D8008F7D8093D8008091E1008F7E5D
:105470008093E1008091E2008F7E8093E200809132
:10548000E20081608093E20080918E03882309F41A
:1054900047C084E080938D0380918D038091E1006B
:1054A00083FF27C08091E20083FF23C08091E10049
:1054B000877F8093E10082E080938D0310928E03BA
:1054C0008091E1008E7F8093E1008091E2008E7FE9
:1054D0008093E2008091E20080618093E20042E0EC
:1054E00060E080E00E9482038091F00088608093F9
:1054F000F000FF91EF91BF91AF919F918F917F91BC
:105500006F915F914F913F912F910F900FBE0F9030
:105510001F90189519BC10928D031092680374CFD8
:105520008091E30087FD93E090938D03B5CF78944D
:105530001F921FB61F9211248F939F93AF93BF9317
:1055400080915F0390916003A0916103B091620329
:105550000196A11DB11D80935F0390936003A093FA
:105560006103B0936203BF91AF919F918F911F90A0
:105570001FBE1F9018951F921FB61F9211248F9364
:105580009F93AF93BF9380915E03811113C080916D
:105590005F0390916003A0916103B0916203419613
:1055A000A11DB11D80935F0390936003A0936103DD
:1055B000B0936203BF91AF919F918F911F901FBED7
:1055C0001F901895CDB7DEB7AA970FB6F894DEBF37
:1055D0000FBECDBF84B7877F84BF0FB6F894A89560
:1055E00080916000886180936000109260000FBE1F
:1055F00080E890E00FB6F89480936100909361008A
:105600000FBE85B7806885BF85B7806885BF8EE887
:105610009DE09093CD018093CC010E94E9020E940D
:10562000B4038091E20084608093E20078948091DA
:105630008D038823A1F01091E9001F709091EC0078
:10564000892F817090FD80E8182B1092E9008091DD
:10565000E80083FD0E94AA1B1F701093E90082E0FE
:1056600084BD93E095BD9AEF97BD80936E000E9434
:105670003412811102C00E94971183E30E94900DA1
:1056800084E90E94900D81EF0E94900D86E60E94B1
:10569000900D01E511E0D8018D918D018F3F11F042
:1056A0000E94900DB1E00B351B07A9F788E0E3E7F6
:1056B000F2E0DF01282F1D922A95E9F7EEE5F2E0EE
:1056C000DF011D928A95E9F70E941020811102C026
:1056D0000E941B2082E090E00E9474318093660259
:1056E0000E944D1290936403809363030E94D61925
:1056F000EFE3FCE93197F1F700C000000E94D619F2
:105700008091730280FF08C06FEF7FEF90E080E030
:105710000E94B0310E94CF1083E090E00E9474316B
:105720000E94911B10929B038FEF9FEF9093B50304
:105730008093B4039093B7038093B6039093B90317
:105740008093B8039093BB038093BA039093BD03F7
:105750008093BC039093BF038093BE039093C103D7
:105760008093C0039093C3038093C20310920903F4
:105770009093230380932203909325038093240323
:105780009093270380932603909329038093280303
:1057900090932B0380932A0390932D0380932C03E3
:1057A00090932F0380932E039093310380933003C3
:1057B0000E941020811104C00E941B200E94C81268
:1057C00046E050E06CE170E088EC93E00E946431C8
:1057D0001092C7038091C8038C7F11F40E94C812F5
:1057E00055985D9A53985B9AEFE8F1E03197F1F79D
:1057F00000C0000089B185FB882780F94B9929C139
:1058000090E0892B8093710284E091E090935B0398
:1058100080935A0328E1622E712C992493943324A7
:10582000339480918D0393E0F92E00E112E18530ED
:1058300009F45EC10E94D61981110E948604E3E733
:10584000F2E0A7E6B2E0F12CE12C0E2DC190D19050
:105850002D913D912C153D0509F4DFC22C253D25E8
:1058600010E0AA24A394B12CA9014A215B21452B65
:1058700009F4CDC219A30AA3CA20DB2081E0C11418
:10588000D10409F480E08BA30E9492048160782FF8
:105890009DA38CA349A15AA16BA18DA10E94EA28C6
:1058A000F701EE0FFF1FE959FD4F80819181A82676
:1058B000B926B182A082CD2871F08AE08E9DF001D8
:1058C0008F9DF00D1124EE57FE4FE10FF11D8081E9
:1058D0008F3F09F019C1212CC22CD12C80910903D2
:1058E0008C0D9D2D911D09976CF188E090E05C0175
:1058F000AC18BD08B601665F7C4FA5018AE093E055
:105900000E945B31B6016E5E7C4FA50182E193E09F
:105910000E945B31A501440F551FB601660F771F2A
:105920006E5D7C4F82E293E00E945B31B601665E61
:105930007C4FA5018AE193E00E945B3188E08219E7
:10594000809309038091090390E0A82DB0E09D01A8
:10595000220F331F26553E4FAA0FBB1FBD016555B1
:105960007E4F41E0480F921508F4D2C0809309039E
:105970008091C8038C7F8C3709F00DC18FEF800FA9
:10598000DD24D394D00E9FEF910FA1E0A10F9117CA
:1059900080F43AE03E9DF0013F9DF00D1124EF515F
:1059A000FD4FE90FF11D308140E1340F08F43FEF66
:1059B0003083412F50E03AE03E9DB0013F9D700D95
:1059C00011246F517D4FFB01E40FF51F3081B0E2D0
:1059D000232F3B2F230F08F42FEF2083AA3009F445
:1059E000C8C3FB01EA0FF11D308160E1360F08F4F6
:1059F0003FEF308364E0D612A0C0911770F42AE024
:105A0000829FF0011124EF51FD4FE90FF11D20811C
:105A10003DE0230F08F42FEF20833AE0839FC0017D
:105A200011248F519D4FFC01E40FF51F208130E1BF
:105A3000230F08F42FEF2083AA3009F4ACC0A80F7D
:105A4000B92FB11D2C913DE0230F08F42FEF2C93BB
:105A5000A2C092E0D6CE80918D03843009F437C085
:105A60000E94FB188091360381110DC00E94E31241
:105A7000109213018091C8038370809312010E94D9
:105A8000F310F09218013092360310925E03F0E4A6
:105A90000FB6F894A895609260000FBEF093600076
:105AA00083B7817F846083BF83B7816083BF78942D
:105AB000889583B78E7F83BF0FB6F894A8958091A1
:105AC0006000886180936000109260000FBE80913A
:105AD0008C03882369F00E94D619E3E7F2E08191F4
