:100000000C940D020C9454020C9454020C9454025F
:100010000C9454020C9454020C9454020C94540208
:100020000C9454020C9454020C94F21E0C94C61FAF
:100030000C9498180C9454020C9454020C9454028E
:100040000C9454020C9454020C9454020C945402D8
:100050000C9454020C94EF180C9454020C94540217
:100060000C9454020C9454020C9454020C945402B8
:100070000C9454020C9454020C9454020C945402A8
:100080000C9454020C9454020C9454020C94540298
:100090000C9454020C9454020C9454020C94540288
:1000A0000C9454020C9454020C945402165C1E00DE
:1000B0001F0020002100220023002400250026002C
:1000C00027002D002E0031002B0014001A0008001C
:1000D000150017001C0018000C00120013002F0060
:1000E00030002A00390004001600070009000A0049
:1000F0000B000D000E000F003300340028004C00F0
:10010000E1001D001B000600190005001100100091
:10011000360037003800E50001580000E000E30039
:10012000E2000000000000002C00000000000000C1
:10013000E600E700E400000035003A003B003C0028
:100140003D003E003F0040004100420043004400AB
:1001500045004C00010001005200010001000100B7
:100160000100010001000100010001000100010087
:100170000100500051004F0001000100010001008A
:100180000100010001000100010001000100010067
:100190000100010001000100010001000100010057
:1001A0000100010001000000010001000100000049
:1001B000000000000100000000000000010001003C
:1001C000005C000035003A003B003C003D003E0072
:1001D0003F004000410042004300440045004C0005
:1001E00001000100520001000100010001000100B6
:1001F00001000100010001000100010001005000A8
:1002000051004F0001000100010001000100010048
:1002100001000100010001000100010001000100D6
:1002200001000100010001000100010001000100C6
:1002300001000000010001000100000000000000BA
:10024000010000000000000001000100005C00004F
:1002500000000000000000002A2B28000000000021
:100260000000000000000000000000290000000065
:100270002C1E3420212224342627252E362D3738D3
:10028000271E1F202122232425263333362E3738DC
:100290001F0405060708090A0B0C0D0E0F1011129A
:1002A000131415161718191A1B1C1D2F3130232D66
:1002B000350405060708090A0B0C0D0E0F10111264
:1002C000131415161718191A1B1C1D2F3130354C15
:1002D000000000000000000000000000000000001E
:1002E000000000007E0F00D4FFFFFFC70000007871
:1002F000040330000000100347005F004900440081
:1003000042003600300000000A034E006100730016
:10031000700000000403090409025B00030100A04F
:10032000FA09040000010301010009211101000183
:100330002240000705810308000A090401000203A6
:10034000000000092111010001222200070582039B
:100350002000010705030320000109040200010336
:100360000000000921110100012232000705840369
:1003700020000A1201100100000008707008350109
:1003800000010203010660FF0961A1010962150075
:1003900026FF009520750881020963150026FF00DD
:1003A000952075089102C005010980A101850319F6
:1003B000012AB700150126B700950175108100C00C
:1003C000050C0901A101850419012AA002150126C5
:1003D000A002950175108100C005010906A1010563
:1003E0000719E029E7150025019508750181029597
:1003F00001750881010507190029FF150026FF0076
:1004000095067508810005081901290595057501EE
:100410009102950175039101C00011241FBECFEF19
:10042000DAE0DEBFCDBF04B603FE27C080915902DB
:1004300090915A02A0915B02B0915C028730904B80
:10044000A740B04BD1F41092590210925A02109268
:100450005B0210925C0214BE84B7877F84BF0FB624
:10046000F894A89580916000886180936000109254
:1004700060000FBEE0E0F8E3099511E0A0E0B1E014
:10048000E8E0F4E402C005900D92A239B107D9F773
:1004900022E0A2E9B1E001C01D92A935B207E1F75F
:1004A0000E94B71B0C94C7210C94000081E00895B2
:1004B00081E008950C94580208950C945C021F93F7
:1004C000CF93DF9300D000D00F92CDB7DEB7498332
:1004D0005A836B833091AA0189819A8131111DC0A1
:1004E0006623B9F02223A9F00E940216182F682F64
:1004F00089819A810E94AE1569817A81812F0F903E
:100500000F900F900F900F90DF91CF911F910C944F
:100510007F090E94DA15182FEFCF0E940216698119
:100520007A81EDCFFC01262F408151816281738158
:1005300084810C945F02CF93DF93EC0160E00E9412
:100540009202BE01DF91CF910C945D02FF920F9356
:100550001F93CF93DF93E82FF0E0E05BFD4FF49023
:10056000C82FC695C695C695D0E0FE01E052FD4F56
:100570000491877010E0082E02C0159507950A9423
:10058000E2F701701127C053DD4FFE01C491D0E0A6
:1005900002C0D595C7958A95E2F7C170DD27011590
:1005A000110519F081EE0E94B70D209719F086EE23
:1005B0000E94B70D8F2D0E94950ECD2B19F086EE5F
:1005C0000E94460E012B41F081EEDF91CF911F91E9
:1005D0000F91FF900C94460EDF91CF911F910F91D8
:1005E000FF900895EF92FF920F931F93CF93DF93A5
:1005F000EC01162F0AE08881882309F454C0813069
:1006000009F04EC08981813099F47E0122E0E20E2A
:10061000F11C8A810E94950EE7012196812F81505D
:1006200050F3EFE9FFE03197F1F700C00000F7CF9A
:10063000823041F47E0182E0E80EF11C8A810E9442
:10064000B70DEACF833041F47E01E2E0EE0EF11CFB
:100650008A810E94460EE0CF843011F02196DDCFD2
:100660002A81229690E080E0AE014F5F5F4F2053D9
:10067000330B2A30310548F0019778F2EFE9FFE0BB
:100680003197F1F700C00000F7CF089FB001099F34
:10069000700D1124C901860F971F2981EA01E4CF4B
:1006A0000E94A602BACFDF91CF911F910F91FF90C8
:1006B000EF90089560E00C94F2028F929F92AF92B7
:1006C000BF92CF92DF92EF92FF920F931F936B0135
:1006D0007C0181E090E0A0E0B0E04C015D0104C04D
:1006E000880C991CAA1CBB1C4A95D2F7B501A40121
:1006F0004C015D0104C0880C991CAA1CBB1C2A95E6
:10070000D2F7482959296A297B2904C0880F991FE3
:10071000AA1FBB1F0A95D2F78A019B010C211D213C
:100720002E213F21041715072607370789F48C2946
:100730009D29AE29BF29BC01CD011F910F91FF90CA
:10074000EF90DF90CF90BF90AF909F908F900895E3
:1007500080959095A095B0958C219D21AE21BF21CB
:10076000EACF0F93382F262F60911002709111025B
:100770008091120290911302042F432F0E945D0377
:100780000F910C94EC140E9439190E944C1781119E
:1007900002C00E94E9170C9423060C9426060895C3
:1007A0000E9415110E94CF032FEF84E39CE021509B
:1007B00080409040E1F700C000000C9413190F93A3
:1007C0001F93CF93DF93EC0161E00E9492028C01B2
:1007D000BE010E94B607882359F1BE01C8010E94DC
:1007E0005A02882329F1BE01C8010E94D50A882334
:1007F000F9F0BE01C8010E94270B8823C9F0BE0191
:10080000C8010E944A0C882399F08A81882339F014
:1008100001158CE5180751F00E3D1C4579F0CE010D
:10082000DF91CF911F910F910C9456020E94D0033B
:1008300080E0DF91CF911F910F9108950E94E917F9
:10084000F7CF08950C94210481E008950C942404BA
:10085000CF93C82F0E9422048C2FCF910C94260492
:1008600090E080E008950895FC01EE0FFF1FE05135
:10087000FD4F859194910895CF93DF930E947F0956
:100880000E944805EC01811520E5920708F041C05F
:10089000811530E4930708F0B4C0803E910518F547
:1008A000803C910508F09DC0883A910570F4853A26
:1008B000910508F08EC081309105F9F00097E9F0BC
:1008C0000497D8F4D0E0C0E018C08F3B9105D0F772
:1008D000C85AD0E0CC0FDD1FC35FDE4F0990D8812E
:1008E000C02DD4640AC08115904258F4C11581E02E
:1008F000D80718F4C83ED10528F7CE01DF91CF9173
:100900000895C11590E3D90708F071C0CE019F701A
:100910006AC0811525E5920758F5811534E59307DE
:1009200008F09EC0811542E5940750F4C11581E599
:10093000D80708F469C0DC2FCC27C16FD06ADDCF9F
:10094000982F969596959E0123703327C115D34510
:1009500008F077C0C1E0D0E002C0CC0FDD1F2A95BF
:10096000E2F720E2929FC0011124C82BD92B67C067
:10097000C11589E5D807A8F4C11598E5D90708F08D
:1009800074C0C11526E5D20708F09CCF8C2F0E94B9
:10099000DF05C82FD0E0DC2FCC27CC27DF71D06259
:1009A000ACCFC1153AE5D30708F464C0CE01905628
:1009B0008115904208F086CF8D2F8F710E94DF0540
:1009C00090E0982F882788279F719C012C2BE901A4
:1009D000E6CFC55AD0E0C55CDE4FC881D0E0D06418
:1009E0008CCF805C91090E943404EC0186CFCE014B
:1009F0009927D3FF03C0EC01D86C7FCFEC01D06CFA
:100A00007CCFDF70D06A79CFCE01E4E096958795F0
:100A1000EA95E1F783702C2F26952695237090E2B6
:100A2000299F90011124382B8C2F8370C1E0D0E0D6
:100A300002C0CC0FDD1F8A95E2F7C22BD32BDC68F6
:100A40005CCFC1E0D0E002C0CC0FDD1F2A95E2F7F9
:100A500030E2939FC0011124C82BD92BDA684DCF07
:100A6000D82FCC27C46FD06A48CFDC2FCC27C06FDB
:100A7000D06A43CF8C2F8F700E94DF0534E0D6956B
:100A8000C7953A95E1F7CF709C2FEC01D06935CF2F
:100A900082389105B1F1B0F48133910509F475C044
:100AA00048F48932910509F469C08A32910509F444
:100AB00073C008958533910509F459C089339105B0
:100AC00001F10895833E9105A9F138F4803E910526
:100AD000F9F0823E910549F10895863E9105A9F10C
:100AE000873E9105C9F1843E910519F520914B028D
:100AF00021FF1FC080914A0284FD14C087EE90E060
:100B0000089520914A022370A1F080EE90E00895AC
:100B100020914A0220FD47C030914B0230FF09C0AE
:100B200024FF44C090E080E004C020914A0222FDEE
:100B3000F7CF089520914A0222FD3BC030914B022D
:100B400030FDE3CF24FFF5CFEDCF20914A0223FF04
:100B5000F0CF24FDE7CFD2CF20914A0223FD2CC055
:100B600030914B0231FFEECF84EE90E0089520915A
:100B70004A0225FFDECF89E290E0089520914A02E3
:100B800025FFD7CF85E390E0089520914A0226FF04
:100B9000D0CF8AE290E0089520914A0226FFC9CF83
:100BA00081E390E0089589E390E0089583EE90E07A
:100BB000089582EE90E0089586EE90E00895909179
:100BC0004A0292FF06C0282F28712830F9F4877F47
:100BD000846093FF06C0282F28712831F1F4877EA6
:100BE000846120914B0220FF06C0382F38713830C5
:100BF000D9F4877F816021FF06C0282F2871283112
:100C0000D1F4877E816194FD877E0895282F247119
:100C10002430F9F68B7F8860DCCF282F24712431B3
:100C200001F78B7E8861DDCF382F3171313019F7B4
:100C30008E7F8860E0CF282F2171213121F78E7EB1
:100C40008861E1CF08950C94220608950C9425063E
:100C5000E82FF0E0EE0FFF1FE45CFD4F80819181F3
:100C60000895089580EA8A95F1F70895CF93DF9368
:100C7000ACE4B1E041E551E0C1E0D0E08D91E82F76
:100C8000E295EF70F0E061A18F709E0101C0220F2C
:100C90008A95EAF7922F9095962391A382A1822BB1
:100CA00082A34A175B0751F7AEE3B1E061E070E061
:100CB0008D91E82FE295EF70F0E041A18F709B01DC
:100CC00001C0220F8A95EAF7922F9095942391A361
:100CD00082A1822B82A381E0AC34B80749F710923D
:100CE00033021092320210923D0210923C02109296
:100CF00035021092340210923F0210923E0210927E
:100D00003702109236021092410210924002109265
:100D1000390210923802109243021092420210924D
:100D20003B0210923A02109245021092440285E072
:100D30000E942507DF91CF910C94C3038F929F925D
:100D4000AF92BF92CF92DF92EF92FF920F931F93D9
:100D5000CF93DF938CE4E82E81E0F82E02E312E0DB
:100D6000912CAA24A394B12CF70181917F01C82F63
:100D7000C295CF70D0E099A18F70650101C0CC0CF5
:100D80008A95EAF7892F8C2989A38AA18C2C8094D3
:100D900088218AA30E943206EEE3F1E050E040E0B1
:100DA00030E020E06191A62FA295AF70B0E0909660
:100DB0008C9190E06F7002C0959587956A95E2F7E7
:100DC00080FD3EC0C501042E02C0880F991F0A9401
:100DD000E2F7282B392B4F5F5F4F4E30510511F74B
:100DE00089A1882289A28AA1C82ACAA2F801808181
:100DF00091812817390739F13183208381E0982ABE
:100E00000E5F1F4FF1E5EF16F1E0FF0609F0ACCFE2
:100E1000292D45E06CE372E082E392E00E94260710
:100E20000E94CD03892DDF91CF911F910F91FF90EB
:100E3000EF90DF90CF90BF90AF909F908F900895EC
:100E400090E080E0C6CF80E0DACF0895FF920F9364
:100E50001F93CF93DF93F82E092F162FD72FC42F70
:100E6000222349F081E0809394010E94C818909356
:100E7000930180939201809194018823A1F0809145
:100E80009201909193010E94E018069760F0EF2D77
:100E9000F02FA12FBD2F90E080E0D0E08C179D07B0
:100EA00044F010929401DF91CF911F910F91FF9028
:100EB0000895219131912D933D930196EFCF82E2D8
:100EC00090E00E948521813289F483E290E00E94C3
:100ED0008521853059F484E290E00E94852191E0DB
:100EE000823209F090E0892F8170089580E0FCCF74
:100EF000CF93C82F6FEF811161E282E290E00E94F0
:100F000093216FEFC11165E083E290E00E9493218D
:100F10006FEFC11162E284E290E0CF910C949321D3
:100F200080E00E9478070C944617089585E290E0CF
:100F30000E948521682F70E090E080E0089585E2AE
:100F400090E00C9493210E9495070E945F07811105
:100F50000CC060E070E0CB010E949F070E94F70880
:100F60000E94E30981E00C9478070895CF93FB0178
:100F7000C281CC2309F19C0122513F45203131052A
:100F800020F582510E94F309C0E08C2FCF91089583
:100F900081E00E94121543E062E081E00E94B1030B
:100FA000F3CF81E00E94331543E062E081E00E94CC
:100FB000B103EBCF82E0F6CF8031FFE59F0789F3E5
:100FC00081319F45B9F3C1E0E0CF8031EFE59E0765
:100FD000F9F281319F45C9F682E0DBCF2FEFFC01AA
:100FE00020830895EF92FF920F931F93CF93DF9387
:100FF000EC01062FE881E150E33108F05EC0F0E03B
:10100000E753FE4D0C947821198289E08A83602F82
:10101000CE01DF91CF911F910F91FF90EF900C9433
:10102000AB1A8981823069F0833071F08130D9F454
:101030000E94D4180E947E216A837B838C839D83C7
:10104000E6CF0E949607F6CF7E0110E0812F0E9426
:101050002806F701928383831F5FF2E0EF0EF11CF5
:101060001530A1F7D4CF602FCE010E94EE07CFCF6D
:1010700089818230C1F76A817B818C819D810E9448
:101080007E210E949F07C3CF4B816A8189810E9484
:10109000C9089827892798279D838C83B8CF2C81EE
:1010A0003D813227232732274B816A8189810E9423
:1010B000E208ADCF0E94F708AACF8FEF8883A7CFB1
:1010C0000E948C098983A3CF0E948E0998278927C3
:1010D00098279A8389839BCF6B8170E089819A815D
:1010E000AE014C5F5F4F9827892798270E9491098E
:1010F0008ECF6B8170E089819A81AE014C5F5F4F2A
:101100009827892798270E94B80981CF0E94E30970
:101110007ECF0E94B708D6CF6B8170E089819A811B
:10112000AE014C5F5F4F9827892798270E942F09AF
:101130006ECF6B8170E089819A81AE014C5F5F4F09
:101140009827892798270E94550961CF0E94900708
:101150005ECF0E94AB1A2FEF81EE94E021508040C9
:101160009040E1F700C000000E94131950CF84E0C6
:10117000089550E0440F551F9CE1699F400D511D9B
:1011800011249CE8899F400D511D1124CA018696A7
:1011900008950F931F93CF93DF930E94B9088C019A
:1011A0000E948521C82FD0E0DC2FCC27C8010196F2
:1011B0000E9485219E01282BC901DF91CF911F91AB
:1011C0000F9108950F931F93CF93DF93122F032F47
:1011D0000E94B908EC01602F0E949321612FCE017B
:1011E0000196DF91CF911F910F910C949321AF92B3
:1011F000BF92CF92DF92EF92FF921F93CF93DF9334
:101200008CEAC82E80E0D82ED0E07601C0E014C071
:10121000F50125913491412F6C2F8D2F0E94E2080A
:1012200082E0A80EB11C1F5F1E3091F78CE1E80E22
:10123000F11CCF5FC53019F0570110E0E9CFDF5F37
:101240008CE8C80ED11CD43001F7DF91CF911F91EB
:10125000FF90EF90DF90CF90BF90AF900895EF9206
:10126000FF920F931F93CF93DF93EC018A017C01D0
:10127000E60EF71ECE018696CE15DF0539F4DF9116
:10128000CF911F910F91FF90EF900895C03322E00E
:10129000D20740F40E948521F80180830F5F1F4F21
:1012A0002196E8CFF8011082F9CFCF92DF92EF922A
:1012B000FF920F931F93CF93DF937C016A018C0100
:1012C000060F171FEC01CE018696C017D10749F40F
:1012D000DF91CF911F910F91FF90EF90DF90CF9012
:1012E0000895C03322E0D20740F4FE01EE19FF0951
:1012F000EC0DFD1D60810E9493212196E4CF462FC5
:10130000843038F4753028F46E3018F4672F0C945C
:10131000C90890E080E0089580E108958AEA91E0AC
:101320000895EF92FF920F931F93CF93DF93EC01F9
:101330008A017C01E60EF71ECE018A5A9D4FCE151A
:10134000DF0539F4DF91CF911F910F91FF90EF905E
:101350000895CA3A21E0D20740F40E948521F8019D
:1013600080830F5F1F4F2196E7CFF8011082F9CFDE
:10137000CF92DF92EF92FF920F931F93CF93DF9361
:101380007C016A018C01060F171FEC01CE018A5AFD
:101390009D4FC017D10749F4DF91CF911F910F9155
:1013A000FF90EF90DF90CF900895CA3A21E0D207E6
:1013B00040F4FE01EE19FF09EC0DFD1D60810E9455
:1013C00093212196E3CFCF93DF93C6E5D2E060E08F
:1013D000CE010E9493212196C11584E0D807B9F768
:1013E000DF91CF910895DF92EF92FF920F931F93B9
:1013F000CF93DF9300D000D0CDB7DEB7F82E8FE0CB
:101400008F1540F08FEF93E00E94852106E512E0F2
:101410008823C1F00F900F900F900F90DF91CF9124
:101420001F910F91FF90EF90DF900895011584E0D8
:10143000180781F3C8010E948521811101C0FA9427
:101440000F5F1F4FF110F2CF19821A821B821C828C
:10145000DD24D39478018FEFE81AF80AC8010E94BE
:10146000852189831A828823A9F29FEF980F9330F0
:1014700078F48A83D9820E5F1F4FC7010E948521AD
:101480008B83882339F2CE0101960E945A03E2CF62
:101490008701F9CFAF92BF92CF92DF92EF92FF9286
:1014A0000F931F93CF93DF937C015B01C42FD22F47
:1014B000FC0182818823F9F0409397010E94C818AB
:1014C000909396018093950180E28C0F883008F00C
:1014D00061C0C77081E001C0880FCA95EAF7DF914B
:1014E000CF911F910F91FF90EF90DF90CF90BF9021
:1014F000AF900C94A80E10919701141340C08091E6
:101500009501909196010E94E0186C01B701C50108
:101510000E948B13C816D90690F5C0E2CD0F1D1797
:10152000B9F080E2810F883040F4177081E001C08B
:10153000880F1A95EAF70E94AF0EC83048F481E090
:101540009D2F977001C0880F9A95EAF70E94A80E08
:10155000802F0E94950EC830E8F4D77081E001C05A
:10156000880FDA95EAF7DF91CF911F910F91FF90E5
:10157000EF90DF90CF90BF90AF900C94AF0E80E2D1
:101580008C0F883038F4C77081E001C0880FCA958D
:10159000EAF7E9CFDF91CF911F910F91FF90EF9084
:1015A000DF90CF90BF90AF9008950F939C01CB0137
:1015B000233F4CE5340759F1A8F4283DFCE53F07EB
:1015C00001F1293D4CE53407D1F1273D3C4591F42B
:1015D00006E221EE41EE67ED7CE50E944A0A80E0DA
:1015E0000F910895253FFCE53F07E9F0B0F0263F55
:1015F0003C45F9F0FC018281882339F11092970172
:10160000EFCF07E225EE45EE68ED7CE5E6CF06E29A
:1016100021EE40EE63EF7CE5E0CF07E225EE44EEFD
:1016200064EF7CE5DACF06E221EE42EE65EF7CE581
:10163000D4CF07E225EE46EE66EF7CE5CECF08E29A
:1016400021E045EE69ED7CE5C8CF81E0C9CFCF93BD
:10165000DF93EC01FB018281882309F419C1C230B8
:10166000FCE5DF07C0F1C6319CE5D90730F09E01EB
:101670002A5F3C452930310570F50E945F17909331
:101680004B0280934A02C031ECE5DE0709F4CFC07B
:1016900008F05BC0C8308CE5D80709F4B6C088F5FF
:1016A000C430ECE5DE0709F4A8C0C0F4C2308CE514
:1016B000D80709F49CC080914A028260C330DC459F
:1016C00009F498C080914A0290914B020E946D17D4
:1016D0000E94151180E0DF91CF91089580914A0218
:1016E0008061C630ECE5DE0709F484C080914A02CF
:1016F0008860C730DC4508F47DC080914A02806272
:1017000079C0CC308CE5D80709F489C070F4809199
:101710004A028C60CA30ECE5DE0709F46BC008F4BD
:1017200078C080914A028E7F65C0CE308CE5D807A4
:1017300009F479C080914A028B7FCF30DC4508F4F0
:1017400059C080914A028F7E55C0CB3FECE5DE0741
:1017500009F457C030F5C3318CE5D80709F46FC0E0
:1017600078F4C131ECE5DE0709F465C0C231DC452F
:1017700009F0A8CF0E94151180914A028F773AC0D4
:10178000C5318CE5D80709F462C008F476C08091B1
:101790004B028160CA3FDC4509F094CF80934B0235
:1017A00091CFCF3FFCE5DF0709F44DC088F480916D
:1017B0004B028D7FCD3F9CE5D90781F380914B0291
:1017C0008E7FCE3FDC4550F380914B028360E6CFA5
:1017D000C130FDE5DF0709F459C008F444C080E0DA
:1017E000C230DD4509F06ECF0E94EB176BCF8091C0
:1017F0004A02816080934A0265CF80914A028460E8
:10180000F9CF80914B028260C9CF80914A028064F7
:10181000F1CF0E94151180914A028068EBCF809130
:101820004A028D7FE7CF80914A02877FE3CF809184
:101830004A028F7DDFCF80914A028F7BDBCF809180
:101840004A02837FD7CF80914B028C7FA7CF8091B4
:101850004A0282FB992790F921E0922790FB82F9B6
:1018600090FB83F9C7CF80914B02982F9095917090
:101870008E7F892B90FB81F991CF0E941511909159
:101880004A02892F97FB87F98058B4CF81E0ACCF0B
:1018900081E021CFCF93DF93EB0186319C4511F599
:1018A0000E9497169A81992399F08A7A91E009F417
:1018B00090E090939801811109C089E20E9472160C
:1018C0000E94E31680E0DF91CF91089585E3F6CF83
:1018D00080919801811104C089E20E947916F0CFAD
:1018E00085E3FBCF81E0EFCF90939E0180939D0134
:1018F0000895E0919D01F0919E01309721F00190B3
:10190000F081E02D099480E00895E0919D01F0912F
:101910009E01309721F00280F381E02D0994089513
:1019200020919B0130919C012817390771F0909309
:101930009C0180939B01E0919D01F0919E01309765
:1019400021F00680F781E02D0994089520919901F6
:1019500030919A012817390771F090939A0180937A
:101960009901E0919D01F0919E01309721F0008452
:10197000F185E02D0994089585B7806885BF85B706
:10198000806885BF0895089508950C94C30C089548
:101990000C94C70C0E94BC0C0E94C40C0C94C50C87
:1019A00081E008950C94D00C0E94BF180E94360666
:1019B0000E94A3070E944D190C94C80C9F92AF92ED
:1019C000BF92CF92DF92EF92FF920F931F93CF932C
:1019D000DF93CDB7DEB72A970FB6F894DEBF0FBE00
:1019E000CDBF0E949E060E94D20C882309F46DC0D0
:1019F00050EAA52E51E0B52E10E000E0902E802F89
:101A00000E9428066C01F501E190F1905F01E81653
:101A1000F90609F454C08091250281FD0E94310627
:101A200097012C253D2580E0EE24E394F12CA901BB
:101A30004E215F21452BE9F18E839F82CE20DF204E
:101A400081E0CD2809F480E088870E94C818816071
:101A5000782F9A8789874E815F8168858A850E9461
:101A6000880D000F111FF801E056FE4F8081918113
:101A7000E826F926F182E0820E94790C90919F017C
:101A80008917A1F10E94790C80939F012A960FB6C5
:101A9000F894DEBF0FBECDBFDF91CF911F910F91A4
:101AA000FF90EF90DF90CF90BF90AF909F900C94FD
:101AB00028048F5FEE0CFF1C8E3009F0B8CF0F5F4B
:101AC0001F4F0530110509F099CF8FEF89838A8365
:101AD0001B820E94C8188160782F9D838C83498166
:101AE0005A816B818D810E94880DC6CF2A960FB6D0
:101AF000F894DEBF0FBECDBFDF91CF911F910F9144
:101B0000FF90EF90DF90CF90BF90AF909F9008959F
:101B1000CF93DF93CDB7DEB72B970FB6F894DEBF28
:101B20000FBECDBF4F83588769877A878B871E8208
:101B30001D8285E0FE013796DE01119601900D921F
:101B40008A95E1F749815A816B817C818D819E81E3
:101B50002B960FB6F894DEBF0FBECDBFDF91CF91AD
:101B60000C948E13FC01808191810C944416CF93C8
:101B7000C82F882309F488C08238C1F40E94790CE8
:101B800081FD82C089E30E9472160E94E3162FEF46
:101B900081EE94E0215080409040E1F700C00000C9
:101BA00089E30E947916CF910C94E3168338A1F44F
:101BB0000E94790C80FD68C083E50E9472160E9425
:101BC000E3162FEF81EE94E0215080409040E1F742
:101BD00000C0000083E5E5CF8438A1F40E94790CB1
:101BE00082FD52C087E40E9472160E94E3162FEF16
:101BF00081EE94E0215080409040E1F700C0000069
:101C000087E4CFCF8CEF8C0F813AB8F48C2F0E94F1
:101C1000091A811139C06C2F809100019091010146
:101C20000E940218882329F08C2F0E9479160E94A6
:101C3000E3168C2F0E947216B6CF80E28C0F88308C
:101C400048F4C77081E001C0880FCA95EAF70E9486
:101C50009A16A9CFEBE5EC0FE33040F4F0E0E15841
:101C6000FE4F808190E0CF910C94900CC85AC73100
:101C700058F4EC2FF0E0EE0FFF1FEF5AFE4F80817B
:101C80009181CF910C94A60CCF910895882309F4EB
:101C90004BC0823871F40E94790C81FF45C089E302
:101CA0000E9472160E94E31689E30E9479160C9432
:101CB000E316833859F40E94790C80FF35C083E520
:101CC0000E9472160E94E31683E5EFCF843859F420
:101CD0000E94790C82FF28C087E40E9472160E943D
:101CE000E31687E4E2CF9CEF980F913AF0F290E28E
:101CF000980F983050F4877091E001C0990F8A9541
:101D0000EAF7892F0E94A016D2CF9BE5980F933057
:101D100020F490E080E00C94900C885A873120F4F5
:101D200090E080E00C94A60C0895CF93C82F0E94F9
:101D3000B70DC93349F42FEF87EE93E0215080406F
:101D40009040E1F700C000008C2FCF910C94460E1C
:101D5000882321F00E949A160C94E3160895882394
:101D600021F00E94A0160C94E3160895BF92CF9222
:101D7000DF92EF92FF920F931F93CF93DF936C014B
:101D8000D62FC72FFC01058102950F70128111110A
:101D90000E94B7160E949016E82E882391F0112316
:101DA000D1F08C2F807F803421F080E28D0F88303D
:101DB00090F082E00E942E170E94901691E0E82E8B
:101DC000E926BC2EB2949FE0B922EB2DF0E0E4525C
:101DD000FE4D0C947821E12CF4CF0C2F0F70C07FB6
:101DE00011F00295007F1123A9F0002359F080E241
:101DF0008D0F883010F0D11109C0802F0E949A16E3
:101E00000E94E3168D2F0E94B70D14C0802F0E94F0
:101E1000AA16F6CF8D2F0E94460E002359F080E2BD
:101E20008D0F883010F0D1112CC0802F0E94A01689
:101E30000E94E3162B2D2850330B2430310520F45B
:101E40000E94790C0E942804EE2009F493C10E949C
:101E50008C1680FD8FC1F60112820E9486160E94A8
:101E60001215C6010E94DB100E948616DF91CF91E9
:101E70001F910F91FF90EF90DF90CF90BF900C9447
:101E80003315802F0E94B016D3CFFC2FFF70FF2E8A
:101E9000C07FC03219F0F29480EFF822DD2369F0A0
:101EA000D13049F1112391F1002351F1F6018581DF
:101EB00080FFA8CF8F70858323C0112381F001118B
:101EC00006C00E94CA168F290E94A80EB3CF013007
:101ED000C1F70E94CA168F290E94D016ABCF0111FC
:101EE00006C00E94D9168F2D0E94AF0EA3CF0130DD
:101EF00009F4A0CFF6CF112329F0033008F09ACFD0
:101F00008F2DE2CF023008F095CFEDCF002359F3AB
:101F1000D93349F4FFEF27EE33E0F1502040304051
:101F2000E1F700C000008D2F0E94460E83CF8C2F5A
:101F300086958695837069F0813009F07BCF8D2F6F
:101F40009C2F9370111102C090E080E00E94A60CBB
:101F500071CF8D2F9C2F9370111102C090E080E003
:101F60000E94900C67CF8C2F837009F041C0111133
:101F700061CF4D2F429546954770440F440F0D2F6A
:101F80000F7010E030E020E0042E04C0000F111F9D
:101F9000221F331F0A94D2F760E070E0CB01D4FF18
:101FA0000FC06FE070E080E090E004C0660F771F24
:101FB000881F991F4A95D2F76095709580959095E6
:101FC000C695C695C370602B712B822B932BC230A4
:101FD00049F058F4C13019F00E94C4142BCF0E946C
:101FE000B21428CF0E94D61425CF0E94B01422CF5D
:101FF0008695112311F08C2F8170882309F41ACF54
:102000004D2F429546954770440F440F0D2F0F708A
:1020100010E030E020E0042E04C0000F111F221F4A
:10202000331F0A94D2F760E070E0CB01D4FF0FC0F9
:102030006FE070E080E090E004C0660F771F881FBB
:10204000991F4A95D2F76095709580959095C695A1
:10205000C695C370602B712B822B932BC23049F035
:1020600058F4C13019F00E948915E4CE0E9477150A
:10207000E1CE0E949B15DECE0E94EC14DBCECF7029
:10208000112329F08C2F0E9412158D2F1DCF8D2F1B
:102090000E94AF0E8C2F0E943315CCCED23F89F117
:1020A00060F4D03FC9F0D13F29F1112309F442C0B7
:1020B0000111A8CE8C2F8F7121C0D33F39F1D43FAD
:1020C000A1F7112369F1CF718C2F0E94121563E0E3
:1020D0008C2F0E941917AECE112341F0023008F068
:1020E000A9CE8C2F8F710E945615A4CE033008F014
:1020F000A1CEF7CF8C2F8F71112369F20E94121598
:1021000099CE8C2F8F711123C9F3C5CF112329F0DC
:102110008C2F8F710E94FD148DCE0E94F8148ACEF0
:1021200081E00E942E17023008F484CE82E00E94E3
:102130002E1780CE002359F0D93309F0F4CE8FEF5B
:1021400097EEE3E081509040E040E1F7EACE8C2F3B
:102150008F71A1CF4C2F4F706D2FC6010E9430049C
:102160000E94281467CE4C2F4F706D2FC6010E941D
:10217000330460CEDF91CF911F910F91FF90EF90CC
:10218000DF90CF90BF9008950F931F93CF93DF936D
:10219000EC01688179818A810E944E168C010E942F
:1021A000AD150E94AF14B801CE01DF91CF911F9100
:1021B0000F910C94B60ECF93DF93EC018B819C8131
:1021C000892B29F08881998189238F3F59F4DF91E8
:1021D000CF910895CE010E94C410CE01DF91CF911E
:1021E0000C949B02CE010E94DF038111F3CF0E9469
:1021F0009016882361F38A81882349F382E0DF9176
:10220000CF910C942E170E94B7160E94C7160E94F9
:10221000E31690E080E00E94900C90E080E00C9447
:10222000A60C0E9480160C9403110E94A7160C9411
:102230001111E92FE295EF70E250EE3070F4F0E00A
:10224000E451FE4D0C947821803F19F020F4883E33
:1022500020F481E00895843FE1F380E00895883E12
:10226000C0F3813FD1F7F5CF93FB882780F908951C
:102270000E9444160C941911CF93DF9300D000D024
:102280000F92CDB7DEB70F900F900F900F900F9079
:10229000DF91CF910895CF93DF9300D000D000D08D
:1022A000CDB7DEB726960FB6F894DEBF0FBECDBF12
:1022B000DF91CF9108951F93CF93DF93C091AB012E
:1022C00016E08091AC018C1304C0DF91CF911F9177
:1022D0000895D0E01C9FF0011D9FF00D1124E355DF
:1022E000FE4F4081518162817381848195810E947A
:1022F0004B112196C770E5CF4091DD015091DE0171
:102300006091DF017091E0018091E1019091E20123
:102310000C944B111F93CF93DF938091E201807F48
:10232000A9F48091DF01882389F08091AB01C091ED
:10233000AC016091DD017091DE01A091E001B091EE
:10234000E101D62FD72316E0C81304C0DF91CF9147
:102350001F91089590E0109711F0DF3F19F4019656
:102360008770F2CF189F9001199F300D1124F90149
:10237000E355FE4F41814713F2CF40814613EFCF23
:1023800042814111ECCF438154814A1B5B0B4F3A90
:10239000510528F78091E2018F7080618093E201FE
:1023A000F901EE54FE4F80818F70806180838DED46
:1023B00091E00E94DB10DF91CF911F910C945B1193
:1023C000AF92BF92CF92DF92EF92FF920F931F9343
:1023D000CF93DF93CDB7DEB761970FB6F894DEBF2A
:1023E0000FBECDBF8C0185E0F801DE011D96019086
:1023F0000D928A95E1F7F80140815181E2808DEDDF
:10240000C82E81E0D82E6091E0017091E101611544
:10241000710509F461C19091DD012091DE01892FE0
:1024200082238F3F09F458C1A380B480F090DF016C
:10243000F501E61BF70BFF2009F4FCC08091E201D7
:10244000382F307FEF3AF10508F0B2C0311179C072
:10245000FE2C251323C0941321C0E1101FC08F70E0
:1024600080618093E2010E947C11C6010E94DB1012
:102470008091E201F80185838F2D61960FB6F89463
:10248000DEBF0FBECDBFDF91CF911F910F91FF90A7
:10249000EF90DF90CF90BF90AF900895AB2829F0D8
:1024A000842F85238F3F09F033C180E0F82FF1702E
:1024B000DF2E80FF3CC08091AB012091AC0136E063
:1024C000821315C04D875E878D859E850E944416B8
:1024D000292F22952F702230F0F0243018F59F70AC
:1024E000F1F0F8019581907FD1F4D12C1EC090E0DD
:1024F000389FF001399FF00D1124E355FE4F6181A3
:10250000651306C06081641303C062816E110FC041
:1025100001968770D5CF9F7011F0882331F3805ECC
:10252000883018F3C8010E94DB10FD2CA5CFEE20E7
:1025300009F4A2CF8091E20181608093E201F12C45
:102540009BCF251306C0941304C0F801EE2009F4B4
:102550008DC04D875E878D859E850E9438118823AA
:1025600019F1EE2009F18091E201803270F02091A2
:10257000DD013091DE0138872F831986BB86AA865C
:102580008C87CE0107960E94DB1086E0F801ADED46
:10259000B1E001900D928A95E1F70E948A110E94A4
:1025A0007C11FF24F39468CFC8010E94DB10F9CF9F
:1025B000311113C07A2DB98AA88A6E2D89890E949B
:1025C0003C118DED91E00E94DB1086E0F601119246
:1025D0008A95E9F70E947C11B2CF25130FC094139E
:1025E0000DC0E1100BC0F8018583C8010E94DB100B
:1025F00086E0F60111928A95E9F73ECF4D875E8716
:102600008D859E850E943811882371F2EE2061F23B
:102610008091E201803208F4B8CF2091DD01309141
:10262000DE013A8329831B82BD82AC828E83CE0178
:102630000196A9CFEF3AF10508F041C0FE2CEE203B
:1026400009F4B2CF25132AC0941328C08091E20167
:1026500080FD1BC0982F907FC1F0F8018583903FCB
:1026600031F0982F907F905F8F70892B8583C80100
:102670000E94DB1086E0F801ADEDB1E001900D9213
:102680008A95E1F70E947C11F7CE86E0F801ADED66
:10269000B1E001900D928A95E1F7EECE4D875E870D
:1026A0008D859E850E94381181116FCF8091E20146
:1026B00081608093E201C8010E94DB10DDCE7A2D9B
:1026C000B98AA88A6E2D89890E943C1186E0F6019C
:1026D00011928A95E9F7D6CFEE2009F465CF4D87A0
:1026E0005E878D859E850E943811F82E882309F417
:1026F0005BCF86E0F801ADEDB1E001900D928A95D7
:10270000E1F78DED91E00E94B20D0E948A11BACFDF
:1027100081E08E25CBCE8FEA90E008951F93CF9372
:10272000DF93CDB7DEB72C970FB6F894DEBF0FBEA0
:10273000CDBF4F83588769877A878B879C87CE0167
:1027400007960E94E011882369F08A859B85892B72
:1027500039F04F815885842F85238F3F09F071C050
:1027600016E05FC086E0FE013796DE01119601900B
:102770000D928A95E1F78A859B85892B89F38F8154
:10278000988589238F3F61F32091AC0130E0C90126
:102790000196877099274091AB014817190671F48B
:1027A0000E9415111092AC011092AB0186E0EDED84
:1027B000F1E0DF011D928A95E9F7D2CF96E0929F72
:1027C000D001939FB00D1124A355BE4FFE01319649
:1027D00001900D929A95E1F78093AC010E945B11F4
:1027E000BFCF819FC001112483559E4F0E94E011ED
:1027F0008823E9F0E091AB011E9FF0011124E3551D
:10280000FE4F4081518162817381848195810E9454
:102810004B118091AB0190E00196877099278093CE
:10282000AB018091AB019091AC018913DACF2C966A
:102830000FB6F894DEBF0FBECDBFDF91CF911F91D1
:10284000089569857A858B859C850E944B1188CF78
:10285000EF92FF920F931F93CF93DF938C01892BFD
:1028600081F0F12CEE24E394E8012196F8018491A3
:10287000843770F4843008F05FC08130B1F082306A
:10288000A1F1DF91CF911F910F91FF90EF900895EB
:10289000853709F44CC008F43DC09CE7980F903789
:1028A00080F78F770E94460E49C00E5F1F4FFE01D2
:1028B000849190E2980F983060F48770FE2D01C0EB
:1028C000FF0F8A95EAF78F2F0E94BA160E94E3162F
:1028D00002C00E94B70D8F2D815030F2EFE9FFE06A
:1028E0003197F1F700C00000F7CF0E5F1F4FFE01D8
:1028F000849190E2980F983050F48770FE2D01C0BB
:10290000FF0F8A95EAF78F2F0E94C016DFCF0E9433
:10291000460EE1CF0E5F1F4FFE01C491C150D8F2A9
:102920008FE99FE00197F1F700C00000F7CF0E5F3D
:102930001F4FFE01F490CFCF0E94B70D8E01CBCF79
:1029400008950C94A0140E94A11460931402709333
:10295000150280931602909317020C9403110895A8
:102960000C94A3140F931F9300911402109115025D
:102970002091160230911702602B712B822B932B22
:102980001F910F910C94A3140F931F9300911402A5
:1029900010911502209116023091170260237123C5
:1029A000822393231F910F910C94A3140F931F93D1
:1029B0000091140210911502209116023091170215
:1029C00060277127822793271F910F910C94A314DE
:1029D0000C94A0140C94E8140E94EA146093100262
:1029E0007093110280931202909313020C940311BE
:1029F00060E070E0CB010C94EC140F931F9341E066
:102A000050E060E070E08A019B0104C0000F111FDC
:102A1000221F331F8A95D2F7C901B8011F910F9168
:102A20000C94EC140F931F9341E050E060E070E0D1
:102A300004C0440F551F661F771F8A95D2F78091F7
:102A4000100290911102A0911202B09113028A011A
:102A50009B01082B192B2A2B3B2BC901B8011F9175
:102A60000F910C94EC140F931F9341E050E060E041
:102A700070E004C0440F551F661F771F8A95D2F778
:102A8000CB01BA01609570958095909500911002E8
:102A900010911102209112023091130260237123D0
:102AA000822393231F910F910C94EC140F931F9387
:102AB00041E050E060E070E004C0440F551F661F25
:102AC000771F8A95D2F78091100290911102A09100
:102AD0001202B09113028A019B01082719272A27A5
:102AE0003B27C901B8011F910F910C94EC140F936F
:102AF0001F93009110021091110220911202309147
:102B00001302602B712B822B932B1F910F910C942E
:102B1000EC140F931F930091100210911102209159
:102B200012023091130260237123822393231F9199
:102B30000F910C94EC140F931F93009110021091BD
:102B4000110220911202309113026027712782270F
:102B500093271F910F910C94EC1408952EE0929FEF
:102B6000800D1124982F977041E001C0440F9A9571
:102B7000EAF786958695869595E0899FF001112460
:102B8000ED51FE4F90E080E070E05191DF01119730
:102B90009B01082E02C0369527950A94E2F7217012
:102BA00021952527242325272C93019685309105EF
:102BB00061F708952EE0929F800D1124982F977051
:102BC00086958695869525E0829FF0011124ED512A
:102BD000FE4F50E040E080E0219130E0092E02C03D
:102BE000369527950A94E2F721703327042E01C009
:102BF000220F0A94EAF7822B4F5F5F4F4530510551
:102C000059F70895BF92CF92DF92EF92FF920F9300
:102C10001F93CF93DF938C01C0901002D0901102CC
:102C2000E0901202F090130280911402909115022C
:102C3000A0911602B0911702C82AD92AEA2AFB2AC3
:102C4000CFE1D0E0BC2ED701C6010C2E04C0B69552
:102C5000A795979587950A94D2F780FD0EC0219786
:102C600088F7B12C8B2DDF91CF911F910F91FF90A1
:102C7000EF90DF90CF90BF900895B8018C2F0E9405
:102C80003C04019761F3EECFCF93DF93EC010E94F8
:102C90000216BE01DF91CF910C943C041F93CF9399
:102CA000DF93EB019091AA01992331F0CB01DF91E1
:102CB000CF911F910C944416882379F0CB010E9488
:102CC0000216182F682FCE010E94AE15BE01812F6B
:102CD000DF91CF911F910C943C04CB010E94DA1537
:102CE000182FF4CF682F80910001909101010C946E
:102CF0003818682F80910001909101010C943A18C6
:102D000080910001909101010C943C18809118026F
:102D10008595859585950895809118028770089509
:102D200090911802977081E009F480E008958091F5
:102D30002402089590912402892B809324020895FF
:102D400080959091240298239093240208951092E4
:102D50002402089590912302892B809323020895E1
:102D600080959091230298239093230208951092C6
:102D70002302089590912202892B809322020895C4
:102D800080959091220298239093220208951092A8
:102D90002202089580911902089508950C94CD1689
:102DA00090911902981721F0809319020C94CE1675
:102DB000089580911902882329F01092190280E069
:102DC0000C94CE160895E0910001F09101018091DC
:102DD00024028083E0910001F091010180819091B3
:102DE0002302892B8083E0910001F0910101808111
:102DF00090912202892B808390911902992381F06E
:102E0000E0910001F09101018081892B8083809104
:102E10000001909101010E94F01781110E94D916C2
:102E200080910001909101010C94850C08950C94FF
:102E3000161798E0899F90011124622B6093180265
:102E40000E941215809118028595859585950C94A0
:102E500017171092180280E00C941717909118021F
:102E60008095892380931802282F277071F4282FCA
:102E7000082E000C330B9217130639F085958595B3
:102E800085950E9433150C94291708956FEF7FEFF5
:102E900090E080E00C94B12190E080E00E948D21D0
:102EA00021E08C3E9E4F09F020E0822F089582E0C1
:102EB00090E00C94852183E090E00C948521CF93E1
:102EC00084E090E00E948521C82F81E290E00E947A
:102ED0008521982F8C2FCF910895CF93C92F682FDC
:102EE00084E090E00E9493216C2F81E290E0CF91EA
:102EF0000C949321AB01BC018FE090E00C94A521D0
:102F0000AB01BC0183E190E00C94A52160E070E08E
:102F1000CB010C94801760E070E0CB010E947A171F
:102F20000C9486176CEE7EEF90E080E00E94B12159
:102F300060E082E090E00E94932160E083E090E016
:102F40000E94932110921402109215021092160200
:102F50001092170260E084E090E00E94932160E00C
:102F600081E290E00E94932160E085E090E00E9481
:102F7000932160E086E090E00E9493216FEF87E06C
:102F800090E00E94932140E050E0BA0188E090E098
:102F90000E94A52160E08DE090E00E94932140E036
:102FA00050E0BA0188E190E00E94A52160E087E14D
:102FB00090E00E94932140E050E0BA018CE190E063
:102FC0000E94A52160E080E290E00E9493210C9491
:102FD0008B170C949217682F8EE090E00C9493213D
:102FE0009C012E5F3F4FAC01485F5F4F80E024178C
:102FF000350709F40895F90191919F019923B9F3D7
:103000008F5FF5CF662349F0FC0132960896219137
:10301000261729F0E817F907D1F780E0089581E035
:1030200008959C01FC0132969FEF80E04191461784
:1030300051F09F3F19F4411101C0982F8F5F8630E6
:10304000A9F79F3F09F40895290F311D97FD3A957F
:10305000F90162830895FC013296089621912613A6
:1030600003C0DF0111971C92E817F907B9F708951B
:103070000C9411180C942B18029626E0FC01119266
:103080002A95E9F70895089508950C9444180E942C
:10309000451880915002843049F11092260288E14F
:1030A00090E020E40FB6F894A895809360000FBEDE
:1030B0002093600080E00E9428040E94451883B796
:1030C000817F846083BF83B7816083BF7894889554
:1030D00083B78E7F83BF0FB6F894A8958091600068
:1030E000886180936000109260000FBE089508957B
:1030F000CF930E9443180E949E060E947718C0E05A
:103100008C2F0E942806892B31F4CF5FC530C1F780
:1031100080E0CF91089581E0FCCF08950C948D1844
:103120000E9415110E94790C0E9428040C948E189C
:103130001F921FB61F9211248F939F93AF93BF933B
:1031400080912602811113C080914602909147021E
:10315000A0914802B09149024196A11DB11D8093F2
:10316000460290934702A0934802B0934902BF9150
:10317000AF919F918F911F901FBE1F90189582E075
:1031800084BD93E095BD9AEF97BD80936E0008953E
:103190002FB7F8948091460290914702A09148027F
:1031A000B09149022FBF08952FB7F894609146025D
:1031B0007091470280914802909149022FBF089573
:1031C0009C014FB7F8948091460290914702A091DC
:1031D0004802B09149024FBF821B930B0895789427
:1031E0001F921FB61F9211248F939F93AF93BF938B
:1031F0008091460290914702A0914802B091490205
:103200000196A11DB11D8093460290934702A093A1
:103210004802B0934902BF91AF919F918F911F9047
:103220001FBE1F90189581E08093E00080E280939C
:10323000D8001092C9008FE19EE40197F1F700C019
:10324000000087E090EBDC018093590290935A02D2
:10325000A0935B02B0935C0288E19CE00FB6F89407
:10326000A895809360000FBE90936000FFCF0C94F0
:1032700090070E949E068FE39CE90197F1F700C03A
:1032800000000E949E0680E00E94280680FF04C085
:103290000E9437190C94131908950E944C1781113C
:1032A00002C00E94E9170E945717809325020E94CE
:1032B0005F1790934B0280934A020E945B17682F1E
:1032C00070E090E080E00E94B01460911002709174
:1032D000110280911202909113020C94EA140F9340
:1032E0001F9341E050E060E070E08A019B0104C060
:1032F000000F111F221F331F8A95D2F7C901B80191
:103300000E94B0141F910F910C9415118B3109F488
:1033100061C040F58B3071F078F4863009F443C019
:1033200020F4853059F180E00895873009F444C0D5
:103330008830C9F781E00895803109F459C068F4F4
:103340008E3089F790912502892F8B7F92FF8460C0
:103350008093250282FD48C0EDCF863159F3893133
:1033600049F3E1CF8A32E1F060F48732A9F020F42A
:103370008E31C8F28D5111C08932A9F60E94D00356
:10338000D9CF833438F48A33F0F5853329F0883384
:1033900089F2C9CF833439F680E00E946F19CACF11
:1033A0000E94E917C7CF80912502807F8093250274
:1033B00081E080932702089590912502892F8E7FC6
:1033C00090FF81608093250280FDB4CF817F809340
:1033D0002502B0CF90912502892F8D7F91FF8260C9
:1033E0008093250281FFA6CF809125028160EFCFD7
:1033F00090912502892F877F93FF88608093250213
:1034000083FDF2CF97CF8953C8CF80E008950C9405
:10341000051ACF93C82F80912702882331F081307D
:1034200099F01092270280E00DC00E949716823218
:10343000D1F78C2F0E94051A811116C08C2F0E9483
:1034400086198170CF9108950E949716823289F370
:103450008C2F0E94071A811105C0C43171F038F415
:10346000CB3079F781E0EDCF81E090E0EACFC9324F
:1034700021F0C833B9F380E0E4CF10922702FBCFEC
:103480008091300208950895CF93DF9300D00F927A
:10349000CDB7DEB790915002943011F589837B83CC
:1034A0006A839093E9008FEF9091E800815095FD39
:1034B00006C095ED9A95F1F700008111F5CF809146
:1034C000E80085FF0DC050E040E063E070E0CE0111
:1034D00001960E94981C8091E8008E778093E80006
:1034E0000F900F900F90DF91CF910895BC0184E071
:1034F0000C94441ABC0183E00C94441ACF93DF93DC
:10350000EC0181E08093E9008FEF9091E800815019
:1035100095FD06C095ED9A95F1F700008111F5CF64
:103520008091E80085FF14C050E040E068E070E062
:10353000CE010E94981C8091E8008E778093E8006D
:1035400088E0FE01A8E2B2E001900D928A95E1F7D1
:10355000DF91CF910895CF93FC01603221F58091E6
:103560005002843001F5C091E900CF702091EC0049
:10357000922F917020FD90E8C92B82E08093E900A2
:103580008091E80080FF0CC050E040E060E270E015
:10359000CF010E94981C8091E8008E778093E8000C
:1035A000CF70C093E900CF91089580914F028111AF
:1035B00009C00E94771E0E94D41E8091E2008460A0
:1035C0008093E200089510924F020895089508959F
:1035D0000C94901842E061EC81E00E94F31D42E2FD
:1035E00061EC84E00E94F31D42E261EC82E00E9403
:1035F000F31D42E260EC83E00C94F31D80915202D3
:10360000833009F461C030F48130D1F1823009F4A3
:103610009DC008958A3009F489C08B3009F46FC0C9
:10362000893009F050C080915102813209F04BC0BD
:103630008091550290915602009719F0029709F077
:1036400042C08091E800877F8093E8008091E80085
:1036500082FF35C09091F3008091F200029729F427
:103660008091F1008B7F813021F48091F100809373
:1036700030028091E8008B778093E8000C94271E3D
:1036800080915102813AF9F48091E800877F80931C
:10369000E8008091550290915602892B61F468E010
:1036A00088E292E070E00E94361D8091E8008B77FE
:1036B0008093E800089560E090E080E0F3CF80918F
:1036C00050028111C3CF089580915102813AD9F7F8
:1036D0008091550290915602892BA9F78091E800BC
:1036E000877F8093E8008091E80080FFFCCF809185
:1036F0000C018093F1008091E8008E77BDCF80911E
:103700005102813201F78091550290915602892B26
:10371000D1F68091E800877F8093E8000E94271E01
:103720008091530280930C010C94151180915102E9
:10373000813249F68091E800877F8093E8000E94FB
:10374000271E809154028093310208958091510286
:10375000813A09F0B8CF8091E800877F8093E80034
:103760008091E80080FFFCCF80913102C2CFCDB7BD
:10377000DEB7A0970FB6F894DEBF0FBECDBF84B7FB
:10378000877F84BF0FB6F894A89580916000886108
:1037900080936000109260000FBE80E890E00FB64A
:1037A000F89480936100909361000FBE0E94CA0C50
:1037B0000E94771E0E94D41E8091E2008460809354
:1037C000E20078940E945D210E94D40C82E091E096
:1037D0000E94740C13E080915002853039F10E94F0
:1037E000DE0C809150028430B1F71093E900809193
:1037F000E80082FFF0CF8091E80090E085FF09C0EB
:1038000050E040E060E270E0CE0101960E94E71CCB
:1038100091E08091E8008B778093E8009923D9F2BA
:1038200060E2CE0101960E94F207D5CF0E944718B0
:1038300080914E02882379F20E947818882359F2E9
:103840000E94821CC8CF0C94251C292F33272330BB
:10385000310521F168F42130310509F449C02230E5
:10386000310509F44AC090E080E030E020E029C052
:103870002132310581F122323105A9F7633071051A
:1038800090F7FB01EE0FFF1FEB57FE4F20813181B8
:103890006E577E4FFB01808190E013C099278130E5
:1038A000910599F0009741F08230910589F00397D6
:1038B000D1F6E0EFF2E002C0E4E1F3E0849190E0C1
:1038C0009F01FA01318320830895E8E0F3E0F6CF09
:1038D000E6EFF2E0F3CF6330710528F6660F771F4D
:1038E000FB01E557FE4F2081318189E090E0E9CF6F
:1038F00082E190E023E733E0E4CF8BE590E028E13C
:1039000033E0DFCF80E189BD82E189BD09B400FEEB
:10391000FDCF8091D8008F7D8093D8008091E0000A
:1039200082608093E0008091E00081FDFCCF0895EB
:10393000AF92BF92CF92DF92FF920F931F93CF93DC
:10394000DF936C01EB018A010E94461EF82E811163
:1039500023C00115110539F0F80180819181C81B40
:10396000D90BC80ED91EB12CA12C2097A9F080919B
:10397000E80085FD22C08091E8008E778093E80002
:1039800001151105A1F0F80180819181A80EB91EE1
:10399000B182A08285E0F82E8F2DDF91CF911F910B
:1039A0000F91FF90DF90CF90BF90AF9008950E944D
:1039B000461E8823D1F2F82EEFCFF60181916F01D8
:1039C0008093F1002197FFEFAF1ABF0ACECFAF92DD
:1039D000BF92CF92DF92FF920F931F93CF93DF930B
:1039E0006C01EB018A010E94461EF82E811123C052
:1039F0000115110539F0F80180819181C81BD90B9F
:103A0000C80ED91EB12CA12C2097A9F08091E800F6
:103A100085FD22C08091E8008B778093E800011536
:103A20001105A1F0F80180819181A80EB91EB18223
:103A3000A08285E0F82E8F2DDF91CF911F910F91FD
:103A4000FF90DF90CF90BF90AF9008950E94461EE8
:103A50008823D1F2F82EEFCF8091F100F601819307
:103A60006F012197FFEFAF1ABF0ACECFFC01809103
:103A700057029091580286179707A0F061157105BB
:103A800029F49091E8009E779093E80090E061150A
:103A9000710551F4911108C08091E80082FF34C093
:103AA00080E00895BC01F2CF809150028823C1F1DB
:103AB0008530C1F18091E80083FD30C08091E8003D
:103AC00082FDEACF8091E80080FFE1CF8091F30092
:103AD0002091F200382F6115710519F02830310559
:103AE00058F091E02830310509F090E02091E8008D
:103AF0002E772093E800CBCF81918093F100615025
:103B000071092F5F3F4FE7CF80915002882341F02A
:103B1000853041F08091E80083FFBECF81E00895B9
:103B200082E0089583E00895FC018091570290910E
:103B3000580286179707A0F06115710529F4809146
:103B4000E8008E778093E80090E06115710551F4EC
:103B5000911108C08091E80082FF35C080E008958F
:103B6000BC01F2CF809150028823C9F18530C9F1A0
:103B70008091E80083FD31C08091E80082FDEACFAA
:103B80008091E80080FFE1CF8091F3002091F20066
:103B9000382F6115710519F02830310558F091E082
:103BA0002830310509F090E08091E8008E7780930D
:103BB000E800CBCF84918093F10031966150710978
:103BC0002F5F3F4FE6CF80915002882341F0853030
:103BD00041F08091E80083FFBDCF81E0089582E04D
:103BE000089583E00895982F973028F08F70809380
:103BF000E90081E008959093E900242F762F50E0AA
:103C0000981731F07091EC002091ED005091F00088
:103C100021FD02C09F5FE8CF3091EB003E7F3093E3
:103C2000EB003091ED003D7F3093ED003091EB00E3
:103C300031603093EB007093EC002093ED005093D3
:103C4000F0002091EE0027FDE5CF80E008958091FF
:103C5000510287FF13C08091E80082FF06C0809167
:103C6000E8008B778093E80004C0809150028111B6
:103C7000F2CF0895809150028823D9F38091E80013
:103C800080FFF8CF8091E8008E77ECCF2091E400A0
:103C90003091E50095E6A9012091EC00822F81701A
:103CA00020FF06C08091E80080FF06C080E00895F4
:103CB0002091E80022FD1AC080915002882389F0EB
:103CC000853089F08091EB0085FD0FC02091E400E4
:103CD0003091E50042175307F9F29150E1F684E084
:103CE000089582E0089583E0089581E008950E9498
:103CF000E51E0E94ED1EE0EEF0E080818160808391
:103D0000E8EDF0E080818F77808319BCA7EDB0E00B
:103D10008C918E7F8C9380818F7E808310924F0256
:103D200008950F931F93CF93DF930E94E51E0E9487
:103D3000ED1EC8EDD0E088818F7788838881806808
:103D4000888388818F7D888319BC109250021092DD
:103D50004C0210924E0210924D0200EE10E0F8015B
:103D600080818B7F808388818160888342E060E0EE
:103D700080E00E94F31DE1EEF0E080818E7F808381
:103D8000E2EEF0E0808181608083808188608083C2
:103D9000F80180818E7F8083888180618883DF91B4
:103DA000CF911F910F910895E8EDF0E080818F7E13
:103DB0008083E7EDF0E080818160808384E082BFD2
:103DC00081E080934F020C94911EE8EDF0E0808139
:103DD0008E7F80831092E20008951092DA00109294
:103DE000E10008951F920F920FB60F9211242F93A6
:103DF0003F934F935F936F937F938F939F93AF9373
:103E0000BF93EF93FF938091E10082FF0BC08091FD
:103E1000E20082FF07C08091E1008B7F8093E10088
:103E20000E945C218091DA0080FF19C08091D80047
:103E300080FF15C08091DA008E7F8093DA00809138
:103E4000D90080FF96C080E189BD82E189BD09B4B7
:103E500000FEFDCF81E0809350020E94D51A809130
:103E6000E10080FF19C08091E20080FF15C08091C1
:103E7000E2008E7F8093E2008091E2008061809377
:103E8000E2008091D80080628093D80019BC85E060
:103E9000809350020E94E71A8091E10084FF2BC0BA
:103EA0008091E20084FF27C080E189BD82E189BD65
:103EB00089B5982F917080FFFBCF8091D8008F7DBE
:103EC0008093D8008091E1008F7E8093E100809103
:103ED000E2008F7E8093E2008091E2008160809317
:103EE000E20080914C02882309F449C084E0809369
:103EF00050020E94E81A8091E10083FF29C080915E
:103F0000E20083FF25C08091E100877F8093E1007C
:103F100082E08093500210924C028091E1008E7FEB
:103F20008093E1008091E2008E7F8093E200809197
:103F3000E20080618093E20042E060E080E00E9465
:103F4000F31D8091F00088608093F0000E94E61AD3
:103F5000FF91EF91BF91AF919F918F917F916F9161
:103F60005F914F913F912F910F900FBE0F901F9037
:103F7000189519BC109250020E94E31A70CF8091DC
:103F8000E30087FD93E090935002B3CF1F920F920E
:103F90000FB60F9211242F933F934F935F936F931C
:103FA0007F938F939F93AF93BF93CF93DF93EF93C1
:103FB000FF93D091E900DF708091EC00C82FC170B1
:103FC00080FDC0E81092E9008091F000877F809327
:103FD000F00078940E940A201092E9008091F0008D
:103FE00088608093F000CD2BCF70C093E900FF91E3
:103FF000EF91DF91CF91BF91AF919F918F917F9181
:104000006F915F914F913F912F910F900FBE0F9045
:104010001F9018951F93CF93DF93CDB7DEB7AA9764
:104020000FB6F894DEBF0FBECDBF81E592E02091C0
:10403000F100FC012193CF01F2E089359F07B9F728
:104040000E94FE1A8091E80083FF1EC180915102F8
:10405000909152029A3008F017C1E92FF0E0E65033
:10406000FE4D0C947821803899F0823809F00CC10B
:10407000809155028F70873008F006C18093E90067
:104080008091EB0085FB882780F91092E90006C03B
:1040900080914D0290914E02911182609091E800C2
:1040A000977F9093E8008093F1001092F100809147
:1040B000E8008E77E5C0882309F4D3C0823009F088
:1040C000E3C0809153028111D6C0809155028F7058
:1040D0002FEF280F263008F0D7C08093E9002091F9
:1040E000EB0020FFC8C0933031F48091EB00806278
:1040F0008093EB00C0C09091EB0090619093EB0037
:1041000021E030E001C0220F8A95EAF72093EA000F
:104110001092EA008091EB008860EACF8111B4C070
:10412000109153021F778091E3008078812B809358
:10413000E3008091E800877F8093E8000E94271EBB
:104140008091E80080FFFCCF8091E300806880933D
:10415000E30082E0111183E08093500295C0805803
:10416000823008F091C080915302909154028C3DAE
:1041700023E09207A1F583E08A838AE289834FB71F
:10418000F894DE01139620E03EE051E2E32FF0E0E8
:1041900050935700E49120FF03C0E295EF703F5F1A
:1041A000EF708E2F90E0EA30C0F0C7968D939D930C
:1041B0002F5F243159F74FBF8091E800877F8093AC
:1041C000E8006AE270E0CE0101960E94361D8091FF
:1041D000E8008B778093E80057C0C096E7CF6091E6
:1041E000550270915602AE014F5F5F4F0E94231C33
:1041F000BC01892B09F448C09091E800977F909307
:10420000E80089819A810E94941DE1CF8038E1F510
:104210008091E800877F8093E80080914C02809332
:10422000F10045CF811130C090915302923060F57A
:104230008091E800877F8093E80090934C020E9471
:10424000271E80914C02882311F084E005C08091E4
:10425000E30087FDFACF81E0809350020E94EA1AC2
:1042600013C080915302813079F481E0933009F0DA
:1042700080E080934E021092E9008091E800877FF1
:104280008093E8000E94271E8091E80083FF0AC007
:104290008091E800877F8093E8008091EB00806246
:1042A0008093EB00AA960FB6F894DEBF0FBECDBF89
:1042B000DF91CF911F9108950895CF93809150027F
:1042C0008823A1F0C091E900CF709091EC00892F74
:1042D000817090FD80E8C82B1092E9008091E80081
:1042E00083FD0E940A20CF70C093E900CF9108950A
:1042F000EE0FFF1F0590F491E02D09946927962792
:1043000069277827872778270895F999FECF92BDE6
:1043100081BDF89A992780B50895A8E1B0E042E000
:1043200050E00C94B921262FF999FECF92BD81BDA2
:10433000F89A019700B4021639F01FBA20BD0FB6E3
:10434000F894FA9AF99A0FBE08950396272F0E94BF
:1043500094210E949321252F0E949421242F0C94B4
:1043600094210196272F0E9494210C949321DC0123
:10437000CB01FC01F999FECF06C0F2BDE1BDF89A70
:10438000319600B40D9241505040B8F70895F8941A
:10439000FFCF04081108380844084F085A085D0880
:1043A0005D085D08A608A908600864086C0879081B
:1043B000860889088C089908ED0EED0E450F450F0B
:1043C000970F1A0F1A0F1A0FB30F3F104E104E10FF
:1043D000AA101A0F1A0FB310241124112D112D1128
:1043E0002F112D112D112D112411241134112D11E6
:1043F0002D11341133205B2044215B2044218E2079
:08440000AF2044210621122126
:104408001A02401A7E1A431A7A1A761A01E200E949
:1044180000EA00B500B600B700CD008301CC008AE1
:104428000192019401210223022402250226022777
:10443800022A02B300B4006F0070008182833666DE
:104448006794F6F030F1F4F591909395969734359A
:10445800F7E200E900EA00B500B600B700CD008336
:1044680001CC008A01920194012102230224022531
:1044780002260227022A02B300B4006F00700081EE
:104488008283402232D9038503A7032A03430363A7
:0244980003001F
:00000001FF
