:100000000C9408030C944F030C944F030C944F036F
:100010000C944F030C944F030C944F030C944F0318
:100020000C944F030C944F030C944F030C94C6296B
:100030000C94772A0C94A6230C944F030C944F0332
:100040000C944F030C944F030C944F030C94FD231A
:100050000C944F030C944F030C944F030C944F03D8
:100060000C944F030C944F030C944F030C944F03C8
:100070000C944F032B0014001A00090013000A000F
:100080000D000F0018001C0033002A002961040035
:1000900015001600170007000B00110008000C00E7
:1000A00012003400E1001D001B00060019000500CD
:1000B0000E00100036003700380028003500E3003D
:1000C0000000E2002C0000002C0000004C05E600BF
:1000D0000000390035021E021F0220022102220206
:1000E000230224022502260227022A0038001E00CD
:1000F0001F002000210022002300240025002600EC
:100100002700310001000100010001000100010091
:10011000010057002E0001000100010029004C05DC
:100120000000290301000000010000006400350008
:100130000000010001000100010052000100010067
:1001400001002D0201002F0030000100010001001C
:10015000500051004F00010001002D0001002F024E
:10016000300201003A003B003C003D003E003F00F1
:10017000400041004200430044004500005C010093
:10018000000001000100000001000000010001006A
:100190000000010001000100010052000100010007
:1001A00001002D0201002F003000010001000100BC
:1001B000500051004F00010001002D0001002F02EE
:1001C000300201003A003B003C003D003E003F0091
:1001D000400041004200430044004500005C010033
:1001E000000001000100000001000000010001000A
:1001F0000000010000000000000000002A2B280081
:1002000000000000000000000000000000000029C5
:10021000000000002C1E3420212224342627252E05
:10022000362D3738271E1F2021222324252633333D
:10023000362E37381F0405060708090A0B0C0D0E69
:100240000F101112131415161718191A1B1C1D2F35
:100250003130232D350405060708090A0B0C0D0E55
:100260000F101112131415161718191A1B1C1D2F15
:100270003130354C0000000000000000000000009C
:1002800000000000000000007E0F00D4FFFFFFC749
:100290000000007832190A00047F3F1F64321464A2
:1002A0003214783C1E1E140A052223252628292AEA
:1002B0002C2D2F3032333536383A3B3D3E404243C9
:1002C0004547494A4C4E5051535557595A5C5E6008
:1002D00062646668696B6D6F71737577797B7D7F1A
:1002E00081838587898A8C8E90929496989A9C9E19
:1002F0009FA1A3A5A7A8AAACAEAFB1B3B4B6B8B935
:10030000BBBCBEBFC1C2C3C5C6C7C9CACBCCCDCE9C
:10031000D0D1D2D2D3D4D5D6D7D7D8D9D9DADADB7F
:10032000DBDBDCDCDCDCDCDDDDDDDDDCDCDCDCDC0B
:10033000DBDBDBDADAD9D9D8D7D7D6D5D4D3D2D24A
:10034000D1D0CECDCCCBCAC9C7C6C5C3C2C1BFBE32
:10035000BCBBB9B8B6B4B3B1AFAEACAAA8A7A5A39D
:10036000A19F9E9C9A98969492908E8C8A8987855C
:1003700083817F7D7B79777573716F6D6B6968663B
:100380006462605E5C5A5957555351504E4C4A490D
:1003900047454342403E3D3B3A3836353332302FB5
:1003A0002D2C2A292826252322FFAA7F554000012B
:1003B0000101010101010101020202020202020225
:1003C00002030303030303030304040404040404F7
:1003D00005050505050606060606070707070708BB
:1003E000080808090909090A0A0A0B0B0B0C0C0C6E
:1003F0000D0D0D0E0E0E0F0F0F1010111111121208
:1004000013131414151516161717181819191A1A84
:100410001B1B1C1D1D1E1E1F2020212222232424E5
:10042000252626272829292A2B2C2D2D2E2F303121
:100430003232333435363738393A3B3C3D3E3F4033
:100440004142434445464748494A4C4D4E4F50511E
:100450005354555658595A5B5D5E5F6162646566D8
:1004600068696B6C6D6F7072737577787A7B7D7E5F
:100470008082838587888A8C8E8F91939596989AAF
:100480009C9EA0A2A3A5A7A9ABADAFB1B3B5B7BAC7
:10049000BCBEC0C2C4C6C9CBCDCFD1D4D6D8DBDD9B
:1004A000DFE2E4E7E9EBEEF0F3F5F8FAFDFF040331
:1004B00030000000100351005500410052004B0075
:1004C000B20000000A034E006100730070000000DB
:1004D0000403090409025B00030100A0FA090400F7
:1004E0000001030101000921110100012240000760
:1004F00005810308000A0904010002030000000945
:1005000021110100012222000705820320000107BA
:100510000503032000010904020001030000000993
:100520002111010001226D000705840320000A1239
:100530000110010000000870704253010001020325
:10054000010660FF0961A1010962150026FF0095FF
:1005500020750881020963150026FF0095207508A3
:100560009102C005010980A101850319012AB70084
:10057000150126B700950175108100C0050C090111
:10058000A101850419012AA002150126A0029501E6
:1005900075108100C005010906A10185050507192F
:1005A000E029E71500250195087501810205071965
:1005B0000029EF1500250195F07501810205081944
:1005C000012905950575019102950175039101C0F9
:1005D00005010906A101050719E029E71500250114
:1005E00095087501810295017508810105071900BB
:1005F00029FF150026FF00950675088100050819DA
:10060000012905950575019102950175039101C0B8
:1006100011241FBECFEFD4E0DEBFCDBF04B603FE72
:1006200027C08091380390913903A0913A03B0918B
:100630003B038730904BA740B04BD1F41092380366
:100640001092390310923A0310923B0314BE84B700
:10065000877F84BF0FB6F894A89580916000886169
:1006600080936000109260000FBEE0E0F8E309950F
:1006700011E0A0E0B1E0EEE5FCE502C005900D92CE
:10068000A03DB107D9F723E0A0EDB1E001C01D9274
:10069000A833B207E1F70E94A7260C949F2D0C9473
:1006A0000000CF93DF939C013A9521153F4168F5F7
:1006B000EC01CC27D170DC01AA27B270AC01442731
:1006C00054709C012227387094FF11C080E1CD2B1B
:1006D00009F480E0AB2B09F08062452B09F08064BF
:1006E000232B09F08068FB01DF91CF91099481E011
:1006F000CD2B09F480E0AB2B09F08260452B09F08B
:100700008460232B81F38860EECFDF91CF91089531
:10071000CF93DF93EC01805E9109089720F06EE79C
:100720007BE1209711F463E279E1CE010E9451034D
:100730008C2FDF91CF910C943218CF93DF93EC0183
:100740000E94C118CE01805E9109089720F065E8EB
:100750007BE1209711F46AE279E1CE01DF91CF913C
:100760000C945103CF93DF93EC010E948803CE01D8
:10077000DF91CF910C949D0381E0089581E008956D
:100780000C94BE0308950C94C2031F93CF93DF9380
:1007900000D000D00F92CDB7DEB749835A836B8368
:1007A0003091380289819A8131111DC06623B9F0D8
:1007B0002223A9F00E94A420182F682F89819A81F2
:1007C0000E94412069817A81812F0F900F900F90B4
:1007D0000F900F90DF91CF911F910C9445130E94C1
:1007E0007820182FEFCF0E94A42069817A81EDCF65
:1007F000FC01262F408151816281738184810C9498
:10080000C503CF93DF93EC0160E00E94F803BE01C3
:10081000DF91CF910C94C303FF920F931F93CF935B
:10082000DF93E82FF0E0EC50FE4FF490C82FC69510
:10083000C695C695D0E0FE01EC57FD4F0491877038
:1008400010E0082E02C0159507950A94E2F7017092
:100850001127CC58DD4FFE01C491D0E002C0D595E0
:10086000C7958A95E2F7C170DD270115110519F0CA
:1008700081EE0E943218209719F086EE0E943218FD
:100880008F2D0E941019CD2B19F086EE0E94C118F1
:10089000012B41F081EEDF91CF911F910F91FF90DD
:1008A0000C94C118DF91CF911F910F91FF90089583
:1008B000EF92FF921F93CF93DF93EC01162F888165
:1008C000882309F451C0813009F04BC089818130FF
:1008D00099F47E0122E0E20EF11C8A810E94101937
:1008E000E7012196812F815050F3EFE9FFE0319726
:1008F000F1F700C00000F7CF823041F47E0182E0C2
:10090000E80EF11C8A810E943218EACF833041F44C
:100910007E01E2E0EE0EF11C8A810E94C118E0CF58
:10092000843011F02196DDCF2A81229690E080E07C
:10093000FE0131962053330B2A30310548F00197E0
:1009400080F2EFE9FFE03197F1F700C00000F7CF48
:100950006AE070E00E94322C820F931F2981EF0120
:10096000E7CF0E940C04BDCFDF91CF911F91FF9084
:10097000EF90089560E00C9458048F929F92AF928C
:10098000BF92CF92DF92EF92FF920F931F936B0172
:100990007C0181E090E0A0E0B0E04C015D0104C08A
:1009A000880C991CAA1CBB1C4A95D2F7B501A4015E
:1009B0004C015D0104C0880C991CAA1CBB1C2A9523
:1009C000D2F7482959296A297B2904C0880F991F21
:1009D000AA1FBB1F0A95D2F78A019B010C211D217A
:1009E0002E213F21041715072607370789F48C2984
:1009F0009D29AE29BF29BC01CD011F910F91FF9008
:100A0000EF90DF90CF90BF90AF909F908F90089520
:100A100080959095A095B0958C219D21AE21BF2108
:100A2000EACF0F93382F262F60918F02709190029A
:100A30008091910290919202042F432F0E94BD0455
:100A40000F910C947F1F0E9447240E94F121811175
:100A500002C00E948E220E9425140C94A6070C94BA
:100A6000A907282F2F7041F0822F90E02A3010F430
:100A70004D9608950697089587E290E008950895A9
:100A80000E949E1B0E943F052FEF84E39CE02150B3
:100A900080409040E1F700C000000C9421240F93A7
:100AA0001F93CF93DF93EC0161E00E94F8038C0168
:100AB000BE010E9413118823B9F1BE01C8010E9432
:100AC000C003882389F1BE01C8010E949C148823B9
:100AD00059F1BE01C8010E944515882329F1BE01C4
:100AE000C8010E9497158823F9F0BE01C8010E9431
:100AF000BA168823C9F0BE01C8010E941F108823BE
:100B000099F08A81882339F001158CE5180751F096
:100B10000E3D1C4579F0CE01DF91CF911F910F91D1
:100B20000C94BC030E94400580E0DF91CF911F919F
:100B30000F9108950E948E22F7CF08950C949D0581
:100B400081E008950C94A005CF93C82F0E949E05C4
:100B50008C2FCF910C94A20590E080E00895089529
:100B6000FC01EE0FFF1FEC56FD4F85919491089507
:100B7000CF93DF930E9445130E94CB06EC018115B1
:100B800020E5920708F041C0811530E4930708F092
:100B9000B6C0803E910518F5803C910508F0A0C0D4
:100BA000883A910570F4853A910508F091C081303A
:100BB000910501F10097F1F00497E0F4D0E0C0E076
:100BC00019C08F3B9105D0F7C85AD0E0CC0FDD1F7C
:100BD000CC5DDE4F0990D881C02DD4640BC0811547
:100BE00040E2940758F4C11581E0D80718F4C83ED4
:100BF000D10520F7CE01DF91CF910895811520E333
:100C0000920708F073C09F706DC0811535E593079A
:100C100070F5811544E5940708F0A5C0C11582E57B
:100C2000D80750F4C11521E5D20708F46BC0DC2FBA
:100C3000CC27C16FD06ADECF9C2F969596959E01EA
:100C400023703327C115D34508F07BC0C1E0D0E045
:100C500002C0CC0FDD1F2A95E2F7892F90E0E5E076
:100C6000880F991FEA95E1F7C82BD92B68C0C115E9
:100C700089E5D807A8F4C11528E5D20708F078C09F
:100C8000C11536E5D30708F099CF8C2F0E94620773
:100C9000C82FD0E0DC2FCC27CC27DF71D062AACFC1
:100CA000C1154AE5D40708F468C0CE0190568115F5
:100CB000904208F083CF8D2F8F710E94620790E0E1
:100CC000982F882788279F719C012C2BE901E6CF5C
:100CD000C55AD0E0CE5ADE4FC881D0E0D0648ACF6A
:100CE000805C91090E94B005EC0184CF9927D3FF65
:100CF00003C0EC01D86C7ECFEC01D06C7BCFDF70F1
:100D0000D06A78CFCE01A4E096958795AA95E1F7B1
:100D100083702C2F26952695237030E0B5E0220FA6
:100D2000331FBA95E1F7382B8C2F8370C1E0D0E0E8
:100D300002C0CC0FDD1F8A95E2F7C22BD32BDC68F3
:100D400059CFC1E0D0E002C0CC0FDD1F2A95E2F7F9
:100D5000892F90E075E0880F991F7A95E1F7C82BED
:100D6000D92BDA6847CFD82FCC27C46FD06A42CFAF
:100D7000DC2FCC27C06FD06A3DCF8C2F8F700E94A4
:100D8000620734E0D695C7953A95E1F7CF709C2F6E
:100D9000EC01D0692FCF82389105B1F1B0F48133E5
:100DA000910509F475C048F48932910509F469C0C8
:100DB0008A32910509F473C008958533910509F4C9
:100DC00059C08933910501F10895833E9105A9F138
:100DD00038F4803E9105F9F0823E910549F108957D
:100DE000863E9105A9F1873E9105C9F1843E9105A2
:100DF00019F520912A0321FF1FC08091290384FD4A
:100E000014C087EE90E00895209129032370A1F08B
:100E100080EE90E008952091290320FD47C0309195
:100E20002A0330FF09C024FF44C090E080E004C0E2
:100E30002091290322FDF7CF08952091290322FD57
:100E40003BC030912A0330FDE3CF24FFF5CFEDCF37
:100E50002091290323FFF0CF24FDE7CFD2CF2091AB
:100E6000290323FD2CC030912A0331FFEECF84EEFD
:100E700090E008952091290325FFDECF89E290E0DC
:100E800008952091290325FFD7CF85E390E00895A9
:100E90002091290326FFD0CF8AE290E00895209187
:100EA000290326FFC9CF81E390E0089589E390E00C
:100EB000089583EE90E0089582EE90E0089586EE26
:100EC00090E008959091290392FF06C0282F287181
:100ED0002830F9F4877F846093FF06C0282F28719B
:100EE0002831F1F4877E846120912A0320FF06C017
:100EF000382F38713830D9F4877F816021FF06C0E0
:100F0000282F28712831D1F4877E816194FD877E56
:100F10000895282F24712430F9F68B7F8860DCCF68
:100F2000282F2471243101F78B7E8861DDCF382F83
:100F30003171313019F78E7F8860E0CF282F217111
:100F4000213121F78E7E8861E1CF08950C94A507A9
:100F500008950C94A807E82FF0E0EE0FFF1FE7516B
:100F6000FD4F808191810895089580EA8A95F1F777
:100F70000895CF93DF93A1E6B1E045E651E0C1E0EB
:100F8000D0E08D91E82FE295EF70F0E061A18F70D5
:100F90009E0101C0220F8A95EAF7922F9095962321
:100FA00091A382A1822B82A34A175B0751F7A5E583
:100FB000B1E041E651E0C1E0D0E08D91E82FE2954B
:100FC000EF70F0E061A18F709E0101C0220F8A9541
:100FD000EAF7922F9095962391A382A1822B82A368
:100FE0004A175B0751F71092E2021092E102109249
:100FF000EA021092E9021092E4021092E3021092C7
:10100000EC021092EB021092E6021092E5021092AE
:10101000EE021092ED021092E8021092E702109296
:10102000F0021092EF0284E00E94A108DF91CF91BC
:101030000C9423058F929F92AF92BF92CF92DF9232
:10104000EF92FF920F931F93CF93DF9381E6E82EE9
:1010500081E0F82E01EE12E0912CAA24A394B12C89
:10106000F70181917F01C82FC295CF70D0E099A17F
:101070008F70650101C0CC0C8A95EAF7892F8C2905
:1010800089A38AA18C2C809488218AA30E94B50709
:10109000E5E5F1E050E040E030E020E06191A62F8E
:1010A000A295AF70B0E090968C9190E06F7002C006
:1010B000959587956A95E2F780FD3EC0C501042E9F
:1010C00002C0880F991F0A94E2F7282B392B4F5F33
:1010D0005F4F4C30510511F789A1882289A28AA15E
:1010E000C82ACAA2F801808191812817390739F1ED
:1010F0003183208381E0982A0E5F1F4FF5E6EF16BB
:10110000F1E0FF0609F0ACCF292D44E069EE72E072
:1011100081EE92E00E94A2080E942F05892DDF91A6
:10112000CF911F910F91FF90EF90DF90CF90BF90E4
:10113000AF909F908F90089590E080E0C6CF80E0C0
:10114000DACF0895FF920F931F93CF93DF93F82E7A
:10115000092F162FD72FC42F222349F081E0809327
:10116000D2010E94D6239093D1018093D001809127
:10117000D2018823A1F08091D0019091D1010E94E9
:10118000EE23069760F0EF2DF02FA12FBD2F90E0FA
:1011900080E0D0E08C179D0744F01092D201DF91DF
:1011A000CF911F910F91FF900895219131912D932F
:1011B0003D930196EFCFEF92FF920F931F93CF9342
:1011C000DF93982F711111C0442329F0E82FF0E02C
:1011D000E255FC4F9491692F792F892FDF91CF91A0
:1011E0001F910F91FF90EF900895262F30E0C72FA9
:1011F000D0E0E82FF0E0442321F0E255FC4FE491E9
:10120000F0E0C90166E070E00E94322C0FEF10E0C0
:10121000B8010E94762CDB01220F331FCB0165E55C
:1012200070E00E94322C281B390BE22EEE0CE20EED
:10123000C8018C1B9D0BBF010E94322C292FF12C61
:10124000C701BE010E94322C492F50E0C801841B07
:10125000950BBF010E94322C392FC8018E199F09AE
:10126000BE010E94322C492F50E0C801841B950B0F
:10127000BF010E94322C892F7E2FA230B10589F048
:1012800038F4109759F0119781F0922F232F06C050
:10129000A430B10569F080F01697B9F7692F822F55
:1012A0009DCF9E2F722F282FF9CF9E2F732FF6CF11
:1012B000922F2E2F782FF2CF722F2E2F932FEECF2B
:1012C00041E00C94DB080895CF93DF93762FE9017A
:1012D000682F842F0E946009798368838A83DF9155
:1012E000CF9108958091F102982F9E7F29F481700B
:1012F00082608093F10208958635E8F381708465F9
:10130000F8CF88E090E00C94402DCF92DF92EF92DE
:10131000FF926B017C010E947209B701A60188E06F
:1013200090E0FF90EF90DF90CF900C945E2D609155
:10133000F1027091F2028091F3029091F4020C9408
:101340008509E1EFF2E083E0808311828FEF8283F1
:101350008383148260817181828193810C948509D9
:101360008091F10280FF02C08695089580E0089583
:101370009091F502933018F49F5F9093F5028823C3
:1013800051F06091F1027091F2028091F30290911C
:10139000F4020C948509089581E00C94B8099091A9
:1013A000F502992319F091509093F502882351F09A
:1013B0006091F1027091F2028091F3029091F40237
:1013C0000C948509089581E00C94CF098091F50271
:1013D00008958093F502662351F06091F1027091B7
:1013E000F2028091F3029091F4020C948509089521
:1013F00060E00C94E9098091F20208958091F30273
:1014000008958091F402089570E00C948F1030914B
:1014100008018091F10280FF0CC08091070190E0EB
:1014200063E070E00E94322C632F8A509D4F0C9431
:10143000040A2091090140910A01822F90E063E0A3
:1014400070E00E94322CFC01EA50FD4F241728F76F
:101450001182108212822F5F3396F8CFA82FB62FF9
:101460008091F10280FF17C02091090130910A019B
:10147000822F90E063E070E00E94322CFC01EA5081
:10148000FD4F231710F00C94070AA183B083428309
:101490002F5F3396F6CF0895CF93DF9300D00F924E
:1014A000CDB7DEB79091F10290FF0AC09E012F5F89
:1014B0003F4F0E9464094B8169818A810E942E0AF4
:1014C0000F900F900F90DF91CF910895CF93DF93FE
:1014D000EC01EC81F0E0E755FD4F4491E1EFF2E0E3
:1014E000628181810E944C0A8C818F5F8C83DF91A5
:1014F000CF910895CF93DF93EC01E1EFF2E04381C8
:1015000062818C810E944C0A8C818F5F8C83DF9179
:10151000CF9108950F931F93CF93DF9300D00F9235
:10152000CDB7DEB78C018091D30181110AC09E0135
:101530002F5F3F4F4FEF6FEF0E9464098A818093C6
:10154000D301F8016481613069F08091D30140E0FA
:10155000662361F040E0623011F44091D30180E0F5
:1015600060E004C06091D30140E080E00E942E0A58
:10157000F801848190E0019663E070E00E948A2C7B
:1015800084830F900F900F90DF91CF911F910F9157
:101590000895AF92BF92CF92DF92EF92FF920F9396
:1015A0001F93CF93DF9300D00F92CDB7DEB7182FE4
:1015B000F62E042FE22E9091F10290FF29C0E92F20
:1015C000E695AE2FB0E0AB59BE4F8C9180932302CD
:1015D0009E7F923059F59E012F5F3F4F812F0E94D1
:1015E00064094B8169818A810E942E0A1093F2025C
:1015F000F092F3020093F402EE2051F06091F102B8
:101600007091F2028091F3029091F4020E94850998
:101610000F900F900F90DF91CF911F910F91FF903E
:10162000EF90DF90CF90BF90AF900895823019F483
:101630000091F402DBCF863019F41091F202D6CF7C
:101640008930D9F3893191F6E9518E2F8170D82EE6
:10165000E695F0E0E755FC4FA590B490C12CBB2473
:1016600040910B01C41618F00E94070ABFCF2C2D21
:1016700030E0C501B9010E94322C642F70E00E9455
:10168000762CE12FD11014C0E60F80910901820F52
:10169000932F911D63E070E00E94322C9C012A5030
:1016A0003D4F402F6F2D8E2F0E946409C394D8CFD9
:1016B000E61BEBCFE1EFF2E09181282F43816281BD
:1016C0008CE0890F0C94C90A81E00C945A0BE1EF6D
:1016D000F2E09181282F4381628184EF890F0C947D
:1016E000C90A81E00C94670BE1EFF2E062812CE023
:1016F000620F08F46FEF282F438181810C94C90A8F
:1017000081E00C94740BE1EFF2E062812CE0621B4B
:1017100008F460E0282F438181810C94C90A81E09C
:101720000C94830BE1EFF2E043812CE0420F08F4CC
:101730004FEF282F628181810C94C90A81E00C94BB
:10174000920BE1EFF2E043812CE0421B08F440E011
:10175000282F628181810C94C90A81E00C94A10B2D
:1017600020E00C94C90AEF92FF921F93CF93DF936E
:10177000EC0110E0EE24EA94F12C30910B011317E8
:1017800070F00E94070A9A818C8190FF27C08F5FBA
:101790008C83DF91CF911F91FF90EF9008958091FE
:1017A0000901810F9927991F63E070E00E94322C94
:1017B000FC01EA50FD4F632F70E0C7010E948A2CA4
:1017C000812F0E94292C9C819F014091F4026091FD
:1017D000F302890F0E9464091F5FCFCF8150D8CFD9
:1017E000AF92BF92CF92DF92EF92FF920F931F932F
:1017F000CF93DF93FC018281DFEF80FFD1E0C0E077
:101800003EE0A32E80910B01C817C8F00E94070A82
:101810008091D501D13009F054C0811102C080916E
:101820000B0181508093D501DF91CF911F910F91D2
:10183000FF90EF90DF90CF90BF90AF900895809190
:101840000901CC2ED12C8C0D9D2D911D63E070E0F3
:101850000E94322C8A509D4F7C01FC011182108223
:10186000128204E010E0B12C8091D5018B0D8F30F5
:1018700014F16A2D0E94682C892F082E000C990BF8
:10188000C816D90691F48091F40290E0B8010E9444
:10189000322C95958795959587959701482F60915E
:1018A000F3028091F2020E946409BD0E01501109F9
:1018B000D9F6CF5FA7CF87FFE0CF90910B01890FBB
:1018C000DCCF90E0019660910B0170E00E948A2CC1
:1018D000A9CFCF932091090130910A01822F90E086
:1018E00063E070E00E94322CFC01EA50FD4F2317A8
:1018F00020F1C0E060910B01C61728F10E94070A91
:10190000209105018091D401820F8093D4019091A0
:101910000601920F90930601191654F4082E000C3C
:10192000990B40910B014150550B841795071CF002
:10193000219520930501CF91089511821082128282
:101940002F5F3396D4CFEC2FF0E070E0CF010E94F0
:101950008A2C90910901890F90E02091D401022EE8
:10196000000C330B63E070E00E94322CE217F307A7
:10197000ACF020910601022E000C330B2E173F070E
:101980006CF09C012A503D4F4091F4026091F302AB
:101990008091F2020E946409CF5FACCFFC01EA5053
:1019A000FD4F118210821282F7CF4F925F926F9299
:1019B0007F928F929F92AF92BF92CF92DF92EF92DF
:1019C000FF920F931F93CF93DF938C01FC01C4818F
:1019D000CC2ED12CF12CE12CA7019601C701B60128
:1019E0000E94432CA70196010E94432C2B013C012D
:1019F00030E2C32ED12CCC1AD1080D2C000CEE08ED
:101A0000FF0825E530E040E050E00E94432C4B0108
:101A10005C01A7019601C701B6010E94432CA701F2
:101A200096010E94432C9B01AC01240D351D461DDF
:101A3000571DC501B4010E949E2CD22F822F90E029
:101A40002A32A0F563E070E00E94322C97FD0196E7
:101A500095958795C82FC095F12C85E5E82EED1A50
:101A600080910B01F81648F10E94070AF801948151
:101A700081E0992319F0903219F48FEF80930401DB
:101A800080910401890FF8018483DF91CF911F9128
:101A90000F91FF90EF90DF90CF90BF90AF909F900D
:101AA0008F907F906F905F904F90089525E530E084
:101AB000A901481B590BCA01C5CFEE2DF1FCED2F32
:101AC000809109018F0D9927991F63E070E00E94B2
:101AD000322C9C012A503D4F4C2F6091F3028E2FE7
:101AE0000E946409F394BCCF0F931F93CF93DF93AD
:101AF0008C01D0E0C0E030910B013C171D0609F0CD
:101B000074F40E94070AF801848190E001968170C4
:101B100099278483DF91CF911F910F910895809130
:101B200009018C0F9D2F911D63E070E00E94322C03
:101B3000AC014A505D4FF80194816091F3028091AD
:101B4000F20236953C171D0651F04CF0992349F0EE
:101B50009A014091F4020E9464092196CCCF992306
:101B6000B9F39A0140E0F7CF9F92AF92BF92CF9224
:101B7000DF92EF92FF920F931F93CF93DF93FC01BD
:101B8000C280A48081E08483D12C8BE4B82E992478
:101B900093940FEF10E09BE4E92EF12C80910B0160
:101BA000D81668F0DF91CF911F910F91FF90EF90C1
:101BB000DF90CF90BF90AF909F900C94070ACD2DEF
:101BC000D0E0CE0165E070E00E94322CFC01EA52C8
:101BD000FE4FA1101DC013821282809109018C0F4B
:101BE0009D2F911D63E070E00E94322C9C012A50D1
:101BF0003D4FCE0165E070E00E94322CFC01EA52BC
:101C0000FE4F4281618180810E946409D394C6CFD6
:101C100023812223A1F12150238344813B2D321BB8
:101C2000411101C0322FCE0165E070E00E94322CDC
:101C3000FC01EA52FE4F8091F402632F70E090E0C5
:101C40000E94322CB7010E94762C6283211104C0BD
:101C5000442311F01482B38222E02C1508F4BDCF86
:101C6000CE0165E070E00E94322CFC01EA52FE4F8A
:101C70008091F20280838091F3028183AECF0E9433
:101C80001B2D823091400CF0A8CFF2E02091F2029F
:101C9000FC1530F40E941B2DB8010E948A2C282FBD
:101CA000CE0165E070E00E94322C8A529E4FFC010A
:101CB0002083F2E02091F302FC1550F40E941B2DCA
:101CC0002091F3022695622F70E00E948A2C280F43
:101CD000CE0165E070E00E94322CFC01EA52FE4F1A
:101CE00021831282B382948278CFE1EFF2E0808187
:101CF0008E7F808360817181828193810E948509BA
:101D0000109224022FEF80E792E021508040904013
:101D1000E1F700C000000C94070AE1EFF2E08081D7
:101D20008E7F8083109224022FEF80E792E0215073
:101D300080409040E1F700C000000C94070A6091D9
:101D4000F102669570E04BE050E08CE091E00E947B
:101D50002B2D892B19F481E0809324020E94D62335
:101D600090931D0280931C0208959091F10290FFC0
:101D700035C09170811128C092609093F102662362
:101D800051F06091F1027091F2028091F302909112
:101D9000F4020E9485096091F102669570E04BE0C3
:101DA00050E08CE091E00E942B2D892BA1F0109245
:101DB000240281E080931F024091F4026091F302BB
:101DC0008091F2020C94B00B8B3210F09465D5CF59
:101DD000880F982BD2CF0E949F0EEBCF0895682FCB
:101DE0009091F102969581E0890F8B3208F081E0A5
:101DF0000C94B50E81E00C94EF0E682F9091F102D7
:101E000096958FEF890F09F48AE20C94B50E81E064
:101E10000C94FD0E61E00C94B50EE1EFF2E08081D0
:101E20008160808386950C940A0F8091F10280FD79
:101E30000C94750E0C940D0F60E00C94B50E80910F
:101E4000220281112EC00E94F121811104C00E9442
:101E50008E220E94A1090E9481096093F102709371
:101E6000F2028093F3029093F4026E7F61F40E9479
:101E7000A1090E9481096093F1027093F20280939C
:101E8000F3029093F4020E9472091092240280914E
:101E9000F10280FF03C086950E941C0F81E08093B1
:101EA00022020895E1EFF2E08081816080838695CF
:101EB0000C941C0F0F931F93CF93DF9380912402F8
:101EC000882309F49DC080912302E091F102E695F8
:101ED000E81BE0931E028230C9F5F0E0EB55FD4FA0
:101EE000E491CE2FD0E006E61AE080911F0288230D
:101EF00089F010921F020E94D6239E0120953095F2
:101F0000820F931F90931D0280931C021092210256
:101F10001092200280911C0290911D020E94EE23DB
:101F20008C179D0708F46CC0E0911C02F0911D0213
:101F3000CE0FDF1FD0931D02C0931C028CE192E0F4
:101F4000F801DF91CF911F910F910994863049F4E8
:101F5000F0E0EE55FD4FE491CE2FD0E00AE71AE015
:101F6000C4CF893051F4E695F0E0E156FD4FE4919D
:101F7000CE2FD0E003EB1BE0B8CF8F3051F4E695C5
:101F8000F0E0E456FD4FE491CE2FD0E000EF1BE0EF
:101F9000ACCF853149F4F0E0E756FD4FE491CE2F08
:101FA000D0E009E61CE0A1CFC8E2D0E005ED1CE0DE
:101FB000883109F49ACF833239F4E7E9F2E0C59128
:101FC000D4910AE81AE091CFC4EFD1E004E71DE014
:101FD000843209F48ACFC0EDD7E003E619E08532F8
:101FE00009F083CF8E2F63E00E945C2CE92FF0E094
:101FF000EC56FD4FE491CE2FD0E004EB1DE075CF01
:10200000DF91CF911F910F910895FA01811101C0C5
:10201000FB010994CF93DF93C82FD62F0E94B009FC
:102020008C1740F00E94B0098D1720F4DF91CF91FA
:102030000C94FA0E8C2FDF91CF910C940A0F0F9312
:102040001F93CF938C01FB01C281CC2309F465C09F
:102050000E9439218272F801E25CFC45E431F1050D
:1020600038F4EF55F24D0C94C02C0E94150FC0E0CF
:102070008C2FCF911F910F91089547E05FE06AEF99
:102080007EE00E940510F3CF4AEF5EE067E07FE05C
:10209000F8CF41E75BE064E67BE0F3CF44E65BE04A
:1020A00061E77BE0EECF4FE85BE060E87BE0E9CF03
:1020B00040E85BE06FE87BE0E4CF4DEA5BE06EE98F
:1020C0007BE0DFCF4EE95BE06DEA7BE0DACF43EE09
:1020D00059E06CEC79E0D5CF4CEC59E063EE79E057
:1020E000D0CF81E00E940A0FC2CF65E082E00E945B
:1020F0000A10BDCF68E086E0FACF6EE089E0F7CF46
:1021000064E18FE0F4CF67E185E1F1CF88E1EACFC8
:1021100062E289E1ECCF83E2E5CFC1E0A9CF9C0187
:10212000CB01509A4BB14E7FEBB1E160FFB7F89411
:1021300063E070E00E94322C820F931F8217930796
:1021400041F4FFBF8FE594E00197F1F700C0000074
:102150000895D9015D919D0168E0EBB9000000C0D0
:1021600057FF4BB9550F000000C000C000C04BB96D
:1021700000C06A9591F7E2CF82E290E00E94382D8C
:10218000813289F483E290E00E94382D863059F440
:1021900084E290E00E94382D91E0853109F090E0D2
:1021A000892F8170089580E0FCCFCF93C82F6FEF07
:1021B000811161E282E290E00E944C2D6FEFC1112B
:1021C00066E083E290E00E944C2D6FEFC11165E163
:1021D00084E290E0CF910C944C2D80E00E94D510C9
:1021E0000C94EB21089585E290E00E94382D682F31
:1021F00070E090E080E0089585E290E00C944C2D32
:102200000E94F2100E94BC1081110CC060E070E0CE
:10221000CB010E94FC100E94BD120E94A91381E014
:102220000C94D5100895CF93FB01C281CC2309F102
:102230009C0122513F452031310520F582510E94F9
:10224000B913C0E08C2FCF91089581E00E94A51FA3
:1022500043E062E081E00E941105F3CF81E00E943B
:10226000C61F43E062E081E00E941105EBCF82E0EF
:10227000F6CF8031FFE59F0789F381319F45B9F3A0
:10228000C1E0E0CF8031EFE59E07F9F281319F4553
:10229000C9F682E0DBCF2FEFFC0120830895CF93B6
:1022A000DF93EC0188818138A9F028F4803871F03F
:1022B000DF91CF910895823881F08338C9F70E9469
:1022C000FB0989830E94FE098A83F2CF0E94010ADA
:1022D0008983EECF0E94B009FBCF0E94E609F8CFB8
:1022E000CF93DF93EC0188818138E1F028F48038C6
:1022F00069F0DF91CF910895823811F18338C9F7E1
:102300000E94010A482F6A81898108C0D9810E94F0
:10231000FE09C82F0E94FB094D2F6C2FDF91CF9132
:102320000C94B00B89810E941C0F8981811104C01B
:10233000DF91CF910C948D0EDF91CF910C94520FC1
:102340008981DF91CF910C94F809EF92FF920F935E
:102350001F93CF93DF93EC01062FDC01ED91CD01AC
:10236000E150E33108F0BFC0F0E0EB54F24D0C94C3
:10237000C02C198289E08A83602FCE01DF91CF9132
:102380001F910F91FF90EF900C94AE2589818230C0
:1023900069F0833071F08130D9F40E94E2230E9409
:1023A000C62C6A837B838C839D83E6CF0E94F310C7
:1023B000F6CF7E0110E0812F0E94AB07F7019283D8
:1023C00083831F5FF2E0EF0EF11C1430A1F7D4CF2E
:1023D000602FCE010E944B11CFCF89818230C1F78F
:1023E0006A817B818C819D810E94C62C0E94FC1099
:1023F000C3CF4B816A8189810E948F1298278927D8
:1024000098279D838C83B8CF2C813D813227232749
:1024100032274B816A8189810E94A812ADCF0E9428
:10242000BD12AACF0E947011A7CF0E944F11A4CF56
:102430000E949709A1CF0E94521389839DCF0E94C9
:1024400054139827892798279A83898395CF6B817E
:1024500070E089819A81AE014C5F5F4F9827892790
:1024600098270E94571388CF6B8170E089819A81E9
:10247000AE014C5F5F4F9827892798270E947E13F3
:102480007BCF0E94A91378CF0E947612D6CF6B81A2
:1024900070E089819A81AE014C5F5F4F9827892750
:1024A00098270E94F51268CF6B8170E089819A812C
:1024B000AE014C5F5F4F9827892798270E941B1316
:1024C0005BCF0E94ED1058CFCE010E94AE252FEFBA
:1024D00081EE94E0215080409040E1F700C0000080
:1024E0000E94212449CF8FEF888346CF84E008954E
:1024F000E82F862F90E068E170E00E94322C242FB4
:1025000030E0220F331F280F391F8E2F90E060E636
:1025100070E00E94322C820F931F869608950F93CD
:102520001F93CF93DF930E9478128C010E94382D65
:10253000C82FD0E0DC2FCC27C80101960E94382D8F
:102540009E01282BC901DF91CF911F910F91089512
:102550000F931F93CF93DF93122F032F0E947812B4
:10256000EC01602F0E944C2D612FCE010196DF916E
:10257000CF911F910F910C944C2DAF92BF92CF929F
:10258000DF92EF92FF921F93CF93DF9384E7C82EE1
:1025900080E0D82ED0E07601C0E014C0F50125918E
:1025A0003491412F6C2F8D2F0E94A81282E0A80E2B
:1025B000B11C1F5F1C3091F788E1E80EF11CCF5F62
:1025C000C43019F0570110E0E9CFDF5F80E6C80E94
:1025D000D11CD43001F7DF91CF911F91FF90EF9084
:1025E000DF90CF90BF90AF900895EF92FF920F933E
:1025F0001F93CF93DF93EC018A017C01E60EF71E57
:10260000CE018696CE15DF0539F4DF91CF911F916B
:102610000F91FF90EF900895C03821E0D20740F469
:102620000E94382DF80180830F5F1F4F2196E8CF5D
:10263000F8011082F9CFCF92DF92EF92FF920F93C1
:102640001F93CF93DF937C016A018C01060F171F44
:10265000EC01CE018696C017D10749F4DF91CF91E6
:102660001F910F91FF90EF90DF90CF900895C038A9
:1026700021E0D20740F4FE01EE19FF09EC0DFD1D2B
:1026800060810E944C2D2196E4CF462F843038F48F
:10269000743028F46C3018F4672F0C948F1290E08B
:1026A00080E0089580E108958AE592E00895EF9230
:1026B000FF920F931F93CF93DF93EC018A017C016C
:1026C000E60EF71ECE018A559E4FCE15DF0539F472
:1026D000DF91CF911F910F91FF90EF900895CA3530
:1026E00022E0D20740F40E94382DF80180830F5F6A
:1026F0001F4F2196E7CFF8011082F9CFCF92DF92DA
:10270000EF92FF920F931F93CF93DF937C016A01A7
:102710008C01060F171FEC01CE018A559E4FC01782
:10272000D10749F4DF91CF911F910F91FF90EF9066
:10273000DF90CF900895CA3522E0D20740F4FE0121
:10274000EE19FF09EC0DFD1D60810E944C2D2196B4
:10275000E3CFCF93DF93C6EAD1E060E0CE010E94E1
:102760004C2D2196C11584E0D807B9F7DF91CF91A0
:102770000895DF92EF92FF920F931F93CF93DF9311
:1027800000D000D0CDB7DEB7F82E8FE08F1540F027
:102790008FEF93E00E94382D06EA11E08823C1F004
:1027A0000F900F900F900F90DF91CF911F910F918D
:1027B000FF90EF90DF900895011584E0180781F3F2
:1027C000C8010E94382D811101C0FA940F5F1F4F7C
:1027D000F110F2CF19821A821B821C82DD24D3945D
:1027E00078018FEFE81AF80AC8010E94382D898312
:1027F0001A828823A9F29FEF980F933078F48A8386
:10280000D9820E5F1F4FC7010E94382D8B8388230A
:1028100039F2CE0101960E94BA04E2CF8701F9CFC6
:10282000CF93DF93EC0197FF0CC0FB0182818823DB
:1028300041F00E943B14CE019F770E947F140E94BA
:10284000671481E0DF91CF9108958CE090E00E94C1
:10285000382D90E0B0E0A0E0809320039093210316
:10286000A0932203B09323030895609120038CE08A
:1028700090E00C944C2D0E943921809324030E94F7
:102880004C2180912003813089F0882359F08230D7
:1028900091F08430B9F08FE39CE90197F1F700C023
:1028A0000000089582EE0E943218F5CF88E193E08F
:1028B0000E94B203F0CF82EE0E94321887E50E9498
:1028C0001019E9CF86EE0E94101988E1F8CF8091A7
:1028D0002003813071F0882341F0823031F0843060
:1028E00061F0809124030C94492182EE0E94C1186A
:1028F000F8CF8CE20E941019F4CF88E2FBCF0F933F
:102900001F93CF93DF938C01CCE0D0E0C8010C2E55
:1029100002C0969587950A94E2F78F700E94310560
:102920000E94B2032497CC3F8FEFD80779F7DF914D
:10293000CF911F910F9108950F931F93CF93DF9322
:10294000EC018B01FB018281882361F00E94392117
:10295000CE01815E9C458530910520F48093200353
:102960000E943514B801CE01DF91CF911F910F91D4
:102970000C941014AF92BF92CF92DF92EF92FF921D
:102980000F931F93CF93DF937C015B01C42FD22F52
:10299000FC0182818823F9F0409327020E94D6230C
:1029A000909326028093250280E28C0F883008F0F5
:1029B00061C0C77081E001C0880FCA95EAF7DF9156
:1029C000CF911F910F91FF90EF90DF90CF90BF902C
:1029D000AF900C94231910912702141340C08091DA
:1029E0002502909126020E94EE236C01B701C501D9
:1029F0000E941A1EC816D90690F5C0E2CD0F1D1709
:102A0000B9F080E2810F883040F4177081E001C096
:102A1000880F1A95EAF70E942A19C83048F481E015
:102A20009D2F977001C0880F9A95EAF70E9423198D
:102A3000802F0E941019C830E8F4D77081E001C0DF
:102A4000880FDA95EAF7DF91CF911F910F91FF90F0
:102A5000EF90DF90CF90BF90AF900C942A1980E256
:102A60008C0F883038F4C77081E001C0880FCA9598
:102A7000EAF7E9CFDF91CF911F910F91FF90EF908F
:102A8000DF90CF90BF90AF9008950F939C01CB0142
:102A9000233F4CE5340759F1A8F4283DFCE53F07F6
:102AA00001F1293D4CE53407D1F1273D3C4591F436
:102AB00006E221EE41EE67ED7CE50E94BA1480E06B
:102AC0000F910895253FFCE53F07E9F0B0F0263F60
:102AD0003C45F9F0FC018281882339F110922702EC
:102AE000EFCF07E225EE45EE68ED7CE5E6CF06E2A6
:102AF00021EE40EE63EF7CE5E0CF07E225EE44EE09
:102B000064EF7CE5DACF06E221EE42EE65EF7CE58C
:102B1000D4CF07E225EE46EE66EF7CE5CECF08E2A5
:102B200021E045EE69ED7CE5C8CF81E0C9CFCF93C8
:102B3000DF93EC01FB018281882309F419C1C230C3
:102B4000FCE5DF07C0F1C6319CE5D90730F09E01F6
:102B50002A5F3C452930310570F50E94042290938C
:102B60002A0380932903C031ECE5DE0709F4CFC0C6
:102B700008F05BC0C8308CE5D80709F4B6C088F50A
:102B8000C430ECE5DE0709F4A8C0C0F4C2308CE51F
:102B9000D80709F49CC0809129038260C330DC45CA
:102BA00009F498C08091290390912A030E9412226F
:102BB0000E949E1B80E0DF91CF91089580912903B0
:102BC0008061C630ECE5DE0709F484C080912903FA
:102BD0008860C730DC4508F47DC08091290380629D
:102BE00079C0CC308CE5D80709F489C070F48091A5
:102BF00029038C60CA30ECE5DE0709F46BC008F4E9
:102C000078C0809129038E7F65C0CE308CE5D807CF
:102C100009F479C0809129038B7FCF30DC4508F41B
:102C200059C0809129038F7E55C0CB3FECE5DE076C
:102C300009F457C030F5C3318CE5D80709F46FC0EB
:102C400078F4C131ECE5DE0709F465C0C231DC453A
:102C500009F0A8CF0E949E1B809129038F773AC06C
:102C6000C5318CE5D80709F462C008F476C08091BC
:102C70002A038160CA3FDC4509F094CF80932A0380
:102C800091CFCF3FFCE5DF0709F44DC088F4809178
:102C90002A038D7FCD3F9CE5D90781F380912A03DC
:102CA0008E7FCE3FDC4550F380912A038360E6CFD0
:102CB000C130FDE5DF0709F459C008F444C080E0E5
:102CC000C230DD4509F06ECF0E9490226BCF80911B
:102CD000290381608093290365CF80912903846053
:102CE000F9CF80912A038260C9CF80912903806443
:102CF000F1CF0E949E1B809129038068EBCF8091C9
:102D000029038D7FE7CF80912903877FE3CF8091CF
:102D100029038F7DDFCF809129038F7BDBCF8091CB
:102D20002903837FD7CF80912A038C7FA7CF8091FF
:102D3000290382FB992790F921E0922790FB82F9E1
:102D400090FB83F9C7CF80912A03982F90959170BB
:102D50008E7F892B90FB81F991CF0E949E1B9091D1
:102D60002903892F97FB87F98058B4CF81E0ACCF36
:102D700081E021CFCF93DF93EB0186319C4511F5A4
:102D80000E9439219A81992399F08A7A91E009F475
:102D900090E090932802811109C089E20E941421D9
:102DA0000E94882180E0DF91CF91089585E3F6CFDE
:102DB00080912802811104C089E20E941B21F0CF7A
:102DC00085E3FBCF81E0EFCF90932E0280932D021D
:102DD0000895E0912D02F0912E02309721F001909C
:102DE000F081E02D099480E00895E0912D02F091AA
:102DF0002E02309799F020912301222359F020913F
:102E0000290327FF07C0DC012C9111962C93119701
:102E100025E02C930280F381E02D09940895209100
:102E20002B0230912C022817390771F090932C0255
:102E300080932B02E0912D02F0912E02309721F029
:102E40000680F781E02D09940895209129023091A0
:102E50002A022817390771F090932A0280932902D9
:102E6000E0912D02F0912E02309721F00084F1853F
:102E7000E02D09940895089508950C943B17089542
:102E80000C943F170E943C170C943D1781E0089565
:102E90000C9446170E94CD230E94B9070E9400118E
:102EA0000E945B240E941F0F0C9440179F92AF92C8
:102EB000BF92CF92DF92EF92FF920F931F93CF9327
:102EC000DF93CDB7DEB72A970FB6F894DEBF0FBEFB
:102ED000CDBF0E941A080E944817882309F470C0C9
:102EE00050E3A52E52E0B52E10E000E0902E802F8A
:102EF0000E94AB076C01F501E190F1905F01E816CB
:102F0000F90609F457C08091BC0281FD0E94B40704
:102F100097012C253D2580E0EE24E394F12CA901B6
:102F20004E215F21452B09F43FC08E839F82CE2026
:102F3000DF2081E0CD2809F480E088870E94D62335
:102F40008160782F9A8789874E815F8168858A851D
:102F50000E940318000F111FF801E05DFD4F8081F2
:102F60009181E826F926F182E0820E945A0F0E94A0
:102F7000E91690912F028917A1F10E94E91680931A
:102F80002F022A960FB6F894DEBF0FBECDBFDF9199
:102F9000CF911F910F91FF90EF90DF90CF90BF9056
:102FA000AF909F900C94A4058F5FEE0CFF1C8C30AB
:102FB00009F0B5CF0F5F1F4F0430110509F096CF10
:102FC0008FEF89838A831B820E94D6238160782FAA
:102FD0009D838C8349815A816B818D810E94031866
:102FE000C4CF2A960FB6F894DEBF0FBECDBFDF91D7
:102FF000CF911F910F91FF90EF90DF90CF90BF90F6
:10300000AF909F900895CF93DF93CDB7DEB72B9706
:103010000FB6F894DEBF0FBECDBF4F8358876987C8
:103020007A878B871E821D8285E0FE013796DE013E
:10303000119601900D928A95E1F749815A816B8131
:103040007C818D819E812B960FB6F894DEBF0FBEDA
:10305000CDBFDF91CF910C941D1EFC018081918129
:103060000C94E620CF93C82F882309F488C08238B7
:10307000C1F40E94E91681FD82C089E30E941421F7
:103080000E9488212FEF81EE94E0215080409040F3
:10309000E1F700C0000089E30E941B21CF910C944E
:1030A00088218338A1F40E94E91680FD68C083E579
:1030B0000E9414210E9488212FEF81EE94E021507C
:1030C00080409040E1F700C0000083E5E5CF843800
:1030D000A1F40E94E91682FD52C087E40E941421E7
:1030E0000E9488212FEF81EE94E021508040904093
:1030F000E1F700C0000087E4CFCF8CEF8C0F813A5E
:10310000B8F48C2F0E94F924811139C06C2F809162
:103110001701909118010E94A922882329F08C2F71
:103120000E941B210E9488218C2F0E941421B6CF5F
:1031300080E28C0F883048F4C77081E001C0880FAE
:10314000CA95EAF70E943C21A9CFEBE5EC0FE330EA
:1031500040F4F0E0E254FE4F808190E0CF910C9477
:103160000F17C85AC73158F4EC2FF0E0EE0FFF1FCD
:10317000E057FE4F80819181CF910C942517CF911C
:103180000895882309F44BC0823871F40E94E9162F
:1031900081FF45C089E30E9414210E94882189E3B0
:1031A0000E941B210C948821833859F40E94E9164F
:1031B00080FF35C083E50E9414210E94882183E5A9
:1031C000EFCF843859F40E94E91682FF28C087E4C3
:1031D0000E9414210E94882187E4E2CF9CEF980F7F
:1031E000913AF0F290E2980F983050F4877091E0A5
:1031F00001C0990F8A95EAF7892F0E944221D2CF08
:103200009BE5980F933020F490E080E00C940F172A
:10321000885A873120F490E080E00C9425170895B7
:10322000CF93C82F0E943218C93349F42FEF87EE8D
:1032300093E0215080409040E1F700C000008C2FC7
:10324000CF910C94C118882321F00E943C210C944A
:1032500088210895882321F00E9442210C9488211E
:103260000895BF92CF92DF92EF92FF920F931F9338
:10327000CF93DF936C01D62FC72FFC0105810295F8
:103280000F70128111110E945C210E943221E82EE0
:10329000882391F01123D1F08C2F807F803421F08E
:1032A00080E28D0F883090F082E00E94D3210E944E
:1032B000322191E0E82EE926BC2EB2949FE0B9229B
:1032C000EB2DF0E0E853F24D0C94C02CE12CF4CF40
:1032D0000C2F0F70C07F11F00295007F1123A9F011
:1032E000002359F080E28D0F883010F0D11109C011
:1032F000802F0E943C210E9488218D2F0E9432182D
:1033000014C0802F0E944F21F6CF8D2F0E94C1182C
:10331000002359F080E28D0F883010F0D1112CC0BD
:10332000802F0E9442210E9488212B2D2850330B90
:103330002430310520F40E94E9160E94A405EE20F5
:1033400009F493C10E942E2180FD8FC1F6011282E3
:103350000E9428210E94A51FC6010E94561B0E94A0
:103360002821DF91CF911F910F91FF90EF90DF9077
:10337000CF90BF900C94C61F802F0E945521D3CFB1
:10338000FC2FFF70FF2EC07FC03219F0F29480EF47
:10339000F822DD2369F0D13049F1112391F10023A6
:1033A00051F1F601858180FFA8CF8F70858323C0FE
:1033B000112381F0011106C00E946F218F290E9404
:1033C0002319B3CF0130C1F70E946F218F290E94CA
:1033D0007521ABCF011106C00E947E218F2D0E9466
:1033E0002A19A3CF013009F4A0CFF6CF112329F079
:1033F000033008F09ACF8F2DE2CF023008F095CF3E
:10340000EDCF002359F3D93349F4FFEF27EE33E032
:10341000F15020403040E1F700C000008D2F0E94A5
:10342000C11883CF8C2F86958695837069F0813083
:1034300009F07BCF8D2F9C2F9370111102C090E06B
:1034400080E00E94251771CF8D2F9C2F9370111152
:1034500002C090E080E00E940F1767CF8C2F83702E
:1034600009F041C0111161CF4D2F4295469547702B
:10347000440F440F0D2F0F7010E030E020E0042EB9
:1034800004C0000F111F221F331F0A94D2F760E0FF
:1034900070E0CB01D4FF0FC06FE070E080E090E0FF
:1034A00004C0660F771F881F991F4A95D2F7609551
:1034B000709580959095C695C695C370602B712BBD
:1034C000822B932BC23049F058F4C13019F00E947E
:1034D000571F2BCF0E94451F28CF0E94691F25CF61
:1034E0000E94431F22CF8695112311F08C2F8170EB
:1034F000882309F41ACF4D2F429546954770440F03
:10350000440F0D2F0F7010E030E020E0042E04C0B7
:10351000000F111F221F331F0A94D2F760E070E0E2
:10352000CB01D4FF0FC06FE070E080E090E004C0FA
:10353000660F771F881F991F4A95D2F7609570957F
:1035400080959095C695C695C370602B712B822B84
:10355000932BC23049F058F4C13019F00E941C205E
:10356000E4CE0E940A20E1CE0E942E20DECE0E94F0
:103570007F1FDBCECF70112329F08C2F0E94A51F57
:103580008D2F1DCF8D2F0E942A198C2F0E94C61FB0
:10359000CCCED23F89F160F4D03FC9F0D13F29F1C0
:1035A000112309F442C00111A8CE8C2F8F7121C0C4
:1035B000D33F39F1D43FA1F7112369F1CF718C2F9B
:1035C0000E94A51F63E08C2F0E94BE21AECE112366
:1035D00041F0023008F0A9CE8C2F8F710E94E91FB4
:1035E000A4CE033008F0A1CEF7CF8C2F8F7111231A
:1035F00069F20E94A51F99CE8C2F8F711123C9F3F8
:10360000C5CF112329F08C2F8F710E94901F8DCE72
:103610000E948B1F8ACE81E00E94D321023008F4E1
:1036200084CE82E00E94D32180CE002359F0D9338A
:1036300009F0F4CE8FEF97EEE3E081509040E04048
:10364000E1F7EACE8C2F8F71A1CF4C2F4F706D2FE9
:10365000C6010E94AC050E94BB1E67CE4C2F4F7066
:103660006D2FC6010E94AF0560CEDF91CF911F91F3
:103670000F91FF90EF90DF90CF90BF9008950F9340
:103680001F93CF93DF93EC01688179818A810E9437
:10369000F0208C010E9440200E94421FB801CE0100
:1036A000DF91CF911F910F910C943119CF93DF933C
:1036B000EC018B819C81892B29F088819981892358
:1036C0008F3F59F4DF91CF910895CE010E943F1BA7
:1036D000CE01DF91CF910C940104CE010E944F05E1
:1036E0008111F3CF0E943221882361F38A818823DC
:1036F00049F382E0DF91CF910C94D321882321F00C
:103700000E944F210C9488210895882321F00E9463
:1037100055210C94882108950E945C210E946C21FF
:103720000E94882190E080E00E940F1790E080E0E6
:103730000C9425170E9422210C948C1B0E944C2172
:103740000C949A1BE92FE295EF70E250EE3070F482
:10375000F0E0E852F24D0C94C02C803F19F020F4B8
:10376000883E20F481E00895843FE1F380E00895ED
:10377000883EC0F3813FD1F7F5CF93FB882780F9CE
:1037800008950E94E6200C94A21BCF93DF9300D0F3
:1037900000D00F92CDB7DEB70F900F900F900F9023
:1037A0000F90DF91CF910895CF93DF9300D000D099
:1037B00000D0CDB7DEB726960FB6F894DEBF0FBEA9
:1037C000CDBFDF91CF910895CF93DF93C0913902A0
:1037D00080913A028C1303C0DF91CF910895D0E01D
:1037E000CE0166E070E00E94322CFC01E55CFD4FEA
:1037F0004081518162817381848195810E94D41BB3
:103800002196C770E5CF40916B0250916C02609198
:103810006D0270916E0280916F02909170020C9413
:10382000D41B1F93CF93DF9380917002807FA1F40C
:1038300080916D02882381F020913902B0913A0283
:1038400040916B02A0916C02C0916E02D0916F0208
:10385000142F1A23B21304C0DF91CF911F91089542
:1038600030E0209711F01F3F21F42F5F3F4F27706A
:10387000F1CFC90166E070E00E94322CFC01E55CEA
:10388000FD4F81818A13F1CF80818413EECF828135
:103890008111EBCF838194818C1B9D0B883C91051A
:1038A00020F7809170028F70806180937002C9014F
:1038B00066E070E00E94322CFC01E05CFD4F9081DC
:1038C0009F70906190838BE692E00E94561BDF917F
:1038D000CF911F910C94E41BAF92BF92CF92DF92D5
:1038E000EF92FF920F931F93CF93DF93CDB7DEB785
:1038F00061970FB6F894DEBF0FBECDBF8C0185E097
:10390000F801DE011D9601900D928A95E1F7F8010C
:1039100040812181E2808BE6C82E82E0D82E609122
:103920006E0270916F026115710509F464C1909186
:103930006B0230916C02892F83238F3F09F45BC1A6
:10394000A380B480F0906D02F501E61BF70BFF2019
:1039500009F4FEC080917002582F507FE83CF105B9
:1039600008F0B3C051117AC0FE2C321323C0941357
:1039700021C0E1101FC08F708061809370020E948F
:10398000031CC6010E94561B80917002F8018583BA
:103990008F2D61960FB6F894DEBF0FBECDBFDF91BD
:1039A000CF911F910F91FF90EF90DF90CF90BF903C
:1039B000AF900895AB2829F0842F82238F3F09F020
:1039C00036C180E0F82FF170DF2EE091390230919E
:1039D0003A0280FD20C0EE20D9F280917002816011
:1039E00080937002F12CD4CFF0E0CF0166E070E05C
:1039F0000E94322CDC01A55CBD4F11968C91119771
:103A0000821307C08C91841304C012968C918E117E
:103A1000E2CF3196E770E313E7CF4D872E878D8590
:103A20009E850E94E620292F22952F70223050F08B
:103A3000243078F49F7051F0F8019581907F31F433
:103A4000D12C0AC09F7011F08823D1F3805E88309A
:103A5000B8F3C8010E94561BFD2C9ACF321306C042
:103A6000941304C0F801EE2009F48EC04D872E8710
:103A70008D859E850E94C11B882319F1EE2009F1D6
:103A800080917002803270F020916B0230916C0254
:103A900038872F831986BB86AA868C87CE01079626
:103AA0000E94561B86E0F801ABE6B2E001900D9251
:103AB0008A95E1F70E94111C0E94031CFF24F394D5
:103AC00067CFC8010E94561BF9CF511114C07A2D3F
:103AD000B98AA88A522F6E2D89890E94C51B8BE650
:103AE00092E00E94561B86E0F60111928A95E9F752
:103AF0000E94031C77CF32130FC094130DC0E11046
:103B00000BC0F8018583C8010E94561B86E0F601B0
:103B100011928A95E9F73CCF4D872E878D859E853A
:103B20000E94C11B882369F2EE2059F28091700235
:103B3000803208F4B7CF20916B0230916C023A8347
:103B400029831B82BD82AC828E83CE010196A8CFD1
:103B5000E83CF10508F041C0FE2CEE2009F4B1CF9D
:103B600032132AC0941328C08091700280FD1BC0BC
:103B7000982F907FC1F0F8018583903F31F0982F06
:103B8000907F905F8F70892B8583C8010E94561BA0
:103B900086E0F801ABE6B2E001900D928A95E1F77C
:103BA0000E94031CF5CE86E0F801ABE6B2E001907E
:103BB0000D928A95E1F7ECCE4D872E878D859E85F7
:103BC0000E94C11B81116ECF809170028160809331
:103BD0007002C8010E94561BDBCE7A2DB98AA88AD2
:103BE000522F6E2D89890E94C51B86E0F601119225
:103BF0008A95E9F7D5CFEE2009F463CF4D872E875C
:103C00008D859E850E94C11BF82E882309F459CF0B
:103C100086E0F801ABE6B2E001900D928A95E1F7FB
:103C20008BE692E00E942D180E94111CB9CF81E012
:103C30008E25C8CE88EC90E00895CF93DF93CDB762
:103C4000DEB72C970FB6F894DEBF0FBECDBF4F8303
:103C5000588769877A878B879C87CE0107960E9451
:103C60006C1C8823D1F08A859B85892B39F04F8184
:103C70005885842F85238F3F09F076C080913902C3
:103C800090913A02891349C02C960FB6F894DEBF82
:103C90000FBECDBFDF91CF91089586E0FE0137962C
:103CA000DE01119601900D928A95E1F78A859B8538
:103CB000892B21F38F81988589238F3FF9F2809199
:103CC0003A0290E09C012F5F3F4F277033274091CD
:103CD00039024217130671F40E949E1B10923A0299
:103CE0001092390286E0EBE6F2E0DF011D928A9540
:103CF000E9F7C4CF66E070E00E94322CDC01A55CDD
:103D0000BD4F96E0FE01319601900D929A95E1F734
:103D100020933A020E94E41BB1CF90E066E070E08D
:103D20000E94322C855C9D4F0E946C1C882309F4F4
:103D3000ABCF8091390290E066E070E00E94322CB7
:103D4000FC01E55CFD4F408151816281738184817A
:103D500095810E94D41B8091390290E00196877072
:103D60009927809339028ACF69857A858B859C85CE
:103D70000E94D41B83CFEF92FF920F931F93CF9398
:103D8000DF938C01892B81F0F12CEE24E394E80180
:103D90002196F8018491843770F4843008F05FC074
:103DA0008130B1F08230A1F1DF91CF911F910F915D
:103DB000FF90EF900895853709F44CC008F43DC09A
:103DC0009CE7980F903780F78F770E94C11849C001
:103DD0000E5F1F4FFE01849190E2980F983060F4BF
:103DE0008770FE2D01C0FF0F8A95EAF78F2F0E9482
:103DF0005F210E94882102C00E9432188F2D8150BD
:103E000030F2EFE9FFE03197F1F700C00000F7CFA3
:103E10000E5F1F4FFE01849190E2980F983050F48E
:103E20008770FE2D01C0FF0F8A95EAF78F2F0E9441
:103E30006521DFCF0E94C118E1CF0E5F1F4FFE0149
:103E4000C491C150D8F28FE99FE00197F1F700C00B
:103E50000000F7CF0E5F1F4FFE01F490CFCF0E94FE
:103E600032188E01CBCF08950C94331F0E94341F5B
:103E700060939302709394028093950290939602BC
:103E80000C948C1B08950C94361F0F931F93009174
:103E90009302109194022091950230919602602B2A
:103EA000712B822B932B1F910F910C94361F0F9324
:103EB0001F930091930210919402209195023091EA
:103EC000960260237123822393231F910F910C94F8
:103ED000361F0F931F93009193021091940220912B
:103EE00095023091960260277127822793271F91B0
:103EF0000F910C94361F0C94331F0C947B1F0E945F
:103F00007D1F60938F027093900280939102909333
:103F100092020C948C1B60E070E0CB010C947F1F2C
:103F20000F931F9341E050E060E070E08A019B0135
:103F300004C0000F111F221F331F8A95D2F7C90139
:103F4000B8011F910F910C947F1F0F931F9341E0B5
:103F500050E060E070E004C0440F551F661F771FFB
:103F60008A95D2F780918F0290919002A091910250
:103F7000B09192028A019B01082B192B2A2B3B2B13
:103F8000C901B8011F910F910C947F1F0F931F93CC
:103F900041E050E060E070E004C0440F551F661F30
:103FA000771F8A95D2F7CB01BA01609570958095FD
:103FB000909500918F021091900220919102309182
:103FC000920260237123822393231F910F910C94FB
:103FD0007F1F0F931F9341E050E060E070E004C04A
:103FE000440F551F661F771F8A95D2F780918F0265
:103FF00090919002A0919102B09192028A019B014E
:10400000082719272A273B27C901B8011F910F91BB
:104010000C947F1F0F931F9300918F0210919002B9
:104020002091910230919202602B712B822B932B65
:104030001F910F910C947F1F0F931F9300918F027C
:10404000109190022091910230919202602371238D
:10405000822393231F910F910C947F1F0F931F9323
:1040600000918F0210919002209191023091920262
:1040700060277127822793271F910F910C947F1F30
:104080000895CF93DF93282F362F892F6CE00E945D
:10409000292C820F982F9770E1E001C0EE0F9A95BE
:1040A000EAF786958695869590E065E070E00E9437
:1040B000322CDC01AF58BD4F50E040E0632F70E080
:1040C0008D91ED0121979B01042E02C03695279515
:1040D0000A94E2F72170219528272E232827288388
:1040E0004F5F5F4F4530510559F7DF91CF910895EC
:1040F000282F892F6CE00E94292C820FA82FA770EF
:1041000086958695869590E065E070E00E94322C59
:10411000FC01EF58FD4F50E040E080E0219130E09D
:104120000A2E02C0369527950A94E2F721703327AC
:10413000042E01C0220F0A94EAF7822B4F5F5F4FD3
:104140004530510559F70895BF92CF92DF92EF9213
:10415000FF920F931F93CF93DF938C01C0908F0238
:10416000D0909002E0909102F090920280919302A0
:1041700090919402A0919502B0919602C82AD92AF2
:10418000EA2AFB2ACFE1D0E0BC2ED701C6010C2ED3
:1041900004C0B695A795979587950A94D2F780FDA8
:1041A0000EC0219788F7B12C8B2DDF91CF911F91F5
:1041B0000F91FF90EF90DF90CF90BF900895B801DE
:1041C0008C2F0E94B805019761F3EECFCF93DF9358
:1041D000EC010E94A420BE01DF91CF910C94B805A0
:1041E0001F93CF93DF93EB0190913802992331F025
:1041F000CB01DF91CF911F910C94E620882379F0B9
:10420000CB010E94A420182F682FCE010E944120CC
:10421000BE01812FDF91CF911F910C94B805CB0186
:104220000E947820182FF4CF682F80911701909169
:1042300018010C942923682F80911701909118017F
:104240000C94342380911701909118010C943F2312
:10425000809197028595859585950895809197021F
:104260008770089590919702977081E009F480E03B
:1042700008958091BB0208959091BB02892B809391
:10428000BB02089580959091BB0298239093BB0246
:1042900008958093BB0208951092BB0208959091F7
:1042A000BA02892B8093BA02089580959091BA0240
:1042B00098239093BA0208951092BA0208959091AB
:1042C000B902892B8093B902089580959091B90223
:1042D00098239093B90208951092B902089580919D
:1042E0009802089508950C9472219091980298175D
:1042F00021F0809398020C94732108958091980284
:10430000882329F01092980280E00C94732108957C
:10431000E0911701F09118018091BB028083E09138
:104320001701F091180180819091BA02892B808346
:10433000E0911701F091180180819091B902892BC9
:10434000808390919802992381F0E0911701F09178
:1043500018018081892B8083809117019091180129
:104360000E94952281110E947E21809117019091D7
:1043700018010C94F51608950C94BB21982F990FF1
:10438000990F990F962B909397020E94A51F8091E9
:1043900097028595859585950C94BC21109297027E
:1043A00080E00C94BC2190919702809589238093A2
:1043B0009702282F277071F4282F082E000C330B3A
:1043C0009217130639F08595859585950E94C61F2D
:1043D0000C94CE2108956FEF7FEF90E080E00C9475
:1043E0006A2D90E080E00E94462D21E08C3E9E4F99
:1043F00009F020E0822F089582E090E00C94382D9F
:1044000083E090E00C94382DCF9384E090E00E94FC
:10441000382DC82F81E290E00E94382D982F8C2FE4
:10442000CF910895CF93C92F682F84E090E00E9428
:104430004C2D6C2F81E290E0CF910C944C2DAB0170
:10444000BC018FE090E00C945E2DAB01BC0183E1D8
:1044500090E00C945E2D60E070E0CB010C9425227E
:1044600060E070E0CB010E941F220C942B226CEEC6
:104470007EEF90E080E00E946A2D60E082E090E0B4
:104480000E944C2D60E083E090E00E944C2D109241
:10449000930210929402109295021092960260E09C
:1044A00084E090E00E944C2D60E081E290E00E9468
:1044B0004C2D60E085E090E00E944C2D60E086E0AD
:1044C00090E00E944C2D6FEF87E090E00E944C2D11
:1044D00040E050E0BA0188E090E00E945E2D60E08C
:1044E0008DE090E00E944C2D40E050E0BA0188E160
:1044F00090E00E945E2D60E087E190E00E944C2DEC
:1045000040E050E0BA018CE190E00E945E2D60E056
:1045100080E290E00E944C2D0C9430220C943722C3
:10452000682F8EE090E00C944C2DFC013296809127
:104530002301882321F0809129039EE187FF96E0E3
:1045400080E0915008F4089521912223D1F38F5FE8
:10455000F8CF662301F1209123012223F1F020916D
:10456000290327FF1AC0462F4695469546954E319A
:1045700090F4677021E030E002C0220F331F6A958B
:10458000E2F7840F911DFC01828190E028233923FA
:1045900081E0232B69F480E00895FC0132960896AF
:1045A0002191261721F0E817F907D1F7F4CF81E020
:1045B00008959C01FC0132969FEF80E041914617DF
:1045C00051F09F3F19F4411101C0982F8F5F863041
:1045D000A9F79F3F09F40895290F311D97FD3A95DA
:1045E000F90162830895FC01329608962191261301
:1045F00003C0DF0111971C92E817F907B9F7089576
:10460000E62FE695E695E695EE3168F4E80FF92F8A
:10461000F11D677021E030E001C0220F6A95EAF7D2
:104620008281822B82830895E62FE695E695E695B2
:10463000EE3170F4E80FF92FF11D677021E030E0E2
:1046400001C0220F6A95EAF72095828128232283F0
:10465000089520912301222329F02091290327FD89
:104660000C9400230C94D92220912301222329F0B9
:104670002091290327FD0C9414230C94F322FC01B0
:10468000329680912301882351F08091290387FF7E
:1046900006C08EE1DF011D928A95E9F7089586E054
:1046A000F9CF089508950C9452230E9453238091CA
:1046B0002F03843049F11092BD0288E190E020E49C
:1046C0000FB6F894A895809360000FBE2093600009
:1046D00080E00E94A4050E94532383B7817F8460F9
:1046E00083BF83B7816083BF7894889583B78E7FBB
:1046F00083BF0FB6F894A89580916000886180937D
:104700006000109260000FBE08950895CF930E943C
:1047100051230E941A080E948523C0E08C2F0E941A
:10472000AB07892B31F4CF5FC430C1F780E0CF9164
:10473000089581E0FCCF08950C949B230E949E1B5A
:104740000E94E9160E94A4050C949C231F921FB698
:104750001F9211248F939F93AF93BF938091BD02BB
:10476000811113C08091250390912603A091270306
:10477000B09128034196A11DB11D8093250390930C
:104780002603A0932703B0932803BF91AF919F9175
:104790008F911F901FBE1F90189582E084BD93E0FB
:1047A00095BD9AEF97BD80936E0008952FB7F8944A
:1047B0008091250390912603A0912703B0912803AF
:1047C0002FBF08952FB7F8946091250370912603A9
:1047D00080912703909128032FBF08959C014FB724
:1047E000F8948091250390912603A0912703B0911E
:1047F00028034FBF821B930B089578941F921FB616
:104800001F9211248F939F93AF93BF9380912503A1
:1048100090912603A0912703B09128030196A11D32
:10482000B11D8093250390932603A0932703B09393
:104830002803BF91AF919F918F911F901FBE1F9032
:10484000189581E08093E00080E28093D800109278
:10485000C9008FE19EE40197F1F700C0000087E0F6
:1048600090EBDC018093380390933903A0933A03D3
:10487000B0933B0388E19CE00FB6F894A895809331
:1048800060000FBE90936000FFCF0C94ED100E946B
:104890001A088FE39CE90197F1F700C000000E941D
:1048A0001A0880E00E94AB0780FF04C00E944524E4
:1048B0000C94212408950E94F121811102C00E94CC
:1048C0008E220E94FC218093BC020E9404229093BD
:1048D0002A03809329030E940022682F70E090E051
:1048E00080E00E94431F60918F027091900280913E
:1048F0009102909192020C947D1F0F931F9341E0BF
:1049000050E060E070E08A019B0104C0000F111FBD
:10491000221F331F8A95D2F7C901B8010E94431F95
:104920001F910F910C949E1BEBEFE80FEF3308F0F3
:104930005AC0F0E0EA51F24D0C94C02C0E948E2235
:1049400081E008958091BC02807F8093BC0281E069
:104950008093BE0208950E944005F2CF9091BC0260
:10496000892F8E7F90FF81608093BC0280FDE8CF0D
:10497000817F8093BC02E4CF9091BC02892F8D7F10
:1049800091FF82608093BC0281FFDACF8091BC02EC
:104990008160EFCF9091BC02892F8B7F92FF846062
:1049A0008093BC0282FDF2CFCBCF9091BC02892FC5
:1049B000877F93FF88608093BC0283FDE7CFC0CFE1
:1049C0000E949E1B90912903892F97FB87F980589D
:1049D00080932903B5CF80E00E947D24B1CF895315
:1049E000FBCF8D51F9CF80E0089580E008950C94BD
:1049F000F524CF93C82F8091BE02882331F08130F7
:104A000099F01092BE0280E00DC00E9439218232DE
:104A1000D1F78C2F0E94F524811116C08C2F0E9493
:104A200094248170CF9108950E943921823289F3B4
:104A30008C2F0E94F724811105C0C43171F038F425
:104A4000CB3079F781E0EDCF81E090E0EACFC93259
:104A500021F0C833B9F380E0E4CF1092BE02FBCF5F
:104A60008091DF0208950895CF93DF9300D00F92D5
:104A7000CDB7DEB790912F03943011F589837B83F6
:104A80006A839093E9008FEF9091E800815095FD43
:104A900006C095ED9A95F1F700008111F5CF809150
:104AA000E80085FF0DC050E040E063E070E0CE011B
:104AB00001960E9488278091E8008E778093E80015
:104AC0000F900F900F90DF91CF910895BC0184E07B
:104AD0000C943425BC0183E00C943425CF93DF93F0
:104AE000EC01809123018823B1F18091290387FF94
:104AF00032C060E284E08093E9008FEF9091E8009B
:104B0000815095FD06C095ED9A95F1F70000811151
:104B1000F5CF8091E80085FF1BC08091230170E0F4
:104B200050E040E0811104C050E040E068E070E0F7
:104B3000CE010E9488278091E8008E778093E8005C
:104B400080E2FE01AFEBB2E001900D928A95E1F7B1
:104B5000DF91CF91089568E081E0CDCFCF93FC0144
:104B6000603221F580912F03843001F5C091E90076
:104B7000CF702091EC00922F917020FD90E8C92B0E
:104B800082E08093E9008091E80080FF0CC050E053
:104B900040E060E270E0CF010E9488278091E80049
:104BA0008E778093E800CF70C093E900CF9108958D
:104BB000089508950C949E2342E061EC81E00E94E8
:104BC000DF2842E261EC84E00E94DF2842E261ECEF
:104BD00082E00E94DF2842E260EC83E00C94DF2850
:104BE00080913103833009F45FC030F48130C1F12A
:104BF000823009F49BC008958A3009F487C08B3055
:104C000009F46DC0893009F04EC0809130038132C3
:104C100009F049C08091340390913503009719F051
:104C2000029709F040C08091E800877F8093E800F8
:104C30008091E80082FF33C08091F200823029F435
:104C40008091F1008B7F813021F48091F10080937D
:104C5000DF028091E8008B778093E8000C941329A1
:104C600080913003813AF9F48091E800877F809346
:104C7000E8008091340390913503892B61F460E260
:104C80008FEB92E070E00E9426288091E8008B77FD
:104C90008093E800089560E090E080E0F3CF809199
:104CA0002F038111C5CF089580913003813AD9F740
:104CB0008091340390913503892BA9F78091E80006
:104CC000877F8093E8008091E80080FFFCCF80918F
:104CD00023018093F1008091E8008E77BDCF809111
:104CE0003003813201F78091340390913503892B91
:104CF000D1F68091E800877F8093E8000E94132915
:104D000080913203809323010C949E1B8091300389
:104D1000813249F68091E800877F8093E8000E9405
:104D20001329809133038093E0020895809130032A
:104D3000813A09F0B8CF8091E800877F8093E8003E
:104D40008091E80080FFFCCF8091E002C2CFCDB718
:104D5000DEB7A0970FB6F894DEBF0FBECDBF84B705
:104D6000877F84BF0FB6F894A89580916000886112
:104D700080936000109260000FBE80E890E00FB654
:104D8000F89480936100909361000FBE0E944217D7
:104D90000E9463290E94B6298091E200846080937A
:104DA000E20078940E940E2C0E944A1789E191E05B
:104DB0000E94E41613E080912F03853039F10E94A0
:104DC000561780912F038430B1F71093E90080913A
:104DD000E80082FFF0CF8091E80090E085FF09C0F5
:104DE00050E040E060E270E0CE0101960E94D727DB
:104DF00091E08091E8008B778093E8009923D9F2C5
:104E000060E2CE0101960E94A511D5CF0E945523E4
:104E100080912D03882379F20E948623882359F2FA
:104E20000E947227C8CF0C941527292F33272330CF
:104E3000310521F168F42130310509F449C02230EF
:104E4000310509F44AC090E080E030E020E029C05C
:104E50002132310581F122323105A9F76330710524
:104E600090F7FB01EE0FFF1FEC53FE4F20813181C5
:104E70006F537E4FFB01808190E013C099278130F2
:104E8000910599F0009741F08230910589F00397E0
:104E9000D1F6EEEAF4E002C0E0EDF4E0849190E0B7
:104EA0009F01FA01318320830895E4ECF4E0F6CF0A
:104EB000E4EBF4E0F3CF6330710528F6660F771F5B
:104EC000FB01E653FE4F2081318189E090E0E9CF7C
:104ED00082E190E02FE235E0E4CF8BE590E024ED35
:104EE00034E0DFCF84E089BD86E089BD09B400FEEF
:104EF000FDCF8091D8008F7D8093D8008091E00015
:104F000082608093E0008091E00081FDFCCF0895F5
:104F1000AF92BF92CF92DF92FF920F931F93CF93E6
:104F2000DF936C01EB018A010E943229F82E811176
:104F300023C00115110539F0F80180819181C81B4A
:104F4000D90BC80ED91EB12CA12C2097A9F08091A5
:104F5000E80085FD22C08091E8008E778093E8000C
:104F600001151105A1F0F80180819181A80EB91EEB
:104F7000B182A08285E0F82E8F2DDF91CF911F9115
:104F80000F91FF90DF90CF90BF90AF9008950E9457
:104F900032298823D1F2F82EEFCFF60181916F01EB
:104FA0008093F1002197FFEFAF1ABF0ACECFAF92E7
:104FB000BF92CF92DF92FF920F931F93CF93DF9315
:104FC0006C01EB018A010E943229F82E811123C065
:104FD0000115110539F0F80180819181C81BD90BA9
:104FE000C80ED91EB12CA12C2097A9F08091E80001
:104FF00085FD22C08091E8008B778093E800011541
:105000001105A1F0F80180819181A80EB91EB1822D
:10501000A08285E0F82E8F2DDF91CF911F910F9107
:10502000FF90DF90CF90BF90AF9008950E943229FB
:105030008823D1F2F82EEFCF8091F100F601819311
:105040006F012197FFEFAF1ABF0ACECFFC0180910D
:1050500036039091370386179707A0F06115710505
:1050600029F49091E8009E779093E80090E0611514
:10507000710551F4911108C08091E80082FF32C09F
:1050800080E00895BC01F2CF80912F038823B1F115
:105090008530B1F18091E80083FD2EC08091E80059
:1050A00082FDEACF8091E80080FFE1CF2091F200FD
:1050B00030E06115710519F02830310558F091E0A4
:1050C0002830310509F090E02091E8002E772093F8
:1050D000E800CDCF81918093F100615071092F5F7D
:1050E0003F4FE7CF80912F03882341F0853041F077
:1050F0008091E80083FFC0CF81E0089582E00895A9
:1051000083E00895FC018091360390913703861760
:105110009707A0F06115710529F48091E8008E775A
:105120008093E80090E06115710551F4911108C079
:105130008091E80082FF33C080E00895BC01F2CF87
:1051400080912F038823B9F18530B9F18091E8006F
:1051500083FD2FC08091E80082FDEACF8091E800B6
:1051600080FFE1CF2091F20030E06115710519F068
:105170002830310558F091E02830310509F090E0F1
:105180008091E8008E778093E800CDCF8491809362
:10519000F1003196615071092F5F3F4FE6CF80914A
:1051A0002F03882341F0853041F08091E80083FF90
:1051B000BFCF81E0089582E0089583E00895982F9D
:1051C000953028F08F708093E90081E008959093E6
:1051D000E900242F762F50E0981731F07091EC0001
:1051E0002091ED005091F00021FD02C09F5FE8CFBB
:1051F0003091EB003E7F3093EB003091ED003D7F2E
:105200003093ED003091EB0031603093EB00709300
:10521000EC002093ED005093F0002091EE0027FD6C
:10522000E5CF80E008958091300387FF13C080911F
:10523000E80082FF06C08091E8008B778093E80049
:1052400004C080912F038111F2CF089580912F0324
:105250008823D9F38091E80080FFF8CF8091E8009F
:105260008E77ECCF2091E4003091E50095E6A9011E
:105270002091EC00822F817020FF06C08091E80011
:1052800080FF06C080E008952091E80022FD1AC04A
:1052900080912F03882389F0853089F08091EB007D
:1052A00085FD0FC02091E4003091E50042175307BF
:1052B000F9F29150E1F684E0089582E0089583E0E8
:1052C000089581E008950E94C0290E94C329E0EE5C
:1052D000F0E0808181608083E8EDF0E080818F776D
:1052E000808319BCE3E6F0E08081816080831092C6
:1052F0002E0308950E94C0290E94C3298091D800DE
:105300008F778093D8008091D80080688093D800F0
:105310008091D8008F7D8093D80084E089BD86E09D
:1053200089BD09B400FEFDCF10922F0310922B030C
:1053300010922D0310922C0342E060E080E00E9466
:10534000DF288091E1008E7F8093E1008091E20070
:1053500081608093E2008091E20088608093E200A7
:105360008091E0008E7F8093E0000895E3E6F0E016
:1053700080818E7F808381E080932E030C947A2934
:105380001092E20008951092E10008951F920F928A
:105390000FB60F9211242F933F934F935F936F9308
:1053A0007F938F939F93AF93BF93EF93FF938091DE
:1053B000E10082FF0BC08091E20082FF07C0809174
:1053C000E1008B7F8093E1000E940D2C8091E10031
:1053D00080FF19C08091E20080FF15C08091E2003B
:1053E0008E7F8093E2008091E20080618093E200F2
:1053F0008091D80080628093D80019BC85E08093AA
:105400002F030E94D9258091E10084FF2BC0809159
:10541000E20084FF27C084E089BD86E089BD89B5AC
:10542000982F917080FFFBCF8091D8008F7D809363
:10543000D8008091E1008F7E8093E1008091E200AE
:105440008F7E8093E2008091E20081608093E20091
:1054500080912B03882309F443C084E080932F03B9
:105460000E94DA258091E10083FF29C08091E2004B
:1054700083FF25C08091E100877F8093E10082E077
:1054800080932F0310922B038091E1008E7F8093F5
:10549000E1008091E2008E7F8093E2008091E20043
:1054A00080618093E20042E060E080E00E94DF28BB
:1054B0008091F00088608093F0000E94D825FF91D1
:1054C000EF91BF91AF919F918F917F916F915F917C
:1054D0004F913F912F910F900FBE0F901F901895F5
:1054E0008091E30087FD93E090932F03B9CF1F9243
:1054F0000F920FB60F9211242F933F934F935F9308
:105500006F937F938F939F93AF93BF93CF93DF93CB
:10551000EF93FF93D091E900DF708091EC00C82FEA
:10552000C17080FDC0E81092E9008091F000877F93
:105530008093F00078940E94BB2A1092E900809139
:10554000F00088608093F000CD2BCF70C093E9000D
:10555000FF91EF91DF91CF91BF91AF919F918F918B
:105560007F916F915F914F913F912F910F900FBE5F
:105570000F901F9018951F93CF93DF93CDB7DEB791
:10558000AA970FB6F894DEBF0FBECDBF80E393E0BD
:105590002091F100FC012193CF01F3E088339F07B4
:1055A000B9F70E94F0258091E80083FF1EC1809129
:1055B0003003909131039A3008F017C1E92FF0E0E1
:1055C000EB5DF14D0C94C02C803899F0823809F0D5
:1055D0000CC1809134038F70853008F006C1809330
:1055E000E9008091EB0085FB882780F91092E900A3
:1055F00006C080912C0390912D03911182609091AF
:10560000E800977F9093E8008093F1001092F100FA
:105610008091E8008E77E5C0882309F4D3C08230FA
:1056200009F0E3C0809132038111D6C08091340328
:105630008F702FEF280F243008F0D7C08093E90037
:105640002091EB0020FFC8C0933031F48091EB0033
:1056500080628093EB00C0C09091EB0090619093CA
:10566000EB0021E030E001C0220F8A95EAF7209399
:10567000EA001092EA008091EB008860EACF811185
:10568000B4C0109132031F778091E3008078812BA2
:105690008093E3008091E800877F8093E8000E9478
:1056A00013298091E80080FFFCCF8091E30080689F
:1056B0008093E30082E0111183E080932F0395C073
:1056C0008058823008F091C080913203909133036A
:1056D0008C3D23E09207A1F583E08A838AE28983E7
:1056E0004FB7F894DE01139620E03EE051E2E32F3D
:1056F000F0E050935700E49120FF03C0E295EF7073
:105700003F5FEF708E2F90E0EA30C0F0C7968D9328
:105710009D932F5F243159F74FBF8091E800877F19
:105720008093E8006AE270E0CE0101960E9426288C
:105730008091E8008B778093E80057C0C096E7CF50
:105740006091340370913503AE014F5F5F4F0E944B
:105750001327BC01892B09F448C09091E800977F7A
:105760009093E80089819A810E948228E1CF803855
:10577000E1F58091E800877F8093E80080912B031A
:105780008093F10045CF811130C090913203923067
:1057900060F58091E800877F8093E80090932B0369
:1057A0000E94132980912B03882311F084E005C007
:1057B0008091E30087FDFACF81E080932F030E9460
:1057C000DC2513C080913203813079F481E093307D
:1057D00009F080E080932D031092E9008091E800A9
:1057E000877F8093E8000E9413298091E80083FF5F
:1057F0000AC08091E800877F8093E8008091EB00E9
:1058000080628093EB00AA960FB6F894DEBF0FBEBD
:10581000CDBFDF91CF911F9108950895CF938091CF
:105820002F038823A1F0C091E900CF709091EC0084
:10583000892F817090FD80E8C82B1092E90080913B
:10584000E80083FD0E94BB2ACF70C093E900CF918E
:105850000895002480FD060E660F11F08695D1F79D
:10586000802D08950024552704C0080E591F880F65
:10587000991F009729F076956795B8F37105B9F7E8
:10588000802D952F0895EE27FF27AA27BB2708C054
:10589000A20FB31FE41FF51F220F331F441F551F14
:1058A000969587957795679598F37040A9F7009737
:1058B00099F7BD01CF010895991B79E004C0991FA4
:1058C000961708F0961B881F7A95C9F7809508955A
:1058D00087FB082E062687FD819567FD61950E944E
:1058E0005C2C0EF4919507FC81950895AA1BBB1BB7
:1058F00051E107C0AA1FBB1FA617B70710F0A61BD0
:10590000B70B881F991F5A95A9F780959095BC01F0
:10591000CD01089597FB072E16F4009407D077FD6C
:1059200009D00E94762C07FC05D03EF49095819515
:105930009F4F0895709561957F4F0895A1E21A2EAB
:10594000AA1BBB1BFD010DC0AA1FBB1FEE1FFF1F23
:10595000A217B307E407F50720F0A21BB30BE40B73
:10596000F50B661F771F881F991F1A9469F76095BA
:105970007095809590959B01AC01BD01CF01089574
:10598000EE0FFF1F0590F491E02D099469279627EB
:10599000692778278727782708958F929F92AF925B
:1059A000BF92CF92DF92EF92FF92CF93DF93EC0101
:1059B000688179818A819B816115710581059105D5
:1059C00021F464E279ED8BE597E02DE133EF41E0DE
:1059D00050E00E94802D49015A0127EA31E440E05D
:1059E00050E00E94432C6B017C012CEE34EF4FEF12
:1059F0005FEFC501B4010E94432CDC01CB018C0D8B
:105A00009D1DAE1DBF1DB7FF03C00197A109B04882
:105A100088839983AA83BB839F77DF91CF91FF907F
:105A2000EF90DF90CF90BF90AF909F908F900895B0
:105A30000E94CD2C089580E091E00E94CD2C089525
:105A4000B0E0A0E08093000190930101A0930201D7
:105A5000B09303010895FC014150504030F0019093
:105A60000616D1F73197CF01089588279927089511
:105A7000F999FECF92BD81BDF89A992780B5089516
:105A8000A6E1B0E044E050E00C94722DA8E1B0E053
:105A900042E050E00C94722D262FF999FECF92BD72
:105AA00081BDF89A019700B4021639F01FBA20BDE3
:105AB0000FB6F894FA9AF99A0FBE08950396272F15
:105AC0000E944D2D0E944C2D252F0E944D2D242FDC
:105AD0000C944D2D0196272F0E944D2D0C944C2D8A
