:100000000C9438030C947F030C947F030C947F03AF
:100010000C947F030C947F030C947F030C947F0358
:100020000C947F030C947F030C947F030C94FD29A4
:100030000C94AE2A0C94DD230C947F030C947F0364
:100040000C947F030C947F030C947F030C94342452
:100050000C947F030C947F030C947F030C947F0318
:100060000C947F030C947F030C947F030C947F0308
:100070000C947F032B0014001A00090013000A00DF
:100080000D000F0018001C0033002A002961040035
:1000900015001600170007000B00110008000C00E7
:1000A00012003400E1001D001B00060019000500CD
:1000B0000E00100036003700380028003500E3003D
:1000C0000000E2002C0000002C0000004C05E600BF
:1000D00000003900000000000000000000000000E7
:1000E00000000000000000000000000035021E02B9
:1000F0001F022002210222022302240225022602DC
:1001000027022A0038001E001F00200021002200C4
:1001100023002400250026002700310001000100F3
:100120000100010001000100010057002E00010044
:100130000100010029004C05000029030100000016
:100140000100000064003500000001000000000014
:10015000000000000000000000000000000000009F
:100160000000000001000100010052000100010038
:1001700001002D0201002F003000010001000100EC
:10018000500051004F00010001002D0001002F021E
:10019000300201003A003B003C003D003E003F00C1
:1001A000400041004200430044004500005C010063
:1001B000000001000100000001000000010001003A
:1001C000000001000000000000000000000000002E
:1001D000000000000000000000000000010001001D
:1001E000010052000100010001002D0201002F005A
:1001F0003000010001000100500051004F000100DB
:1002000001002D0001002F02300201003A003B00E6
:100210003C003D003E003F004000410042004300E2
:1002200044004500005C01000000010001000000E6
:1002300001000000010001000000010000000000BA
:1002400000000000000000000000000000000000AE
:100250000000000000000000000000002A2B280021
:100260000000000000000000000000000000002965
:10027000000000002C1E3420212224342627252EA5
:10028000362D3738271E1F202122232425263333DD
:10029000362E37381F0405060708090A0B0C0D0E09
:1002A0000F101112131415161718191A1B1C1D2FD5
:1002B0003130232D350405060708090A0B0C0D0EF5
:1002C0000F101112131415161718191A1B1C1D2FB5
:1002D0003130354C0000000000000000000000003C
:1002E00000000000000000007E0F00D4FFFFFFC7E9
:1002F0000000007832190A00047F3F1F6432146442
:100300003214783C1E1E140A052223252628292A89
:100310002C2D2F3032333536383A3B3D3E40424368
:100320004547494A4C4E5051535557595A5C5E60A7
:1003300062646668696B6D6F71737577797B7D7FB9
:1003400081838587898A8C8E90929496989A9C9EB8
:100350009FA1A3A5A7A8AAACAEAFB1B3B4B6B8B9D4
:10036000BBBCBEBFC1C2C3C5C6C7C9CACBCCCDCE3C
:10037000D0D1D2D2D3D4D5D6D7D7D8D9D9DADADB1F
:10038000DBDBDCDCDCDCDCDDDDDDDDDCDCDCDCDCAB
:10039000DBDBDBDADAD9D9D8D7D7D6D5D4D3D2D2EA
:1003A000D1D0CECDCCCBCAC9C7C6C5C3C2C1BFBED2
:1003B000BCBBB9B8B6B4B3B1AFAEACAAA8A7A5A33D
:1003C000A19F9E9C9A98969492908E8C8A898785FC
:1003D00083817F7D7B79777573716F6D6B696866DB
:1003E0006462605E5C5A5957555351504E4C4A49AD
:1003F00047454342403E3D3B3A3836353332302F55
:100400002D2C2A292826252322FFAA7F55400001CA
:1004100001010101010101010202020202020202C4
:100420000203030303030303030404040404040496
:10043000050505050506060606060707070707085A
:10044000080808090909090A0A0A0B0B0B0C0C0C0D
:100450000D0D0D0E0E0E0F0F0F10101111111212A7
:1004600013131414151516161717181819191A1A24
:100470001B1B1C1D1D1E1E1F202021222223242485
:10048000252626272829292A2B2C2D2D2E2F3031C1
:100490003232333435363738393A3B3C3D3E3F40D3
:1004A0004142434445464748494A4C4D4E4F5051BE
:1004B0005354555658595A5B5D5E5F616264656678
:1004C00068696B6C6D6F7072737577787A7B7D7EFF
:1004D0008082838587888A8C8E8F91939596989A4F
:1004E0009C9EA0A2A3A5A7A9ABADAFB1B3B5B7BA67
:1004F000BCBEC0C2C4C6C9CBCDCFD1D4D6D8DBDD3B
:10050000DFE2E4E7E9EBEEF0F3F5F8FAFDFF0403D0
:1005100030000000100351005500410052004B0014
:10052000B20000000A034E0061007300700000007A
:100530000403090409025B00030100A0FA09040096
:1005400000010301010009211101000122400007FF
:1005500005810308000A09040100020300000009E4
:10056000211101000122220007058203200001075A
:100570000503032000010904020001030000000933
:100580002111010001226D000705840320000A12D9
:1005900001100100000008707042530100010203C5
:1005A000010660FF0961A1010962150026FF00959F
:1005B00020750881020963150026FF009520750843
:1005C0009102C005010980A101850319012AB70024
:1005D000150126B700950175108100C0050C0901B1
:1005E000A101850419012AA002150126A002950186
:1005F00075108100C005010906A1018505050719CF
:10060000E029E71500250195087501810205071904
:100610000029EF1500250195F075018102050819E3
:10062000012905950575019102950175039101C098
:1006300005010906A101050719E029E715002501B3
:10064000950875018102950175088101050719005A
:1006500029FF150026FF0095067508810005081979
:10066000012905950575019102950175039101C058
:1006700011241FBECFEFD4E0DEBFCDBF04B603FE12
:1006800027C080914A0390914B03A0914C03B091F5
:100690004D038730904BA740B04BD1F410924A03E2
:1006A00010924B0310924C0310924D0314BE84B76A
:1006B000877F84BF0FB6F894A89580916000886109
:1006C00080936000109260000FBEE0E0F8E30995AF
:1006D00011E0A0E0B1E0ECECFCE502C005900D9269
:1006E000A23DB107D9F723E0A2EDB1E001C01D9210
:1006F000AA34B207E1F70E94DE260C94D62D0C94A2
:100700000000CF93DF939C013A9521153F4168F596
:10071000EC01CC27D170DC01AA27B270AC014427D0
:1007200054709C012227387094FF11C080E1CD2BBA
:1007300009F480E0AB2B09F08062452B09F080645E
:10074000232B09F08068FB01DF91CF91099481E0B0
:10075000CD2B09F480E0AB2B09F08260452B09F02A
:100760008460232B81F38860EECFDF91CF910895D1
:10077000CF93DF93EC01805E9109089720F065EB41
:100780007BE1209711F46AE579E1CE010E948103B3
:100790008C2FDF91CF910C946918CF93DF93EC01EC
:1007A0000E94F818CE01805E9109089720F06CEB4A
:1007B0007BE1209711F461E679E1CE01DF91CF91E1
:1007C0000C948103CF93DF93EC010E94B803CE0118
:1007D000DF91CF910C94CD0381E0089581E00895DD
:1007E0000C94EE0308950C94F2031F93CF93DF93C0
:1007F00000D000D00F92CDB7DEB749835A836B8308
:1008000030913C0289819A8131111DC06623B9F073
:100810002223A9F00E94DB20182F682F89819A815A
:100820000E94782069817A81812F0F900F900F901C
:100830000F900F90DF91CF911F910C947C130E9429
:10084000AF20182FEFCF0E94DB2069817A81EDCF96
:10085000FC01262F408151816281738184810C9437
:10086000F503CF93DF93EC0160E00E942804BE0102
:10087000DF91CF910C94F303FF920F931F93CF93CB
:10088000DF93E82FF0E0EC5AFD4FF490C82FC695A7
:10089000C695C695D0E0FE01EC51FD4F04918770DE
:1008A00010E0082E02C0159507950A94E2F7017032
:1008B0001127CC52DD4FFE01C491D0E002C0D59586
:1008C000C7958A95E2F7C170DD270115110519F06A
:1008D00081EE0E946918209719F086EE0E9469182F
:1008E0008F2D0E944719CD2B19F086EE0E94F81823
:1008F000012B41F081EEDF91CF911F910F91FF907D
:100900000C94F818DF91CF911F910F91FF900895EB
:10091000EF92FF921F93CF93DF93EC01162F888104
:10092000882309F451C0813009F04BC0898181309E
:1009300099F47E0122E0E20EF11C8A810E9447199F
:10094000E7012196812F815050F3EFE9FFE03197C5
:10095000F1F700C00000F7CF823041F47E0182E061
:10096000E80EF11C8A810E946918EACF833041F4B5
:100970007E01E2E0EE0EF11C8A810E94F818E0CFC1
:10098000843011F02196DDCF2A81229690E080E01C
:10099000FE0131962053330B2A30310548F0019780
:1009A00080F2EFE9FFE03197F1F700C00000F7CFE8
:1009B0006AE070E00E94692C820F931F2981EF0189
:1009C000E7CF0E943C04BDCFDF91CF911F91FF90F4
:1009D000EF90089560E00C9488048F929F92AF92FC
:1009E000BF92CF92DF92EF92FF920F931F936B0112
:1009F0007C0181E090E0A0E0B0E04C015D0104C02A
:100A0000880C991CAA1CBB1C4A95D2F7B501A401FD
:100A10004C015D0104C0880C991CAA1CBB1C2A95C2
:100A2000D2F7482959296A297B2904C0880F991FC0
:100A3000AA1FBB1F0A95D2F78A019B010C211D2119
:100A40002E213F21041715072607370789F48C2923
:100A50009D29AE29BF29BC01CD011F910F91FF90A7
:100A6000EF90DF90CF90BF90AF909F908F900895C0
:100A700080959095A095B0958C219D21AE21BF21A8
:100A8000EACF0F93382F262F60919D0270919E021E
:100A900080919F029091A002042F432F0E94ED04A9
:100AA0000F910C94B61F0E947E240E94282281116F
:100AB00002C00E94C5220E945C140C94D6070C94BC
:100AC000D907282F2F7041F0822F90E02A3010F4A0
:100AD0004D9608950697089587E290E00895089549
:100AE0000E94D51B0E946F052FEF84E39CE02150EC
:100AF00080409040E1F700C000000C9458240F9310
:100B00001F93CF93DF93EC0161E00E9428048C01D6
:100B1000BE010E944A118823B9F1BE01C8010E949A
:100B2000F003882389F1BE01C8010E94D3148823F1
:100B300059F1BE01C8010E947C15882329F1BE012C
:100B4000C8010E94CE158823F9F0BE01C8010E9499
:100B5000F1168823C9F0BE01C8010E9456108823EF
:100B600099F08A81882339F001158CE5180751F036
:100B70000E3D1C4579F0CE01DF91CF911F910F9171
:100B80000C94EC030E94700580E0DF91CF911F91DF
:100B90000F9108950E94C522F7CF08950C94CD05BA
:100BA00081E008950C94D005CF93C82F0E94CE0504
:100BB0008C2FCF910C94D20590E080E00895089599
:100BC000FC01EE0FFF1FEC50FD4F859194910895AD
:100BD000CF93DF930E947C130E94FB06EC018115EA
:100BE00020E5920708F041C0811530E4930708F032
:100BF000B6C0803E910518F5803C910508F0A0C074
:100C0000883A910570F4853A910508F091C08130D9
:100C1000910501F10097F1F00497E0F4D0E0C0E015
:100C200019C08F3B9105D0F7C85AD0E0CC0FDD1F1B
:100C3000CC5DDE4F0990D881C02DD4640BC08115E6
:100C400040E2940758F4C11581E0D80718F4C83E73
:100C5000D10520F7CE01DF91CF910895811520E3D2
:100C6000920708F073C09F706DC0811535E593073A
:100C700070F5811544E5940708F0A5C0C11582E51B
:100C8000D80750F4C11521E5D20708F46BC0DC2F5A
:100C9000CC27C16FD06ADECF9C2F969596959E018A
:100CA00023703327C115D34508F07BC0C1E0D0E0E5
:100CB00002C0CC0FDD1F2A95E2F7892F90E0E5E016
:100CC000880F991FEA95E1F7C82BD92B68C0C11589
:100CD00089E5D807A8F4C11528E5D20708F078C03F
:100CE000C11536E5D30708F099CF8C2F0E949207E3
:100CF000C82FD0E0DC2FCC27CC27DF71D062AACF61
:100D0000C1154AE5D40708F468C0CE019056811594
:100D1000904208F083CF8D2F8F710E94920790E050
:100D2000982F882788279F719C012C2BE901E6CFFB
:100D3000C55AD0E0CE5ADE4FC881D0E0D0648ACF09
:100D4000805C91090E94E005EC0184CF9927D3FFD4
:100D500003C0EC01D86C7ECFEC01D06C7BCFDF7090
:100D6000D06A78CFCE01A4E096958795AA95E1F751
:100D700083702C2F26952695237030E0B5E0220F46
:100D8000331FBA95E1F7382B8C2F8370C1E0D0E088
:100D900002C0CC0FDD1F8A95E2F7C22BD32BDC6893
:100DA00059CFC1E0D0E002C0CC0FDD1F2A95E2F799
:100DB000892F90E075E0880F991F7A95E1F7C82B8D
:100DC000D92BDA6847CFD82FCC27C46FD06A42CF4F
:100DD000DC2FCC27C06FD06A3DCF8C2F8F700E9444
:100DE000920734E0D695C7953A95E1F7CF709C2FDE
:100DF000EC01D0692FCF82389105B1F1B0F4813385
:100E0000910509F475C048F48932910509F469C067
:100E10008A32910509F473C008958533910509F468
:100E200059C08933910501F10895833E9105A9F1D7
:100E300038F4803E9105F9F0823E910549F108951C
:100E4000863E9105A9F1873E9105C9F1843E910541
:100E500019F520913C0321FF1FC080913B0384FDC5
:100E600014C087EE90E0089520913B032370A1F019
:100E700080EE90E0089520913B0320FD47C0309123
:100E80003C0330FF09C024FF44C090E080E004C070
:100E900020913B0322FDF7CF089520913B0322FDD3
:100EA0003BC030913C0330FDE3CF24FFF5CFEDCFC5
:100EB00020913B0323FFF0CF24FDE7CFD2CF209139
:100EC0003B0323FD2CC030913C0331FFEECF84EE79
:100ED00090E0089520913B0325FFDECF89E290E06A
:100EE000089520913B0325FFD7CF85E390E0089537
:100EF00020913B0326FFD0CF8AE290E00895209115
:100F00003B0326FFC9CF81E390E0089589E390E099
:100F1000089583EE90E0089582EE90E0089586EEC5
:100F200090E0089590913B0392FF06C0282F28710E
:100F30002830F9F4877F846093FF06C0282F28713A
:100F40002831F1F4877E846120913C0320FF06C0A4
:100F5000382F38713830D9F4877F816021FF06C07F
:100F6000282F28712831D1F4877E816194FD877EF6
:100F70000895282F24712430F9F68B7F8860DCCF08
:100F8000282F2471243101F78B7E8861DDCF382F23
:100F90003171313019F78E7F8860E0CF282F2171B1
:100FA000213121F78E7E8861E1CF08950C94D50719
:100FB00008950C94D807E82FF0E0EE0FFF1FE750DC
:100FC000FD4F808191810895089580EA8A95F1F717
:100FD0000895CF93DF93A1E6B1E046E651E0C1E08A
:100FE000D0E08D91E82FE295EF70F0E061A18F7075
:100FF0009E0101C0220F8A95EAF7922F90959623C1
:1010000091A382A1822B82A34A175B0751F7A5E522
:10101000B1E061E070E08D91E82FE295EF70F0E0D3
:1010200041A18F709B0101C0220F8A95EAF7922F90
:101030009095942391A382A1822B82A381E0A13673
:10104000B80749F71092F0021092EF021092FA02DC
:101050001092F9021092F2021092F1021092FC0228
:101060001092FB021092F4021092F3021092FE0210
:101070001092FD021092F6021092F50210920003F7
:101080001092FF021092F8021092F70210920203DF
:101090001092010385E00E94D808DF91CF910C9453
:1010A00053058F929F92AF92BF92CF92DF92EF92B1
:1010B000FF920F931F93CF93DF9381E6E82E81E099
:1010C000F82E0FEE12E0912CAA24A394B12CF70174
:1010D00081917F01C82FC295CF70D0E099A18F7008
:1010E000650101C0CC0C8A95EAF7892F8C2989A368
:1010F0008AA18C2C809488218AA30E94E507E5E5CB
:10110000F1E050E040E030E020E06191A62FA295B0
:10111000AF70B0E090968C9190E06F7002C09595A2
:1011200087956A95E2F780FD3EC0C501042E02C096
:10113000880F991F0A94E2F7282B392B4F5F5F4FD6
:101140004C30510511F789A1882289A28AA1C82AA9
:10115000CAA2F801808191812817390739F13183BA
:10116000208381E0982A0E5F1F4FF6E6EF16F1E02C
:10117000FF0609F0ACCF292D45E069EF72E08FEE54
:1011800092E00E94D9080E945F05892DDF91CF91DE
:101190001F910F91FF90EF90DF90CF90BF90AF9095
:1011A0009F908F90089590E080E0C6CF80E0DACFE6
:1011B0000895FF920F931F93CF93DF93F82E092F7B
:1011C000162FD72FC42F222349F081E08093D4011A
:1011D0000E940D249093D3018093D2018091D40179
:1011E0008823A1F08091D2019091D3010E942524FF
:1011F000069760F0EF2DF02FA12FBD2F90E080E03B
:10120000D0E08C179D0744F01092D401DF91CF916C
:101210001F910F91FF900895219131912D933D934E
:101220000196EFCFEF92FF920F931F93CF93DF932F
:10123000982F711111C0442329F0E82FF0E0E25FEC
:10124000FB4F9491692F792F892FDF91CF911F91B7
:101250000F91FF90EF900895262F30E0C72FD0E038
:10126000E82FF0E0442321F0E25FFB4FE491F0E04F
:10127000C90166E070E00E94692C0FEF10E0B80130
:101280000E94AD2CDB01220F331FCB0165E570E01E
:101290000E94692C281B390BE22EEE0CE20EC801CD
:1012A0008C1B9D0BBF010E94692C292FF12CC701BB
:1012B000BE010E94692C492F50E0C801841B950B88
:1012C000BF010E94692C392FC8018E199F09BE01E8
:1012D0000E94692C492F50E0C801841B950BBF0167
:1012E0000E94692C892F7E2FA230B10589F038F435
:1012F000109759F0119781F0922F232F06C0A43038
:10130000B10569F080F01697B9F7692F822F9DCF4C
:101310009E2F722F282FF9CF9E2F732FF6CF922F4B
:101320002E2F782FF2CF722F2E2F932FEECF41E05A
:101330000C9412090895CF93DF93762FE901682F5B
:10134000842F0E949709798368838A83DF91CF91E4
:10135000089580910303982F9E7F29F48170826005
:101360008093030308958635E8F381708465F8CF90
:1013700088E090E00C94772DCF92DF92EF92FF926D
:101380006B017C010E94A909B701A60188E090E0E9
:10139000FF90EF90DF90CF900C94952D6091030318
:1013A0007091040380910503909106030C94BC098D
:1013B000E3E0F3E083E0808311828FEF8283838315
:1013C000148260817181828193810C94BC09809127
:1013D000030380FF02C08695089580E008959091F0
:1013E0000703933018F49F5F90930703882351F00D
:1013F00060910303709104038091050390910603AB
:101400000C94BC09089581E00C94EF0990910703B6
:10141000992319F0915090930703882351F060911C
:1014200003037091040380910503909106030C94CB
:10143000BC09089581E00C94060A80910703089581
:1014400080930703662351F06091030370910403B6
:1014500080910503909106030C94BC09089560E007
:101460000C94200A80910403089580910503089547
:1014700080910603089570E00C94C6103091080125
:101480008091030380FF0CC08091070190E063E02E
:1014900070E00E94692C632F885F9C4F0C943B0A7C
:1014A0002091090140910A01822F90E063E070E0F1
:1014B0000E94692CFC01E85FFC4F241728F7118279
:1014C000108212822F5F3396F8CFA82FB62F80910B
:1014D000030380FF17C02091090130910A01822F78
:1014E00090E063E070E00E94692CFC01E85FFC4F33
:1014F000231710F00C943E0AA183B08342832F5F20
:101500003396F6CF0895CF93DF9300D00F92CDB7E7
:10151000DEB79091030390FF0AC09E012F5F3F4FFB
:101520000E949B094B8169818A810E94650A0F9004
:101530000F900F90DF91CF910895CF93DF93EC013F
:10154000EC81F0E0E75FFC4F4491E3E0F3E062817F
:1015500081810E94830A8C818F5F8C83DF91CF9180
:101560000895CF93DF93EC01E3E0F3E043816281E0
:101570008C810E94830A8C818F5F8C83DF91CF9155
:1015800008950F931F93CF93DF9300D00F92CDB7A1
:10159000DEB78C018091D50181110AC09E012F5FB9
:1015A0003F4F4FEF6FEF0E949B098A818093D501D7
:1015B000F8016481613069F08091D50140E06623D3
:1015C00061F040E0623011F44091D50180E060E0CC
:1015D00004C06091D50140E080E00E94650AF801F6
:1015E000848190E0019663E070E00E94C12C8483C6
:1015F0000F900F900F90DF91CF911F910F91089551
:10160000AF92BF92CF92DF92EF92FF920F931F9310
:10161000CF93DF9300D00F92CDB7DEB7182FF62E01
:10162000042FE22E9091030390FF29C0E92FE69545
:10163000AE2FB0E0AA59BE4F8C91809325029E7FB9
:10164000923059F59E012F5F3F4F812F0E949B09D9
:101650004B8169818A810E94650A10930403F0928C
:10166000050300930603EE2051F06091030370918F
:10167000040380910503909106030E94BC090F901A
:101680000F900F90DF91CF911F910F91FF90EF90EE
:10169000DF90CF90BF90AF900895823019F4009101
:1016A0000603DBCF863019F410910403D6CF8930BE
:1016B000D9F3893191F6E9518E2F8170D82EE695B4
:1016C000F0E0E75FFB4FA590B490C12CBB244091A4
:1016D0000B01C41618F00E943E0ABFCF2C2D30E03B
:1016E000C501B9010E94692C642F70E00E94AD2CE5
:1016F000E12FD11014C0E60F80910901820F932FC2
:10170000911D63E070E00E94692C9C01285F3C4FB2
:10171000402F6F2D8E2F0E949B09C394D8CFE61BBC
:10172000EBCFE3E0F3E09181282F438162818CE0ED
:10173000890F0C94000B81E00C94910BE3E0F3E033
:101740009181282F4381628184EF890F0C94000BD3
:1017500081E00C949E0BE3E0F3E062812CE0620FE9
:1017600008F46FEF282F438181810C94000B81E0F6
:101770000C94AB0BE3E0F3E062812CE0621B08F415
:1017800060E0282F438181810C94000B81E00C9450
:10179000BA0BE3E0F3E043812CE0420F08F44FEF93
:1017A000282F628181810C94000B81E00C94C90B7D
:1017B000E3E0F3E043812CE0421B08F440E0282FF3
:1017C000628181810C94000B81E00C94D80B20E0A5
:1017D0000C94000BEF92FF921F93CF93DF93EC01D9
:1017E00010E0EE24EA94F12C30910B01131770F005
:1017F0000E943E0A9A818C8190FF27C08F5F8C8364
:10180000DF91CF911F91FF90EF9008958091090192
:10181000810F9927991F63E070E00E94692CFC01F9
:10182000E85FFC4F632F70E0C7010E94C12C812F3D
:101830000E94602C9C819F014091060360910503EA
:10184000890F0E949B091F5FCFCF8150D8CFAF92E5
:10185000BF92CF92DF92EF92FF920F931F93CF939D
:10186000DF93FC018281DFEF80FFD1E0C0E03EE04A
:10187000A32E80910B01C817C8F00E943E0A8091E8
:10188000D701D13009F054C0811102C080910B0101
:1018900081508093D701DF91CF911F910F91FF90DD
:1018A000EF90DF90CF90BF90AF90089580910901A5
:1018B000CC2ED12C8C0D9D2D911D63E070E00E94EB
:1018C000692C885F9C4F7C01FC011182108212827E
:1018D00004E010E0B12C8091D7018B0D8F3014F112
:1018E0006A2D0E949F2C892F082E000C990BC81678
:1018F000D90691F48091060390E0B8010E94692C0A
:1019000095958795959587959701482F6091050343
:10191000809104030E949B09BD0E01501109D9F664
:10192000CF5FA7CF87FFE0CF90910B01890FDCCF6E
:1019300090E0019660910B0170E00E94C12CA9CF4C
:10194000CF932091090130910A01822F90E063E04A
:1019500070E00E94692CFC01E85FFC4F231720F126
:10196000C0E060910B01C61728F10E943E0A209149
:1019700005018091D601820F8093D60190910601D6
:10198000920F90930601191654F4082E000C990B2F
:1019900040910B014150550B841795071CF0219580
:1019A00020930501CF9108951182108212822F5F3A
:1019B0003396D4CFEC2FF0E070E0CF010E94C12C21
:1019C00090910901890F90E02091D601022E000C20
:1019D000330B63E070E00E94692CE217F307ACF070
:1019E00020910601022E000C330B2E173F076CF0DE
:1019F0009C01285F3C4F4091060360910503809154
:101A000004030E949B09CF5FACCFFC01E85FFC4F51
:101A1000118210821282F7CF4F925F926F927F9263
:101A20008F929F92AF92BF92CF92DF92EF92FF92EE
:101A30000F931F93CF93DF938C01FC01C481CC2EB5
:101A4000D12CF12CE12CA7019601C701B6010E940F
:101A50007A2CA70196010E947A2C2B013C0130E2DE
:101A6000C32ED12CCC1AD1080D2C000CEE08FF0887
:101A700025E530E040E050E00E947A2C4B015C010B
:101A8000A7019601C701B6010E947A2CA701960111
:101A90000E947A2C9B01AC01240D351D461D571D5B
:101AA000C501B4010E94D52CD22F822F90E02A329A
:101AB000A0F563E070E00E94692C97FD0196959572
:101AC0008795C82FC095F12C85E5E82EED1A8091F9
:101AD0000B01F81648F10E943E0AF801948181E05A
:101AE000992319F0903219F48FEF809304018091BB
:101AF0000401890FF8018483DF91CF911F910F9129
:101B0000FF90EF90DF90CF90BF90AF909F908F901D
:101B10007F906F905F904F90089525E530E0A90188
:101B2000481B590BCA01C5CFEE2DF1FCED2F80915A
:101B300009018F0D9927991F63E070E00E94692CBD
:101B40009C01285F3C4F4C2F609105038E2F0E9413
:101B50009B09F394BCCF0F931F93CF93DF938C011A
:101B6000D0E0C0E030910B013C171D0609F074F481
:101B70000E943E0AF801848190E0019681709927C5
:101B80008483DF91CF911F910F9108958091090176
:101B90008C0F9D2F911D63E070E00E94692CAC01B9
:101BA000485F5C4FF80194816091050380910403C4
:101BB00036953C171D0651F04CF0992349F09A01D7
:101BC000409106030E949B092196CCCF9923B9F33B
:101BD0009A0140E0F7CF9F92AF92BF92CF92DF92EF
:101BE000EF92FF920F931F93CF93DF93FC01C2807C
:101BF000A48081E08483D12C8BE4B82E9924939423
:101C00000FEF10E09BE4E92EF12C80910B01D81628
:101C100068F0DF91CF911F910F91FF90EF90DF90CF
:101C2000CF90BF90AF909F900C943E0ACD2DD0E006
:101C3000CE0165E070E00E94692CFC01E852FE4F85
:101C4000A1101DC013821282809109018C0F9D2F5B
:101C5000911D63E070E00E94692C9C01285F3C4F5D
:101C6000CE0165E070E00E94692CFC01E852FE4F55
:101C70004281618180810E949B09D394C6CF2381D8
:101C80002223A1F12150238344813B2D321B41119A
:101C900001C0322FCE0165E070E00E94692CFC018A
:101CA000E852FE4F80910603632F70E090E00E949F
:101CB000692CB7010E94AD2C6283211104C044231A
:101CC00011F01482B38222E02C1508F4BDCFCE01AE
:101CD00065E070E00E94692CFC01E852FE4F8091A3
:101CE00004038083809105038183AECF0E94522D2F
:101CF000823091400CF0A8CFF2E020910403FC1553
:101D000030F40E94522DB8010E94C12C282FCE0120
:101D100065E070E00E94692C88529E4FFC01208390
:101D2000F2E020910503FC1550F40E94522D209101
:101D300005032695622F70E00E94C12C280FCE016A
:101D400065E070E00E94692CFC01E852FE4F21839F
:101D50001282B382948278CFE3E0F3E080818E7FB9
:101D6000808360817181828193810E94BC0910927D
:101D700026022FEF80E792E0215080409040E1F76B
:101D800000C000000C943E0AE3E0F3E080818E7F07
:101D90008083109226022FEF80E792E0215080404E
:101DA0009040E1F700C000000C943E0A60910303EC
:101DB000669570E04BE050E08CE091E00E94622D6F
:101DC000892B19F481E0809326020E940D249093C0
:101DD0001F0280931E0208959091030390FF35C067
:101DE0009170811128C0926090930303662351F093
:101DF00060910303709104038091050390910603A1
:101E00000E94BC0960910303669570E04BE050E0CE
:101E10008CE091E00E94622D892BA1F010922602A5
:101E200081E0809321024091060360910503809137
:101E300004030C94E70B8B3210F09465D5CF880F18
:101E4000982BD2CF0E94D60EEBCF0895682F909199
:101E50000303969581E0890F8B3208F081E00C94A2
:101E6000EC0E81E00C94260F682F90910303969559
:101E70008FEF890F09F48AE20C94EC0E81E00C9448
:101E8000340F61E00C94EC0EE3E0F3E080818160BC
:101E9000808386950C94410F8091030380FD0C9400
:101EA000AC0E0C94440F60E00C94EC0E8091240274
:101EB00081112EC00E942822811104C00E94C522D7
:101EC0000E94D8090E94B809609303037093040329
:101ED00080930503909306036E7F61F40E94D809F6
:101EE0000E94B80960930303709304038093050371
:101EF000909306030E94A909109226028091030381
:101F000080FF03C086950E94530F81E080932402D6
:101F10000895E3E0F3E080818160808386950C94EE
:101F2000530F0F931F93CF93DF9380912602882343
:101F300009F49DC080912502E0910303E695E81B1A
:101F4000E09320028230C9F5F0E0EB5FFC4FE491B2
:101F5000CE2FD0E00DE91AE080912102882389F08C
:101F6000109221020E940D249E0120953095820F2F
:101F7000931F90931F0280931E02109223021092CF
:101F8000220280911E0290911F020E9425248C172C
:101F90009D0708F46CC0E0911E02F0911F02CE0F65
:101FA000DF1FD0931F02C0931E028EE192E0F80162
:101FB000DF91CF911F910F910994863049F4F0E0A1
:101FC000EE5FFC4FE491CE2FD0E001EB1AE0C4CFDE
:101FD000893051F4E695F0E0E150FD4FE491CE2FC9
:101FE000D0E00AEE1BE0B8CF8F3051F4E695F0E078
:101FF000E450FD4FE491CE2FD0E007E21CE0ACCFDF
:10200000853149F4F0E0E750FD4FE491CE2FD0E068
:1020100000EA1CE0A1CFC8E2D0E00CE01DE088316E
:1020200009F49ACF833239F4E7EFF2E0C591D49105
:1020300001EC1AE091CFC4EFD1E00BEA1DE084324D
:1020400009F48ACFC0EDD7E00AE919E0853209F03A
:1020500083CF8E2F63E00E94932CE92FF0E0EC50A9
:10206000FD4FE491CE2FD0E00BEE1DE075CFDF9158
:10207000CF911F910F910895FA01811101C0FB01C9
:102080000994CF93DF93C82FD62F0E94E7098C17AE
:1020900040F00E94E7098D1720F4DF91CF910C9456
:1020A000310F8C2FDF91CF910C94410F0F931F9321
:1020B000CF938C01FB01C281CC2309F465C00E943F
:1020C00070218272F801E25CFC45E431F10538F4DC
:1020D000E852F24D0C94F72C0E944C0FC0E08C2F6C
:1020E000CF911F910F9108954EE35FE061E37FE090
:1020F0000E943C10F3CF41E35FE06EE37FE0F8CF56
:1021000048EA5BE06BE97BE0F3CF4BE95BE068EA30
:102110007BE0EECF46EC5BE067EB7BE0E9CF47EBA3
:102120005BE066EC7BE0E4CF44EE5BE065ED7BE0FA
:10213000DFCF45ED5BE064EE7BE0DACF4AE15AE0C9
:1021400063E07AE0D5CF43E05AE06AE17AE0D0CFAD
:1021500081E00E94410FC2CF65E082E00E94411001
:10216000BDCF68E086E0FACF6EE089E0F7CF64E1AA
:102170008FE0F4CF67E185E1F1CF88E1EACF62E259
:1021800089E1ECCF83E2E5CFC1E0A9CF9C01CB018F
:10219000509A4BB14E7FEBB1E160FFB7F89463E02A
:1021A00070E00E94692C820F931F8217930741F4FD
:1021B000FFBF8FE594E00197F1F700C0000008959C
:1021C000D9015D919D0168E0EBB9000000C057FFA7
:1021D0004BB9550F000000C000C000C04BB900C093
:1021E0006A9591F7E2CF82E290E00E946F2D8132F2
:1021F00089F483E290E00E946F2D803159F484E2EB
:1022000090E00E946F2D91E0873009F090E0892FD7
:102210008170089580E0FCCFCF93C82F6FEF8111BC
:1022200061E282E290E00E94832D6FEFC11160E1D4
:1022300083E290E00E94832D6FEFC11167E084E29A
:1022400090E0CF910C94832D80E00E940C110C94AF
:102250002222089585E290E00E946F2D682F70E0A1
:1022600090E080E0089585E290E00C94832D0E9438
:1022700029110E94F31081110CC060E070E0CB01C5
:102280000E9433110E94F4120E94E01381E00C942A
:102290000C110895CF93FB01C281CC2309F19C015D
:1022A00022513F452031310520F582510E94F01323
:1022B000C0E08C2FCF91089581E00E94DC1F43E0A5
:1022C00062E081E00E944105F3CF81E00E94FD1FA2
:1022D00043E062E081E00E944105EBCF82E0F6CF6F
:1022E0008031FFE59F0789F381319F45B9F3C1E054
:1022F000E0CF8031EFE59E07F9F281319F45C9F6C5
:1023000082E0DBCF2FEFFC0120830895CF93DF9392
:10231000EC0188818138A9F028F4803871F0DF91D0
:10232000CF910895823881F08338C9F70E94320A2C
:1023300089830E94350A8A83F2CF0E94380A8983F2
:10234000EECF0E94E709FBCF0E941D0AF8CFCF9382
:10235000DF93EC0188818138E1F028F4803869F05E
:10236000DF91CF910895823811F18338C9F70E9427
:10237000380A482F6A81898108C0D9810E94350AAC
:10238000C82F0E94320A4D2F6C2FDF91CF910C94F1
:10239000E70B89810E94530F8981811104C0DF916D
:1023A000CF910C94C40EDF91CF910C94890F898149
:1023B000DF91CF910C942F0AEF92FF920F931F930E
:1023C000CF93DF93EC01062FDC01ED91CD01E150BD
:1023D000E33108F0BFC0F0E0E451F24D0C94F72C6B
:1023E000198289E08A83602FCE01DF91CF911F91FE
:1023F0000F91FF90EF900C94E5258981823069F070
:10240000833071F08130D9F40E9419240E94FD2C90
:102410006A837B838C839D83E6CF0E942A11F6CF4B
:102420007E0110E0812F0E94DB07F70192838383F6
:102430001F5FF2E0EF0EF11C1530A1F7D4CF602F33
:10244000CE010E948211CFCF89818230C1F76A818B
:102450007B818C819D810E94FD2C0E943311C3CF12
:102460004B816A8189810E94C61298278927982703
:102470009D838C83B8CF2C813D813227232732273F
:102480004B816A8189810E94DF12ADCF0E94F412D4
:10249000AACF0E94A711A7CF0E948611A4CF0E94A5
:1024A000CE09A1CF0E94891389839DCF0E948B13EF
:1024B0009827892798279A83898395CF6B8170E025
:1024C00089819A81AE014C5F5F4F982789279827B1
:1024D0000E948E1388CF6B8170E089819A81AE0152
:1024E0004C5F5F4F9827892798270E94B5137BCFB1
:1024F0000E94E01378CF0E94AD12D6CF6B8170E0BE
:1025000089819A81AE014C5F5F4F98278927982770
:102510000E942C1368CF6B8170E089819A81AE0193
:102520004C5F5F4F9827892798270E9452135BCFF3
:102530000E94241158CFCE010E94E5252FEF81EE95
:1025400094E0215080409040E1F700C000000E94DC
:10255000582449CF8FEF888346CF84E00895E82F31
:10256000862F90E068E170E00E94692C242F30E013
:10257000220F331F280F391F8E2F90E068E770E07D
:102580000E94692C820F931F869608950F931F93C4
:10259000CF93DF930E94AF128C010E946F2DC82F42
:1025A000D0E0DC2FCC27C80101960E946F2D9E0140
:1025B000282BC901DF91CF911F910F9108950F939F
:1025C0001F93CF93DF93122F032F0E94AF12EC01C2
:1025D000602F0E94832D612FCE010196DF91CF9154
:1025E0001F910F910C94832DAF92BF92CF92DF92E7
:1025F000EF92FF921F93CF93DF9384E7C82E80E082
:10260000D82ED0E07601C0E014C0F50125913491B8
:10261000412F6C2F8D2F0E94DF1282E0A80EB11C7B
:102620001F5F1C3091F788E1E80EF11CCF5FC530C9
:1026300019F0570110E0E9CFDF5F88E7C80ED11C21
:10264000D43001F7DF91CF911F91FF90EF90DF9091
:10265000CF90BF90AF900895EF92FF920F931F938A
:10266000CF93DF93EC018A017C01E60EF71ECE01C9
:102670008696CE15DF0539F4DF91CF911F910F912A
:10268000FF90EF900895C03E21E0D20740F40E94F1
:102690006F2DF80180830F5F1F4F2196E8CFF8015F
:1026A0001082F9CFCF92DF92EF92FF920F931F9398
:1026B000CF93DF937C016A018C01060F171FEC0199
:1026C000CE018696C017D10749F4DF91CF911F91B3
:1026D0000F91FF90EF90DF90CF900895C03E21E0E2
:1026E000D20740F4FE01EE19FF09EC0DFD1D6081DB
:1026F0000E94832D2196E4CF462F843038F4753024
:1027000028F46C3018F4672F0C94C61290E080E027
:10271000089580E108958AEF91E00895EF92FF9285
:102720000F931F93CF93DF93EC018A017C01E60E98
:10273000F71ECE018A5F9D4FCE15DF0539F4DF917C
:10274000CF911F910F91FF90EF900895CA3F21E024
:10275000D20740F40E946F2DF80180830F5F1F4F56
:102760002196E7CFF8011082F9CFCF92DF92EF9256
:10277000FF920F931F93CF93DF937C016A018C012B
:10278000060F171FEC01CE018A5F9D4FC017D107BE
:1027900049F4DF91CF911F910F91FF90EF90DF905F
:1027A000CF900895CA3F21E0D20740F4FE01EE1910
:1027B000FF09EC0DFD1D60810E94832D2196E3CF62
:1027C000CF93DF93C6E0D2E060E0CE010E94832D7C
:1027D0002196C11584E0D807B9F7DF91CF9108950C
:1027E000DF92EF92FF920F931F93CF93DF9300D06E
:1027F00000D0CDB7DEB7F82E8FE08F1540F08FEF09
:1028000093E00E946F2D06E012E08823C1F00F9044
:102810000F900F900F90DF91CF911F910F91FF902C
:10282000EF90DF900895011584E0180781F3C80147
:102830000E946F2D811101C0FA940F5F1F4FF1109C
:10284000F2CF19821A821B821C82DD24D394780174
:102850008FEFE81AF80AC8010E946F2D89831A8247
:102860008823A9F29FEF980F933078F48A83D98256
:102870000E5F1F4FC7010E946F2D8B83882339F293
:10288000CE0101960E94EA04E2CF8701F9CFCF93EF
:10289000DF93EC0197FF0CC0FB018281882341F09C
:1028A0000E947214CE019F770E94B6140E949E145B
:1028B00081E0DF91CF9108958CE090E00E946F2D30
:1028C00090E0B0E0A0E08093320390933303A093B4
:1028D0003403B09335030895609132038CE090E0A7
:1028E0000C94832D0E947021809336030E948321D3
:1028F00080913203813089F0882359F0823091F041
:102900008430B9F08FE39CE90197F1F700C0000033
:10291000089582EE0E946918F5CF88E193E00E9445
:10292000E203F0CF82EE0E94691887E50E94471902
:10293000E9CF86EE0E94471988E1F8CF80913203F3
:10294000813071F0882341F0823031F0843061F0C1
:10295000809136030C94802182EE0E94F818F8CF03
:102960008CE20E944719F4CF88E2FBCF0F931F93AC
:10297000CF93DF938C01CCE0D0E0C8010C2E02C0D5
:10298000969587950A94E2F78F700E9461050E94E0
:10299000E2032497CC3F8FEFD80779F7DF91CF91EF
:1029A0001F910F9108950F931F93CF93DF93EC0125
:1029B0008B01FB018281882361F00E947021CE018E
:1029C000815E9C458530910520F4809332030E94FE
:1029D0006C14B801CE01DF91CF911F910F910C942F
:1029E0004714AF92BF92CF92DF92EF92FF920F9374
:1029F0001F93CF93DF937C015B01C42FD22FFC0187
:102A000082818823F9F0409329020E940D2490933B
:102A100028028093270280E28C0F883008F061C082
:102A2000C77081E001C0880FCA95EAF7DF91CF91A6
:102A30001F910F91FF90EF90DF90CF90BF90AF90DC
:102A40000C945A1910912902141340C08091270246
:102A5000909128020E9425246C01B701C5010E94B3
:102A6000511EC816D90690F5C0E2CD0F1D17B9F05A
:102A700080E2810F883040F4177081E001C0880F38
:102A80001A95EAF70E946119C83048F481E09D2F39
:102A9000977001C0880F9A95EAF70E945A19802F03
:102AA0000E944719C830E8F4D77081E001C0880F50
:102AB000DA95EAF7DF91CF911F910F91FF90EF9098
:102AC000DF90CF90BF90AF900C94611980E28C0F93
:102AD000883038F4C77081E001C0880FCA95EAF7E2
:102AE000E9CFDF91CF911F910F91FF90EF90DF9091
:102AF000CF90BF90AF9008950F939C01CB01233FDF
:102B00004CE5340759F1A8F4283DFCE53F0701F1F5
:102B1000293D4CE53407D1F1273D3C4591F406E2CF
:102B200021EE41EE67ED7CE50E94F11480E00F910B
:102B30000895253FFCE53F07E9F0B0F0263F3C450E
:102B4000F9F0FC018281882339F110922902EFCF3C
:102B500007E225EE45EE68ED7CE5E6CF06E221EEE4
:102B600040EE63EF7CE5E0CF07E225EE44EE64EF54
:102B70007CE5DACF06E221EE42EE65EF7CE5D4CFCC
:102B800007E225EE46EE66EF7CE5CECF08E221E0D7
:102B900045EE69ED7CE5C8CF81E0C9CFCF93DF93E7
:102BA000EC01FB018281882309F419C1C230FCE5E4
:102BB000DF07C0F1C6319CE5D90730F09E012A5FDE
:102BC0003C452930310570F50E943B2290933C032F
:102BD00080933B03C031ECE5DE0709F4CFC008F079
:102BE0005BC0C8308CE5D80709F4B6C088F5C4309E
:102BF000ECE5DE0709F4A8C0C0F4C2308CE5D807C4
:102C000009F49CC080913B038260C330DC4509F429
:102C100098C080913B0390913C030E9449220E94FE
:102C2000D51B80E0DF91CF91089580913B038061B7
:102C3000C630ECE5DE0709F484C080913B03886070
:102C4000C730DC4508F47DC080913B03806279C0C9
:102C5000CC308CE5D80709F489C070F480913B032F
:102C60008C60CA30ECE5DE0709F46BC008F478C06C
:102C700080913B038E7F65C0CE308CE5D80709F488
:102C800079C080913B038B7FCF30DC4508F459C07D
:102C900080913B038F7E55C0CB3FECE5DE0709F406
:102CA00057C030F5C3318CE5D80709F46FC078F40C
:102CB000C131ECE5DE0709F465C0C231DC4509F03D
:102CC000A8CF0E94D51B80913B038F773AC0C531B6
:102CD0008CE5D80709F462C008F476C080913C0303
:102CE0008160CA3FDC4509F094CF80933C0391CFCB
:102CF000CF3FFCE5DF0709F44DC088F480913C0329
:102D00008D7FCD3F9CE5D90781F380913C038E7F79
:102D1000CE3FDC4550F380913C038360E6CFC13069
:102D2000FDE5DF0709F459C008F444C080E0C23073
:102D3000DD4509F06ECF0E94C7226BCF80913B0327
:102D4000816080933B0365CF80913B038460F9CF22
:102D500080913C038260C9CF80913B038064F1CFB6
:102D60000E94D51B80913B038068EBCF80913B0391
:102D70008D7FE7CF80913B03877FE3CF80913B033B
:102D80008F7DDFCF80913B038F7BDBCF80913B0337
:102D9000837FD7CF80913C038C7FA7CF80913B036B
:102DA00082FB992790F921E0922790FB82F990FB12
:102DB00083F9C7CF80913C03982F909591708E7FB7
:102DC000892B90FB81F991CF0E94D51B90913B03F9
:102DD000892F97FB87F98058B4CF81E0ACCF81E091
:102DE00021CFCF93DF93EB0186319C4511F50E94F3
:102DF00070219A81992399F08A7A91E009F490E000
:102E000090932A02811109C089E20E944B210E94FD
:102E1000BF2180E0DF91CF91089585E3F6CF8091C7
:102E20002A02811104C089E20E945221F0CF85E379
:102E3000FBCF81E0EFCF9093300280932F02089573
:102E4000E0912F02F0913002309721F00190F08153
:102E5000E02D099480E00895E0912F02F091300276
:102E6000309799F020912301222359F020913B03C0
:102E700027FF07C0DC012C9111962C93119725E0B8
:102E80002C930280F381E02D0994089520912D0266
:102E900030912E022817390771F090932E028093FB
:102EA0002D02E0912F02F0913002309721F0068040
:102EB000F781E02D0994089520912B0230912C0286
:102EC0002817390771F090932C0280932B02E09120
:102ED0002F02F0913002309721F00084F185E02D2F
:102EE00009940895089508950C94721708950C9408
:102EF00076170E9473170C94741781E008950C9450
:102F00007D170E9404240E94E9070E9437110E9445
:102F100092240E94560F0C9477179F92AF92BF9203
:102F2000CF92DF92EF92FF920F931F93CF93DF9395
:102F3000CDB7DEB72A970FB6F894DEBF0FBECDBF70
:102F40000E9451080E947F17882309F470C052E341
:102F5000A52E52E0B52E10E000E0902E802F0E94AA
:102F6000DB076C01F501E190F1905F01E816F906CD
:102F700009F457C08091CA0281FD0E94E4079701BD
:102F80002C253D2580E0EE24E394F12CA9014E216F
:102F90005F21452B09F43FC08E839F82CE20DF2026
:102FA00081E0CD2809F480E088870E940D248160AB
:102FB000782F9A8789874E815F8168858A850E94EC
:102FC0003A18000F111FF801EE5CFD4F80819181CE
:102FD000E826F926F182E0820E94910F0E942017D4
:102FE000909131028917A1F10E942017809331023C
:102FF0002A960FB6F894DEBF0FBECDBFDF91CF91FA
:103000001F910F91FF90EF90DF90CF90BF90AF9006
:103010009F900C94D4058F5FEE0CFF1C8C3009F050
:10302000B5CF0F5F1F4F0530110509F096CF8FEF19
:1030300089838A831B820E940D248160782F9D835F
:103040008C8349815A816B818D810E943A18C4CF4B
:103050002A960FB6F894DEBF0FBECDBFDF91CF9199
:103060001F910F91FF90EF90DF90CF90BF90AF90A6
:103070009F900895CF93DF93CDB7DEB72B970FB610
:10308000F894DEBF0FBECDBF4F83588769877A871C
:103090008B871E821D8285E0FE013796DE01119628
:1030A00001900D928A95E1F749815A816B817C816B
:1030B0008D819E812B960FB6F894DEBF0FBECDBFDB
:1030C000DF91CF910C94541EFC01808191810C946E
:1030D0001D21CF93C82F882309F488C08238C1F4FA
:1030E0000E94201781FD82C089E30E944B210E942B
:1030F000BF212FEF81EE94E0215080409040E1F716
:1031000000C0000089E30E945221CF910C94BF219E
:103110008338A1F40E94201780FD68C083E50E94D7
:103120004B210E94BF212FEF81EE94E0215080407F
:103130009040E1F700C0000083E5E5CF8438A1F4BA
:103140000E94201782FD52C087E40E944B210E94FA
:10315000BF212FEF81EE94E0215080409040E1F7B5
:1031600000C0000087E4CFCF8CEF8C0F813AB8F419
:103170008C2F0E943025811139C06C2F809117014E
:10318000909118010E94E022882329F08C2F0E9440
:1031900052210E94BF218C2F0E944B21B6CF80E28A
:1031A0008C0F883048F4C77081E001C0880FCA9541
:1031B000EAF70E947321A9CFEBE5EC0FE33040F46E
:1031C000F0E0E154FE4F808190E0CF910C944617DF
:1031D000C85AC73158F4EC2FF0E0EE0FFF1FEF563E
:1031E000FE4F80819181CF910C945C17CF9108950F
:1031F000882309F44BC0823871F40E94201781FFA4
:1032000045C089E30E944B210E94BF2189E30E94AF
:1032100052210C94BF21833859F40E94201780FF5B
:1032200035C083E50E944B210E94BF2183E5EFCF8B
:10323000843859F40E94201782FF28C087E40E9436
:103240004B210E94BF2187E4E2CF9CEF980F913A77
:10325000F0F290E2980F983050F4877091E001C03E
:10326000990F8A95EAF7892F0E947921D2CF9BE5A1
:10327000980F933020F490E080E00C944617885A21
:10328000873120F490E080E00C945C170895CF9390
:10329000C82F0E946918C93349F42FEF87EE93E0D5
:1032A000215080409040E1F700C000008C2FCF916A
:1032B0000C94F818882321F00E9473210C94BF21EC
:1032C0000895882321F00E9479210C94BF2108954C
:1032D000BF92CF92DF92EF92FF920F931F93CF9303
:1032E000DF936C01D62FC72FFC01058102950F706B
:1032F000128111110E9493210E946921E82E8823D6
:1033000091F01123D1F08C2F807F803421F080E266
:103310008D0F883090F082E00E940A220E9469217D
:1033200091E0E82EE926BC2EB2949FE0B922EB2D65
:10333000F0E0E150F24D0C94F72CE12CF4CF0C2F7F
:103340000F70C07F11F00295007F1123A9F00023B8
:1033500059F080E28D0F883010F0D11109C0802F14
:103360000E9473210E94BF218D2F0E94691814C0F2
:10337000802F0E948621F6CF8D2F0E94F8180023FF
:1033800059F080E28D0F883010F0D1112CC0802FC1
:103390000E9479210E94BF212B2D2850330B24300D
:1033A000310520F40E9420170E94D405EE2009F474
:1033B00093C10E94652180FD8FC1F60112820E9497
:1033C0005F210E94DC1FC6010E948D1B0E945F21AD
:1033D000DF91CF911F910F91FF90EF90DF90CF90F1
:1033E000BF900C94FD1F802F0E948C21D3CFFC2F07
:1033F000FF70FF2EC07FC03219F0F29480EFF822E8
:10340000DD2369F0D13049F1112391F1002351F10D
:10341000F601858180FFA8CF8F70858323C011239B
:1034200081F0011106C00E94A6218F290E945A191D
:10343000B3CF0130C1F70E94A6218F290E94AC2191
:10344000ABCF011106C00E94B5218F2D0E946119DA
:10345000A3CF013009F4A0CFF6CF112329F0033018
:1034600008F09ACF8F2DE2CF023008F095CFEDCF44
:10347000002359F3D93349F4FFEF27EE33E0F1503D
:1034800020403040E1F700C000008D2F0E94F81866
:1034900083CF8C2F86958695837069F0813009F0F3
:1034A0007BCF8D2F9C2F9370111102C090E080E094
:1034B0000E945C1771CF8D2F9C2F9370111102C049
:1034C00090E080E00E94461767CF8C2F837009F050
:1034D00041C0111161CF4D2F429546954770440F61
:1034E000440F0D2F0F7010E030E020E0042E04C0D8
:1034F000000F111F221F331F0A94D2F760E070E003
:10350000CB01D4FF0FC06FE070E080E090E004C01A
:10351000660F771F881F991F4A95D2F7609570959F
:1035200080959095C695C695C370602B712B822BA4
:10353000932BC23049F058F4C13019F00E948E1F0D
:103540002BCF0E947C1F28CF0E94A01F25CF0E9456
:103550007A1F22CF8695112311F08C2F817088233A
:1035600009F41ACF4D2F429546954770440F440FEA
:103570000D2F0F7010E030E020E0042E04C0000F8B
:10358000111F221F331F0A94D2F760E070E0CB01B5
:10359000D4FF0FC06FE070E080E090E004C0660FE1
:1035A000771F881F991F4A95D2F76095709580956F
:1035B0009095C695C695C370602B712B822B932B6B
:1035C000C23049F058F4C13019F00E945320E4CEC3
:1035D0000E944120E1CE0E946520DECE0E94B61FEF
:1035E000DBCECF70112329F08C2F0E94DC1F8D2F92
:1035F0001DCF8D2F0E9461198C2F0E94FD1FCCCEF4
:10360000D23F89F160F4D03FC9F0D13F29F11123B5
:1036100009F442C00111A8CE8C2F8F7121C0D33F75
:1036200039F1D43FA1F7112369F1CF718C2F0E949A
:10363000DC1F63E08C2F0E94F521AECE112341F0F8
:10364000023008F0A9CE8C2F8F710E942020A4CECA
:10365000033008F0A1CEF7CF8C2F8F71112369F2C0
:103660000E94DC1F99CE8C2F8F711123C9F3C5CF17
:10367000112329F08C2F8F710E94C71F8DCE0E94BD
:10368000C21F8ACE81E00E940A22023008F484CE52
:1036900082E00E940A2280CE002359F0D93309F03B
:1036A000F4CE8FEF97EEE3E081509040E040E1F7F9
:1036B000EACE8C2F8F71A1CF4C2F4F706D2FC6018A
:1036C0000E94DC050E94F21E67CE4C2F4F706D2FBA
:1036D000C6010E94DF0560CEDF91CF911F910F914F
:1036E000FF90EF90DF90CF90BF9008950F931F93BE
:1036F000CF93DF93EC01688179818A810E94272131
:103700008C010E9477200E94791FB801CE01DF91C1
:10371000CF911F910F910C946819CF93DF93EC0117
:103720008B819C81892B29F08881998189238F3F06
:1037300059F4DF91CF910895CE010E94761BCE01FE
:10374000DF91CF910C943104CE010E947F0581114D
:10375000F3CF0E946921882361F38A81882349F38A
:1037600082E0DF91CF910C940A22882321F00E94FD
:1037700086210C94BF210895882321F00E948C217A
:103780000C94BF2108950E9493210E94A3210E94BE
:10379000BF2190E080E00E94461790E080E00C940A
:1037A0005C170E9459210C94C31B0E9483210C9426
:1037B000D11BE92FE295EF70E250EE3070F4F0E0AB
:1037C000E15FF14D0C94F72C803F19F020F4883E16
:1037D00020F481E00895843FE1F380E00895883E7D
:1037E000C0F3813FD1F7F5CF93FB882780F9089587
:1037F0000E941D210C94D91BCF93DF9300D000D0E1
:103800000F92CDB7DEB70F900F900F900F900F90E3
:10381000DF91CF910895CF93DF9300D000D000D0F7
:10382000CDB7DEB726960FB6F894DEBF0FBECDBF7C
:10383000DF91CF910895CF93DF93C0913D028091A6
:103840003E028C1303C0DF91CF910895D0E0CE01EA
:1038500066E070E00E94692CFC01E15CFD4F408154
:10386000518162817381848195810E940B1C219614
:10387000C770E5CF40916F02509170026091710264
:103880007091720280917302909174020C940B1CDF
:103890001F93CF93DF9380917402807FA1F4809176
:1038A0007102882381F020913D02B0913E02409147
:1038B0006F02A0917002C0917202D0917302142F16
:1038C0001A23B21304C0DF91CF911F91089530E005
:1038D000209711F01F3F21F42F5F3F4F2770F1CF4A
:1038E000C90166E070E00E94692CFC01E15CFD4FBB
:1038F00081818A13F1CF80818413EECF828181117F
:10390000EBCF838194818C1B9D0B883C910520F724
:10391000809174028F70806180937402C90166E0A7
:1039200070E00E94692CFC01EC5BFD4F90819F7060
:10393000906190838FE692E00E948D1BDF91CF9182
:103940001F910C941B1CAF92BF92CF92DF92EF920B
:10395000FF920F931F93CF93DF93CDB7DEB761979D
:103960000FB6F894DEBF0FBECDBF8C0185E0F80125
:10397000DE011D9601900D928A95E1F7F8014081D4
:103980002181E2808FE6C82E82E0D82E60917202FB
:10399000709173026115710509F464C190916F0211
:1039A00030917002892F83238F3F09F45BC1A3807C
:1039B000B480F0907102F501E61BF70BFF2009F4CB
:1039C000FEC080917402582F507FE83CF10508F04A
:1039D000B3C051117AC0FE2C321323C0941321C0FE
:1039E000E1101FC08F708061809374020E943A1CA6
:1039F000C6010E948D1B80917402F80185838F2D72
:103A000061960FB6F894DEBF0FBECDBFDF91CF91A8
:103A10001F910F91FF90EF90DF90CF90BF90AF90EC
:103A20000895AB2829F0842F82238F3F09F036C1F7
:103A300080E0F82FF170DF2EE0913D0230913E02E0
:103A400080FD20C0EE20D9F28091740281608093C5
:103A50007402F12CD4CFF0E0CF0166E070E00E9458
:103A6000692CDC01A15CBD4F11968C9111978213DA
:103A700007C08C91841304C012968C918E11E2CFF2
:103A80003196E770E313E7CF4D872E878D859E85AE
:103A90000E941D21292F22952F70223050F02430B2
:103AA00078F49F7051F0F8019581907F31F4D12C1A
:103AB0000AC09F7011F08823D1F3805E8830B8F37C
:103AC000C8010E948D1BFD2C9ACF321306C094139F
:103AD00004C0F801EE2009F48EC04D872E878D8535
:103AE0009E850E94F81B882319F1EE2009F1809130
:103AF0007402803270F020916F023091700238872A
:103B00002F831986BB86AA868C87CE0107960E94D2
:103B10008D1B86E0F801AFE6B2E001900D928A9528
:103B2000E1F70E94481C0E943A1CFF24F39467CFDF
:103B3000C8010E948D1BF9CF511114C07A2DB98A8A
:103B4000A88A522F6E2D89890E94FC1B8FE692E075
:103B50000E948D1B86E0F60111928A95E9F70E947A
:103B60003A1C77CF32130FC094130DC0E1100BC075
:103B7000F8018583C8010E948D1B86E0F601119231
:103B80008A95E9F73CCF4D872E878D859E850E94CB
:103B9000F81B882369F2EE2059F28091740280327A
:103BA00008F4B7CF20916F02309170023A832983D5
:103BB0001B82BD82AC828E83CE010196A8CFE83CE9
:103BC000F10508F041C0FE2CEE2009F4B1CF32130C
:103BD0002AC0941328C08091740280FD1BC0982FC6
:103BE000907FC1F0F8018583903F31F0982F907F4E
:103BF000905F8F70892B8583C8010E948D1B86E0A2
:103C0000F801AFE6B2E001900D928A95E1F70E94CB
:103C10003A1CF5CE86E0F801AFE6B2E001900D92D5
:103C20008A95E1F7ECCE4D872E878D859E850E9483
:103C3000F81B81116ECF80917402816080937402B1
:103C4000C8010E948D1BDBCE7A2DB98AA88A522F1B
:103C50006E2D89890E94FC1B86E0F60111928A95DF
:103C6000E9F7D5CFEE2009F463CF4D872E878D85F8
:103C70009E850E94F81BF82E882309F459CF86E010
:103C8000F801AFE6B2E001900D928A95E1F78FE678
:103C900092E00E9464180E94481CB9CF81E08E25F2
:103CA000C8CE88EC90E00895CF93DF93CDB7DEB710
:103CB0002C970FB6F894DEBF0FBECDBF4F83588749
:103CC00069877A878B879C87CE0107960E94A31C01
:103CD0008823D1F08A859B85892B39F04F815885BF
:103CE000842F85238F3F09F076C080913D0290910B
:103CF0003E02891349C02C960FB6F894DEBF0FBE62
:103D0000CDBFDF91CF91089586E0FE013796DE01A9
:103D1000119601900D928A95E1F78A859B85892BF2
:103D200021F38F81988589238F3FF9F280913E029C
:103D300090E09C012F5F3F4F2770332740913D0259
:103D40004217130671F40E94D51B10923E02109286
:103D50003D0286E0EFE6F2E0DF011D928A95E9F789
:103D6000C4CF66E070E00E94692CDC01A15CBD4F0D
:103D700096E0FE01319601900D929A95E1F720931D
:103D80003E020E941B1CB1CF90E066E070E00E94F2
:103D9000692C815C9D4F0E94A31C882309F4ABCF42
:103DA00080913D0290E066E070E00E94692CFC0189
:103DB000E15CFD4F408151816281738184819581F5
:103DC0000E940B1C80913D0290E00196877099271C
:103DD00080933D028ACF69857A858B859C850E9478
:103DE0000B1C83CFEF92FF920F931F93CF93DF9320
:103DF0008C01892B81F0F12CEE24E394E8012196CB
:103E0000F8018491843770F4843008F05FC0813009
:103E1000B1F08230A1F1DF91CF911F910F91FF900E
:103E2000EF900895853709F44CC008F43DC09CE735
:103E3000980F903780F78F770E94F81849C00E5F6F
:103E40001F4FFE01849190E2980F983060F48770C4
:103E5000FE2D01C0FF0F8A95EAF78F2F0E94962151
:103E60000E94BF2102C00E9469188F2D815030F23C
:103E7000EFE9FFE03197F1F700C00000F7CF0E5FE8
:103E80001F4FFE01849190E2980F983050F4877094
:103E9000FE2D01C0FF0F8A95EAF78F2F0E949C210B
:103EA000DFCF0E94F818E1CF0E5F1F4FFE01C491D3
:103EB000C150D8F28FE99FE00197F1F700C00000F0
:103EC000F7CF0E5F1F4FFE01F490CFCF0E9469180D
:103ED0008E01CBCF08950C946A1F0E946B1F6093D4
:103EE000A1027093A2028093A3029093A4020C9467
:103EF000C31B08950C946D1F0F931F930091A10293
:103F00001091A2022091A3023091A402602B712B88
:103F1000822B932B1F910F910C946D1F0F931F9366
:103F20000091A1021091A2022091A3023091A4025B
:103F300060237123822393231F910F910C946D1F93
:103F40000F931F930091A1021091A2022091A3024E
:103F50003091A40260277127822793271F910F9128
:103F60000C946D1F0C946A1F0C94B21F0E94B41F16
:103F700060939D0270939E0280939F029093A00293
:103F80000C94C31B60E070E0CB010C94B61F0F9340
:103F90001F9341E050E060E070E08A019B0104C0A3
:103FA000000F111F221F331F8A95D2F7C901B801D4
:103FB0001F910F910C94B61F0F931F9341E050E097
:103FC00060E070E004C0440F551F661F771F8A959C
:103FD000D2F780919D0290919E02A0919F02B09194
:103FE000A0028A019B01082B192B2A2B3B2BC9010C
:103FF000B8011F910F910C94B61F0F931F9341E0CE
:1040000050E060E070E004C0440F551F661F771F4A
:104010008A95D2F7CB01BA016095709580959095FD
:1040200000919D0210919E0220919F023091A0026A
:1040300060237123822393231F910F910C94B61F49
:104040000F931F9341E050E060E070E004C0440F24
:10405000551F661F771F8A95D2F780919D02909118
:104060009E02A0919F02B091A0028A019B010827A5
:1040700019272A273B27C901B8011F910F910C94DA
:10408000B61F0F931F9300919D0210919E022091E5
:104090009F023091A002602B712B822B932B1F91DA
:1040A0000F910C94B61F0F931F9300919D021091D6
:1040B0009E0220919F023091A002602371238223EF
:1040C00093231F910F910C94B61F0F931F93009190
:1040D0009D0210919E0220919F023091A0026027C4
:1040E0007127822793271F910F910C94B61F089573
:1040F000CF93DF93282F362F892F6CE00E94602CFE
:10410000820F982F9770E1E001C0EE0F9A95EAF7C1
:1041100086958695869590E065E070E00E94692C12
:10412000DC01AB58BD4F50E040E0632F70E08D9153
:10413000ED0121979B01042E02C0369527950A9424
:10414000E2F72170219528272E23282728834F5F07
:104150005F4F4530510559F7DF91CF910895282FD2
:10416000892F6CE00E94602C820FA82FA770869583
:104170008695869590E065E070E00E94692CFC01D0
:10418000EB58FD4F50E040E080E0219130E00A2EF6
:1041900002C0369527950A94E2F721703327042E42
:1041A00001C0220F0A94EAF7822B4F5F5F4F453020
:1041B000510559F70895BF92CF92DF92EF92FF9287
:1041C0000F931F93CF93DF938C01C0909D02D090EB
:1041D0009E02E0909F02F090A0028091A102909137
:1041E000A202A091A302B091A402C82AD92AEA2A65
:1041F000FB2ACFE1D0E0BC2ED701C6010C2E04C0B3
:10420000B695A795979587950A94D2F780FD0EC02D
:10421000219788F7B12C8B2DDF91CF911F910F91B2
:10422000FF90EF90DF90CF90BF900895B8018C2F52
:104230000E94E805019761F3EECFCF93DF93EC0185
:104240000E94DB20BE01DF91CF910C94E8051F9303
:10425000CF93DF93EB0190913C02992331F0CB0196
:10426000DF91CF911F910C941D21882379F0CB0110
:104270000E94DB20182F682FCE010E947820BE01FB
:10428000812FDF91CF911F910C94E805CB010E9403
:10429000AF20182FF4CF682F80911701909118014B
:1042A0000C946023682F80911701909118010C9451
:1042B0006B2380911701909118010C9476238091C3
:1042C000A50285958595859508958091A5028770AD
:1042D00008959091A502977081E009F480E0089517
:1042E0008091C90208959091C902892B8093C902D7
:1042F000089580959091C90298239093C9020895DA
:104300008093C90208951092C90208959091C8023D
:10431000892B8093C802089580959091C8029823B4
:104320009093C80208951092C80208959091C70210
:10433000892B8093C702089580959091C702982396
:104340009093C70208951092C70208958091A60223
:10435000089508950C94A9219091A602981721F030
:104360008093A6020C94AA2108958091A602882326
:1043700029F01092A60280E00C94AA210895E09101
:104380001701F09118018091C9028083E091170113
:10439000F091180180819091C802892B8083E0916F
:1043A0001701F091180180819091C702892B8083B9
:1043B0009091A602992381F0E0911701F0911801E4
:1043C0008081892B808380911701909118010E9430
:1043D000CC2281110E94B521809117019091180182
:1043E0000C942C1708950C94F221982F990F990F83
:1043F000990F962B9093A5020E94DC1F8091A50235
:104400008595859585950C94F3211092A50280E001
:104410000C94F3219091A502809589238093A502A5
:10442000282F277071F4282F082E000C330B9217B9
:10443000130639F08595859585950E94FD1F0C948E
:10444000052208956FEF7FEF90E080E00C94A12D9E
:1044500090E080E00E947D2D21E08C3E9E4F09F08F
:1044600020E0822F089582E090E00C946F2D83E08D
:1044700090E00C946F2DCF9384E090E00E946F2D1C
:10448000C82F81E290E00E946F2D982F8C2FCF9142
:104490000895CF93C92F682F84E090E00E94832D68
:1044A0006C2F81E290E0CF910C94832DAB01BC0185
:1044B0008FE090E00C94952DAB01BC0183E190E07E
:1044C0000C94952D60E070E0CB010C945C2260E0D0
:1044D00070E0CB010E9456220C9462226CEE7EEFBB
:1044E00090E080E00E94A12D60E082E090E00E94D8
:1044F000832D60E083E090E00E94832D1092A10262
:104500001092A2021092A3021092A40260E084E032
:1045100090E00E94832D60E081E290E00E94832D74
:1045200060E085E090E00E94832D60E086E090E00E
:104530000E94832D6FEF87E090E00E94832D40E082
:1045400050E0BA0188E090E00E94952D60E08DE097
:1045500090E00E94832D40E050E0BA0188E190E0B5
:104560000E94952D60E087E190E00E94832D40E05D
:1045700050E0BA018CE190E00E94952D60E080E26D
:1045800090E00E94832D0C9467220C946E22682F79
:104590008EE090E00C94832DFC01329680912301F3
:1045A000882321F080913B039EE187FF96E080E025
:1045B000915008F4089521912223D1F38F5FF8CF11
:1045C000662301F1209123012223F1F020913B0386
:1045D00027FF1AC0462F4695469546954E3190F4D2
:1045E000677021E030E002C0220F331F6A95E2F7C6
:1045F000840F911DFC01828190E02823392381E002
:10460000232B69F480E00895FC01329608962191ED
:10461000261721F0E817F907D1F7F4CF81E00895C4
:104620009C01FC0132969FEF80E04191461751F0CA
:104630009F3F19F4411101C0982F8F5F8630A9F771
:104640009F3F09F40895290F311D97FD3A95F9010F
:1046500062830895FC01329608962191261303C0C7
:10466000DF0111971C92E817F907B9F70895E62FB3
:10467000E695E695E695EE3168F4E80FF92FF11D21
:10468000677021E030E001C0220F6A95EAF782816D
:10469000822B82830895E62FE695E695E695EE3126
:1046A00070F4E80FF92FF11D677021E030E001C0D0
:1046B000220F6A95EAF720958281282322830895A4
:1046C00020912301222329F020913B0327FD0C9404
:1046D00037230C94102320912301222329F02091C9
:1046E0003B0327FD0C944B230C942A23FC013296A8
:1046F00080912301882351F080913B0387FF06C0FE
:104700008EE1DF011D928A95E9F7089586E0F9CFE1
:10471000089508950C9489230E948A23809141036F
:10472000843049F11092CB0288E190E020E40FB68A
:10473000F894A895809360000FBE2093600080E0FD
:104740000E94D4050E948A2383B7817F846083BF3F
:1047500083B7816083BF7894889583B78E7F83BF4A
:104760000FB6F894A89580916000886180936000EE
:10477000109260000FBE08950895CF930E94882381
:104780000E9451080E94BC23C0E08C2F0E94DB07CE
:10479000892B31F4CF5FC530C1F780E0CF91089508
:1047A00081E0FCCF08950C94D2230E94D51B0E9477
:1047B00020170E94D4050C94D3231F921FB61F927A
:1047C00011248F939F93AF93BF938091CB0281115C
:1047D00013C08091370390913803A0913903B091B1
:1047E0003A034196A11DB11D80933703909338037E
:1047F000A0933903B0933A03BF91AF919F918F91EA
:104800001F901FBE1F90189582E084BD93E095BD58
:104810009AEF97BD80936E0008952FB7F89480911A
:10482000370390913803A0913903B0913A032FBF19
:1048300008952FB7F89460913703709138038091F1
:10484000390390913A032FBF08959C014FB7F89414
:104850008091370390913803A0913903B0913A03C6
:104860004FBF821B930B089578941F921FB61F921F
:1048700011248F939F93AF93BF93809137039091AF
:104880003803A0913903B0913A030196A11DB11DDF
:104890008093370390933803A0933903B0933A037E
:1048A000BF91AF919F918F911F901FBE1F90189540
:1048B00081E08093E00080E28093D8001092C900EC
:1048C0008FE19EE40197F1F700C0000087E090EBD4
:1048D000DC0180934A0390934B03A0934C03B09365
:1048E0004D0388E19CE00FB6F894A8958093600092
:1048F0000FBE90936000FFCF0C9424110E945108CA
:104900008FE39CE90197F1F700C000000E94510875
:1049100080E00E94DB0780FF04C00E947C240C948E
:10492000582408950E942822811102C00E94C522A5
:104930000E9433228093CA020E943B2290933C0340
:1049400080933B030E943722682F70E090E080E064
:104950000E947A1F60919D0270919E0280919F0239
:104960009091A0020C94B41F0F931F9341E050E06C
:1049700060E070E08A019B0104C0000F111F221F3C
:10498000331F8A95D2F7C901B8010E947A1F1F917F
:104990000F910C94D51BEBEFE80FEF3308F05AC0E2
:1049A000F0E0E35EF14D0C94F72C0E94C52281E00B
:1049B00008958091CA02807F8093CA0281E080932B
:1049C000CC0208950E947005F2CF9091CA02892FFF
:1049D0008E7F90FF81608093CA0280FDE8CF817F47
:1049E0008093CA02E4CF9091CA02892F8D7F91FFF4
:1049F00082608093CA0281FFDACF8091CA0281600F
:104A0000EFCF9091CA02892F8B7F92FF84608093B1
:104A1000CA0282FDF2CFCBCF9091CA02892F877F45
:104A200093FF88608093CA0283FDE7CFC0CF0E94C6
:104A3000D51B90913B03892F97FB87F98058809372
:104A40003B03B5CF80E00E94B424B1CF8953FBCFA4
:104A50008D51F9CF80E0089580E008950C942C25C5
:104A6000CF93C82F8091CC02882331F0813099F008
:104A70001092CC0280E00DC00E9470218232D1F7EA
:104A80008C2F0E942C25811116C08C2F0E94CB24C4
:104A90008170CF9108950E947021823289F38C2F0A
:104AA0000E942E25811105C0C43171F038F4CB303D
:104AB00079F781E0EDCF81E090E0EACFC93221F0D3
:104AC000C833B9F380E0E4CF1092CC02FBCF8091E1
:104AD000ED0208950895CF93DF9300D00F92CDB7E4
:104AE000DEB790914103943011F589837B836A830B
:104AF0009093E9008FEF9091E800815095FD06C0FA
:104B000095ED9A95F1F700008111F5CF8091E800BD
:104B100085FF0DC050E040E063E070E0CE010196FB
:104B20000E94BF278091E8008E778093E8000F9065
:104B30000F900F90DF91CF910895BC0184E00C9409
:104B40006B25BC0183E00C946B25CF93DF93EC01C4
:104B5000809123018823B1F180913B0387FF32C00C
:104B600060E284E08093E9008FEF9091E80081504B
:104B700095FD06C095ED9A95F1F700008111F5CFEE
:104B80008091E80085FF1BC08091230170E050E018
:104B900040E0811104C050E040E068E070E0CE01E8
:104BA0000E94BF278091E8008E778093E80080E222
:104BB000FE01ADECB2E001900D928A95E1F7DF9134
:104BC000CF91089568E081E0CDCFCF93FC016032B2
:104BD00021F580914103843001F5C091E900CF7047
:104BE0002091EC00922F917020FD90E8C92B82E07B
:104BF0008093E9008091E80080FF0CC050E040E025
:104C000060E270E0CF010E94BF278091E8008E77BC
:104C10008093E800CF70C093E900CF910895089584
:104C200008950C94D52342E061EC81E00E9416299E
:104C300042E261EC84E00E94162942E261EC82E0EB
:104C40000E94162942E260EC83E00C9416298091C0
:104C50004303833009F45FC030F48130C1F1823006
:104C600009F49BC008958A3009F487C08B3009F499
:104C70006DC0893009F04EC080914203813209F045
:104C800049C08091460390914703009719F002971D
:104C900009F040C08091E800877F8093E800809110
:104CA000E80082FF33C08091F200823029F48091C5
:104CB000F1008B7F813021F48091F1008093ED022F
:104CC0008091E8008B778093E8000C944A298091CA
:104CD0004203813AF9F48091E800877F8093E800ED
:104CE0008091460390914703892B61F460E28DEC3B
:104CF00092E070E00E945D288091E8008B778093BD
:104D0000E800089560E090E080E0F3CF80914103F7
:104D10008111C5CF089580914203813AD9F78091DE
:104D2000460390914703892BA9F78091E800877F7C
:104D30008093E8008091E80080FFFCCF8091230100
:104D40008093F1008091E8008E77BDCF809142037F
:104D5000813201F78091460390914703892BD1F668
:104D60008091E800877F8093E8000E944A29809123
:104D70004403809323010C94D51B8091420381321C
:104D800049F68091E800877F8093E8000E944A29D5
:104D9000809145038093EE02089580914203813A09
:104DA00009F0B8CF8091E800877F8093E800809178
:104DB000E80080FFFCCF8091EE02C2CFCDB7DEB716
:104DC000A0970FB6F894DEBF0FBECDBF84B7877F24
:104DD00084BF0FB6F894A895809160008861809395
:104DE0006000109260000FBE80E890E00FB6F8946B
:104DF00080936100909361000FBE0E9479170E941A
:104E00009A290E94ED298091E20084608093E2005B
:104E100078940E94452C0E94811789E191E00E94BC
:104E20001B1713E080914103853039F10E948D17E3
:104E3000809141038430B1F71093E9008091E8003C
:104E400082FFF0CF8091E80090E085FF09C050E03C
:104E500040E060E270E0CE0101960E940E2891E0F1
:104E60008091E8008B778093E8009923D9F260E283
:104E7000CE0101960E94DC11D5CF0E948C23809137
:104E80003F03882379F20E94BD23882359F20E94B0
:104E9000A927C8CF0C944C27292F3327233031055D
:104EA00021F168F42130310509F449C0223031057F
:104EB00009F44AC090E080E030E020E029C02132CF
:104EC000310581F122323105A9F76330710590F780
:104ED000FB01EE0FFF1FEB53FE4F208131816E531C
:104EE0007E4FFB01808190E013C0992781309105AE
:104EF00099F0009741F08230910589F00397D1F63F
:104F0000EEE0F5E002C0E0E3F5E0849190E09F017F
:104F1000FA01318320830895E4E2F5E0F6CFE4E17D
:104F2000F5E0F3CF6330710528F6660F771FFB01BC
:104F3000E553FE4F2081318189E090E0E9CF82E1A5
:104F400090E02FE835E0E4CF8BE590E024E335E016
:104F5000DFCF84E089BD86E089BD09B400FEFDCFC6
:104F60008091D8008F7D8093D8008091E00082608E
:104F70008093E0008091E00081FDFCCF0895AF9226
:104F8000BF92CF92DF92FF920F931F93CF93DF9345
:104F90006C01EB018A010E946929F82E811123C05E
:104FA0000115110539F0F80180819181C81BD90BD9
:104FB000C80ED91EB12CA12C2097A9F08091E80031
:104FC00085FD22C08091E8008E778093E80001156E
:104FD0001105A1F0F80180819181A80EB91EB1825E
:104FE000A08285E0F82E8F2DDF91CF911F910F9138
:104FF000FF90DF90CF90BF90AF9008950E946929F5
:105000008823D1F2F82EEFCFF60181916F018093C2
:10501000F1002197FFEFAF1ABF0ACECFAF92BF9238
:10502000CF92DF92FF920F931F93CF93DF936C0188
:10503000EB018A010E946929F82E811123C0011514
:10504000110539F0F80180819181C81BD90BC80E78
:10505000D91EB12CA12C2097A9F08091E80085FDE4
:1050600022C08091E8008B778093E800011511053C
:10507000A1F0F80180819181A80EB91EB182A082B1
:1050800085E0F82E8F2DDF91CF911F910F91FF902A
:10509000DF90CF90BF90AF9008950E946929882338
:1050A000D1F2F82EEFCF8091F100F60181936F01DC
:1050B0002197FFEFAF1ABF0ACECFFC0180914803C2
:1050C0009091490386179707A0F06115710529F49F
:1050D0009091E8009E779093E80090E0611571054B
:1050E00051F4911108C08091E80082FF32C080E045
:1050F0000895BC01F2CF809141038823B1F185303E
:10510000B1F18091E80083FD2EC08091E80082FD1E
:10511000EACF8091E80080FFE1CF2091F20030E0FB
:105120006115710519F02830310558F091E02830EB
:10513000310509F090E02091E8002E772093E800F7
:10514000CDCF81918093F100615071092F5F3F4F66
:10515000E7CF80914103882341F0853041F0809171
:10516000E80083FFC0CF81E0089582E0089583E0E6
:105170000895FC0180914803909149038617970791
:10518000A0F06115710529F48091E8008E77809375
:10519000E80090E06115710551F4911108C080910B
:1051A000E80082FF33C080E00895BC01F2CF809117
:1051B00041038823B9F18530B9F18091E80083FD7E
:1051C0002FC08091E80082FDEACF8091E80080FF47
:1051D000E1CF2091F20030E06115710519F028301F
:1051E000310558F091E02830310509F090E08091C8
:1051F000E8008E778093E800CDCF84918093F10012
:105200003196615071092F5F3F4FE6CF8091410386
:10521000882341F0853041F08091E80083FFBFCFC3
:1052200081E0089582E0089583E00895982F9530F5
:1052300028F08F708093E90081E008959093E90051
:10524000242F762F50E0981731F07091EC002091C8
:10525000ED005091F00021FD02C09F5FE8CF30913A
:10526000EB003E7F3093EB003091ED003D7F3093BB
:10527000ED003091EB0031603093EB007093EC0067
:105280002093ED005093F0002091EE0027FDE5CF34
:1052900080E008958091420387FF13C08091E80069
:1052A00082FF06C08091E8008B778093E80004C0FD
:1052B000809141038111F2CF0895809141038823A9
:1052C000D9F38091E80080FFF8CF8091E8008E77D5
:1052D000ECCF2091E4003091E50095E6A901209102
:1052E000EC00822F817020FF06C08091E80080FFD3
:1052F00006C080E008952091E80022FD1AC0809148
:105300004103882389F0853089F08091EB0085FD89
:105310000FC02091E4003091E50042175307F9F2E5
:105320009150E1F684E0089582E0089583E00895C5
:1053300081E008950E94F7290E94FA29E0EEF0E04A
:10534000808181608083E8EDF0E080818F778083C9
:1053500019BCE3E6F0E08081816080831092400315
:1053600008950E94F7290E94FA298091D8008F772A
:105370008093D8008091D80080688093D800809175
:10538000D8008F7D8093D80084E089BD86E089BDF8
:1053900009B400FEFDCF1092410310923D0310921C
:1053A0003F0310923E0342E060E080E00E94162935
:1053B0008091E1008E7F8093E1008091E200816026
:1053C0008093E2008091E20088608093E200809107
:1053D000E0008E7F8093E0000895E3E6F0E08081B6
:1053E0008E7F808381E0809340030C94B1291092DA
:1053F000E20008951092E10008951F920F920FB6F7
:105400000F9211242F933F934F935F936F937F934A
:105410008F939F93AF93BF93EF93FF938091E1009E
:1054200082FF0BC08091E20082FF07C08091E10003
:105430008B7F8093E1000E94442C8091E10080FFEB
:1054400019C08091E20080FF15C08091E2008E7F3C
:105450008093E2008091E20080618093E20080917D
:10546000D80080628093D80019BC85E08093410306
:105470000E9410268091E10084FF2BC08091E20001
:1054800084FF27C084E089BD86E089BD89B5982F57
:10549000917080FFFBCF8091D8008F7D8093D800E2
:1054A0008091E1008F7E8093E1008091E2008F7E09
:1054B0008093E2008091E20081608093E20080911D
:1054C0003D03882309F443C084E0809341030E9494
:1054D00011268091E10083FF29C08091E20083FFC3
:1054E00025C08091E100877F8093E10082E0809376
:1054F000410310923D038091E1008E7F8093E10093
:105500008091E2008E7F8093E2008091E2008061D2
:105510008093E20042E060E080E00E9416298091E2
:10552000F00088608093F0000E940F26FF91EF91B9
:10553000BF91AF919F918F917F916F915F914F91AB
:105540003F912F910F900FBE0F901F901895809153
:10555000E30087FD93E090934103B9CF1F920F9230
:105560000FB60F9211242F933F934F935F936F9336
:105570007F938F939F93AF93BF93CF93DF93EF93DB
:10558000FF93D091E900DF708091EC00C82FC170CB
:1055900080FDC0E81092E9008091F000877F809341
:1055A000F00078940E94F22A1092E9008091F000B5
:1055B00088608093F000CD2BCF70C093E900FF91FD
:1055C000EF91DF91CF91BF91AF919F918F917F919B
:1055D0006F915F914F913F912F910F900FBE0F9060
:1055E0001F9018951F93CF93DF93CDB7DEB7AA977F
:1055F0000FB6F894DEBF0FBECDBF82E493E02091DA
:10560000F100FC012193CF01F3E08A349F07B9F741
:105610000E9427268091E80083FF1EC180914203EB
:10562000909143039A3008F017C1E92FF0E0E45A53
:10563000F14D0C94F72C803899F0823809F00CC1A8
:10564000809146038F70853008F006C18093E90091
:105650008091EB0085FB882780F91092E90006C055
:1056600080913E0390913F03911182609091E800F8
:10567000977F9093E8008093F1001092F100809161
:10568000E8008E77E5C0882309F4D3C0823009F0A2
:10569000E3C0809144038111D6C0809146038F708E
:1056A0002FEF280F243008F0D7C08093E900209115
:1056B000EB0020FFC8C0933031F48091EB00806292
:1056C0008093EB00C0C09091EB0090619093EB0051
:1056D00021E030E001C0220F8A95EAF72093EA002A
:1056E0001092EA008091EB008860EACF8111B4C08B
:1056F000109144031F778091E3008078812B809381
:10570000E3008091E800877F8093E8000E944A29A7
:105710008091E80080FFFCCF8091E3008068809357
:10572000E30082E0111183E08093410395C080582B
:10573000823008F091C080914403909145038C3DE4
:1057400023E09207A1F583E08A838AE289834FB739
:10575000F894DE01139620E03EE051E2E32FF0E002
:1057600050935700E49120FF03C0E295EF703F5F34
:10577000EF708E2F90E0EA30C0F0C7968D939D9326
:105780002F5F243159F74FBF8091E800877F8093C6
:10579000E8006AE270E0CE0101960E945D288091E7
:1057A000E8008B778093E80057C0C096E7CF609100
:1057B000460370914703AE014F5F5F4F0E944A2737
:1057C000BC01892B09F448C09091E800977F909321
:1057D000E80089819A810E94B928E1CF8038E1F5FB
:1057E0008091E800877F8093E80080913D0380935B
:1057F000F10045CF811130C090914403923060F5A3
:105800008091E800877F8093E80090933D030E9499
:105810004A2980913D03882311F084E005C08091DE
:10582000E30087FDFACF81E0809341030E941326B5
:1058300013C080914403813079F481E0933009F002
:1058400080E080933F031092E9008091E800877F19
:105850008093E8000E944A298091E80083FF0AC0F3
:105860008091E800877F8093E8008091EB00806260
:105870008093EB00AA960FB6F894DEBF0FBECDBFA3
:10588000DF91CF911F9108950895CF9380914103A7
:105890008823A1F0C091E900CF709091EC00892F8E
:1058A000817090FD80E8C82B1092E9008091E8009B
:1058B00083FD0E94F22ACF70C093E900CF91089532
:1058C000002480FD060E660F11F08695D1F7802D1D
:1058D00008950024552704C0080E591F880F991FEA
:1058E000009729F076956795B8F37105B9F7802D83
:1058F000952F0895EE27FF27AA27BB2708C0A20FE0
:10590000B31FE41FF51F220F331F441F551F969529
:1059100087957795679598F37040A9F7009799F761
:10592000BD01CF010895991B79E004C0991F961716
:1059300008F0961B881F7A95C9F78095089587FB14
:10594000082E062687FD819567FD61950E94932CA0
:105950000EF4919507FC81950895AA1BBB1B51E19C
:1059600007C0AA1FBB1FA617B70710F0A61BB70BCF
:10597000881F991F5A95A9F780959095BC01CD0174
:10598000089597FB072E16F4009407D077FD09D0F1
:105990000E94AD2C07FC05D03EF4909581959F4F59
:1059A0000895709561957F4F0895A1E21A2EAA1B64
:1059B000BB1BFD010DC0AA1FBB1FEE1FFF1FA217BF
:1059C000B307E407F50720F0A21BB30BE40BF50BBC
:1059D000661F771F881F991F1A9469F76095709545
:1059E000809590959B01AC01BD01CF010895EE0F0C
:1059F000FF1F0590F491E02D0994692796276927E8
:105A000078278727782708958F929F92AF92BF9229
:105A1000CF92DF92EF92FF92CF93DF93EC016881F8
:105A200079818A819B81611571058105910521F438
:105A300064E279ED8BE597E02DE133EF41E050E052
:105A40000E94B72D49015A0127EA31E440E050E0B5
:105A50000E947A2C6B017C012CEE34EF4FEF5FEF4C
:105A6000C501B4010E947A2CDC01CB018C0D9D1D77
:105A7000AE1DBF1DB7FF03C00197A109B0488883C1
:105A80009983AA83BB839F77DF91CF91FF90EF909B
:105A9000DF90CF90BF90AF909F908F9008950E941D
:105AA000042D089580E091E00E94042D0895B0E057
:105AB000A0E08093000190930101A0930201B093B4
:105AC00003010895FC014150504030F0019006164A
:105AD000D1F73197CF010895882799270895F9992B
