:100000000C9484030C94CB030C94CB030C94CB037F
:100010000C94CB030C94CB030C94CB030C94CB0328
:100020000C94CB030C94CB030C945E2B0C94322CCD
:100030000C94FF220C94CB030C94CB030C94CB03B5
:100040000C94CB030C94CB030C94CB030C94CB03F8
:100050000C94CB030C9456230C94CB030C94CB033D
:100060000C94CB030C94CB030C94CB030C94CB03D8
:100070000C94CB030C94CB030C94CB030C94CB03C8
:100080000C94CB030C94CB030C94CB030C94CB03B8
:100090000C94CB030C94CB030C94CB030C94CB03A8
:1000A0000C94CB030C94CB030C94CB0335001E00B3
:1000B0001F0020002100220023002400250026002C
:1000C00027002D002B0014001A00090013000A005D
:1000D0000D000F0018001C0033002A0029610400E5
:1000E00015001600170007000B00110008000C0097
:1000F00012003400E1001D001B000600190005007D
:100100000E0010003600370038002800C25CE30003
:10011000E2000000015800002C4200004C05E600FF
:100120000000390001003A003B003C003D003E0069
:100130003F004000410042004300010035021E0222
:100140001F0220022102220223022402250226028B
:1001500027022A0038001E001F0020002100220074
:1001600023002400250026002700310001000100A3
:100170000100010001000100010057002E000100F4
:100180000100010064004C0529030000010000008B
:10019000010000000100010000000100C55CC65C18
:1001A000C75CC85CC95CCA5CCD5CD45CD15CD25C09
:1001B000C35CC45C010001000100520001000100A9
:1001C00001002D0201002F0030000100010001009C
:1001D000500051004F00010001002D0001002F02CE
:1001E000300201003A003B003C003D003E003F0071
:1001F000400041004200430044004500005C3500DF
:1002000001000000010000000100000001000100E9
:1002100000000100C55CC65CC75CC85CC95CCA5C08
:10022000CD5CD45CD15CD25CC35CC45C01000100D9
:10023000010052000100010001002D0201002F0009
:100240003000010001000100500051004F0001008A
:1002500001002D0001002F02300201003A003B0096
:100260003C003D003E003F00400041004200430092
:1002700044004500005C3500010000000100000062
:10028000010000000100010000000100000000006A
:10029000000000002A2B28000000000000000000E1
:1002A0000000000000000029000000002C1E342087
:1002B000212224342627252E362D3738271E1F20AD
:1002C0002122232425263333362E37381F040506F2
:1002D0000708090A0B0C0D0E0F1011121314151636
:1002E0001718191A1B1C1D2F3130232D3504050634
:1002F0000708090A0B0C0D0E0F1011121314151616
:100300001718191A1B1C1D2F3130354C0000000026
:1003100000000000000000000000000000000000DD
:100320007E0F00D4FFFFFFC70000007832190A00DB
:10033000047F3F1F643214643214783C1E1E140A7A
:10034000052223252628292A2C2D2F303233353615
:10035000383A3B3D3E4042434547494A4C4E505156
:10036000535557595A5C5E6062646668696B6D6F7D
:1003700071737577797B7D7F81838587898A8C8E80
:1003800090929496989A9C9E9FA1A3A5A7A8AAAC88
:10039000AEAFB1B3B4B6B8B9BBBCBEBFC1C2C3C5C2
:1003A000C6C7C9CACBCCCDCED0D1D2D2D3D4D5D664
:1003B000D7D7D8D9D9DADADBDBDBDCDCDCDCDCDD97
:1003C000DDDDDDDCDCDCDCDCDBDBDBDADAD9D9D87B
:1003D000D7D7D6D5D4D3D2D2D1D0CECDCCCBCAC913
:1003E000C7C6C5C3C2C1BFBEBCBBB9B8B6B4B3B142
:1003F000AFAEACAAA8A7A5A3A19F9E9C9A989694DD
:1004000092908E8C8A89878583817F7D7B797775B1
:1004100073716F6D6B6968666462605E5C5A595790
:10042000555351504E4C4A4947454342403E3D3B4F
:100430003A3836353332302F2D2C2A2928262523D9
:1004400022FFAA7F554000010101010101010101C4
:100450000202020202020202020303030303030375
:100460000304040404040404050505050506060642
:100470000606070707070708080808090909090AFF
:100480000A0A0B0B0B0C0C0C0D0D0D0E0E0E0F0FA4
:100490000F10101111111212131314141515161632
:1004A0001717181819191A1A1B1B1C1D1D1E1E1FA1
:1004B0002020212222232424252626272829292AF0
:1004C0002B2C2D2D2E2F3031323233343536373818
:1004D000393A3B3C3D3E3F40414243444546474814
:1004E000494A4C4D4E4F50515354555658595A5BEA
:1004F0005D5E5F616264656668696B6C6D6F70728A
:10050000737577787A7B7D7E8082838587888A8CF5
:100510008E8F91939596989A9C9EA0A2A3A5A7A929
:10052000ABADAFB1B3B5B7BABCBEC0C2C4C6C9CB20
:10053000CDCFD1D4D6D8DBDDDFE2E4E7E9EBEEF0D6
:10054000F3F5F8FAFDFF0403300000001E0361001C
:1005500074006C00610073005F0061006C0070004B
:1005600073005F0061006C00740000000A034E001D
:1005700061007300700000000403090409025B00BD
:10058000030100A0FA090400000103010100092190
:10059000110100012240000705810308000A090437
:1005A00001000203000000092111010001222200C4
:1005B0000705820320000107050303200001090449
:1005C0000200010300000009211101000122BC000A
:1005D0000705840320000A120110010000000870C2
:1005E00070A6A71100010203010660FF0961A101C5
:1005F0000962150026FF0095207508810209631520
:100600000026FF00952075089102C005010902A18E
:100610000185020901A10005091901290515002517
:100620000195057501810295017503810105010997
:100630003009311581257F95027508810609381525
:1006400081257F950175088106050C0A3802158100
:10065000257F950175088106C0C005010980A101AB
:10066000850319012AB700150126B70095017510F9
:100670008100C0050C0901A101850419012AA0020D
:10068000150126A002950175108100C0050109061B
:10069000A1018505050719E029E715002501950841
:1006A000750181020507190029EF1500250195F054
:1006B0007501810205081901290595057501910249
:1006C000950175039101C005010906A101050719EE
:1006D000E029E7150025019508750181029501754E
:1006E0000881010507190029FF150026FF0095065E
:1006F0007508810005081901290595057501910204
:10070000950175039101C00011241FBECFEFDAE0FF
:10071000DEBFCDBF04B603FE27C0809119049091BF
:100720001A04A0911B04B0911C048730904BA74081
:10073000B04BD1F41092190410921A0410921B04B9
:1007400010921C0414BE84B7877F84BF0FB6F89440
:10075000A89580916000886180936000109260008D
:100760000FBEE0E0F8E3099511E0A0E0B1E0EEE4AF
:10077000FFE502C005900D92AA3DB107D9F724E02C
:10078000AAEDB1E001C01D92A931B207E1F70E94C4
:1007900023280C94562F0C94000081E0089581E0EA
:1007A00008950C94CF0308950C94D3031F93CF9313
:1007B000DF9300D000D00F92CDB7DEB749835A83C4
:1007C0006B833091BC0289819A8131111DC06623EF
:1007D000B9F02223A9F00E940020182F682F8981E8
:1007E0009A810E94AC1F69817A81812F0F900F90AE
:1007F0000F900F900F90DF91CF911F910C944013A9
:100800000E94D81F182FEFCF0E94002069817A81A3
:10081000EDCFFC01262F408151816281738184815B
:100820000C94D603CF93DF93EC0160E00E9409049F
:10083000BE01DF91CF910C94D403FF920F931F93CD
:10084000CF93DF93E82FF0E0E457FD4FF490C82FEB
:10085000C695C695C695D0E0FE01E45EFC4F0491B6
:10086000877010E0082E02C0159507950A94E2F7EC
:1008700001701127C45FDC4FFE01C491D0E002C0BB
:10088000D595C7958A95E2F7C170DD270115110549
:1008900019F081EE0E949C17209719F086EE0E94B5
:1008A0009C178F2D0E948418CD2B19F086EE0E9484
:1008B0002E18012B41F081EEDF91CF911F910F9106
:1008C000FF900C942E18DF91CF911F910F91FF9004
:1008D0000895EF92FF920F931F93CF93DF93EC0154
:1008E000162F0AE08881882309F454C0813009F06A
:1008F0004EC08981813099F47E0122E0E20EF11C24
:100900008A810E948418E7012196812F815050F33B
:10091000EFE9FFE03197F1F700C00000F7CF823038
:1009200041F47E0182E0E80EF11C8A810E949C174E
:10093000EACF833041F47E01E2E0EE0EF11C8A81C1
:100940000E942E18E0CF843011F02196DDCF2A814D
:10095000229690E080E0AE014F5F5F4F2053330B53
:100960002A30310548F0019778F2EFE9FFE031973E
:10097000F1F700C00000F7CF089FB001099F700D8C
:100980001124C901860F971F2981EA01E4CF0E9433
:100990001D04BACFDF91CF911F910F91FF90EF907F
:1009A000089560E00C9469048F929F92AF92BF9279
:1009B000CF92DF92EF92FF920F931F936B017C0116
:1009C00081E090E0A0E0B0E04C015D0104C0880C43
:1009D000991CAA1CBB1C4A95D2F7B501A4014C0175
:1009E0005D0104C0880C991CAA1CBB1C2A95D2F777
:1009F000482959296A297B2904C0880F991FAA1FF1
:100A0000BB1F0A95D2F78A019B010C211D212E21C3
:100A10003F21041715072607370789F48C299D29DC
:100A2000AE29BF29BC01CD011F910F91FF90EF901E
:100A3000DF90CF90BF90AF909F908F90089580955A
:100A40009095A095B0958C219D21AE21BF21EACF34
:100A50000F93382F262F60911D0370911E038091F4
:100A60001F0390912003042F432F0E94D4040F9161
:100A70000C94EA1E0E94A0230E944A21811102C008
:100A80000E94E7210C94A9070C94AC0708950E94DA
:100A9000131B0E9446052FEF84E39CE02150804009
:100AA0009040E1F700C000000C947A230F931F934D
:100AB000CF93DF93EC0161E00E9409048C01BE0139
:100AC0000E941511882389F1BE01C8010E94D1033B
:100AD000882359F1BE01C8010E949614882329F188
:100AE000BE01C8010E94E8148823F9F0BE01C801C4
:100AF0000E940B168823C9F0BE01C8010E94221073
:100B0000882399F08A81882339F001158CE518072C
:100B100051F00E3D1C4579F0CE01DF91CF911F9130
:100B20000F910C94CD030E94470580E0DF91CF9197
:100B30001F910F9108950E94E721F7CF08950C941B
:100B40009E0581E008950C94A105CF93C82F0E94C3
:100B50009F058C2FCF910C94A30590E080E0089521
:100B60000895FC01EE0FFF1FE45DFC4F8591949109
:100B70000895CF93DF930E9440130E94CE06EC01AC
:100B8000811520E5920708F042C0811530E49307F3
:100B900008F0BDC0883E910528F5803E910508F01B
:100BA0009DC0883A910588F4853A910508F08FC078
:100BB0008130910509F492C0009709F48FC0049721
:100BC00008F08CC0D0E0C0E089C08F3B910508F4EC
:100BD00089C0805C9109C03CD105A0F30E94B10599
:100BE000EC017CC08115904250F4C11581E0D8071A
:100BF00008F074C0C03FD10528F3D0656FC0C1159F
:100C000090E3D90708F079C0CE019F70E7CF811536
:100C100025E5920758F5811534E5930708F0A6C03D
:100C2000811542E5940750F4C11581E5D80708F411
:100C300071C0DC2FCC27C16FD06A50C0982F969519
:100C400096959E0123703327C115D34508F07FC0C8
:100C5000C1E0D0E002C0CC0FDD1F2A95E2F720E210
:100C6000929FC0011124C82BD92B6FC0C11589E5F3
:100C7000D807A8F4C11598E5D90708F07CC0C115BC
:100C800026E5D20708F09ECF8C2F0E946507C82F5B
:100C9000D0E0DC2FCC27CC27DF71D0621FC0C1157C
:100CA0003AE5D30708F46CC0CE0190568115904206
:100CB00008F088CF8D2F8F710E94650790E0982FE4
:100CC000882788279F719C012C2BE901E6CFC55A04
:100CD000D0E0C65ADE4FC881D0E0D064CE01DF91AB
:100CE000CF910895C85AD0E0CC0FDD1FC45DDE4F10
:100CF0000990D881C02DD464F1CFCE019927D3FFBC
:100D000003C0EC01D86CEACFEC01D06CE7CFDF7008
:100D1000D06AE4CFCE01E4E096958795EA95E1F7B5
:100D200083702C2F26952695237090E2299F9001A1
:100D30001124382B8C2F8370C1E0D0E002C0CC0F7F
:100D4000DD1F8A95E2F7C22BD32BDC68C7CFC1E049
:100D5000D0E002C0CC0FDD1F2A95E2F730E2939F6E
:100D6000C0011124C82BD92BDA68B8CFD82FCC27D3
:100D7000C46FD06AB3CFDC2FCC27C06FD06AAECFA0
:100D80008C2F8F700E94650734E0D695C7953A95F1
:100D9000E1F7CF709C2FEC01D069A0CF823891058C
:100DA000B1F1B0F48133910509F475C048F489328A
:100DB000910509F469C08A32910509F473C0089558
:100DC0008533910509F459C08933910501F10895DE
:100DD000833E9105A9F138F4803E9105F9F0823EF9
:100DE000910549F10895863E9105A9F1873E910547
:100DF000C9F1843E910519F520910B0421FF1FC014
:100E000080910A0484FD14C087EE90E0089520913B
:100E10000A042370A1F080EE90E0089520910A0466
:100E200020FD47C030910B0430FF09C024FF44C0AF
:100E300090E080E004C020910A0422FDF7CF0895DD
:100E400020910A0422FD3BC030910B0430FDE3CF1A
:100E500024FFF5CFEDCF20910A0423FFF0CF24FD2E
:100E6000E7CFD2CF20910A0423FD2CC030910B0490
:100E700031FFEECF84EE90E0089520910A0425FF23
:100E8000DECF89E290E0089520910A0425FFD7CFB4
:100E900085E390E0089520910A0426FFD0CF8AE2EE
:100EA00090E0089520910A0426FFC9CF81E390E0E5
:100EB000089589E390E0089583EE90E0089582EE2E
:100EC00090E0089586EE90E0089590910A0492FFD4
:100ED00006C0282F28712830F9F4877F846093FF9B
:100EE00006C0282F28712831F1F4877E8461209173
:100EF0000B0420FF06C0382F38713830D9F4877FB3
:100F0000816021FF06C0282F28712831D1F4877E07
:100F1000816194FD877E0895282F24712430F9F68D
:100F20008B7F8860DCCF282F2471243101F78B7EE2
:100F30008861DDCF382F3171313019F78E7F8860AD
:100F4000E0CF282F2171213121F78E7E8861E1CFFA
:100F500008950C94A80708950C94AB07E82FF0E0CF
:100F6000EE0FFF1FEB57FC4F80819181089508958C
:100F700080EA8A95F1F70895CF93DF93A9E6B1E06F
:100F80004EE651E0C1E0D0E08D91E82FE295EF70A0
:100F9000F0E061A18F709E0101C0220F8A95EAF7EF
:100FA000922F9095962391A382A1822B82A34A1718
:100FB0005B0751F7ADE5B1E061E070E08D91E82F9E
:100FC000E295EF70F0E041A18F709B0101C0220F0C
:100FD0008A95EAF7922F9095942391A382A1822B70
:100FE00082A381E0A936B80749F710927C031092DA
:100FF0007B03109286031092850310927E03109259
:101000007D03109288031092870310928003109240
:101010007F0310928A031092890310928203109228
:10102000810310928C0310928B0310928403109210
:10103000830310928E0310928D0385E00E94AB080B
:10104000DF91CF910C943A058F929F92AF92BF920D
:10105000CF92DF92EF92FF920F931F93CF93DF9384
:1010600089E6E82E81E0F82E0BE713E0912CAA2404
:10107000A394B12CF70181917F01C82FC295CF7045
:10108000D0E099A18F70650101C0CC0C8A95EAF778
:10109000892F8C2989A38AA18C2C809488218AA3EA
:1010A0000E94B807EDE5F1E050E040E030E020E0DC
:1010B0006191A62FA295AF70B0E090968C9190E0D0
:1010C0006F7002C0959587956A95E2F780FD3EC0E6
:1010D000C501042E02C0880F991F0A94E2F7282B3D
:1010E000392B4F5F5F4F4C30510511F789A1882292
:1010F00089A28AA1C82ACAA2F801808191812817F1
:10110000390739F13183208381E0982A0E5F1F4F20
:10111000FEE6EF16F1E0FF0609F0ACCF292D45E021
:1011200065E873E08BE793E00E94AC080E944405F9
:10113000892DDF91CF911F910F91FF90EF90DF905C
:10114000CF90BF90AF909F908F90089590E080E0F7
:10115000C6CF80E0DACF0895FF920F931F93CF930D
:10116000DF93F82E092F162FD72FC42F222349F0F3
:1011700081E08093DC010E942F239093DB01809318
:10118000DA018091DC018823A1F08091DA0190914D
:10119000DB010E944723069760F0EF2DF02FA12F6F
:1011A000BD2F90E080E0D0E08C179D0744F01092B6
:1011B000DC01DF91CF911F910F91FF900895219154
:1011C00031912D933D930196EFCFEF92FF920F93C4
:1011D0001F93CF93DF93EB01E82FD11110C044236D
:1011E00021F0F0E0EA5BFB4FE4916E2F7E2F8E2F13
:1011F000DF91CF911F910F91FF90EF9008950D2FE8
:1012000010E0282F30E0442329F02A5B3B4FF901FE
:10121000249130E0F6E0CF9FC0011124EFEFF0E021
:10122000BF010E94FE2DAB018C2F90E0880F991F0B
:10123000A5E5A49FB001A59F700D1124861B970BF7
:10124000982F990F980FBF01601B710B629FD001FF
:10125000639FB00D729FB00D11248B2F9D9FB00125
:101260001124672F7727EF01C61BD70BBE01629FA2
:10127000E001639FD00D729FD00D11247F01E91A08
:10128000F108E09EB001E19E700DF09E700D1124FA
:10129000672F7727E61BF70BE29F8001E39F100D76
:1012A000F29F100D1124E12F722F4230510599F059
:1012B00048F44115510569F04130510581F0EB2F9B
:1012C0008D2F07C04430510569F080F0463051053C
:1012D000B1F76E2F8DCFE22F7B2F812FFACFE22F28
:1012E0007D2FF7CFEB2F822F712FF3CF7B2F822F04
:1012F000ED2FEFCF41E00C94E5080895CF93DF93F5
:10130000762FE901682F842F0E947A0979836883F8
:101310008A83DF91CF91089580918F03982F9E7FCC
:1013200029F48170826080938F0308958635E8F3F5
:1013300081708465F8CF88E090E00C94F72ECF920E
:10134000DF92EF92FF926B017C010E948C09B70142
:10135000A60188E090E0FF90EF90DF90CF900C9492
:10136000152F60918F03709190038091910390915C
:1013700092030C949F09EFE8F3E083E080831182ED
:101380008FEF828383831482608171818281938154
:101390000C949F0980918F0380FF02C08695089569
:1013A00080E0089590919303933018F49F5F909399
:1013B0009303882351F060918F0370919003809183
:1013C0009103909192030C949F09089581E00C94ED
:1013D000D20990919303992319F09150909393031C
:1013E000882351F060918F03709190038091910355
:1013F000909192030C949F09089581E00C94E9095F
:1014000080919303089580939303662351F0609134
:101410008F037091900380919103909192030C94AB
:101420009F09089560E00C94030A80919003089549
:1014300080919103089580919203089570E00C9437
:1014400092106091080180918F0380FF0AC0809103
:10145000070123E0829FC00111248C569C4F0C94FD
:101460001E0A8091090190910A0123E0829FF001F8
:101470001124EC56FC4F891750F71182108212820A
:101480008F5F3396F8CF90918F0390FF14C09091A7
:10149000090120910A0133E0939FF0011124EC56D9
:1014A000FC4F921710F00C94210A818360834283D1
:1014B0009F5F3396F6CF0895CF93DF9300D00F92BE
:1014C000CDB7DEB790918F0390FF0AC09E012F5FCA
:1014D0003F4F0E947E094B8169818A810E94430AA5
:1014E0000F900F900F90DF91CF910895CF93DF93DE
:1014F000EC01EC81F0E0EF5BFC4F4491EFE8F3E0AE
:10150000628181810E945C0A8C818F5F8C83DF9174
:10151000CF910895CF93DF93EC01EFE8F3E043819F
:1015200062818C810E945C0A8C818F5F8C83DF9149
:10153000CF9108950F931F93CF93DF9300D00F9215
:10154000CDB7DEB78C018091DD0181110AC09E010B
:101550002F5F3F4F4FEF6FEF0E947E098A8180938C
:10156000DD01F8016481613069F08091DD0140E0C6
:10157000662361F040E0623011F44091DD0180E0CB
:1015800060E004C06091DD0140E080E00E94430A19
:10159000F801848190E0019663E070E00E94122ED1
:1015A00084830F900F900F90DF91CF911F910F9137
:1015B0000895AF92BF92CF92DF92EF92FF920F9376
:1015C0001F93CF93DF9300D00F92CDB7DEB7182FC4
:1015D000F62E042FE22E90918F0390FF29C0E92F61
:1015E000E695AE2FB0E0A259BE4F8C918093A50234
:1015F0009E7F923059F59E012F5F3F4F812F0E94B1
:101600007E094B8169818A810E94430A109390036D
:10161000F092910300939203EE2051F060918F03BA
:101620007091900380919103909192030E949F0981
:101630000F900F900F90DF91CF911F910F91FF901E
:10164000EF90DF90CF90BF90AF900895823019F463
:1016500000919203DBCF863019F410919003D6CF1E
:101660008930D9F3893191F6E9518E2F8170D82EC6
:10167000E695F0E0EF5BFB4FA590B490C12CBB2446
:1016800060910B01C61618F00E94210ABFCF2C2DC5
:1016900030E0A29EC001A39E900DB29E900D112439
:1016A00070E00E94FE2D812FD11013C0860F409153
:1016B0000901420F532F511D9A01220F331F240F8E
:1016C000351F2C563C4F402F6F2D0E947E09C3942E
:1016D000D7CF861BECCFEFE8F3E09181282F438131
:1016E000628188E0890F0C94D90A81E00C946B0B1D
:1016F000EFE8F3E09181282F4381628188EF890F21
:101700000C94D90A81E00C94780BEFE8F3E0628145
:1017100028E0620F08F46FEF282F438181810C9439
:10172000D90A81E00C94850BEFE8F3E0628128E0B0
:10173000621B08F460E0282F438181810C94D90A50
:1017400081E00C94940BEFE8F3E0438128E0420F32
:1017500008F44FEF282F628181810C94D90A81E02F
:101760000C94A30BEFE8F3E0438128E0421B08F45C
:1017700040E0282F628181810C94D90A81E00C9489
:10178000B20B20E00C94D90AEF92FF921F93CF93F3
:10179000DF93EC0110E0EE24EA94F12C60910B0150
:1017A000161770F00E94210A9A818C8190FF27C041
:1017B0008F5F8C83DF91CF911F91FF90EF90089501
:1017C00020910901422F410F5527551FCA019A0147
:1017D000220F331F280F391F2C563C4F70E0C701D2
:1017E0000E94122E962F8C8140919203609191035A
:1017F000199F800D11240E947E091F5FCFCF815059
:10180000D8CFAF92BF92CF92DF92EF92FF920F9319
:101810001F93CF93DF93FC0182810FEF80FF01E0E4
:1018200010E046E2A42E80910B011817C8F00E9428
:10183000210A8091DF01013009F055C0811102C0F9
:1018400080910B0181508093DF01DF91CF911F9137
:101850000F91FF90EF90DF90CF90BF90AF900895E1
:10186000C0910901C12ED12CCC0DDD2DD11DCE0191
:10187000880F991FC80FD91FCC56DC4F19821882C8
:101880001A8234E0E32EF12CB12C8091DF018B0D14
:1018900087321CF16A2D0E94F02D892F082E000C32
:1018A000990BC816D90691F4809192038E9DA001E0
:1018B0008F9D500D112455954795559547959E013F
:1018C00060919103809190030E947E09B00EF1E037
:1018D000EF1AF108D1F61F5FA6CF87FFDFCF9091F7
:1018E0000B01890FDBCF90E0019660910B0170E056
:1018F0000E94122EA8CF0F931F93CF93DF93809156
:10190000090190910A0123E0829FF0011124EC5615
:10191000FC4F891740F1C0E0D3E060910B01C6177E
:1019200040F10E94210A209105018091DE01820F81
:101930008093DE0190910601920F90930601191693
:1019400054F4082E000C990B40910B014150550B9B
:10195000841795071CF0219520930501DF91CF9105
:101960001F910F9108951182108212828F5F33961A
:10197000D0CF0C2F10E070E0C8010E94122E2091F1
:101980000901820F482F50E02091DE01022E000C49
:10199000330B02171307BCF020910601022E000C36
:1019A000330B201731077CF08D9F900111242C56AA
:1019B0003C4F4091920360919103809190030E946B
:1019C0007E09CF5FAACFFA01EE0FFF1FE40FF51FCC
:1019D000EC56FC4F118210821282F3CF8F929F92AD
:1019E000AF92BF92CF92DF92EF92FF920F931F932D
:1019F000CF93DF93EC014C81042F10E09801D801C4
:101A00000E945D2E9B01AC010E94732E4B015C0174
:101A1000E0E2F0E0E01BF10BA5E5B0E0AC019B01DA
:101A20000E94732E6B017C019F01DF010E94552EE5
:101A30009B01AC010E947E2E9B01AC01280D391D3B
:101A40004A1D5B1DC701B6010E94262EF22E822F71
:101A500090E039E23F1560F143E0249F90011124AA
:101A600035952795122F109500E085E5E82EEF18A3
:101A700080910B01081758F10E94210A9C8181E096
:101A8000992319F0903219F48FEF8093040180911B
:101A90000401890F8C83DF91CF911F910F91FF90EB
:101AA000EF90DF90CF90BF90AF909F908F90089570
:101AB00025E530E0B901681B790B9B01220F331F2C
:101AC000260F371F37FFCCCF2F5F3F4FC9CF8E2D4B
:101AD00001FD8F2D20910901622F600F7727771F5D
:101AE0009B01220F331F260F371F2C563C4F412FCF
:101AF000609191030E947E090F5FBACF0F931F93ED
:101B0000CF93DF93EC0110E000E090910B01901770
:101B1000110609F06CF40E94210A8C8190E0019674
:101B2000817099278C83DF91CF911F910F91089538
:101B300020910901A801420F511D9A01220F331F64
:101B4000240F351F2C563C4F4C816091910380919E
:101B5000900396959017110651F04CF0442349F0EC
:101B6000409192030E947E090F5F1F4FCECF442306
:101B7000B9F340E0F7CF8F929F92AF92BF92CF928E
:101B8000DF92EF92FF920F931F93CF93DF93FC01AD
:101B9000B280948081E0848300E015E05BE4A52EB0
:101BA00088248394EE24EA94F12C7BE4C72ED12C74
:101BB00080910B01081770F0DF91CF911F910F9169
:101BC000FF90EF90DF90CF90BF90AF909F908F905D
:101BD0000C94210AC02FD0E01C9FF0011D9FF00D36
:101BE0001124E052FE4F91101CC0138212822091EA
:101BF0000901CE01820F911D9C01220F331F280F76
:101C0000391F2C563C4F1C9FF0011D9FF00D1124D5
:101C1000E052FE4F4281618180810E947E090F5F08
:101C2000C7CF2381222379F12150238334818A2D48
:101C3000821B311101C0822F1C9FF0011D9FF00DEE
:101C40001124E052FE4F90919203899FC00111240C
:101C5000B6010E94FE2D6283211104C0332311F0CE
:101C60001482A38222E02B1510F21C9FF0011D9F0D
:101C7000F00D1124E052FE4F8091900380838091FB
:101C800091038183B4CF0E94D22E823091400CF018
:101C9000AECF82E08B1530F50E94D22EB7010E94A4
:101CA000122E1C9FF0011D9FF00D1124E052FE4FDB
:101CB000808322E02B15C8F40E94D22E209191033C
:101CC0002695622F70E00E94122E280F1C9FF001B3
:101CD0001D9FF00D1124E052FE4F21831282A3823A
:101CE000848285CF80919003DCCF20919103EECF49
:101CF000EFE8F3E080818E7F808360817181828153
:101D000093810E949F091092A6022FEF80E792E034
:101D1000215080409040E1F700C000000C94210A5F
:101D2000EFE8F3E080818E7F80831092A6022FEF90
:101D300080E792E0215080409040E1F700C0000031
:101D40000C94210A60918F03669570E04BE050E09F
:101D50008CE091E00E94E22E892B19F481E08093BF
:101D6000A6020E942F2390939F0280939E020895C3
:101D700090918F0390FF35C09170811128C09260BF
:101D800090938F03662351F060918F0370919003BD
:101D900080919103909192030E949F0960918F031B
:101DA000669570E04BE050E08CE091E00E94E22EFE
:101DB000892BA1F01092A60281E08093A1024091AC
:101DC000920360919103809190030C94C10B8B322C
:101DD00010F09465D5CF880F982BD2CF0E94A20E19
:101DE000EBCF0895682F90918F03969581E0890F2E
:101DF0008B3208F081E00C94B80E81E00C94F20E66
:101E0000682F90918F0396958FEF890F09F48AE2DE
:101E10000C94B80E81E00C94000F61E00C94B80EA5
:101E2000EFE8F3E080818160808386950C940D0F4C
:101E300080918F0380FD0C94780E0C94100F60E05D
:101E40000C94B80E8091A40281112EC00E944A21E8
:101E5000811104C00E94E7210E94BB090E949B09D6
:101E600060938F03709390038093910390939203F8
:101E70006E7F61F40E94BB090E949B0960938F03EF
:101E80007093900380939103909392030E948C0926
:101E90001092A60280918F0380FF03C086950E9456
:101EA0001F0F81E08093A4020895EFE8F3E08081A2
:101EB0008160808386950C941F0F0F931F93CF939F
:101EC000DF938091A602882309F49DC08091A5022A
:101ED000E0918F03E695E81BE093A0028230C9F5FC
:101EE000F0E0E35CFC4FE491CE2FD0E006E71AE08F
:101EF0008091A102882389F01092A1020E942F23D1
:101F00009E0120953095820F931F90939F0280939E
:101F10009E021092A3021092A20280919E029091C2
:101F20009F020E9447238C179D0708F46CC0E09124
:101F30009E02F0919F02CE0FDF1FD0939F02C093AD
:101F40009E028EE992E0F801DF91CF911F910F91EF
:101F50000994863049F4F0E0E65CFC4FE491CE2F22
:101F6000D0E00AE81AE0C4CF893051F4E695F0E0F9
:101F7000E95CFC4FE491CE2FD0E004EC1BE0B8CF3D
:101F80008F3051F4E695F0E0EC5CFC4FE491CE2FFD
:101F9000D0E001E01CE0ACCF853149F4F0E0EF5C2B
:101FA000FC4FE491CE2FD0E00BE71CE0A1CFC8E2BC
:101FB000D0E00EEE1CE0883109F49ACF833239F478
:101FC000EFE2F3E0C591D4910AE91AE091CFC4EFB2
:101FD000D1E00EE71DE0843209F48ACFC0EDD7E0EE
:101FE0000DE719E0853209F083CF8E2F63E00E9460
:101FF000E42DE92FF0E0E45DFC4FE491CE2FD0E03A
:102000000BEB1DE075CFDF91CF911F910F910895DC
:10201000FA01811101C0FB010994CF93DF93C82F0E
:10202000D62F0E94CA098C1740F00E94CA098D174A
:1020300020F4DF91CF910C94FD0E8C2FDF91CF9186
:102040000C940D0F0F931F93CF938C01FB01C28152
:10205000CC2309F465C00E9495208272F801E25CED
:10206000FC45E431F10538F4E85AF04D0C94482E63
:102070000E94180FC0E08C2FCF911F910F910895EF
:102080004AE05FE06DEF7EE00E940810F3CF4DEF75
:102090005EE06AE07FE0F8CF42E85BE065E77BE086
:1020A000F3CF45E75BE062E87BE0EECF40EA5BE040
:1020B00061E97BE0E9CF41E95BE060EA7BE0E4CF06
:1020C0004EEB5BE06FEA7BE0DFCF4FEA5BE06EEB6D
:1020D0007BE0DACF4DEF59E066EE79E0D5CF46EE02
:1020E00059E06DEF79E0D0CF81E00E940D0FC2CFB3
:1020F00065E082E00E940D10BDCF68E086E0FACF77
:102100006EE089E0F7CF64E18FE0F4CF67E185E12D
:10211000F1CF88E1EACF62E289E1ECCF83E2E5CF5B
:10212000C1E0A9CF549A4BB14F7E5BB15061EFB77C
:10213000F8949B01220F331F260F371F280F391FDA
:102140002817390741F4EFBF8FE594E00197F1F7C5
:1021500000C000000895DC016D91CD0178E05BB90D
:10216000000000C067FF4BB9660F000000C000C050
:1021700000C04BB900C07A9591F7E2CF82E290E0BF
:102180000E94EF2E813289F483E290E00E94EF2ECC
:10219000873059F484E290E00E94EF2E91E0833181
:1021A00009F090E0892F8170089580E0FCCFCF93F3
:1021B000C82F6FEF811161E282E290E00E94032F4D
:1021C0006FEFC11167E083E290E00E94032F6FEF91
:1021D000C11163E184E290E0CF910C94032F80E081
:1021E0000E94D7100C944421089585E290E00E944B
:1021F000EF2E682F70E090E080E0089585E290E097
:102200000C94032F0E94F4100E94BE1081110CC088
:1022100060E070E0CB010E94FE100E94B8120E94A4
:10222000A41381E00C94D7100895CF93FB01C281D1
:10223000CC2309F19C0122513F452031310520F585
:1022400082510E94B413C0E08C2FCF91089581E099
:102250000E94101F43E062E081E00E942805F3CF56
:1022600081E00E94311F43E062E081E00E94280586
:10227000EBCF82E0F6CF8031FFE59F0789F3813114
:102280009F45B9F3C1E0E0CF8031EFE59E07F9F259
:1022900081319F45C9F682E0DBCF2FEFFC0120831F
:1022A0000895CF93DF93EC0188818138A9F028F459
:1022B000803871F0DF91CF910895823881F08338B2
:1022C000C9F70E94150A89830E94180A8A83F2CFEF
:1022D0000E941B0A8983EECF0E94CA09FBCF0E948D
:1022E000000AF8CFCF93DF93EC0188818138E1F0C9
:1022F00028F4803869F0DF91CF910895823811F188
:102300008338C9F70E941B0A482F6A81898108C057
:10231000D9810E94180AC82F0E94150A4D2F6C2FD0
:10232000DF91CF910C94C10B89810E941F0F89818D
:10233000811104C0DF91CF910C94900EDF91CF9169
:102340000C94550F8981DF91CF910C94120AEF9272
:10235000FF920F931F93CF93DF93EC01062FDC01C5
:10236000ED91CD01E150E33108F0BFC0F0E0E45958
:10237000F04D0C94482E198289E08A83602FCE019B
:10238000DF91CF911F910F91FF90EF900C94172741
:102390008981823069F0833071F08130D9F40E94F4
:1023A0003B230E944E2E6A837B838C839D83E6CFE2
:1023B0000E94F510F6CF7E0110E0812F0E94AE073B
:1023C000F701928383831F5FF2E0EF0EF11C15305B
:1023D000A1F7D4CF602FCE010E944D11CFCF8981BC
:1023E0008230C1F76A817B818C819D810E944E2E53
:1023F0000E94FE10C3CF4B816A8189810E948A129C
:102400009827892798279D838C83B8CF2C813D817D
:102410003227232732274B816A8189810E94A312A8
:10242000ADCF0E94B812AACF0E947211A7CF0E940E
:102430005111A4CF0E94B109A1CF0E944D138983ED
:102440009DCF0E944F139827892798279A838983C5
:1024500095CF6B8170E089819A81AE014C5F5F4FAF
:102460009827892798270E94521388CF6B8170E0A4
:1024700089819A81AE014C5F5F4F98278927982701
:102480000E9479137BCF0E94A41378CF0E94781208
:10249000D6CF6B8170E089819A81AE014C5F5F4F2E
:1024A0009827892798270E94F01268CF6B8170E0E7
:1024B00089819A81AE014C5F5F4F982789279827C1
:1024C0000E9416135BCF0E94EF1058CFCE010E94DE
:1024D00017272FEF81EE94E0215080409040E1F7E4
:1024E00000C000000E947A2349CF8FEF888346CF37
:1024F00084E0089550E0440F551F98E1699F400D16
:10250000511D112498E7899F400D511D1124CA01C6
:10251000869608950F931F93CF93DF930E947A12AC
:102520008C010E94EF2EC82FD0E0DC2FCC27C801F1
:1025300001960E94EF2E9E01282BC901DF91CF91B9
:102540001F910F9108950F931F93CF93DF93122F35
:10255000032F0E947A12EC01602F0E94032F612F3B
:10256000CE010196DF91CF911F910F910C94032F13
:10257000AF92BF92CF92DF92EF92FF921F93CF93D1
:10258000DF938CEAC82E80E0D82ED0E07601C0E040
:1025900014C0F50125913491412F6C2F8D2F0E948D
:1025A000A31282E0A80EB11C1F5F1C3091F788E1D6
:1025B000E80EF11CCF5FC53019F0570110E0E9CFEC
:1025C000DF5F88E7C80ED11CD43001F7DF91CF91CF
:1025D0001F91FF90EF90DF90CF90BF90AF90089544
:1025E000EF92FF920F931F93CF93DF93EC018A0139
:1025F0007C01E60EF71ECE018696CE15DF0539F476
:10260000DF91CF911F910F91FF90EF900895C03E01
:1026100021E0D20740F40E94EF2EF80180830F5F83
:102620001F4F2196E8CFF8011082F9CFCF92DF92A9
:10263000EF92FF920F931F93CF93DF937C016A0178
:102640008C01060F171FEC01CE018696C017D1072B
:1026500049F4DF91CF911F910F91FF90EF90DF90A0
:10266000CF900895C03E21E0D20740F4FE01EE195C
:10267000FF09EC0DFD1D60810E94032F2196E4CF20
:10268000462F843038F4753028F46C3018F4672FF6
:102690000C948A1290E080E0089580E108958AEF1A
:1026A00091E00895EF92FF920F931F93CF93DF93E2
:1026B000EC018A017C01E60EF71ECE018A5F9D4F78
:1026C000CE15DF0539F4DF91CF911F910F91FF9067
:1026D000EF900895CA3F21E0D20740F40E94EF2E08
:1026E000F80180830F5F1F4F2196E7CFF80110821A
:1026F000F9CFCF92DF92EF92FF920F931F93CF9378
:10270000DF937C016A018C01060F171FEC01CE01DB
:102710008A5F9D4FC017D10749F4DF91CF911F9178
:102720000F91FF90EF90DF90CF900895CA3F21E086
:10273000D20740F4FE01EE19FF09EC0DFD1D60818A
:102740000E94032F2196E3CFCF93DF93C6E0D2E020
:1027500060E0CE010E94032F2196C11584E0D807C6
:10276000B9F7DF91CF910895DF92EF92FF920F9327
:102770001F93CF93DF9300D000D0CDB7DEB7F82EF4
:102780008FE08F1540F08FEF93E00E94EF2E06E070
:1027900012E08823C1F00F900F900F900F90DF91FF
:1027A000CF911F910F91FF90EF90DF900895011549
:1027B00084E0180781F3C8010E94EF2E811101C047
:1027C000FA940F5F1F4FF110F2CF19821A821B8209
:1027D0001C82DD24D39478018FEFE81AF80AC8012F
:1027E0000E94EF2E89831A828823A9F29FEF980F07
:1027F000933078F48A83D9820E5F1F4FC7010E94FD
:10280000EF2E8B83882339F2CE0101960E94D104EA
:10281000E2CF8701F9CFAF92BF92CF92DF92EF92D2
:10282000FF920F931F93CF93DF937C015B01C42F23
:10283000D22FFC0182818823F9F04093A9020E94E3
:102840002F239093A8028093A70280E28C0F8830F8
:1028500008F061C0C77081E001C0880FCA95EAF72F
:10286000DF91CF911F910F91FF90EF90DF90CF906C
:10287000BF90AF900C9497181091A902141340C008
:102880008091A7029091A8020E9447236C01B70192
:10289000C5010E94891DC816D90690F5C0E2CD0F6A
:1028A0001D17B9F080E2810F883040F4177081E085
:1028B00001C0880F1A95EAF70E949E18C83048F4A4
:1028C00081E09D2F977001C0880F9A95EAF70E94CA
:1028D0009718802F0E948418C830E8F4D77081E0E0
:1028E00001C0880FDA95EAF7DF91CF911F910F9120
:1028F000FF90EF90DF90CF90BF90AF900C949E1818
:1029000080E28C0F883038F4C77081E001C0880FF6
:10291000CA95EAF7E9CFDF91CF911F910F91FF9010
:10292000EF90DF90CF90BF90AF9008950F939C01F0
:10293000CB01233F4CE5340759F1A8F4283DFCE5D1
:102940003F0701F1293D4CE53407D1F1273D3C45D6
:1029500091F406E221EE41EE67ED7CE50E940B1456
:1029600080E00F910895253FFCE53F07E9F0B0F0C6
:10297000263F3C45F9F0FC018281882339F1109211
:10298000A902EFCF07E225EE45EE68ED7CE5E6CF44
:1029900006E221EE40EE63EF7CE5E0CF07E225EEB4
:1029A00044EE64EF7CE5DACF06E221EE42EE65EF1D
:1029B0007CE5D4CF07E225EE46EE66EF7CE5CECF90
:1029C00008E221E045EE69ED7CE5C8CF81E0C9CFA2
:1029D000CF93DF93EC01FB018281882309F419C1B5
:1029E000C230FCE5DF07C0F1C6319CE5D90730F005
:1029F0009E012A5F3C452930310570F50E945D211A
:102A000090930B0480930A04C031ECE5DE0709F4CF
:102A1000CFC008F05BC0C8308CE5D80709F4B6C059
:102A200088F5C430ECE5DE0709F4A8C0C0F4C23074
:102A30008CE5D80709F49CC080910A048260C330F9
:102A4000DC4509F498C080910A0490910B040E941F
:102A50006B210E94131B80E0DF91CF91089580913C
:102A60000A048061C630ECE5DE0709F484C0809179
:102A70000A048860C730DC4508F47DC080910A04F0
:102A8000806279C0CC308CE5D80709F489C070F435
:102A900080910A048C60CA30ECE5DE0709F46BC053
:102AA00008F478C080910A048E7F65C0CE308CE532
:102AB000D80709F479C080910A048B7FCF30DC45B8
:102AC00008F459C080910A048F7E55C0CB3FECE5D5
:102AD000DE0709F457C030F5C3318CE5D80709F497
:102AE0006FC078F4C131ECE5DE0709F465C0C2318E
:102AF000DC4509F0A8CF0E94131B80910A048F7750
:102B00003AC0C5318CE5D80709F462C008F476C034
:102B100080910B048160CA3FDC4509F094CF80931B
:102B20000B0491CFCF3FFCE5DF0709F44DC088F4DB
:102B300080910B048D7FCD3F9CE5D90781F3809177
:102B40000B048E7FCE3FDC4550F380910B048360F5
:102B5000E6CFC130FDE5DF0709F459C008F444C0F1
:102B600080E0C230DD4509F06ECF0E94E9216BCFD5
:102B700080910A04816080930A0465CF80910A04E1
:102B80008460F9CF80910B048260C9CF80910A04E0
:102B90008064F1CF0E94131B80910A048068EBCF00
:102BA00080910A048D7FE7CF80910A04877FE3CF6D
:102BB00080910A048F7DDFCF80910A048F7BDBCF69
:102BC00080910A04837FD7CF80910B048C7FA7CF9D
:102BD00080910A0482FB992790F921E0922790FBCB
:102BE00082F990FB83F9C7CF80910B04982F9095C1
:102BF00091708E7F892B90FB81F991CF0E94131BDE
:102C000090910A04892F97FB87F98058B4CF81E00F
:102C1000ACCF81E021CFCF93DF93EB0186319C4590
:102C200011F50E9495209A81992399F08A7A91E072
:102C300009F490E09093AA02811109C089E20E94F0
:102C400070200E94E12080E0DF91CF91089585E31C
:102C5000F6CF8091AA02811104C089E20E947720F8
:102C6000F0CF85E3FBCF81E0EFCF9093B00280936C
:102C7000AF020895E091AF02F091B002309721F0D9
:102C80000190F081E02D099480E00895E091AF0279
:102C9000F091B002309799F020912B01222359F046
:102CA00020910A0427FF07C0DC012C9111962C9378
:102CB000119725E02C930280F381E02D099408956B
:102CC000E091AF02F091B002309739F022E0DC01E0
:102CD0002C930480F581E02D099408952091AD0294
:102CE0003091AE022817390771F09093AE028093AD
:102CF000AD02E091AF02F091B002309721F0068072
:102D0000F781E02D099408952091AB023091AC0237
:102D10002817390771F09093AC028093AB02E091D1
:102D2000AF02F091B002309721F00084F185E02DE0
:102D30000994089585B7806885BF85B7806885BF89
:102D40000895089508950C94A11608950C94A5165D
:102D50000E949A160E94A2160C94A31681E0089570
:102D60000C94AE160E9426230E94BC070E940211FA
:102D70000E94B4230E94220F0C94A6169F92AF9239
:102D8000BF92CF92DF92EF92FF920F931F93CF9358
:102D9000DF93CDB7DEB72A970FB6F894DEBF0FBE2C
:102DA000CDBF0E9424080E94B016882309F472C087
:102DB00052EBA52E52E0B52E10E000E0902E802FB1
:102DC0000E94AE076C01F501E190F1905F01E816F9
:102DD000F90609F459C080914A0381FD0E94B707A2
:102DE00097012C253D2580E0EE24E394F12CA901E8
:102DF0004E215F21452B09F441C08E839F82CE2056
:102E0000DF2081E0CD2809F480E088870E942F230D
:102E10008160782F9A8789874E815F8168858A854E
:102E20000E946D17000F111FF801EE54FD4F8081B5
:102E30009181E826F926F182E0820E945D0F0E94CE
:102E40005F250E943A169091B1028917A1F10E9464
:102E50003A168093B1022A960FB6F894DEBF0FBEE1
:102E6000CDBFDF91CF911F910F91FF90EF90DF9039
:102E7000CF90BF90AF909F900C94A5058F5FEE0C04
:102E8000FF1C8C3009F0B3CF0F5F1F4F05301105C9
:102E900009F094CF8FEF89838A831B820E942F23AE
:102EA0008160782F9D838C8349815A816B818D81CC
:102EB0000E946D17C2CF2A960FB6F894DEBF0FBEE0
:102EC000CDBFDF91CF911F910F91FF90EF90DF90D9
:102ED000CF90BF90AF909F900895CF93DF93CDB7E1
:102EE000DEB72B970FB6F894DEBF0FBECDBF4F8372
:102EF000588769877A878B871E821D8285E0FE014D
:102F00003796DE01119601900D928A95E1F749817D
:102F10005A816B817C818D819E812B960FB6F894AE
:102F2000DEBF0FBECDBFDF91CF910C948C1DFC0195
:102F3000808191810C944220CF93C82F882309F47B
:102F40008BC08238C1F40E943A1681FD85C089E3A6
:102F50000E9470200E94E1202FEF81EE94E021502A
:102F600080409040E1F700C0000089E30E94772094
:102F7000CF910C94E1208338A1F40E943A1680FD91
:102F80006BC083E50E9470200E94E1202FEF81EE4C
:102F900094E0215080409040E1F700C0000083E5BC
:102FA000E5CF8438A1F40E943A1682FD55C087E42B
:102FB0000E9470200E94E1202FEF81EE94E02150CA
:102FC00080409040E1F700C0000087E4CFCF8CEF55
:102FD0008C0F813A90F46C2F809117019091180119
:102FE0000E940222882329F08C2F0E9477200E94C1
:102FF000E1208C2F0E947020BBCF80E28C0F8830A4
:1030000048F4C77081E001C0880FCA95EAF70E94B2
:103010009820AECFEBE5EC0FE33040F4F0E0E9535D
:10302000FE4F808190E0CF910C946E16E8E5EC0F96
:10303000E73150F4F0E0EE0FFF1FE756FE4F8081BE
:103040009181CF910C948416C03F30F08C2F0E9458
:103050005924CF910C944425CF910895882309F4E5
:1030600052C0823871F40E943A1681FF4CC089E345
:103070000E9470200E94E12089E30E9477200C9436
:10308000E120833859F40E943A1680FF3CC083E562
:103090000E9470200E94E12083E5EFCF843859F42C
:1030A0000E943A1682FF2FC087E40E9470200E947F
:1030B000E12087E4E2CF9CEF980F913AF0F290E2A2
:1030C000980F983050F4877091E001C0990F8A955D
:1030D000EAF7892F0E949E20D2CF9BE5980F93306C
:1030E00020F490E080E00C946E1698E5980F9731EC
:1030F00020F490E080E00C948416803F20F00E9441
:10310000C1240C9444250895CF93C82F0E949C1786
:10311000C93349F42FEF87EE93E02150804090406F
:10312000E1F700C000008C2FCF910C942E1888235B
:1031300021F00E9498200C94E1200895882321F02A
:103140000E949E200C94E1200895BF92CF92DF92BE
:10315000EF92FF920F931F93CF93DF936C01D62FC3
:10316000C72FFC01058102950F70128111110E9479
:10317000B5200E948E20E82E882391F01123D1F0F3
:103180008C2F807F803421F080E28D0F883090F08A
:1031900082E00E942C210E948E2091E0E82EE926F8
:1031A000BC2EB2949FE0B922EB2DF0E0E158F04D37
:1031B0000C94482EE12CF4CF0C2F0F70C07F11F02F
:1031C0000295007F1123A9F0002359F080E28D0FB2
:1031D000883010F0D11109C0802F0E9498200E94E1
:1031E000E1208D2F0E949C1714C0802F0E94A820E0
:1031F000F6CF8D2F0E942E18002359F080E28D0FFC
:10320000883010F0D1112CC0802F0E949E200E9487
:10321000E1202B2D2850330B2430310520F40E945F
:103220003A160E94A505EE2009F49EC10E948A204C
:1032300080FD9AC1F60112820E9484200E94101F14
:10324000C6010E94D51A0E948420DF91CF911F9160
:103250000F91FF90EF90DF90CF90BF900C94311FB3
:10326000802F0E94AE20D3CFFC2FFF70FF2EC07F97
:10327000C03219F0F29480EFF822DD2369F0D130EA
:1032800049F1112391F1002351F1F601858180FF6D
:10329000A8CF8F70858323C0112381F0011106C050
:1032A0000E94C8208F290E949718B3CF0130C1F720
:1032B0000E94C8208F290E94CE20ABCF011106C0EA
:1032C0000E94D7208F2D0E949E18A3CF013009F4B1
:1032D000A0CFF6CF112329F0033008F09ACF8F2D1D
:1032E000E2CF023008F095CFEDCF002359F3D93368
:1032F00049F4FFEF27EE33E0F15020403040E1F792
:1033000000C000008D2F0E942E1883CF8C2F869531
:103310008695837069F0813009F07BCF8D2F9C2FCB
:103320009370111102C090E080E00E94841671CF6A
:103330008D2F9C2F9370111102C090E080E00E94AD
:103340006E1667CF8D2F112329F00E9459240E94F9
:1033500044255FCF0E94C124FACF8C2F837009F0DF
:1033600041C0111156CF4D2F429546954770440FDD
:10337000440F0D2F0F7010E030E020E0042E04C049
:10338000000F111F221F331F0A94D2F760E070E074
:10339000CB01D4FF0FC06FE070E080E090E004C08C
:1033A000660F771F881F991F4A95D2F76095709511
:1033B00080959095C695C695C370602B712B822B16
:1033C000932BC23049F058F4C13019F00E94C21E4C
:1033D00020CF0E94B01E1DCF0E94D41E1ACF0E9483
:1033E000AE1E17CF8695112311F08C2F8170882384
:1033F00009F40FCF4D2F429546954770440F440F67
:103400000D2F0F7010E030E020E0042E04C0000FFC
:10341000111F221F331F0A94D2F760E070E0CB0126
:10342000D4FF0FC06FE070E080E090E004C0660F52
:10343000771F881F991F4A95D2F7609570958095E0
:103440009095C695C695C370602B712B822B932BDC
:10345000C23049F058F4C13019F00E94871FD9CE0C
:103460000E94751FD6CE0E94991FD3CE0E94EA1EDD
:10347000D0CECF70112329F08C2F0E94101F8D2FDA
:1034800012CF8D2F0E949E188C2F0E94311FC1CE0B
:10349000D23F89F160F4D03FC9F0D13F29F1112327
:1034A00009F442C001119DCE8C2F8F7121C0D33FF2
:1034B00039F1D43FA1F7112369F1CF718C2F0E940C
:1034C000101F63E08C2F0E941721A3CE112341F01F
:1034D000023008F09ECE8C2F8F710E94541F99CE1F
:1034E000033008F096CEF7CF8C2F8F71112369F23D
:1034F0000E94101F8ECE8C2F8F711123C9F3C5CF60
:10350000112329F08C2F8F710E94FB1E82CE0E9406
:10351000F61E7FCE81E00E942C21023008F479CE85
:1035200082E00E942C2175CE002359F0D93309F096
:10353000E9CE8FEF97EEE3E081509040E040E1F775
:10354000DFCE8C2F8F71A1CF4C2F4F706D2FC60106
:103550000E94AD050E94261E5CCE4C2F4F706D2F31
:10356000C6010E94B00555CEDF91CF911F910F91FA
:10357000FF90EF90DF90CF90BF9008950F931F932F
:10358000CF93DF93EC01688179818A810E944C207E
:103590008C010E94AB1F0E94AD1EB801CE01DF91CD
:1035A000CF911F910F910C94A518CF93DF93EC014D
:1035B0008B819C81892B29F08881998189238F3F78
:1035C00059F4DF91CF910895CE010E94BE1ACE0129
:1035D000DF91CF910C941204CE010E945605811107
:1035E000F3CF0E948E20882361F38A81882349F3D8
:1035F00082E0DF91CF910C942C210E94B5200E9493
:10360000C5200E94E1200E946B260E94442590E084
:1036100080E00E946E1690E080E00C9484160E9478
:103620007E200C94FD1A0E94A5200C940F1BE92FFC
:10363000E295EF70E250EE3070F4F0E0E157F04DBB
:103640000C94482E803F19F020F4883E20F481E04D
:103650000895843FE1F380E00895883EC0F3813F00
:10366000D1F7F5CF93FB882780F908950E94422077
:103670000C94171BCF93DF9300D000D00F92CDB7DF
:10368000DEB70F900F900F900F900F90DF91CF91BA
:103690000895CF93DF9300D000D000D0CDB7DEB730
:1036A00026960FB6F894DEBF0FBECDBFDF91CF9147
:1036B00008951F93CF93DF93C091BD0216E08091D0
:1036C000BE028C1304C0DF91CF911F910895D0E00A
:1036D0001C9FF0011D9FF00D1124E154FD4F40810E
:1036E000518162817381848195810E94491B219659
:1036F000C770E5CF4091EF025091F0026091F10266
:103700007091F2028091F3029091F4020C94491BA3
:103710001F93CF93DF938091F402807FA9F480916F
:10372000F102882389F08091BD02C091BE026091B0
:10373000EF027091F002A091F202B091F302D62F45
:10374000D72316E0C81304C0DF91CF911F910895CD
:1037500090E0109711F0DF3F19F401968770F2CFD7
:10376000189F9001199F300D1124F901E154FD4F6C
:1037700041814713F2CF40814613EFCF428141117F
:10378000ECCF438154814A1B5B0B483C510528F721
:103790008091F4028F7080618093F402F901EC5300
:1037A000FD4F80818F70806180838FEE92E00E9458
:1037B000D51ADF91CF911F910C94591BAF92BF92F4
:1037C000CF92DF92EF92FF920F931F93CF93DF93ED
:1037D000CDB7DEB761970FB6F894DEBF0FBECDBF91
:1037E0008C0185E0F801DE011D9601900D928A950D
:1037F000E1F7F80140815181E2808FEEC82E82E02E
:10380000D82E6091F2027091F3026115710509F4EE
:1038100061C19091EF022091F002892F82238F3FA6
:1038200009F458C1A380B480F090F102F501E61BC1
:10383000F70BFF2009F4FCC08091F402382F307F91
:10384000E83CF10508F0B2C0311179C0FE2C251317
:1038500023C0941321C0E1101FC08F70806180933A
:10386000F4020E947A1BC6010E94D51A8091F402CC
:10387000F80185838F2D61960FB6F894DEBF0FBED9
:10388000CDBFDF91CF911F910F91FF90EF90DF900F
:10389000CF90BF90AF900895AB2829F0842F852357
:1038A0008F3F09F033C180E0F82FF170DF2E80FFE9
:1038B0003CC08091BD022091BE0236E0821315C04B
:1038C0004D875E878D859E850E944220292F2295F7
:1038D0002F702230F0F0243018F59F70F1F0F801CD
:1038E0009581907FD1F4D12C1EC090E0389FF001DB
:1038F000399FF00D1124E154FD4F6181651306C01D
:103900006081641303C062816E110FC001968770DD
:10391000D5CF9F7011F0882331F3805E883018F383
:10392000C8010E94D51AFD2CA5CFEE2009F4A2CF24
:103930008091F40281608093F402F12C9BCF2513D7
:1039400006C0941304C0F801EE2009F48DC04D8721
:103950005E878D859E850E94361B882319F1EE2097
:1039600009F18091F402803270F02091EF023091E1
:10397000F00238872F831986BB86AA868C87CE01F2
:1039800007960E94D51A86E0F801AFEEB2E00190EA
:103990000D928A95E1F70E94881B0E947A1BFF24F2
:1039A000F39468CFC8010E94D51AF9CF311113C022
:1039B0007A2DB98AA88A6E2D89890E943A1B8FEECA
:1039C00092E00E94D51A86E0F60111928A95E9F7F5
:1039D0000E947A1BB2CF25130FC094130DC0E110C3
:1039E0000BC0F8018583C8010E94D51A86E0F60154
:1039F00011928A95E9F73ECF4D875E878D859E852A
:103A00000E94361B882371F2EE2061F28091F4024D
:103A1000803208F4B8CF2091EF023091F0023A835F
:103A200029831B82BD82AC828E83CE010196A9CFF1
:103A3000E83CF10508F041C0FE2CEE2009F4B2CFBD
:103A400025132AC0941328C08091F40280FD1BC066
:103A5000982F907FC1F0F8018583903F31F0982F27
:103A6000907F905F8F70892B8583C8010E94D51A43
:103A700086E0F801AFEEB2E001900D928A95E1F791
:103A80000E947A1BF7CE86E0F801AFEEB2E001901B
:103A90000D928A95E1F7EECE4D875E878D859E85E6
:103AA0000E94361B81116FCF8091F4028160809358
:103AB000F402C8010E94D51ADDCE7A2DB98AA88AEF
:103AC0006E2D89890E943A1B86E0F60111928A9533
:103AD000E9F7D6CFEE2009F465CF4D875E878D8557
:103AE0009E850E94361BF82E882309F45BCF86E062
:103AF000F801AFEEB2E001900D928A95E1F78FEEFA
:103B000092E00E9497170E94881BBACF81E08E2511
:103B1000CBCE88EC90E008951F93CF93DF93CDB781
:103B2000DEB72C970FB6F894DEBF0FBECDBF4F8324
:103B3000588769877A878B879C87CE0107960E9472
:103B4000DE1B882369F08A859B85892B39F04F819C
:103B50005885842F85238F3F09F071C016E05FC020
:103B600086E0FE013796DE01119601900D928A954E
:103B7000E1F78A859B85892B89F38F819885892335
:103B80008F3F61F32091BE0230E0C901019687703A
:103B900099274091BD024817190671F40E94131B22
:103BA0001092BE021092BD0286E0EFEEF2E0DF015D
:103BB0001D928A95E9F7D2CF96E0929FD001939F0C
:103BC000B00D1124A154BD4FFE01319601900D920C
:103BD0009A95E1F78093BE020E94591BBFCF819F47
:103BE000C001112481549D4F0E94DE1B8823E9F0FF
:103BF000E091BD021E9FF0011124E154FD4F408170
:103C0000518162817381848195810E94491B8091D9
:103C1000BD0290E00196877099278093BD02809144
:103C2000BD029091BE028913DACF2C960FB6F8949C
:103C3000DEBF0FBECDBFDF91CF911F910895698583
:103C40007A858B859C850E94491B88CFEF92FF92D5
:103C50000F931F93CF93DF938C01892B81F0F12C6D
:103C6000EE24E394E8012196F8018491843770F4FE
:103C7000843008F05FC08130B1F08230A1F1DF9173
:103C8000CF911F910F91FF90EF900895853709F420
:103C90004CC008F43DC09CE7980F903780F78F77B1
:103CA0000E942E1849C00E5F1F4FFE01849190E2C2
:103CB000980F983060F48770FE2D01C0FF0F8A9531
:103CC000EAF78F2F0E94B8200E94E12002C00E94D4
:103CD0009C178F2D815030F2EFE9FFE03197F1F71B
:103CE00000C00000F7CF0E5F1F4FFE01849190E2ED
:103CF000980F983050F48770FE2D01C0FF0F8A9501
:103D0000EAF78F2F0E94BE20DFCF0E942E18E1CF4E
:103D10000E5F1F4FFE01C491C150D8F28FE99FE0A2
:103D20000197F1F700C00000F7CF0E5F1F4FFE01B3
:103D3000F490CFCF0E949C178E01CBCF08950C94A6
:103D40009E1E0E949F1E6093210370932203809306
:103D50002303909324030C94FD1A08950C94A11E40
:103D60000F931F93009121031091220320912303AD
:103D700030912403602B712B822B932B1F910F9179
:103D80000C94A11E0F931F93009121031091220305
:103D900020912303309124036023712382239323F2
:103DA0001F910F910C94A11E0F931F93009121035B
:103DB000109122032091230330912403602771275F
:103DC000822793271F910F910C94A11E0C949E1E85
:103DD0000C94E61E0E94E81E60931D0370931E0360
:103DE00080931F03909320030C94FD1A60E070E011
:103DF000CB010C94EA1E0F931F9341E050E060E06A
:103E000070E08A019B0104C0000F111F221F331FA5
:103E10008A95D2F7C901B8011F910F910C94EA1E3F
:103E20000F931F9341E050E060E070E004C0440F46
:103E3000551F661F771F8A95D2F780911D039091B9
:103E40001E03A0911F03B09120038A019B01082B40
:103E5000192B2A2B3B2BC901B8011F910F910C94F0
:103E6000EA1E0F931F9341E050E060E070E004C051
:103E7000440F551F661F771F8A95D2F7CB01BA01F1
:103E8000609570958095909500911D0310911E038B
:103E900020911F03309120036023712382239323F9
:103EA0001F910F910C94EA1E0F931F9341E050E075
:103EB00060E070E004C0440F551F661F771F8A95AD
:103EC000D2F780911D0390911E03A0911F03B09122
:103ED00020038A019B01082719272A273B27C901AC
:103EE000B8011F910F910C94EA1E0F931F9300913C
:103EF0001D0310911E0320911F0330912003602B9E
:103F0000712B822B932B1F910F910C94EA1E0F9310
:103F10001F9300911D0310911E0320911F033091E8
:103F2000200360237123822393231F910F910C940C
:103F3000EA1E0F931F9300911D0310911E03209101
:103F40001F033091200360277127822793271F9139
:103F50000F910C94EA1E08952CE0929F800D11247D
:103F6000982F977041E001C0440F9A95EAF7869523
:103F70008695869595E0899FF0011124EB50FD4FC1
:103F800090E080E070E05191DF0111979B01082ED5
:103F900002C0369527950A94E2F7217021952527CE
:103FA000242325272C9301968530910561F70895E8
:103FB0002CE0929F800D1124982F977086958695FE
:103FC000869525E0829FF0011124EB50FD4F50E0D3
:103FD00040E080E0219130E0092E02C0369527951F
:103FE0000A94E2F721703327042E01C0220F0A94AD
:103FF000EAF7822B4F5F5F4F4530510559F708951F
:10400000BF92CF92DF92EF92FF920F931F93CF93C5
:10401000DF938C01C0901D03D0901E03E0901F031E
:10402000F09020038091210390912203A09123031B
:10403000B0912403C82AD92AEA2AFB2ACFE1D0E08A
:10404000BC2ED701C6010C2E04C0B695A795979536
:1040500087950A94D2F780FD0EC0219788F7B12C7E
:104060008B2DDF91CF911F910F91FF90EF90DF90FB
:10407000CF90BF900895B8018C2F0E94B905019789
:1040800061F3EECFCF93DF93EC010E940020BE01DD
:10409000DF91CF910C94B9051F93CF93DF93EB0180
:1040A0009091BC02992331F0CB01DF91CF911F9108
:1040B0000C944220882379F0CB010E940020182F15
:1040C000682FCE010E94AC1FBE01812FDF91CF91DE
:1040D0001F910C94B905CB010E94D81F182FF4CF63
:1040E000682F80911701909118010C948222682FFB
:1040F00080911701909118010C948D2280911701E5
:10410000909118010C9498228091250385958595AE
:1041100085950895809125038770089590912503D2
:10412000977081E009F480E0089580914903089533
:1041300090914903892B809349030895809590912C
:1041400049039823909349030895109249030895D1
:1041500090914803892B809348030895809590910E
:1041600048039823909348030895109248030895B4
:1041700090914703892B80934703089580959091F0
:104180004703982390934703089510924703089597
:1041900080912603089508950C94CB2090912603D6
:1041A000981721F0809326030C94CC2008958091D9
:1041B0002603882329F01092260380E00C94CC205B
:1041C0000895E0911701F0911801809149038083CF
:1041D000E0911701F0911801808190914803892B9B
:1041E0008083E0911701F09118018081909147033D
:1041F000892B808390912603992381F0E091170108
:10420000F09118018081892B808380911701909112
:1042100018010E94EE2181110E94D7208091170180
:10422000909118010C94461608950C94142198E06E
:10423000899F90011124622B609325030E94101F17
:10424000809125038595859585950C94152110926F
:10425000250380E00C9415219091250380958923F6
:1042600080932503282F277071F4282F082E000C27
:10427000330B9217130639F08595859585950E9425
:10428000311F0C94272108956FEF7FEF90E080E0BD
:104290000C94212F90E080E00E94FD2E21E08C3EC6
:1042A0009E4F09F020E0822F089582E090E00C9468
:1042B000EF2E83E090E00C94EF2ECF9384E090E01B
:1042C0000E94EF2EC82F81E290E00E94EF2E982FDF
:1042D0008C2FCF910895CF93C92F682F84E090E061
:1042E0000E94032F6C2F81E290E0CF910C94032F5A
:1042F000AB01BC018FE090E00C94152FAB01BC0129
:1043000083E190E00C94152F60E070E0CB010C94F9
:104310007E2160E070E0CB010E9478210C94842122
:104320006CEE7EEF90E080E00E94212F60E082E062
:1043300090E00E94032F60E083E090E00E94032F52
:10434000109221031092220310922303109224034F
:1043500060E084E090E00E94032F60E081E290E062
:104360000E94032F60E085E090E00E94032F60E050
:1043700086E090E00E94032F6FEF87E090E00E94BC
:10438000032F40E050E0BA0188E090E00E94152F32
:1043900060E08DE090E00E94032F40E050E0BA0121
:1043A00088E190E00E94152F60E087E190E00E9494
:1043B000032F40E050E0BA018CE190E00E94152FFD
:1043C00060E080E290E00E94032F0C9489210C941D
:1043D0009021682F8EE090E00C94032FFC01329620
:1043E00080912B01882321F080910A049EE187FFB0
:1043F00096E080E0915008F4089521912223D1F3B2
:104400008F5FF8CF662301F120912B012223F1F079
:1044100020910A0427FF1AC0462F469546954695D7
:104420004E3190F4677021E030E002C0220F331F5C
:104430006A95E2F7840F911DFC01828190E02823A8
:10444000392381E0232B69F480E00895FC01329642
:1044500008962191261721F0E817F907D1F7F4CF34
:1044600081E008959C01FC0132969FEF80E041912C
:10447000461751F09F3F19F4411101C0982F8F5FEB
:104480008630A9F79F3F09F40895290F311D97FD44
:104490003A95F90162830895FC01329608962191BC
:1044A000261303C0DF0111971C92E817F907B9F72B
:1044B0000895E62FE695E695E695EE3168F4E80F67
:1044C000F92FF11D677021E030E001C0220F6A95DD
:1044D000EAF78281822B82830895E62FE695E6959E
:1044E000E695EE3170F4E80FF92FF11D677021E0C9
:1044F00030E001C0220F6A95EAF7209582812823D7
:104500002283089520912B01222329F020910A046F
:1045100027FD0C9459220C94322220912B01222346
:1045200029F020910A0427FD0C946D220C944C2252
:10453000FC01329680912B01882351F080910A046E
:1045400087FF06C08EE1DF011D928A95E9F7089585
:1045500086E0F9CF089508950C94AB220E94AC2216
:1045600080911004843049F110924B0388E190E06F
:1045700020E40FB6F894A895809360000FBE2093B6
:10458000600080E00E94A5050E94AC2283B7817F75
:10459000846083BF83B7816083BF7894889583B735
:1045A0008E7F83BF0FB6F894A895809160008861D4
:1045B00080936000109260000FBE08950895CF931D
:1045C0000E94AA220E9424080E94DE22C0E08C2FB2
:1045D0000E94AE07892B31F4CF5FC530C1F780E070
:1045E000CF91089581E0FCCF08950C94F4220E94AD
:1045F000131B0E943A160E94A5050C94F5221F92E7
:104600001FB61F9211248F939F93AF93BF938091F6
:104610004B03811113C08091060490910704A0916F
:104620000804B09109044196A11DB11D80930604B0
:1046300090930704A0930804B0930904BF91AF912D
:104640009F918F911F901FBE1F90189582E084BD8F
:1046500093E095BD9AEF97BD80936E0008952FB7B4
:10466000F8948091060490910704A0910804B091F9
:1046700009042FBF08952FB7F89460910604709134
:10468000070480910804909109042FBF08959C01AC
:104690004FB7F8948091060490910704A091080404
:1046A000B09109044FBF821B930B089578941F9219
:1046B0001FB61F9211248F939F93AF93BF93809146
:1046C000060490910704A0910804B0910904019692
:1046D000A11DB11D8093060490930704A0930804C4
:1046E000B0930904BF91AF919F918F911F901FBE0E
:1046F0001F90189581E08093E00080E28093D800BD
:104700001092C9008FE19EE40197F1F700C000000C
:1047100087E090EBDC018093190490931A04A09336
:104720001B04B0931C0488E19CE00FB6F894A89594
:10473000809360000FBE90936000FFCF0C94EF1049
:104740000E9424088FE39CE90197F1F700C0000064
:104750000E94240880E00E94AE0780FF04C00E94EF
:104760009E230C947A2308950E944A21811102C04D
:104770000E94E7210E94552180934A030E945D21F7
:1047800090930B0480930A040E945921682F70E0D3
:1047900090E080E00E94AE1E60911D0370911E03A8
:1047A00080911F03909120030C94E81E8091520386
:1047B00080FF12C060911E0185E0689FB001112446
:1047C000759567957595679560387105A8F56115BC
:1047D0007105A1F1862F089581FF09C060911E0126
:1047E00085E0689FB001112475956795EDCF6091C4
:1047F0001E0182FD0AC0809151038823D1F090915F
:104800001D0160911E01891728F085E0689FB001A5
:104810001124DACF869FB001112485E0869F900194
:10482000879F300D1124692F70E0C9010E94122E5C
:10483000CBCF65E070E0CECF8FE7089581E008959B
:104840008091520380FF0CC060911A0170E0759551
:104850006795759567956115710549F1862F0895DE
:1048600081FF06C060911A0170E075956795F3CFDE
:1048700060911A0182FD0BC0909150039923A1F021
:104880006091190180911A01961738F0682F70E035
:104890006038710500F38FE70895899FC0011124E6
:1048A00070E00E94122EF4CF61E070E0D7CF81E07B
:1048B0000895803F31F40E94D6238195809356035A
:1048C0000895813F19F40E94D623F8CF823F31F436
:1048D0000E94D6238195809355030895833F19F450
:1048E0000E94D623F8CF893F29F40E942024809388
:1048F000570308958A3F21F40E9420248195F7CF21
:104900008B3F31F40E9420248195809358030895B1
:104910008C3F19F40E942024F8CF843F31F4809119
:1049200054038160809354030895853F21F480915E
:1049300054038260F7CF863F21F480915403846052
:10494000F1CF873F21F4809154038860EBCF883FFB
:1049500021F4809154038061E5CF8D3F31F4809143
:10496000520381608093520308958E3F21F4809119
:1049700052038260F7CF8F3FB9F780915203846072
:10498000F1CF90915503803F59F48091560387FFF2
:104990000DC01092560391110BC01092510308C024
:1049A000813F81F48091560318169CF3992381F07E
:1049B0008091570390915803892B09F064C010929D
:1049C00050030895823F49F497FFF0CF10925503AA
:1049D000809156038111ECCFE0CF833F19F4191673
:1049E000ACF3E4CF20915703893F29F41216F4F673
:1049F00010925703DBCF8A3F19F427FFD7CFF8CFA8
:104A0000209158038B3F29F427FFD0CF10925803F1
:104A1000CDCF8C3F19F41216CCF3C8CF843F31F4BC
:104A2000809154038E7F80935403C0CF853F21F43F
:104A3000809154038D7FF7CF863F21F480915403FA
:104A40008B7FF1CF873F21F480915403877FEBCF99
:104A5000883F21F4809154038F7EE5CF8D3F31F460
:104A6000809152038E7F80935203A0CF8E3F21F41A
:104A7000809152038D7FF7CF8F3F09F097CF8091C0
:104A800052038B7FF0CF08950E942F239C019091B9
:104A9000550380915603982B21F030934F032093B8
:104AA0004E039091570380915803982B21F0309337
:104AB0004D0320934C0383E593E00C946016EF9232
:104AC000FF920F931F93CF93DF9300D000D000D0BD
:104AD000CDB7DEB786E0E3E5F3E0DE0111960190A5
:104AE0000D928A95E1F7E0905503F09056030091FE
:104AF00057031091580310925503109256031092C9
:104B00005703109258038E2D8F2991F080914E03F8
:104B100090914F030E944723AC0190915103992338
:104B200009F43FC080911F018417150608F447C09F
:104B3000802F812B91F080914C0390914D030E9426
:104B40004723AC0190915003992309F477C08091D9
:104B50001B018417150608F47FC0809155039091BE
:104B60005603892B90915703892B90915803892BD9
:104B700011F00E94442586E0FE013196A3E5B3E0E2
:104B800001900D928A95E1F726960FB6F894DEBF54
:104B90000FBECDBFDF91CF911F910F91FF90EF908E
:104BA0000895209120018AE0289F90011124241764
:104BB000350708F0BDCF9F5F9093510302C09F3F20
:104BC000D1F7EE2059F00E94D6239FEF1E140CF46B
:104BD00091E0899F802D112480935503FF2059F087
:104BE0000E94D6239FEF1F140CF491E0899F802D23
:104BF00011248093560330915503332309F498CF41
:104C000020915603222309F493CF45EB3403C001CE
:104C10001124992359F09093550345EB24039001F7
:104C20001124332339F03093560382CF81E08093EF
:104C30005503F3CF81E0809356037ACF20911C0176
:104C40008AE0289F900111242417350708F085CFAA
:104C50009F5F9093500302C09F3FD1F7002359F00C
:104C60000E9420249FEF10160CF491E0899F802D64
:104C7000112480935703112359F00E9420249FEFA1
:104C800011160CF491E0899F802D11248093580314
:104C900030915703332309F460CF20915803222326
:104CA00009F45BCF45EB3403C0011124992359F07B
:104CB0009093570345EB240390011124332339F0DB
:104CC000309358034ACF81E080935703F3CF81E0BC
:104CD0008093580342CF86E0E3E5F3E0DF011D92C5
:104CE0008A95E9F7109251031092500310925203E3
:104CF0000895809179030895CF93DF9300D00F92A8
:104D0000CDB7DEB790911004943011F589837B8381
:104D10006A839093E9008FEF9091E800815095FDB0
:104D200006C095ED9A95F1F700008111F5CF8091BD
:104D3000E80085FF0DC050E040E063E070E0CE0188
:104D400001960E9404298091E8008E778093E80004
:104D50000F900F900F90DF91CF910895BC0184E0E8
:104D60000C947C26BC0183E00C947C269C0184E09E
:104D70008093E9009FEF8091E800915085FD06C087
:104D800085ED8A95F1F700009111F5CF8091E8004B
:104D900085FF0CC050E040E066E070E0C9010E9471
:104DA00004298091E8008E778093E8000895CF93DE
:104DB000DF93EC0180912B018823B1F180910A04EB
:104DC00087FF32C060E284E08093E9008FEF90912A
:104DD000E800815095FD06C095ED9A95F1F7000029
:104DE0008111F5CF8091E80085FF1BC080912B01D8
:104DF00070E050E040E0811104C050E040E068E025
:104E000070E0CE010E9404298091E8008E778093A3
:104E1000E80080E2FE01A9E5B3E001900D928A95D9
:104E2000E1F7DF91CF91089568E081E0CDCFCF9396
:104E3000FC01603221F580911004843001F5C091AD
:104E4000E900CF702091EC00922F917020FD90E846
:104E5000C92B82E08093E9008091E80080FF0CC0BC
:104E600050E040E060E270E0CF010E9404298091B0
:104E7000E8008E778093E800CF70C093E900CF916F
:104E8000089580910F04811109C00E94E32A0E94B5
:104E9000402B8091E20084608093E200089510929C
:104EA0000F040895089508950C94F72242E061ECF0
:104EB00081E00E945F2A42E261EC84E00E945F2A66
:104EC00042E261EC82E00E945F2A42E260EC83E011
:104ED0000C945F2A80911204833009F461C030F48D
:104EE0008130D1F1823009F49DC008958A3009F4EF
:104EF00089C08B3009F46FC0893009F050C08091AF
:104F00001104813209F04BC0809115049091160470
:104F1000009719F0029709F042C08091E800877F5E
:104F20008093E8008091E80082FF35C09091F30003
:104F30008091F200029729F48091F1008B7F8130FB
:104F400021F48091F100809379038091E8008B77C0
:104F50008093E8000C94932A80911104813AF9F42B
:104F60008091E800877F8093E800809115049091FC
:104F70001604892B61F460E289E593E070E00E94F9
:104F8000A2298091E8008B778093E800089560E083
:104F900090E080E0F3CF809110048111C3CF089599
:104FA00080911104813AD9F78091150490911604EB
:104FB000892BA9F78091E800877F8093E800809192
:104FC000E80080FFFCCF80912B018093F10080915D
:104FD000E8008E77BDCF80911104813201F7809176
:104FE000150490911604892BD1F68091E800877FF3
:104FF0008093E8000E94932A8091130480932B01F0
:105000000C94131B80911104813249F68091E800C1
:10501000877F8093E8000E94932A809114048093F4
:105020007A03089580911104813A09F0B8CF8091F4
:10503000E800877F8093E8008091E80080FFFCCF44
:1050400080917A03C2CFCDB7DEB7A0970FB6F894A0
:10505000DEBF0FBECDBF84B7877F84BF0FB6F89485
:10506000A895809160008861809360001092600034
:105070000FBE80E890E00FB6F894809361009093A3
:1050800061000FBE0E94A8160E94E32A0E94402BD6
:105090008091E20084608093E20078940E94C92DA0
:1050A0000E94B21681E291E00E94351613E08091D1
:1050B0001004853039F10E94BE16809110048430AE
:1050C000B1F71093E9008091E80082FFF0CF809162
:1050D000E80090E085FF09C050E040E060E270E049
:1050E000CE0101960E94532991E08091E8008B77D0
:1050F0008093E8009923D9F260E2CE0101960E94E4
:10510000A711D5CF0E94AE2280910E04882379F298
:105110000E94DF22882359F20E94EE28C8CF0C9407
:105120009128292F33272330310521F168F42130CC
:10513000310509F449C02230310509F44AC090E034
:1051400080E030E020E029C02132310581F12232B7
:105150003105A9F76330710590F7FB01EE0FFF1FD2
:10516000E353FE4F2081318166537E4FFB018081E6
:1051700090E013C099278130910599F0009741F094
:105180008230910589F00397D1F6E6E4F5E002C09C
:10519000E8E7F5E0849190E09F01FA0131832083F4
:1051A0000895ECE6F5E0F6CFECE4F5E0F3CF6330FC
:1051B000710528F6660F771FFB01ED52FE4F208127
:1051C000318189E090E0E9CF82E190E027ED35E0A0
:1051D000E4CF8BE590E02CE735E0DFCF80E189BDBF
:1051E00082E189BD09B400FEFDCF8091D8008F7D9A
:1051F0008093D8008091E00082608093E0008091ED
:10520000E00081FDFCCF0895AF92BF92CF92DF9274
:10521000FF920F931F93CF93DF936C01EB018A01F1
:105220000E94B22AF82E811123C00115110539F010
:10523000F80180819181C81BD90BC80ED91EB12CF1
:10524000A12C2097A9F08091E80085FD22C08091D3
:10525000E8008E778093E80001151105A1F0F801B0
:1052600080819181A80EB91EB182A08285E0F82EBE
:105270008F2DDF91CF911F910F91FF90DF90CF90F5
:10528000BF90AF9008950E94B22A8823D1F2F82EE1
:10529000EFCFF60181916F018093F1002197FFEF2D
:1052A000AF1ABF0ACECFAF92BF92CF92DF92FF92DA
:1052B0000F931F93CF93DF936C01EB018A010E9440
:1052C000B22AF82E811123C00115110539F0F80119
:1052D00080819181C81BD90BC80ED91EB12CA12C7D
:1052E0002097A9F08091E80085FD22C08091E80018
:1052F0008B778093E80001151105A1F0F8018081FA
:105300009181A80EB91EB182A08285E0F82E8F2D62
:10531000DF91CF911F910F91FF90DF90CF90BF90C1
:10532000AF9008950E94B22A8823D1F2F82EEFCFD1
:105330008091F100F60181936F012197FFEFAF1A81
:10534000BF0ACECFFC0180911704909118048617F4
:105350009707A0F06115710529F49091E8009E77F8
:105360009093E80090E06115710551F4911108C027
:105370008091E80082FF34C080E00895BC01F2CF44
:10538000809110048823C1F18530C1F18091E8003B
:1053900083FD30C08091E80082FDEACF8091E80073
:1053A00080FFE1CF8091F3002091F200382F61154A
:1053B000710519F02830310558F091E02830310599
:1053C00009F090E02091E8002E772093E800CBCF01
:1053D00081918093F100615071092F5F3F4FE7CFBA
:1053E00080911004882341F0853041F08091E800DD
:1053F00083FFBECF81E0089582E0089583E00895A1
:10540000FC01809117049091180486179707A0F06B
:105410006115710529F48091E8008E778093E8008A
:1054200090E06115710551F4911108C08091E80078
:1054300082FF35C080E00895BC01F2CF8091100456
:105440008823C9F18530C9F18091E80083FD31C01E
:105450008091E80082FDEACF8091E80080FFE1CFF3
:105460008091F3002091F200382F6115710519F039
:105470002830310558F091E02830310509F090E0EE
:105480008091E8008E778093E800CBCF8491809361
:10549000F1003196615071092F5F3F4FE6CF809147
:1054A0001004882341F0853041F08091E80083FFAB
:1054B000BDCF81E0089582E0089583E00895982F9C
:1054C000973028F08F708093E90081E008959093E1
:1054D000E900242F762F50E0981731F07091EC00FE
:1054E0002091ED005091F00021FD02C09F5FE8CFB8
:1054F0003091EB003E7F3093EB003091ED003D7F2B
:105500003093ED003091EB0031603093EB007093FD
:10551000EC002093ED005093F0002091EE0027FD69
:10552000E5CF80E008958091110487FF13C080913A
:10553000E80082FF06C08091E8008B778093E80046
:1055400004C0809110048111F2CF0895809110045D
:105550008823D9F38091E80080FFF8CF8091E8009C
:105560008E77ECCF2091E4003091E50095E6A9011B
:105570002091EC00822F817020FF06C08091E8000E
:1055800080FF06C080E008952091E80022FD1AC047
:1055900080911004882389F0853089F08091EB0098
:1055A00085FD0FC02091E4003091E50042175307BC
:1055B000F9F29150E1F684E0089582E0089583E0E5
:1055C000089581E008950E94512B0E94592BE0EE2E
:1055D000F0E0808181608083E8EDF0E080818F776A
:1055E000808319BCA7EDB0E08C918E7F8C93808175
:1055F0008F7E808310920F0408950F931F93CF9393
:10560000DF930E94512B0E94592BC8EDD0E0888176
:105610008F77888388818068888388818F7D88835D
:1056200019BC1092100410920C0410920E041092E7
:105630000D0400EE10E0F80180818B7F808388816B
:105640008160888342E060E080E00E945F2AE1EEB2
:10565000F0E080818E7F8083E2EEF0E080818160E7
:105660008083808188608083F80180818E7F808341
:10567000888180618883DF91CF911F910F91089578
:10568000E8EDF0E080818F7E8083E7EDF0E08081BF
:105690008160808384E082BF81E080930F040C945A
:1056A000FD2AE8EDF0E080818E7F80831092E20099
:1056B00008951092DA001092E10008951F920F925F
:1056C0000FB60F9211242F933F934F935F936F93D5
:1056D0007F938F939F93AF93BF93EF93FF938091AB
:1056E000E10082FF0BC08091E20082FF07C0809141
:1056F000E1008B7F8093E1000E94C82D8091DA0049
:1057000080FF19C08091D80080FF15C08091DA0019
:105710008E7F8093DA008091D90080FF96C080E16F
:1057200089BD82E189BD09B400FEFDCF81E080938F
:1057300010040E9441278091E10080FF19C08091F0
:10574000E20080FF15C08091E2008E7F8093E2002E
:105750008091E20080618093E2008091D8008062B5
:105760008093D80019BC85E0809310040E945327D1
:105770008091E10084FF2BC08091E20084FF27C06C
:1057800080E189BD82E189BD89B5982F917080FF44
:10579000FBCF8091D8008F7D8093D8008091E1006D
:1057A0008F7E8093E1008091E2008F7E8093E20003
:1057B0008091E20081608093E20080910C04882354
:1057C00009F449C084E0809310040E94542780911A
:1057D000E10083FF29C08091E20083FF25C0809112
:1057E000E100877F8093E10082E0809310041092B3
:1057F0000C048091E1008E7F8093E1008091E200B3
:105800008E7F8093E2008091E20080618093E200CD
:1058100042E060E080E00E945F2A8091F0008860B2
:105820008093F0000E945227FF91EF91BF91AF91BA
:105830009F918F917F916F915F914F913F912F91A8
:105840000F900FBE0F901F90189519BC1092100466
:105850000E944F2770CF8091E30087FD93E09093E3
:105860001004B3CF1F920F920FB60F9211242F93F3
:105870003F934F935F936F937F938F939F93AF93D8
:10588000BF93CF93DF93EF93FF93D091E900DF7045
:105890008091EC00C82FC17080FDC0E81092E90033
:1058A0008091F000877F8093F00078940E94762C9E
:1058B0001092E9008091F00088608093F000CD2B79
:1058C000CF70C093E900FF91EF91DF91CF91BF912D
:1058D000AF919F918F917F916F915F914F913F9188
:1058E0002F910F900FBE0F901F9018951F93CF937D
:1058F000DF93CDB7DEB7AA970FB6F894DEBF0FBE21
:10590000CDBF81E194E02091F100FC012193CF0112
:10591000F4E089319F07B9F70E946A278091E80077
:1059200083FF1EC180911104909112049A3008F0F7
:1059300017C1E92FF0E0E356F04D0C94482E803863
:1059400099F0823809F00CC1809115048F7087306E
:1059500008F006C18093E9008091EB0085FB882761
:1059600080F91092E90006C080910D0490910E0418
:10597000911182609091E800977F9093E800809366
:10598000F1001092F1008091E8008E77E5C0882345
:1059900009F4D3C0823009F0E3C08091130481116F
:1059A000D6C0809115048F702FEF280F263008F095
:1059B000D7C08093E9002091EB0020FFC8C093304E
:1059C00031F48091EB0080628093EB00C0C0909135
:1059D000EB0090619093EB0021E030E001C0220FDA
:1059E0008A95EAF72093EA001092EA008091EB0092
:1059F0008860EACF8111B4C0109113041F778091A1
:105A0000E3008078812B8093E3008091E800877F1A
:105A10008093E8000E94932A8091E80080FFFCCFE9
:105A20008091E30080688093E30082E0111183E0BD
:105A30008093100495C08058823008F091C0809106
:105A40001304909114048C3D23E09207A1F583E0A8
:105A50008A838AE289834FB7F894DE01139620E0A7
:105A60003EE051E2E32FF0E050935700E49120FF35
:105A700003C0E295EF703F5FEF708E2F90E0EA3049
:105A8000C0F0C7968D939D932F5F243159F74FBF78
:105A90008091E800877F8093E8006AE270E0CE01A1
:105AA00001960E94A2298091E8008B778093E800FC
:105AB00057C0C096E7CF6091150470911604AE01EF
:105AC0004F5F5F4F0E948F28BC01892B09F448C0AB
:105AD0009091E800977F9093E80089819A810E94D5
