:100000000C9497030C94DE030C94DE030C94DE0333
:100010000C94DE030C94DE030C94DE030C94DE03DC
:100020000C94DE030C94DE030C94DE030C949B2AE8
:100030000C944C2B0C9470220C94DE030C94DE0375
:100040000C94DE030C94DE030C94DE030C94C722A4
:100050000C94DE030C94DE030C94DE030C94DE039C
:100060000C94DE030C94DE030C94DE030C94DE038C
:100070000C94DE032E001E00210022003500230018
:100080002600270000001F0020002F003000240061
:1000900025002D002B0014001500170061001C0026
:1000A0001200130000001A0008005F006000180032
:1000B0000C002A002961040009000A005E000B0000
:1000C0000F0033000000160007005C005D000D000B
:1000D0000E003400E1001D00190005005B00110056
:1000E0003700380000001B00060059005A001000BD
:1000F000360028004600E300E2002C0062002C00DD
:10010000E600E70000000000000000000000000022
:100110000000390035003A003D003E004100420039
:100120004500680000003B003C003F0040004300E9
:1001300044004C0001000100010001000100010029
:1001400046000100000065000100010001000100FF
:100150000100010001000100010001000100010097
:100160000100005C0000010001000100010001002D
:100170000100010001000100010001000100A800D0
:100180003100010000000100010001000100AA008F
:10019000A9000100005C005C0100010001000100F9
:1001A000010001000000000000000000000000004D
:1001B0000000010001000100C65CC75C01000100F5
:1001C000010001000000C25CC55CC85C01000100C8
:1001D0000100460035001E0021002200010023001E
:1001E0002600270000001F0020000100010024005D
:1001F0002500010035021E02210222020100230215
:100200002602270200001F02200201000100240232
:1002100025022A0001000100010001000100A800E0
:100220003100010000000100010001000100AA00EE
:10023000A9000100005C005C010001000100010058
:1002400001000100000000000000000000000000AC
:100250000000010001000100C65CC75C0100010054
:10026000010001000000C25CC55CC85C0100010027
:100270000100460035001E0021002200010023007D
:100280002600270000001F002000010001002400BC
:100290002500010035021E02210222020100230274
:1002A0002602270200001F02200201000100240292
:1002B00025022A0001000100010001000100A80040
:1002C0003100010000000100010001000100AA004E
:1002D000A9000100005C005C0100010001000100B8
:1002E000010001000000000000000000000000000C
:1002F0000000010000000000000000002A2B280080
:1003000000000000000000000000000000000029C4
:10031000000000002C1E3420212224342627252E04
:10032000362D3738271E1F2021222324252633333C
:10033000362E37381F0405060708090A0B0C0D0E68
:100340000F101112131415161718191A1B1C1D2F34
:100350003130232D350405060708090A0B0C0D0E54
:100360000F101112131415161718191A1B1C1D2F14
:100370003130354C0000000000000000000000009B
:1003800000000000000000007E0F00D4FFFFFFC748
:100390000000007832190A00047F3F1F64321464A1
:1003A0003214783C1E1E140A052223252628292AE9
:1003B0002C2D2F3032333536383A3B3D3E404243C8
:1003C0004547494A4C4E5051535557595A5C5E6007
:1003D00062646668696B6D6F71737577797B7D7F19
:1003E00081838587898A8C8E90929496989A9C9E18
:1003F0009FA1A3A5A7A8AAACAEAFB1B3B4B6B8B934
:10040000BBBCBEBFC1C2C3C5C6C7C9CACBCCCDCE9B
:10041000D0D1D2D2D3D4D5D6D7D7D8D9D9DADADB7E
:10042000DBDBDCDCDCDCDCDDDDDDDDDCDCDCDCDC0A
:10043000DBDBDBDADAD9D9D8D7D7D6D5D4D3D2D249
:10044000D1D0CECDCCCBCAC9C7C6C5C3C2C1BFBE31
:10045000BCBBB9B8B6B4B3B1AFAEACAAA8A7A5A39C
:10046000A19F9E9C9A98969492908E8C8A8987855B
:1004700083817F7D7B79777573716F6D6B6968663A
:100480006462605E5C5A5957555351504E4C4A490C
:1004900047454342403E3D3B3A3836353332302FB4
:1004A0002D2C2A292826252322FFAA7F554000012A
:1004B0000101010101010101020202020202020224
:1004C00002030303030303030304040404040404F6
:1004D00005050505050606060606070707070708BA
:1004E000080808090909090A0A0A0B0B0B0C0C0C6D
:1004F0000D0D0D0E0E0E0F0F0F1010111111121207
:1005000013131414151516161717181819191A1A83
:100510001B1B1C1D1D1E1E1F2020212222232424E4
:10052000252626272829292A2B2C2D2D2E2F303120
:100530003232333435363738393A3B3C3D3E3F4032
:100540004142434445464748494A4C4D4E4F50511D
:100550005354555658595A5B5D5E5F6162646566D7
:1005600068696B6C6D6F7072737577787A7B7D7E5E
:100570008082838587888A8C8E8F91939596989AAE
:100580009C9EA0A2A3A5A7A9ABADAFB1B3B5B7BAC6
:10059000BCBEC0C2C4C6C9CBCDCFD1D4D6D8DBDD9A
:1005A000DFE2E4E7E9EBEEF0F3F5F8FAFDFF040330
:1005B00030000000180350006C00650078007500E2
:1005C0007300370035005F004800450000000A0353
:1005D0004E0061007300700000000403090409026A
:1005E0005B00030100A0FA090400000103010100FF
:1005F0000921110100012240000705810308000ABA
:100600000904010002030000000921110100012278
:1006100022000705820320000107050303200001D3
:100620000904020001030000000921110100012258
:1006300081000705840320000A1201100100000058
:1006400008707040530100010203010660FF096158
:10065000A1010962150026FF009520750881020995
:1006600063150026FF00952075089102C005010959
:1006700002A10185020901A1000509190129051539
:10068000002501950575018102950175038101051C
:1006900001093009311581257F9502750881060908
:1006A000381581257F950175088106050C0A3802E9
:1006B0001581257F950175088106C0C00501098057
:1006C000A101850319012AB700150126B70095017C
:1006D00075108100C0050C0901A101850419012ACA
:1006E000A002150126A002950175108100C0050128
:1006F0000906A101050719E029E71500250195085C
:10070000750181029501750881010507190029FF0E
:10071000150026FF009506750881000508190129B6
:1007200005950575019102950175039101C011248C
:100730001FBECFEFD4E0DEBFCDBF04B603FE27C09F
:100740008091330390913403A0913503B091360327
:100750008730904BA740B04BD1F4109233031092E6
:100760003403109235031092360314BE84B7877F8A
:1007700084BF0FB6F894A89580916000886180933B
:100780006000109260000FBEE0E0F8E3099511E010
:10079000A0E0B1E0EAE8FDE502C005900D92AA3DB7
:1007A000B107D9F723E0AAEDB1E001C01D92A33350
:1007B000B207E1F70E947C270C94742E0C94000081
:1007C00081E0089581E008950C94E20308950C946B
:1007D000E6031F93CF93DF9300D000D00F92CDB7E5
:1007E000DEB749835A836B833091440289819A81B1
:1007F00031111DC06623B9F02223A9F00E94DB1F2E
:10080000182F682F89819A810E947C1F69817A81C3
:10081000812F0F900F900F900F900F90DF91CF913D
:100820001F910C9433130E94B11F182FEFCF0E9419
:10083000DB1F69817A81EDCFFC01262F4081518138
:100840006281738184810C94E903CF93DF93EC017F
:1008500060E00E941C04BE01DF91CF910C94E7037D
:10086000FF920F931F93CF93DF93E82FF0E0EC50AC
:10087000FD4FF490C82FC695C695C695D0E0FE01F1
:10088000EC57FC4F0491877010E0082E02C01595BC
:1008900007950A94E2F701701127CC58DC4FFE014E
:1008A000C491D0E002C0D595C7958A95E2F7C17092
:1008B000DD270115110519F081EE0E9462172097BE
:1008C00019F086EE0E9462178F2D0E944A18CD2BD8
:1008D00019F086EE0E94F417012B41F081EEDF91B2
:1008E000CF911F910F91FF900C94F417DF91CF914E
:1008F0001F910F91FF900895EF92FF921F93CF9356
:10090000DF93EC01162F8881882309F451C08130D0
:1009100009F04BC08981813099F47E0122E0E20E1A
:10092000F11C8A810E944A18E7012196812F81508B
:1009300050F3EFE9FFE03197F1F700C00000F7CF87
:10094000823041F47E0182E0E80EF11C8A810E942F
:100950006217EACF833041F47E01E2E0EE0EF11C33
:100960008A810E94F417E0CF843011F02196DDCF08
:100970002A81229690E080E0FE0131962053330BCD
:100980002A30310548F0019780F2EFE9FFE0319716
:10099000F1F700C00000F7CF6AE070E00E94072D79
:1009A000820F931F2981EF01E7CF0E943004BDCF52
:1009B000DF91CF911F91FF90EF90089560E00C942C
:1009C0007C048F929F92AF92BF92CF92DF92EF9270
:1009D000FF920F931F936B017C0181E090E0A0E0F8
:1009E000B0E04C015D0104C0880C991CAA1CBB1C22
:1009F0004A95D2F7B501A4014C015D0104C0880CF1
:100A0000991CAA1CBB1C2A95D2F7482959296A2986
:100A10007B2904C0880F991FAA1FBB1F0A95D2F714
:100A20008A019B010C211D212E213F21041715074E
:100A30002607370789F48C299D29AE29BF29BC01D7
:100A4000CD011F910F91FF90EF90DF90CF90BF905D
:100A5000AF909F908F90089580959095A095B095B8
:100A60008C219D21AE21BF21EACF0F93382F262F55
:100A70006091AF027091B0028091B1029091B20288
:100A8000042F432F0E94E1040F910C94BA1E0E9480
:100A900011230E942521811102C00E94C2210C94C1
:100AA000BD070C94C00708950E94D91A0E945305EF
:100AB0002FEF84E39CE0215080409040E1F700C09C
:100AC00000000C94EB220F931F93CF93DF93EC0164
:100AD00061E00E941C048C01BE010E940311882366
:100AE00089F1BE01C8010E94E403882359F1BE01C7
:100AF000C8010E948914882329F1BE01C8010E94FF
:100B0000DB148823F9F0BE01C8010E94FE1588237A
:100B1000C9F0BE01C8010E940E10882399F08A8195
:100B2000882339F001158CE5180751F00E3D1C455E
:100B300079F0CE01DF91CF911F910F910C94E003DA
:100B40000E94540580E0DF91CF911F910F9108958D
:100B50000E94C221F7CF08950C94AB0581E008955F
:100B60000C94AE05CF93C82F0E94AC058C2FCF916B
:100B70000C94B00590E080E008950895FC01EE0F1C
:100B8000FF1FEC56FC4F859194910895CF93DF930E
:100B90000E9433130E94E206EC01811520E59207C2
:100BA00008F042C0811530E4930708F0BFC0883ECA
:100BB000910528F5803E910508F0A0C0883A91057E
:100BC00088F4853A910508F092C08130910509F4C6
:100BD00095C0009709F492C0049708F08FC0D0E048
:100BE000C0E08CC08F3B910508F48CC0805C9109FB
:100BF000C03CD105A0F30E94BE05EC017FC0811569
:100C000040E2940750F4C11581E0D80708F076C09F
:100C1000C03FD10520F3D06571C0811520E3920754
:100C200008F07BC09F70E7CF811535E5930770F51D
:100C3000811544E5940708F0ADC0C11582E5D807D9
:100C400050F4C11521E5D20708F473C0DC2FCC277E
:100C5000C16FD06A53C09C2F969596959E012370C4
:100C60003327C115D34508F083C0C1E0D0E002C0EE
:100C7000CC0FDD1F2A95E2F7892F90E0E5E0880F81
:100C8000991FEA95E1F7C82BD92B70C0C11589E5EA
:100C9000D807A8F4C11528E5D20708F080C0C1150F
:100CA00036E5D30708F09BCF8C2F0E947907C82F19
:100CB000D0E0DC2FCC27CC27DF71D0621FC0C1155C
:100CC0004AE5D40708F470C0CE01905681159042D1
:100CD00008F085CF8D2F8F710E94790790E0982FB3
:100CE000882788279F719C012C2BE901E6CFC55AE4
:100CF000D0E0C65ADE4FC881D0E0D064CE01DF918B
:100D0000CF910895C85AD0E0CC0FDD1FC45DDE4FEF
:100D10000990D881C02DD464F1CF9927D3FF03C0A7
:100D2000EC01D86CEBCFEC01D06CE8CFDF70D06A6F
:100D3000E5CFCE01A4E096958795AA95E1F783705B
:100D40002C2F26952695237030E0B5E0220F331F17
:100D5000BA95E1F7382B8C2F8370C1E0D0E002C048
:100D6000CC0FDD1F8A95E2F7C22BD32BDC68C6CFF0
:100D7000C1E0D0E002C0CC0FDD1F2A95E2F7892F39
:100D800090E075E0880F991F7A95E1F7C82BD92B71
:100D9000DA68B4CFD82FCC27C46FD06AAFCFDC2F9E
:100DA000CC27C06FD06AAACF8C2F8F700E94790792
:100DB00034E0D695C7953A95E1F7CF709C2FEC01BA
:100DC000D0699CCF82389105B1F1B0F4813391059F
:100DD00009F475C048F48932910509F469C08A3272
:100DE000910509F473C008958533910509F459C03C
:100DF0008933910501F10895833E9105A9F138F4F5
:100E0000803E9105F9F0823E910549F10895863EB4
:100E10009105A9F1873E9105C9F1843E910519F527
:100E20002091250321FF1FC08091240384FD14C05D
:100E300087EE90E00895209124032370A1F080EEC6
:100E400090E008952091240320FD47C030912503B0
:100E500030FF09C024FF44C090E080E004C020912E
:100E6000240322FDF7CF08952091240322FD3BC0E7
:100E70003091250330FDE3CF24FFF5CFEDCF209156
:100E8000240323FFF0CF24FDE7CFD2CF209124030A
:100E900023FD2CC03091250331FFEECF84EE90E08E
:100EA00008952091240325FFDECF89E290E0089584
:100EB0002091240325FFD7CF85E390E0089520916A
:100EC000240326FFD0CF8AE290E0089520912403E6
:100ED00026FFC9CF81E390E0089589E390E008956B
:100EE00083EE90E0089582EE90E0089586EE90E023
:100EF00008959091240392FF06C0282F287128306E
:100F0000F9F4877F846093FF06C0282F2871283169
:100F1000F1F4877E84612091250320FF06C0382FDD
:100F200038713830D9F4877F816021FF06C0282FBF
:100F300028712831D1F4877E816194FD877E0895E0
:100F4000282F24712430F9F68B7F8860DCCF282F7E
:100F50002471243101F78B7E8861DDCF382F317108
:100F6000313019F78E7F8860E0CF282F2171213131
:100F700021F78E7E8861E1CF08950C94BC07089517
:100F80000C94BF07E82FF0E0E951FD4F80810895F0
:100F9000089580EA8A95F1F70895A5E6B1E061E049
:100FA00070E08D91E82FE295EF70F0E041A18F7035
:100FB0009B0101C0220F8A95EAF7922F9095942306
:100FC00091A382A1822B82A381E0AF36B80749F7B3
:100FD000ADE5B1E061E070E08D91E82FE295EF7052
:100FE000F0E041A18F709B0101C0220F8A95EAF7C2
:100FF000922F9095942391A382A1822B82A381E0CA
:10100000A536B80749F7EDEDF2E0A7EEB2E087EEBE
:1010100092E011921D928E179F07D9F78AE00E94E5
:1010200093080C9447058F929F92AF92BF92CF92F4
:10103000DF92EF92FF920F931F93CF93DF9385E69A
:10104000A82E81E0B82E0DED12E0912CCC24C39493
:10105000D12CF50181915F01C82FC295CF70D0E0EE
:1010600099A18F70760101C0EE0C8A95EAF7892F5D
:101070008E2989A38AA18E2C809488218AA30E941C
:10108000C907EDE5F1E050E040E020E03191A32F09
:10109000A295AF70B0E090968C9190E03F7002C046
:1010A000959587953A95E2F780FD39C08C2D042EF1
:1010B00001C0880F0A94EAF7282B4F5F5F4F483032
:1010C000510521F789A1882289A28AA1E82AEAA2EA
:1010D000F8018081281729F1208381E0982A0F5F89
:1010E0001F4FFFE6AF16F1E0BF0609F0B2CF292D82
:1010F0004AE067EE72E08DED92E00E9494080E9453
:101100005105892DDF91CF911F910F91FF90EF90A5
:10111000DF90CF90BF90AF909F908F90089580E028
:10112000CBCF80E0DBCF0895FF920F931F93CF9337
:10113000DF93F82E092F162FD72FC42F222349F023
:1011400081E08093DC010E94A0229093DB018093D8
:10115000DA018091DC018823A1F08091DA0190917D
:10116000DB010E94B822069760F0EF2DF02FA12F2F
:10117000BD2FCE0FDF2FD11DEC17FD0741F41092CC
:10118000DC01DF91CF911F910F91FF900895819124
:101190008D93F2CFEF92FF920F931F93CF93DF9334
:1011A000982F711111C0442329F0E82FF0E0E25587
:1011B000FB4F9491692F792F892FDF91CF911F9148
:1011C0000F91FF90EF900895262F30E0C72FD0E0C9
:1011D000E82FF0E0442321F0E255FB4FE491F0E0EA
:1011E000C90166E070E00E94072D0FEF10E0B80122
:1011F0000E944B2DDB01220F331FCB0165E570E010
:101200000E94072D281B390BE22EEE0CE20EC801BE
:101210008C1B9D0BBF010E94072D292FF12CC701AC
:10122000BE010E94072D492F50E0C801841B950B79
:10123000BF010E94072D392FC8018E199F09BE01D9
:101240000E94072D492F50E0C801841B950BBF0158
:101250000E94072D892F7E2FA230B10589F038F426
:10126000109759F0119781F0922F232F06C0A430C8
:10127000B10569F080F01697B9F7692F822F9DCFDD
:101280009E2F722F282FF9CF9E2F732FF6CF922FDC
:101290002E2F782FF2CF722F2E2F932FEECF41E0EB
:1012A0000C94CA080895CF93DF93762FE901682F35
:1012B000842F0E944F09798368838A83DF91CF91BD
:1012C00008958091F102982F9E7F29F481708260A9
:1012D0008093F10208958635E8F381708465F8CF34
:1012E00088E090E00C94152ECF92DF92EF92FF925F
:1012F0006B017C010E946109B701A60188E090E0C2
:10130000FF90EF90DF90CF900C94332E6091F1021C
:101310007091F2028091F3029091F4020C9474099E
:10132000E1EFF2E083E0808311828FEF8283838399
:10133000148260817181828193810C9474098091FF
:10134000F10280FF02C08695089580E00895909193
:10135000F502933018F49F5F9093F502882351F0C3
:101360006091F1027091F2028091F3029091F40287
:101370000C947409089581E00C94A7099091F502EA
:10138000992319F091509093F502882351F06091C0
:10139000F1027091F2028091F3029091F4020C94A8
:1013A0007409089581E00C94BE098091F5020895B6
:1013B0008093F502662351F06091F1027091F20280
:1013C0008091F3029091F4020C947409089560E006
:1013D0000C94D8098091F20208958091F302089547
:1013E0008091F402089570E00C947E103091080111
:1013F0008091F10280FF0CC08091070190E063E0D2
:1014000070E00E94072D632F8A509D4F0C94F309C2
:101410002091090140910A01822F90E063E070E081
:101420000E94072DFC01EA50FD4F241728F7118276
:10143000108212822F5F3396F8CFA82FB62F80919B
:10144000F10280FF17C02091090130910A01822F1B
:1014500090E063E070E00E94072DFC01EA50FD4F30
:10146000231710F00C94F609A183B08342832F5FF9
:101470003396F6CF0895CF93DF9300D00F92CDB778
:10148000DEB79091F10290FF0AC09E012F5F3F4F9F
:101490000E9453094B8169818A810E941D0A0F9025
:1014A0000F900F90DF91CF910895CF93DF93EC01D0
:1014B000EC81F0E0E755FC4F4491E1EFF2E062810E
:1014C00081810E943B0A8C818F5F8C83DF91CF9159
:1014D0000895CF93DF93EC01E1EFF2E04381628165
:1014E0008C810E943B0A8C818F5F8C83DF91CF912E
:1014F00008950F931F93CF93DF9300D00F92CDB732
:10150000DEB78C018091DD0181110AC09E012F5F41
:101510003F4F4FEF6FEF0E9453098A818093DD01A7
:10152000F8016481613069F08091DD0140E066235B
:1015300061F040E0623011F44091DD0180E060E054
:1015400004C06091DD0140E080E00E941D0AF801C6
:10155000848190E0019663E070E00E945F2D8483B7
:101560000F900F900F90DF91CF911F910F910895E1
:10157000AF92BF92CF92DF92EF92FF920F931F93A1
:10158000CF93DF9300D00F92CDB7DEB7182FF62E92
:10159000042FE22E9091F10290FF29C0E92FE695E9
:1015A000AE2FB0E0A159BE4F8C9180932D029E7F4B
:1015B000923059F59E012F5F3F4F812F0E945309B2
:1015C0004B8169818A810E941D0A1093F202F09278
:1015D000F3020093F402EE2051F06091F102709159
:1015E000F2028091F3029091F4020E9474090F902C
:1015F0000F900F90DF91CF911F910F91FF90EF907F
:10160000DF90CF90BF90AF900895823019F4009191
:10161000F402DBCF863019F41091F202D6CF893074
:10162000D9F3893191F6E9518E2F8170D82EE69544
:10163000F0E0E755FB4FA590B490C12CBB2440913E
:101640000B01C41618F00E94F609BFCF2C2D30E014
:10165000C501B9010E94072D642F70E00E944B2D37
:10166000E12FD11014C0E60F80910901820F932F52
:10167000911D63E070E00E94072D9C012A503D4FB0
:10168000402F6F2D8E2F0E945309C394D8CFE61B95
:10169000EBCFE1EFF2E09181282F438162818CE072
:1016A000890F0C94B80A81E00C94490BE1EFF2E049
:1016B0009181282F4381628184EF890F0C94B80AAD
:1016C00081E00C94560BE1EFF2E062812CE0620FB6
:1016D00008F46FEF282F438181810C94B80A81E0D0
:1016E0000C94630BE1EFF2E062812CE0621B08F4E2
:1016F00060E0282F438181810C94B80A81E00C942A
:10170000720BE1EFF2E043812CE0420F08F44FEF5F
:10171000282F628181810C94B80A81E00C94810B9E
:10172000E1EFF2E043812CE0421B08F440E0282F77
:10173000628181810C94B80A81E00C94900B20E0C6
:101740000C94B80AEF92FF921F93CF93DF93EC01B2
:1017500010E0EE24EA94F12C30910B01131770F095
:101760000E94F6099A818C8190FF27C08F5F8C833D
:10177000DF91CF911F91FF90EF9008958091090123
:10178000810F9927991F63E070E00E94072DFC01EB
:10179000EA50FD4F632F70E0C7010E945F2D812F3B
:1017A0000E94FE2C9C819F014091F4026091F30203
:1017B000890F0E9453091F5FCFCF8150D8CFAF92BE
:1017C000BF92CF92DF92EF92FF920F931F93CF932E
:1017D000DF93FC018281DFEF80FFD1E0C0E03EE0DB
:1017E000A32E80910B01C817C8F00E94F6098091C2
:1017F000DF01D13009F054C0811102C080910B018A
:1018000081508093DF01DF91CF911F910F91FF9065
:10181000EF90DF90CF90BF90AF9008958091090135
:10182000CC2ED12C8C0D9D2D911D63E070E00E947B
:10183000072D8A509D4F7C01FC011182108212827B
:1018400004E010E0B12C8091DF018B0D8F3014F19A
:101850006A2D0E943D2D892F082E000C990BC81669
:10186000D90691F48091F40290E0B8010E94072D0E
:1018700095958795959587959701482F6091F302E7
:101880008091F2020E945309BD0E01501109D9F650
:10189000CF5FA7CF87FFE0CF90910B01890FDCCFFF
:1018A00090E0019660910B0170E00E945F2DA9CF3E
:1018B000CF932091090130910A01822F90E063E0DB
:1018C00070E00E94072DFC01EA50FD4F231720F124
:1018D000C0E060910B01C61728F10E94F609209123
:1018E00005018091DE01820F8093DE019091060157
:1018F000920F90930601191654F4082E000C990BC0
:1019000040910B014150550B841795071CF0219510
:1019100020930501CF9108951182108212822F5FCA
:101920003396D4CFEC2FF0E070E0CF010E945F2D12
:1019300090910901890F90E02091DE01022E000CA8
:10194000330B63E070E00E94072DE217F307ACF061
:1019500020910601022E000C330B2E173F076CF06E
:101960009C012A503D4F4091F4026091F302809116
:10197000F2020E945309CF5FACCFFC01EA50FD4F49
:10198000118210821282F7CF4F925F926F927F92F4
:101990008F929F92AF92BF92CF92DF92EF92FF927F
:1019A0000F931F93CF93DF938C01FC01C481CC2E46
:1019B000D12CF12CE12CA7019601C701B6010E94A0
:1019C000182DA70196010E94182D2B013C0130E231
:1019D000C32ED12CCC1AD1080D2C000CEE08FF0818
:1019E00025E530E040E050E00E94182D4B015C01FD
:1019F000A7019601C701B6010E94182DA701960103
:101A00000E94182D9B01AC01240D351D461D571D4C
:101A1000C501B4010E94732DD22F822F90E02A328B
:101A2000A0F563E070E00E94072D97FD0196959563
:101A30008795C82FC095F12C85E5E82EED1A809189
:101A40000B01F81648F10E94F609F801948181E033
:101A5000992319F0903219F48FEF8093040180914B
:101A60000401890FF8018483DF91CF911F910F91B9
:101A7000FF90EF90DF90CF90BF90AF909F908F90AE
:101A80007F906F905F904F90089525E530E0A90119
:101A9000481B590BCA01C5CFEE2DF1FCED2F8091EB
:101AA00009018F0D9927991F63E070E00E94072DAF
:101AB0009C012A503D4F4C2F6091F3028E2F0E94C3
:101AC0005309F394BCCF0F931F93CF93DF938C01F3
:101AD000D0E0C0E030910B013C171D0609F074F412
:101AE0000E94F609F801848190E00196817099279F
:101AF0008483DF91CF911F910F9108958091090107
:101B00008C0F9D2F911D63E070E00E94072DAC01AA
:101B10004A505D4FF80194816091F3028091F20286
:101B200036953C171D0651F04CF0992349F09A0167
:101B30004091F4020E9453092196CCCF9923B9F326
:101B40009A0140E0F7CF9F92AF92BF92CF92DF927F
:101B5000EF92FF920F931F93CF93DF93FC01C2800C
:101B6000A48081E08483D12C8BE4B82E99249394B3
:101B70000FEF10E09BE4E92EF12C80910B01D816B9
:101B800068F0DF91CF911F910F91FF90EF90DF9060
:101B9000CF90BF90AF909F900C94F609CD2DD0E0E0
:101BA000CE0165E070E00E94072DFC01E052FE4F7F
:101BB000A1101DC013821282809109018C0F9D2FEC
:101BC000911D63E070E00E94072D9C012A503D4F5B
:101BD000CE0165E070E00E94072DFC01E052FE4F4F
:101BE0004281618180810E945309D394C6CF2381B1
:101BF0002223A1F12150238344813B2D321B41112B
:101C000001C0322FCE0165E070E00E94072DFC017B
:101C1000E052FE4F8091F402632F70E090E00E944A
:101C2000072DB7010E944B2D6283211104C044236C
:101C300011F01482B38222E02C1508F4BDCFCE013E
:101C400065E070E00E94072DFC01E052FE4F80919C
:101C5000F20280838091F3028183AECF0E94F02D47
:101C6000823091400CF0A8CFF2E02091F202FC15F6
:101C700030F40E94F02DB8010E945F2D282FCE0174
:101C800065E070E00E94072D80529E4FFC0120838A
:101C9000F2E02091F302FC1550F40E94F02D209107
:101CA000F3022695622F70E00E945F2D280FCE016F
:101CB00065E070E00E94072DFC01E052FE4F218399
:101CC0001282B382948278CFE1EFF2E080818E7F3E
:101CD000808360817181828193810E947409109256
:101CE0002E022FEF80E792E0215080409040E1F7F4
:101CF00000C000000C94F609E1EFF2E080818E7FD5
:101D0000808310922E022FEF80E792E021508040D6
:101D10009040E1F700C000000C94F6096091F102D8
:101D2000669570E04BE050E08CE091E00E94002E60
:101D3000892B19F481E080932E020E94A0229093B7
:101D400027028093260208959091F10290FF35C0FA
:101D50009170811128C092609093F102662351F036
:101D60006091F1027091F2028091F3029091F4027D
:101D70000E9474096091F102669570E04BE050E0BA
:101D80008CE091E00E94002E892BA1F010922E028F
:101D900081E0809329024091F4026091F3028091E6
:101DA000F2020C949F0B8B3210F09465D5CF880F04
:101DB000982BD2CF0E948E0EEBCF0895682F909172
:101DC000F102969581E0890F8B3208F081E00C9446
:101DD000A40E81E00C94DE0E682F9091F10296958E
:101DE0008FEF890F09F48AE20C94A40E81E00C9421
:101DF000EC0E61E00C94A40EE1EFF2E080818160D2
:101E0000808386950C94F90E8091F10280FD0C94EC
:101E1000640E0C94FC0E60E00C94A40E80912C02D5
:101E200081112EC00E942521811104C00E94C2216F
:101E30000E9490090E9470096093F1027093F2026F
:101E40008093F3029093F4026E7F61F40E949009F4
:101E50000E9470096093F1027093F2028093F30282
:101E60009093F4020E94610910922E028091F10277
:101E700080FF03C086950E940B0F81E080932C02A7
:101E80000895E1EFF2E080818160808386950C9473
:101E90000B0F0F931F93CF93DF9380912E02882314
:101EA00009F49DC080912D02E091F102E695E81BB6
:101EB000E09328028230C9F5F0E0EB55FC4FE49145
:101EC000CE2FD0E005E51AE080912902882389F021
:101ED000109229020E94A0229E0120953095820F27
:101EE000931F909327028093260210922B02109248
:101EF0002A0280912602909127020E94B8228C1714
:101F00009D0708F46CC0E0912602F0912702CE0FE5
:101F1000DF1FD0932702C093260286E292E0F801E9
:101F2000DF91CF911F910F910994863049F4F0E031
:101F3000EE55FC4FE491CE2FD0E009E61AE0C4CF75
:101F4000893051F4E695F0E0E156FC4FE491CE2F54
:101F5000D0E002EA1BE0B8CF8F3051F4E695F0E014
:101F6000E456FC4FE491CE2FD0E00FED1BE0ACCF58
:101F7000853149F4F0E0E756FC4FE491CE2FD0E0F4
:101F800008E51CE0A1CFC8E2D0E004EC1CE08831F9
:101F900009F49ACF833239F4E7E9F3E0C591D4919B
:101FA00009E71AE091CFC4EFD1E003E61DE08432E7
:101FB00009F48ACFC0EDD7E002E519E0853209F0D7
:101FC00083CF8E2F63E00E94312DE92FF0E0EC5695
:101FD000FC4FE491CE2FD0E003EA1DE075CFDF91F6
:101FE000CF911F910F910895FA01811101C0FB015A
:101FF0000994CF93DF93C82FD62F0E949F098C1787
:1020000040F00E949F098D1720F4DF91CF910C942E
:10201000E90E8C2FDF91CF910C94F90E0F931F9343
:10202000CF938C01FB01C281CC2309F465C00E94CF
:1020300070208272F801E25CFC45E431F10538F46D
:10204000EA58F14D0C94952D0E94040FC0E08C2F9E
:10205000CF911F910F91089546EF5EE069EE7EE00B
:102060000E94F40FF3CF49EE5EE066EF7EE0F8CF1A
:1020700040E65BE063E57BE0F3CF43E55BE060E6F1
:102080007BE0EECF4EE75BE06FE67BE0E9CF4FE62B
:102090005BE06EE77BE0E4CF4CE95BE06DE87BE082
:1020A000DFCF4DE85BE06CE97BE0DACF42ED59E051
:1020B0006BEB79E0D5CF4BEB59E062ED79E0D0CF17
:1020C00081E00E94F90EC2CF65E082E00E94F90F24
:1020D000BDCF68E086E0FACF6EE089E0F7CF64E13B
:1020E0008FE0F4CF67E185E1F1CF88E1EACF62E2EA
:1020F00089E1ECCF83E2E5CFC1E0A9CF9C01CB0120
:10210000549A4BB14F7EEBB1E061FFB7F89463E0B6
:1021100070E00E94072D820F931F8217930741F4EE
:10212000FFBF8FE594E00197F1F700C0000008952C
:10213000D9015D919D0168E0EBB9000000C057FF37
:102140004BB9550F000000C000C000C04BB900C023
:102150006A9591F7E2CF82E290E00E940D2E8132E3
:1021600089F483E290E00E940D2E803159F484E2DC
:1021700090E00E940D2E91E0813209F090E0892FCD
:102180008170089580E0FCCFCF93DF93D82FCFEFFD
:102190008111C1E26C2F82E290E00E94212E6FEF4C
:1021A000D11160E183E290E00E94212E6C2F84E245
:1021B00090E0DF91CF910C94212E80E00E94C4101A
:1021C0000C941F21089585E290E00E940D2E682F47
:1021D00070E090E080E0089585E290E00C94212E7C
:1021E0000E94E2100E94AB1081110CC060E070E010
:1021F000CB010E94EC100E94AB120E94971381E069
:102200000C94C4100895CF93FB01C281CC2309F133
:102210009C0122513F452031310520F582510E9419
:10222000A713C0E08C2FCF91089581E00E94E01E9B
:1022300043E062E081E00E943505F3CF81E00E9437
:10224000011F43E062E081E00E943505EBCF82E0B0
:10225000F6CF8031FFE59F0789F381319F45B9F3C0
:10226000C1E0E0CF8031EFE59E07F9F281319F4573
:10227000C9F682E0DBCF2FEFFC0120830895CF93D6
:10228000DF93EC0188818138A9F028F4803871F05F
:10229000DF91CF910895823881F08338C9F70E9489
:1022A000EA0989830E94ED098A83F2CF0E94F0092E
:1022B0008983EECF0E949F09FBCF0E94D509F8CFFA
:1022C000CF93DF93EC0188818138E1F028F48038E6
:1022D00069F0DF91CF910895823811F18338C9F701
:1022E0000E94F009482F6A81898108C0D9810E9423
:1022F000ED09C82F0E94EA094D2F6C2FDF91CF9175
:102300000C949F0B89810E940B0F8981811104C05D
:10231000DF91CF910C947C0EDF91CF910C94410F03
:102320008981DF91CF910C94E709EF92FF920F938F
:102330001F93CF93DF93EC01062FDC01ED91CD01CC
:10234000E150E33108F0BFC0F0E0E657F14D0C94E6
:10235000952D198289E08A83602FCE01DF91CF917C
:102360001F910F91FF90EF900C948326898182300A
:1023700069F0833071F08130D9F40E94AC220E9460
:102380009B2D6A837B838C839D83E6CF0E94E31021
:10239000F6CF7E01B2E0EB0EF11C10E0812F0E941F
:1023A000C207F70181937F011F5F1A30B9F7D4CFBD
:1023B000602FCE010E943B11CFCF89818230C1F7BF
:1023C0006A817B818C819D810E949B2D0E94EC10F3
:1023D000C3CF4B816A8189810E947D12982789270A
:1023E00098279D838C83B8CF2C813D81322723276A
:1023F00032274B816A8189810E949612ADCF0E945B
:10240000AB12AACF0E946011A7CF0E943F11A4CFA8
:102410000E948609A1CF0E94401389839DCF0E940C
:1024200042139827892798279A83898395CF6B81B0
:1024300070E089819A81AE014C5F5F4F98278927B0
:1024400098270E94451388CF6B8170E089819A811B
:10245000AE014C5F5F4F9827892798270E946C1325
:102460007BCF0E94971378CF0E946612D6CF6B81E4
:1024700070E089819A81AE014C5F5F4F9827892770
:1024800098270E94E31268CF6B8170E089819A815E
:10249000AE014C5F5F4F9827892798270E94091348
:1024A0005BCF0E94DD1058CFCE010E948326FFEF44
:1024B00021EE84E0F15020408040E1F700C00000B0
:1024C0000E94EB2249CF8FEF888346CF84E00895A6
:1024D000262F30E094E0220F331F9A95E1F750E069
:1024E000440F551F240F351F90E060EA70E00E94F2
:1024F000072D820F931F869608950F931F93CF93F6
:10250000DF930E9468128C010E940D2EC82FD0E02C
:10251000DC2FCC27C80101960E940D2E9E01282B8E
:10252000C901DF91CF911F910F9108950F931F93D0
:10253000CF93DF93122F032F0E946812EC01602FBC
:102540000E94212E612FCE010196DF91CF911F9124
:102550000F910C94212EAF92BF92CF92DF92EF9207
:10256000FF921F93CF93DF9384E7C82E80E0D82E8D
:10257000D0E07601C0E014C0F50125913491412FDF
:102580006C2F8D2F0E94961282E0A80EB11C1F5F47
:10259000183091F780E1E80EF11CCF5FCA3019F0D6
:1025A000570110E0E9CFDF5F80EAC80ED11CD430BC
:1025B00001F7DF91CF911F91FF90EF90DF90CF90C7
:1025C000BF90AF900895EF92FF920F931F93CF9318
:1025D000DF93EC018A017C01E60EF71ECE018696A0
:1025E000CE15DF0539F4DF91CF911F910F91FF9048
:1025F000EF900895C03822E0D20740F40E940D2EDB
:10260000F80180830F5F1F4F2196E8CFF8011082F9
:10261000F9CFCF92DF92EF92FF920F931F93CF9358
:10262000DF937C016A018C01060F171FEC01CE01BC
:102630008696C017D10749F4DF91CF911F910F9172
:10264000FF90EF90DF90CF900895C03822E0D2073E
:1026500040F4FE01EE19FF09EC0DFD1D60810E94A2
:10266000212E2196E4CF462F843038F47A3028F496
:10267000683018F4672F0C947D1290E080E0089584
:1026800080E108958AE591E00895EF92FF920F931B
:102690001F93CF93DF93EC018A017C01E60EF71EB6
:1026A000CE018A559D4FCE15DF0539F4DF91CF91CC
:1026B0001F910F91FF90EF900895CA3521E0D20746
:1026C00040F40E940D2EF80180830F5F1F4F21966A
:1026D000E7CFF8011082F9CFCF92DF92EF92FF920D
:1026E0000F931F93CF93DF937C016A018C01060F38
:1026F000171FEC01CE018A559D4FC017D10749F431
:10270000DF91CF911F910F91FF90EF90DF90CF90CD
:102710000895CA3521E0D20740F4FE01EE19FF0901
:10272000EC0DFD1D60810E94212E2196E3CFCF93F9
:10273000DF93C6EAD2E060E0CE010E94212E21960E
:10274000C11584E0D807B9F7DF91CF910895DF92E2
:10275000EF92FF920F931F93CF93DF9300D000D09F
:10276000CDB7DEB7F82E8FE08F1540F08FEF93E0F6
:102770000E940D2E06EA12E08823C1F00F900F9000
:102780000F900F90DF91CF911F910F91FF90EF90DD
:10279000DF900895011584E0180781F3C8010E94B5
:1027A0000D2E811101C0FA940F5F1F4FF110F2CF6F
:1027B00019821A821B821C82DD24D39478018FEF48
:1027C000E81AF80AC8010E940D2E89831A8288230C
:1027D000A9F29FEF980F933078F48A83D9820E5F25
:1027E0001F4FC7010E940D2E8B83882339F2CE0123
:1027F00001960E94DE04E2CF8701F9CFAF92BF922B
:10280000CF92DF92EF92FF920F931F93CF93DF93BC
:102810007C015B01C42FD22FFC0182818823F9F057
:10282000409331020E94A0229093300280932F02A5
:1028300080E28C0F883008F061C0C77081E001C071
:10284000880FCA95EAF7DF91CF911F910F91FF9002
:10285000EF90DF90CF90BF90AF900C945D181091E7
:102860003102141340C080912F02909130020E94D7
:10287000B8226C01B701C5010E94551DC816D906C2
:1028800090F5C0E2CD0F1D17B9F080E2810F8830BE
:1028900040F4177081E001C0880F1A95EAF70E9492
:1028A0006418C83048F481E09D2F977001C0880FEC
:1028B0009A95EAF70E945D18802F0E944A18C83046
:1028C000E8F4D77081E001C0880FDA95EAF7DF916C
:1028D000CF911F910F91FF90EF90DF90CF90BF901D
:1028E000AF900C94641880E28C0F883038F4C77075
:1028F00081E001C0880FCA95EAF7E9CFDF91CF9157
:102900001F910F91FF90EF90DF90CF90BF90AF900D
:1029100008950F939C01CB01233F4CE5340759F1F7
:10292000A8F4283DFCE53F0701F1293D4CE53407BB
:10293000D1F1273D3C4591F406E221EE41EE67EDF1
:102940007CE50E94FE1380E00F910895253FFCE591
:102950003F07E9F0B0F0263F3C45F9F0FC018281E9
:10296000882339F110923102EFCF07E225EE45EED0
:1029700068ED7CE5E6CF06E221EE40EE63EF7CE514
:10298000E0CF07E225EE44EE64EF7CE5DACF06E225
:1029900021EE42EE65EF7CE5D4CF07E225EE46EE70
:1029A00066EF7CE5CECF08E221E045EE69ED7CE5FF
:1029B000C8CF81E0C9CFCF93DF93EC01FB018281C7
:1029C000882309F419C1C230FCE5DF07C0F1C63124
:1029D0009CE5D90730F09E012A5F3C45293031053E
:1029E00070F50E9438219093250380932403C03111
:1029F000ECE5DE0709F4CFC008F05BC0C8308CE519
:102A0000D80709F4B6C088F5C430ECE5DE0709F450
:102A1000A8C0C0F4C2308CE5D80709F49CC08091EE
:102A200024038260C330DC4509F498C080912403FC
:102A3000909125030E9446210E94D91A80E0DF91DF
:102A4000CF910895809124038061C630ECE5DE07C4
:102A500009F484C0809124038860C730DC4508F401
:102A60007DC080912403806279C0CC308CE5D8078A
:102A700009F489C070F4809124038C60CA30ECE5BD
:102A8000DE0709F46BC008F478C0809124038E7FC0
:102A900065C0CE308CE5D80709F479C08091240355
:102AA0008B7FCF30DC4508F459C0809124038F7EA2
:102AB00055C0CB3FECE5DE0709F457C030F5C33114
:102AC0008CE5D80709F46FC078F4C131ECE5DE0776
:102AD00009F465C0C231DC4509F0A8CF0E94D91ABB
:102AE000809124038F773AC0C5318CE5D80709F46B
:102AF00062C008F476C0809125038160CA3FDC453E
:102B000009F094CF8093250391CFCF3FFCE5DF07F9
:102B100009F44DC088F4809125038D7FCD3F9CE55D
:102B2000D90781F3809125038E7FCE3FDC4550F39A
:102B3000809125038360E6CFC130FDE5DF0709F40E
:102B400059C008F444C080E0C230DD4509F06ECFC2
:102B50000E94C4216BCF8091240381608093240361
:102B600065CF809124038460F9CF80912503826032
:102B7000C9CF809124038064F1CF0E94D91A80913B
:102B800024038068EBCF809124038D7FE7CF809171
:102B90002403877FE3CF809124038F7DDFCF809153
:102BA00024038F7BDBCF80912403837FD7CF809159
:102BB00025038C7FA7CF8091240382FB992790F96E
:102BC00021E0922790FB82F990FB83F9C7CF809197
:102BD0002503982F909591708E7F892B90FB81F91A
:102BE00091CF0E94D91A90912403892F97FB87F9DE
:102BF0008058B4CF81E0ACCF81E021CFCF93DF9379
:102C0000EB0186319C4511F50E9470209A81992331
:102C100099F08A7A91E009F490E090933202811160
:102C200009C089E20E944B200E94BC2080E0DF9115
:102C3000CF91089585E3F6CF80913202811104C0CF
:102C400089E20E945220F0CF85E3FBCF81E0EFCFF5
:102C500090933802809337020895E0913702F09103
:102C60003802309721F00190F081E02D099480E046
:102C70000895E0913702F0913802309721F00280F8
:102C8000F381E02D09940895E0913702F091380224
:102C9000309739F022E0DC012C930480F581E02D9F
:102CA000099408952091350230913602281739078A
:102CB00071F09093360280933502E0913702F091E3
:102CC0003802309721F00680F781E02D09940895AD
:102CD00020913302309134022817390771F0909314
:102CE000340280933302E0913702F091380230973A
:102CF00021F00084F185E02D099408950895089548
:102D00000C947E1608950C9482160E947F160C94E3
:102D1000801681E008950C9489160E9497220E94E3
:102D2000CD070E94F0100E9425230E940E0F0C94E4
:102D30008316BF92CF92DF92EF92FF920F931F9371
:102D4000CF93DF93CDB7DEB72A970FB6F894DEBFE7
:102D50000FBECDBF0E9413080E948B16882309F472
:102D600061C08AE3C82E82E0D82E10E000E0B02EC9
:102D7000802F0E94C207E82EF601F1906F01F8162D
:102D800009F44AC08091C40281FD0E94C8079F2DAA
:102D90009E2580E0FF24F394292F2F21C1F18E83FB
:102DA000BF82EF2081E009F480E088870E94A022A2
:102DB0008160782F9A8789874E815F8168858A85AF
:102DC0000E943317F801E65CFD4F8081F826F082FF
:102DD0000E94490F0E94D4240E942D16909139021E
:102DE000891789F10E942D16809339022A960FB611
:102DF000F894DEBF0FBECDBFDF91CF911F910F9131
:102E0000FF90EF90DF90CF90BF900C94B2058F5F52
:102E1000FF0C883009F0C0CF0F5F1F4F0A3011053B
:102E200009F0A5CF8FEF89838A831B820E94A0229D
:102E30008160782F9D838C8349815A816B818D813C
:102E40000E943317C5CF2A960FB6F894DEBF0FBE87
:102E5000CDBFDF91CF911F910F91FF90EF90DF9049
:102E6000CF90BF900895CF93DF93CDB7DEB72B9768
:102E70000FB6F894DEBF0FBECDBF4F83588769876A
:102E80007A878B871E821D8285E0FE013796DE01E0
:102E9000119601900D928A95E1F749815A816B81D3
:102EA0007C818D819E812B960FB6F894DEBF0FBE7C
:102EB000CDBFDF91CF910C94581DFC018081918191
:102EC0000C941D20CF93C82F882309F48BC082381F
:102ED000C1F40E942D1681FD85C089E30E944B201C
:102EE0000E94BC202FEF81EE94E021508040904062
:102EF000E1F700C0000089E30E945220CF910C94BA
:102F0000BC208338A1F40E942D1680FD6BC083E5A0
:102F10000E944B200E94BC202FEF81EE94E02150B4
:102F200080409040E1F700C0000083E5E5CF8438A1
:102F3000A1F40E942D1682FD55C087E40E944B200B
:102F40000E94BC202FEF81EE94E021508040904001
:102F5000E1F700C0000087E4CFCF8CEF8C0F813AFF
:102F600090F46C2F80911701909118010E94DB2141
:102F7000882329F08C2F0E9452200E94BC208C2F85
:102F80000E944B20BBCF80E28C0F883048F4C77082
:102F900081E001C0880FCA95EAF70E947320AECF86
:102FA000EBE5EC0FE33040F4F0E0E853FE4F8081B6
:102FB00090E0CF910C945216E8E5EC0FE73150F415
:102FC000F0E0EE0FFF1FE656FE4F80819181CF911A
:102FD0000C946816C03F30F08C2F0E94CE23CF9106
:102FE0000C94B924CF910895882309F452C08238F3
:102FF00071F40E942D1681FF4CC089E30E944B2082
:103000000E94BC2089E30E9452200C94BC2083388B
:1030100059F40E942D1680FF3CC083E50E944B208E
:103020000E94BC2083E5EFCF843859F40E942D160E
:1030300082FF2FC087E40E944B200E94BC2087E4BF
:10304000E2CF9CEF980F913AF0F290E2980F98300F
:1030500050F4877091E001C0990F8A95EAF7892FA3
:103060000E947920D2CF9BE5980F933020F490E016
:1030700080E00C94521698E5980F973120F490E078
:1030800080E00C946816803F20F00E9436240C9457
:10309000B9240895CF93C82F0E946217C93349F409
:1030A0002FEF87EE93E0215080409040E1F700C081
:1030B00000008C2FCF910C94F417882321F00E94EC
:1030C00073200C94BC200895882321F00E9479205D
:1030D0000C94BC200895BF92CF92DF92EF92FF92A2
:1030E0000F931F93CF93DF936C01D62FC72FFC0153
:1030F000058102950F70128111110E9490200E948B
:103100006920E82E882391F01123D1F08C2F807F45
:10311000803421F080E28D0F883090F082E00E94B0
:1031200007210E94692091E0E82EE926BC2EB29486
:103130009FE0B922EB2DF0E0E356F14D0C94952D74
:10314000E12CF4CF0C2F0F70C07F11F00295007F9F
:103150001123A9F0002359F080E28D0F883010F080
:10316000D11109C0802F0E9473200E94BC208D2F96
:103170000E94621714C0802F0E948320F6CF8D2FEB
:103180000E94F417002359F080E28D0F883010F070
:10319000D1112CC0802F0E9479200E94BC202B2DA1
:1031A0002850330B2430310520F40E942D160E9444
:1031B000B205EE2009F49EC10E94652080FD9AC1EF
:1031C000F60112820E945F200E94E01EC6010E944A
:1031D0009B1A0E945F20DF91CF911F910F91FF906A
:1031E000EF90DF90CF90BF900C94011F802F0E9432
:1031F0008920D3CFFC2FFF70FF2EC07FC03219F083
:10320000F29480EFF822DD2369F0D13049F11123E7
:1032100091F1002351F1F601858180FFA8CF8F70D5
:10322000858323C0112381F0011106C00E94A320D1
:103230008F290E945D18B3CF0130C1F70E94A320EF
:103240008F290E94A920ABCF011106C00E94B22095
:103250008F2D0E946418A3CF013009F4A0CFF6CFC0
:10326000112329F0063008F09ACF8F2DE2CF0530D8
:1032700008F095CFEDCF002359F3D93349F4FFEF90
:1032800027EE33E0F15020403040E1F700C000006D
:103290008D2F0E94F41783CF8C2F8695869583708F
:1032A00069F0813009F07BCF8D2F9C2F9370111125
:1032B00002C090E080E00E94681671CF8D2F9C2F95
:1032C0009370111102C090E080E00E94521667CF07
:1032D0008D2F112329F00E94CE230E94B9245FCFA5
:1032E0000E943624FACF8C2F837009F041C011114F
:1032F00056CF4D2F429546954770440F440F0D2FE2
:103300000F7010E030E020E0042E04C0000F111F09
:10331000221F331F0A94D2F760E070E0CB01D4FF84
:103320000FC06FE070E080E090E004C0660F771F90
:10333000881F991F4A95D2F7609570958095909552
:10334000C695C695C370602B712B822B932BC23010
:1033500049F058F4C13019F00E94921E20CF0E940B
:10336000801E1DCF0E94A41E1ACF0E947E1E17CF62
:103370008695112311F08C2F8170882309F40FCFCB
:103380004D2F429546954770440F440F0D2F0F70F7
:1033900010E030E020E0042E04C0000F111F221FB7
:1033A000331F0A94D2F760E070E0CB01D4FF0FC066
:1033B0006FE070E080E090E004C0660F771F881F28
:1033C000991F4A95D2F76095709580959095C6950E
:1033D000C695C370602B712B822B932BC23049F0A2
:1033E00058F4C13019F00E94571FD9CE0E94451FD2
:1033F000D6CE0E94691FD3CE0E94BA1ED0CECF7007
:10340000112329F08C2F0E94E01E8D2F12CF8D2FBB
:103410000E9464188C2F0E94011FC1CED23F89F1F7
:1034200060F4D03FC9F0D13F29F1112309F442C023
:1034300001119DCE8C2F8F7121C0D33F39F1D43F24
:10344000A1F7112369F1CF718C2F0E94E01E63E078
:103450008C2F0E94F220A3CE112341F0053008F0FA
:103460009ECE8C2F8F710E94241F99CE063008F0BB
:1034700096CEF7CF8C2F8F71112369F20E94E01E38
:103480008ECE8C2F8F711123C9F3C5CF112329F054
:103490008C2F8F710E94CB1E82CE0E94C61E7FCEC3
:1034A00081E00E940721023008F479CE82E00E9478
:1034B000072175CE002359F0D93309F0E9CE8FEFFB
:1034C00097EEE3E081509040E040E1F7DFCE8C2FB3
:1034D0008F71A1CF4C2F4F706D2FC6010E94BA057E
:1034E0000E94F61D5CCE4C2F4F706D2FC6010E94BE
:1034F000BD0555CEDF91CF911F910F91FF90EF90B9
:10350000DF90CF90BF9008950F931F93CF93DF93D9
:10351000EC01688179818A810E9427208C010E94B8
:103520007B1F0E947D1EB801CE01DF91CF911F91BC
:103530000F910C946B18CF93DF93EC018B819C81DE
:10354000892B29F08881998189238F3F59F4DF9154
:10355000CF910895CE010E94841ACE01DF91CF91C0
:103560000C942504CE010E9463058111F3CF0E94C3
:103570006920882361F38A81882349F382E0DF91FF
:10358000CF910C9407210E9490200E94A0200E94BD
:10359000BC200E94EA250E94B92490E080E00E94AD
:1035A000521690E080E00C9468160E9459200C940A
:1035B000C31A0E9480200C94D51AE92FE295EF706F
:1035C000E250EE3070F4F0E0E355F14D0C94952D9F
:1035D000803F19F020F4883E20F481E00895843F74
:1035E000E1F380E00895883EC0F3813FD1F7F5CF45
:1035F00093FB882780F908950E941D200C94DD1A02
:10360000CF93DF9300D000D00F92CDB7DEB70F90ED
:103610000F900F900F900F90DF91CF910895CF935F
:10362000DF9300D000D000D0CDB7DEB726960FB61E
:10363000F894DEBF0FBECDBFDF91CF910895CF9339
:10364000DF93C0914502809146028C1303C0DF9145
:10365000CF910895D0E0CE0166E070E00E94072D82
:10366000FC01E95BFD4F408151816281738184815E
:1036700095810E940F1B2196C770E5CF409177027C
:10368000509178026091790270917A0280917B0268
:1036900090917C020C940F1B1F93CF93DF9380912A
:1036A0007C02807FA1F480917902882381F02091AF
:1036B0004502B091460240917702A0917802C091F4
:1036C0007A02D0917B02142F1A23B21304C0DF9127
:1036D000CF911F91089530E0209711F01F3F21F402
:1036E0002F5F3F4F2770F1CFC90166E070E00E9465
:1036F000072DFC01E95BFD4F81818A13F1CF8081A9
:103700008413EECF82818111EBCF838194818C1B56
:103710009D0B883C910520F780917C028F70806121
:1037200080937C02C90166E070E00E94072DFC01D5
:10373000E45BFD4F90819F709061908387E792E0FA
:103740000E949B1ADF91CF911F910C941F1BAF9287
:10375000BF92CF92DF92EF92FF920F931F93CF937E
:10376000DF93CDB7DEB761970FB6F894DEBF0FBE1B
:10377000CDBF8C0185E0F801DE011D9601900D9210
:103780008A95E1F7F80140812181E28087E7C82E20
:1037900082E0D82E60917A0270917B0261157105EA
:1037A00009F464C19091770230917802892F8323C4
:1037B0008F3F09F45BC1A380B480F0907902F501DA
:1037C000E61BF70BFF2009F4FEC080917C02582F06
:1037D000507FE83CF10508F0B3C051117AC0FE2CCF
:1037E000321323C0941321C0E1101FC08F70806179
:1037F00080937C020E943E1BC6010E949B1A80910E
:103800007C02F80185838F2D61960FB6F894DEBF98
:103810000FBECDBFDF91CF911F910F91FF90EF9021
:10382000DF90CF90BF90AF900895AB2829F0842F00
:1038300082238F3F09F036C180E0F82FF170DF2E30
:10384000E09145023091460280FD20C0EE20D9F281
:1038500080917C02816080937C02F12CD4CFF0E0D7
:10386000CF0166E070E00E94072DDC01A95BBD4F2F
:1038700011968C911197821307C08C91841304C008
:1038800012968C918E11E2CF3196E770E313E7CF59
:103890004D872E878D859E850E941D20292F22957C
:1038A0002F70223050F0243078F49F7051F0F801DE
:1038B0009581907F31F4D12C0AC09F7011F088233C
:1038C000D1F3805E8830B8F3C8010E949B1AFD2CAA
:1038D0009ACF321306C0941304C0F801EE2009F405
:1038E0008EC04D872E878D859E850E94FC1A882369
:1038F00019F1EE2009F180917C02803270F0209164
:1039000077023091780238872F831986BB86AA8682
:103910008C87CE0107960E949B1A86E0F801A7E7E4
:10392000B2E001900D928A95E1F70E944C1B0E9433
:103930003E1BFF24F39467CFC8010E949B1AF9CF66
:10394000511114C07A2DB98AA88A522F6E2D8989F7
:103950000E94001B87E792E00E949B1A86E0F60116
:1039600011928A95E9F70E943E1B77CF32130FC060
:1039700094130DC0E1100BC0F8018583C8010E94AB
:103980009B1A86E0F60111928A95E9F73CCF4D87A4
:103990002E878D859E850E94FC1A882369F2EE2071
:1039A00059F280917C02803208F4B7CF20917702DF
:1039B000309178023A8329831B82BD82AC828E8348
:1039C000CE010196A8CFE83CF10508F041C0FE2CDD
:1039D000EE2009F4B1CF32132AC0941328C080918D
:1039E0007C0280FD1BC0982F907FC1F0F801858379
:1039F000903F31F0982F907F905F8F70892B858357
:103A0000C8010E949B1A86E0F801A7E7B2E0019086
:103A10000D928A95E1F70E943E1BF5CE86E0F801F3
:103A2000A7E7B2E001900D928A95E1F7ECCE4D87C1
:103A30002E878D859E850E94FC1A81116ECF809104
:103A40007C02816080937C02C8010E949B1ADBCEBD
:103A50007A2DB98AA88A522F6E2D89890E94001B5F
:103A600086E0F60111928A95E9F7D5CFEE2009F4A8
:103A700063CF4D872E878D859E850E94FC1AF82E78
:103A8000882309F459CF86E0F801A7E7B2E0019056
:103A90000D928A95E1F787E792E00E945D170E94F8
:103AA0004C1BB9CF81E08E25C8CE88EC90E00895FC
:103AB000CF93DF93CDB7DEB72C970FB6F894DEBF68
:103AC0000FBECDBF4F83588769877A878B879C87C6
:103AD000CE0107960E94A71B8823D1F08A859B857B
:103AE000892B39F04F815885842F85238F3F09F02A
:103AF00076C08091450290914602891349C02C9668
:103B00000FB6F894DEBF0FBECDBFDF91CF91089501
:103B100086E0FE013796DE01119601900D928A959E
:103B2000E1F78A859B85892B21F38F8198858923ED
:103B30008F3FF9F28091460290E09C012F5F3F4F4A
:103B400027703327409145024217130671F40E94F3
:103B5000D91A109246021092450286E0E7E7F2E099
:103B6000DF011D928A95E9F7C4CF66E070E00E94FC
:103B7000072DDC01A95BBD4F96E0FE013196019057
:103B80000D929A95E1F7209346020E941F1BB1CF38
:103B900090E066E070E00E94072D895B9D4F0E94D7
:103BA000A71B882309F4ABCF8091450290E066E023
:103BB00070E00E94072DFC01E95BFD4F40815181BF
:103BC00062817381848195810E940F1B80914502DF
:103BD00090E0019687709927809345028ACF698586
:103BE0007A858B859C850E940F1B83CFEF92FF9275
:103BF0000F931F93CF93DF938C01892B81F0F12CCE
:103C0000EE24E394E8012196F8018491843770F45E
:103C1000843008F05FC08130B1F08230A1F1DF91D3
:103C2000CF911F910F91FF90EF900895853709F480
:103C30004CC008F43DC09CE7980F903780F78F7711
:103C40000E94F41749C00E5F1F4FFE01849190E25D
:103C5000980F983060F48770FE2D01C0FF0F8A9591
:103C6000EAF78F2F0E9493200E94BC2002C00E947E
:103C700062178F2D815030F2EFE9FFE03197F1F7B5
:103C800000C00000F7CF0E5F1F4FFE01849190E24D
:103C9000980F983050F48770FE2D01C0FF0F8A9561
:103CA000EAF78F2F0E949920DFCF0E94F417E1CF0F
:103CB0000E5F1F4FFE01C491C150D8F28FE99FE003
:103CC0000197F1F700C00000F7CF0E5F1F4FFE0114
:103CD000F490CFCF0E9462178E01CBCF08950C9441
:103CE0006E1E0E946F1E6093B3027093B4028093A5
:103CF000B5029093B6020C94C31A08950C94711EE9
:103D00000F931F930091B3021091B4022091B5025A
:103D10003091B602602B712B822B932B1F910F9148
:103D20000C94711E0F931F930091B3021091B40273
:103D30002091B5023091B602602371238223932330
:103D40001F910F910C94711E0F931F930091B3025A
:103D50001091B4022091B5023091B602602771270C
:103D6000822793271F910F910C94711E0C946E1E45
:103D70000C94B61E0E94B81E6093AF027093B002FE
:103D80008093B1029093B2020C94C31A60E070E089
:103D9000CB010C94BA1E0F931F9341E050E060E0FA
:103DA00070E08A019B0104C0000F111F221F331F06
:103DB0008A95D2F7C901B8011F910F910C94BA1ED0
:103DC0000F931F9341E050E060E070E004C0440FA7
:103DD000551F661F771F8A95D2F78091AF02909189
:103DE000B002A091B102B091B2028A019B01082BEE
:103DF000192B2A2B3B2BC901B8011F910F910C9451
:103E0000BA1E0F931F9341E050E060E070E004C0E1
:103E1000440F551F661F771F8A95D2F7CB01BA0151
:103E200060957095809590950091AF021091B002C9
:103E30002091B1023091B202602371238223932337
:103E40001F910F910C94BA1E0F931F9341E050E005
:103E500060E070E004C0440F551F661F771F8A950D
:103E6000D2F78091AF029091B002A091B102B091CF
:103E7000B2028A019B01082719272A273B27C9017B
:103E8000B8011F910F910C94BA1E0F931F930091CC
:103E9000AF021091B0022091B1023091B202602BBA
:103EA000712B822B932B1F910F910C94BA1E0F93A1
:103EB0001F930091AF021091B0022091B102309196
:103EC000B20260237123822393231F910F910C94DC
:103ED000BA1E0F931F930091AF021091B002209170
:103EE000B1023091B20260277127822793271F9178
:103EF0000F910C94BA1E0895CF93DF93262F990F3C
:103F0000990F990F890F982F9770E1E001C0EE0F7C
:103F10009A95EAF786958695869590E065E070E03B
:103F20000E94072DDC01A358BD4F50E040E0622FF6
:103F300070E08D91ED0121979B01042E02C0369512
:103F400027950A94E2F72170219528272E23282708
:103F500028834F5F5F4F4530510559F7DF91CF916F
:103F60000895990F990F990F890FA82FA77086951B
:103F70008695869590E065E070E00E94072DFC0133
:103F8000E358FD4F50E040E080E0219130E00A2E00
:103F900002C0369527950A94E2F721703327042E44
:103FA00001C0220F0A94EAF7822B4F5F5F4F453022
:103FB000510559F70895BF92CF92DF92EF92FF9289
:103FC0000F931F93CF93DF938C01C090AF02D090DB
:103FD000B002E090B102F090B2028091B3029091F1
:103FE000B402A091B502B091B602C82AD92AEA2A31
:103FF000FB2ACFE1D0E0BC2ED701C6010C2E04C0B5
:10400000B695A795979587950A94D2F780FD0EC02F
:10401000219788F7B12C8B2DDF91CF911F910F91B4
:10402000FF90EF90DF90CF90BF900895B8018C2F54
:104030000E94C605019761F3EECFCF93DF93EC01A9
:104040000E94DB1FBE01DF91CF910C94C6051F9328
:10405000CF93DF93EB0190914402992331F0CB0190
:10406000DF91CF911F910C941D20882379F0CB0113
:104070000E94DB1F182F682FCE010E947C1FBE01FB
:10408000812FDF91CF911F910C94C605CB010E9427
:10409000B11F182FF4CF682F80911701909118014C
:1040A0000C941122682F80911701909118010C94A3
:1040B000132280911701909118010C941522809180
:1040C000B70285958595859508958091B70287708B
:1040D00008959091B702977081E009F480E0089507
:1040E0008091C30208959091C302892B8093C302EB
:1040F000089580959091C30298239093C3020895E8
:104100001092C30208959091C202892B8093C2023B
:10411000089580959091C20298239093C2020895C9
:104120001092C20208959091C102892B8093C1021E
:10413000089580959091C10298239093C1020895AB
:104140001092C10208958091B802089508950C94C8
:10415000A6209091B802981721F08093B8020C9491
:10416000A72008958091B802882329F01092B80200
:1041700080E00C94A7200895E0911701F0911801B8
:104180008091C3028083E0911701F0911801808132
:104190009091C202892B8083E0911701F091180160
:1041A00080819091C102892B80839091B8029923DC
:1041B00081F0E0911701F09118018081892B8083B3
:1041C00080911701909118010E94C92181110E94CC
:1041D000B22080911701909118010C94391608951E
:1041E0000C94EF20982F990F990F990F962B90937D
:1041F000B7020E94E01E8091B7028595859585954E
:104200000C94F0201092B70280E00C94F020909172
:10421000B702809589238093B702282F277071F405
:10422000282F082E000C330B9217130639F08595B2
:10423000859585950E94011F0C94022108956FEFCA
:104240007FEF90E080E00C943F2E90E080E00E94B1
:104250001B2E21E08C3E9E4F09F020E0822F089516
:1042600082E090E00C940D2E83E090E00C940D2EF3
:10427000CF9384E090E00E940D2EC82F81E290E061
:104280000E940D2E982F8C2FCF910895CF93C92F78
:10429000682F84E090E00E94212E6C2F81E290E054
:1042A000CF910C94212EAB01BC018FE090E00C94D7
:1042B000332EAB01BC0183E190E00C94332E60E01F
:1042C00070E0CB010C94592160E070E0CB010E94BA
:1042D00053210C945F216CEE7EEF90E080E00E9411
:1042E0003F2E60E082E090E00E94212E60E083E0BB
:1042F00090E00E94212E1092B3021092B40210920C
:10430000B5021092B60260E084E090E00E94212E97
:1043100060E081E290E00E94212E60E085E090E084
:104320000E94212E60E086E090E00E94212E6FEF37
:1043300087E090E00E94212E40E050E0BA0188E042
:1043400090E00E94332E60E08DE090E00E94212EEC
:1043500040E050E0BA0188E190E00E94332E60E036
:1043600087E190E00E94212E40E050E0BA018CE10C
:1043700090E00E94332E60E080E290E00E94212EC7
:104380000C9464210C946B21682F8EE090E00C94C7
:10439000212E9C012E5F3F4FAC01485F5F4F80E0B4
:1043A0002417350709F40895F90191919F01992384
:1043B000B9F38F5FF5CF662349F0FC01329608967A
:1043C0002191261729F0E817F907D1F780E0089521
:1043D00081E008959C01FC0132969FEF80E04191BD
:1043E000461751F09F3F19F4411101C0982F8F5F7C
:1043F0008630A9F79F3F09F40895290F311D97FDD5
:104400003A95F90162830895FC013296089621914C
:10441000261303C0DF0111971C92E817F907B9F7BB
:1044200008950C94EA210C940422029626E0FC01E3
:1044300011922A95E9F70895089508950C941D2284
:104440000E941E2280912A03843049F11092C502F5
:1044500088E190E020E40FB6F894A895809360007E
:104460000FBE2093600080E00E94B2050E941E22D1
:1044700083B7817F846083BF83B7816083BF789473
:10448000889583B78E7F83BF0FB6F894A8958091E7
:104490006000886180936000109260000FBE0895F4
:1044A0000895CF930E941C220E9413080E9450225C
:1044B000C0E08C2F0E94C207811105C0CF5FCA30B7
:1044C000C1F7CF91089581E0FCCF08950C94652247
:1044D0000E94D91A0E942D160E94B2050C946622E1
:1044E0001F921FB61F9211248F939F93AF93BF9378
:1044F0008091C502811113C0809120039091210306
:10450000A0912203B09123034196A11DB11D809378
:10451000200390932103A0932203B0932303BF9120
:10452000AF919F918F911F901FBE1F90189582E0B1
:1045300084BD93E095BD9AEF97BD80936E0008957A
:104540002FB7F8948091200390912103A09122032A
:10455000B09123032FBF08952FB7F89460912003E3
:104560007091210380912203909123032FBF08951E
:104570009C014FB7F8948091200390912103A09162
:104580002203B09123034FBF821B930B08957894AD
:104590001F921FB61F9211248F939F93AF93BF93C7
:1045A0008091200390912103A0912203B0912303D5
:1045B0000196A11DB11D8093200390932103A09328
:1045C0002203B0932303BF91AF919F918F911F90CE
:1045D0001FBE1F90189581E08093E00080E28093D9
:1045E000D8001092C9008FE19EE40197F1F700C056
:1045F000000087E090EBDC01809333039093340359
:10460000A0933503B093360388E19CE00FB6F8948D
:10461000A895809360000FBE90936000FFCF0C942C
:10462000DD100E9413088FE39CE90197F1F700C0A9
:1046300000000E94130880E00E94C20780FF04C0AF
:104640000E940F230C94EB2208950E9425218111D2
:1046500002C00E94C2210E9430218093C4020E94A5
:10466000382190932503809324030E943421682FDE
:1046700070E090E080E00E947E1E6091AF02709139
:10468000B0028091B1029091B2020C94B81E809158
:10469000CC0280FF11C080911E0190E065E070E0C7
:1046A0000E94072D9595879595958795803891055A
:1046B000B0F50097B1F1089581FF0AC080911E0105
:1046C00090E065E070E00E94072D95958795EECF0C
:1046D00082FF08C080911E0190E065E070E00E94BA
:1046E000072DE4CF8091CB028823B1F020911D01EA
:1046F00060911E0170E0821710F0CB01EECF90E0C8
:104700000E94072D65E070E00E94072D622F70E087
:104710000E945F2DCB01CACF85E090E008958FE71E
:10472000089581E008958091CC0280FF0CC06091D3
:104730001A0170E075956795759567956115710516
:1047400059F1862F089581FF06C060911A0170E02B
:1047500075956795F3CF60911A0170E082FD0CC0EA
:104760006091CA026623A9F02091190180911A0173
:1047700090E0621730F0BC0160387105F8F28FE705
:10478000089570E00E94072D622F70E00E945F2D57
:10479000F3CF61E070E0D5CF81E00895803F31F440
:1047A0000E94472381958093D0020895813F19F498
:1047B0000E944723F8CF823F31F40E94472381951E
:1047C0008093CF020895833F19F40E944723F8CFC6
:1047D000893F29F40E9493238093D10208958A3F50
:1047E00021F40E9493238195F7CF8B3F31F40E94EF
:1047F000932381958093D20208958C3F19F40E94EF
:104800009323F8CF843F31F48091CE02816080936E
:10481000CE020895853F21F48091CE028260F7CFC9
:10482000863F21F48091CE028460F1CF873F21F44E
:104830008091CE028860EBCF883F21F48091CE0238
:104840008061E5CF8D3F31F48091CC02816080930F
:10485000CC0208958E3F21F48091CC028260F7CF84
:104860008F3FB9F78091CC028460F1CF9091CF0255
:10487000803F59F48091D00287FF0DC01092D00282
:1048800091110BC01092CB0208C0813F81F480913E
:10489000D00218169CF3992381F08091D102909157
:1048A000D202892B09F064C01092CA020895823F97
:1048B00049F497FFF0CF1092CF028091D00281117E
:1048C000ECCFE0CF833F19F41916ACF3E4CF20917D
:1048D000D102893F29F41216F4F61092D102DBCFEF
:1048E0008A3F19F427FFD7CFF8CF2091D2028B3F10
:1048F00029F427FFD0CF1092D202CDCF8C3F19F4EC
:104900001216CCF3C8CF843F31F48091CE028E7F53
:104910008093CE02C0CF853F21F48091CE028D7F5F
:10492000F7CF863F21F48091CE028B7FF1CF873F76
:1049300021F48091CE02877FEBCF883F21F48091D4
:10494000CE028F7EE5CF8D3F31F48091CC028E7FF9
:104950008093CC02A0CF8E3F21F48091CC028D7F3A
:10496000F7CF8F3F09F097CF8091CC028B7FF0CFAC
:1049700008950E94A0229C019091CF028091D002C4
:10498000982B21F03093C9022093C8029091D10254
:104990008091D202982B21F03093C7022093C60257
:1049A0008DEC92E00C944416EF92FF920F931F93BC
:1049B000CF93DF9300D000D000D0CDB7DEB786E034
:1049C000EDECF2E0DE01119601900D928A95E1F78F
:1049D000E090CF02F090D0020091D1021091D2026B
:1049E0001092CF021092D0021092D1021092D202F5
:1049F0008E2D8F2991F08091C8029091C9020E945A
:104A0000B822FC012091CB02222309F43FC08091FF
:104A10001F018E171F0608F448C0802F812B91F0CC
:104A20008091C6029091C7020E94B822FC01209199
:104A3000CA02222309F47CC080911B018E171F0635
:104A400008F485C08091CF029091D002892B90917B
:104A5000D102892B9091D202892B11F00E94B924A6
:104A600086E0FE013196ADECB2E001900D928A95A0
:104A7000E1F726960FB6F894DEBF0FBECDBFDF91EB
:104A8000CF911F910F91FF90EF9008958091200199
:104A900090E06AE070E00E94072D8E179F0708F0F3
:104AA000BCCF2F5F2093CB0202C02F3FD1F7EE2067
:104AB00051F00E9447236FEF1E140CF461E00E9436
:104AC000FE2C8093CF02FF2051F00E9447236FEF0E
:104AD0001F140CF461E00E94FE2C8093D0028091A0
:104AE000CF02882309F499CF2091D002222309F420
:104AF00094CF082E000C990B65EB70E00E94072DF7
:104B0000992371F09093CF02822F220F990B65EBBE
:104B100070E00E94072D992339F09093D0027DCF49
:104B200081E08093CF02F0CF81E08093D00275CFF7
:104B300080911C0190E06AE070E00E94072D8E17C2
:104B40009F0708F07FCF2F5F2093CA0202C02F3F3C
:104B5000D1F7002351F00E9493236FEF10160CF44D
:104B600061E00E94FE2C8093D102112351F00E943B
:104B700093236FEF11160CF461E00E94FE2C8093DA
:104B8000D2028091D102882309F45CCF2091D20215
:104B9000222309F457CF082E000C990B65EB70E027
:104BA0000E94072D992371F09093D102822F220F3A
:104BB000990B65EB70E00E94072D992339F09093D3
:104BC000D20240CF81E08093D102F0CF81E0809388
:104BD000D20238CF86E0EDECF2E0DF011D928A953B
:104BE000E9F71092CB021092CA021092CC020895FB
:104BF0008091DB020895CF93DF9300D00F92CDB761
:104C0000DEB790912A03943011F589837B836A8300
:104C10009093E9008FEF9091E800815095FD06C0D8
:104C200095ED9A95F1F700008111F5CF8091E8009C
:104C300085FF0DC050E040E063E070E0CE010196DA
:104C40000E945D288091E8008E778093E8000F90A5
:104C50000F900F90DF91CF910895BC0184E00C94E8
:104C6000FB25BC0183E00C94FB259C0184E0809330
:104C7000E9009FEF8091E800915085FD06C085ED29
:104C80008A95F1F700009111F5CF8091E80085FF3A
:104C90000CC050E040E066E070E0C9010E945D2871
:104CA0008091E8008E778093E8000895CF93DF939A
:104CB000EC0181E08093E9008FEF9091E800815052
:104CC00095FD06C095ED9A95F1F700008111F5CF9D
:104CD0008091E80085FF14C050E040E068E070E09B
:104CE000CE010E945D288091E8008E778093E800D5
:104CF00088E0FE01A3EDB2E001900D928A95E1F704
:104D0000DF91CF910895CF93FC01603221F580911E
:104D10002A03843001F5C091E900CF702091EC00A6
:104D2000922F917020FD90E8C92B82E08093E900DA
:104D30008091E80080FF0CC050E040E060E270E04D
:104D4000CF010E945D288091E8008E778093E80073
:104D5000CF70C093E900CF910895089508950C9401
:104D6000682242E061EC81E00E94B42942E261ECF9
:104D700084E00E94B42942E261EC82E00E94B429FE
:104D800042E260EC83E00C94B42980912C038330E0
:104D900009F45FC030F48130C1F1823009F49BC066
:104DA00008958A3009F487C08B3009F46DC08930CA
:104DB00009F04EC080912B03813209F049C08091E7
:104DC0002F0390913003009719F0029709F040C02B
:104DD0008091E800877F8093E8008091E80082FF5F
:104DE00033C08091F200823029F48091F1008B7FF2
:104DF000813021F48091F1008093DB028091E80002
:104E00008B778093E8000C94E82980912B03813AFA
:104E1000F9F48091E800877F8093E80080912F0368
:104E200090913003892B61F468E083ED92E070E0AB
:104E30000E94FB288091E8008B778093E80008951A
:104E400060E090E080E0F3CF80912A038111C5CF2C
:104E5000089580912B03813AD9F780912F03909187
:104E60003003892BA9F78091E800877F8093E800C1
:104E70008091E80080FFFCCF80912B018093F100AE
:104E80008091E8008E77BDCF80912B03813201F7AE
:104E900080912F0390913003892BD1F68091E80007
:104EA000877F8093E8000E94E82980912D038093FA
:104EB0002B010C94D91A80912B03813249F68091F1
:104EC000E800877F8093E8000E94E82980912E0304
:104ED0008093DC02089580912B03813A09F0B8CFCA
:104EE0008091E800877F8093E8008091E80080FF50
:104EF000FCCF8091DC02C2CFCDB7DEB7A0970FB652
:104F0000F894DEBF0FBECDBF84B7877F84BF0FB6D6
:104F1000F894A89580916000886180936000109259
:104F200060000FBE80E890E00FB6F89480936100B7
:104F3000909361000FBE0E9485160E94382A0E943D
:104F40008B2A8091E20084608093E20078940E9432
:104F5000E32C0E948D1681E291E00E94281613E056
:104F600080912A03853039F10E94991680912A0395
:104F70008430B1F71093E9008091E80082FFF0CF10
:104F80008091E80090E085FF09C050E040E060E2D9
:104F900070E0CE0101960E94AC2891E08091E8007B
:104FA0008B778093E8009923D9F260E2CE010196D5
:104FB0000E949511D5CF0E9420228091280388233A
:104FC00079F20E945122882359F20E944728C8CFC3
:104FD0000C94EA27292F33272330310521F168F477
:104FE0002130310509F449C02230310509F44AC0A5
:104FF00090E080E030E020E029C02132310581F1ED
:1050000022323105A9F76330710590F7FB01EE0FED
:10501000FF1FE253FE4F2081318165537E4FFB011C
:10502000808190E013C099278130910599F0009715
:1050300041F08230910589F00397D1F6EEEAF5E070
:1050400002C0EAEDF5E0849190E09F01FA0131831E
:1050500020830895EEECF5E0F6CFE4EBF5E0F3CF36
:105060006330710528F6660F771FFB01EC52FE4F87
:105070002081318189E090E0E9CF82E190E029E36D
:1050800036E0E4CF8BE590E02EED35E0DFCF84E035
:1050900089BD86E089BD09B400FEFDCF8091D800AE
:1050A0008F7D8093D8008091E00082608093E00043
:1050B0008091E00081FDFCCF0895AF92BF92CF9226
:1050C000DF92FF920F931F93CF93DF936C01EB015D
:1050D0008A010E94072AF82E811123C001151105AB
:1050E00039F0F80180819181C81BD90BC80ED91EF7
:1050F000B12CA12C2097A9F08091E80085FD22C059
:105100008091E8008E778093E80001151105A1F0E9
:10511000F80180819181A80EB91EB182A08285E03C
:10512000F82E8F2DDF91CF911F910F91FF90DF907F
:10513000CF90BF90AF9008950E94072A8823D1F2A4
:10514000F82EEFCFF60181916F018093F100219746
:10515000FFEFAF1ABF0ACECFAF92BF92CF92DF92CE
:10516000FF920F931F93CF93DF936C01EB018A01A2
:105170000E94072AF82E811123C00115110539F06C
:10518000F80180819181C81BD90BC80ED91EB12CA2
:10519000A12C2097A9F08091E80085FD22C0809184
:1051A000E8008B778093E80001151105A1F0F80164
:1051B00080819181A80EB91EB182A08285E0F82E6F
:1051C0008F2DDF91CF911F910F91FF90DF90CF90A6
:1051D000BF90AF9008950E94072A8823D1F2F82E3D
:1051E000EFCF8091F100F60181936F012197FFEFDE
:1051F000AF1ABF0ACECFFC018091310390913203E8
:1052000086179707A0F06115710529F49091E800C1
:105210009E779093E80090E06115710551F491112B
:1052200008C08091E80082FF32C080E00895BC0190
:10523000F2CF80912A038823B1F18530B1F18091BA
:10524000E80083FD2EC08091E80082FDEACF8091C6
:10525000E80080FFE1CF2091F20030E06115710598
:1052600019F02830310558F091E02830310509F067
:1052700090E02091E8002E772093E800CDCF819137
:105280008093F100615071092F5F3F4FE7CF80910C
:105290002A03882341F0853041F08091E80083FFA4
:1052A000C0CF81E0089582E0089583E00895FC0175
:1052B000809131039091320386179707A0F0611512
:1052C000710529F48091E8008E778093E80090E0E2
:1052D0006115710551F4911108C08091E80082FFB9
:1052E00033C080E00895BC01F2CF80912A03882367
:1052F000B9F18530B9F18091E80083FD2FC080912C
:10530000E80082FDEACF8091E80080FFE1CF2091A4
:10531000F20030E06115710519F02830310558F0C0
:1053200091E02830310509F090E08091E8008E7717
:105330008093E800CDCF84918093F1003196615045
:1053400071092F5F3F4FE6CF80912A03882341F0F8
:10535000853041F08091E80083FFBFCF81E0089560
:1053600082E0089583E00895982F953028F08F709B
:105370008093E90081E008959093E900242F762F2F
:1053800050E0981731F07091EC002091ED005091B1
:10539000F00021FD02C09F5FE8CF3091EB003E7F1F
:1053A0003093EB003091ED003D7F3093ED00309174
:1053B000EB0031603093EB007093EC002093ED0034
:1053C0005093F0002091EE0027FDE5CF80E0089596
:1053D00080912B0387FF13C08091E80082FF06C0F5
:1053E0008091E8008B778093E80004C080912A03C5
:1053F0008111F2CF089580912A038823D9F38091F7
:10540000E80080FFF8CF8091E8008E77ECCF209104
:10541000E4003091E50095E6A9012091EC00822F8F
:10542000817020FF06C08091E80080FF06C080E008
:1054300008952091E80022FD1AC080912A03882354
:1054400089F0853089F08091EB0085FD0FC02091B7
:10545000E4003091E50042175307F9F29150E1F66C
:1054600084E0089582E0089583E0089581E008953E
:105470000E94952A0E94982AE0EEF0E080818160E7
:105480008083E8EDF0E080818F77808319BCE3E6CC
:10549000F0E08081816080831092290308950E944A
:1054A000952A0E94982A8091D8008F778093D800FF
:1054B0008091D80080688093D8008091D8008F7D3B
:1054C0008093D80084E089BD86E089BD09B400FEE0
:1054D000FDCF10922A0310922603109228031092F7
:1054E000270342E060E080E00E94B4298091E1005F
:1054F0008E7F8093E1008091E20081608093E200E2
:105500008091E20088608093E2008091E0008E7FCD
:105510008093E0000895E3E6F0E080818E7F808351
:1055200081E0809329030C944F2A1092E2000895A1
:105530001092E10008951F920F920FB60F9211245E
:105540002F933F934F935F936F937F938F939F938B
:10555000AF93BF93EF93FF938091E10082FF0BC065
:105560008091E20082FF07C08091E1008B7F8093F1
:10557000E1000E94E22C8091E10080FF19C080913F
:10558000E20080FF15C08091E2008E7F8093E200F0
:105590008091E20080618093E2008091D800806277
:1055A0008093D80019BC85E080932A030E94AE2620
:1055B0008091E10084FF2BC08091E20084FF27C02E
:1055C00084E089BD86E089BD89B5982F917080FF00
:1055D000FBCF8091D8008F7D8093D8008091E1002F
:1055E0008F7E8093E1008091E2008F7E8093E200C5
:1055F0008091E20081608093E200809126038823FD
:1056000009F443C084E080932A030E94AF2680916E
:10561000E10083FF29C08091E20083FF25C08091D3
:10562000E100877F8093E10082E080932A0310925B
:1056300026038091E1008E7F8093E1008091E2005B
:105640008E7F8093E2008091E20080618093E2008F
:1056500042E060E080E00E94B4298091F000886020
:105660008093F0000E94AD26FF91EF91BF91AF9122
:105670009F918F917F916F915F914F913F912F916A
:105680000F900FBE0F901F9018958091E30087FD3B
:1056900093E090932A03B9CF1F920F920FB60F9207
:1056A00011242F933F934F935F936F937F938F9327
:1056B0009F93AF93BF93CF93DF93EF93FF93D091DB
:1056C000E900DF708091EC00C82FC17080FDC0E858
:1056D0001092E9008091F000877F8093F000789429
:1056E0000E94902B1092E9008091F00088608093D6
:1056F000F000CD2BCF70C093E900FF91EF91DF91C7
:10570000CF91BF91AF919F918F917F916F915F9159
:105710004F913F912F910F900FBE0F901F901895B2
:105720001F93CF93DF93CDB7DEB7AA970FB6F89448
:10573000DEBF0FBECDBF8BE293E02091F100FC01F4
:105740002193CF01F3E083339F07B9F70E94C52669
:105750008091E80083FF1EC180912B0390912C0360
:105760009A3008F017C1E92FF0E0E554F14D0C94A0
:10577000952D803899F0823809F00CC180912F0363
:105780008F70853008F006C18093E9008091EB00AE
:1057900085FB882780F91092E90006C080912703D5
:1057A00090912803911182609091E800977F9093E7
:1057B000E8008093F1001092F1008091E8008E776C
:1057C000E5C0882309F4D3C0823009F0E3C080919A
:1057D0002D038111D6C080912F038F702FEF280FDA
:1057E000243008F0D7C08093E9002091EB0020FF1F
:1057F000C8C0933031F48091EB0080628093EB005D
:10580000C0C09091EB0090619093EB0021E030E0FC
:1058100001C0220F8A95EAF72093EA001092EA006D
:105820008091EB008860EACF8111B4C010912D0304
:105830001F778091E3008078812B8093E300809133
:10584000E800877F8093E8000E94E8298091E800C3
:1058500080FFFCCF8091E30080688093E30082E0CA
:10586000111183E080932A0395C08058823008F09C
:1058700091C080912D0390912E038C3D23E09207DF
:10588000A1F583E08A838AE289834FB7F894DE0129
:10589000139620E03EE051E2E32FF0E050935700F2
:1058A000E49120FF03C0E295EF703F5FEF708E2F11
:1058B00090E0EA30C0F0C7968D939D932F5F24311E
:1058C00059F74FBF8091E800877F8093E8006AE234
:1058D00070E0CE0101960E94FB288091E8008B7752
:1058E0008093E80057C0C096E7CF60912F03709176
:1058F0003003AE014F5F5F4F0E94E827BC01892B48
:1059000009F448C09091E800977F9093E80089815E
:105910009A810E945729E1CF8038E1F58091E80013
:10592000877F8093E800809126038093F10045CF24
:10593000811130C090912D03923060F58091E80084
:10594000877F8093E800909326030E94E829809146
:105950002603882311F084E005C08091E30087FDD1
:10596000FACF81E080932A030E94B12613C0809170
:105970002D03813079F481E0933009F080E0809349
:1059800028031092E9008091E800877F8093E80067
:105990000E94E8298091E80083FF0AC08091E80016
:1059A000877F8093E8008091EB0080628093EB001A
:1059B000AA960FB6F894DEBF0FBECDBFDF91CF9190
:1059C0001F9108950895CF9380912A038823A1F011
:1059D000C091E900CF709091EC00892F817090FD0B
:1059E00080E8C82B1092E9008091E80083FD0E94B6
:1059F000902BCF70C093E900CF910895002480FDD3
:105A0000060E660F11F08695D1F7802D08950024BB
:105A1000552704C0080E591F880F991F009729F0B9
:105A200076956795B8F37105B9F7802D952F089590
:105A3000EE27FF27AA27BB2708C0A20FB31FE41F2A
:105A4000F51F220F331F441F551F96958795779595
:105A5000679598F37040A9F7009799F7BD01CF01BA
:105A60000895991B79E004C0991F961708F0961BBA
:105A7000881F7A95C9F78095089587FB082E06261A
:105A800087FD819567FD61950E94312D0EF49195FA
:105A900007FC81950895AA1BBB1B51E107C0AA1FF3
:105AA000BB1FA617B70710F0A61BB70B881F991FBF
:105AB0005A95A9F780959095BC01CD01089597FB63
:105AC000072E16F4009407D077FD09D00E944B2DC5
:105AD00007FC05D03EF4909581959F4F08957095F1
