:100000000C9453030C949A030C949A030C949A0343
:100010000C949A030C949A030C949A030C949A03EC
:100020000C949A030C949A030C949A030C94BC2D90
:100030000C946D2E0C9491250C949A030C94CD1174
:100040000C949A030C949A030C9490120C94E82547
:100050000C949A030C949A030C949A030C949A03AC
:100060000C949A030C949A030C949A030C949A039C
:100070000C949A032B0014001A00080015001700B6
:100080001C0018000C00120013004C002961040031
:100090001600070009000A000B000D000E000F00FB
:1000A00033003400E1001D001B00060019000500AC
:1000B0001100100036003700380028004600E0002C
:1000C000E200E30001582C002C00025850005100BF
:1000D00052004F0035021E021F022002210222029E
:1000E000230224022502260227022A0038001E00CD
:1000F0001F002000210022002300240025002600EC
:100100002700310001000100010001000100010091
:10011000010057002E00010001000100010029002C
:100120004C052903010001000100010001006400E9
:100130003500010001000100010052000100010032
:1001400001002D0201002F0030000100010001001C
:10015000500051004F00010001002D0001002F024E
:10016000300201003A003B003C003D003E003F00F1
:10017000400041004200430044004500005C010093
:100180000100010001000100010001000100010067
:100190000100010001000100010052000100010006
:1001A00001002D0201002F003000010001000100BC
:1001B000500051004F00010001002D0001002F02EE
:1001C000300201003A003B003C003D003E003F0091
:1001D000400041004200430044004500005C010033
:1001E0000100010001000100010001000100010007
:1001F0000100010000000000000000002A2B280080
:1002000000000000000000000000000000000029C5
:10021000000000002C1E3420212224342627252E05
:10022000362D3738271E1F2021222324252633333D
:10023000362E37381F0405060708090A0B0C0D0E69
:100240000F101112131415161718191A1B1C1D2F35
:100250003130232D350405060708090A0B0C0D0E55
:100260000F101112131415161718191A1B1C1D2F15
:100270003130354C0000000000000000000000009C
:1002800000000000000000007E0F00D4FFFFFFC749
:100290000000007832190A00047F3F1F64321464A2
:1002A0003214783C1E1E140A052223252628292AEA
:1002B0002C2D2F3032333536383A3B3D3E404243C9
:1002C0004547494A4C4E5051535557595A5C5E6008
:1002D00062646668696B6D6F71737577797B7D7F1A
:1002E00081838587898A8C8E90929496989A9C9E19
:1002F0009FA1A3A5A7A8AAACAEAFB1B3B4B6B8B935
:10030000BBBCBEBFC1C2C3C5C6C7C9CACBCCCDCE9C
:10031000D0D1D2D2D3D4D5D6D7D7D8D9D9DADADB7F
:10032000DBDBDCDCDCDCDCDDDDDDDDDCDCDCDCDC0B
:10033000DBDBDBDADAD9D9D8D7D7D6D5D4D3D2D24A
:10034000D1D0CECDCCCBCAC9C7C6C5C3C2C1BFBE32
:10035000BCBBB9B8B6B4B3B1AFAEACAAA8A7A5A39D
:10036000A19F9E9C9A98969492908E8C8A8987855C
:1003700083817F7D7B79777573716F6D6B6968663B
:100380006462605E5C5A5957555351504E4C4A490D
:1003900047454342403E3D3B3A3836353332302FB5
:1003A0002D2C2A292826252322FFAA7F554000002C
:1003B0000000000000000000000101020304050627
:1003C000080A0C0F1114181C2024292E33393F461B
:1003D0004C535B626A7179818A929AA2AAB2B9C1BE
:1003E000C8CFD5DCE1E7EBF0F4F7FAFCFDFEFFFE49
:1003F000FDFCFAF7F4F0EBE7E1DCD5CFC8C1B9B208
:10040000AAA29A928A8179716A625B534C463F39FB
:10041000332E2924201C1814110F0C0A0806050479
:1004200003020101000000000000000000000001C4
:1004300001010101010101010202020202020202A4
:100440000203030303030303030404040404040476
:10045000050505050506060606060707070707083A
:10046000080808090909090A0A0A0B0B0B0C0C0CED
:100470000D0D0D0E0E0E0F0F0F1010111111121287
:1004800013131414151516161717181819191A1A04
:100490001B1B1C1D1D1E1E1F202021222223242465
:1004A000252626272829292A2B2C2D2D2E2F3031A1
:1004B0003232333435363738393A3B3C3D3E3F40B3
:1004C0004142434445464748494A4C4D4E4F50519E
:1004D0005354555658595A5B5D5E5F616264656658
:1004E00068696B6C6D6F7072737577787A7B7D7EDF
:1004F0008082838587888A8C8E8F91939596989A2F
:100500009C9EA0A2A3A5A7A9ABADAFB1B3B5B7BA46
:10051000BCBEC0C2C4C6C9CBCDCFD1D4D6D8DBDD1A
:10052000DFE2E4E7E9EBEEF0F3F5F8FAFDFF0403B0
:100530003000000010034300720065007300740077
:100540003400300000000A034E00610073007000A8
:1005500000000403090409025B00030100A0FA097A
:1005600004000001030101000921110100012240E2
:10057000000705810308000A0904010002030000C6
:100580000009211101000122220007058203200039
:100590000107050303200001090402000103000014
:1005A00000092111010001228100070584032000B8
:1005B0000A120110010000000870704027010001BC
:1005C0000203010660FF0961A1010962150026FF0F
:1005D000009520750881020963150026FF0095200B
:1005E00075089102C005010902A10185020901A156
:1005F00000050919012905150025019505750181D9
:100600000295017503810105010930093115812524
:100610007F95027508810609381581257F9501753A
:10062000088106050C0A38021581257F9501750899
:100630008106C0C005010980A101850319012AB7FF
:1006400000150126B700950175108100C0050C0941
:1006500001A101850419012AA002150126A0029515
:100660000175108100C005010906A101050719E007
:1006700029E7150025019508750181029501750886
:1006800081010507190029FF150026FF0095067551
:100690000881000508190129059505750191029544
:1006A0000175039101C011241FBECFEFD4E0DEBF5E
:1006B000CDBF04B603FE27C08091110390911203B1
:1006C000A0911303B09114038730904BA740B04B17
:1006D000D1F410921103109212031092130310928E
:1006E000140314BE84B7877F84BF0FB6F894A8950F
:1006F00080916000886180936000109260000FBE5E
:10070000E0E0F8E3099511E0A0E0B1E0EAEDF3E6FE
:1007100002C005900D92AA3EB107D9F723E0AAEED8
:10072000B1E001C01D92A131B207E1F70E949D2AFC
:100730000C9495310C94000081E0089581E00895B7
:100740000C949E0308950C94A2031F93CF93DF9300
:1007500000D000D00F92CDB7DEB749835A836B83A8
:100760003091450289819A8131111DC06623B9F00B
:100770002223A9F00E94ED22182F682F89819A81E7
:100780000E948A2269817A81812F0F900F900F90A9
:100790000F900F90DF91CF911F910C9424160E941F
:1007A000C122182FEFCF0E94ED2269817A81EDCF0F
:1007B000FC01262F408151816281738184810C94D8
:1007C000A503CF93DF93EC0160E00E94D803BE0144
:1007D000DF91CF910C94A303FF920F931F93CF93BC
:1007E000DF93E82FF0E0EC50FE4FF490C82FC69551
:1007F000C695C695D0E0FE01EC57FD4F0491877079
:1008000010E0082E02C0159507950A94E2F70170D2
:100810001127CC58DD4FFE01C491D0E002C0D59520
:10082000C7958A95E2F7C170DD270115110519F00A
:1008300081EE0E94701A209719F086EE0E94701ABD
:100840008F2D0E94581BCD2B19F086EE0E94021BA3
:10085000012B41F081EEDF91CF911F910F91FF901D
:100860000C94021BDF91CF911F910F91FF9008957F
:10087000EF92FF921F93CF93DF93EC01162F8881A5
:10088000882309F451C0813009F04BC0898181303F
:1008900099F47E0122E0E20EF11C8A810E94581B2D
:1008A000E7012196812F815050F3EFE9FFE0319766
:1008B000F1F700C00000F7CF823041F47E0182E002
:1008C000E80EF11C8A810E94701AEACF833041F44D
:1008D0007E01E2E0EE0EF11C8A810E94021BE0CF55
:1008E000843011F02196DDCF2A81229690E080E0BD
:1008F000FE0131962053330B2A30310548F0019721
:1009000080F2EFE9FFE03197F1F700C00000F7CF88
:100910006AE070E00E942830820F931F2981EF0166
:10092000E7CF0E94EC03BDCFDF91CF911F91FF90E5
:10093000EF90089560E00C9438048F929F92AF92EC
:10094000BF92CF92DF92EF92FF920F931F936B01B2
:100950007C0181E090E0A0E0B0E04C015D0104C0CA
:10096000880C991CAA1CBB1C4A95D2F7B501A4019E
:100970004C015D0104C0880C991CAA1CBB1C2A9563
:10098000D2F7482959296A297B2904C0880F991F61
:10099000AA1FBB1F0A95D2F78A019B010C211D21BA
:1009A0002E213F21041715072607370789F48C29C4
:1009B0009D29AE29BF29BC01CD011F910F91FF9048
:1009C000EF90DF90CF90BF90AF909F908F90089561
:1009D00080959095A095B0958C219D21AE21BF2149
:1009E000EACF0F93382F262F60919C0270919D02C1
:1009F00080919E0290919F02042F432F0E949D049C
:100A00000F910C94C8210E9432260E943724811134
:100A100002C00E94DD240E94C0120C9481070C9435
:100A2000840708950E94E71D0E9411052FEF84E3BB
:100A30009CE0215080409040E1F700C000000C9401
:100A40000C260F931F93CF93DF93EC0161E00E947C
:100A5000D8038C01BE010E94B0138823B9F1BE01F6
:100A6000C8010E94A003882389F1BE01C8010E9429
:100A70006411882359F1BE01C8010E947A178823A6
:100A800029F1BE01C8010E94CC178823F9F0BE01EC
:100A9000C8010E94EF188823C9F0BE01C8010E9456
:100AA000FA0F882399F08A81882339F001158CE5A3
:100AB000180751F00E3D1C4579F0CE01DF91CF9122
:100AC0001F910F910C949C030E94120580E0DF910E
:100AD000CF911F910F9108950E94DD24F7CF0895C3
:100AE0000C946F0581E008950C947205CF93C82F84
:100AF0000E9470058C2FCF910C94740590E080E0DB
:100B000008950895FC01EE0FFF1FEC56FD4F8591EF
:100B100094910895CF93DF930E9424160E94A60615
:100B2000EC01811520E5920708F042C0811530E400
:100B3000930708F0BFC0883E910528F5803E9105D7
:100B400008F0A0C0883A910588F4853A910508F02C
:100B500092C08130910509F495C0009709F492C0C4
:100B6000049708F08FC0D0E0C0E08CC08F3B9105A7
:100B700008F48CC0805C9109C03CD105A0F30E94B0
:100B80008205EC017FC0811540E2940750F4C11545
:100B900081E0D80708F076C0C03FD10520F3D065CA
:100BA00071C0811520E3920708F07BC09F70E7CFEA
:100BB000811535E5930770F5811544E5940708F034
:100BC000ADC0C11582E5D80750F4C11521E5D207A3
:100BD00008F473C0DC2FCC27C16FD06A53C09C2FA0
:100BE000969596959E0123703327C115D34508F03D
:100BF00083C0C1E0D0E002C0CC0FDD1F2A95E2F730
:100C0000892F90E0E5E0880F991FEA95E1F7C82B5E
:100C1000D92B70C0C11589E5D807A8F4C11528E5FE
:100C2000D20708F080C0C11536E5D30708F09BCF86
:100C30008C2F0E943D07C82FD0E0DC2FCC27CC277B
:100C4000DF71D0621FC0C1154AE5D40708F470C037
:100C5000CE0190568115904208F085CF8D2F8F716F
:100C60000E943D0790E0982F882788279F719C015C
:100C70002C2BE901E6CFC55AD0E0C55ADE4FC8811A
:100C8000D0E0D064CE01DF91CF910895C85AD0E072
:100C9000CC0FDD1FC35DDE4F0990D881C02DD46419
:100CA000F1CF9927D3FF03C0EC01D86CEBCFEC0157
:100CB000D06CE8CFDF70D06AE5CFCE01A4E0969586
:100CC0008795AA95E1F783702C2F2695269523709A
:100CD00030E0B5E0220F331FBA95E1F7382B8C2FA7
:100CE0008370C1E0D0E002C0CC0FDD1F8A95E2F72F
:100CF000C22BD32BDC68C6CFC1E0D0E002C0CC0F42
:100D0000DD1F2A95E2F7892F90E075E0880F991F83
:100D10007A95E1F7C82BD92BDA68B4CFD82FCC2736
:100D2000C46FD06AAFCFDC2FCC27C06FD06AAACFF8
:100D30008C2F8F700E943D0734E0D695C7953A9569
:100D4000E1F7CF709C2FEC01D0699CCF82389105E0
:100D5000B1F1B0F48133910509F475C048F48932DA
:100D6000910509F469C08A32910509F473C00895A8
:100D70008533910509F459C08933910501F108952E
:100D8000833E9105A9F138F4803E9105F9F0823E49
:100D9000910549F10895863E9105A9F1873E910597
:100DA000C9F1843E910519F52091030321FF1FC06D
:100DB0008091020384FD14C087EE90E00895209195
:100DC00002032370A1F080EE90E0089520910203C9
:100DD00020FD47C03091030330FF09C024FF44C009
:100DE00090E080E004C02091020322FDF7CF089537
:100DF0002091020322FD3BC03091030330FDE3CF7D
:100E000024FFF5CFEDCF2091020323FFF0CF24FD87
:100E1000E7CFD2CF2091020323FD2CC030910303F2
:100E200031FFEECF84EE90E008952091020325FF7C
:100E3000DECF89E290E008952091020325FFD7CF0D
:100E400085E390E008952091020326FFD0CF8AE247
:100E500090E008952091020326FFC9CF81E390E03E
:100E6000089589E390E0089583EE90E0089582EE7E
:100E700090E0089586EE90E008959091020392FF2D
:100E800006C0282F28712830F9F4877F846093FFEB
:100E900006C0282F28712831F1F4877E84612091C3
:100EA000030320FF06C0382F38713830D9F4877F0C
:100EB000816021FF06C0282F28712831D1F4877E58
:100EC000816194FD877E0895282F24712430F9F6DE
:100ED0008B7F8860DCCF282F2471243101F78B7E33
:100EE0008861DDCF382F3171313019F78E7F8860FE
:100EF000E0CF282F2171213121F78E7E8861E1CF4B
:100F000008950C94800708950C948307E82FF0E06F
:100F1000EE0FFF1FEE52FD4F8081918108950895DD
:100F200080EA8A95F1F70895CF93DF93AAE6B1E0BE
:100F30004EE651E0C1E0D0E08D91E82FE295EF70F0
:100F4000F0E061A18F709E0101C0220F8A95EAF73F
:100F5000922F9095962391A382A1822B82A34A1768
:100F60005B0751F7AEE5B1E04AE651E0C1E0D0E001
:100F70008D91E82FE295EF70F0E061A18F709E01F6
:100F800001C0220F8A95EAF7922F9095962391A39C
:100F900082A1822B82A34A175B0751F71092CB02E2
:100FA0001092CA021092D3021092D2021092CD0275
:100FB0001092CC021092D5021092D4021092CF025D
:100FC0001092CE021092D7021092D6021092D10245
:100FD0001092D0021092D9021092D80284E00E949E
:100FE0007C08DF91CF910C9403058F929F92AF9272
:100FF000BF92CF92DF92EF92FF920F931F93CF9306
:10100000DF938AE6E82E81E0F82E0AEC12E0912CBC
:10101000AA24A394B12CF70181917F01C82FC29516
:10102000CF70D0E099A18F70650101C0CC0C8A957A
:10103000EAF7892F8C2989A38AA18C2C8094882196
:101040008AA30E949007EEE5F1E050E040E030E036
:1010500020E06191A62FA295AF70B0E090968C91A0
:1010600090E06F7002C0959587956A95E2F780FDD4
:101070003EC0C501042E02C0880F991F0A94E2F7F2
:10108000282B392B4F5F5F4F4C30510511F789A149
:10109000882289A28AA1C82ACAA2F80180819181E6
:1010A0002817390739F13183208381E0982A0E5FB0
:1010B0001F4FFEE6EF16F1E0FF0609F0ACCF292D39
:1010C00044E062ED72E08AEC92E00E947D080E94AA
:1010D0000F05892DDF91CF911F910F91FF90EF9018
:1010E000DF90CF90BF90AF909F908F90089590E049
:1010F00080E0C6CF80E0DACF0895FF920F931F9370
:10110000CF93DF93F82E092F162FD72FC42F22232A
:1011100049F081E08093EC010E94C1259093EB019E
:101120008093EA018091EC018823A1F08091EA018B
:101130009091EB010E94D925069760F0EF2DF02FDA
:10114000A12FBD2F90E080E0D0E08C179D0744F0E8
:101150001092EC01DF91CF911F910F91FF900895B4
:10116000219131912D933D930196EFCFEF92FF9214
:101170000F931F93CF93DF93982F711111C04423C6
:1011800029F0E82FF0E0E25DFB4F9491692F792F71
:10119000892FDF91CF911F910F91FF90EF900895CC
:1011A000262F30E0C72FD0E0E82FF0E0442321F0D5
:1011B000E25DFB4FE491F0E0C90166E070E00E945F
:1011C00028300FEF10E0B8010E946C30DB01220FD5
:1011D000331FCB0165E570E00E942830281B390BD6
:1011E000E22EEE0CE20EC8018C1B9D0BBF010E948B
:1011F0002830292FF12CC701BE010E942830492F29
:1012000050E0C801841B950BBF010E942830392F84
:10121000C8018E199F09BE010E942830492F50E055
:10122000C801841B950BBF010E942830892F7E2F97
:10123000A230B10589F038F4109759F0119781F078
:10124000922F232F06C0A430B10569F080F01697C5
:10125000B9F7692F822F9DCF9E2F722F282FF9CF9C
:101260009E2F732FF6CF922F2E2F782FF2CF722F23
:101270002E2F932FEECF41E00C94B6080895CF9314
:10128000DF93762FE901682F842F0E943B09798331
:1012900068838A83DF91CF9108958091DA02982F35
:1012A0009E7F29F4817082608093DA0208958635EA
:1012B000E8F381708465F8CF88E090E00C943631D3
:1012C000CF92DF92EF92FF926B017C010E944D0959
:1012D000B701A60188E090E0FF90EF90DF90CF90FB
:1012E0000C9454316091DA027091DB028091DC023F
:1012F0009091DD020C946009EAEDF2E083E08083D6
:1013000011828FEF82838383148260817181828155
:1013100093810C9460098091DA0280FF02C0869567
:10132000089580E008959091DE02933018F49F5F55
:101330009093DE02882351F06091DA027091DB0213
:101340008091DC029091DD020C946009089581E0A7
:101350000C9493099091DE02992319F09150909387
:10136000DE02882351F06091DA027091DB028091F5
:10137000DC029091DD020C946009089581E00C94E8
:10138000AA098091DE0208958093DE02662351F05F
:101390006091DA027091DB028091DC029091DD02B3
:1013A0000C946009089560E00C94C4098091DB02FC
:1013B00008958091DC0208958091DD02089570E027
:1013C0000C94D612309108018091DA0280FF0CC093
:1013D0008091070190E063E070E00E942830632F65
:1013E00081529D4F0C94DF092091090140910A011F
:1013F000822F90E063E070E00E942830FC01E1520F
:10140000FD4F241728F71182108212822F5F339626
:10141000F8CFA82FB62F8091DA0280FF17C0209155
:10142000090130910A01822F90E063E070E00E9490
:101430002830FC01E152FD4F231710F00C94E20913
:10144000A183B08342832F5F3396F6CF0895CF9365
:10145000DF9300D00F92CDB7DEB79091DA0290FF04
:101460000AC09E012F5F3F4F0E943F094B81698157
:101470008A810E94090A0F900F900F90DF91CF91FF
:101480000895CF93DF93EC01EC81F0E0E755FD4F39
:101490004491EAEDF2E0628181810E94270A8C8109
:1014A0008F5F8C83DF91CF910895CF93DF93EC0111
:1014B000EAEDF2E0438162818C810E94270A8C81EF
:1014C0008F5F8C83DF91CF9108950F931F93CF93FC
:1014D000DF9300D00F92CDB7DEB78C018091ED0184
:1014E00081110AC09E012F5F3F4F4FEF6FEF0E94A7
:1014F0003F098A818093ED01F8016481613069F0D0
:101500008091ED0140E0662361F040E0623011F42B
:101510004091ED0180E060E004C06091ED0140E0A9
:1015200080E00E94090AF801848190E0019663E05E
:1015300070E00E94803084830F900F900F90DF91B5
:10154000CF911F910F910895AF92BF92CF92DF92EA
:10155000EF92FF920F931F93CF93DF9300D00F92E0
:10156000CDB7DEB7182FF62E042FE22E9091DA02B7
:1015700090FF29C0E92FE695AE2FB0E0A259BE4FEB
:101580008C91809329029E7F923059F59E012F5FA6
:101590003F4F812F0E943F094B8169818A810E94C0
:1015A000090A1093DB02F092DC020093DD02EE20C8
:1015B00051F06091DA027091DB028091DC0290912F
:1015C000DD020E9460090F900F900F90DF91CF9184
:1015D0001F910F91FF90EF90DF90CF90BF90AF9051
:1015E0000895823019F40091DD02DBCF863019F4C2
:1015F0001091DB02D6CF8930D9F3893191F6E951C8
:101600008E2F8170D82EE695F0E0E755FC4FA5901F
:10161000B490C12CBB2440910B01C41618F00E9459
:10162000E209BFCF2C2D30E0C501B9010E9428305E
:10163000642F70E00E946C30E12FD11014C0E60FCF
:1016400080910901820F932F911D63E070E00E9449
:1016500028309C0121523D4F402F6F2D8E2F0E942C
:101660003F09C394D8CFE61BEBCFEAEDF2E09181BE
:10167000282F438162818CE0890F0C94A40A81E0B9
:101680000C94350BEAEDF2E09181282F43816281C1
:1016900084EF890F0C94A40A81E00C94420BEAEDCC
:1016A000F2E062812CE0620F08F46FEF282F438193
:1016B00081810C94A40A81E00C944F0BEAEDF2E0D6
:1016C00062812CE0621B08F460E0282F4381818155
:1016D0000C94A40A81E00C945E0BEAEDF2E04381E5
:1016E0002CE0420F08F44FEF282F628181810C9487
:1016F000A40A81E00C946D0BEAEDF2E043812CE04A
:10170000421B08F440E0282F628181810C94A40AD6
:1017100081E00C947C0B20E00C94A40AEF92FF92E1
:101720001F93CF93DF93EC0110E0EE24EA94F12CA9
:1017300030910B01131770F00E94E2099A818C819D
:1017400090FF27C08F5F8C83DF91CF911F91FF9017
:10175000EF90089580910901810F9927991F63E007
:1017600070E00E942830FC01E152FD4F632F70E0D1
:10177000C7010E948030812F0E941F309C819F01F1
:101780004091DD026091DC02890F0E943F091F5FDA
:10179000CFCF8150D8CFAF92BF92CF92DF92EF924E
:1017A000FF920F931F93CF93DF93FC018281DFEFB2
:1017B00080FFD1E0C0E03AE0A32E80910B01C81772
:1017C000C8F00E94E2098091EF01D13009F054C0C5
:1017D000811102C080910B0181508093EF01DF9154
:1017E000CF911F910F91FF90EF90DF90CF90BF901E
:1017F000AF90089580910901CC2ED12C8C0D9D2D98
:10180000911D63E070E00E94283081529D4F7C0161
:10181000FC0111821082128204E010E0B12C809150
:10182000EF018B0D8B3014F16A2D0E945E30892FF1
:10183000082E000C990BC816D90691F48091DD0290
:1018400090E0B8010E9428309595879595958795E9
:101850009701482F6091DC028091DB020E943F09D2
:10186000BD0E01501109D9F6CF5FA7CF87FFE0CF9A
:1018700090910B01890FDCCF90E0019660910B01F4
:1018800070E00E948030A9CFCF9320910901309160
:101890000A01822F90E063E070E00E942830FC0192
:1018A000E152FD4F231720F1C0E060910B01C617F4
:1018B00028F10E94E209209105018091EE01820F3A
:1018C0008093EE0190910601920F909306011916F4
:1018D00054F4082E000C990B40910B014150550B0C
:1018E000841795071CF0219520930501CF91089549
:1018F0001182108212822F5F3396D4CFEC2FF0E04A
:1019000070E0CF010E94803090910901890F90E032
:101910002091EE01022E000C330B63E070E00E9478
:101920002830E217F307ACF020910601022E000CDC
:10193000330B2E173F076CF09C0121523D4F409115
:10194000DD026091DC028091DB020E943F09CF5FE3
:10195000ACCFFC01E152FD4F118210821282F7CF11
:101960004F925F926F927F928F929F92AF92BF92AF
:10197000CF92DF92EF92FF920F931F93CF93DF935B
:101980008C01FC01C481CC2ED12CF12CE12CA701BF
:101990009601C701B6010E943930A70196010E9445
:1019A00039302B013C0130E2C32ED12CCC1AD108A6
:1019B0000D2C000CEE08FF0825E530E040E050E07B
:1019C0000E9439304B015C01A7019601C701B601A5
:1019D0000E943930A70196010E9439309B01AC0169
:1019E000240D351D461D571DC501B4010E949430BC
:1019F000D22F822F90E02A32A0F563E070E00E949F
:101A0000283097FD019695958795C82FC095F12CA4
:101A100085E5E82EED1A80910B01F81648F10E9439
:101A2000E209F801948181E0992319F0903219F4C8
:101A30008FEF8093040180910401890FF801848362
:101A4000DF91CF911F910F91FF90EF90DF90CF909A
:101A5000BF90AF909F908F907F906F905F904F90CE
:101A6000089525E530E0A901481B590BCA01C5CFEF
:101A7000EE2DF1FCED2F809109018F0D9927991F13
:101A800063E070E00E9428309C0121523D4F4C2FB2
:101A90006091DC028E2F0E943F09F394BCCF0F931C
:101AA0001F93CF93DF938C01D0E0C0E030910B0106
:101AB0003C171D0609F074F40E94E209F8018481C4
:101AC00090E00196817099278483DF91CF911F91D7
:101AD0000F910895809109018C0F9D2F911D63E056
:101AE00070E00E942830AC0141525D4FF8019481B2
:101AF0006091DC028091DB0236953C171D0651F0A7
:101B00004CF0992349F09A014091DD020E943F096F
:101B10002196CCCF9923B9F39A0140E0F7CF9F9259
:101B2000AF92BF92CF92DF92EF92FF920F931F93EB
:101B3000CF93DF93FC01C280A48081E08483D12C09
:101B40008BE4B82E992493940FEF10E09BE4E92ED8
:101B5000F12C80910B01D81668F0DF91CF911F9185
:101B60000F91FF90EF90DF90CF90BF90AF909F903C
:101B70000C94E209CD2DD0E0CE0165E070E00E942A
:101B80002830FC01E051FE4FA1101DC013821282CB
:101B9000809109018C0F9D2F911D63E070E00E94E0
:101BA00028309C0121523D4FCE0165E070E00E943B
:101BB0002830FC01E051FE4F4281618180810E940A
:101BC0003F09D394C6CF23812223A1F1215023833F
:101BD00044813B2D321B411101C0322FCE0165E003
:101BE00070E00E942830FC01E051FE4F8091DD0240
:101BF000632F70E090E00E942830B7010E946C30A3
:101C00006283211104C0442311F01482B38222E0C4
:101C10002C1508F4BDCFCE0165E070E00E9428309D
:101C2000FC01E051FE4F8091DB0280838091DC0259
:101C30008183AECF0E941131823091400CF0A8CF49
:101C4000F2E02091DB02FC1530F40E941131B80162
:101C50000E948030282FCE0165E070E00E9428307D
:101C600080519E4FFC012083F2E02091DC02FC15A4
:101C700050F40E9411312091DC022695622F70E011
:101C80000E948030280FCE0165E070E00E9428306D
:101C9000FC01E051FE4F21831282B382948278CFFF
:101CA000EAEDF2E080818E7F8083608171818281A4
:101CB00093810E94600910922A022FEF80E792E040
:101CC000215080409040E1F700C000000C94E209F0
:101CD000EAEDF2E080818E7F808310922A022FEF5E
:101CE00080E792E0215080409040E1F700C0000082
:101CF0000C94E2096091DA02669570E04BE050E0E6
:101D00008CE091E00E942131892B19F481E08093CD
:101D10002A020E94C12590932302809322020895F3
:101D20009091DA0290FF35C09170811128C09260C5
:101D30009093DA02662351F06091DA027091DB022F
:101D40008091DC029091DD020E9460096091DA02CC
:101D5000669570E04BE050E08CE091E00E9421310C
:101D6000892BA1F010922A0281E0809325024091F4
:101D7000DD026091DC028091DB020C948B0B8B32D4
:101D800010F09465D5CF880F982BD2CF0E947A0E91
:101D9000EBCF0895682F9091DA02969581E0890F34
:101DA0008B3208F081E00C94900E81E00C94CA0E06
:101DB000682F9091DA0296958FEF890F09F48AE2E5
:101DC0000C94900E81E00C94D80E61E00C94900E6F
:101DD000EAEDF2E080818160808386950C94E50EC7
:101DE0008091DA0280FD0C94500E0C94E80E60E0B5
:101DF0000C94900E8091280281112EC00E943724ED
:101E0000811104C00E94DD240E947C090E945C09AB
:101E10006093DA027093DB028093DC029093DD0220
:101E20006E7F61F40E947C090E945C096093DA0273
:101E30007093DB028093DC029093DD020E944D09D7
:101E400010922A028091DA0280FF03C086950E94D8
:101E5000F70E81E0809328020895EAEDF2E0808198
:101E60008160808386950C94F70E0F931F93CF9318
:101E7000DF9380912A02882309F49DC08091290272
:101E8000E091DA02E695E81BE09324028230C9F57E
:101E9000F0E0EB55FD4FE491CE2FD0E001E41AE0E5
:101EA00080912502882389F0109225020E94C12585
:101EB0009E0120953095820F931F9093230280936B
:101EC0002202109227021092260280912202909103
:101ED00023020E94D9258C179D0708F46CC0E0915D
:101EE0002202F0912302CE0FDF1FD0932302C09372
:101EF000220282E292E0F801DF91CF911F910F91CF
:101F00000994863049F4F0E0EE55FD4FE491CE2F70
:101F1000D0E005E51AE0C4CF893051F4E695F0E051
:101F2000E156FD4FE491CE2FD0E00EE81BE0B8CF94
:101F30008F3051F4E695F0E0E456FD4FE491CE2F5A
:101F4000D0E00BEC1BE0ACCF853149F4F0E0E75674
:101F5000FD4FE491CE2FD0E004E41CE0A1CFC8E215
:101F6000D0E000EB1CE0883109F49ACF833239F4D9
:101F7000E7E9F2E0C591D49105E61AE091CFC4EF0C
:101F8000D1E00FE41DE0843209F48ACFC0EDD7E040
:101F90000EE319E0853209F083CF8E2F63E00E94B3
:101FA0005230E92FF0E0EC56FD4FE491CE2FD0E017
:101FB0000FE81DE075CFDF91CF911F910F9108952C
:101FC000FA01811101C0FB010994CF93DF93C82F5F
:101FD000D62F0E948B098C1740F00E948B098D1719
:101FE00020F4DF91CF910C94D50E8C2FDF91CF91FF
:101FF0000C94E50E0F931F93CF938C01FB01C281CC
:10200000CC2309F465C00E9482238272F801E25C4D
:10201000FC45E431F10538F4E956FE4C0C94B63039
:102020000E94F00EC0E08C2FCF911F910F91089568
:1020300042EE5EE065ED7EE00E94E00FF3CF45EDFD
:102040005EE062EE7EE0F8CF4CE45BE06FE37BE0C5
:10205000F3CF4FE35BE06CE47BE0EECF4AE65BE07E
:102060006BE57BE0E9CF4BE55BE06AE67BE0E4CF44
:1020700048E85BE069E77BE0DFCF49E75BE068E8E1
:102080007BE0DACF4EEB59E067EA79E0D5CF47EA5B
:1020900059E06EEB79E0D0CF81E00E94E50EC2CF2F
:1020A00065E082E00E94E50FBDCF68E086E0FACFF0
:1020B0006EE089E0F7CF64E18FE0F4CF67E185E17E
:1020C000F1CF88E1EACF62E289E1ECCF83E2E5CFAC
:1020D000C1E0A9CF8091FD020C9469248091FD029A
:1020E00086958695869508958091FD0281FD07C0AD
:1020F00082608093FD020E9469240C943512089539
:102100008091FD0281FF07C08D7F8093FD020E94B8
:1021100069240C943F1208958091FD0281FD0C9476
:1021200080100C9474108091FD0286958170089542
:102130008091170108950E943724811102C00E94E6
:10214000DD240E9465248093FD02883320F087708F
:1021500080638093FD029091FD02892F817090FF32
:1021600004C0892F8695869586950C94F1118091EF
:10217000FD02982F969596959695963040F49F5F20
:10218000990F990F990F8770892B8093FD02809189
:10219000FD0281608093FD020E9469248091FD020E
:1021A0008695869586950C94F1118091FD02982F65
:1021B000987F79F088508093FD02887F91E009F440
:1021C00090E08091FD0290FB80F98093FD020E94D7
:1021D00069248091FD028695869586950C94F1116F
:1021E0008091FD0280FD13C081608093FD028130EB
:1021F00019F489E08093FD028091FD020E94692418
:102200008091FD028695869586950C94F11108952E
:102210008091FD0280FF08C08E7F8093FD020E94A6
:10222000692480E00C94F11108958091FD0280FDF5
:102230000C9408110C94F0109091FD02892F869552
:10224000869586958F5F8F7197708730D8F4880F49
:10225000880F880F892B8093FD028091FD02887F73
:1022600091E009F490E08091FD0290FB80F9809369
:10227000FD020E9469248091FD02869586958695CF
:102280000C94F1119093FD02E8CF873008F086E0BE
:102290009091FD029770282F220F220F220F922B70
:1022A0009093FD02987F21E009F420E09091FD02D7
:1022B00020FB90F99093FD020C94F1110E944511BE
:1022C0008091FD020C946924FC01DB0112968C9133
:1022D0008823F9F0EB5BFC45E730F105D8F4E555D0
:1022E000FE4C0C94B63086E00E945E1180E00895AA
:1022F00080E0FACF0E94D510F9CF0E94B710F6CF38
:102300000E941511F3CF0E941C11F0CF0E948C1077
:10231000EDCF81E00895529A5A9808955A9A0895F7
:102320005A980895CF92DF92EF92FF928C3724E172
:10233000920750F469E070E00E946C30CB01FF908E
:10234000EF90DF90CF900895B0E0A0E0BC01CD0108
:102350006A50774D8F4F9F4F982F872F762F662784
:1023600025EF38E241E050E00E94943069017A01A3
:10237000CA01B9010E943930A70196010E94393083
:10238000672F782F892F99276115710521E0820722
:102390009105A1F66FEF7FEFD1CF1F920F920FB68D
:1023A0000F9211242F933F934F935F936F937F93DB
:1023B0008F939F93AF93BF93EF93FF930E949011DE
:1023C000FF91EF91BF91AF919F918F917F916F910D
:1023D0005F914F913F912F910F900FBE0F901F90E3
:1023E0001895CF93C82F873068F581112CC0809144
:1023F000880090918900892B51F080916F008D7F2A
:1024000080936F0080916F008E7F80936F000E9499
:1024100090116C2F70E090E080E02FEF3FEF40E0F4
:1024200050E00E94393026E030E040E050E00E9469
:102430009430C9010E949211909389008093880082
:10244000CF910895C6E08091880090918900892BF2
:1024500001F780916F00826080936F0080916F0020
:10246000816080936F00D5CF089510922D02109255
:102470002C0210922E0281E080932B02089510927C
:102480002B020E946E100C94F111CF930E949810B1
:10249000E0912C02F0912D02319690E064EF70E013
:1024A0000E9428309C01CF01B9010E946C309093AA
:1024B0002D0280932C02B901660F672F661F770BE0
:1024C00071950E946C306F7780912E02823029F4D2
:1024D000603439F410922B0204C0813011F46F374C
:1024E000C9F3E62FF0E0E255FC4FC4910E946E1054
:1024F000282F8C2F90E061E071E00E94283066E088
:1025000070E00E946C30CB01622F70E00E94283096
:102510000E9492119093890080938800CF91089532
:102520001F920F920FB60F9211242F933F934F9348
:102530005F936F937F938F939F93AF93BF93EF932B
:10254000FF9380912B0281110E9445128091880097
:10255000909189008130914010F00E948E11FF917E
:10256000EF91BF91AF919F918F917F916F915F910B
:102570004F913F912F910F900FBE0F901F90189584
:102580000E948B1182E08093800089E1809381001A
:102590008FEF9FEF90938700809386000E949B109F
:1025A0000E94931081110C94351208959C01CB0167
:1025B0003A9A48B14B7FE8B1E460FFB7F89463E022
:1025C00070E00E942830820F931F8217930741F416
:1025D000FFBF8FE594E00197F1F700C00000089578
:1025E000D9015D919D0168E0E8B9000000C057FF86
:1025F00048B9550F000000C000C000C048B900C075
:102600006A9591F7E2CF08950C9403132198299AC3
:1026100022982A9A83B1869581701A9905C090E014
:10262000892B80933102089592E0FACFE091310234
:10263000EE0FEE0FE093310243B141FB882780F9A2
:1026400043B142FB222720F942FF02C022E030E0E2
:10265000822BE82BE0933102EF70F0E0E756FE4F5B
:10266000808190913002890F8093300284304CF049
:1026700080912F028F5F80932F0260E080E00E94A4
:102680000413809130028D3F4CF480912F028150D1
:1026900080932F0261E080E00E9404138091300259
:1026A000837887FF03C081508C6F8F5F80933002E7
:1026B000089582E290E00E942E31823289F483E212
:1026C00090E00E942E31843059F484E290E00E9420
:1026D0002E3191E0843209F090E0892F81700895C5
:1026E00080E0FCCFCF93C82F6FEF811162E282E2CE
:1026F00090E00E9442316FEFC11164E083E290E00C
:102700000E9442316FEFC11164E284E290E0CF9108
:102710000C94423180E00E9472130C94312408958D
:1027200085E290E00E942E31682F70E090E080E01A
:10273000089585E290E00C9442310E948F130E942C
:10274000591381110CC060E070E0CB010E94991315
:102750000E949C150E94881681E00C9472130895C3
:10276000CF93FB01C281CC2309F19C0122513F454B
:102770002031310520F582510E949816C0E08C2F3F
:10278000CF91089581E00E94EE2143E062E081E074
:102790000E94F104F3CF81E00E940F2243E062E047
:1027A00081E00E94F104EBCF82E0F6CF8031FFE5BB
:1027B0009F0789F381319F45B9F3C1E0E0CF8031B4
:1027C000EFE59E07F9F281319F45C9F682E0DBCF44
:1027D0002FEFFC0120830895CF93DF93EC018881D4
:1027E000893029F08A3081F0DF91CF9108950E94DD
:1027F0006E1090E06FEF70E00E94283066E070E0AD
:102800000E946C306983F0CF0E9493108983ECCFD3
:10281000FC018081893019F08A3071F0089581813E
:1028200090E066E070E00E9428306FEF70E00E9458
:102830006C30862F0C9445118181811102C00C945B
:1028400080100C947410CF93DF93EC018881813851
:10285000A9F028F4803871F0DF91CF910895823883
:1028600081F08338C9F70E94D60989830E94D9096B
:102870008A83F2CF0E94DC098983EECF0E948B0904
:10288000FBCF0E94C109F8CFCF93DF93EC01888181
:102890008138E1F028F4803869F0DF91CF91089514
:1028A000823811F18338C9F70E94DC09482F6A8108
:1028B000898108C0D9810E94D909C82F0E94D609F0
:1028C0004D2F6C2FDF91CF910C948B0B89810E943F
:1028D000F70E8981811104C0DF91CF910C94680EAD
:1028E000DF91CF910C942D0F8981DF91CF910C94C2
:1028F000D309DF92EF92FF920F931F93CF93DF9351
:10290000EC01D62EDC01ED918D01E150E33108F0B0
:10291000C9C0F0E0EE54FE4C0C94B630198289E048
:102920008A836D2DCE01DF91CF911F910F91FF9082
:10293000EF90DF900C94A4298981823069F0833074
:1029400071F08130D9F40E94CD250E94BC306A8399
:102950007B838C839D83E5CF0E949013F6CF7E010D
:1029600010E0812F0E948607F701928383831F5F07
:10297000F2E0EF0EF11C1430A1F7D3CF6D2DCE0194
:102980000E94E813CECF89818230C1F76A817B81B2
:102990008C819D810E94BC300E949913C2CF4B81D3
:1029A0006A8189810E946E159827892798279D83BF
:1029B0008C83B7CF2C813D813227232732274B814F
:1029C0006A8189810E948715ACCF0E949C15A9CF8E
:1029D000CD010E940814C8010E944414A2CFCD0169
:1029E0000E94EC13C8010E9423149BCF0E946A101E
:1029F0000E94720996CF0E943116898392CF0E945D
:102A000033169827892798279A8389838ACF6B81E1
:102A100070E089819A81AE014C5F5F4F98278927CA
:102A200098270E9436167DCF6B8170E089819A814C
:102A3000AE014C5F5F4F9827892798270E945D164B
:102A400070CF0E9488166DCF0E945515D6CF6B812E
:102A500070E089819A81AE014C5F5F4F982789278A
:102A600098270E94D4155DCF6B8170E089819A818F
:102A7000AE014C5F5F4F9827892798270E94FA156F
:102A800050CF0E948A134DCF0E94A4292FEF81EED0
:102A900094E0215080409040E1F700C000000E9487
:102AA0000C263FCF8FEF88833CCF84E00895E82F3A
:102AB000862F90E068E170E00E942830242F30E0FB
:102AC000220F331F280F391F8E2F90E060E670E031
:102AD0000E942830820F931F869608950F931F93AC
:102AE000CF93DF930E9457158C010E942E31C82F7F
:102AF000D0E0DC2FCC27C80101960E942E319E0128
:102B0000282BC901DF91CF911F910F9108950F9349
:102B10001F93CF93DF93122F032F0E945715EC01C1
:102B2000602F0E944231612FCE010196DF91CF913B
:102B30001F910F910C944231AF92BF92CF92DF92CE
:102B4000EF92FF921F93CF93DF9384E7C82E80E02C
:102B5000D82ED0E07601C0E014C0F5012591349163
:102B6000412F6C2F8D2F0E94871582E0A80EB11C7B
:102B70001F5F1C3091F788E1E80EF11CCF5FC43075
:102B800019F0570110E0E9CFDF5F80E6C80ED11CD5
:102B9000D43001F7DF91CF911F91FF90EF90DF903C
:102BA000CF90BF90AF900895EF92FF920F931F9335
:102BB000CF93DF93EC018A017C01E60EF71ECE0174
:102BC0008696CE15DF0539F4DF91CF911F910F91D5
:102BD000FF90EF900895C03821E0D20740F40E94A2
:102BE0002E31F80180830F5F1F4F2196E8CFF80147
:102BF0001082F9CFCF92DF92EF92FF920F931F9343
:102C0000CF93DF937C016A018C01060F171FEC0143
:102C1000CE018696C017D10749F4DF91CF911F915D
:102C20000F91FF90EF90DF90CF900895C03821E092
:102C3000D20740F4FE01EE19FF09EC0DFD1D608185
:102C40000E9442312196E4CF462F843038F474300C
:102C500028F46C3018F4672F0C946E1590E080E027
:102C6000089580E108958AE592E00895EF92FF9239
:102C70000F931F93CF93DF93EC018A017C01E60E43
:102C8000F71ECE018A559E4FCE15DF0539F4DF9130
:102C9000CF911F910F91FF90EF900895CA3522E0D8
:102CA000D20740F40E942E31F80180830F5F1F4F3E
:102CB0002196E7CFF8011082F9CFCF92DF92EF9201
:102CC000FF920F931F93CF93DF937C016A018C01D6
:102CD000060F171FEC01CE018A559E4FC017D10772
:102CE00049F4DF91CF911F910F91FF90EF90DF900A
:102CF000CF900895CA3522E0D20740F4FE01EE19C4
:102D0000FF09EC0DFD1D60810E9442312196E3CF49
:102D1000CF93DF93C6EAD1E060E0CE010E9442315A
:102D20002196C11584E0D807B9F7DF91CF910895B6
:102D3000DF92EF92FF920F931F93CF93DF9300D018
:102D400000D0CDB7DEB7F82E8FE08F1540F08FEFB3
:102D500093E00E942E3106EA11E08823C1F00F9023
:102D60000F900F900F90DF91CF911F910F91FF90D7
:102D7000EF90DF900895011584E0180781F3C801F2
:102D80000E942E31811101C0FA940F5F1F4FF11084
:102D9000F2CF19821A821B821C82DD24D39478011F
:102DA0008FEFE81AF80AC8010E942E3189831A822F
:102DB0008823A9F29FEF980F933078F48A83D98201
:102DC0000E5F1F4FC7010E942E318B83882339F27B
:102DD000CE0101960E949A04E2CF8701F9CFAF920B
:102DE000BF92CF92DF92EF92FF920F931F93CF93F8
:102DF000DF937C015B01C42FD22FFC0182818823E9
:102E0000F9F0409334020E94C125909333028093DD
:102E1000320280E28C0F883008F061C0C77081E018
:102E200001C0880FCA95EAF7DF91CF911F910F91EA
:102E3000FF90EF90DF90CF90BF90AF900C946B1B02
:102E400010913402141340C08091320290913302E9
:102E50000E94D9256C01B701C5010E946320C816E4
:102E6000D90690F5C0E2CD0F1D17B9F080E2810FB1
:102E7000883040F4177081E001C0880F1A95EAF796
:102E80000E94721BC83048F481E09D2F977001C0EA
:102E9000880F9A95EAF70E946B1B802F0E94581B9F
:102EA000C830E8F4D77081E001C0880FDA95EAF7FE
:102EB000DF91CF911F910F91FF90EF90DF90CF9016
:102EC000BF90AF900C94721B80E28C0F883038F466
:102ED000C77081E001C0880FCA95EAF7E9CFDF919A
:102EE000CF911F910F91FF90EF90DF90CF90BF9007
:102EF000AF9008950F939C01CB01233F4CE534071D
:102F000059F1A8F4283DFCE53F0701F1293D4CE5C6
:102F10003407D1F1273D3C4591F406E221EE41EE24
:102F200067ED7CE50E94EF1680E00F910895253F44
:102F3000FCE53F07E9F0B0F0263F3C45F9F0FC0125
:102F40008281882339F110923402EFCF07E225EE17
:102F500045EE68ED7CE5E6CF06E221EE40EE63EF5C
:102F60007CE5E0CF07E225EE44EE64EF7CE5DACFC6
:102F700006E221EE42EE65EF7CE5D4CF07E225EED6
:102F800046EE66EF7CE5CECF08E221E045EE69ED46
:102F90007CE5C8CF81E0C9CFCF93DF93EC01FB0183
:102FA0008281882309F419C1C230FCE5DF07C0F132
:102FB000C6319CE5D90730F09E012A5F3C45293097
:102FC000310570F50E944A24909303038093020315
:102FD000C031ECE5DE0709F4CFC008F05BC0C830B3
:102FE0008CE5D80709F4B6C088F5C430ECE5DE07F7
:102FF00009F4A8C0C0F4C2308CE5D80709F49CC01D
:10300000809102038260C330DC4509F498C080914E
:103010000203909103030E9458240E94E71D80E060
:10302000DF91CF910895809102038061C630ECE575
:10303000DE0709F484C0809102038860C730DC4554
:1030400008F47DC080910203806279C0CC308CE5A9
:10305000D80709F489C070F4809102038C60CA30EB
:10306000ECE5DE0709F46BC008F478C08091020338
:103070008E7F65C0CE308CE5D80709F479C0809189
:1030800002038B7FCF30DC4508F459C080910203E6
:103090008F7E55C0CB3FECE5DE0709F457C030F515
:1030A000C3318CE5D80709F46FC078F4C131ECE581
:1030B000DE0709F465C0C231DC4509F0A8CF0E94E3
:1030C000E71D809102038F773AC0C5318CE5D807A0
:1030D00009F462C008F476C0809103038160CA3F9E
:1030E000DC4509F094CF8093030391CFCF3FFCE5FB
:1030F000DF0709F44DC088F4809103038D7FCD3F35
:103100009CE5D90781F3809103038E7FCE3FDC4598
:1031100050F3809103038360E6CFC130FDE5DF0704
:1031200009F459C008F444C080E0C230DD4509F01C
:103130006ECF0E94DF246BCF809102038160809369
:10314000020365CF809102038460F9CF809103036D
:103150008260C9CF809102038064F1CF0E94E71D95
:10316000809102038068EBCF809102038D7FE7CFCF
:1031700080910203877FE3CF809102038F7DDFCFB1
:10318000809102038F7BDBCF80910203837FD7CFB7
:10319000809103038C7FA7CF8091020382FB992744
:1031A00090F921E0922790FB82F990FB83F9C7CF39
:1031B00080910303982F909591708E7F892B90FBBF
:1031C00081F991CF0E94E71D90910203892F97FB0F
:1031D00087F98058B4CF81E0ACCF81E021CFCF9385
:1031E000DF93EB0186319C4511F50E9482239A8181
:1031F000992399F08A7A91E009F490E0909335024E
:10320000811109C089E20E945D230E94CE2380E0E3
:10321000DF91CF91089585E3F6CF8091350281113A
:1032200004C089E20E946423F0CF85E3FBCF81E0F4
:10323000EFCF90933B0280933A020895E0913A02D7
:10324000F0913B02309721F00190F081E02D09943C
:1032500080E00895E0913A02F0913B02309721F02E
:103260000280F381E02D09940895E0913A02F091F3
:103270003B02309739F022E0DC012C930480F58189
:10328000E02D0994089520913802309139022817D1
:10329000390771F09093390280933802E0913A0235
:1032A000F0913B02309721F00680F781E02D0994E0
:1032B000089520913602309137022817390771F0AE
:1032C0009093370280933602E0913A02F0913B02EC
:1032D000309721F00084F185E02D09940895089538
:1032E00008950C946F1908950C9473190E94701925
:1032F0000C94711981E008950C947A190E94B825F4
:103300000E9494070E949D130E9446260E949B10D3
:103310000E94FA0E0E9406130C9474199F92AF92A9
:10332000BF92CF92DF92EF92FF920F931F93CF93B2
:10333000DF93CDB7DEB72A970FB6F894DEBF0FBE86
:10334000CDBF0E94F5070E947C19882309F476C03E
:103350005DE3A52E52E0B52E10E000E0902E802F08
:103360000E9486076C01F501E190F1905F01E8167B
:10337000F90609F45DC08091B10281FD0E948F07BA
:1033800097012C253D2580E0EE24E394F12CA90142
:103390004E215F21452B09F445C08E839F82CE20AC
:1033A000DF2081E0CD2809F480E088870E94C125D4
:1033B0008160782F9A8789874E815F8168858A85A9
:1033C0000E94411A000F111FF801E35CFD4F80813C
:1033D0009181E826F926F182E0820E94350F0E9451
:1033E00034120E9416130E94F5270E941E19909114
:1033F0003C028917A1F10E941E1980933C022A9673
:103400000FB6F894DEBF0FBECDBFDF91CF911F91F5
:103410000F91FF90EF90DF90CF90BF90AF909F9073
:103420000C9476058F5FEE0CFF1C8C3009F0AFCF4B
:103430000F5F1F4F0430110509F090CF8FEF898384
:103440008A831B820E94C1258160782F9D838C8393
:1034500049815A816B818D810E94411ABECF2A9683
:103460000FB6F894DEBF0FBECDBFDF91CF911F9195
:103470000F91FF90EF90DF90CF90BF90AF909F9013
:103480000895CF93DF93CDB7DEB72B970FB6F8949F
:10349000DEBF0FBECDBF4F83588769877A878B8782
:1034A0001E821D8285E0FE013796DE011196019095
:1034B0000D928A95E1F749815A816B817C818D81DA
:1034C0009E812B960FB6F894DEBF0FBECDBFDF9165
:1034D000CF910C946620FC01808191810C942F2364
:1034E000CF93C82F882309F48BC08238C1F40E947F
:1034F0001E1981FD85C089E30E945D230E94CE23B1
:103500002FEF81EE94E0215080409040E1F700C021
:10351000000089E30E946423CF910C94CE2383386A
:10352000A1F40E941E1980FD6BC083E50E945D23FB
:103530000E94CE232FEF81EE94E0215080409040F6
:10354000E1F700C0000083E5E5CF8438A1F40E94D4
:103550001E1982FD55C087E40E945D230E94CE2380
:103560002FEF81EE94E0215080409040E1F700C0C1
:10357000000087E4CFCF8CEF8C0F813A90F46C2F52
:1035800080911801909119010E94F624882329F056
:103590008C2F0E9464230E94CE238C2F0E945D23D7
:1035A000BBCF80E28C0F883048F4C77081E001C047
:1035B000880FCA95EAF70E948523AECFEBE5EC0FA2
:1035C000E33040F4F0E0E952FE4F808190E0CF918B
:1035D0000C944319E8E5EC0FE73150F4F0E0EE0FFE
:1035E000FF1FE755FE4F80819181CF910C945919AF
:1035F000C03F30F08C2F0E94EF26CF910C94DA2739
:10360000CF910895882309F452C0823871F40E9442
:103610001E1981FF4CC089E30E945D230E94CE23C6
:1036200089E30E9464230C94CE23833859F40E94CA
:103630001E1980FF3CC083E50E945D230E94CE23BB
:1036400083E5EFCF843859F40E941E1982FF2FC002
:1036500087E40E945D230E94CE2387E4E2CF9CEFA3
:10366000980F913AF0F290E2980F983050F48770EA
:1036700091E001C0990F8A95EAF7892F0E948B2368
:10368000D2CF9BE5980F933020F490E080E00C942B
:10369000431998E5980F973120F490E080E00C945E
:1036A0005919803F20F00E9457270C94DA2708957B
:1036B000CF93C82F0E94701AC93349F42FEF87EEB9
:1036C00093E0215080409040E1F700C000008C2F33
:1036D000CF910C94021B882321F00E9485230C9427
:1036E000CE230895882321F00E948B230C94CE23AF
:1036F0000895BF92CF92DF92EF92FF920F931F93A4
:10370000CF93DF936C01D62FC72FFC010581029563
:103710000F70128111110E94A2230E947B23E82EB8
:10372000882391F01123D1F08C2F807F803421F0F9
:1037300080E28D0F883090F082E00E9419240E9470
:103740007B2391E0E82EE926BC2EB2949FE0B922BB
:10375000EB2DF0E0EB53FE4C0C94B630E12CF4CFA3
:103760000C2F0F70C07F11F00295007F1123A9F07C
:10377000002359F080E28D0F883010F0D11109C07C
:10378000802F0E9485230E94CE238D2F0E94701AC5
:1037900014C0802F0E949523F6CF8D2F0E94021B0C
:1037A000002359F080E28D0F883010F0D1112CC029
:1037B000802F0E948B230E94CE232B2D2850330B69
:1037C0002430310520F40E941E190E947605EE2057
:1037D00009F49EC10E94772380FD9AC1F6011282EE
:1037E0000E9471230E94EE21C6010E94A91D0E9421
:1037F0007123DF91CF911F910F91FF90EF90DF9098
:10380000CF90BF900C940F22802F0E949B23D3CF88
:10381000FC2FFF70FF2EC07FC03219F0F29480EFB2
:10382000F822DD2369F0D13049F1112391F1002311
:1038300051F1F601858180FFA8CF8F70858323C069
:10384000112381F0011106C00E94B5238F290E9427
:103850006B1BB3CF0130C1F70E94B5238F290E94A3
:10386000BB23ABCF011106C00E94C4238F2D0E9441
:10387000721BA3CF013009F4A0CFF6CF112329F09A
:10388000063008F09ACF8F2DE2CF053008F095CFA3
:10389000EDCF002359F3D93349F4FFEF27EE33E09E
:1038A000F15020403040E1F700C000008D2F0E9411
:1038B000021B83CF8C2F86958695837069F08130AB
:1038C00009F07BCF8D2F9C2F9370111102C090E0D7
:1038D00080E00E94591971CF8D2F9C2F9370111188
:1038E00002C090E080E00E94431967CF8D2F112322
:1038F00029F00E94EF260E94DA275FCF0E94572707
:10390000FACF8C2F837009F041C0111156CF4D2F83
:10391000429546954770440F440F0D2F0F7010E0ED
:1039200030E020E0042E04C0000F111F221F331FBF
:103930000A94D2F760E070E0CB01D4FF0FC06FE0D3
:1039400070E080E090E004C0660F771F881F991F29
:103950004A95D2F76095709580959095C695C695D5
:10396000C370602B712B822B932BC23049F058F41B
:10397000C13019F00E94A02120CF0E948E211DCFBE
:103980000E94B2211ACF0E948C2117CF8695112355
:1039900011F08C2F8170882309F40FCF4D2F4295A1
:1039A00046954770440F440F0D2F0F7010E030E024
:1039B00020E0042E04C0000F111F221F331F0A94A1
:1039C000D2F760E070E0CB01D4FF0FC06FE070E091
:1039D00080E090E004C0660F771F881F991F4A950A
:1039E000D2F76095709580959095C695C695C370F1
:1039F000602B712B822B932BC23049F058F4C130CD
:103A000019F00E946522D9CE0E945322D6CE0E9480
:103A10007722D3CE0E94C821D0CECF70112329F0B7
:103A20008C2F0E94EE218D2F12CF8D2F0E94721BA2
:103A30008C2F0E940F22C1CED23F89F160F4D03F7B
:103A4000C9F0D13F29F1112309F442C001119DCEE3
:103A50008C2F8F7121C0D33F39F1D43FA1F71123AF
:103A600069F1CF718C2F0E94EE2163E08C2F0E94B0
:103A70000424A3CE112341F0053008F09ECE8C2FF4
:103A80008F710E94322299CE063008F096CEF7CF81
:103A90008C2F8F71112369F20E94EE218ECE8C2F14
:103AA0008F711123C9F3C5CF112329F08C2F8F718A
:103AB0000E94D92182CE0E94D4217FCE81E00E9433
:103AC0001924023008F479CE82E00E94192475CEC0
:103AD000002359F0D93309F0E9CE8FEF97EEE3E0F8
:103AE00081509040E040E1F7DFCE8C2F8F71A1CF65
:103AF0004C2F4F706D2FC6010E947E050E9404213D
:103B00005CCE4C2F4F706D2FC6010E94810555CEA3
:103B1000DF91CF911F910F91FF90EF90DF90CF90A9
:103B2000BF9008950F931F93CF93DF93EC016881AB
:103B300079818A810E9439238C010E9489220E9406
:103B40008B21B801CE01DF91CF911F910F910C9481
:103B5000791BCF93DF93EC018B819C81892B29F01A
:103B60008881998189238F3F59F4DF91CF910895FE
:103B7000CE010E94921DCE01DF91CF910C94E10302
:103B8000CE010E9421058111F3CF0E947B2388235F
:103B900061F38A81882349F382E0DF91CF910C940D
:103BA00019240E94A2230E94B2230E94CE230E94C5
:103BB0000B290E94DA2790E080E00E94431990E0F0
:103BC00080E00C9459190E946B230C94D11D0E9423
:103BD00092230C94E31DE92FE295EF70E250EE3052
:103BE00070F4F0E0EB52FE4C0C94B630803F19F0CC
:103BF00020F4883E20F481E00895843FE1F380E0E2
:103C00000895883EC0F3813FD1F7F5CF93FB882715
:103C100080F908950E942F230C94EB1DCF93DF931E
:103C200000D000D00F92CDB7DEB70F900F900F905D
:103C30000F900F90DF91CF910895CF93DF9300D035
:103C400000D000D0CDB7DEB726960FB6F894DEBF11
:103C50000FBECDBFDF91CF910895CF93DF93C09179
:103C60004602809147028C1303C0DF91CF910895E3
:103C7000D0E0CE0166E070E00E942830FC01E85BF5
:103C8000FD4F4081518162817381848195810E94C1
:103C90001D1E2196C770E5CF4091780250917902A0
:103CA00060917A0270917B0280917C0290917D02FA
:103CB0000C941D1E1F93CF93DF9380917D02807F14
:103CC000A1F480917A02882381F020914602B0917C
:103CD000470240917802A0917902C0917B02D09175
:103CE0007C02142F1A23B21304C0DF91CF911F91CD
:103CF000089530E0209711F01F3F21F42F5F3F4FD0
:103D00002770F1CFC90166E070E00E942830FC0105
:103D1000E85BFD4F81818A13F1CF80818413EECF60
:103D200082818111EBCF838194818C1B9D0B883C18
:103D3000910520F780917D028F70806180937D02D4
:103D4000C90166E070E00E942830FC01E35BFD4F92
:103D500090819F709061908388E792E00E94A91DF6
:103D6000DF91CF911F910C942D1EAF92BF92CF92F5
:103D7000DF92EF92FF920F931F93CF93DF93CDB714
:103D8000DEB761970FB6F894DEBF0FBECDBF8C01D2
:103D900085E0F801DE011D9601900D928A95E1F70C
:103DA000F80140812181E28088E7C82E82E0D82E88
:103DB00060917B0270917C026115710509F464C108
:103DC0009091780230917902892F83238F3F09F4F3
:103DD0005BC1A380B480F0907A02F501E61BF70B7B
:103DE000FF2009F4FEC080917D02582F507FE83CEF
:103DF000F10508F0B3C051117AC0FE2C321323C074
:103E0000941321C0E1101FC08F70806180937D02E8
:103E10000E944C1EC6010E94A91D80917D02F801DE
:103E200085838F2D61960FB6F894DEBF0FBECDBF90
:103E3000DF91CF911F910F91FF90EF90DF90CF9086
:103E4000BF90AF900895AB2829F0842F82238F3F35
:103E500009F036C180E0F82FF170DF2EE0914602C4
:103E60003091470280FD20C0EE20D9F280917D0282
:103E7000816080937D02F12CD4CFF0E0CF0166E029
:103E800070E00E942830DC01A85BBD4F11968C9138
:103E90001197821307C08C91841304C012968C91E1
:103EA0008E11E2CF3196E770E313E7CF4D872E876F
:103EB0008D859E850E942F23292F22952F702230D9
:103EC00050F0243078F49F7051F0F8019581907F84
:103ED00031F4D12C0AC09F7011F08823D1F3805E99
:103EE0008830B8F3C8010E94A91DFD2C9ACF321367
:103EF00006C0941304C0F801EE2009F48EC04D876B
:103F00002E878D859E850E940A1E882319F1EE203A
:103F100009F180917D02803270F020917802309119
:103F2000790238872F831986BB86AA868C87CE01B3
:103F300007960E94A91D86E0F801A8E7B2E001906B
:103F40000D928A95E1F70E945A1E0E944C1EFF2492
:103F5000F39467CFC8010E94A91DF9CF511114C075
:103F60007A2DB98AA88A522F6E2D89890E940E1E39
:103F700088E792E00E94A91D86E0F60111928A95D9
:103F8000E9F70E944C1E77CF32130FC094130DC077
:103F9000E1100BC0F8018583C8010E94A91D86E0CD
:103FA000F60111928A95E9F73CCF4D872E878D85D2
:103FB0009E850E940A1E882369F2EE2059F28091A4
:103FC0007D02803208F4B7CF2091780230917902D7
:103FD0003A8329831B82BD82AC828E83CE010196F7
:103FE000A8CFE83CF10508F041C0FE2CEE2009F412
:103FF000B1CF32132AC0941328C080917D0280FD76
:104000001BC0982F907FC1F0F8018583903F31F05D
:10401000982F907F905F8F70892B8583C8010E94B5
:10402000A91D86E0F801A8E7B2E001900D928A95FB
:10403000E1F70E944C1EF5CE86E0F801A8E7B2E059
:1040400001900D928A95E1F7ECCE4D872E878D85F4
:104050009E850E940A1E81116ECF80917D02816033
:1040600080937D02C8010E94A91DDBCE7A2DB98AFA
:10407000A88A522F6E2D89890E940E1E86E0F601B5
:1040800011928A95E9F7D5CFEE2009F463CF4D87D9
:104090002E878D859E850E940A1EF82E882309F49E
:1040A00059CF86E0F801A8E7B2E001900D928A9519
:1040B000E1F788E792E00E946B1A0E945A1EB9CF7E
:1040C00081E08E25C8CE88EC90E00895CF93DF93F1
:1040D000CDB7DEB72C970FB6F894DEBF0FBECDBFBD
:1040E0004F83588769877A878B879C87CE0107968D
:1040F0000E94B51E8823D1F08A859B85892B39F0D3
:104100004F815885842F85238F3F09F076C0809199
:10411000460290914702891349C02C960FB6F89435
:10412000DEBF0FBECDBFDF91CF91089586E0FE01C7
:104130003796DE01119601900D928A95E1F78A85F6
:104140009B85892B21F38F81988589238F3FF9F2F5
:104150008091470290E09C012F5F3F4F27703327EB
:10416000409146024217130671F40E94E71D109217
:1041700047021092460286E0E8E7F2E0DF011D9276
:104180008A95E9F7C4CF66E070E00E942830DC0130
:10419000A85BBD4F96E0FE01319601900D929A9575
:1041A000E1F7209347020E942D1EB1CF90E066E018
:1041B00070E00E942830885B9D4F0E94B51E8823C6
:1041C00009F4ABCF8091460290E066E070E00E9477
:1041D0002830FC01E85BFD4F408151816281738191
:1041E000848195810E941D1E8091460290E0019677
:1041F00087709927809346028ACF69857A858B8557
:104200009C850E941D1E83CFEF92FF920F931F93F8
:10421000CF93DF938C01892B81F0F12CEE24E39472
:10422000E8012196F8018491843770F4843008F015
:104230005FC08130B1F08230A1F1DF91CF911F9149
:104240000F91FF90EF900895853709F44CC008F462
:104250003DC09CE7980F903780F78F770E94021B34
:1042600049C00E5F1F4FFE01849190E2980F983075
:1042700060F48770FE2D01C0FF0F8A95EAF78F2F3B
:104280000E94A5230E94CE2302C00E94701A8F2D87
:10429000815030F2EFE9FFE03197F1F700C0000004
:1042A000F7CF0E5F1F4FFE01849190E2980F983078
:1042B00050F48770FE2D01C0FF0F8A95EAF78F2F0B
:1042C0000E94AB23DFCF0E94021BE1CF0E5F1F4F86
:1042D000FE01C491C150D8F28FE99FE00197F1F738
:1042E00000C00000F7CF0E5F1F4FFE01F490CFCF4C
:1042F0000E94701A8E01CBCF08950C947C210E94ED
:104300007D216093A0027093A1028093A2029093FA
:10431000A3020C94D11D08950C947F210F931F9339
:104320000091A0021091A1022091A2023091A3025B
:10433000602B712B822B932B1F910F910C947F215B
:104340000F931F930091A0021091A1022091A2024D
:104350003091A30260237123822393231F910F9135
:104360000C947F210F931F930091A0021091A10242
:104370002091A2023091A302602771278227932700
:104380001F910F910C947F210C947C210C94C421DB
:104390000E94C62160939C0270939D0280939E02AE
:1043A00090939F020C94D11D60E070E0CB010C94BF
:1043B000C8210F931F9341E050E060E070E08A0154
:1043C0009B0104C0000F111F221F331F8A95D2F7D3
:1043D000C901B8011F910F910C94C8210F931F932D
:1043E00041E050E060E070E004C0440F551F661FDC
:1043F000771F8A95D2F780919C0290919D02A0919F
:104400009E02B0919F028A019B01082B192B2A2B37
:104410003B2BC901B8011F910F910C94C8210F9338
:104420001F9341E050E060E070E004C0440F551F6E
:10443000661F771F8A95D2F7CB01BA0160957095F8
:104440008095909500919C0210919D0220919E0272
:1044500030919F0260237123822393231F910F9138
:104460000C94C8210F931F9341E050E060E070E08E
:1044700004C0440F551F661F771F8A95D2F780919D
:104480009C0290919D02A0919E02B0919F028A0190
:104490009B01082719272A273B27C901B8011F912B
:1044A0000F910C94C8210F931F9300919C021091BF
:1044B0009D0220919E0230919F02602B712B822BD6
:1044C000932B1F910F910C94C8210F931F93009170
:1044D0009C0210919D0220919E0230919F026023C8
:1044E0007123822393231F910F910C94C8210F9362
:1044F0001F9300919C0210919D0220919E02309189
:104500009F0260277127822793271F910F910C9498
:10451000C8210895CF93DF93282F362F892F6CE081
:104520000E941F30820F982F9770E1E001C0EE0FBC
:104530009A95EAF786958695869590E065E070E015
:104540000E942830DC01A258BD4F50E040E0632FAC
:1045500070E08D91ED0121979B01042E02C03695EC
:1045600027950A94E2F72170219528272E232827E2
:1045700028834F5F5F4F4530510559F7DF91CF9149
:104580000895282F892F6CE00E941F30820FA82FDA
:10459000A77086958695869590E065E070E00E940C
:1045A0002830FC01E258FD4F50E040E080E02191CE
:1045B00030E00A2E02C0369527950A94E2F7217062
:1045C0003327042E01C0220F0A94EAF7822B4F5F93
:1045D0005F4F4530510559F70895BF92CF92DF9252
:1045E000EF92FF920F931F93CF93DF938C01C090B4
:1045F0009C02D0909D02E0909E02F0909F028091DC
:10460000A0029091A102A091A202B091A302C82A97
:10461000D92AEA2AFB2ACFE1D0E0BC2ED701C60175
:104620000C2E04C0B695A795979587950A94D2F756
:1046300080FD0EC0219788F7B12C8B2DDF91CF9193
:104640001F910F91FF90EF90DF90CF90BF90089552
:10465000B8018C2F0E948A05019761F3EECFCF93AA
:10466000DF93EC010E94ED22BE01DF91CF910C940B
:104670008A051F93CF93DF93EB0190914502992315
:1046800031F0CB01DF91CF911F910C942F23882320
:1046900079F0CB010E94ED22182F682FCE010E94E5
:1046A0008A22BE01812FDF91CF911F910C948A0540
:1046B000CB010E94C122182FF4CF682F80911801DE
:1046C000909119010C942C25682F809118019091DC
:1046D00019010C942E2580911801909119010C94C8
:1046E00030258091A40285958595859508958091C2
:1046F000A402877008959091A402977081E009F454
:1047000080E008958091B00208959091B002892BC5
:104710008093B002089580959091B0029823909371
:10472000B00208951092B00208959091AF02892BC3
:104730008093AF02089580959091AF029823909353
:10474000AF0208951092AF0208959091AE02892BA6
:104750008093AE02089580959091AE029823909335
:10476000AE0208951092AE0208958091A5020895B8
:1047700008950C94B8239091A502981721F0809386
:10478000A5020C94B92308958091A502882329F0ED
:104790001092A50280E00C94B9230895E0911801CD
:1047A000F09119018091B0028083E0911801F0919D
:1047B000190180819091AF02892B8083E0911801CB
:1047C000F091190180819091AE02892B80839091A4
:1047D000A502992381F0E0911801F09119018081DF
:1047E000892B808380911801909119010E94E42403
:1047F00081110E94C42380911801909119010C9499
:104800002A1908950C940124982F990F990F990F44
:10481000962B9093A4020E94EE218091A40285958C
:10482000859585950C9402241092A40280E00C9446
:1048300002249091A402809589238093A402282FBA
:10484000277071F4282F082E000C330B92171306D3
:1048500039F08595859585950E940F220C94142436
:1048600008956FEF7FEF90E080E00C94603190E06E
:1048700080E00E943C3121E08C3E9E4F09F020E018
:10488000822F089582E090E00C942E3183E090E036
:104890000C942E31CF9384E090E00E942E31C82FEB
:1048A00081E290E00E942E31982F8C2FCF910895B5
:1048B000CF93C92F682F84E090E00E9442316C2F83
:1048C00081E290E0CF910C94423186E090E00C942C
:1048D0002E31682F86E090E00C944231AB01BC0190
:1048E0008FE090E00C945431AB01BC0183E190E087
:1048F0000C94543160E070E0CB010C94742460E0BF
:1049000070E0CB010E946E240C947A246CEE7EEF52
:1049100090E080E00E94603160E082E090E00E94E0
:10492000423160E083E090E00E9442311092A002A8
:104930001092A1021092A2021092A30260E084E001
:1049400090E00E94423160E081E290E00E944231BA
:1049500060E085E090E00E94423160E086E090E017
:104960000E9442316FEF87E090E00E94423140E0C8
:1049700050E0BA0188E090E00E94543160E08DE0A0
:1049800090E00E94423140E050E0BA0188E190E0BE
:104990000E94543160E087E190E00E94423140E0A3
:1049A00050E0BA018CE190E00E94543160E080E276
:1049B00090E00E9442310C947F240C948624682F4E
:1049C0008EE090E00C9442319C012E5F3F4FAC0191
:1049D000485F5F4F80E02417350709F40895F90117
:1049E00091919F019923B9F38F5FF5CF662349F029
:1049F000FC01329608962191261729F0E817F9074D
:104A0000D1F780E0089581E008959C01FC01329681
:104A10009FEF80E04191461751F09F3F19F44111FB
:104A200001C0982F8F5F8630A9F79F3F09F4089542
:104A3000290F311D97FD3A95F90162830895FC0114
:104A4000329608962191261303C0DF0111971C921C
:104A5000E817F907B9F708950C9405250C941F255C
:104A6000029626E0FC0111922A95E9F7089508952F
:104A700008950C9438250E943925809108038430CC
:104A800061F11092B20288E190E020E40FB6F89450
:104A9000A895809360000FBE2093600080E00E9484
:104AA000F11180E00E9476050E94392583B7817F4D
:104AB000846083BF83B7816083BF7894889583B710
:104AC0008E7F83BF0FB6F894A895809160008861AF
:104AD00080936000109260000FBE08950895CF93F8
:104AE0000E9437250E94F5070E946E25C0E08C2F9A
:104AF0000E948607892B31F4CF5FC430C1F780E074
:104B0000CF91089581E0FCCF08950C9484250E94F4
:104B1000E71D0E949B100E941E190E9476050C94AE
:104B200085251F921FB61F9211248F939F93AF93D9
:104B3000BF938091B202811113C08091FE029091C7
:104B4000FF02A0910003B09101034196A11DB11D88
:104B50008093FE029093FF02A0930003B0930103A1
:104B6000BF91AF919F918F911F901FBE1F9018957D
:104B700082E084BD93E095BD9AEF97BD80936E006F
:104B800008952FB7F8948091FE029091FF02A091B2
:104B90000003B09101032FBF08952FB7F8946091DF
:104BA000FE027091FF0280910003909101032FBFDC
:104BB00008959C014FB7F8948091FE029091FF02F6
:104BC000A0910003B09101034FBF821B930B089586
:104BD00078941F921FB61F9211248F939F93AF93C7
:104BE000BF938091FE029091FF02A0910003B091CB
:104BF00001030196A11DB11D8093FE029093FF0257
:104C0000A0930003B0930103BF91AF919F918F9147
:104C10001F901FBE1F90189581E08093E00080E2F6
:104C20008093D8001092C9008FE19EE40197F1F7BC
:104C300000C0000087E090EBDC01809311039093AB
:104C40001203A0931303B093140388E19CE00FB602
:104C5000F894A895809360000FBE90936000FFCFFA
:104C60000C948A130E94F5078FE39CE90197F1F7F2
:104C700000C000000E94F50780E00E94860780FFC8
:104C800004C00E9430260C940C2608950E943724FC
:104C9000811102C00E94DD240E9442248093B1024F
:104CA0000E944A2490930303809302030E944624A7
:104CB000682F70E090E080E00E948C2160919C025F
:104CC00070919D0280919E0290919F020C94C6214A
:104CD0008091B90280FF11C080911F0190E065E0D2
:104CE00070E00E9428309595879595958795803836
:104CF0009105B0F50097B1F1089581FF0AC0809148
:104D00001F0190E065E070E00E942830959587953E
:104D1000EECF82FF08C080911F0190E065E070E057
:104D20000E942830E4CF8091B8028823B1F020910E
:104D30001E0160911F0170E0821710F0CB01EECFD1
:104D400090E00E94283065E070E00E942830622FD9
:104D500070E00E948030CB01CACF85E090E00895DA
:104D60008FE7089581E008958091B90280FF0CC01B
:104D700060911B0170E07595679575956795611554
:104D8000710559F1862F089581FF06C060911B01BE
:104D900070E075956795F3CF60911B0170E082FD1F
:104DA0000CC06091B7026623A9F020911A0180918E
:104DB0001B0190E0621730F0BC0160387105F8F219
:104DC0008FE7089570E00E942830622F70E00E9403
:104DD0008030F3CF61E070E0D5CF81E00895803F6F
:104DE00031F40E94682681958093BD020895813F29
:104DF00019F40E946826F8CF823F31F40E94682699
:104E000081958093BC020895833F19F40E9468261F
:104E1000F8CF893F29F40E94B4268093BE020895FA
:104E20008A3F21F40E94B4268195F7CF8B3F31F45D
:104E30000E94B42681958093BF0208958C3F19F497
:104E40000E94B426F8CF843F31F48091BB02816088
:104E50008093BB020895853F21F48091BB0282605C
:104E6000F7CF863F21F48091BB028460F1CF873F6A
:104E700021F48091BB028860EBCF883F21F48091C0
:104E8000BB028061E5CF8D3F31F48091B902816032
:104E90008093B90208958E3F21F48091B902826017
:104EA000F7CF8F3FB9F78091B9028460F1CF90912D
:104EB000BC02803F59F48091BD0287FF0DC0109263
:104EC000BD0291110BC01092B80208C0813F81F45D
:104ED0008091BD0218169CF3992381F08091BE0247
:104EE0009091BF02892B09F064C01092B702089517
:104EF000823F49F497FFF0CF1092BC028091BD022F
:104F00008111ECCFE0CF833F19F41916ACF3E4CF55
:104F10002091BE02893F29F41216F4F61092BE02C7
:104F2000DBCF8A3F19F427FFD7CFF8CF2091BF02FC
:104F30008B3F29F427FFD0CF1092BF02CDCF8C3FFB
:104F400019F41216CCF3C8CF843F31F48091BB0220
:104F50008E7F8093BB02C0CF853F21F48091BB023E
:104F60008D7FF7CF863F21F48091BB028B7FF1CFFD
:104F7000873F21F48091BB02877FEBCF883F21F4EC
:104F80008091BB028F7EE5CF8D3F31F48091B902D5
:104F90008E7F8093B902A0CF8E3F21F48091B90219
:104FA0008D7FF7CF8F3F09F097CF8091B9028B7F2C
:104FB000F0CF08950E94C1259C019091BC02809180
:104FC000BD02982B21F03093B6022093B502909148
:104FD000BE028091BF02982B21F03093B40220933F
:104FE000B3028AEB92E00C943519EF92FF920F9383
:104FF0001F93CF93DF9300D000D000D0CDB7DEB7A2
:1050000086E0EAEBF2E0DE01119601900D928A95BE
:10501000E1F7E090BC02F090BD020091BE02109159
:10502000BF021092BC021092BD021092BE021092FA
:10503000BF028E2D8F2991F08091B5029091B6021A
:105040000E94D925FC012091B802222309F43FC017
:10505000809120018E171F0608F448C0802F812BF5
:1050600091F08091B3029091B4020E94D925FC0185
:105070002091B702222309F47CC080911C018E1775
:105080001F0608F485C08091BC029091BD02892B57
:105090009091BE02892B9091BF02892B11F00E9442
:1050A000DA2786E0FE013196AAEBB2E001900D927C
:1050B0008A95E1F726960FB6F894DEBF0FBECDBFF6
:1050C000DF91CF911F910F91FF90EF900895809104
:1050D000210190E06AE070E00E9428308E179F075F
:1050E00008F0BCCF2F5F2093B80202C02F3FD1F74A
:1050F000EE2051F00E9468266FEF1E140CF461E060
:105100000E941F308093BC02FF2051F00E9468264D
:105110006FEF1F140CF461E00E941F308093BD02FA
:105120008091BC02882309F499CF2091BD022223EB
:1051300009F494CF082E000C990B65EB70E00E94E7
:105140002830992371F09093BC02822F220F990B83
:1051500065EB70E00E942830992339F09093BD02EE
:105160007DCF81E08093BC02F0CF81E08093BD02CF
:1051700075CF80911D0190E06AE070E00E942830B8
:105180008E179F0708F07FCF2F5F2093B70202C0D2
:105190002F3FD1F7002351F00E94B4266FEF101675
:1051A0000CF461E00E941F308093BE02112351F085
:1051B0000E94B4266FEF11160CF461E00E941F30BC
:1051C0008093BF028091BE02882309F45CCF2091B6
:1051D000BF02222309F457CF082E000C990B65EB70
:1051E00070E00E942830992371F09093BE02822FC4
:1051F000220F990B65EB70E00E942830992339F05B
:105200009093BF0240CF81E08093BE02F0CF81E057
:105210008093BF0238CF86E0EAEBF2E0DF011D9217
:105220008A95E9F71092B8021092B7021092B9026B
:1052300008958091C8020895CF93DF9300D00F9214
:10524000CDB7DEB790910803943011F589837B8345
:105250006A839093E9008FEF9091E800815095FD6B
:1052600006C095ED9A95F1F700008111F5CF809178
:10527000E80085FF0DC050E040E063E070E0CE0143
:1052800001960E947E2B8091E8008E778093E80043
:105290000F900F900F90DF91CF910895BC0184E0A3
:1052A0000C941C29BC0183E00C941C299C0184E013
:1052B0008093E9009FEF8091E800915085FD06C042
:1052C00085ED8A95F1F700009111F5CF8091E80006
:1052D00085FF0CC050E040E066E070E0C9010E942C
:1052E0007E2B8091E8008E778093E8000895CF931D
:1052F000DF93EC0181E08093E9008FEF9091E8006B
:10530000815095FD06C095ED9A95F1F70000811149
:10531000F5CF8091E80085FF14C050E040E068E0E0
:1053200070E0CE010E947E2B8091E8008E77809302
:10533000E80088E0FE01A0ECB2E001900D928A95B1
:10534000E1F7DF91CF910895CF93FC01603221F511
:1053500080910803843001F5C091E900CF7020915D
:10536000EC00922F917020FD90E8C92B82E0809391
:10537000E9008091E80080FF0CC050E040E060E26E
:1053800070E0CF010E947E2B8091E8008E778093A1
:10539000E800CF70C093E900CF9108950895089573
:1053A0000C94872542E061EC81E00E94D52C42E21A
:1053B00061EC84E00E94D52C42E261EC82E00E9424
:1053C000D52C42E260EC83E00C94D52C80910A034A
:1053D000833009F45FC030F48130C1F1823009F4C8
:1053E0009BC008958A3009F487C08B3009F46DC0E2
:1053F000893009F04EC080910903813209F049C01B
:1054000080910D0390910E03009719F0029709F017
:1054100040C08091E800877F8093E8008091E80099
:1054200082FF33C08091F200823029F48091F10034
:105430008B7F813021F48091F1008093C8028091AC
:10544000E8008B778093E8000C94092D8091090384
:10545000813AF9F48091E800877F8093E800809199
:105460000D0390910E03892B61F468E080EC92E0CB
:1054700070E00E941C2C8091E8008B778093E800FC
:10548000089560E090E080E0F3CF809108038111FF
:10549000C5CF089580910903813AD9F780910D0312
:1054A00090910E03892BA9F78091E800877F809364
:1054B000E8008091E80080FFFCCF80912C01809370
:1054C000F1008091E8008E77BDCF80910903813291
:1054D00001F780910D0390910E03892BD1F68091F5
:1054E000E800877F8093E8000E94092D80910B03DC
:1054F00080932C010C94E71D80910903813249F6B9
:105500008091E800877F8093E8000E94092D8091B8
:105510000C038093C902089580910903813A09F030
:10552000B8CF8091E800877F8093E8008091E80001
:1055300080FFFCCF8091C902C2CFCDB7DEB7A09764
:105540000FB6F894DEBF0FBECDBF84B7877F84BF90
:105550000FB6F894A89580916000886180936000F0
:10556000109260000FBE80E890E00FB6F894809330
:105570006100909361000FBE0E9476190E94592D20
:105580000E94AC2D8091E20084608093E2007894C8
:105590000E9404300E947E1982E291E00E94191953
:1055A00013E080910803853039F10E948E198091B3
:1055B00008038430B1F71093E9008091E80082FF7E
:1055C000F0CF8091E80090E085FF09C050E040E016
:1055D00060E270E0CE0101960E94CD2B91E08091B7
:1055E000E8008B778093E8009923D9F260E2CE013E
:1055F00001960E947914D5CF0E943B258091060325
:10560000882379F20E946F25882359F20E94682B23
:10561000C8CF0C940B2B292F33272330310521F1D0
:1056200068F42130310509F449C02230310509F40C
:105630004AC090E080E030E020E029C0213231050E
:1056400081F122323105A9F76330710590F7FB0132
:10565000EE0FFF1FE352FE4F2081318166527E4FD5
:10566000FB01808190E013C099278130910599F06A
:10567000009741F08230910589F00397D1F6EEE270
:10568000F5E002C0E2E5F5E0849190E09F01FA01C7
:10569000318320830895E6E4F5E0F6CFE4E3F5E016
:1056A000F3CF6330710528F6660F771FFB01ED51CC
:1056B000FE4F2081318189E090E0E9CF82E190E0E6
:1056C00021EB35E0E4CF8BE590E026E535E0DFCF58
:1056D00084E089BD86E089BD09B400FEFDCF8091DC
:1056E000D8008F7D8093D8008091E0008260809305
:1056F000E0008091E00081FDFCCF0895AF92BF9261
:10570000CF92DF92FF920F931F93CF93DF936C01A1
:10571000EB018A010E94282DF82E811123C001156A
:10572000110539F0F80180819181C81BD90BC80E91
:10573000D91EB12CA12C2097A9F08091E80085FDFD
:1057400022C08091E8008E778093E8000115110552
:10575000A1F0F80180819181A80EB91EB182A082CA
:1057600085E0F82E8F2DDF91CF911F910F91FF9043
:10577000DF90CF90BF90AF9008950E94282D88238E
:10578000D1F2F82EEFCFF60181916F018093F100F5
:105790002197FFEFAF1ABF0ACECFAF92BF92CF9241
:1057A000DF92FF920F931F93CF93DF936C01EB0176
:1057B0008A010E94282DF82E811123C001151105A0
:1057C00039F0F80180819181C81BD90BC80ED91E10
:1057D000B12CA12C2097A9F08091E80085FD22C072
:1057E0008091E8008B778093E80001151105A1F006
:1057F000F80180819181A80EB91EB182A08285E056
:10580000F82E8F2DDF91CF911F910F91FF90DF9098
:10581000CF90BF90AF9008950E94282D8823D1F299
:10582000F82EEFCF8091F100F60181936F0121975F
:10583000FFEFAF1ABF0ACECFFC0180910F0390910A
:10584000100386179707A0F06115710529F4909150
:10585000E8009E779093E80090E06115710551F49F
:10586000911108C08091E80082FF32C080E0089565
:10587000BC01F2CF809108038823B1F18530B1F1EA
:105880008091E80083FD2EC08091E80082FDEACF80
:105890008091E80080FFE1CF2091F20030E06115B7
:1058A000710519F02830310558F091E028303105A4
:1058B00009F090E02091E8002E772093E800CDCF0A
:1058C00081918093F100615071092F5F3F4FE7CFC5
:1058D00080910803882341F0853041F08091E800F1
:1058E00083FFC0CF81E0089582E0089583E00895AA
:1058F000FC0180910F039091100386179707A0F089
:105900006115710529F48091E8008E778093E80095
:1059100090E06115710551F4911108C08091E80083
:1059200082FF33C080E00895BC01F2CF809108036C
:105930008823B9F18530B9F18091E80083FD2FC04B
:105940008091E80082FDEACF8091E80080FFE1CFFE
:105950002091F20030E06115710519F02830310511
:1059600058F091E02830310509F090E08091E8008E
:105970008E778093E800CDCF84918093F1003196AB
:10598000615071092F5F3F4FE6CF80910803882354
:1059900041F0853041F08091E80083FFBFCF81E086
:1059A000089582E0089583E00895982F953028F0B7
:1059B0008F708093E90081E008959093E900242F8F
:1059C000762F50E0981731F07091EC002091ED00A7
:1059D0005091F00021FD02C09F5FE8CF3091EB00B5
:1059E0003E7F3093EB003091ED003D7F3093ED0032
:1059F0003091EB0031603093EB007093EC0020931A
:105A0000ED005093F0002091EE0027FDE5CF80E0FF
:105A100008958091090387FF13C08091E80082FFF9
:105A200006C08091E8008B778093E80004C08091E5
:105A300008038111F2CF0895809108038823D9F3D8
:105A40008091E80080FFF8CF8091E8008E77ECCF5E
:105A50002091E4003091E50095E6A9012091EC0049
:105A6000822F817020FF06C08091E80080FF06C071
:105A700080E008952091E80022FD1AC0809108037B
:105A8000882389F0853089F08091EB0085FD0FC077
:105A90002091E4003091E50042175307F9F291504C
:105AA000E1F684E0089582E0089583E0089581E0BE
:105AB00008950E94B62D0E94B92DE0EEF0E080819D
:105AC00081608083E8EDF0E080818F77808319BC6E
:105AD000E3E6F0E0808181608083109207030895FF
