:100000000C9456030C949D030C949D030C949D0337
:100010000C949D030C949D030C949D030C949D03E0
:100020000C949D030C949D030C949D030C94402E02
:100030000C94F12E0C9415260C949D030C94CA116B
:100040000C949D030C949D030C948D120C946C26BF
:100050000C949D030C949D030C949D030C949D03A0
:100060000C949D030C949D030C949D030C949D0390
:100070000C949D032B000800150018000C004C0088
:1000800014001A0017001C00120013002961070059
:1000900009000D000E003400040016000A000B00D9
:1000A0000F003300E10006001900100036002800A0
:1000B0001D001B0005001100370038004600E3005A
:1000C0000158025850004F00E000E2002C002C00C4
:1000D00051005200350220022102240225022A008A
:1000E0001E021F02220223022602270238002000DD
:1000F00021002400250031001E001F0022002300E3
:100100002600270001000100010057002E00010019
:1001100001000100010001000100010001002903AC
:10012000010001000100010029004C05010001004F
:10013000640035000100520001002D0201000100A1
:1001400001000100010001002F00300001005100FA
:100150004F002D00010001000100500001000100CE
:100160002F0230023A003D003E00410042004500AF
:100170003B003C003F00400043004400005C0100A5
:100180000100010001000100010001000100010067
:10019000010001000100520001002D0201000100D8
:1001A00001000100010001002F003000010051009A
:1001B0004F002D000100010001005000010001006E
:1001C0002F0230023A003D003E004100420045004F
:1001D0003B003C003F00400043004400005C010045
:1001E0000100010001000100010001000100010007
:1001F0000100010000000000000000002A2B280080
:1002000000000000000000000000000000000029C5
:10021000000000002C1E3420212224342627252E05
:10022000362D3738271E1F2021222324252633333D
:10023000362E37381F0405060708090A0B0C0D0E69
:100240000F101112131415161718191A1B1C1D2F35
:100250003130232D350405060708090A0B0C0D0E55
:100260000F101112131415161718191A1B1C1D2F15
:100270003130354C0000000000000000000000009C
:1002800000000000000000007E0F00D4FFFFFFC749
:100290000000007832190A00047F3F1F64321464A2
:1002A0003214783C1E1E140A052223252628292AEA
:1002B0002C2D2F3032333536383A3B3D3E404243C9
:1002C0004547494A4C4E5051535557595A5C5E6008
:1002D00062646668696B6D6F71737577797B7D7F1A
:1002E00081838587898A8C8E90929496989A9C9E19
:1002F0009FA1A3A5A7A8AAACAEAFB1B3B4B6B8B935
:10030000BBBCBEBFC1C2C3C5C6C7C9CACBCCCDCE9C
:10031000D0D1D2D2D3D4D5D6D7D7D8D9D9DADADB7F
:10032000DBDBDCDCDCDCDCDDDDDDDDDCDCDCDCDC0B
:10033000DBDBDBDADAD9D9D8D7D7D6D5D4D3D2D24A
:10034000D1D0CECDCCCBCAC9C7C6C5C3C2C1BFBE32
:10035000BCBBB9B8B6B4B3B1AFAEACAAA8A7A5A39D
:10036000A19F9E9C9A98969492908E8C8A8987855C
:1003700083817F7D7B79777573716F6D6B6968663B
:100380006462605E5C5A5957555351504E4C4A490D
:1003900047454342403E3D3B3A3836353332302FB5
:1003A0002D2C2A292826252322FFAA7F554000002C
:1003B0000000000000000000000101020304050627
:1003C000080A0C0F1114181C2024292E33393F461B
:1003D0004C535B626A7179818A929AA2AAB2B9C1BE
:1003E000C8CFD5DCE1E7EBF0F4F7FAFCFDFEFFFE49
:1003F000FDFCFAF7F4F0EBE7E1DCD5CFC8C1B9B208
:10040000AAA29A928A8179716A625B534C463F39FB
:10041000332E2924201C1814110F0C0A0806050479
:1004200003020101000000000000000000000001C4
:1004300001010101010101010202020202020202A4
:100440000203030303030303030404040404040476
:10045000050505050506060606060707070707083A
:10046000080808090909090A0A0A0B0B0B0C0C0CED
:100470000D0D0D0E0E0E0F0F0F1010111111121287
:1004800013131414151516161717181819191A1A04
:100490001B1B1C1D1D1E1E1F202021222223242465
:1004A000252626272829292A2B2C2D2D2E2F3031A1
:1004B0003232333435363738393A3B3C3D3E3F40B3
:1004C0004142434445464748494A4C4D4E4F50519E
:1004D0005354555658595A5B5D5E5F616264656658
:1004E00068696B6C6D6F7072737577787A7B7D7EDF
:1004F0008082838587888A8C8E8F91939596989A2F
:100500009C9EA0A2A3A5A7A9ABADAFB1B3B5B7BA46
:10051000BCBEC0C2C4C6C9CBCDCFD1D4D6D8DBDD1A
:10052000DFE2E4E7E9EBEEF0F3F5F8FAFDFF0403B0
:1005300030000000160351005500410052004B00EE
:10054000200050006C005500530000000A034E00CC
:1005500061007300700000000403090409025B00DD
:10056000030100A0FA0904000001030101000921B0
:10057000110100012240000705810308000A090457
:1005800001000203000000092111010001222200E4
:100590000705820320000107050303200001090469
:1005A0000200010300000009211101000122810065
:1005B0000705840320000A120110010000000870E2
:1005C0007044530100010203010660FF0961A101AB
:1005D0000962150026FF0095207508810209631540
:1005E0000026FF00952075089102C005010902A1AF
:1005F0000185020901A10005091901290515002538
:1006000001950575018102950175038101050109B7
:100610003009311581257F95027508810609381545
:1006200081257F950175088106050C0A3802158120
:10063000257F950175088106C0C005010980A101CB
:10064000850319012AB700150126B7009501751019
:100650008100C0050C0901A101850419012AA0022D
:10066000150126A002950175108100C0050109063B
:10067000A101050719E029E7150025019508750175
:1006800081029501750881010507190029FF1500F0
:1006900026FF0095067508810005081901290595B2
:1006A0000575019102950175039101C011241FBECA
:1006B000CFEFD4E0DEBFCDBF04B603FE27C08091EC
:1006C000360390913703A0913803B09139038730F6
:1006D000904BA740B04BD1F41092360310923703E1
:1006E000109238031092390314BE84B7877F84BFF9
:1006F0000FB6F894A895809160008861809360009F
:10070000109260000FBEE0E0F8E3099511E0A0E070
:10071000B1E0E2EEF4E602C005900D92AC3EB10706
:10072000D9F723E0ACEEB1E001C01D92A633B207C9
:10073000E1F70E94212B0C9419320C9400001F93B6
:10074000CF93DF93182FC62F0E949F03D82F8823A3
:1007500089F0113039F489EFC11109C08AEF0E9484
:10076000DD1B08C0111106C0CC2349F089EA0E94A4
:10077000DD1BDC2F8D2FDF91CF911F9108958AEA29
:10078000EECF81E0089581E008950C94C3030895AD
:100790000C94C7031F93CF93DF9300D000D00F9228
:1007A000CDB7DEB749835A836B8330915E0289816E
:1007B0009A8131111DC06623B9F02223A9F00E944D
:1007C0007223182F682F89819A810E940F236981D3
:1007D0007A81812F0F900F900F900F900F90DF91E3
:1007E000CF911F910C94BE160E944623182FEFCF75
:1007F0000E94722369817A81EDCFFC01262F40810E
:1008000051816281738184810C94CA03CF93DF93F9
:10081000EC0160E00E94FD03BE01DF91CF910C94DA
:10082000C803FF920F931F93CF93DF93E82FF0E05D
:10083000EC50FE4FF490C82FC695C695C695D0E0F3
:10084000FE01EC57FD4F0491877010E0082E02C0A6
:10085000159507950A94E2F701701127CC58DD4FE2
:10086000FE01C491D0E002C0D595C7958A95E2F704
:10087000C170DD270115110519F081EE0E94F51AEE
:10088000209719F086EE0E94F51A8F2D0E94DD1B2D
:10089000CD2B19F086EE0E94871B012B41F081EED3
:1008A000DF91CF911F910F91FF900C94871BDF91E7
:1008B000CF911F910F91FF900895EF92FF921F9398
:1008C000CF93DF93EC01162F8881882309F451C060
:1008D000813009F04BC08981813099F47E0122E09A
:1008E000E20EF11C8A810E94DD1BE7012196812F17
:1008F000815050F3EFE9FFE03197F1F700C00000BD
:10090000F7CF823041F47E0182E0E80EF11C8A814B
:100910000E94F51AEACF833041F47E01E2E0EE0E48
:10092000F11C8A810E94871BE0CF843011F0219650
:10093000DDCF2A81229690E080E0FE01319620539F
:10094000330B2A30310548F0019780F2EFE9FFE0E0
:100950003197F1F700C00000F7CF6AE070E00E9425
:10096000AC30820F931F2981EF01E7CF0E94110461
:10097000BDCFDF91CF911F91FF90EF90089560E080
:100980000C945D048F929F92AF92BF92CF92DF92B0
:10099000EF92FF920F931F936B017C0181E090E037
:1009A000A0E0B0E04C015D0104C0880C991CAA1CB9
:1009B000BB1C4A95D2F7B501A4014C015D0104C0EE
:1009C000880C991CAA1CBB1C2A95D2F748295929C6
:1009D0006A297B2904C0880F991FAA1FBB1F0A958B
:1009E000D2F78A019B010C211D212E213F210417E2
:1009F00015072607370789F48C299D29AE29BF29B9
:100A0000BC01CD011F910F91FF90EF90DF90CF902F
:100A1000BF90AF909F908F90089580959095A095EE
:100A2000B0958C219D21AE21BF21EACF0F93382FA5
:100A3000262F6091B5027091B6028091B702909115
:100A4000B802042F432F0E94C2040F910C944D2230
:100A50000E94B6260E94BC24811102C00E94622519
:100A60000E94BD120C94A6070C94A90708950E9439
:100A70006C1E0E9436052FEF84E39CE021508040DD
:100A80009040E1F700C000000C9490260F931F9354
:100A9000CF93DF93EC0161E00E94FD038C01BE0166
:100AA0000E944A148823B9F1BE01C8010E94C503FF
:100AB000882389F1BE01C8010E946111882359F180
:100AC000BE01C8010E941418882329F1BE01C80183
:100AD0000E9466188823F9F0BE01C8010E94891996
:100AE0008823C9F0BE01C8010E94F70F882399F03E
:100AF0008A81882339F001158CE5180751F00E3DE5
:100B00001C4579F0CE01DF91CF911F910F910C948C
:100B1000C1030E94370580E0DF91CF911F910F91B3
:100B200008950E946225F7CF08950C94940581E002
:100B300008950C949705CF93C82F0E9495058C2F8C
:100B4000CF910C94990590E080E008950895FC0100
:100B5000EE0FFF1FEC56FD4F859194910895CF93B2
:100B6000DF930E94BE160E94CB06EC01811520E5A2
:100B7000920708F042C0811530E4930708F0BFC027
:100B8000883E910528F5803E910508F0A0C0883A7E
:100B9000910588F4853A910508F092C0813091055D
:100BA00009F495C0009709F492C0049708F08FC02B
:100BB000D0E0C0E08CC08F3B910508F48CC0805C15
:100BC0009109C03CD105A0F30E94A705EC017FC0AC
:100BD000811540E2940750F4C11581E0D80708F070
:100BE00076C0C03FD10520F3D06571C0811520E3E8
:100BF000920708F07BC09F70E7CF811535E593071A
:100C000070F5811544E5940708F0ADC0C11582E583
:100C1000D80750F4C11521E5D20708F473C0DC2FC2
:100C2000CC27C16FD06A53C09C2F969596959E0194
:100C300023703327C115D34508F083C0C1E0D0E04D
:100C400002C0CC0FDD1F2A95E2F7892F90E0E5E086
:100C5000880F991FEA95E1F7C82BD92B70C0C115F1
:100C600089E5D807A8F4C11528E5D20708F080C0A7
:100C7000C11536E5D30708F09BCF8C2F0E94620781
:100C8000C82FD0E0DC2FCC27CC27DF71D0621FC06B
:100C9000C1154AE5D40708F470C0CE0190568115FD
:100CA000904208F085CF8D2F8F710E94620790E0EF
:100CB000982F882788279F719C012C2BE901E6CF6C
:100CC000C55AD0E0C55ADE4FC881D0E0D064CE010D
:100CD000DF91CF910895C85AD0E0CC0FDD1FC35DDE
:100CE000DE4F0990D881C02DD464F1CF9927D3FF6E
:100CF00003C0EC01D86CEBCFEC01D06CE8CFDF7017
:100D0000D06AE5CFCE01A4E096958795AA95E1F744
:100D100083702C2F26952695237030E0B5E0220FA6
:100D2000331FBA95E1F7382B8C2F8370C1E0D0E0E8
:100D300002C0CC0FDD1F8A95E2F7C22BD32BDC68F3
:100D4000C6CFC1E0D0E002C0CC0FDD1F2A95E2F78C
:100D5000892F90E075E0880F991F7A95E1F7C82BED
:100D6000D92BDA68B4CFD82FCC27C46FD06AAFCFD5
:100D7000DC2FCC27C06FD06AAACF8C2F8F700E9437
:100D8000620734E0D695C7953A95E1F7CF709C2F6E
:100D9000EC01D0699CCF82389105B1F1B0F4813378
:100DA000910509F475C048F48932910509F469C0C8
:100DB0008A32910509F473C008958533910509F4C9
:100DC00059C08933910501F10895833E9105A9F138
:100DD00038F4803E9105F9F0823E910549F108957D
:100DE000863E9105A9F1873E9105C9F1843E9105A2
:100DF00019F52091280321FF1FC08091270384FD4E
:100E000014C087EE90E00895209127032370A1F08D
:100E100080EE90E008952091270320FD47C0309197
:100E2000280330FF09C024FF44C090E080E004C0E4
:100E30002091270322FDF7CF08952091270322FD5B
:100E40003BC03091280330FDE3CF24FFF5CFEDCF39
:100E50002091270323FFF0CF24FDE7CFD2CF2091AD
:100E6000270323FD2CC03091280331FFEECF84EE01
:100E700090E008952091270325FFDECF89E290E0DE
:100E800008952091270325FFD7CF85E390E00895AB
:100E90002091270326FFD0CF8AE290E00895209189
:100EA000270326FFC9CF81E390E0089589E390E00E
:100EB000089583EE90E0089582EE90E0089586EE26
:100EC00090E008959091270392FF06C0282F287183
:100ED0002830F9F4877F846093FF06C0282F28719B
:100EE0002831F1F4877E84612091280320FF06C019
:100EF000382F38713830D9F4877F816021FF06C0E0
:100F0000282F28712831D1F4877E816194FD877E56
:100F10000895282F24712430F9F68B7F8860DCCF68
:100F2000282F2471243101F78B7E8861DDCF382F83
:100F30003171313019F78E7F8860E0CF282F217111
:100F4000213121F78E7E8861E1CF08950C94A507A9
:100F500008950C94A807E82FF0E0E551FD4F80813B
:100F60000895089580EA8A95F1F70895A4E6B1E01E
:100F700061E070E08D91E82FE295EF70F0E041A123
:100F80008F709B0101C0220F8A95EAF7922F9095EE
:100F9000942391A382A1822B82A381E0AC36B8076F
:100FA00049F7AEE5B1E061E070E08D91E82FE295A0
:100FB000EF70F0E041A18F709B0101C0220F8A9574
:100FC000EAF7922F9095942391A382A1822B82A37A
:100FD00081E0A436B80749F7E3EEF2E0ABEEB2E009
:100FE0008BEE92E011921D928E179F07D9F788E041
:100FF0000E947C080C9428058F929F92AF92BF921A
:10100000CF92DF92EF92FF920F931F93CF93DF93D4
:1010100084E6A82E81E0B82E03EE12E0912CCC24B9
:10102000C394D12CF50181915F01C82FC295CF7077
:10103000D0E099A18F70760101C0EE0C8A95EAF795
:10104000892F8E2989A38AA18E2C809488218AA336
:101050000E94B207EEE5F1E050E040E020E031917F
:10106000A32FA295AF70B0E090968C9190E03F7066
:1010700002C0959587953A95E2F780FD39C08C2D91
:10108000042E01C0880F0A94EAF7282B4F5F5F4FA8
:101090004630510521F789A1882289A28AA1E82A30
:1010A000EAA2F8018081281729F1208381E0982A9B
:1010B0000F5F1F4FFCE6AF16F1E0BF0609F0B2CF9D
:1010C000292D48E06BEE72E083EE92E00E947D08ED
:1010D0000E943405892DDF91CF911F910F91FF90D0
:1010E000EF90DF90CF90BF90AF909F908F9008953A
:1010F00080E0CBCF80E0DBCF0895FF920F931F936A
:10110000CF93DF93F82E092F162FD72FC42F22232A
:1011100049F081E08093EE010E9445269093ED0115
:101120008093EC018091EE018823A1F08091EC0185
:101130009091ED010E945D26069760F0EF2DF02F53
:10114000A12FBD2FCE0FDF2FD11DEC17FD0741F4CE
:101150001092EE01DF91CF911F910F91FF900895B2
:1011600081918D93F2CFEF92FF920F931F93CF93C4
:10117000DF93982F711111C0442329F0E82FF0E07C
:10118000E25DFB4F9491692F792F892FDF91CF91E9
:101190001F910F91FF90EF900895262F30E0C72FF9
:1011A000D0E0E82FF0E0442321F0E25DFB4FE49132
:1011B000F0E0C90166E070E00E94AC300FEF10E093
:1011C000B8010E94F030DB01220F331FCB0165E52F
:1011D00070E00E94AC30281B390BE22EEE0CE20EC0
:1011E000C8018C1B9D0BBF010E94AC30292FF12C34
:1011F000C701BE010E94AC30492F50E0C801841BDA
:10120000950BBF010E94AC30392FC8018E199F0980
:10121000BE010E94AC30492F50E0C801841B950BE1
:10122000BF010E94AC30892F7E2FA230B10589F01A
:1012300038F4109759F0119781F0922F232F06C0A0
:10124000A430B10569F080F01697B9F7692F822FA5
:101250009DCF9E2F722F282FF9CF9E2F732FF6CF61
:10126000922F2E2F782FF2CF722F2E2F932FEECF7B
:1012700041E00C94B3080895CF93DF93762FE901F2
:10128000682F842F0E943809798368838A83DF91CD
:10129000CF9108958091F302982F9E7F29F4817059
:1012A00082608093F30208958635E8F38170846547
:1012B000F8CF88E090E00C94BA31CF92DF92EF92B1
:1012C000FF926B017C010E944A09B701A60188E0E8
:1012D00090E0FF90EF90DF90CF900C94D831609128
:1012E000F3027091F4028091F5029091F6020C9451
:1012F0005D09E3EFF2E083E0808311828FEF828368
:101300008383148260817181828193810C945D0951
:101310008091F30280FF02C08695089580E00895D1
:101320009091F702933018F49F5F9093F70288230F
:1013300051F06091F3027091F4028091F502909166
:10134000F6020C945D09089581E00C949009909147
:10135000F702992319F091509093F702882351F0E6
:101360006091F3027091F4028091F5029091F6027F
:101370000C945D09089581E00C94A7098091F7020F
:1013800008958093F702662351F06091F302709103
:10139000F4028091F5029091F6020C945D09089593
:1013A00060E00C94C1098091F40208958091F502E7
:1013B00008958091F602089570E00C94D312309154
:1013C00008018091F30280FF0CC08091070190E03A
:1013D00063E070E00E94AC30632F88509D4F0C9406
:1013E000DC092091090140910A01822F90E063E01D
:1013F00070E00E94AC30FC01E850FD4F241728F744
:101400001182108212822F5F3396F8CFA82FB62F49
:101410008091F30280FF17C02091090130910A01E9
:10142000822F90E063E070E00E94AC30FC01E85055
:10143000FD4F231710F00C94DF09A183B083428382
:101440002F5F3396F6CF0895CF93DF9300D00F929E
:10145000CDB7DEB79091F30290FF0AC09E012F5FD7
:101460003F4F0E943C094B8169818A810E94060A94
:101470000F900F900F90DF91CF910895CF93DF934E
:10148000EC01EC81F0E0E755FD4F4491E3EFF2E031
:10149000628181810E94240A8C818F5F8C83DF911D
:1014A000CF910895CF93DF93EC01E3EFF2E0438116
:1014B00062818C810E94240A8C818F5F8C83DF91F2
:1014C000CF9108950F931F93CF93DF9300D00F9286
:1014D000CDB7DEB78C018091EF0181110AC09E016A
:1014E0002F5F3F4F4FEF6FEF0E943C098A8180933F
:1014F000EF01F8016481613069F08091EF0140E013
:10150000662361F040E0623011F44091EF0180E029
:1015100060E004C06091EF0140E080E00E94060AB4
:10152000F801848190E0019663E070E00E9404314C
:1015300084830F900F900F90DF91CF911F910F91A7
:101540000895AF92BF92CF92DF92EF92FF920F93E6
:101550001F93CF93DF9300D00F92CDB7DEB7182F34
:10156000F62E042FE22E9091F30290FF29C0E92F6E
:10157000E695AE2FB0E0A459BE4F8C9180933F0208
:101580009E7F923059F59E012F5F3F4F812F0E9421
:101590003C094B8169818A810E94060A1093F402FA
:1015A000F092F5020093F602EE2051F06091F30202
:1015B0007091F4028091F5029091F6020E945D090B
:1015C0000F900F900F90DF91CF911F910F91FF908F
:1015D000EF90DF90CF90BF90AF900895823019F4D4
:1015E0000091F602DBCF863019F41091F402D6CFC9
:1015F0008930D9F3893191F6E9518E2F8170D82E37
:10160000E695F0E0E755FC4FA590B490C12CBB24C3
:1016100040910B01C41618F00E94DF09BFCF2C2D9A
:1016200030E0C501B9010E94AC30642F70E00E9427
:10163000F030E12FD11014C0E60F80910901820F24
:10164000932F911D63E070E00E94AC309C01285004
:101650003D4F402F6F2D8E2F0E943C09C394D8CF51
:10166000E61BEBCFE3EFF2E09181282F438162810B
:101670008CE0890F0C94A10A81E00C94320BE3EF0B
:10168000F2E09181282F4381628184EF890F0C94CD
:10169000A10A81E00C943F0BE3EFF2E062812CE0C1
:1016A000620F08F46FEF282F438181810C94A10A07
:1016B00081E00C944C0BE3EFF2E062812CE0621BC2
:1016C00008F460E0282F438181810C94A10A81E015
:1016D0000C945B0BE3EFF2E043812CE0420F08F443
:1016E0004FEF282F628181810C94A10A81E00C9434
:1016F0006A0BE3EFF2E043812CE0421B08F440E088
:10170000282F628181810C94A10A81E00C94790BCD
:1017100020E00C94A10AEF92FF921F93CF93DF93E6
:10172000EC0110E0EE24EA94F12C30910B01131738
:1017300070F00E94DF099A818C8190FF27C08F5F33
:101740008C83DF91CF911F91FF90EF90089580914E
:101750000901810F9927991F63E070E00E94AC3066
:10176000FC01E850FD4F632F70E0C7010E94043177
:10177000812F0E94A3309C819F014091F6026091CD
:10178000F502890F0E943C091F5FCFCF8150D8CF4F
:10179000AF92BF92CF92DF92EF92FF920F931F937F
:1017A000CF93DF93FC018281DFEF80FFD1E0C0E0C7
:1017B0003EE0A32E80910B01C817C8F00E94DF09FC
:1017C0008091F101D13009F054C0811102C08091A3
:1017D0000B0181508093F101DF91CF911F910F9107
:1017E000FF90EF90DF90CF90BF90AF9008958091E1
:1017F0000901CC2ED12C8C0D9D2D911D63E070E044
:101800000E94AC3088509D4F7C01FC0111821082F7
:10181000128204E010E0B12C8091F1018B0D8F3029
:1018200014F16A2D0E94E230892F082E000C990BCA
:10183000C816D90691F48091F60290E0B8010E9492
:10184000AC3095958795959587959701482F609130
:10185000F5028091F4020E943C09BD0E015011096D
:10186000D9F6CF5FA7CF87FFE0CF90910B01890F0B
:10187000DCCF90E0019660910B0170E00E94043192
:10188000A9CFCF932091090130910A01822F90E0D6
:1018900063E070E00E94AC30FC01E850FD4F23177C
:1018A00020F1C0E060910B01C61728F10E94DF090A
:1018B000209105018091F001820F8093F0019091B9
:1018C0000601920F90930601191654F4082E000C8D
:1018D000990B40910B014150550B841795071CF053
:1018E000219520930501CF910895118210821282D3
:1018F0002F5F3396D4CFEC2FF0E070E0CF010E9441
:10190000043190910901890F90E02091F001022E9D
:10191000000C330B63E070E00E94AC30E217F30779
:10192000ACF020910601022E000C330B2E173F075E
:101930006CF09C0128503D4F4091F6026091F502F9
:101940008091F4020E943C09CF5FACCFFC01E850CB
:10195000FD4F118210821282F7CF4F925F926F92E9
:101960007F928F929F92AF92BF92CF92DF92EF922F
:10197000FF920F931F93CF93DF938C01FC01C481DF
:10198000CC2ED12CF12CE12CA7019601C701B60178
:101990000E94BD30A70196010E94BD302B013C0181
:1019A00030E2C32ED12CCC1AD1080D2C000CEE083D
:1019B000FF0825E530E040E050E00E94BD304B01DB
:1019C0005C01A7019601C701B6010E94BD30A701C5
:1019D00096010E94BD309B01AC01240D351D461DB2
:1019E000571DC501B4010E941831D22F822F90E0FB
:1019F0002A32A0F563E070E00E94AC3097FD0196BA
:101A000095958795C82FC095F12C85E5E82EED1AA0
:101A100080910B01F81648F10E94DF09F8019481CA
:101A200081E0992319F0903219F48FEF809304012B
:101A300080910401890FF8018483DF91CF911F9178
:101A40000F91FF90EF90DF90CF90BF90AF909F905D
:101A50008F907F906F905F904F90089525E530E0D4
:101A6000A901481B590BCA01C5CFEE2DF1FCED2F82
:101A7000809109018F0D9927991F63E070E00E9402
:101A8000AC309C0128503D4F4C2F6091F5028E2FB9
:101A90000E943C09F394BCCF0F931F93CF93DF9325
:101AA0008C01D0E0C0E030910B013C171D0609F01D
:101AB00074F40E94DF09F801848190E0019681703E
:101AC00099278483DF91CF911F910F910895809181
:101AD00009018C0F9D2F911D63E070E00E94AC30D6
:101AE000AC0148505D4FF80194816091F5028091FE
:101AF000F40236953C171D0651F04CF0992349F03D
:101B00009A014091F6020E943C092196CCCF99237C
:101B1000B9F39A0140E0F7CF9F92AF92BF92CF9274
:101B2000DF92EF92FF920F931F93CF93DF93FC010D
:101B3000C280A48081E08483D12C8BE4B82E9924C8
:101B400093940FEF10E09BE4E92EF12C80910B01B0
:101B5000D81668F0DF91CF911F910F91FF90EF9011
:101B6000DF90CF90BF90AF909F900C94DF09CD2D68
:101B7000D0E0CE0165E070E00E94AC30FC01EE5098
:101B8000FE4FA1101DC013821282809109018C0F9B
:101B90009D2F911D63E070E00E94AC309C012850A5
:101BA0003D4FCE0165E070E00E94AC30FC01EE508C
:101BB000FE4F4281618180810E943C09D394C6CF4F
:101BC00023812223A1F12150238344813B2D321B09
:101BD000411101C0322FCE0165E070E00E94AC30AF
:101BE000FC01EE50FE4F8091F602632F70E090E012
:101BF0000E94AC30B7010E94F0306283211104C012
:101C0000442311F01482B38222E02C1508F4BDCFD6
:101C1000CE0165E070E00E94AC30FC01EE50FE4F5A
:101C20008091F40280838091F5028183AECF0E947F
:101C30009531823091400CF0A8CFF2E02091F4026F
:101C4000FC1530F40E949531B8010E940431282F10
:101C5000CE0165E070E00E94AC308E509E4FFC01DA
:101C60002083F2E02091F502FC1550F40E9495319A
:101C70002091F5022695622F70E00E940431280F12
:101C8000CE0165E070E00E94AC30FC01EE50FE4FEA
:101C900021831282B382948278CFE3EFF2E08081D5
:101CA0008E7F808360817181828193810E945D0932
:101CB000109240022FEF80E792E021508040904048
:101CC000E1F700C000000C94DF09E3EFF2E080814F
:101CD0008E7F8083109240022FEF80E792E02150A8
:101CE00080409040E1F700C000000C94DF09609153
:101CF000F302669570E04BE050E08CE091E00E94CA
:101D0000A531892B19F481E0809340020E94452679
:101D1000909339028093380208959091F30290FFD6
:101D200035C09170811128C092609093F3026623B0
:101D300051F06091F3027091F4028091F50290915C
:101D4000F6020E945D096091F302669570E04BE037
:101D500050E08CE091E00E94A531892BA1F0109217
:101D6000400281E080933B024091F6026091F502CF
:101D70008091F4020C94880B8B3210F09465D5CFCF
:101D8000880F982BD2CF0E94770EEBCF0895682F43
:101D90009091F302969581E0890F8B3208F081E0F3
:101DA0000C948D0E81E00C94C70E682F9091F30275
:101DB00096958FEF890F09F48AE20C948D0E81E0DD
:101DC0000C94D50E61E00C948D0EE3EFF2E080816F
:101DD0008160808386950C94E20E8091F30280FDF1
:101DE0000C944D0E0C94E50E60E00C948D0E8091D9
:101DF0003E0281112EC00E94BC24811104C00E94A9
:101E000062250E9479090E9459096093F302709338
:101E1000F4028093F5029093F6026E7F61F40E94C3
:101E200079090E9459096093F3027093F402809338
:101E3000F5029093F6020E944A09109240028091A6
:101E4000F30280FF03C086950E94F40E81E0809328
:101E50003E020895E3EFF2E0808181608083869501
:101E60000C94F40E0F931F93CF93DF938091400255
:101E7000882309F49DC080913F02E091F302E6952A
:101E8000E81BE0933A028230C9F5F0E0EB55FD4FD4
:101E9000E491CE2FD0E00EE31AE080913B0288233C
:101EA00089F010923B020E9445269E0120953095B4
:101EB000820F931F909339028093380210923D0253
:101EC00010923C0280913802909139020E945D2666
:101ED0008C179D0708F46CC0E0913802F09139022C
:101EE000CE0FDF1FD0933902C093380288E392E00F
:101EF000F801DF91CF911F910F910994863049F439
:101F0000F0E0EE55FD4FE491CE2FD0E002E51AE06F
:101F1000C4CF893051F4E695F0E0E156FD4FE491ED
:101F2000CE2FD0E00BE81BE0B8CF8F3051F4E69510
:101F3000F0E0E456FD4FE491CE2FD0E008EC1BE03A
:101F4000ACCF853149F4F0E0E756FD4FE491CE2F58
:101F5000D0E001E41CE0A1CFC8E2D0E00DEA1CE033
:101F6000883109F49ACF833239F4E7E9F2E0C59178
:101F7000D49102E61AE091CFC4EFD1E00CE41DE069
:101F8000843209F48ACFC0EDD7E00BE319E0853243
:101F900009F083CF8E2F63E00E94D630E92FF0E066
:101FA000EC56FD4FE491CE2FD0E00CE81DE075CF4C
:101FB000DF91CF911F910F910895FA01811101C016
:101FC000FB010994CF93DF93C82FD62F0E94880975
:101FD0008C1740F00E9488098D1720F4DF91CF9173
:101FE0000C94D20E8C2FDF91CF910C94E20E0F93B4
:101FF0001F93CF938C01FB01C281CC2309F465C0F0
:102000000E9407248272F801E25CFC45E431F1058C
:1020100038F4E55EFD4C0C943A310E94ED0EC0E0C0
:102020008C2FCF911F910F9108954FED5EE062EDDF
:102030007EE00E94DD0FF3CF42ED5EE06FED7EE0CB
:10204000F8CF49E45BE06CE37BE0F3CF4CE35BE08B
:1020500069E47BE0EECF47E65BE068E57BE0E9CF53
:1020600048E55BE067E67BE0E4CF45E85BE066E7F8
:102070007BE0DFCF46E75BE065E87BE0DACF4BEB68
:1020800059E064EA79E0D5CF44EA59E06BEB79E0B6
:10209000D0CF81E00E94E20EC2CF65E082E00E94D4
:1020A000E20FBDCF68E086E0FACF6EE089E0F7CFBF
:1020B00064E18FE0F4CF67E185E1F1CF88E1EACF19
:1020C00062E289E1ECCF83E2E5CFC1E0A9CF809164
:1020D00022030C94EE2480912203869586958695A2
:1020E00008958091220381FD07C0826080932203BE
:1020F0000E94EE240C94321208958091220381FFF5
:1021000007C08D7F809322030E94EE240C943C1222
:1021100008958091220381FD0C947D100C94711020
:10212000809122038695817008958091170108950A
:102130000E94BC24811102C00E9462250E94EA24F0
:1021400080932203883320F087708063809322037A
:1021500090912203892F817090FF04C0892F86956A
:10216000869586950C94EE1180912203982F969572
:1021700096959695963040F49F5F990F990F990F19
:102180008770892B80932203809122038160809342
:1021900022030E94EE2480912203869586958695DF
:1021A0000C94EE1180912203982F987F79F088503B
:1021B00080932203887F91E009F490E080912203CC
:1021C00090FB80F9809322030E94EE2480912203E9
:1021D0008695869586950C94EE118091220380FD5C
:1021E00013C0816080932203813019F489E08093C9
:1021F0002203809122030E94EE248091220386957F
:10220000869586950C94EE1108958091220380FFA7
:1022100008C08E7F809322030E94EE2480E00C94FD
:10222000EE1108958091220380FD0C9405110C9409
:10223000ED1090912203892F8695869586958F5F64
:102240008F7197708730D8F4880F880F880F892B8B
:102250008093220380912203887F91E009F490E02B
:102260008091220390FB80F9809322030E94EE2448
:10227000809122038695869586950C94EE11909315
:102280002203E8CF873008F086E090912203977010
:10229000282F220F220F220F922B90932203987F38
:1022A00021E009F420E09091220320FB90F9909323
:1022B00022030C94EE110E944211809122030C948F
:1022C000EE24FC01DB0112968C918823F9F0EB5B84
:1022D000FC45E730F105D8F4E15DFD4C0C943A3152
:1022E00086E00E945B1180E0089580E0FACF0E94B2
:1022F000D210F9CF0E94B410F6CF0E941211F3CF82
:102300000E941911F0CF0E948910EDCF81E008954D
:102310003C9A44980895449A089544980895CF9219
:10232000DF92EF92FF928C3724E1920750F469E03C
:1023300070E00E94F030CB01FF90EF90DF90CF90E3
:102340000895B0E0A0E0BC01CD016A50774D8F4FF9
:102350009F4F982F872F762F662725EF38E241E091
:1023600050E00E94183169017A01CA01B9010E9446
:10237000BD30A70196010E94BD30672F782F892FAD
:1023800099276115710521E082079105A1F66FEF8C
:102390007FEFD1CF1F920F920FB60F9211242F9380
:1023A0003F934F935F936F937F938F939F93AF93DD
:1023B000BF93EF93FF930E948D11FF91EF91BF9117
:1023C000AF919F918F917F916F915F914F913F91CD
:1023D0002F910F900FBE0F901F901895CF93C82F7D
:1023E000873068F581112CC0809188009091890018
:1023F000892B51F080916F008D7F80936F008091C9
:102400006F008E7F80936F000E948D116C2F70E0A3
:1024100090E080E02FEF3FEF40E050E00E94BD30C1
:1024200026E030E040E050E00E941831C9010E94EF
:102430008F119093890080938800CF910895C6E012
:102440008091880090918900892B01F780916F001D
:10245000826080936F0080916F00816080936F0035
:10246000D5CF089510924302109242021092440276
:1024700081E0809341020895109241020E946B1006
:102480000C94EE11CF930E949510E0914202F091CE
:102490004302319690E064EF70E00E94AC309C0102
:1024A000CF01B9010E94F030909343028093420221
:1024B000B901660F672F661F770B71950E94F03088
:1024C0006F7780914402823029F4603439F410929D
:1024D000410204C0813011F46F37C9F3E62FF0E0F8
:1024E000E255FC4FC4910E946B10282F8C2F90E076
:1024F00061E071E00E94AC3066E070E00E94F03074
:10250000CB01622F70E00E94AC300E948F1190933B
:10251000890080938800CF9108951F920F920FB683
:102520000F9211242F933F934F935F936F937F9359
:102530008F939F93AF93BF93EF93FF93809141024B
:1025400081110E944212809188009091890081300F
:10255000914010F00E948B11FF91EF91BF91AF91CC
:102560009F918F917F916F915F914F913F912F91AB
:102570000F900FBE0F901F9018950E94881182E057
:102580008093800089E1809381008FEF9FEF90938B
:102590008700809386000E9498100E9490108111FD
:1025A0000C94321208959C01CB013D9A48B14F7DA5
:1025B000E8B1E062FFB7F89463E070E00E94AC30ED
:1025C000820F931F8217930741F4FFBF8FE594E0BA
:1025D0000197F1F700C000000895D9015D919D01B8
:1025E00068E0E8B9000000C057FF48B9550F000087
:1025F00000C000C000C048B900C06A9591F7E2CFA2
:10260000AF92BF92CF92DF92EF92FF920F931F9300
:10261000CF93DF93A9EAB1E027EA31E089E4A82E5D
:1026200082E0B82E6BEA71E041E050E00D91802F1E
:1026300082958F7090E0FC01C1A10F707A01002E8D
:1026400001C0EE0C0A94EAF7FE2DF095CF23FC01B1
:10265000C1A3C2A1CE29C2A3E90119919E01E12F14
:10266000E295EF70F0E0F1A01F706A01012E01C049
:10267000CC0C0A94EAF7EC2CE094EF20E1A2F2A053
:10268000FC28F2A2EC0188A190E002C09595879504
:102690000A95E2F78170E0A1F0E002C0F595E795B8
:1026A0001A95E2F790E0E0FD92E0892BF501819325
:1026B0005F016A177B0709F0B9CFDF91CF911F91B6
:1026C0000F91FF90EF90DF90CF90BF90AF90089563
:1026D0009F92AF92BF92CF92DF92EF92FF920F93B1
:1026E0001F93CF93DF9309E412E089EAC82E81E0BB
:1026F000D82E97EAE92E91E0F92E27E4A22E22E0C7
:10270000B22EC5E4D2E0912CD801EC91EE0FEE0F81
:10271000ED938D01D6012D916D01A22FA295AF7081
:10272000B0E090968C9190E02F7002C095958795BF
:102730002A95E2F781709927D7014D917D01A42F49
:10274000A295AF70B0E090962C9130E04F7002C02F
:10275000359527954A95E2F7A9014170552720FF45
:1027600002C042E050E0842BE82BD8011197EC9393
:10277000EF70F0E0E956FE4F8081F5019081890FFE
:10278000808384303CF088818F5F888360E0892D6E
:102790000E949F03D5018C918D3F3CF4888181502C
:1027A000888361E0892D0E949F03F50180818378F1
:1027B00087FF03C081508C6F8F5FD5018D935D01C2
:1027C0002196B1E09B120CC0DF91CF911F910F9128
:1027D000FF90EF90DF90CF90BF90AF909F900895C3
:1027E0009924939491CF82E290E00E94B231823298
:1027F00089F483E290E00E94B231823059F484E29D
:1028000090E00E94B23191E0833009F090E0892F8E
:102810008170089580E0FCCFCF93C82F6FEF8111B6
:1028200062E282E290E00E94C6316FEFC11162E085
:1028300083E290E00E94C6316FEFC11163E084E251
:1028400090E0CF910C94C63180E00E940C140C945F
:10285000B624089585E290E00E94B231682F70E0BE
:1028600090E080E0089585E290E00C94C6310E94EB
:1028700029140E94F31381110CC060E070E0CB01B9
:102880000E9433140E9436160E94221781E00C9495
:102890000C140895CF93FB01C281CC2309F19C0154
:1028A00022513F452031310520F582510E943217D7
:1028B000C0E08C2FCF91089581E00E94732243E005
:1028C00062E081E00E941605F3CF81E00E9494222D
:1028D00043E062E081E00E941605EBCF82E0F6CF94
:1028E0008031FFE59F0789F381319F45B9F3C1E04E
:1028F000E0CF8031EFE59E07F9F281319F45C9F6BF
:1029000082E0DBCF2FEFFC0120830895CF93DF938C
:10291000EC018881893029F08A3081F0DF91CF91F4
:1029200008950E946B1090E06FEF70E00E94AC3051
:1029300066E070E00E94F0306983F0CF0E94901052
:102940008983ECCFFC018081893019F08A3071F0E5
:102950000895818190E066E070E00E94AC306FEFF6
:1029600070E00E94F030862F0C9442118181811119
:1029700002C00C947D100C947110CF93DF93EC0186
:1029800088818138A9F028F4803871F0DF91CF91E7
:102990000895823881F08338C9F70E94D30989836A
:1029A0000E94D6098A83F2CF0E94D9098983EECF8B
:1029B0000E948809FBCF0E94BE09F8CFCF93DF9316
:1029C000EC0188818138E1F028F4803869F0DF91EA
:1029D000CF910895823811F18338C9F70E94D9093F
:1029E000482F6A81898108C0D9810E94D609C82FE1
:1029F0000E94D3094D2F6C2FDF91CF910C94880B3F
:102A000089810E94F40E8981811104C0DF91CF91E8
:102A10000C94650EDF91CF910C942A0F8981DF9180
:102A2000CF910C94D009CF92DF92FF920F931F9316
:102A3000CF93DF93EC01F62EDC01ED918D01E15097
:102A4000E33108F0C9C0F0E0EA5CFD4C0C943A3187
:102A5000198289E08A836F2DCE01DF91CF911F917A
:102A60000F91FF90DF90CF900C94282A89818230BB
:102A700069F0833071F08130D9F40E9451260E94B0
:102A800040316A837B838C839D83E5CF0E942A1427
:102A9000F6CF6E01B2E0CB0ED11C10E0812F0E9468
:102AA000AB07F60181936F011F5F1830B9F7D3CFE1
:102AB0006F2DCE010E948214CECF89818230C1F762
:102AC0006A817B818C819D810E9440310E943314F8
:102AD000C2CF4B816A8189810E9408169827892775
:102AE00098279D838C83B7CF2C813D813227232764
:102AF00032274B816A8189810E942116ACCF0E94C6
:102B00003616A9CFCD010E94A214C8010E94DE147E
:102B1000A2CFCD010E948614C8010E94BD149BCF94
:102B20000E9467100E946F0996CF0E94CB1689837E
:102B300092CF0E94CD169827892798279A83898358
:102B40008ACF6B8170E089819A81AE014C5F5F4FC3
:102B50009827892798270E94D0167DCF6B8170E037
:102B600089819A81AE014C5F5F4F9827892798270A
:102B70000E94F71670CF0E9422176DCF0E94EF15AA
:102B8000D6CF6B8170E089819A81AE014C5F5F4F37
:102B90009827892798270E946E165DCF6B8170E079
:102BA00089819A81AE014C5F5F4F982789279827CA
:102BB0000E94941650CF0E9424144DCF0E94282AC0
:102BC000FFEF21EE84E0F15020408040E1F700C0AB
:102BD00000000E9490263FCF8FEF88833CCF84E097
:102BE0000895E82F862F90E06CE070E00E94AC30F2
:102BF000242F30E0220F331F280F391F8E2F90E033
:102C000060E670E00E94AC30820F931F86960895B4
:102C10000F931F93CF93DF930E94F1158C010E94B5
:102C2000B231C82FD0E0DC2FCC27C80101960E941A
:102C3000B2319E01282BC901DF91CF911F910F91D5
:102C400008950F931F93CF93DF93122F032F0E94AA
:102C5000F115EC01602F0E94C631612FCE01019663
:102C6000DF91CF911F910F910C94C631AF92BF921B
:102C7000CF92DF92EF92FF921F93CF93DF9384E77F
:102C8000C82E80E0D82ED0E07601C0E014C0F50157
:102C900025913491412F6C2F8D2F0E94211682E0B7
:102CA000A80EB11C1F5F163091F78CE0E80EF11CE6
:102CB000CF5FC83019F0570110E0E9CFDF5F80E641
:102CC000C80ED11CD43001F7DF91CF911F91FF9036
:102CD000EF90DF90CF90BF90AF900895EF92FF926A
:102CE0000F931F93CF93DF93EC018A017C01E60ED3
:102CF000F71ECE018696CE15DF0539F4DF91CF9110
:102D00001F910F91FF90EF900895C03821E0D207F6
:102D100040F40E94B231F80180830F5F1F4F21966B
:102D2000E8CFF8011082F9CFCF92DF92EF92FF92B5
:102D30000F931F93CF93DF937C016A018C01060FE1
:102D4000171FEC01CE018696C017D10749F4DF9119
:102D5000CF911F910F91FF90EF90DF90CF9008954A
:102D6000C03821E0D20740F4FE01EE19FF09EC0D56
:102D7000FD1D60810E94C6312196E4CF462F84302C
:102D800038F4783028F4663018F4672F0C9408165D
:102D900090E080E0089580E108958AE592E008954A
:102DA000EF92FF920F931F93CF93DF93EC018A0171
:102DB0007C01E60EF71ECE018A559E4FCE15DF052B
:102DC00039F4DF91CF911F910F91FF90EF9008950B
:102DD000CA3522E0D20740F40E94B231F801808364
:102DE0000F5F1F4F2196E7CFF8011082F9CFCF92E6
:102DF000DF92EF92FF920F931F93CF93DF937C01AB
:102E00006A018C01060F171FEC01CE018A559E4FF7
:102E1000C017D10749F4DF91CF911F910F91FF9017
:102E2000EF90DF90CF900895CA3522E0D20740F4AA
:102E3000FE01EE19FF09EC0DFD1D60810E94C631F7
:102E40002196E3CFCF93DF93C6EAD1E060E0CE01D5
:102E50000E94C6312196C11584E0D807B9F7DF91E9
:102E6000CF910895DF92EF92FF920F931F93CF932C
:102E7000DF9300D000D0CDB7DEB7F82E8FE08F15EE
:102E800040F08FEF93E00E94B23106EA11E0882310
:102E9000C1F00F900F900F900F90DF91CF911F9185
:102EA0000F91FF90EF90DF900895011584E01807CF
:102EB00081F3C8010E94B231811101C0FA940F5F01
:102EC0001F4FF110F2CF19821A821B821C82DD245F
:102ED000D39478018FEFE81AF80AC8010E94B23142
:102EE00089831A828823A9F29FEF980F933078F490
:102EF0008A83D9820E5F1F4FC7010E94B2318B8334
:102F0000882339F2CE0101960E94BF04E2CF8701E7
:102F1000F9CFAF92BF92CF92DF92EF92FF920F93D1
:102F20001F93CF93DF937C015B01C42FD22FFC0151
:102F300082818823F9F040934D020E9445269093A8
:102F40004C0280934B0280E28C0F883008F061C005
:102F5000C77081E001C0880FCA95EAF7DF91CF9171
:102F60001F910F91FF90EF90DF90CF90BF90AF90A7
:102F70000C94F01B10914D02141340C080914B0231
:102F800090914C020E945D266C01B701C5010E9420
:102F9000E820C816D90690F5C0E2CD0F1D17B9F08C
:102FA00080E2810F883040F4177081E001C0880F03
:102FB0001A95EAF70E94F71BC83048F481E09D2F6C
:102FC000977001C0880F9A95EAF70E94F01B802F36
:102FD0000E94DD1BC830E8F4D77081E001C0880F83
:102FE000DA95EAF7DF91CF911F910F91FF90EF9063
:102FF000DF90CF90BF90AF900C94F71B80E28C0FC6
:10300000883038F4C77081E001C0880FCA95EAF7AC
:10301000E9CFDF91CF911F910F91FF90EF90DF905B
:10302000CF90BF90AF9008950F939C01CB01233FA9
:103030004CE5340759F1A8F4283DFCE53F0701F1C0
:10304000293D4CE53407D1F1273D3C4591F406E29A
:1030500021EE41EE67ED7CE50E94891780E00F913B
:103060000895253FFCE53F07E9F0B0F0263F3C45D9
:10307000F9F0FC018281882339F110924D02EFCFE3
:1030800007E225EE45EE68ED7CE5E6CF06E221EEAF
:1030900040EE63EF7CE5E0CF07E225EE44EE64EF1F
:1030A0007CE5DACF06E221EE42EE65EF7CE5D4CF97
:1030B00007E225EE46EE66EF7CE5CECF08E221E0A2
:1030C00045EE69ED7CE5C8CF81E0C9CFCF93DF93B2
:1030D000EC01FB018281882309F419C1C230FCE5AF
:1030E000DF07C0F1C6319CE5D90730F09E012A5FA9
:1030F0003C452930310570F50E94CF249093280378
:1031000080932703C031ECE5DE0709F4CFC008F057
:103110005BC0C8308CE5D80709F4B6C088F5C43068
:10312000ECE5DE0709F4A8C0C0F4C2308CE5D8078E
:1031300009F49CC0809127038260C330DC4509F408
:1031400098C080912703909128030E94DD240E945B
:103150006C1E80E0DF91CF910895809127038061FC
:10316000C630ECE5DE0709F484C08091270388604F
:10317000C730DC4508F47DC080912703806279C0A8
:10318000CC308CE5D80709F489C070F4809127030E
:103190008C60CA30ECE5DE0709F46BC008F478C037
:1031A000809127038E7F65C0CE308CE5D80709F467
:1031B00079C0809127038B7FCF30DC4508F459C05C
:1031C000809127038F7E55C0CB3FECE5DE0709F4E5
:1031D00057C030F5C3318CE5D80709F46FC078F4D7
:1031E000C131ECE5DE0709F465C0C231DC4509F008
:1031F000A8CF0E946C1E809127038F773AC0C531FB
:103200008CE5D80709F462C008F476C080912803E1
:103210008160CA3FDC4509F094CF8093280391CFA9
:10322000CF3FFCE5DF0709F44DC088F48091280307
:103230008D7FCD3F9CE5D90781F3809128038E7F58
:10324000CE3FDC4550F3809128038360E6CFC13048
:10325000FDE5DF0709F459C008F444C080E0C2303E
:10326000DD4509F06ECF0E9464256BCF8091270366
:1032700081608093270365CF809127038460F9CF15
:10328000809128038260C9CF809127038064F1CFA9
:103290000E946C1E809127038068EBCF80912703EA
:1032A0008D7FE7CF80912703877FE3CF809127032E
:1032B0008F7DDFCF809127038F7BDBCF809127032A
:1032C000837FD7CF809128038C7FA7CF809127035E
:1032D00082FB992790F921E0922790FB82F990FBDD
:1032E00083F9C7CF80912803982F909591708E7F96
:1032F000892B90FB81F991CF0E946C1E909127033E
:10330000892F97FB87F98058B4CF81E0ACCF81E05B
:1033100021CFCF93DF93EB0186319C4511F50E94BD
:1033200007249A81992399F08A7A91E009F490E030
:1033300090934E02811109C089E20E94E2230E940B
:10334000532480E0DF91CF91089585E3F6CF8091FB
:103350004E02811104C089E20E94E923F0CF85E387
:10336000FBCF81E0EFCF90935402809353020895F6
:10337000E0915302F0915402309721F00190F081D6
:10338000E02D099480E00895E0915302F0915402F9
:10339000309721F00280F381E02D09940895E091A7
:1033A0005302F0915402309739F022E0DC012C9363
:1033B0000480F581E02D0994089520915102309107
:1033C00052022817390771F09093520280935102EC
:1033D000E0915302F0915402309721F00680F7817A
:1033E000E02D0994089520914F0230915002281742
:1033F000390771F09093500280934F02E09153028D
:10340000F0915402309721F00084F185E02D099469
:103410000895089508950C94091A08950C940D1AAE
:103420000E940A1A0C940B1A81E008950C94141A45
:103430000E943C260E94B6070E9437140E94CA26AA
:103440000E9498100E94F70E0E9400130C940E1A0E
:10345000BF92CF92DF92EF92FF920F931F93CF9381
:10346000DF93CDB7DEB72A970FB6F894DEBF0FBE55
:10347000CDBF0E94FC070E94161A882309F465C07C
:1034800086E5C82E82E0D82E10E000E0B02E802F16
:103490000E94AB07E82EF601F1906F01F81609F4CF
:1034A0004EC08091CA0281FD0E94B1079F2D9E25CA
:1034B00080E0FF24F394292F2F21E1F18E83BF8236
:1034C000EF2081E009F480E088870E944526816032
:1034D000782F9A8789874E815F8168858A850E94C7
:1034E000C61AF801EA5AFD4F8081F826F0820E9440
:1034F000320F0E9431120E9468130E9479280E94A4
:10350000B81990915502891789F10E94B8198093D2
:1035100055022A960FB6F894DEBF0FBECDBFDF91DD
:10352000CF911F910F91FF90EF90DF90CF90BF90C0
:103530000C949B058F5FFF0C863009F0BCCF0F5FAA
:103540001F4F0830110509F0A1CF8FEF89838A83BF
:103550001B820E9445268160782F9D838C83498140
:103560005A816B818D810E94C61AC1CF2A960FB6EF
:10357000F894DEBF0FBECDBFDF91CF911F910F91A9
:10358000FF90EF90DF90CF90BF900895CF93DF939F
:10359000CDB7DEB72B970FB6F894DEBF0FBECDBF09
:1035A0004F83588769877A878B871E821D8285E0C3
:1035B000FE013796DE01119601900D928A95E1F792
:1035C00049815A816B817C818D819E812B960FB6BA
:1035D000F894DEBF0FBECDBFDF91CF910C94EB20EE
:1035E000FC01808191810C94B423CF93C82F882350
:1035F00009F48BC08238C1F40E94B81981FD85C0DE
:1036000089E30E94E2230E9453242FEF81EE94E08D
:10361000215080409040E1F700C0000089E30E9403
:10362000E923CF910C9453248338A1F40E94B81954
:1036300080FD6BC083E50E94E2230E9453242FEF9C
:1036400081EE94E0215080409040E1F700C00000FE
:1036500083E5E5CF8438A1F40E94B81982FD55C0F6
:1036600087E40E94E2230E9453242FEF81EE94E02E
:10367000215080409040E1F700C0000087E4CFCFA8
:103680008CEF8C0F813A90F46C2F809118019091FF
:1036900019010E947B25882329F08C2F0E94E923A1
:1036A0000E9453248C2F0E94E223BBCF80E28C0F18
:1036B000883048F4C77081E001C0880FCA95EAF7E6
:1036C0000E940A24AECFEBE5EC0FE33040F4F0E0CB
:1036D000E752FE4F808190E0CF910C94DD19E8E530
:1036E000EC0FE73150F4F0E0EE0FFF1FE555FE4F11
:1036F00080819181CF910C94F319C03F30F08C2FD1
:103700000E947327CF910C945E28CF91089588234F
:1037100009F452C0823871F40E94B81981FF4CC07C
:1037200089E30E94E2230E94532489E30E94E92353
:103730000C945324833859F40E94B81980FF3CC07C
:1037400083E50E94E2230E94532483E5EFCF84386F
:1037500059F40E94B81982FF2FC087E40E94E22327
:103760000E94532487E4E2CF9CEF980F913AF0F245
:1037700090E2980F983050F4877091E001C0990F53
:103780008A95EAF7892F0E941024D2CF9BE5980FE3
:10379000933020F490E080E00C94DD1998E5980FC8
:1037A000973120F490E080E00C94F319803F20F0F2
:1037B0000E94DB270C945E280895CF93C82F0E94A7
:1037C000F51AC93349F42FEF87EE93E0215080407A
:1037D0009040E1F700C000008C2FCF910C94871B24
:1037E000882321F00E940A240C94532408958823EE
:1037F00021F00E9410240C9453240895BF92CF927C
:10380000DF92EF92FF920F931F93CF93DF936C01A0
:10381000D62FC72FFC01058102950F70128111115F
:103820000E9427240E940024E82E882391F011236F
:10383000D1F08C2F807F803421F080E28D0F883092
:1038400090F082E00E949E240E94002491E0E82EE5
:10385000E926BC2EB2949FE0B922EB2DF0E0E75BA5
:10386000FD4C0C943A31E12CF4CF0C2F0F70C07F3B
:1038700011F00295007F1123A9F0002359F080E296
:103880008D0F883010F0D11109C0802F0E940A24BA
:103890000E9453248D2F0E94F51A14C0802F0E947D
:1038A0001A24F6CF8D2F0E94871B002359F080E247
:1038B0008D0F883010F0D1112CC0802F0E94102461
:1038C0000E9453242B2D2850330B2430310520F433
:1038D0000E94B8190E949B05EE2009F49EC10E9427
:1038E000FC2380FD9AC1F60112820E94F6230E94F9
:1038F0007322C6010E942E1E0E94F623DF91CF91F3
:103900001F910F91FF90EF90DF90CF90BF900C949C
:103910009422802F0E942024D3CFFC2FFF70FF2EF3
:10392000C07FC03219F0F29480EFF822DD2369F0F5
:10393000D13049F1112391F1002351F1F601858134
:1039400080FFA8CF8F70858323C0112381F00111E0
:1039500006C00E943A248F290E94F01BB3CF013089
:10396000C1F70E943A248F290E944024ABCF011155
:1039700006C00E9449248F2D0E94F71BA3CF01305F
:1039800009F4A0CFF6CF112329F0063008F09ACF22
:103990008F2DE2CF053008F095CFEDCF002359F3FE
:1039A000D93349F4FFEF27EE33E0F15020403040A7
:1039B000E1F700C000008D2F0E94871B83CF8C2F62
:1039C00086958695837069F0813009F07BCF8D2FC5
:1039D0009C2F9370111102C090E080E00E94F319B7
:1039E00071CF8D2F9C2F9370111102C090E080E059
:1039F0000E94DD1967CF8D2F112329F00E947327B4
:103A00000E945E285FCF0E94DB27FACF8C2F837045
:103A100009F041C0111156CF4D2F42954695477080
:103A2000440F440F0D2F0F7010E030E020E0042E03
:103A300004C0000F111F221F331F0A94D2F760E049
:103A400070E0CB01D4FF0FC06FE070E080E090E049
:103A500004C0660F771F881F991F4A95D2F760959B
:103A6000709580959095C695C695C370602B712B07
:103A7000822B932BC23049F058F4C13019F00E94C8
:103A8000252220CF0E9413221DCF0E9437221ACF59
:103A90000E94112217CF8695112311F08C2F81706F
:103AA000882309F40FCF4D2F429546954770440F58
:103AB000440F0D2F0F7010E030E020E0042E04C002
:103AC000000F111F221F331F0A94D2F760E070E02D
:103AD000CB01D4FF0FC06FE070E080E090E004C045
:103AE000660F771F881F991F4A95D2F760957095CA
:103AF00080959095C695C695C370602B712B822BCF
:103B0000932BC23049F058F4C13019F00E94EA22D8
:103B1000D9CE0E94D822D6CE0E94FC22D3CE0E94BB
:103B20004D22D0CECF70112329F08C2F0E9473220A
:103B30008D2F12CF8D2F0E94F71B8C2F0E94942265
:103B4000C1CED23F89F160F4D03FC9F0D13F29F115
:103B5000112309F442C001119DCE8C2F8F7121C019
:103B6000D33F39F1D43FA1F7112369F1CF718C2FE5
:103B70000E94732263E08C2F0E948924A3CE11231C
:103B800041F0053008F09ECE8C2F8F710E94B72235
:103B900099CE063008F096CEF7CF8C2F8F71112377
:103BA00069F20E9473228ECE8C2F8F711123C9F37C
:103BB000C5CF112329F08C2F8F710E945E2282CEF7
:103BC0000E9459227FCE81E00E949E24023008F498
:103BD00079CE82E00E949E2475CE002359F0D9331D
:103BE00009F0E9CE8FEF97EEE3E081509040E0409E
:103BF000E1F7DFCE8C2F8F71A1CF4C2F4F706D2F3F
:103C0000C6010E94A3050E9489215CCE4C2F4F70F3
:103C10006D2FC6010E94A60555CEDF91CF911F9151
:103C20000F91FF90EF90DF90CF90BF9008950F938A
:103C30001F93CF93DF93EC01688179818A810E9481
:103C4000BE238C010E940E230E941022B801CE01D7
:103C5000DF91CF911F910F910C94FE1BCF93DF93B7
:103C6000EC018B819C81892B29F0888199818923A2
:103C70008F3F59F4DF91CF910895CE010E94171E16
:103C8000CE01DF91CF910C940604CE010E9446052F
:103C90008111F3CF0E940024882361F38A81882355
:103CA00049F382E0DF91CF910C949E240E94272457
:103CB0000E9437240E9453240E948F290E945E286C
:103CC00090E080E00E94DD1990E080E00C94F31910
:103CD0000E94F0230C94561E0E9417240C94681E18
:103CE000E92FE295EF70E250EE3070F4F0E0E75A21
:103CF000FD4C0C943A31803F19F020F4883E20F4BA
:103D000081E00895843FE1F380E00895883EC0F3A8
:103D1000813FD1F7F5CF93FB882780F908950E9462
:103D2000B4230C94701ECF93DF9300D000D00F9279
:103D3000CDB7DEB70F900F900F900F900F90DF91DF
:103D4000CF910895CF93DF9300D000D000D0CDB7AE
:103D5000DEB726960FB6F894DEBF0FBECDBFDF915B
:103D6000CF910895CF93DF93C0915F02809160025D
:103D70008C1303C0DF91CF910895D0E0CE0166E0AF
:103D800070E00E94AC30FC01EF59FD4F4081518141
:103D900062817381848195810E94A21E2196C770E1
:103DA000E5CF4091910250919202609193027091FF
:103DB000940280919502909196020C94A21E1F93FA
:103DC000CF93DF9380919602807FA1F4809193023C
:103DD000882381F020915F02B091600240919102AE
:103DE000A0919202C0919402D0919502142F1A23AF
:103DF000B21304C0DF91CF911F91089530E0209756
:103E000011F01F3F21F42F5F3F4F2770F1CFC90101
:103E100066E070E00E94AC30FC01EF59FD4F8181FB
:103E20008A13F1CF80818413EECF82818111EBCF91
:103E3000838194818C1B9D0B883C910520F7809198
:103E400096028F70806180939602C90166E070E0EF
:103E50000E94AC30FC01EA59FD4F90819F70906147
:103E6000908381E992E00E942E1EDF91CF911F91F5
:103E70000C94B21EAF92BF92CF92DF92EF92FF925C
:103E80000F931F93CF93DF93CDB7DEB761970FB634
:103E9000F894DEBF0FBECDBF8C0185E0F801DE01D6
:103EA0001D9601900D928A95E1F7F80140812181DC
:103EB000E28081E9C82E82E0D82E60919402709150
:103EC00095026115710509F464C1909191023091D8
:103ED0009202892F83238F3F09F45BC1A380B480B2
:103EE000F0909302F501E61BF70BFF2009F4FEC0EA
:103EF00080919602582F507FE83CF10508F0B3C03E
:103F000051117AC0FE2C321323C0941321C0E1104A
:103F10001FC08F708061809396020E94D11EC601DF
:103F20000E942E1E80919602F80185838F2D619646
:103F30000FB6F894DEBF0FBECDBFDF91CF911F91BA
:103F40000F91FF90EF90DF90CF90BF90AF900895CA
:103F5000AB2829F0842F82238F3F09F036C180E0FF
:103F6000F82FF170DF2EE0915F023091600280FD4A
:103F700020C0EE20D9F28091960281608093960253
:103F8000F12CD4CFF0E0CF0166E070E00E94AC30BD
:103F9000DC01AF59BD4F11968C911197821307C068
:103FA0008C91841304C012968C918E11E2CF3196BD
:103FB000E770E313E7CF4D872E878D859E850E949E
:103FC000B423292F22952F70223050F0243078F41A
:103FD0009F7051F0F8019581907F31F4D12C0AC087
:103FE0009F7011F08823D1F3805E8830B8F3C80148
:103FF0000E942E1EFD2C9ACF321306C0941304C0CB
:10400000F801EE2009F48EC04D872E878D859E85A0
:104010000E948F1E882319F1EE2009F180919602EB
:10402000803270F0209191023091920238872F8374
:104030001986BB86AA868C87CE0107960E942E1E03
:1040400086E0F801A1E9B2E001900D928A95E1F7CE
:104050000E94DF1E0E94D11EFF24F39467CFC80187
:104060000E942E1EF9CF511114C07A2DB98AA88A48
:10407000522F6E2D89890E94931E81E992E00E9441
:104080002E1E86E0F60111928A95E9F70E94D11E54
:1040900077CF32130FC094130DC0E1100BC0F8019D
:1040A0008583C8010E942E1E86E0F60111928A9532
:1040B000E9F73CCF4D872E878D859E850E948F1E08
:1040C000882369F2EE2059F280919602803208F43A
:1040D000B7CF20919102309192023A8329831B82BB
:1040E000BD82AC828E83CE010196A8CFE83CF1055B
:1040F00008F041C0FE2CEE2009F4B1CF32132AC0E3
:10410000941328C08091960280FD1BC0982F907F49
:10411000C1F0F8018583903F31F0982F907F905F38
:104120008F70892B8583C8010E942E1E86E0F801BE
:10413000A1E9B2E001900D928A95E1F70E94D11EAB
:10414000F5CE86E0F801A1E9B2E001900D928A95E2
:10415000E1F7ECCE4D872E878D859E850E948F1EC0
:1041600081116ECF80919602816080939602C80182
:104170000E942E1EDBCE7A2DB98AA88A522F6E2D70
:1041800089890E94931E86E0F60111928A95E9F7CB
:10419000D5CFEE2009F463CF4D872E878D859E8580
:1041A0000E948F1EF82E882309F459CF86E0F8016B
:1041B000A1E9B2E001900D928A95E1F781E992E0E0
:1041C0000E94F01A0E94DF1EB9CF81E08E25C8CE72
:1041D00088EC90E00895CF93DF93CDB7DEB72C97AE
:1041E0000FB6F894DEBF0FBECDBF4F8358876987E7
:1041F0007A878B879C87CE0107960E943A1F882377
:10420000D1F08A859B85892B39F04F815885842F81
:1042100085238F3F09F076C080915F029091600204
:10422000891349C02C960FB6F894DEBF0FBECDBFE0
:10423000DF91CF91089586E0FE013796DE01119659
:1042400001900D928A95E1F78A859B85892B21F350
:104250008F81988589238F3FF9F28091600290E0E9
:104260009C012F5F3F4F2770332740915F02421719
:10427000130671F40E946C1E1092600210925F028D
:1042800086E0E1E9F2E0DF011D928A95E9F7C4CF0B
:1042900066E070E00E94AC30DC01AF59BD4F96E0A3
:1042A000FE01319601900D929A95E1F720936002FC
:1042B0000E94B21EB1CF90E066E070E00E94AC3088
:1042C0008F599D4F0E943A1F882309F4ABCF8091EC
:1042D0005F0290E066E070E00E94AC30FC01EF59B4
:1042E000FD4F4081518162817381848195810E945B
:1042F000A21E80915F0290E00196877099278093BB
:104300005F028ACF69857A858B859C850E94A21E73
:1043100083CFEF92FF920F931F93CF93DF938C0184
:10432000892B81F0F12CEE24E394E8012196F80129
:104330008491843770F4843008F05FC08130B1F02C
:104340008230A1F1DF91CF911F910F91FF90EF90FB
:104350000895853709F44CC008F43DC09CE7980FD8
:10436000903780F78F770E94871B49C00E5F1F4FE1
:10437000FE01849190E2980F983060F48770FE2DD2
:1043800001C0FF0F8A95EAF78F2F0E942A240E940E
:10439000532402C00E94F51A8F2D815030F2EFE9AC
:1043A000FFE03197F1F700C00000F7CF0E5F1F4F1D
:1043B000FE01849190E2980F983050F48770FE2DA2
:1043C00001C0FF0F8A95EAF78F2F0E943024DFCFBC
:1043D0000E94871BE1CF0E5F1F4FFE01C491C150A9
:1043E000D8F28FE99FE00197F1F700C00000F7CF06
:1043F0000E5F1F4FFE01F490CFCF0E94F51A8E0181
:10440000CBCF08950C9401220E9402226093B9023E
:104410007093BA028093BB029093BC020C94561E18
:1044200008950C9404220F931F930091B9021091E8
:10443000BA022091BB023091BC02602B712B822BFF
:10444000932B1F910F910C9404220F931F930091B3
:10445000B9021091BA022091BB023091BC026023D4
:104460007123822393231F910F910C9404220F93A5
:104470001F930091B9021091BA022091BB023091B2
:10448000BC0260277127822793271F910F910C94FC
:1044900004220C9401220C9449220E944B22609326
:1044A000B5027093B6028093B7029093B8020C9451
:1044B000561E60E070E0CB010C944D220F931F93C9
:1044C00041E050E060E070E08A019B0104C0000F11
:1044D000111F221F331F8A95D2F7C901B8011F91FE
:1044E0000F910C944D220F931F9341E050E060E038
:1044F00070E004C0440F551F661F771F8A95D2F7DE
:104500008091B5029091B602A091B702B091B80225
:104510008A019B01082B192B2A2B3B2BC901B801BF
:104520001F910F910C944D220F931F9341E050E087
:1045300060E070E004C0440F551F661F771F8A9526
:10454000D2F7CB01BA016095709580959095009156
:10455000B5021091B6022091B7023091B8026023E3
:104560007123822393231F910F910C944D220F935B
:104570001F9341E050E060E070E004C0440F551F1D
:10458000661F771F8A95D2F78091B5029091B60287
:10459000A091B702B091B8028A019B0108271927A0
:1045A0002A273B27C901B8011F910F910C944D2276
:1045B0000F931F930091B5021091B6022091B7029C
:1045C0003091B802602B712B822B932B1F910F918E
:1045D0000C944D220F931F930091B5021091B602D7
:1045E0002091B7023091B802602371238223932374
:1045F0001F910F910C944D220F931F930091B502C0
:104600001091B6022091B7023091B802602771274D
:10461000822793271F910F910C944D220895CF93D9
:10462000DF93282F362F892F66E00E94A330820F58
:10463000982F9770E1E001C0EE0F9A95EAF7869502
:104640008695869590E065E070E00E94AC30DC01D4
:10465000A956BD4F50E040E0632F70E08D91ED0111
:1046600021979B01042E02C0369527950A94E2F704
:104670002170219528272E23282728834F5F5F4FFD
:104680004530510559F7DF91CF910895282F892F93
:1046900066E00E94A330820FA82FA77086958695AA
:1046A000869590E065E070E00E94AC30FC01E95630
:1046B000FD4F50E040E080E0219130E00A2E02C042
:1046C000369527950A94E2F721703327042E01C00E
:1046D000220F0A94EAF7822B4F5F5F4F4530510556
:1046E00059F70895BF92CF92DF92EF92FF920F9306
:1046F0001F93CF93DF938C01C090B502D090B60288
:10470000E090B702F090B8028091B9029091BA029D
:10471000A091BB02B091BC02C82AD92AEA2AFB2A7E
:10472000CFE1D0E0BC2ED701C6010C2E04C0B69557
:10473000A795979587950A94D2F780FD0EC021978B
:1047400088F7B12C8B2DDF91CF911F910F91FF90A6
:10475000EF90DF90CF90BF900895B8018C2F0E940A
:10476000AF05019761F3EECFCF93DF93EC010E9489
:104770007223BE01DF91CF910C94AF051F93CF93AD
:10478000DF93EB0190915E02992331F0CB01DF9131
:10479000CF911F910C94B423882379F0CB010E9410
:1047A0007223182F682FCE010E940F23BE01812F84
:1047B000DF91CF911F910C94AF05CB010E9446234E
:1047C000182FF4CF682F80911801909119010C9443
:1047D000B125682F80911801909119010C94B3258F
:1047E00080911801909119010C94B5258091BD021A
:1047F00085958595859508958091BD02877008956A
:104800009091BD02977081E009F480E00895809155
:10481000C90208959091C902892B8093C902089515
:1048200080959091C90298239093C902089510929F
:10483000C90208959091C802892B8093C8020895F7
:1048400080959091C80298239093C8020895109281
:10485000C80208959091C702892B8093C7020895DA
:1048600080959091C70298239093C7020895109263
:10487000C70208958091BE02089508950C943D24C6
:104880009091BE02981721F08093BE020C943E24B2
:1048900008958091BE02882329F01092BE0280E024
:1048A0000C943E240895E0911801F0911901809133
:1048B000C9028083E0911801F091190180819091E3
:1048C000C802892B8083E0911801F0911901808141
:1048D0009091C702892B80839091BE02992381F029
:1048E000E0911801F09119018081892B80838091DA
:1048F0001801909119010E94692581110E94492493
:1049000080911801909119010C94C41908950C9488
:104910008624982F990F990F990F962B9093BD028B
:104920000E9473228091BD028595859585950C9492
:1049300087241092BD0280E00C9487249091BD02E0
:10494000809589238093BD02282F277071F4282F2A
:10495000082E000C330B9217130639F085958595B8
:1049600085950E9494220C94992408956FEF7FEF0F
:1049700090E080E00C94E43190E080E00E94C0314F
:1049800021E08C3E9E4F09F020E0822F089582E0C6
:1049900090E00C94B23183E090E00C94B231CF936C
:1049A00084E090E00E94B231C82F81E290E00E9442
:1049B000B231982F8C2FCF910895CF93C92F682FA4
:1049C00084E090E00E94C6316C2F81E290E0CF91AC
:1049D0000C94C63186E090E00C94B231682F86E0EA
:1049E00090E00C94C631AB01BC018FE090E00C94D8
:1049F000D831AB01BC0183E190E00C94D83160E088
:104A000070E0CB010C94F92460E070E0CB010E94CF
:104A1000F3240C94FF246CEE7EEF90E080E00E9483
:104A2000E43160E082E090E00E94C63160E083E023
:104A300090E00E94C6311092B9021092BA02109210
:104A4000BB021092BC0260E084E090E00E94C6319C
:104A500060E081E290E00E94C63160E085E090E095
:104A60000E94C63160E086E090E00E94C6316FEFA0
:104A700087E090E00E94C63140E050E0BA0188E053
:104A800090E00E94D83160E08DE090E00E94C63155
:104A900040E050E0BA0188E190E00E94D83160E047
:104AA00087E190E00E94C63140E050E0BA018CE11D
:104AB00090E00E94D83160E080E290E00E94C63130
:104AC0000C9404250C940B25682F8EE090E00C9438
:104AD000C6319C012E5F3F4FAC01485F5F4F80E0C5
:104AE0002417350709F40895F90191919F0199233D
:104AF000B9F38F5FF5CF662349F0FC013296089633
:104B00002191261729F0E817F907D1F780E00895D9
:104B100081E008959C01FC0132969FEF80E0419175
:104B2000461751F09F3F19F4411101C0982F8F5F34
:104B30008630A9F79F3F09F40895290F311D97FD8D
:104B40003A95F90162830895FC0132960896219105
:104B5000261303C0DF0111971C92E817F907B9F774
:104B600008950C948A250C94A425029626E0FC0155
:104B700011922A95E9F70895089508950C94BD259A
:104B80000E94BE2580912D03843061F11092CB02EA
:104B900088E190E020E40FB6F894A8958093600037
:104BA0000FBE2093600080E00E94EE1180E00E9422
:104BB0009B050E94BE2583B7817F846083BF83B736
:104BC000816083BF7894889583B78E7F83BF0FB64B
:104BD000F894A8958091600088618093600010929D
:104BE00060000FBE08950895CF930E94BC250E94D7
:104BF000FC070E94F325C0E08C2F0E94AB078111B7
:104C000005C0CF5FC830C1F7CF91089581E0FCCFD8
:104C100008950C9408260E946C1E0E9498100E9411
:104C2000B8190E949B050C9409261F921FB61F926B
:104C300011248F939F93AF93BF938091CB028111E7
:104C400013C08091230390912403A0912503B09178
:104C500026034196A11DB11D809323039093240345
:104C6000A0932503B0932603BF91AF919F918F919D
:104C70001F901FBE1F90189582E084BD93E095BDE4
:104C80009AEF97BD80936E0008952FB7F8948091A6
:104C9000230390912403A0912503B09126032FBFF5
:104CA00008952FB7F89460912303709124038091A5
:104CB0002503909126032FBF08959C014FB7F894C8
:104CC0008091230390912403A0912503B0912603A2
:104CD0004FBF821B930B089578941F921FB61F92AB
:104CE00011248F939F93AF93BF938091230390914F
:104CF0002403A0912503B09126030196A11DB11DA7
:104D00008093230390932403A0932503B093260359
:104D1000BF91AF919F918F911F901FBE1F901895CB
:104D200081E08093E00080E28093D8001092C90077
:104D30008FE19EE40197F1F700C0000087E090EB5F
:104D4000DC018093360390933703A0933803B0932C
:104D5000390388E19CE00FB6F894A8958093600031
:104D60000FBE90936000FFCF0C9424140E94FC07A8
:104D70008FE39CE90197F1F700C000000E94FC0757
:104D800080E00E94AB0780FF04C00E94B4260C9410
:104D9000902608950E94BC24811102C00E946225C1
:104DA0000E94C7248093CA020E94CF2490932803B4
:104DB000809327030E94CB24682F70E090E080E06E
:104DC0000E9411226091B5027091B6028091B702E3
:104DD0009091B8020C944B228091D20280FF11C0B6
:104DE00080911F0190E065E070E00E94AC309595E5
:104DF00087959595879580389105B0F50097B1F125
:104E0000089581FF0AC080911F0190E065E070E085
:104E10000E94AC3095958795EECF82FF08C08091B7
:104E20001F0190E065E070E00E94AC30E4CF80911B
:104E3000D1028823B1F020911E0160911F0170E022
:104E4000821710F0CB01EECF90E00E94AC3065E00D
:104E500070E00E94AC30622F70E00E940431CB0100
:104E6000CACF85E090E008958FE7089581E0089526
:104E70008091D20280FF0CC060911B0170E075959B
:104E80006795759567956115710559F1862F089598
:104E900081FF06C060911B0170E075956795F3CFA7
:104EA00060911B0170E082FD0CC06091D00266230E
:104EB000A9F020911A0180911B0190E0621730F057
:104EC000BC0160387105F8F28FE7089570E00E9428
:104ED000AC30622F70E00E940431F3CF61E070E0EB
:104EE000D5CF81E00895803F31F40E94EC26819572
:104EF0008093D6020895813F19F40E94EC26F8CFE2
:104F0000823F31F40E94EC2681958093D50208956A
:104F1000833F19F40E94EC26F8CF893F29F40E94C0
:104F200038278093D70208958A3F21F40E943827BA
:104F30008195F7CF8B3F31F40E943827819580937C
:104F4000D80208958C3F19F40E943827F8CF843F87
:104F500031F48091D40281608093D4020895853F1A
:104F600021F48091D4028260F7CF863F21F48091B2
:104F7000D4028460F1CF873F21F48091D40288600D
:104F8000EBCF883F21F48091D4028061E5CF8D3F43
:104F900031F48091D20281608093D20208958E3FD5
:104FA00021F48091D2028260F7CF8F3FB9F78091D0
:104FB000D2028460F1CF9091D502803F59F4809164
:104FC000D60287FF0DC01092D60291110BC010922D
:104FD000D10208C0813F81F48091D60218169CF35B
:104FE000992381F08091D7029091D802892B09F002
:104FF00064C01092D0020895823F49F497FFF0CF29
:105000001092D5028091D6028111ECCFE0CF833F80
:1050100019F41916ACF3E4CF2091D702893F29F493
:105020001216F4F61092D702DBCF8A3F19F427FF4D
:10503000D7CFF8CF2091D8028B3F29F427FFD0CFCC
:105040001092D802CDCF8C3F19F41216CCF3C8CFF2
:10505000843F31F48091D4028E7F8093D402C0CFFC
:10506000853F21F48091D4028D7FF7CF863F21F4D4
:105070008091D4028B7FF1CF873F21F48091D402BD
:10508000877FEBCF883F21F48091D4028F7EE5CFDC
:105090008D3F31F48091D2028E7F8093D202A0CFD7
:1050A0008E3F21F48091D2028D7FF7CF8F3F09F0A0
:1050B00097CF8091D2028B7FF0CF08950E94452632
:1050C0009C019091D5028091D602982B21F03093CB
:1050D000CF022093CE029091D7028091D802982BD4
:1050E00021F03093CD022093CC0283ED92E00C941A
:1050F000CF19EF92FF920F931F93CF93DF9300D0BE
:1051000000D000D0CDB7DEB786E0E3EDF2E0DE01FF
:10511000119601900D928A95E1F7E090D502F090FA
:10512000D6020091D7021091D8021092D5021092A7
:10513000D6021092D7021092D8028E2D8F2991F0AC
:105140008091CE029091CF020E945D26FC012091B9
:10515000D102222309F43FC0809120018E171F063F
:1051600008F448C0802F812B91F08091CC0290915F
:10517000CD020E945D26FC012091D002222309F479
:105180007CC080911C018E171F0608F485C0809199
:10519000D5029091D602892B9091D702892B9091BC
:1051A000D802892B11F00E945E2886E0FE0131961C
:1051B000A3EDB2E001900D928A95E1F726960FB625
:1051C000F894DEBF0FBECDBFDF91CF911F910F913D
:1051D000FF90EF9008958091210190E06AE070E0E7
:1051E0000E94AC308E179F0708F0BCCF2F5F209332
:1051F000D10202C02F3FD1F7EE2051F00E94EC26E1
:105200006FEF1E140CF461E00E94A3308093D5026E
:10521000FF2051F00E94EC266FEF1F140CF461E0A8
:105220000E94A3308093D6028091D502882309F48E
:1052300099CF2091D602222309F494CF082E000C96
:10524000990B65EB70E00E94AC30992371F090935C
:10525000D502822F220F990B65EB70E00E94AC30D3
:10526000992339F09093D6027DCF81E08093D502C7
:10527000F0CF81E08093D60275CF80911D0190E040
:105280006AE070E00E94AC308E179F0708F07FCF75
:105290002F5F2093D00202C02F3FD1F7002351F09F
:1052A0000E9438276FEF10160CF461E00E94A330C3
:1052B0008093D702112351F00E9438276FEF111607
:1052C0000CF461E00E94A3308093D8028091D70251
:1052D000882309F45CCF2091D802222309F457CF08
:1052E000082E000C990B65EB70E00E94AC309923FE
:1052F00071F09093D702822F220F990B65EB70E02B
:105300000E94AC30992339F09093D80240CF81E0CD
:105310008093D702F0CF81E08093D80238CF86E027
:10532000E3EDF2E0DF011D928A95E9F71092D102D8
:105330001092D0021092D20208958091E102089555
:10534000CF93DF9300D00F92CDB7DEB790912D03AE
:10535000943011F589837B836A839093E9008FEF02
:105360009091E800815095FD06C095ED9A95F1F772
:1053700000008111F5CF8091E80085FF0DC050E05D
:1053800040E063E070E0CE0101960E94022C809123
:10539000E8008E778093E8000F900F900F90DF91D8
:1053A000CF910895BC0184E00C94A029BC0183E056
:1053B0000C94A0299C0184E08093E9009FEF8091E8
:1053C000E800915085FD06C085ED8A95F1F7000053
:1053D0009111F5CF8091E80085FF0CC050E040E0CE
:1053E00066E070E0C9010E94022C8091E8008E778F
:1053F0008093E8000895CF93DF93EC0181E08093E0
:10540000E9008FEF9091E800815095FD06C095ED81
:105410009A95F1F700008111F5CF8091E80085FFA2
:1054200014C050E040E068E070E0CE010E94022C21
:105430008091E8008E778093E80088E0FE01A9ED76
:10544000B2E001900D928A95E1F7DF91CF91089536
:10545000CF93FC01603221F580912D03843001F55A
:10546000C091E900CF702091EC00922F917020FD47
:1054700090E8C92B82E08093E9008091E80080FFEA
:105480000CC050E040E060E270E0CF010E94022CCE
:105490008091E8008E778093E800CF70C093E90098
:1054A000CF910895089508950C940B2642E061EC85
:1054B00081E00E94592D42E261EC84E00E94592D66
:1054C00042E261EC82E00E94592D42E260EC83E00E
:1054D0000C94592D80912F03833009F45FC030F470
:1054E0008130C1F1823009F49BC008958A3009F4FB
:1054F00087C08B3009F46DC0893009F04EC08091AF
:105500002E03813209F049C0809132039091330318
:10551000009719F0029709F040C08091E800877F5A
:105520008093E8008091E80082FF33C08091F20010
:10553000823029F48091F1008B7F813021F48091B9
:10554000F1008093E1028091E8008B778093E8007E
:105550000C948D2D80912E03813AF9F48091E8000E
:10556000877F8093E8008091320390913303892BE9
:1055700061F468E089ED92E070E00E94A02C8091D7
:10558000E8008B778093E800089560E090E080E089
:10559000F3CF80912D038111C5CF089580912E0303
:1055A000813AD9F78091320390913303892BA9F77F
:1055B0008091E800877F8093E8008091E80080FF79
:1055C000FCCF80912C018093F1008091E8008E77D0
:1055D000BDCF80912E03813201F7809132039091EB
:1055E0003303892BD1F68091E800877F8093E80010
:1055F0000E948D2D8091300380932C010C946C1EA1
:1056000080912E03813249F68091E800877F809354
:10561000E8000E948D2D809131038093E20208956D
:1056200080912E03813A09F0B8CF8091E800877FFE
:105630008093E8008091E80080FFFCCF8091E20237
:10564000C2CFCDB7DEB7A0970FB6F894DEBF0FBEBE
:10565000CDBF84B7877F84BF0FB6F894A89580919B
:105660006000886180936000109260000FBE80E847
:1056700090E00FB6F89480936100909361000FBEA4
:105680000E94101A0E94DD2D0E94302E8091E200AF
:1056900084608093E20078940E9488300E94181AF7
:1056A00082E291E00E94B31913E080912D038530CE
:1056B00039F10E94281A80912D038430B1F710939C
:1056C000E9008091E80082FFF0CF8091E80090E04F
:1056D00085FF09C050E040E060E270E0CE01019635
:1056E0000E94512C91E08091E8008B778093E80034
:1056F0009923D9F260E2CE0101960E941315D5CF0D
:105700000E94C02580912B03882379F20E94F42502
:10571000882359F20E94EC2BC8CF0C948F2B292F91
:1057200033272330310521F168F42130310509F4A4
:1057300049C02230310509F44AC090E080E030E0F1
:1057400020E029C02132310581F122323105A9F74B
:105750006330710590F7FB01EE0FFF1FE152FE4F22
:105760002081318164527E4FFB01808190E013C023
:1057700099278130910599F0009741F08230910589
:1057800089F00397D1F6EEE2F5E002C0E8E5F5E036
:10579000849190E09F01FA01318320830895ECE425
:1057A000F5E0F6CFE4E3F5E0F3CF6330710528F6DA
:1057B000660F771FFB01EB51FE4F2081318189E09D
:1057C00090E0E9CF82E190E027EB35E0E4CF8BE594
:1057D00090E02CE535E0DFCF84E089BD86E089BD2F
:1057E00009B400FEFDCF8091D8008F7D8093D80052
:1057F0008091E00082608093E0008091E00081FD74
:10580000FCCF0895AF92BF92CF92DF92FF920F9399
:105810001F93CF93DF936C01EB018A010E94AC2DA3
:10582000F82E811123C00115110539F0F80180818E
:105830009181C81BD90BC80ED91EB12CA12C209761
:10584000A9F08091E80085FD22C08091E8008E7764
:105850008093E80001151105A1F0F8018081918184
:10586000A80EB91EB182A08285E0F82E8F2DDF919F
:10587000CF911F910F91FF90DF90CF90BF90AF908D
:1058800008950E94AC2D8823D1F2F82EEFCFF601B7
:1058900081916F018093F1002197FFEFAF1ABF0A4A
:1058A000CECFAF92BF92CF92DF92FF920F931F9312
:1058B000CF93DF936C01EB018A010E94AC2DF82E8F
:1058C000811123C00115110539F0F8018081918102
:1058D000C81BD90BC80ED91EB12CA12C2097A9F03A
:1058E0008091E80085FD22C08091E8008B7780934D
:1058F000E80001151105A1F0F80180819181A80E41
:10590000B91EB182A08285E0F82E8F2DDF91CF9154
:105910001F910F91FF90DF90CF90BF90AF900895AF
:105920000E94AC2D8823D1F2F82EEFCF8091F100A8
:10593000F60181936F012197FFEFAF1ABF0ACECF17
:10594000FC01809134039091350386179707A0F0EE
:105950006115710529F49091E8009E779093E80015
:1059600090E06115710551F4911108C08091E80033
:1059700082FF32C080E00895BC01F2CF80912D03F8
:105980008823B1F18530B1F18091E80083FD2EC00C
:105990008091E80082FDEACF8091E80080FFE1CFAE
:1059A0002091F20030E06115710519F028303105C1
:1059B00058F091E02830310509F090E02091E8009E
:1059C0002E772093E800CDCF81918093F100615034
:1059D00071092F5F3F4FE7CF80912D03882341F05E
:1059E000853041F08091E80083FFC0CF81E00895C9
:1059F00082E0089583E00895FC0180913403909142
:105A0000350386179707A0F06115710529F4809179
:105A1000E8008E778093E80090E06115710551F4FD
:105A2000911108C08091E80082FF33C080E00895A2
:105A3000BC01F2CF80912D038823B9F18530B9F1F3
:105A40008091E80083FD2FC08091E80082FDEACFBD
:105A50008091E80080FFE1CF2091F20030E06115F5
:105A6000710519F02830310558F091E028303105E2
:105A700009F090E08091E8008E778093E800CDCF28
:105A800084918093F1003196615071092F5F3F4FEF
:105A9000E6CF80912D03882341F0853041F080913D
:105AA000E80083FFBFCF81E0089582E0089583E09E
:105AB0000895982F953028F08F708093E90081E049
:105AC00008959093E900242F762F50E0981731F035
:105AD0007091EC002091ED005091F00021FD02C08A
