:100000000C9416030C944E030C944E030C944E0364
:100010000C944E030C944E030C944E030C944E031C
:100020000C944E030C944E030C944E030C944C1FF2
:100030000C94081F0C941B200C944E030C944E033C
:100040000C944E030C944E030C944E030C94F71F27
:100050000C944E030C944E030C944E030C944E03DC
:100060000C944E030C944E030C944E030C944E03CC
:100070000C944E0305010902A10185020901A100AA
:100080000509190129081500250195087501810246
:100090000501093009311581257F95027508810612
:1000A00009381581257F950175088106050C0A38E8
:1000B000021581257F950175088106C0C0050109DB
:1000C00080A101850319012AB700150126B7009503
:1000D0000175108100C0050C0901A10185041901F9
:1000E0002AA002150126A002950175108100C00604
:1000F00060FF0961A1010962150026FF00952075C6
:100100000881020963150026FF00952075089102F9
:10011000C005010906A101050719E029E715002519
:10012000019508750181029501750881010507197E
:100130000029FF150026FF009506750881000508B7
:100140001901290595057501910295017503910124
:10015000C0000000000000000000000000000000DF
:10016000000000000000000000000000000000008F
:1001700000000000007E0F00D4FFFFFFC70000005A
:100180007800000000000000002A2B28000000007A
:100190000000000000000000000000002900000036
:1001A000002C1E3420212224342627252E362D37DC
:1001B00038271E1F202122232425263333362E37AD
:1001C000381F0405060708090A0B0C0D0E0F101145
:1001D00012131415161718191A1B1C1D2F31302352
:1001E0002D350405060708090A0B0C0D0E0F10111A
:1001F00012131415161718191A1B1C1D2F31303520
:100200004C1E0F0500047F3F1F64321464321478C3
:100210003C1E1E140A05000101010101010101013A
:1002200002020202020202020203030303030303A7
:100230000304040404040404050505050506060674
:100240000606070707070708080808090909090A31
:100250000A0A0B0B0B0C0C0C0D0D0D0E0E0E0F0FD6
:100260000F10101111111212131314141515161664
:100270001717181819191A1A1B1B1C1D1D1E1E1FD3
:100280002020212222232424252626272829292A22
:100290002B2C2D2D2E2F303132323334353637384A
:1002A000393A3B3C3D3E3F40414243444546474846
:1002B000494A4C4D4E4F50515354555658595A5B1C
:1002C0005D5E5F616264656668696B6C6D6F7072BC
:1002D000737577787A7B7D7E8082838587888A8C28
:1002E0008E8F91939596989A9C9EA0A2A3A5A7A95C
:1002F000ABADAFB1B3B5B7BABCBEC0C2C4C6C9CB53
:10030000CDCFD1D4D6D8DBDDDFE2E4E7E9EBEEF008
:10031000F3F5F8FAFDFFFFAA7F5540222325262892
:10032000292A2C2D2F3032333536383A3B3D3E408A
:1003300042434547494A4C4E5051535557595A5CD0
:100340005E6062646668696B6D6F71737577797BE7
:100350007D7F81838587898A8C8E90929496989AE6
:100360009C9E9FA1A3A5A7A8AAACAEAFB1B3B4B6FB
:10037000B8B9BBBCBEBFC1C2C3C5C6C7C9CACBCC56
:10038000CDCED0D1D2D2D3D4D5D6D7D7D8D9D9DA29
:10039000DADBDBDBDCDCDCDCDCDDDDDDDDDCDCDC9E
:1003A000DCDCDBDBDBDADAD9D9D8D7D7D6D5D4D3C6
:1003B000D2D2D1D0CECDCCCBCAC9C7C6C5C3C2C19B
:1003C000BFBEBCBBB9B8B6B4B3B1AFAEACAAA8A7F8
:1003D000A5A3A19F9E9C9A98969492908E8C8A89B0
:1003E000878583817F7D7B79777573716F6D6B698D
:1003F00068666462605E5C5A5957555351504E4C62
:100400004A4947454342403E3D3B3A383635333210
:10041000302F2D2C2A2928262523222B0014001AC0
:1004200000090013000A000D000F0018001C003323
:10043000002A002961040015001600170007000BB0
:1004400000110008000C0012003400E1001D001B28
:10045000000600190005000E0010003600370038B5
:100460000028004600E000E200E30001582C002CC8
:100470000002585000510052004F0035021E021F6A
:100480000220022102220223022402250226022740
:10049000022A0038001E001F002000210022002335
:1004A0000024002500260027003100010001000182
:1004B00000010001000100010057002E00010001B1
:1004C000000100010029004C052903010001000181
:1004D000000100010064003500010001000100017D
:1004E0000052000100010001002D0201002F003028
:1004F00000010001000100500051004F0001000107
:10050000002D0001002F02300201003A003B003CA8
:10051000003D003E003F00400041004200430044D7
:10052000004500005C010001000100010001000124
:1005300000010001000100010001000100010001B3
:100540000052000100010001002D0201002F0030C7
:1005500000010001000100500051004F00010001A6
:10056000002D0001002F02300201003A003B003C48
:10057000003D003E003F0040004100420043004477
:10058000004500005C0100010001000100010001C4
:10059000000100010001000100010009025B0003ED
:1005A0000100A0FA09040000010301010009211162
:1005B0000100012240000705810308000109040130
:1005C000000203000000092111010001222200079E
:1005D000058203200001070503032000010904022E
:1005E000000103000000092111010001227B000726
:1005F0000584032000011201000200000008707051
:100600005453010001020001120351007500610002
:1006100072006B0020004C00500000000A034E00E6
:1006200061007300700000000403090411241FBE60
:10063000CFEFD4E0DEBFCDBF04B603FE18C080917B
:10064000FC039091FD03A091FE03B091FF0387305E
:10065000904BA740B04B59F41092FC031092FD034D
:100660001092FE031092FF03E0E0F8E3099523E007
:10067000AAE9B1E001C01D92AC3FB207E1F711E079
:10068000A0E0B1E0EAEFFFE402C005900D92AA39C4
:10069000B107D9F70E9442200C94D2270C94000095
:1006A0002091E4003091E50095E6A9012091EC004D
:1006B000822F817020FF06C08091E80080FF06C075
:1006C00080E008952091E80022FD1AC08091EE0399
:1006D000882389F0853089F08091EB0085FD0FC07B
:1006E0002091E4003091E50042175307F9F2915050
:1006F000E1F684E0089582E0089583E0089581E0C2
:100700000895EF92FF920F931F93CF937C018B017B
:100710000E945003C82F811117C08091E80085FD09
:100720000BC08091E8008E778093E8000E94500310
:10073000882399F3C82F08C0F70181917F01809326
:10074000F1000150110949F78C2FCF911F910F91A2
:10075000FF90EF9008958091F00387FF13C0809180
:10076000E80082FF06C08091E8008B778093E80064
:1007700004C08091EE038111F2CF08958091EE03C1
:100780008823D9F38091E80080FFF8CF8091E800BA
:100790008E77ECCF982F9093E900242F762F50E09E
:1007A000891731F07091EC002091ED005091F0002C
:1007B00021FD07C09F5F953071F78093E90081E0CC
:1007C00008953091EB003E7F3093EB003091ED00C7
:1007D0003D7F3093ED003091EB0031603093EB00C2
:1007E0007093EC002093ED005093F0002091EE0008
:1007F00027FDE0CF80E00895FC018091F603909101
:10080000F70386179707A0F06115710529F49091F9
:10081000E8009E779093E80090E06115710551F42F
:10082000911108C08091E80082FF32C080E00895F5
:10083000BC01F2CF8091EE038823B1F18530B1F194
:100840008091E80083FD2EC08091E80082FDEACF10
:100850008091E80080FFE1CF2091F20030E0611547
:10086000710519F02830310558F091E02830310534
:1008700009F090E02091E8002E772093E800CDCF9A
:1008800081918093F100615071092F5F3F4FE7CF55
:100890008091EE03882341F0853041F08091E8009B
:1008A00083FFC0CF81E0089582E0089583E008953A
:1008B00008958091E30308959C014FB7F8948091C7
:1008C000DB039091DC03A091DD03B091DE034FBF09
:1008D000821B930B08952FB7F8948091DB039091BE
:1008E000DC03A091DD03B091DE032FBF08952091BA
:1008F000D8033091D9032817390771F09093D903A1
:100900008093D803E091D603F091D703309721F07C
:100910000084F185E02D099508952091D40330914C
:10092000D5032817390771F09093D5038093D4032A
:10093000E091D603F091D703309721F00680F7813C
:10094000E02D09950895E091D603F091D7033097F3
:1009500029F00190F081E02D0995089580E0089537
:10096000FA01811101C0FB01099508950895809154
:10097000CF03982F9E7F61F4817082608093CF03B4
:100980008091D203863A18F085EA8093D2030895C5
:100990008635B0F381708465F1CFB0E0A0E0E3ED7F
:1009A000F4E00C9489268901463A08F045EAE42FE0
:1009B000F0E0EA5EFD4F61110FC09491392FE92FED
:1009C000D8011196EC9311979C9312963C93CDB756
:1009D000DEB7EAE00C94A526C82FD0E0E62EF12C75
:1009E000E4914E2FAE2EB12CCE0166E070E00E9455
:1009F0002126CC24CA94D12CB6010E944C26DB01BE
:100A0000CC0FDD1FCB0165E570E00E942126C81BDD
:100A1000D90B8C2F880FC80FC6018E199F09B501FD
:100A20000E942126392FD0E0CE01B7010E94212655
:100A3000692F70E0C601861B970BB5010E94212625
:100A4000292FC6018C1B9D0BB7010E942126692FFF
:100A500070E0C601861B970BB5010E942126892FE5
:100A6000A230B10589F040F4109709F4A9CF11978D
:100A700079F0932F322FA4CFA430B10561F078F034
:100A8000169709F49DCFF5CF9E2FE32F382F98CFDF
:100A90009E2FE22F95CF932F3E2FE82F91CFE32F5C
:100AA000342F922F8DCF0E946B049C0190912802CD
:100AB00080912902982B21F0309325022093240263
:100AC00090912A0280912B02982B21F030932302DF
:100AD00020932202E091D603F091D703309749F09A
:100AE00082E0809326020480F581E02D86E292E088
:100AF0000995089540912802803F59F48091290278
:100B000087FF0DC01092290241110BC010922002E4
:100B100008C0813F81F48091290218169CF3442378
:100B200081F080912A0290912B02892B09F05AC002
:100B300010921F020895823F49F447FFF0CF1092B0
:100B40002802809129028111ECCFE0CF833F19F474
:100B50001416ACF3E4CF90912A02893F29F41916B8
:100B6000F4F610922A02DBCF8A3F19F497FFD7CF11
:100B7000F8CF90912B028B3F29F497FFD0CF1092A2
:100B80002B02CDCF8C3F19F41916CCF3C8CF9CE0C3
:100B9000980F953090F4845F990B21E030E0B90113
:100BA00002C0660F771F8A95E2F7CB01809590917E
:100BB0002702892380932702B2CF8D3F31F48091A1
:100BC00021028E7F80932102AACF8E3F21F4809153
:100BD00021028D7FF7CF8F3F09F0A1CF80912102B5
:100BE0008B7FF0CF08958091210280FD18C081FD98
:100BF00018C082FD18C080911F028823B1F088328E
:100C000090F490E023E0880F991F2A95E1F768E2BD
:100C100070E00E946026862F672B39F0089582E0ED
:100C2000089584E0089588E0089581E00895809112
:100C3000210280FD15C081FD15C082FD17C0809185
:100C40002002882389F08E3188F490E060E570E01E
:100C50000E9421266EE170E00E946026862F089592
:100C600084E1089588E2089588E0089580E5089574
:100C7000803F31F40E9417068195809329020895E0
:100C8000813F19F40E941706F8CF823F31F40E9489
:100C900017068195809328020895833F19F40E94D6
:100CA0001706F8CF893F29F40E94F30580932A02A2
:100CB00008958A3F21F40E94F3058195F7CF8B3F79
:100CC00031F40E94F305819580932B0208958C3FA7
:100CD00019F40E94F305F8CF9CE0980F953070F45A
:100CE000845F990B21E030E001C0220F8A95EAF77A
:100CF00080912702822B8093270208958D3F31F443
:100D00008091210281608093210208958E3F21F419
:100D1000809121028260F7CF8F3FB9F78091210245
:100D20008460F1CF80E00895F894E82FE295EF70A9
:100D3000F0E031A1282F2F7081E090E001C0880FF2
:100D40002A95EAF7982F9095932391A392A1892B46
:100D500082A3789408959091080292FF06C0282FEC
:100D600028712830F9F4877F846093FF06C0282F0C
:100D700028712831F1F4877E84612091090220FFD7
:100D800006C0382F38713830D9F4877F816021FF51
:100D900006C0282F28712831D1F4877E816194FD07
:100DA000877E0895282F24712430F9F68B7F886080
:100DB000DCCF282F2471243101F78B7E8861DDCFB1
:100DC000382F3171313019F78E7F8860E0CF282FAE
:100DD0002171213121F78E7E8861E1CFCF93DF939E
:100DE000EC0182389105B1F108F040C081339105E2
:100DF00009F49DC048F58932910509F48DC08A97A0
:100E000009F49CC0C11521E5D20708F0C3C0C11583
:100E100030E5D30708F020C1C83ED10508F0A3C0D3
:100E2000C13ED10588F5C83AD10508F08EC0C53A53
:100E3000D10508F009C1C130D10531F1209721F168
:100E4000C430D10508F545C08533910509F45FC06C
:100E5000C997C1F680910802837009F049C1809159
:100E6000090283FF11C0C9E2D0E00EC0833E9105A4
:100E700099F170F4803E910501F1823E910511F6E1
:100E80008091080282FD21C0CE01DF91CF910895AB
:100E9000863E910561F1873E910571F1843E910591
:100EA00009F0B0CF8091090281FFEECF8091080256
:100EB000C7EED0E084FD0DC0E7CF8091080280FD31
:100EC00033C09091090290FFDFCFC3EED0E084FFE2
:100ED000DBCFD0E0C0E0D8CF8091080282FD05C111
:100EE0009091090290FD04C184FFCECFF2CF809192
:100EF000080283FDDDCFC8CF8091080283FDFBC0CF
:100F00009091090291FFF0CFC4EED0E0BDCF809167
:100F1000080285FFB9CFA7CF8091080285FDEEC0FA
:100F20008091090283FFB0CFC9E3D0E0ADCF8091BB
:100F3000080286FFA9CFCAE2D0E0A6CF80910802BE
:100F400086FFA2CFC1E3D0E09FCFCF3BD10508F60B
:100F5000C85AD0E0CC0FDD1FCE5DDE4F0990D8819E
:100F6000C02DD46491CFC11540E2D40758F4C11507
:100F700081E0D80708F088CFC03FD10508F4A9CF99
:100F8000D06582CFC11520E4D20708F4A2CFDF706C
:100F9000D06A7ACFC11535E5D30728F5C11544E5E8
:100FA000D40708F08AC0C11583E5D80708F06FC0E0
:100FB000C11522E5D20708F465C0CE0183709927D8
:100FC00021E030E002C0220F331F8A95E2F7C69578
:100FD000C695D0E0E5E0CC0FDD1FEA95E1F7C22B26
:100FE000D32BDC6851CFC11539E5D307A8F4C1155F
:100FF00048E5D40708F066C0C11586E5D80708F0B3
:1010000068CF8C2F0E94AB06C82FD0E0DC2FCC27F6
:10101000CC27DF71D06238CFC1152AE5D20708F49A
:1010200056C0CE0190568115904208F052CF8D2FB8
:101030008F710E94AB0690E0982F882788279F71B8
:101040009C012C2BE901E6CFC55AD0E0C15EDE4FF2
:10105000C881D0E0D06418CFCE018370992721E0F9
:1010600030E002C0220F331F8A95E2F7C695C6957D
:10107000D0E0A5E0CC0FDD1FAA95E1F7C22BD32B62
:10108000DD6802CFDC2FCC27C16FD06AFDCECE0148
:101090008370992721E030E002C0220F331F8A9528
:1010A000E2F7C695C695D0E075E0CC0FDD1F7A95C6
:1010B000E1F7C22BD32BDA68E7CEDC2FCC27C46F45
:1010C000D06AE2CEDC2FCC27C06FD06ADDCE8C2F69
:1010D0008F700E94AB0634E0D695C7953A95E1F73C
:1010E000CF709C2FEC01D069CFCEC2EED0E0CCCE39
:1010F000C0EED0E0C9CEC6EED0E0C6CEC5E3D0E0AB
:10110000C3CE8091FA0181111092FA010895809561
:101110009091F90198239093F9010895EEE9F1E097
:101120009191891303C0DF0111971C9291E0E43A79
:10113000F907B1F70895AEE9B1E0EFEF90E02D9136
:10114000821751F0EF3F19F4211101C0E92F9F5F81
:101150009630A9F7EF3F09F408950E2E000CFF0B0F
:10116000E456FE4F828308958091EE019091BD0177
:10117000981301C008958F5F8770FACF282F94309D
:1011800088F58C3078F5892F90E06CE070E00E9453
:101190002126820F911DA82FA77023E09695879591
:1011A0002A95E1F763E070E00E942126FC01EB55EF
:1011B000FE4F50E040E080E0219130E00A2E02C076
:1011C000369527950A94E2F721703327042E01C043
:1011D000220F0A94EAF7822B4F5F5F4F433051058D
:1011E00059F7089580E00895CF93DF93282F362F85
:1011F0009430B0F58C30A0F5892F90E06CE070E071
:101200000E942126820F911D282F2770E1E001C046
:10121000EE0F2A95EAF723E0969587952A95E1F750
:1012200063E070E00E942126DC01AB55BE4F50E028
:1012300040E0632F70E08D91ED0121979B01042E1A
:1012400002C0369527950A94E2F721702195282748
:101250002E23282728834F5F5F4F4330510559F7CE
:10126000DF91CF9108958093DF037093E103609342
:10127000E0038091EE038430F9F48093E9008FEF6E
:101280009091E800815095FD06C095ED9A95F1F793
:1012900000008111F5CF8091E80085FF0DC050E07E
:1012A00040E063E070E08FED93E00E948103809165
:1012B000E8008E778093E8000895BC0184E00E94E6
:1012C00033090895BC0183E00E94330908959C010D
:1012D00084E08093E9009FEF8091E800915085FDC4
:1012E00006C085ED8A95F1F700009111F5CF809148
:1012F000E80085FF0CC050E040E066E070E0C90106
:101300000E9481038091E8008E778093E800089521
:10131000CF93DF93EC0181E08093E9008FEF909110
:10132000E800815095FD06C095ED9A95F1F7000013
:101330008111F5CF8091E80085FF14C050E040E0B6
:1013400068E070E0CE010E9481038091E8008E7712
:101350008093E80088E0FE01A4EEB3E001900D92D6
:101360008A95E1F7DF91CF91089581E08093E000C5
:1013700080E28093D8001092C9008FE19EE401972B
:10138000F1F700C0000087E090EBDC018093FC03E4
:101390009093FD03A093FE03B093FF0388E19CE0CC
:1013A0000FB6F894A895809360000FBE90936000EC
:1013B000FFCF8091CF0380FD0AC0E7E3F2E0118206
:1013C00010821282339652E0E03DF507C1F73A9A57
:1013D00038B13B7F28B124604FB7F89487E392E09F
:1013E000FC015191CF0168E028B9000000C057FF0F
:1013F00038B9550F000000C000C000C038B900C0A7
:101400006A9591F7F2E0803D9F0751F74FBF8FE556
:1014100094E00197F1F700C000000895EF92FF9269
:101420000F931F93CF93DF938C01C7E3D2E0F12C8E
:10143000E12CF80194816091D1038091D003F9E10E
:10144000EF16F104ECF49923E9F09E014091D203E8
:101450000E94CD042FEFE21AF20A239683E3E816E6
:10146000F10439F70E94D909F801848190E00196CE
:10147000817099278483CDB7DEB7E6E00C94A92666
:10148000992319F39E0140E0E3CFB0E0A0E0EBE444
:10149000FAE00C9483268C01FC01C481CC2ED12C63
:1014A000F12CE12CA7019601C701B6010E94782713
:1014B000A70196010E9478272B013C0140E2C42E2F
:1014C000D12CCC1AD1080D2C000CEE08FF0825E514
:1014D00030E040E050E00E9478274B015C01A7011A
:1014E0009601C701B6010E947827A70196010E94C4
:1014F00078279B01AC01240D351D461D571DC501E4
:10150000B4010E94B027D22E822F90E0F9E2F217A8
:10151000B8F163E070E00E94212697FD0196959551
:101520008795C82FC09537E3E32E32E0F32ED0E045
:1015300085E5C82ECD188C2DD1FD8D2D97014C2F12
:101540006091D1030E94CD04DF5F53E0E50EF11CF2
:10155000D33389F70E94D909F801948181E0992356
:1015600019F0903219F48FEF80931D0180911D01C5
:10157000890FF8018483CDB7DEB7E0E10C949F2694
:1015800025E530E0A901481B590BCA01C2CF0F93D2
:101590001F93CF93DF93C7E3D2E0FE011182108245
:1015A0001282339682E0E03DF807C1F710E000E0D8
:1015B00080913502082E000C990B081719078CF141
:1015C00080911C01082E000C990B801791074CF19B
:1015D0009E014091D2036091D1038091D0030E947B
:1015E000CD040F5F1F4F23960333110509F70E94A7
:1015F000D90980911B0190913502980F9093350283
:1016000020911C01280F20931C01121614F4923310
:101610001CF0819580931B01DF91CF911F910F9159
:101620000895198218821A82DCCFB0E0A0E0EBE1C5
:10163000FBE00C948A26FC018281DD24DA9480FD93
:1016400002C0DD24D39407E312E0D0E0C0E043E31E
:10165000B42EF80111821082128234E0E32EF12CB4
:10166000C12C809134028C0D8433C4F16B2D0E9407
:101670003E26892F082E000C990B8C179D0791F49C
:101680008091D20390E0B7010E942126959587951D
:10169000959587959801482F6091D1038091D0034B
:1016A0000E94CD04CD0CF1E0EF1AF108D1F621969D
:1016B0000D5F1F4FC333D10561F60E94D909809198
:1016C000340291E0D91210C081110CC082E38093E2
:1016D0003402CDB7DEB7E9E00C94A62687FFCACF67
:1016E0008D5CC8CF8150F3CF90E00196BE010E947F
:1016F0006026EDCFEF92FF921F93CF93DF93EC0123
:1017000087E3E82E82E0F82E10E08C81970140916B
:10171000D2036091D103810F0E94CD041B5F83E04F
:10172000E80EF11C1F3F89F70E94D9099A818C812C
:1017300090FF08C08F5F8C83DF91CF911F91FF9046
:10174000EF9008958150F7CF9091CF0390FF0CC098
:10175000E7E3F2E0818360834283339692E0E03DE9
:10176000F907C1F70E94D9090895A3E0B0E0EBEBB7
:10177000FBE00C948F268C018091360281110AC007
:101780009E012F5F3F4F45EA6FEF0E94CD048A8193
:1017900080933602F8016481613069F080913602ED
:1017A00040E0662361F040E0623011F4409136027F
:1017B00080E060E004C06091360240E080E00E947A
:1017C000A40BF801848190E0019663E070E00E9430
:1017D000602684832396E4E00C94AB26A3E0B0E07B
:1017E000E4EFFBE00C9491269091CF0390FF0AC0A8
:1017F0009E012F5F3F4F0E94CD044B8169818A81FA
:101800000E94A40B2396E2E00C94AD26CF93DF93C5
:10181000EC01EFECF3E0438162818C810E94EE0BDE
:101820008C818F5F8C83DF91CF910895CF93DF936D
:10183000EC01EC81F0E0E55EFC4F4491EFECF3E06D
:10184000628181810E94EE0B8C818F5F8C83DF919E
:10185000CF910895CF93DF93C7EAD1E060E0CE0146
:101860000E9444272196C11584E0D807B9F7DF917B
:10187000CF9108951F93CF93DF93E82F122F8430D9
:1018800010F5643000F54C30F0F4862F90E068E1FC
:1018900070E00E942126C42FD0E0CC0FDD1FC80FBE
:1018A000D91F8E2F90E060E670E00E942126C80FBD
:1018B000D91F632FCE0187960E944427612FCE0146
:1018C00088960E944427DF91CF911F910895AF928F
:1018D000BF92CF92DF92EF92FF921F93CF93DF934D
:1018E0008BE1C82E84E0D82ED0E07601C0E014C091
:1018F000F50125913491412F6C2F8D2F0E943A0CC8
:1019000082E0A80EB11C1F5F1C3091F788E1E80E41
:10191000F11CCF5FC43019F0570110E0E9CFDF5F51
:1019200080E6C80ED11CD43001F7DF91CF911F9112
:10193000FF90EF90DF90CF90BF90AF900895CF933E
:10194000C82F6FEF811162E283E290E00E9444278A
:101950006FEFC11165E084E290E00E9444276FEFD1
:10196000C11167E185E290E00E944427CF9108957C
:1019700080E00E949F0C60E086E290E00E94442795
:101980000E94670C0E942A0C81E00E949F0C08951F
:101990000F931F93CF93DF93282F843060F564302B
:1019A00050F54C3040F5862F90E068E170E00E94E1
:1019B0002126C42FD0E0CC0FDD1FC80FD91F822FE6
:1019C00090E060E670E00E942126C80FD91FCE018A
:1019D00087960E943027082F10E0102F0027CE0195
:1019E00088960E9430279801282BC901DF91CF915A
:1019F0001F910F91089590E080E0F8CF462F84303A
:101A000040F4743030F46C3020F4672F0E94C80C1E
:101A1000089590E080E00895CF92DF92FF920F93B7
:101A20001F93CF93DF936C010091FB038091FB0127
:101A3000082BC7E0D0E010E0FC2EC8010C2E02C03D
:101A4000959587950A94E2F780FD0CC02197A0F741
:101A5000F12C8F2DDF91CF911F910F91FF90DF908F
:101A6000CF900895B6018C2F0E94FE0C0E94EE06C6
:101A7000019761F3EECFCF93DF93EC010E940C0D41
:101A8000BE010E94FE0C0E94EE06DF91CF910895E8
:101A9000FC0183819481892B29F0808191818923A4
:101AA0008F3F51F480E00895843FE1F717C0883EEE
:101AB000A8F0813FB9F712C0808191810E943B0D4F
:101AC00092959F70963099F358F4925F9F70923080
:101AD00048F7803F19F040F7883E20F781E00895ED
:101AE0009A5FF4CF83E290E00E943027823289F43B
:101AF00084E290E00E943027853059F485E290E03E
:101B00000E94302791E0873109F090E0892F8170A1
:101B1000089580E0FCCFCF9384E090E00E943027CE
:101B2000C82F82E290E00E943027982F8C2FCF910F
:101B30000895B0E0A0E0EFE9FDE00C948426FC01FC
:101B40006280548081E08483EBE1F3E07490EAE901
:101B5000F3E0E491C0EDD2E087E3E82E82E0F82ED6
:101B60009FECA92E93E0B92E88248A94912CE71932
:101B70000E2F10E082E0861530F08091D00388832C
:101B80008091D1038983511016C01B821A8297015C
:101B90004A81698188810E94CD04259683E0E80E00
:101BA000F11CAC16BD0631F70E94D909CDB7DEB7DE
:101BB000EFE00C94A0268B81882321F181508B8348
:101BC00090E06FEF70E00E9421266C8170E00E942F
:101BD0004C26FB01FF27E55EFC4FE491E7198E2FB1
:101BE00090E06FEF70E00E942126B8010E944C2621
:101BF0002091D20330E0862F90E0B9010E94212687
:101C00009A83C5CF0E9406279C018091D2038695B6
:101C1000815890E062E071E00E942126C92ED12C0B
:101C20002C153D050CF0B3CF82E0861588F40E9498
:101C30000627B4010E94602688830E94062720910F
:101C4000D1032695622F70E00E946026280F298319
:101C50001A828091D203893C20F088EC8C838B839C
:101C600096CF8431D8F784E1F9CFCF92DF92EF920B
:101C7000FF926B017C010E94B704B701A60188E0C6
:101C800090E00E945627FF90EF90DF90CF9008954C
:101C9000A3E0B0E0EEE4FEE00C948426F82E762E6D
:101CA000E42E622E9091CF0390FF29C0E92FE69594
:101CB000AE2FB0E0A05ABE4F8C91809332029E7F2F
:101CC000923009F59E012F5F3F4F8F2D0E94CD046A
:101CD0004B8169818A810E94A40BF092D00370929B
:101CE000D103E092D203662051F06091CF0370914E
:101CF000D0038091D1039091D2030E94350E239698
:101D0000EFE00C94A026823019F4E090D203E5CFE6
:101D1000863019F4F090D003E0CF8930D9F38931BF
:101D2000E1F6E9518E2F8170582EE695F0E0EA5EDB
:101D3000FC4FE4910E2F10E087E3C82E82E0D82EEE
:101D4000B12CA12C93E3892E912CC501B4010E94E2
:101D50004C268F2D511013C0860F96014E2D672DE6
:101D60000E94CD04A00EB11E83E0C80ED11C80EDF0
:101D7000C81682E0D80649F70E94D909AECF861B63
:101D8000ECCFEFECF3E043812CE0421B08F440E0A1
:101D900021E0628181810E94480E0895EFECF3E01A
:101DA00043812CE0420F08F44FEF21E062818181F2
:101DB0000E94480E0895EFECF3E062812CE0621B74
:101DC00008F460E021E0438181810E94480E08957B
:101DD000EFECF3E062812CE0620F08F46FEF21E09A
:101DE000438181810E94480E0895EFECF3E08181E8
:101DF00021E0438162818C500E94480E0895EFECEF
:101E0000F3E0818121E043816281845F0E94480E7A
:101E100008958091D303882319F081508093D303D0
:101E20006091CF037091D0038091D1039091D20340
:101E30000E94350E08958091D303833018F48F5F8C
:101E40008093D3036091CF037091D0038091D1032D
:101E50009091D2030E94350E08959091CF0390FF88
:101E60002CC0917081112AC092609093CF03662399
:101E700051F06091CF037091D0038091D103909184
:101E8000D2030E94350E6091CF03669570E04BE05F
:101E900050E080E191E00E941627892BB1F010926A
:101EA000330281E080932F0220E04091D2036091C1
:101EB000D1038091D0030E94480E08958B3210F018
:101EC0009465D3CF880F982BD0CF81E080933302D5
:101ED0000E946B0490932D0280932C02E2CF80919C
:101EE000CF038695815009F48AE261E00E942D0FAC
:101EF00008958091CF0386958F5F8B3208F081E043
:101F000061E00E942D0F08959091CF0390FF08C0CB
:101F10009695981728F0961718F40E94790F08954F
:101F200061E00E942D0F0895EFECF3E083E08083E1
:101F300011828FEF828385EA8383148260817181AD
:101F4000828193810E94350E08958091F9019091CC
:101F5000F801892B80939C019091FA01992391F0CB
:101F6000892B80939C0120E08EE991E0FC01319166
:101F7000CF0131112F5FF1E0843A9F07B9F72111AA
:101F80000E94810848E050E060EF71E08CE991E048
:101F90000E942327892BA9F088E0ECE9F1E0A0EF6B
:101FA000B1E001900D928A95E1F7E091D603F091AE
:101FB000D703309731F00280F381E02D8CE991E076
:101FC0000995089590E080E00E948D0490E080E003
:101FD0000E9477041092F8010E94A50F86E0E6E2C5
:101FE000F2E0DF011D928A95E9F71092200210922B
:101FF0001F02109221020E94530508958093FB0353
:102000000E94E20F08958091FB03982F96709630FE
:1020100021F488600E94FE0F0895877FFBCF21E0A6
:1020200030E001C0220F8A95EAF720958091FB03EA
:1020300082230E94FE0F08959091EF0180958923DD
:102040008093EF01282F277091F4282F082E000C81
:10205000330B9217130659F09091090292FF07C0B3
:102060008595859585950E940F101092EF01089532
:10207000CF93C0910902C2FB992790F9981791F06C
:1020800080FBC2F9C09309026091080284E090E0ED
:102090000E9444276C2F82E290E00E94442782E055
:1020A0000E941C10CF91089521E030E001C0220F62
:1020B0008A95EAF78091FB03822B0E94FE0F089518
:1020C0008093FB010E94E20F0895882321F00E9473
:1020D00087080E94A50F0895882339F09091F9018F
:1020E000982B9093F9010E94A50F0895882309F475
:1020F00055C0823879F40E94A30481FF4FC089E360
:102100000E949B080E94A50F89E30E948E080E94EE
:10211000A50F0895833859F40E94A30480FF3EC0A0
:1021200083E50E949B080E94A50F83E5EECF8438CB
:1021300059F40E94A30482FF31C087E40E949B08E7
:102140000E94A50F87E4E1CF9CEF980F913AE8F247
:1021500090E2980F983050F4877091E001C0990F89
:102160008A95EAF7892F0E948708D1CF9BE5980FBF
:10217000933028F490E080E00E948D04089598E563
:10218000980F973128F490E080E00E94770408953A
:10219000803F20F00E947A050E9453050895CF9356
:1021A000C82F8823C9F08238C9F40E94A30481FD96
:1021B00013C089E30E949B080E94A50F2FEF87EEB2
:1021C00093E0215080409040E1F700C0000089E397
:1021D0000E948E080E94A50FCF9108958338A1F424
:1021E0000E94A30480FDF8CF83E50E949B080E9413
:1021F000A50F2FEF81EE94E0215080409040E1F751
:1022000000C0000083E5E4CF8438A1F40E94A30459
:1022100082FDE2CF87E40E949B080E94A50F2FEF6A
:1022200081EE94E0215080409040E1F700C0000032
:1022300087E4CECF8CEF8C0F813A68F4EEE9F1E0C1
:102240008191C817E1F121E0E43AF207C9F78C2F38
:102250000E949B08BFCF80E28C0F883068F4C77063
:1022600021E030E001C0220FCA95EAF78091F90120
:10227000822B8093F901AECFEBE5EC0FE33040F415
:10228000F0E0E15EFE4F808190E00E948D04A4CFDB
:10229000E8E5EC0FE73150F4F0E0EE0FFF1FEE5DE4
:1022A000FE4F808191810E94770496CFC03F08F451
:1022B00093CF8C2F0E9438060E9453058DCF8C2F10
:1022C0000E948E080E94A50FC2CF1F93CF93DF9369
:1022D000182FD0E0C0E0893311F4C0E5D0E0812FA1
:1022E0000E94CF10209739F4812F0E947610DF9141
:1022F000CF911F9108958FE99FE00197F1F700C0FA
:1023000000002197EFCF0F931F93CF93DF93C62F3A
:10231000D42F022FFC0182818823A9F06093FA0355
:102320000E946B049093F9038093F803C77081E0D7
:1023300001C0880FCA95EAF70E946C10DF91CF9117
:102340001F910F9108958091FA03681332C0809114
:10235000F8039091F9030E945C04883C910548F5CC
:1023600010E21D0FCD17B9F080E28C0F883040F4D9
:10237000C77081E001C0880FCA95EAF70E94651016
:10238000183048F481E09D2F977001C0880F9A950E
:10239000EAF70E946C10802F0E946511183070F6C9
:1023A000D77081E001C0880FDA95EAF70E946510C6
:1023B000C5CFC77081E001C0880FCA95EAF7F6CF94
:1023C00068EE7EEF90E080E00E94622760E082E0AD
:1023D00090E00E94442760E083E090E00E94442760
:1023E0001092FB0160E084E090E00E94442764E0EA
:1023F00082E290E00E94442760E085E090E00E9445
:10240000442760E086E090E00E9444276FEF87E079
:1024100090E00E94442740E050E0BA0188E090E05C
:102420000E94562760E08DE090E00E94442740E043
:1024300050E0BA0188E190E00E94562760E087E111
:1024400090E00E94442740E050E0BA018CE190E027
:102450000E94562770E060E080E290E00E946227D0
:1024600040E050E0BA0188E190E00E94562780E009
:102470000E949F0C0E94B80C40E050E0BA018FE02F
:1024800090E00E94562740E050E0BA0183E190E0DE
:102490000E94562708951092F901EEE9F1E086E0D6
:1024A000DF011D928A95E9F70E94E20F0895AAE2E2
:1024B000B0E0EDE5F2E10C94902680EF93E02091FE
:1024C000F100DC012D93CD01B3E0883F9B07B9F704
:1024D0008091F103833009F470C0B8F4813009F4BD
:1024E00047C0823009F4B1C08091E80083FF88C200
:1024F0008091F0039091F1039A3008F081C2E92FA6
:10250000F0E0EC52F84D0C9474268A3009F48CC03B
:102510008B3009F46FC0893039F78091F003813234
:1025200019F78091F4039091F503009711F0029749
:10253000D9F68091E800877F8093E8008091E800D9
:1025400082FF36C08091F200823031F48091F10038
:10255000813011F0863021F48091F1008093E30303
:102560008091E8008B778093E8000E94AB03BCCF9A
:102570008091F003813A09F0B7CF8091E800877F1E
:102580008093E8008091F4039091F503892B61F426
:1025900068E084EE93E070E00E94FC038091E80024
:1025A0008B778093E800A0CF60E090E080E0F3CFED
:1025B0008091EE038111C2CF97CF8091F003813AD1
:1025C00009F092CF8091F4039091F503892B09F0E3
:1025D0008BCF8091E800877F8093E8008091E800AE
:1025E00080FFFCCF80911E018093F1008091E80074
:1025F0008E77B9CF8091F003813209F075CF809149
:10260000F4039091F503892B09F06ECF8091E800D7
:10261000877F8093E8000E94AB038091F203809350
:102620001E010E944B1260CF8091F003813209F0AD
:102630005BCF8091E800877F8093E8000E94AB0326
:102640008091F3038093E2034FCF8091F003813AAE
:1026500009F04ACF8091E800877F8093E80080915D
:10266000E80080FFFCCF8091E203BECF803899F074
:10267000823809F0C5C18091F4038F70853008F06D
:10268000BFC18093E9008091EB0085FB882780F92A
:102690001092E90006C08091EC039091ED03911136
:1026A00082609091E800977F9093E8008093F1001A
:1026B0001092F1008091E8008E779EC1882309F482
:1026C0008CC1823009F09CC18091F20381118FC1CD
:1026D0008091F4038F702FEF280F243008F090C101
:1026E0008093E9002091EB0020FF81C1933031F409
:1026F0008091EB0080628093EB0079C19091EB00B8
:1027000090619093EB0021E030E001C0220F8A95A8
:10271000EAF72093EA001092EA008091EB008860CB
:10272000EACF81116DC11091F2031F778091E30010
:102730008078812B8093E3008091E800877F8093ED
:10274000E8000E94AB038091E80080FFFCCF8091FD
:10275000E30080688093E30082E0111183E08093BE
:10276000EE034EC18058823008F04AC12091F20336
:102770003091F3032C3DE3E03E07A1F583E08A832B
:102780008AE289834FB7F894DE01139620E03EE099
:1027900051E2E32FF0E050935700E49120FF03C093
:1027A000E295EF703F5FEF708E2F90E0EA30C0F05F
:1027B000C7968D939D932F5F243159F74FBF80911A
:1027C000E800877F8093E8006AE270E0CE0101961E
:1027D0000E94FC038091E8008B778093E80010C191
:1027E000C096E7CF8091F4039091F503432F5527CE
:1027F0004330510509F44AC078F54130510509F4D8
:102800007AC08BE590E0EBE9F5E04230510509F044
:10281000F7C02091E800277F2093E8002091F6037D
:102820003091F7038217930708F49C0140E02115CB
:10283000310509F065C0411163C08091E80082FD57
:10284000C9CF8091EE03882329F2853019F2809157
:10285000E80083FFF2CFBECF4132510509F43CC0FE
:102860004232510509F0CCC08330910508F0C8C050
:10287000FC01EE0FFF1FE257FE4F0190F081E02DAB
:1028800085579E4FDC018C9190E01AC03327213090
:102890003105D1F02115310561F02230310509F003
:1028A000AFC0E8E0F6E0E4918E2F90E0E8E0F6E0DB
:1028B00007C0E8E2F6E0E4918E2F90E0E8E2F6E06F
:1028C000009709F49DC0A5CFECE1F6E0E4918E2FCE
:1028D00090E0ECE1F6E0F4CF8330910508F090C091
:1028E000880F991FFC01EC56FE4F0190F081E02DFE
:1028F00089E090E08ECF82E190E0E6EFF5E089CFCD
:102900008091EE03882309F465CF853009F462CF06
:102910008091E80083FD5ECF8091E80082FD8DCF3D
:102920008091E80080FF83CF8091F20090E0211534
:10293000310519F08830910550F041E0089709F011
:1029400040E08091E8008E778093E80070CF44915A
:102950004093F1003196215031090196E8CF80383B
:1029600009F04EC08091E800877F8093E800809155
:10297000EF038093F1009ECE811142C01091F203CB
:102980001230F0F58091E800877F8093E800109383
:10299000EF030E94AB03112311F084E005C0809186
:1029A000E30087FDFACF81E08093EE0342E061EC23
:1029B00081E00E94CA0342E261EC84E00E94CA0303
:1029C00042E261EC82E00E94CA0342E260EC83E0F2
:1029D0000E94CA038091EE0313C08091F2038130FC
:1029E00079F481E0933009F080E08093ED03109258
:1029F000E9008091E800877F8093E8000E94AB03A4
:102A00008091E80083FF0AC08091E800877F80936F
:102A1000E8008091EB0080628093EB00AA96E3E0EF
:102A20000C94AC260E944B122FEF84E39CE02150C3
:102A300080409040E1F700C0000088E19CE00FB6C4
:102A4000F894A895809360000FBE90936000FFCF2C
:102A5000A5E0B0E0EEE2F5E10C9483268C01FC01E8
:102A600083819481892B31F08081918189238F3FEB
:102A700009F0CBC52596E0E10C949F260E940C0D31
:102A8000F82E682F89819A810E94F40869817A81E1
:102A90008F2D0E94FE0C7C01F8018281882309F4AD
:102AA000A7C5970122513F452031310508F073C574
:102AB0008FEF93E00E943027811126C0FEEEEF0ECB
:102AC00047EA842E99249394E11030C01C821B8223
:102AD0004424439474016FEFE61AF60AC4010E947D
:102AE000302789831A82882379F09FEF980F9330DB
:102AF00058F58A83498272E0870E911CC7010E94B3
:102B000030278B83811121C08091EF01877009F4F8
:102B1000B1CFF8018281882309F4ACCF80910902FA
:102B200082FFA8CF82E00E941C10A4CF811424E071
:102B3000920651F3C4010E943027811101C0EA942A
:102B40003FEF831A930AC0CF4701CE0101967C0163
:102B5000F7012081222309F4BDCF213009F048C0BC
:102B600091818281913031F4F2E0EF0EF11C0E94EC
:102B7000651107C0923049F422E0E20EF11C0E9478
:102B8000CF103FEFE31AF30AE3CF933031F432E092
:102B9000E30EF11C0E947610F4CF943021F06FEF19
:102BA000E61AF60AEECF72E0E70EF11C50E040E0C4
:102BB000D7011196F701D180682F6053770B9B01E5
:102BC0006A30710550F041505109D8F28FE99FE009
:102BD0000197F1F700C00000F6CFCA016AE070E08B
:102BE0000E942126A901480F591F8D2D7D01E0CF9C
:102BF000E22FF0E0EF57FE4F5490822F8695869596
:102C0000869590E0FC01EF58FE4F64902770712C80
:102C1000022E02C0759467940A94E2F7E1E06E22F6
:102C20007724FC01EF59FE4FA490B12C022E02C074
:102C3000B594A7940A94E2F7F1E0AF22BB24FC011B
:102C4000EF5AFE4FC490D12C02C0D594C7942A9558
:102C5000E2F721E0C222DD246114710419F081EE53
:102C60000E94CF10A114B10419F086EE0E94CF107B
:102C7000852D0E946511A114B10419F086EE0E9401
:102C800076106114710419F081EE0E947610C1145F
:102C9000D10409F476CF8CE26ACF81E00E9454100F
:102CA0000E94031031CF81E00E940F10F9CF82E023
:102CB000F5CF25EFE2162CE5F20609F469C008F419
:102CC00063C066EFE6166CE5F60609F465C0882376
:102CD00009F4ACC41092FA0373E0E7167DE5F70639
:102CE00008F061C08AEFE8168CE5F80630F4C701F9
:102CF00082509C45449708F063C00E948B0D9093CE
:102D000009028093080222E1E2162CE5F20609F49A
:102D100074C108F0BAC069E0E6166CE5F60609F47D
:102D20004AC108F07DC085E0E8168CE5F80609F494
:102D300036C108F061C0E3E0EE16ECE5FE0609F4EA
:102D400026C108F028C180910802816022E0E216C5
:102D50002CE5F20609F496C060910802F090090291
:102D600084E090E00E9444276F2D82E290E00E9470
:102D700044270E944B12C8CE27E245EE65EE34C4CC
:102D800026E241EE60EE30C427E245EE64EE2CC44C
:102D900026E241EE62EE28C427E245EE66EE24C448
:102DA00028E241E0EBCF95EAE9169DE5F90609F442
:102DB000A4CFE0F4F1E6EF16FDE5FF0609F49DCFA0
:102DC00026E1E2162CE5F20609F03DC48091F901F6
:102DD0008A7A91E009F490E09093A40181113BC1BB
:102DE00089E20E949B080E94A50F8ECEC7018D5AD2
:102DF0009D45039728F781CF80910802806237E0D4
:102E0000E3163CE5F306F1F180910802806168E089
:102E1000E6166CE5F606B0F180910802806432C0D7
:102E20007DE0E7167CE5F70609F4CFC0A0F48091B9
:102E300008028E7F9BE0E9169CE5F90619F1809166
:102E400008028C60ECE0EE16ECE5FE06D8F080910E
:102E500008028D7F17C0FFE0EF16FCE5FF0609F4BE
:102E6000C4C008F4B6C030E1E3163CE5F30609F44B
:102E7000C0C0809108028F7B61E1E6166CE5F60622
:102E800009F06ACF8093080267CF7FEFE7167CE5F1
:102E9000F70609F4BCC0D8F59AEFE9169CE5F906E7
:102EA00009F481C0D0F4F4E1EF16FCE5FF0609F463
:102EB000BCC008F4A8C035E1E3163CE5F30609F010
:102EC0004BCF8091080282FB992790F921E092274D
:102ED00090FB82F990FB83F9D5CF6CEFE6166CE599
:102EE000F60609F47AC008F462C08DEFE8168CE5A6
:102EF000F80609F476C08091090283609EEFE91616
:102F00009CE5F90609F028CF8093090225CFE1E678
:102F1000EE16EDE5FE0609F497C080F421E0E21616
:102F20002DE5F20609F48AC008F475C062E0E616E1
:102F30006DE5F60609F010CF60E081C07DEAE71686
:102F40007DE5F70601F168F490910802892F8E7FE4
:102F500090FF816095EAE9169DE5F90609F492CFA4
:102F6000FBCEEEEAEE16EDE5FE0659F1FFEAEF16AE
:102F7000FDE5FF0609F0F0CE90910902892F877FC9
:102F800093FF8860C1CF809109028860BDCF809196
:102F90000802826077CF80910802846073CF8091AD
:102FA000080288606FCF809109028160ADCF809167
:102FB00009028260A9CF0E944B12809108028068AA
:102FC00061CF80910902877F9FCF809108028B7F1C
:102FD00059CF80910802877F55CF809109028E7F5B
:102FE00093CF809109028D7F8FCF809108028F7ED1
:102FF00049CF809108028F7D45CF0E944B1280916E
:1030000008028F773FCF80910802837F3BCF80916A
:1030100009028C7F79CF80910902982F9095917049
:103020008E7F892B90FB81F96FCF0E944B1290917C
:103030000802892F97FB87F9805824CF61E08EE042
:1030400090E00E94442788CE90910802892F8F7EBD
:1030500094FF806117CF85E3C4CE85E3F1C2816020
:103060008093CF0361E086950E942D0F4DCD4FE6F2
:103070005FE069E77FE00E94B00446CD49E75FE08A
:103080006FE67FE0F8CF4FEF5EE065EF7EE0F3CFD5
:103090004BED5EE068EE7EE0EECF41EC5EE06EEC84
:1030A0007EE0E9CF4EEC5EE061EC7EE0E4CF4BE108
:1030B0005FE069E07FE0DFCF61E081E0D5CF65E0F0
:1030C00082E00E94840F20CD68E086E0FACF64E1C0
:1030D0008FE0F7CF67E185E1F4CF62E289E1F1CFDC
:1030E00061E083E2C1CF0E944B128FEF94E3ECE0EA
:1030F00081509040E040E1F700C000000E94B50917
:103100008091090282FB882780F991E089270E943B
:103110003810F8018281E080F180882309F445C0ED
:10312000C7010E940C0DD82E682FC7010E94F40819
:10313000B7018D2D0E94FE0C0E94EE067C01882EA8
:10314000F801D280B580B2943FE0B3228091EF01C4
:103150008770C1F0AD2CDD20B1F08F2D807F8034E1
:1031600021F080E28E0D883068F08091090282FFA4
:1031700009C082E00E941C108091EF018770AA2490
:10318000A3948111A12C9F2C92942FE09222FBE01A
:10319000F91508F479C0E92DF0E0E252F84D0C94ED
:1031A000742681E0B4CF80E0B2CFC7010E94BE0890
:1031B000D82EBECF2F2D2F70C22E8F2D807F19F0CD
:1031C000C29490EFC922DD20B9F0CC2069F080E2F2
:1031D0008E0D883010F0811009C08091F901C82A45
:1031E000C092F9010E94A50F8E2D4CC08091F8016C
:1031F000C82AC092F801F6CF8E2D0E947610CC20FE
:1032000009F442C080E28E0D883010F0811004C0B5
:103210008C2D0E94870806C0C0948091F801C822B6
:10322000C092F8010E94A50F2FC03F2D3F70C32E02
:103230008F2D807F803219F0C29480EFC8228820C1
:1032400089F061E0861609F468C0DD2009F472C0D7
:10325000BB2009F468C0F801858180FFC5CF8F705D
:10326000858361C02091090222FD35C0DD2069F10E
:10327000CC2039F08091F901C82AC092F9010E944E
:10328000A50F80E00E94CF10692D6850770B643045
:10329000710510F40E94A304AA2009F4EBCB8091DD
:1032A000EF0180FDE7CBF801128285958595859524
:1032B0000E945410C8010E9428158091EF01859545
:1032C000859585950E940F10D5CB80E00E947610E1
:1032D000CC20D1F29DCFDD2099F09091FA018C2D78
:1032E000892BB11003C00E946C10CECF71E0B712D1
:1032F000FACF22FFC9CF981739F28093FA01C4CFD1
:10330000B11006C00E9481088C2D0E946510BCCFB0
:1033100081E0B81609F4B8CFF5CFDD2031F092E0A6
:103320009B1508F4B1CF8C2DDECFE1E0EB1508F44E
:10333000ABCFEACFBB2041F3F9E38F1209C02FEFE7
:1033400037EE63E0215030406040E1F700C00000FC
:103350008E2D0E94761098CF8F2D8695869583703E
:1033600061F0813009F090CFC7019370D11002C095
:1033700090E080E00E94770487CFC7019370D1105E
:1033800002C090E080E00E948D047ECF8E2DDD2073
:1033900029F00E9438060E94530576CF0E947A05D4
:1033A000FACF8F2D837091F5D1106ECF4E2D4295AF
:1033B00046954770440F440F8E2D8F70042E01C028
:1033C000880F0A94EAF72E2D2071E4FE07C02FE043
:1033D00030E001C0220F4A95EAF720953F2D36953F
:1033E00036953370323069F050F44091FB01313042
:1033F00029F0822B84230E94601046CF842B822BDD
:10340000FACF282B8091FB018227F5CF8695DD200E
:1034100011F08F2D8170882309F436CF4E2D4295FF
:1034200046954770440F440F8E2D8F70042E01C0B7
:10343000880F0A94EAF72E2D2071E4FE07C02FE0D2
:1034400030E001C0220F4A95EAF720953F2D3695CE
:1034500036953370323069F050F44091FB033130CF
:1034600029F0822B84230E94FE0F0ECF842B822B07
:10347000FACF282B8091FB038227F5CF7F2D7F7019
:10348000F72EDD2029F0872F0E9454108E2D2BCF90
:103490008E2D0E9465108F2D0E940F10F5CE8E2D5F
:1034A00092EF8916B1F1981570F0E0EF8E16D1F019
:1034B000F1EF8F1691F0DD2009F45DC0B11094CECC
:1034C0008F2D8F712AC023EF821651F134EF8312B2
:1034D000F2CF8091090282FD2FC08F2D8F71DD20E8
:1034E000D9F21BC0DD2081F061E06B1508F4CCCE71
:1034F0002F2D2F7181E090E001C0880F2A95EAF707
:103500009091FB038927AFCF72E07B1508F4BCCE06
:10351000EFCF8F2D8F71D110BFCF0E945410B4CE3A
:1035200080E0DD2009F49FCF9F2D9F7181E001C0D5
:10353000880F9A95EAF797CFDD2091F08F2D8F7144
:10354000F82E0E9454108091090282FF07C08F2D2F
:10355000880F880F880F83608093EF018F2DDDCF58
:1035600081E00E941C1091E09B1508F08DCE82E056
:103570000E941C1089CEBB2059F0893309F0E8CE97
:10358000EFEFF7EE23E0E150F0402040E1F7DECE30
:103590008F2D8F7181CFF0E1EF16FFE5FF0609F463
:1035A0007CCB21E1E2162FE5F20609F480CB63EF34
:1035B000E6166CE5F60609F4E3CB08F07ACB98ED55
:1035C000E9169CE5F90609F4D7CBE9EDEE16ECE532
:1035D000FE0609F4E5CBF7EDEF16FCE5FF0609F072
:1035E00076CB26E241EE61EEC8010E9483118CCABF
:1035F00030E1E3163FE5F30609F455CB61E1E61649
:103600006FE5F606A1F682E04FCB85E0DE0111966C
:1036100001900D928A95E1F7F801228189819A81C2
:1036200021112CCA0E94BE08F82E30CAF6E1EF160E
:10363000FCE5FF0661F58091A40181110ECD89E2C0
:103640000E948E08D0CB2AE5E2162DE5F20609F499
:10365000A8CD78F4E1146CE5F60609F444CD7EEDCE
:10366000E7167CE5F70609F054CD0E94E0110E94B0
:1036700012158CE5E8168DE5F80609F441CD08F43D
:1036800092CDE7EAEE16EDE5FE0689F342CD809194
:10369000F9018272FCECEF16FCE5FF0609F407CD98
:1036A00008F06DC036ECE3163CE5F30609F4EBCC0C
:1036B000E8F573ECE7167CE5F70609F4D8CC28F5B5
:1036C000E2ECEE16ECE5FE0609F023CD8091CF0387
:1036D00080FFC5CC8E7F8093CF036091CF03709124
:1036E000D0038091D1039091D2030E94350E1092A5
:1036F00033023FEF60E772E0315060407040E1F725
:1037000000C000000E94D909FFC9F4ECEF16FCE5E7
:10371000FF0609F4B3CC45EF5EE06FEF7EE025ECE9
:10372000E2162CE5F20609F4A6CCF3CC39ECE3164C
:103730003CE5F30609F4B1CC88F477ECE7167CE5B8
:10374000F70609F4A5CC48EE5EE06BED7EE098EC60
:10375000E9169CE5F90609F48ECCDBCCEAECEE1612
:10376000ECE5FE0609F49ECC49E05FE06BE17FE00A
:10377000FBECEF16FCE5FF0609F47DCCCACC21ED8D
:10378000E2162CE5F20609F4A2CCB8F46EECE616CB
:103790006CE5F60609F493CC08F48ECC8FECE816B1
:1037A0008CE5F80609F490CC6EE089E090EDE9161E
:1037B0009CE5F90609F485CCACCCE4EDEE16ECE51D
:1037C000FE0609F48ACC78F422EDE2162CE5F20626
:1037D00009F480CC61E088E133EDE3163CE5F306C3
:1037E00009F442CC96CC65EDE6166CE5F60609F4D4
:1037F00077CC6AE285E27DE5E716F70609F461CC4D
:1038000088CC1F93CF93DF938091BC01807F09F018
:103810004EC08091B901882309F449C02091EE017E
:103820001091BD014091B701A091B801C091BA01BA
:10383000D091BB01B42FBA231217C9F130E0209701
:1038400011F0BF3F21F42F5F3F4F2770F5CFC90123
:1038500066E070E00E942126FC01E254FE4F818167
:103860008A13F1CF80818413EECF82818111EBCF57
:10387000838194818C1B9D0B883C910520F780915E
:10388000BC018F7080618093BC01C90166E070E06B
:103890000E942126FC01ED53FE4F90819F709061A4
:1038A000908387EB91E00E9428150E94B408DF9175
:1038B000CF911F910895A1E1B0E0E1E6FCE10C9405
:1038C00089268C0185E0F801DE011D9601900D929C
:1038D0008A95E1F7D8011296EC90129787EBA82E03
:1038E00081E0B82E6091BA017091BB01611571053C
:1038F00009F42CC19091B7012091B801892F82233E
:103900008F3F09F423C14C911196EC9111971396B6
:10391000CD90DC90F090B901D601A61BB70BFF202B
:1039200009F4DFC08091BC01382F307FA83CB1057D
:1039300008F0A2C031116EC0FE2C2E1314C09413D7
:1039400012C0E11010C08F7080618093BC01C5016E
:103950000E9428158091BC01F80185838F2D619606
:10396000EAE00C94A526C114D10429F0842F8E23FB
:103970008F3F09F006C180E0F82FF170DF2E209113
:10398000EE01F091BD0180FD21C0EE2039F3809160
:10399000BC0181608093BC01F12CE0CF30E0C90113
:1039A00066E070E00E942126DC01A254BE4F119611
:1039B0008C911197E81307C08C91481304C012969C
:1039C0008C91E812E2CF2F5F3F4F27702F13E6CF85
:1039D0004D87EE878D859E850E943B0D292F229570
:1039E0002F70223058F0243080F49F7059F0D801A5
:1039F00015969C91907F31F4D12C0AC09F7011F0E4
:103A00008823D1F3805E8830B8F3C8010E9428155E
:103A1000FD2CA4CF2E1306C0941304C0F801EE2091
:103A200009F479C0C8010E94480D882309F1EE20ED
:103A3000F9F08091BC01803270F02091B701309193
:103A4000B80138872F831986DB86CA868C87CE011A
:103A500007960E94281586E0F801A7EBB1E00190D7
:103A60000D928A95E1F70E94011CFF24F39476CF12
:103A7000C8010E942815F9CF31110AC087EB91E0E7
:103A80000E94281586E0D5011D928A95E9F784CF1A
:103A90002E130FC094130DC0E1100BC0F8018583E5
:103AA000C8010E94281586E0D5011D928A95E9F784
:103AB00055CFC8010E94480D8823D1F2EE20C1F2F3
:103AC0008091BC01803238F22091B7013091B80169
:103AD0003A8329831B82DD82CC828E83CE010196BC
:103AE000B8CFA83CB105F8F6FE2CEE2009F22E1353
:103AF0001FC094131DC08091BC0180FD10C0982F81
:103B0000907F69F0F8018583903F31F0982F907F86
:103B1000905F8F70892B8583C8010E94281586E0ED
:103B2000F801A7EBB1E001900D928A95E1F716CF6D
:103B3000C8010E94480D81118ECF8091BC01816027
:103B40008093BC01C8010E94281508CFEE2009F41B
:103B50008FCFC8010E94480DF82E882309F488CF22
:103B600086E0F801A7EBB1E001900D928A95E1F7AC
:103B70008091B7019091B8010E943B0D0E94011CF9
:103B8000EDCE81E08E25F8CEA7E1B0E0EAECFDE1D4
:103B90000C9491264B8B5C8B6D8B7E8B8F8B611184
:103BA0001092F8011A8A198A85E0FE017396DE01E7
:103BB0001D9601900D928A95E1F786E0FE013D96F3
:103BC000DE01179601900D928A95E1F7CE010796D6
:103BD0000E945B1C811112C086E0FE013796DE0157
:103BE000119601900D928A95E1F78A859B85892B24
:103BF00029F08F81988589238F3F89F58091EE0187
:103C00009091BD01891317C06796E2E00C94AD2630
:103C100066E070E00E942126DC01A254BE4F96E0CF
:103C2000FE01319601900D929A95E1F72093BD0126
:103C30000E94B408E3CF90E066E070E00E94212685
:103C400082549E4F0E945B1C8823F1F28091EE010A
:103C500090E00196877099278093EE01CFCF8091F5
:103C6000BD0190E09C012F5F3F4F277033274091AB
:103C7000EE014217130661F60E944B121092BD012D
:103C80001092EE0186E0E7EBF1E0DF011D928A95EC
:103C9000E9F7B4CFA8E0B0E0E0E5FEE10C948726B8
:103CA0008E010F5F1F4F88E0F80111928A95E9F7A6
:103CB00090E5E92E91E0F92E6801AA24A394B12C95
:103CC000F70181917F018F3F09F446C0F894E82FF6
:103CD000E295EF70F0E021A18F70A50102C0440FC2
:103CE000551F8A95E2F7CA01922F982B91A392A1B2
:103CF0008095892382A3789400C0E4E5F1E021E077
:103D000030E0912C812C41914F3F09F467C0A42FE2
:103D1000A295AF70B0E090968C9190E04F7002C089
:103D2000959587954A95E2F780FD58C0C901882A84
:103D3000992A220F331F51E0E036F50721F7F701EA
:103D4000319780818F3F11F00E94940680EA8A9516
:103D5000F1F7F60191828082F2E0CF0ED11C44E5AA
:103D6000E41641E0F40609F0ABCF48E050E0B801BA
:103D700080E092E00E942327892B99F188E0F801E6
:103D8000A0E0B2E001900D928A95E1F781E0809386
:103D9000FE010E946B049093FD018093FC018091D1
:103DA000FC019091FD010E945C040597F0F048E051
:103DB00050E060E072E087E192E00E942327892BC7
:103DC000C9F088E0E0E0F2E0A7E1B2E001900D92F6
:103DD0008A95E1F781E01092FE0108C090E080E052
:103DE000A6CF8091FE018111DACF80E02896ECE029
:103DF0000C94A32680E0EFCF90E080E00E943E2765
:103E0000883E9E4F19F40E94720D089580E0089537
:103E10001F920F920FB60F9211242F933F934F933F
:103E20005F936F937F938F939F93AF93BF93CF9342
:103E3000DF93EF93FF93D091E900DF708091EC0066
:103E4000C82FC17080FDC0E81092E9008091F00099
:103E5000877F8093F00078940E9457121092E900B7
:103E60008091F00088608093F000CD2BCF70C093DC
:103E7000E900FF91EF91DF91CF91BF91AF919F91B9
:103E80008F917F916F915F914F913F912F910F9003
:103E90000FBE0F901F9018951F920F920FB60F92A2
:103EA00011242F933F934F935F936F937F938F933F
:103EB0009F93AF93BF93EF93FF938091E10082FFB5
:103EC00009C08091E20082FF05C08091E1008B7FF4
:103ED0008093E1008091E10080FF17C08091E200B3
:103EE00080FF13C08091E2008E7F8093E20080917A
:103EF000E20080618093E2008091D800806280932C
:103F0000D80019BC85E08093EE038091E10084FF26
:103F10002BC08091E20084FF27C084E089BD86E049
:103F200089BD89B5982F917080FFFBCF8091D80013
:103F30008F7D8093D8008091E1008F7E8093E10097
:103F40008091E2008F7E8093E2008091E2008160A8
:103F50008093E2008091EF03882309F441C084E05C
:103F60008093EE038091EE038091E10083FF27C0F0
:103F70008091E20083FF23C08091E100877F8093DE
:103F8000E10082E08093EE031092EF038091E10064
:103F90008E7F8093E1008091E2008E7F8093E2002B
:103FA0008091E20080618093E20042E060E080E086
:103FB0000E94CA038091F00088608093F000FF9116
:103FC000EF91BF91AF919F918F917F916F915F9191
:103FD0004F913F912F910F900FBE0F901F9018950A
:103FE0008091E30087FD93E09093EE03BBCF78943C
:103FF0001F921FB61F9211248F939F93AF93BF936D
:104000008091DB039091DC03A091DD03B091DE038E
:104010000196A11DB11D8093DB039093DC03A09357
:10402000DD03B093DE03BF91AF919F918F911F90FD
:104030001FBE1F9018951F921FB61F9211248F93B9
:104040009F93AF93BF938091DA03811113C0809146
:10405000DB039091DC03A091DD03B091DE03419678
:10406000A11DB11D8093DB039093DC03A093DD03BE
:10407000B093DE03BF91AF919F918F911F901FBEB0
:104080001F901895CDB7DEB7AA970FB6F894DEBF8C
:104090000FBECDBF84B7877F84BF0FB6F894A895B5
:1040A00080916000886180936000109260000FBE74
:1040B00080E890E00FB6F8948093610090936100DF
:1040C0000FBE82E996E090939B0180939A01109233
:1040D000E2001092E1008091E00081608093E000B6
:1040E0008091D8008F778093D80019BC80916300AD
:1040F0008160809363001092FF01809163008E7F46
:104100008093630081E08093FF011092E20010929F
:10411000E1008091D8008F778093D8008091D800FB
:1041200080688093D8008091D8008F7D8093D800DC
:1041300084E089BD86E089BD89B5282F2170422E93
:1041400080FFFACF1092EE031092EF031092ED036E
:104150001092EC0342E060E080E00E94CA0380918C
:10416000E1008E7F8093E1008091E2008160809386
:10417000E2008091E20088608093E2008091E0009C
:104180008E7F8093E0008091E20084608093E20063
:1041900078948091EE038823A1F01091E9001F70BC
:1041A0009091EC00892F817090FD80E8182B10927F
:1041B000E9008091E80083FD0E9457121F70109360
:1041C000E90082E084BD93E095BD9AEF97BD8093AE
:1041D0006E000E94720D811102C00E94B80C85E62B
:1041E0000E94940684E60E94940686E60E94940645
:1041F00087E60E94940604E511E020E6E22E21E025
:10420000F22ED8018D918D018F3F11F00E949406FE
:10421000E016F106B1F788E0E7E1F2E0DF01282FD0
:104220001D922A95E9F7E0E0F2E0DF011D928A9500
:10423000E9F70E94FC1E811102C00E94E01182E099
:1042400090E00E94302780930D020E948B0D909386
:104250000902809308020E944A1EEFE3FCE93197AD
:10426000F1F700C000000E944A1E8091170280FFF3
:1042700008C06FEF7FEF90E080E00E9462270E940D
:10428000B50983E090E00E9430270E946010809181
:104290000A02811133C00E94FC1E811104C00E94D9
:1042A000E0110E94940F88E090E00E94382760930C
:1042B000CF037093D0038093D1039093D2036E7F8A
:1042C00071F40E94940F88E090E00E943827609378
:1042D000CF037093D0038093D1039093D2030E94B5
:1042E000B704109233028091CF0380FF04C060E0D6
:1042F00086950E942D0F81E080930A0284E091E070
:104300009093D7038093D60380E4282E9FE1692EF3
:1043100092E0792E8091EE0304E016E0853009F4F6
:1043200096C00E944A1E1EE0A12E12E0B12E07E1A7
:10433000802E02E0902ED401F501219131918D91D2
:104340009D9142E0E631F40709F48BC02817390744
:10435000A1F3512CD4010D911D914D01F501C19096
:10436000D1905F01C016D10659F1C026D126312C5B
:10437000EE24E394F12CC6018E219F21892BB1F00C
:104380003EA25FA221E0C8018E219F21892B09F462
:1043900020E028A70E946B048160782F9AA789A744
:1043A0004EA15FA168A58AA50E94C41D3394EE0C9E
:1043B000FF1CFCE03F12DFCFF50132971183008331
:1043C000539424E05212C6CF8FB7F8944091DB0388
:1043D0005091DC036091DD037091DE038FBF63C0F9
:1043E0008091EE03843019F11092DA0388E190E0B5
:1043F0000FB6F894A895809360000FBE20926000DD
:1044000083B7817F846083BF83B7816083BF7894E3
:10441000889583B78E7F83BF0FB6F894A895809157
:104420006000886180936000109260000FBE8091F0
:10443000ED03882361F00E944A1EE7E1F2E08191DA
:104440009191892B09F0CBC36E167F06C1F780913D
:10445000EE03853009F4C4CF0E944B120E94A304DE
:1044600060CF2817390709F074CF0E946B048C01C4
:1044700080910B0290910C0208171907A1F08FEFA1
:1044800089A38AA31BA20E946B048160782F9DA33D
:104490008CA349A15AA16BA18DA10E94C41D1093A8
:1044A0000C0200930B02809133028823D1F180919A
:1044B0003202E091CF03E695E81BE0932E028230B2
:1044C00009F046C1F0E0EE5EFD4FE4910E2F10E0E2
:1044D000F6E1EF2EFCE0FF2E80912F02882361F0A1
:1044E00010922F020E946B0490932D0280932C0255
:1044F00010923102109230020E946B04E0912C0263
:10450000F0912D028E1B9F0B8F3F9F4750F4E00FC1
:10451000F11FF0932D02E0932C028CE292E0F70160
:10452000099586E0E6E2F2E0DE01119601900D9237
:104530008A95E1F7109228021092290210922A021D
:1045400010922B028B819C81892B09F44FC08091A2
:104550002402909125020E945C049C01909120020B
:10456000992309F460C32531310508F43FC09F3F0A
:1045700019F09F5F909320021B81112351F00E943C
:1045800017066FEF11160CF4642D0E941826809305
:1045900028021C81112351F00E9417066FEF11169B
:1045A0000CF4642D0E941826809329028091280221
:1045B0008823E1F0209129022223C1F0082E000C6B
:1045C000990B65EB70E00E942126992309F42CC118
:1045D00090932802822F220F990B65EB70E00E94C6
:1045E0002126992309F424C1909329028D819E816B
:1045F000892B09F44FC080912202909123020E94DE
:104600005C049C0190911F02992309F407C3213592
:10461000310508F43FC09F3F19F09F5F90931F0240
:104620001D81112351F00E94F3056FEF11160CF458
:10463000642D0E94182680932A021E81112351F0B6
:104640000E94F3056FEF11160CF4642D0E941826DA
:1046500080932B0280912A028823E1F020912B0283
:104660002223C1F0082E000C990B65EB70E00E942C
:104670002126992309F4E0C090932A02822F220F69
:10468000990B65EB70E00E942126992309F4D8C0AC
:1046900090932B0246E050E0BE016F5F7F4F86E2B1
:1046A00092E00E942327892B61F480912802909147
:1046B0002902892B90912A02892B90912B02892B18
:1046C00011F00E94530586E0FE013196A6E2B2E0A9
:1046D00001900D928A95E1F70E94A3049091160231
:1046E000891769F0809316028FB7F8944091DB0325
:1046F0005091DC036091DD037091DE038FBF8091E8
:10470000EE03843009F006CE83E08093E9008091C7
:10471000E80082FFFFCD8091E80090E085FF06C0B1
:104720000E945003882309F48FC091E08091E80033
:104730008B778093E800992309F4ECCDE981E1506F
:10474000E33108F015C1F0E0E651F84D0C94742601
:10475000863059F4F0E0E15FFD4FE4910E2F10E058
:10476000E6E0EE2EECE0FE2EB7CE893061F4E69561
:10477000F0E0E45FFD4FE4910E2F10E07AE7E72EC2
:104780007BE0F72EA9CE8F3061F4E695F0E0E75F8D
:10479000FD4FE4910E2F10E065E1E62E6BE0F62E62
:1047A0009BCE853159F4F0E0EA5FFD4FE4910E2F86
:1047B00010E057ECE52E5AE0F52E8ECE08E210E020
:1047C00025E4E22E2AE0F22E883109F485CE8332E8
:1047D00049F4E4E0F2E00591149145EBE42E4BE05E
:1047E000F42E7ACE04EF11E09EE0E92E9AE0F92E45
:1047F000843209F471CE853281F48E2F63E00E94F9
:104800003226E92FF0E0EF5FFD4FE4910E2F10E02C
:1048100039E9E32E3DE0F32E5FCE00ED17E086EBA5
:10482000E82E84E0F82E58CE81E080932802D2CE84
:1048300081E080932902DACE81E080932A021ECFA4
:1048400081E080932B0226CF00E210E0CE0101969A
:104850007C018091E80085FD0AC08091E8008B779B
:104860008093E8000E945003882399F35ECF8091E3
:10487000F100D7018D937D010150110951F755CFFA
:104880001A828AE08B833FC08A81823009F4BDC1DD
:104890008330A9F0813009F06BC02FB7F894609194
:1048A000DB037091DC038091DD039091DE032FBF69
:1048B0000E947A266B837C838D839E8324C08091A3
:1048C0001702909118029827892798279C838B8339
:1048D0008091190290911A029827892798279E8320
:1048E0008D8380911B0290911C029827892798271D
:1048F00098878F8380911D0290911E0298278927A7
:1049000098279A8789878091EE03843009F002CD39
:104910001091E9001F709091EC00892F817090FD3B
:1049200080E8182B82E08093E9008091E80080FF06
:104930000DC050E040E060E270E0CE0101960E94C0
:1049400081038091E8008E778093E8001F701093B8
:10495000E900E0CC8A81823059F46B817C818D81C1
:104960009E810E947A2686E290E00E944427CBCF67
:104970008FEF8983C8CF4C816B818A810E94C80CDC
:104980009827892798279E838D83BDCF2D813E81CF
:104990003227232732274C816B818A810E943A0C6F
:1049A000B2CF0E94670CAFCF8A81813811F1B0F489
:1049B000803809F0A8CF8B8190E065EA70E00E9412
:1049C00021266FEF70E00E944C26462F20E0609178
:1049D000D1038091D0030E94480E95CF823859F1BF
:1049E000833809F090CF20E04091D2036C818B8115
:1049F000F2CF60E08B810E942D0F9B818091CF03CD
:104A0000911111C08E7F8093CF0310923302BFEFBC
:104A1000E0E7F2E0B150E040F040E1F700C0000014
:104A20000E94D90970CF81608093CF0360E08695A2
:104A30000E942D0F68CF8B818093D30364CF8A812E
:104A40008138E9F080F4803809F05DCF8091D2039D
:104A500090E06FEF70E00E94212665EA70E00E940E
:104A60004C266B8350CF823891F0833809F04BCFBE
:104A70008091D0038B838091D1038C8344CF80912C
:104A8000CF0380FF02C08695FDCE80E0FBCE8091F3
:104A9000D303F8CE6091CF037091D0038091D103FE
:104AA0009091D2030E94350E2ECF80E18A832BCFC6
:104AB00082E08A8389E5E6CE0A811B8110270127DF
:104AC0001027CE0101966C01EC80DC01AE0DB11D0A
:104AD0007D01C80189559E4FEC14FD0409F413CFE4
:104AE0000935B2E01B0750F40E943027F601848399
:104AF0000F5F1F4FBFEFCB1ADB0AEBCFD601149627
:104B00001C92F6CF0A811B81102701271027FE0176
:104B100031966F01EC80E00EF12EF11CC801895531
:104B20009E4FE016F10609F4EECE0935F2E01F07BC
:104B300028F4D60114966C910E944427BFEFCB1A3B
:104B4000DB0A0F5F1F4FEACF0E942A0CDCCE84E005
:104B5000ADCF0A811B81102701271027FE01319656
:104B60006F01EC80CF018E0D911D7C01C8018796ED
:104B7000EC14FD0409F4C7CE0038A1E01A0750F484
:104B80000E943027F60184830F5F1F4FBFEFCB1ABF
:104B9000DB0AECCFD60114961C92F6CF0A811B815A
:104BA000102701271027FE0131966F01EC80E00EDF
:104BB000F12EF11CC80187960E151F0509F4A3CE2E
:104BC0000038F1E01F0728F4D60114966C910E947A
:104BD0004427BFEFCB1ADB0A0F5F1F4FEBCF09BD96
:104BE00019BD09B400FEFDCF8091D8008F7D809360
:104BF000D8008091E00082608093E0008091E00026
:104C000081FDFCCF0E944B1222CC86E290E00E94F4
:104C100030271B821C821D828E8375CE2B3031057E
:104C200008F0FBCC37CD2B30310508F0A2CCDECC20
:104C3000002480FD060E660F11F08695D1F7802DB9
:104C400008950024552704C0080E591F880F991F86
:104C5000009729F076956795B8F37105B9F7802D1F
:104C6000952F0895991B79E004C0991F961708F0B5
:104C7000961B881F7A95C9F78095089587FB082EA3
:104C8000062687FD819567FD61950E9432260EF408
:104C9000919507FC81950895AA1BBB1B51E107C0A4
:104CA000AA1FBB1FA617B70710F0A61BB70B881FBC
:104CB000991F5A95A9F780959095BC01CD0108954B
:104CC00097FB072E16F4009407D077FD09D00E94B9
:104CD0004C2607FC05D03EF4909581959F4F089592
:104CE000709561957F4F0895EE0FFF1F0590F49129
:104CF000E02D099469279627692778278727782741
:104D000008952F923F924F925F926F927F928F926F
:104D10009F92AF92BF92CF92DF92EF92FF920F934A
:104D20001F93CF93DF93CDB7DEB7CA1BDB0B0FB654
:104D3000F894DEBF0FBECDBF09942A883988488811
:104D40005F846E847D848C849B84AA84B984C884A7
:104D5000DF80EE80FD800C811B81AA81B981CE0F9E
:104D6000D11D0FB6F894DEBF0FBECDBFED01089583
:104D70008F929F92AF92BF92CF92DF92EF92FF926B
:104D8000CF93DF93EC01688179818A819B816115E2
:104D900071058105910521F464E279ED8BE597E0D9
:104DA0002DE133EF41E050E00E94912749015A0183
:104DB00027EA31E440E050E00E9478276B017C0153
:104DC0002CEE34EF4FEF5FEFC501B4010E9478275E
:104DD000DC01CB018C0D9D1DAE1DBF1DB7FF03C0B7
:104DE0000197A109B04888839983AA83BB839F77E1
:104DF000DF91CF91FF90EF90DF90CF90BF90AF9079
:104E00009F908F9008950E94B826089580E091E0C9
:104E10000E94B8260895B0E0A0E08093000190932E
:104E20000101A0930201B09303010895FC014150D8
:104E3000504030F001900616D1F73197CF01089518
:104E4000882799270895FB01DC0104C08D9101900A
:104E5000801921F441505040C8F7881B990B0895E0
:104E6000F999FECF92BD81BDF89A992780B5089532
:104E7000A6E1B0E044E050E00C946A27A8E1B0E07D
:104E800042E050E00C946A27262FF999FECF92BD9C
:104E900081BDF89A019700B4021639F01FBA20BDFF
:104EA0000FB6F894FA9AF99A0FBE08950396272F31
:104EB0000E9445270E944427252F0E944527242F22
:104EC0000C9445270196272F0E9445270C944427D0
:104ED000DC01CB01FC01F999FECF06C0F2BDE1BDBA
:104EE000F89A319600B40D9241505040B8F70895A9
:104EF000EE27FF27AA27BB2708C0A20FB31FE41F76
:104F0000F51F220F331F441F551F969587957795E0
:104F1000679598F37040A9F7009799F7BD01CF0105
:104F20000895052E97FB1EF400940E94A82757FDB4
:104F300007D00E94B02707FC03D04EF40C94A8279A
:104F400050954095309521953F4F4F4F5F4F0895B5
:104F500090958095709561957F4F8F4F9F4F0895E5
:104F6000A1E21A2EAA1BBB1BFD010DC0AA1FBB1F6D
:104F7000EE1FFF1FA217B307E407F50720F0A21BDF
:104F8000B30BE40BF50B661F771F881F991F1A944C
:104F900069F760957095809590959B01AC01BD0176
:104FA000CF010895F894FFCF36135E1300155E13FA
:104FB00000159113B2130015AF14BC14DA18DA18E7
:104FC00015191519AC19C61944194419D1193E1AE5
:104FD0004F1A4F1A40244424AA24BB24C624D124A7
:104FE000D4241F254A25B824B824552558255C25E6
:0A4FF0008225A425A725A925CE25BA
:104FFA000100000059048809670962095D0958041B
:10500A0001191A1B1C1D1E1F2021220102010181E8
:10501A008283E200E900EA00B500B600B700CD00DD
:10502A008301CC008A019201940121022302240205
:10503A002502260227022A02B300B4006F0070007C
:10504A0065646667363534333096959493929190B9
:10505A000001020202020606060909090909090FE6
:10506A000F0F0F0F0F1515151819191919191919E5
:10507A00191919232425252525252540227B1101C7
:0A508A00EF007400AD05C605E60551
:00000001FF
