:100000000C9429030C9470030C9470030C947003EB
:100010000C9470030C9470030C9470030C94700394
:100020000C9470030C9470030C9489280C945D2933
:100030000C942F220C9470030C9470030C94700396
:100040000C9470030C9470030C9470030C94700364
:100050000C9470030C9486220C9470030C9470031F
:100060000C9470030C9470030C9470030C94700344
:100070000C9470030C9470030C9470030C94700334
:100080000C9470030C9470030C9470030C94700324
:100090000C9470030C9470030C9470030C94700314
:1000A0000C9470030C9470030C94700329001400DA
:1000B0001A000800150017001C0018000C001200A0
:1000C00013002A004B0000002B000400160007005C
:1000D00009000A000B000D000E000F00340028007C
:1000E0004E000000E1001D001B0006001900050085
:1000F000110010003600370038725200C25C000058
:10010000E000E300E200000000002C00000000001E
:1001100000000151500051004F00000001001E027C
:100120001F022002210222022302240225022F00A4
:10013000300031004A00000001001E001F002000B6
:10014000210022002300240025002600270028008B
:100150004D00000001002602270233003700010095
:100160002D002E02250238002E00010001000000A3
:10017000010001000100000000000100000000007B
:100180000000010001000100005C0000A5003A0031
:100190003B003C003D003E003F000100010001002B
:1001A000AC00AB00A9000000A600400041004200E6
:1001B0004300440045000100010001000100AE00C1
:1001C000AA000000A70001000100010001000100D9
:1001D0000100010001000100010001000100000018
:1001E000005C0100010000000000010000000000B0
:1001F000000001000100010001000000A5003A001C
:100200003B003C003D003E003F00010001000100BA
:10021000AC00AB00A9000000A60040004100420075
:100220004300440045000100010001000100AE0050
:10023000AA000000A7000100010001000100010068
:1002400001000100010001000100010001000000A7
:10025000005C01000100000000000100000000003F
:10026000000001000100010001000000000000008A
:10027000000000002A2B2800000000000000000001
:100280000000000000000029000000002C1E3420A7
:10029000212224342627252E362D3738271E1F20CD
:1002A0002122232425263333362E37381F04050612
:1002B0000708090A0B0C0D0E0F1011121314151656
:1002C0001718191A1B1C1D2F3130232D3504050654
:1002D0000708090A0B0C0D0E0F1011121314151636
:1002E0001718191A1B1C1D2F3130354C0000000047
:1002F00000000000000000000000000000000000FE
:100300007E0F00D4FFFFFFC70000007832190A00FB
:10031000047F3F1F643214643214783C1E1E140A9A
:10032000052223252628292A2C2D2F303233353635
:10033000383A3B3D3E4042434547494A4C4E505176
:10034000535557595A5C5E6062646668696B6D6F9D
:1003500071737577797B7D7F81838587898A8C8EA0
:1003600090929496989A9C9E9FA1A3A5A7A8AAACA8
:10037000AEAFB1B3B4B6B8B9BBBCBEBFC1C2C3C5E2
:10038000C6C7C9CACBCCCDCED0D1D2D2D3D4D5D684
:10039000D7D7D8D9D9DADADBDBDBDCDCDCDCDCDDB7
:1003A000DDDDDDDCDCDCDCDCDBDBDBDADAD9D9D89B
:1003B000D7D7D6D5D4D3D2D2D1D0CECDCCCBCAC933
:1003C000C7C6C5C3C2C1BFBEBCBBB9B8B6B4B3B162
:1003D000AFAEACAAA8A7A5A3A19F9E9C9A989694FD
:1003E00092908E8C8A89878583817F7D7B797775D2
:1003F00073716F6D6B6968666462605E5C5A5957B1
:10040000555351504E4C4A4947454342403E3D3B6F
:100410003A3836353332302F2D2C2A2928262523F9
:1004200022FFAA7F554000010101010101010101E4
:100430000202020202020202020303030303030395
:100440000304040404040404050505050506060662
:100450000606070707070708080808090909090A1F
:100460000A0A0B0B0B0C0C0C0D0D0D0E0E0E0F0FC4
:100470000F10101111111212131314141515161652
:100480001717181819191A1A1B1B1C1D1D1E1E1FC1
:100490002020212222232424252626272829292A10
:1004A0002B2C2D2D2E2F3031323233343536373838
:1004B000393A3B3C3D3E3F40414243444546474834
:1004C000494A4C4D4E4F50515354555658595A5B0A
:1004D0005D5E5F616264656668696B6C6D6F7072AA
:1004E000737577787A7B7D7E8082838587888A8C16
:1004F0008E8F91939596989A9C9EA0A2A3A5A7A94A
:10050000ABADAFB1B3B5B7BABCBEC0C2C4C6C9CB40
:10051000CDCFD1D4D6D8DBDDDFE2E4E7E9EBEEF0F6
:10052000F3F5F8FAFDFF0403300000001203340075
:1005300035005F004100580058005F005300000084
:100540000A034E00610073007000000004030904F8
:1005500009025B00030100A0FA0904000001030185
:100560000100092111010001224000070581030853
:10057000000A090401000203000000092111010022
:100580000122220007058203200001070503032042
:10059000000109040200010300000009211101000B
:1005A000012232000705840320000A120110010015
:1005B000000008707079450200010203010660FF27
:1005C0000961A1010962150026FF009520750881C7
:1005D000020963150026FF00952075089102C005E9
:1005E000010980A101850319012AB700150126B769
:1005F00000950175108100C0050C0901A101850459
:1006000019012AA002150126A0029501751081008A
:10061000C005010906A101050719E029E715002514
:100620000195087501810295017508810105071979
:100630000029FF150026FF009506750881000508B2
:10064000190129059505750191029501750391011F
:10065000C00011241FBECFEFDAE0DEBFCDBF04B66D
:1006600003FE27C08091B2029091B302A091B40220
:10067000B091B5028730904BA740B04BD1F41092A7
:10068000B2021092B3021092B4021092B50214BEDC
:1006900084B7877F84BF0FB6F894A89580916000D7
:1006A000886180936000109260000FBEE0E0F8E384
:1006B000099511E0A0E0B1E0E4EAF9E502C0059097
:1006C0000D92A23DB107D9F722E0A2EDB1E001C041
:1006D0001D92A23BB207E1F70E944E250C94812C9B
:1006E0000C94000081E0089581E008950C94740357
:1006F00008950C9478031F93CF93DF9300D000D01C
:100700000F92CDB7DEB749835A836B8330910302D2
:1007100089819A8131111DC06623B9F02223A9F085
:100720000E94991F182F682F89819A810E94451F66
:1007300069817A81812F0F900F900F900F900F9009
:10074000DF91CF911F910C94D5120E94711F182F29
:10075000EFCF0E94991F69817A81EDCFFC01262F8E
:10076000408151816281738184810C947B03CF939A
:10077000DF93EC0160E00E94AE03BE01DF91CF91F8
:100780000C947903FF920F931F93CF93DF93E82F7D
:10079000F0E0E459FD4FF490C82FC695C695C69574
:1007A000D0E0FE01E450FD4F0491877010E0082E68
:1007B00002C0159507950A94E2F701701127C451FC
:1007C000DD4FFE01C491D0E002C0D595C7958A9552
:1007D000E2F7C170DD270115110519F081EE0E94C5
:1007E0001217209719F086EE0E9412178F2D0E9483
:1007F000F017CD2B19F086EE0E94A117012B41F0C6
:1008000081EEDF91CF911F910F91FF900C94A11772
:10081000DF91CF911F910F91FF900895EF92FF927A
:100820000F931F93CF93DF93EC01162F0AE088817B
:10083000882309F454C0813009F04EC08981813089
:1008400099F47E0122E0E20EF11C8A810E94F017E9
:10085000E7012196812F815050F3EFE9FFE03197B6
:10086000F1F700C00000F7CF823041F47E0182E052
:10087000E80EF11C8A810E941217EACF833041F4FE
:100880007E01E2E0EE0EF11C8A810E94A117E0CF0A
:10089000843011F02196DDCF2A81229690E080E00D
:1008A000AE014F5F5F4F2053330B2A30310548F0C4
:1008B000019778F2EFE9FFE03197F1F700C000000F
:1008C000F7CF089FB001099F700D1124C901860F51
:1008D000971F2981EA01E4CF0E94C203BACFDF91BA
:1008E000CF911F910F91FF90EF90089560E00C94CD
:1008F0000E048F929F92AF92BF92CF92DF92EF92AF
:10090000FF920F931F936B017C0181E090E0A0E0C8
:10091000B0E04C015D0104C0880C991CAA1CBB1CF2
:100920004A95D2F7B501A4014C015D0104C0880CC1
:10093000991CAA1CBB1C2A95D2F7482959296A2957
:100940007B2904C0880F991FAA1FBB1F0A95D2F7E5
:100950008A019B010C211D212E213F21041715071F
:100960002607370789F48C299D29AE29BF29BC01A8
:10097000CD011F910F91FF90EF90DF90CF90BF902E
:10098000AF909F908F90089580959095A095B09589
:100990008C219D21AE21BF21EACF0F93382F262F26
:1009A00060915F0270916002809161029091620299
:1009B000042F432F0E9479040F910C94831E0E94F0
:1009C000D0220E94E320811102C00E9480210C9459
:1009D00045070C94480708950E94701A0E94EB0482
:1009E0002FEF84E39CE0215080409040E1F700C06D
:1009F00000000C94AA220F931F93CF93DF93EC0176
:100A000061E00E94AE038C01BE010E94AA108823FF
:100A100089F1BE01C8010E947603882359F1BE0105
:100A2000C8010E942B14882329F1BE01C8010E942D
:100A30007D148823F9F0BE01C8010E94A015882307
:100A4000C9F0BE01C8010E94B70F882399F08A81BE
:100A5000882339F001158CE5180751F00E3D1C452F
:100A600079F0CE01DF91CF911F910F910C94720319
:100A70000E94EC0480E0DF91CF911F910F910895C7
:100A80000E948021F7CF08950C94430581E00895DA
:100A90000C944605CF93C82F0E9444058C2FCF910C
:100AA0000C94480590E080E008950895FC01EE0F55
:100AB000FF1FE45FFC4F859194910895CF93DF93DE
:100AC0000E94D5120E946A06EC01811520E592076A
:100AD00008F041C0811530E4930708F0B4C0803EAF
:100AE000910518F5803C910508F09DC0883A910564
:100AF00070F4853A910508F08EC081309105F9F0C7
:100B00000097E9F00497D8F4D0E0C0E018C08F3B1C
:100B10009105D0F7C85AD0E0CC0FDD1FCC5DDE4F79
:100B20000990D881C02DD4640AC08115904258F430
:100B3000C11581E0D80718F4C83ED10528F7CE01C9
:100B4000DF91CF910895C11590E3D90708F071C0E6
:100B5000CE019F706AC0811525E5920758F5811571
:100B600034E5930708F09EC0811542E5940750F4E0
:100B7000C11581E5D80708F469C0DC2FCC27C16F07
:100B8000D06ADDCF982F969596959E0123703327D6
:100B9000C115D34508F077C0C1E0D0E002C0CC0F4A
:100BA000DD1F2A95E2F720E2929FC0011124C82B95
:100BB000D92B67C0C11589E5D807A8F4C11598E5F8
:100BC000D90708F074C0C11526E5D20708F09CCFFC
:100BD0008C2F0E940107C82FD0E0DC2FCC27CC2718
:100BE000DF71D062ACCFC1153AE5D30708F464C019
:100BF000CE0190568115904208F086CF8D2F8F71CF
:100C00000E94010790E0982F882788279F719C01F8
:100C10002C2BE901E6CFC55AD0E0CE5ADE4FC88171
:100C2000D0E0D0648CCF805C91090E945605EC0125
:100C300086CFCE019927D3FF03C0EC01D86C7FCFBC
:100C4000EC01D06C7CCFDF70D06A79CFCE01E4E0CC
:100C500096958795EA95E1F783702C2F2695269532
:100C6000237090E2299F90011124382B8C2F8370E0
:100C7000C1E0D0E002C0CC0FDD1F8A95E2F7C22BA5
:100C8000D32BDC685CCFC1E0D0E002C0CC0FDD1F0D
:100C90002A95E2F730E2939FC0011124C82BD92B8B
:100CA000DA684DCFD82FCC27C46FD06A48CFDC2F5D
:100CB000CC27C06FD06A43CF8C2F8F700E94010762
:100CC00034E0D695C7953A95E1F7CF709C2FEC01AB
:100CD000D06935CF82389105B1F1B0F481339105F7
:100CE00009F475C048F48932910509F469C08A3263
:100CF000910509F473C008958533910509F459C02D
:100D00008933910501F10895833E9105A9F138F4E5
:100D1000803E9105F9F0823E910549F10895863EA5
:100D20009105A9F1873E9105C9F1843E910519F518
:100D30002091A40221FF1FC08091A30284FD14C052
:100D400087EE90E008952091A3022370A1F080EE39
:100D500090E008952091A30220FD47C03091A402A5
:100D600030FF09C024FF44C090E080E004C020911F
:100D7000A30222FDF7CF08952091A30222FD3BC0DC
:100D80003091A40230FDE3CF24FFF5CFEDCF2091C9
:100D9000A30223FFF0CF24FDE7CFD2CF2091A302FF
:100DA00023FD2CC03091A40231FFEECF84EE90E001
:100DB00008952091A30225FFDECF89E290E00895F7
:100DC0002091A30225FFD7CF85E390E008952091DD
:100DD000A30226FFD0CF8AE290E008952091A302DB
:100DE00026FFC9CF81E390E0089589E390E008955C
:100DF00083EE90E0089582EE90E0089586EE90E014
:100E000008959091A30292FF06C0282F28712830E0
:100E1000F9F4877F846093FF06C0282F287128315A
:100E2000F1F4877E84612091A40220FF06C0382F50
:100E300038713830D9F4877F816021FF06C0282FB0
:100E400028712831D1F4877E816194FD877E0895D1
:100E5000282F24712430F9F68B7F8860DCCF282F6F
:100E60002471243101F78B7E8861DDCF382F3171F9
:100E7000313019F78E7F8860E0CF282F2171213122
:100E800021F78E7E8861E1CF08950C944407089580
:100E90000C944707E82FF0E0EE0FFF1FE757FD4FD8
:100EA000808191810895089580EA8A95F1F70895E7
:100EB000CF93DF93A3E6B1E047E651E0C1E0D0E095
:100EC0008D91E82FE295EF70F0E061A18F709E01A7
:100ED00001C0220F8A95EAF7922F9095962391A34D
:100EE00082A1822B82A34A175B0751F7A5E5B1E0E7
:100EF00043E651E0C1E0D0E08D91E82FE295EF703C
:100F0000F0E061A18F709E0101C0220F8A95EAF77F
:100F1000922F9095962391A382A1822B82A34A17A8
:100F20005B0751F7109282021092810210928A029E
:100F300010928902109284021092830210928C0205
:100F400010928B02109286021092850210928E02ED
:100F500010928D02109288021092870210929002D5
:100F600010928F0284E00E944008DF91CF910C9490
:100F7000DF048F929F92AF92BF92CF92DF92EF9257
:100F8000FF920F931F93CF93DF9383E6E82E81E0C8
:100F9000F82E01E812E0912CAA24A394B12CF701B9
:100FA00081917F01C82FC295CF70D0E099A18F7039
:100FB000650101C0CC0C8A95EAF7892F8C2989A399
:100FC0008AA18C2C809488218AA30E945407E5E58D
:100FD000F1E050E040E030E020E06191A62FA295E2
:100FE000AF70B0E090968C9190E06F7002C09595D4
:100FF00087956A95E2F780FD3EC0C501042E02C0C8
:10100000880F991F0A94E2F7282B392B4F5F5F4F07
:101010004E30510511F789A1882289A28AA1C82AD8
:10102000CAA2F801808191812817390739F13183EB
:10103000208381E0982A0E5F1F4FF7E6EF16F1E05C
:10104000FF0609F0ACCF292D44E069E872E081E8A1
:1010500092E00E9441080E94E904892DDF91CF911E
:101060001F910F91FF90EF90DF90CF90BF90AF90C6
:101070009F908F90089590E080E0C6CF80E0DACF17
:101080000895FF920F931F93CF93DF93F82E092FAC
:10109000162FD72FC42F222349F081E08093D4014B
:1010A0000E945F229093D3018093D2018091D4015A
:1010B0008823A1F08091D2019091D3010E947722E0
:1010C000069760F0EF2DF02FA12FBD2F90E080E06C
:1010D000D0E08C179D0744F01092D401DF91CF919E
:1010E0001F910F91FF900895219131912D933D9380
:1010F0000196EFCFEF92FF920F931F93CF93DF9361
:10110000EB01E82FD11110C0442321F0F0E0EA5D9B
:10111000FB4FE4916E2F7E2F8E2FDF91CF911F9189
:101120000F91FF90EF9008950D2F10E0282F30E0E1
:10113000442329F02A5D3B4FF901249130E0F6E089
:10114000CF9FC0011124EFEFF0E0BF010E94292BD7
:10115000AB018C2F90E0880F991FA5E5A49FB001EB
:10116000A59F700D1124861B970B982F990F980F30
:10117000BF01601B710B629FD001639FB00D729F16
:10118000B00D11248B2F9D9FB0011124672F77275D
:10119000EF01C61BD70BBE01629FE001639FD00D1C
:1011A000729FD00D11247F01E91AF108E09EB00171
:1011B000E19E700DF09E700D1124672F7727E61BBE
:1011C000F70BE29F8001E39F100DF29F100D112499
:1011D000E12F722F4230510599F048F44115510525
:1011E00069F04130510581F0EB2F8D2F07C044305D
:1011F000510569F080F046305105B1F76E2F8DCF63
:10120000E22F7B2F812FFACFE22F7D2FF7CFEB2F0D
:10121000822F712FF3CF7B2F822FED2FEFCF41E065
:101220000C947A080895CF93DF93762FE901682F05
:10123000842F0E940F09798368838A83DF91CF917D
:10124000089580919102982F9E7F29F48170826089
:101250008093910208958635E8F381708465F8CF14
:1012600088E090E00C94222CCF92DF92EF92FF92D4
:101270006B017C010E942109B701A60188E090E082
:10128000FF90EF90DF90CF900C94402C60919102F2
:101290007091920280919302909194020C9434097F
:1012A000E1E9F2E083E0808311828FEF8283838320
:1012B000148260817181828193810C9434098091C0
:1012C000910280FF02C08695089580E00895909174
:1012D0009502933018F49F5F90939502882351F004
:1012E0006091910270919202809193029091940288
:1012F0000C943409089581E00C946709909195024B
:10130000992319F0915090939502882351F06091A0
:1013100091027091920280919302909194020C94A8
:101320003409089581E00C947E0980919502089516
:1013300080939502662351F0609191027091920220
:1013400080919302909194020C943409089560E086
:101350000C949809809192020895809193020895C7
:1013600080919402089570E00C9427106091080118
:101370008091910280FF0AC08091070123E0829F43
:10138000C00111248A569D4F0C94B3098091090124
:1013900090910A0123E0829FF0011124EA56FD4F4B
:1013A000891750F71182108212828F5F3396F8CF1F
:1013B0009091910290FF14C09091090120910A012F
:1013C00033E0939FF0011124EA56FD4F921710F07D
:1013D0000C94B6098183608342839F5F3396F6CF76
:1013E0000895CF93DF9300D00F92CDB7DEB79091E1
:1013F000910290FF0AC09E012F5F3F4F0E94130988
:101400004B8169818A810E94D8090F900F900F90BB
:10141000DF91CF910895CF93DF93EC01EC81F0E061
:10142000EF5DFC4F4491E1E9F2E0628181810E942D
:10143000F1098C818F5F8C83DF91CF910895CF93D9
:10144000DF93EC01E1E9F2E0438162818C810E944B
:10145000F1098C818F5F8C83DF91CF9108950F9379
:101460001F93CF93DF9300D00F92CDB7DEB78C01DF
:101470008091D50181110AC09E012F5F3F4F4FEF30
:101480006FEF0E9413098A818093D501F80164816E
:10149000613069F08091D50140E0662361F040E061
:1014A000623011F44091D50180E060E004C06091A9
:1014B000D50140E080E00E94D809F801848190E0E5
:1014C000019663E070E00E943D2B84830F900F90A3
:1014D0000F90DF91CF911F910F910895AF92BF921E
:1014E000CF92DF92EF92FF920F931F93CF93DF93F0
:1014F00000D00F92CDB7DEB7182FF62E042FE22EB4
:101500009091910290FF29C0E92FE695AE2FB0E0AF
:10151000A959BE4F8C918093EE019E7F923059F570
:101520009E012F5F3F4F812F0E9413094B816981DC
:101530008A810E94D80910939202F092930200933C
:101540009402EE2051F0609191027091920280918C
:101550009302909194020E9434090F900F900F9083
:10156000DF91CF911F910F91FF90EF90DF90CF907F
:10157000BF90AF900895823019F400919402DBCFB0
:10158000863019F410919202D6CF8930D9F389317F
:1015900091F6E9518E2F8170D82EE695F0E0EF5D3F
:1015A000FB4FA590B490C12CBB2460910B01C616D3
:1015B00018F00E94B609BFCF2C2D30E0A29EC001CA
:1015C000A39E900DB29E900D112470E00E94292BD5
:1015D000812FD11013C0860F40910901420F532F64
:1015E000511D9A01220F331F240F351F2A563D4FDC
:1015F000402F6F2D0E941309C394D7CF861BECCFC9
:10160000E1E9F2E09181282F438162818CE0890F2A
:101610000C946E0A81E00C94000BE1E9F2E09181F8
:10162000282F4381628184EF890F0C946E0A81E038
:101630000C940D0BE1E9F2E0628129E1620F08F4FC
:101640006FEF282F438181810C946E0A81E00C9406
:101650001A0BE1E9F2E0628129E1621B08F460E023
:10166000282F438181810C946E0A81E00C94290B10
:10167000E1E9F2E043812CE0420F08F44FEF282F1C
:10168000628181810C946E0A81E00C94380BE1E94F
:10169000F2E043812CE0421B08F440E0282F6281F5
:1016A00081810C946E0A81E00C94470B20E00C942D
:1016B0006E0AEF92FF921F93CF93DF93EC0110E03D
:1016C000EE24EA94F12C60910B01161770F00E9441
:1016D000B6099A818C8190FF27C08F5F8C83DF9140
:1016E000CF911F91FF90EF90089520910901422F13
:1016F000410F5527551FCA019A01220F331F280F8A
:10170000391F2A563D4F70E0C7010E943D2B962F8E
:101710008C814091940260919302199F800D112455
:101720000E9413091F5FCFCF8150D8CFAF92BF92D5
:10173000CF92DF92EF92FF920F931F93CF93DF939D
:10174000FC0182810FEF80FF01E010E043E0A42E56
:1017500080910B011817C8F00E94B6098091D7013B
:10176000013009F055C0811102C080910B018150F8
:101770008093D701DF91CF911F910F91FF90EF9050
:10178000DF90CF90BF90AF900895C0910901C12E16
:10179000D12CCC0DDD2DD11DCE01880F991FC80F86
:1017A000D91FCA56DD4F198218821A8234E0E32EFF
:1017B000F12CB12C8091D7018B0D84301CF16A2D56
:1017C0000E941B2B892F082E000C990BC816D906D6
:1017D00091F4809194028E9DA0018F9D500D112453
:1017E00055954795559547959E0160919302809137
:1017F00092020E941309B00EF1E0EF1AF108D1F63F
:101800001F5FA6CF87FFDFCF90910B01890FDBCF42
:1018100090E0019660910B0170E00E943D2BA8CFF3
:101820000F931F93CF93DF938091090190910A0149
:1018300023E0829FF0011124EA56FD4F891740F101
:10184000C0E0D3E060910B01C61740F10E94B609D9
:10185000209105018091D601820F8093D60190914D
:101860000601920F90930601191654F4082E000CED
:10187000990B40910B014150550B841795071CF0B3
:10188000219520930501DF91CF911F910F9108952C
:101890001182108212828F5F3396D0CF0C2F10E00E
:1018A00070E0C8010E943D2B20910901820F482F52
:1018B00050E02091D601022E000C330B02171307C3
:1018C000BCF020910601022E000C330B20173107CB
:1018D0007CF08D9F900111242A563D4F4091940237
:1018E00060919302809192020E941309CF5FAACF68
:1018F000FA01EE0FFF1FE40FF51FEA56FD4F1182AC
:1019000010821282F3CF8F929F92AF92BF92CF92AA
:10191000DF92EF92FF920F931F93CF93DF93EC012F
:101920004C81042F10E09801D8010E94882B9B0164
:10193000AC010E949E2B4B015C01E0E2F0E0E01B59
:10194000F10BA5E5B0E0AC019B010E949E2B6B0161
:101950007C019F01DF010E94802B9B01AC010E9452
:10196000A92B9B01AC01280D391D4A1D5B1DC70128
:10197000B6010E94512BF22E822F90E039E23F15E2
:1019800060F143E0249F9001112435952795122F93
:10199000109500E085E5E82EEF1880910B010817FF
:1019A00058F10E94B6099C8181E0992319F0903288
:1019B00019F48FEF8093040180910401890F8C83C7
:1019C000DF91CF911F910F91FF90EF90DF90CF901B
:1019D000BF90AF909F908F90089525E530E0B901BA
:1019E000681B790B9B01220F331F260F371F37FF10
:1019F000CCCF2F5F3F4FC9CF8E2D01FD8F2D209172
:101A00000901622F600F7727771F9B01220F331F79
:101A1000260F371F2A563D4F412F609193020E9497
:101A200013090F5FBACF0F931F93CF93DF93EC018E
:101A300010E000E090910B019017110609F06CF492
:101A40000E94B6098C8190E00196817099278C8361
:101A5000DF91CF911F910F91089520910901A80165
:101A6000420F511D9A01220F331F240F351F2A5692
:101A70003D4F4C8160919302809192029695901710
:101A8000110651F04CF0442349F0409194020E9419
:101A900013090F5F1F4FCECF4423B9F340E0F7CFB8
:101AA0008F929F92AF92BF92CF92DF92EF92FF926E
:101AB0000F931F93CF93DF93FC01B280948081E05A
:101AC000848300E015E05BE4A52E88248394EE2453
:101AD000EA94F12C7BE4C72ED12C80910B010817DE
:101AE00070F0DF91CF911F910F91FF90EF90DF90F9
:101AF000CF90BF90AF909F908F900C94B609C02F5D
:101B0000D0E01C9FF0011D9FF00D1124E852FE4F04
:101B100091101CC01382128220910901CE01820F04
:101B2000911D9C01220F331F280F391F2A563D4F4C
:101B30001C9FF0011D9FF00D1124E852FE4F4281C1
:101B4000618180810E9413090F5FC7CF2381222307
:101B500079F12150238334818A2D821B311101C0F8
:101B6000822F1C9FF0011D9FF00D1124E852FE4FA3
:101B700090919402899FC0011124B6010E94292BE3
:101B80006283211104C0332311F01482A38222E066
:101B90002B1510F21C9FF0011D9FF00D1124E8522F
:101BA000FE4F809192028083809193028183B4CF13
:101BB0000E94FD2B823091400CF0AECF82E08B155D
:101BC00030F50E94FD2BB7010E943D2B1C9FF001B8
:101BD0001D9FF00D1124E852FE4F808322E02B154B
:101BE000C8F40E94FD2B209193022695622F70E08D
:101BF0000E943D2B280F1C9FF0011D9FF00D11240A
:101C0000E852FE4F21831282A382848285CF809185
:101C10009202DCCF20919302EECFE1E9F2E08081E5
:101C20008E7F808360817181828193810E943409DB
:101C30001092EF012FEF80E792E02150804090401A
:101C4000E1F700C000000C94B609E1E9F2E0808100
:101C50008E7F80831092EF012FEF80E792E021507A
:101C600080409040E1F700C000000C94B6096091FC
:101C70009102669570E04BE050E08CE091E00E94AC
:101C80000D2C892B19F481E08093EF010E945F22D3
:101C90009093E8018093E70108959091910290FF5D
:101CA00035C09170811128C0926090939102662393
:101CB00051F0609191027091920280919302909103
:101CC00094020E94340960919102669570E04BE0A5
:101CD00050E08CE091E00E940D2C892BA1F0109235
:101CE000EF0181E08093EA014091940260919302B8
:101CF000809192020C94560B8B3210F09465D5CFE4
:101D0000880F982BD2CF0E94370EEBCF0895682F03
:101D100090919102969581E0890F8B3208F081E0D5
:101D20000C944D0E81E00C94870E682F90919102D7
:101D300096958FEF890F09F48AE20C944D0E81E09D
:101D40000C94950E61E00C944D0EE1E9F2E0808177
:101D50008160808386950C94A20E8091910280FD13
:101D60000C940D0E0C94A50E60E00C944D0E809119
:101D7000ED0181112EC00E94E320811104C00E9458
:101D800080210E9450090E94300960939102709353
:101D9000920280939302909394026E7F61F40E946A
:101DA00050090E94300960939102709392028093CF
:101DB0009302909394020E9421091092EF01809166
:101DC000910280FF03C086950E94B40E81E080934B
:101DD000ED010895E1E9F2E08081816080838695DC
:101DE0000C94B40E0F931F93CF93DF938091EF0168
:101DF000882309F49DC08091EE01E0919102E6955F
:101E0000E81BE093E9018230C9F5F0E0E35EFC4FA6
:101E1000E491CE2FD0E00BE01AE08091EA01882314
:101E200089F01092EA010E945F229E012095309570
:101E3000820F931F9093E8018093E7011092EC01C9
:101E40001092EB018091E7019091E8010E947722C6
:101E50008C179D0708F46CC0E091E701F091E80150
:101E6000CE0FDF1FD093E801C093E70187EE91E02A
:101E7000F801DF91CF911F910F910994863049F4B9
:101E8000F0E0E65EFC4FE491CE2FD0E00FE11AE0E7
:101E9000C4CF893051F4E695F0E0E95EFC4FE4915F
:101EA000CE2FD0E009E51BE0B8CF8F3051F4E69596
:101EB000F0E0EC5EFC4FE491CE2FD0E006E91BE0B1
:101EC000ACCF853149F4F0E0EF5EFC4FE491CE2FCA
:101ED000D0E000E11CE0A1CFC8E2D0E003E81CE0C4
:101EE000883109F49ACF833239F4EFE0F3E0C591F9
:101EF000D4910FE21AE091CFC4EFD1E003E11DE0ED
:101F0000843209F48ACFC0EDD7E002E119E08532CE
:101F100009F083CF8E2F63E00E940F2BE92FF0E0B2
:101F2000E45FFC4FE491CE2FD0E000E51DE075CFDB
:101F3000DF91CF911F910F910895FA01811101C096
:101F4000FB010994CF93DF93C82FD62F0E945F091E
:101F50008C1740F00E945F098D1720F4DF91CF911C
:101F60000C94920E8C2FDF91CF910C94A20E0F93B4
:101F70001F93CF938C01FB01C281CC2309F465C070
:101F80000E942E208272F801E25CFC45E431F105EA
:101F900038F4ED57F34D0C94732B0E94AD0EC0E056
:101FA0008C2FCF911F910F9108954FE95EE062E968
:101FB0007EE00E949D0FF3CF42E95EE06FE97EE094
:101FC000F8CF47E15BE06AE07BE0F3CF4AE05BE01B
:101FD00067E17BE0EECF45E35BE066E27BE0E9CFE3
:101FE00046E25BE065E37BE0E4CF43E55BE064E48D
:101FF0007BE0DFCF44E45BE063E57BE0DACF42E9FE
:1020000059E06BE779E0D5CF4BE759E062E979E039
:10201000D0CF81E00E94A20EC2CF65E082E00E9494
:10202000A20FBDCF68E086E0FACF6EE089E0F7CF7F
:1020300064E18FE0F4CF67E185E1F1CF88E1EACF99
:1020400062E289E1ECCF83E2E5CFC1E0A9CF279A34
:1020500045B14F7755B15068EFB7F8949B01220F07
:10206000331F260F371F280F391F2817390741F450
:10207000EFBF8FE594E00197F1F700C000000895ED
:10208000DC016D91CD0178E055B9000000C067FF1B
:1020900045B9660F000000C000C000C045B900C0CF
:1020A0007A9591F7E2CF82E290E00E941A2C813279
:1020B00089F483E290E00E941A2C893059F484E27A
:1020C00090E00E941A2C91E0833209F090E0892F71
:1020D0008170089580E0FCCFCF93C82F6FEF8111FE
:1020E00061E282E290E00E942E2C6FEFC11169E064
:1020F00083E290E00E942E2C6FEFC11163E284E234
:1021000090E0CF910C942E2C80E00E946C100C94E7
:10211000DD20089585E290E00E941A2C682F70E07F
:1021200090E080E0089585E290E00C942E2C0E94CF
:1021300089100E94531081110CC060E070E0CB0147
:102140000E9493100E944D120E94391381E00C945A
:102150006C100895CF93FB01C281CC2309F19C013F
:1021600022513F452031310520F582510E9449130B
:10217000C0E08C2FCF91089581E00E94A91E43E01A
:1021800062E081E00E94CD04F3CF81E00E94CA1E8C
:1021900043E062E081E00E94CD04EBCF82E0F6CF25
:1021A0008031FFE59F0789F381319F45B9F3C1E095
:1021B000E0CF8031EFE59E07F9F281319F45C9F606
:1021C00082E0DBCF2FEFFC0120830895CF93DF93D4
:1021D000EC0188818138A9F028F4803871F0DF9112
:1021E000CF910895823881F08338C9F70E94AA09F7
:1021F00089830E94AD098A83F2CF0E94B009898346
:10220000EECF0E945F09FBCF0E949509F8CFCF93D4
:10221000DF93EC0188818138E1F028F4803869F09F
:10222000DF91CF910895823811F18338C9F70E9468
:10223000B009482F6A81898108C0D9810E94AD09FF
:10224000C82F0E94AA094D2F6C2FDF91CF910C94BB
:10225000560B89810E94B40E8981811104C0DF91DF
:10226000CF910C94250EDF91CF910C94EA0E8981C9
:10227000DF91CF910C94A709EF92FF920F931F93D8
:10228000CF93DF93EC01062FDC01ED91CD01E150FE
:10229000E33108F0BFC0F0E0E956F34D0C94732B26
:1022A000198289E08A83602FCE01DF91CF911F913F
:1022B0000F91FF90EF900C9442248981823069F055
:1022C000833071F08130D9F40E946B220E94792B07
:1022D0006A837B838C839D83E6CF0E948A10F6CF2E
:1022E0007E0110E0812F0E944A07F70192838383C9
:1022F0001F5FF2E0EF0EF11C1430A1F7D4CF602F76
:10230000CE010E94E210CFCF89818230C1F76A816D
:102310007B818C819D810E94792B0E949310C3CF79
:102320004B816A8189810E941F12982789279827EB
:102330009D838C83B8CF2C813D8132272327322780
:102340004B816A8189810E943812ADCF0E944D1263
:10235000AACF0E940711A7CF0E94E610A4CF0E9427
:102360004609A1CF0E94E21289839DCF0E94E41208
:102370009827892798279A83898395CF6B8170E066
:1023800089819A81AE014C5F5F4F982789279827F2
:102390000E94E71288CF6B8170E089819A81AE013B
:1023A0004C5F5F4F9827892798270E940E137BCF99
:1023B0000E94391378CF0E940D12D6CF6B8170E046
:1023C00089819A81AE014C5F5F4F982789279827B2
:1023D0000E94851268CF6B8170E089819A81AE017D
:1023E0004C5F5F4F9827892798270E94AB125BCFDD
:1023F0000E94841058CFCE010E9442242FEF81EE1C
:1024000094E0215080409040E1F700C000000E941D
:10241000AA2249CF8FEF888346CF84E0089550E009
:10242000440F551F9CE1699F400D511D112490E7F9
:10243000899F400D511D1124CA01869608950F935E
:102440001F93CF93DF930E940F128C010E941A2CCE
:10245000C82FD0E0DC2FCC27C80101960E941A2C8F
:102460009E01282BC901DF91CF911F910F910895F3
:102470000F931F93CF93DF93122F032F0E940F12FE
:10248000EC01602F0E942E2C612FCE010196DF916E
:10249000CF911F910F910C942E2CAF92BF92CF929F
:1024A000DF92EF92FF921F93CF93DF938CEAC82EB7
:1024B00080E0D82ED0E07601C0E014C0F50125916F
:1024C0003491412F6C2F8D2F0E94381282E0A80E7C
:1024D000B11C1F5F1E3091F78CE1E80EF11CCF5F3D
:1024E000C43019F0570110E0E9CFDF5F80E7C80E74
:1024F000D11CD43001F7DF91CF911F91FF90EF9065
:10250000DF90CF90BF90AF900895EF92FF920F931E
:102510001F93CF93DF93EC018A017C01E60EF71E37
:10252000CE018696CE15DF0539F4DF91CF911F914C
:102530000F91FF90EF900895C03C21E0D20740F446
:102540000E941A2CF80180830F5F1F4F2196E8CF5D
:10255000F8011082F9CFCF92DF92EF92FF920F93A2
:102560001F93CF93DF937C016A018C01060F171F25
:10257000EC01CE018696C017D10749F4DF91CF91C7
:102580001F910F91FF90EF90DF90CF900895C03C86
:1025900021E0D20740F4FE01EE19FF09EC0DFD1D0C
:1025A00060810E942E2C2196E4CF462F843038F48F
:1025B000743028F46E3018F4672F0C941F1290E0DA
:1025C00080E0089580E108958AE192E00895EF9215
:1025D000FF920F931F93CF93DF93EC018A017C014D
:1025E000E60EF71ECE018A519E4FCE15DF0539F457
:1025F000DF91CF911F910F91FF90EF900895CA3115
:1026000022E0D20740F40E941A2CF80180830F5F69
:102610001F4F2196E7CFF8011082F9CFCF92DF92BA
:10262000EF92FF920F931F93CF93DF937C016A0188
:102630008C01060F171FEC01CE018A519E4FC01767
:10264000D10749F4DF91CF911F910F91FF90EF9047
:10265000DF90CF900895CA3122E0D20740F4FE0106
:10266000EE19FF09EC0DFD1D60810E942E2C2196B4
:10267000E3CFCF93DF93C6EED1E060E0CE010E94BE
:102680002E2C2196C11584E0D807B9F7DF91CF91A0
:102690000895DF92EF92FF920F931F93CF93DF93F2
:1026A00000D000D0CDB7DEB7F82E8FE08F1540F008
:1026B0008FEF93E00E941A2C06EE11E08823C1F000
:1026C0000F900F900F900F90DF91CF911F910F916E
:1026D000FF90EF90DF900895011584E0180781F3D3
:1026E000C8010E941A2C811101C0FA940F5F1F4F7C
:1026F000F110F2CF19821A821B821C82DD24D3943E
:1027000078018FEFE81AF80AC8010E941A2C898311
:102710001A828823A9F29FEF980F933078F48A8366
:10272000D9820E5F1F4FC7010E941A2C8B8388230A
:1027300039F2CE0101960E947604E2CF8701F9CFEB
:10274000AF92BF92CF92DF92EF92FF920F931F93BF
:10275000CF93DF937C015B01C42FD22FFC018281D8
:102760008823F9F04093F2010E945F229093F101D7
:102770008093F00180E28C0F883008F061C0C77050
:1027800081E001C0880FCA95EAF7DF91CF911F91D0
:102790000F91FF90EF90DF90CF90BF90AF900C948F
:1027A00003181091F201141340C08091F001909130
:1027B000F1010E9477226C01B701C5010E94221D20
:1027C000C816D90690F5C0E2CD0F1D17B9F080E20A
:1027D000810F883040F4177081E001C0880F1A958E
:1027E000EAF70E940A18C83048F481E09D2F9770DC
:1027F00001C0880F9A95EAF70E940318802F0E9463
:10280000F017C830E8F4D77081E001C0880FDA957E
:10281000EAF7DF91CF911F910F91FF90EF90DF903A
:10282000CF90BF90AF900C940A1880E28C0F883044
:1028300038F4C77081E001C0880FCA95EAF7E9CF84
:10284000DF91CF911F910F91FF90EF90DF90CF908C
:10285000BF90AF9008950F939C01CB01233F4CE5AF
:10286000340759F1A8F4283DFCE53F0701F1293D63
:102870004CE53407D1F1273D3C4591F406E221EEC9
:1028800041EE67ED7CE50E94A01380E00F91089572
:10289000253FFCE53F07E9F0B0F0263F3C45F9F065
:1028A000FC018281882339F11092F201EFCF07E217
:1028B00025EE45EE68ED7CE5E6CF06E221EE40EE42
:1028C00063EF7CE5E0CF07E225EE44EE64EF7CE5C4
:1028D000DACF06E221EE42EE65EF7CE5D4CF07E2E7
:1028E00025EE46EE66EF7CE5CECF08E221E045EE30
:1028F00069ED7CE5C8CF81E0C9CFCF93DF93EC01D0
:10290000FB018281882309F419C1C230FCE5DF078D
:10291000C0F1C6319CE5D90730F09E012A5F3C45E5
:102920002930310570F50E94F6209093A40280931F
:10293000A302C031ECE5DE0709F4CFC008F05BC0AC
:10294000C8308CE5D80709F4B6C088F5C430ECE58A
:10295000DE0709F4A8C0C0F4C2308CE5D80709F43A
:102960009CC08091A3028260C330DC4509F498C00A
:102970008091A3029091A4020E9404210E94701AE7
:1029800080E0DF91CF9108958091A3028061C630ED
:10299000ECE5DE0709F484C08091A3028860C730AB
:1029A000DC4508F47DC08091A302806279C0CC3000
:1029B0008CE5D80709F489C070F48091A3028C607B
:1029C000CA30ECE5DE0709F46BC008F478C08091EA
:1029D000A3028E7F65C0CE308CE5D80709F479C09C
:1029E0008091A3028B7FCF30DC4508F459C08091E1
:1029F000A3028F7E55C0CB3FECE5DE0709F457C03C
:102A000030F5C3318CE5D80709F46FC078F4C131D3
:102A1000ECE5DE0709F465C0C231DC4509F0A8CF5A
:102A20000E94701A8091A3028F773AC0C5318CE55D
:102A3000D80709F462C008F476C08091A4028160CE
:102A4000CA3FDC4509F094CF8093A40291CFCF3FD9
:102A5000FCE5DF0709F44DC088F48091A4028D7F66
:102A6000CD3F9CE5D90781F38091A4028E7FCE3FB4
:102A7000DC4550F38091A4028360E6CFC130FDE5D0
:102A8000DF0709F459C008F444C080E0C230DD45D6
:102A900009F06ECF0E9482216BCF8091A3028160EA
:102AA0008093A30265CF8091A3028460F9CF8091C7
:102AB000A4028260C9CF8091A3028064F1CF0E94FA
:102AC000701A8091A3028068EBCF8091A3028D7F62
:102AD000E7CF8091A302877FE3CF8091A3028F7D10
:102AE000DFCF8091A3028F7BDBCF8091A302837F16
:102AF000D7CF8091A4028C7FA7CF8091A30282FBC5
:102B0000992790F921E0922790FB82F990FB83F9B5
:102B1000C7CF8091A402982F909591708E7F892BBA
:102B200090FB81F991CF0E94701A9091A302892F96
:102B300097FB87F98058B4CF81E0ACCF81E021CFFB
:102B4000CF93DF93EB0186319C4511F50E942E2037
:102B50009A81992399F08A7A91E009F490E0909310
:102B6000F301811109C089E20E9409200E947A20A4
:102B700080E0DF91CF91089585E3F6CF8091F30156
:102B8000811104C089E20E941020F0CF85E3FBCFC1
:102B900081E0EFCF9093F9018093F8010895E091DF
:102BA000F801F091F901309721F00190F081E02DCA
:102BB000099480E00895E091F801F091F9013097CF
:102BC00021F00280F381E02D099408952091F6010F
:102BD0003091F7012817390771F09093F70180932E
:102BE000F601E091F801F091F901309721F00680AB
:102BF000F781E02D099408952091F4013091F501B9
:102C00002817390771F09093F5018093F401E09152
:102C1000F801F091F901309721F00084F185E02D61
:102C20000994089585B7806885BF85B7806885BF9A
:102C30000895089508950C94191608950C941D167E
:102C40000E9412160E941A160C941B1681E0089519
:102C50000C9426160E9456220E9458070E94971034
:102C60000E94E4220E94B70E0C941E169F92AF920F
:102C7000BF92CF92DF92EF92FF920F931F93CF9369
:102C8000DF93CDB7DEB72A970FB6F894DEBF0FBE3D
:102C9000CDBF0E94B9070E942816882309F470C08E
:102CA0005BEFA52E51E0B52E10E000E0902E802FB6
:102CB0000E944A076C01F501E190F1905F01E8166E
:102CC000F90609F457C08091740281FD0E945307F0
:102CD00097012C253D2580E0EE24E394F12CA901F9
:102CE0004E215F21452B09F43FC08E839F82CE2069
:102CF000DF2081E0CD2809F480E088870E945F22F0
:102D00008160782F9A8789874E815F8168858A855F
:102D10000E94E316000F111FF801E550FE4F80815D
:102D20009181E826F926F182E0820E94F20E0E944B
:102D3000CF159091FA018917A1F10E94CF158093C8
:102D4000FA012A960FB6F894DEBF0FBECDBFDF9111
:102D5000CF911F910F91FF90EF90DF90CF90BF9098
:102D6000AF909F900C944A058F5FEE0CFF1C8E3045
:102D700009F0B5CF0F5F1F4F0430110509F096CF52
:102D80008FEF89838A831B820E945F228160782F64
:102D90009D838C8349815A816B818D810E94E316CA
:102DA000C4CF2A960FB6F894DEBF0FBECDBFDF9119
:102DB000CF911F910F91FF90EF90DF90CF90BF9038
:102DC000AF909F900895CF93DF93CDB7DEB72B9749
:102DD0000FB6F894DEBF0FBECDBF4F83588769870B
:102DE0007A878B871E821D8285E0FE013796DE0181
:102DF000119601900D928A95E1F749815A816B8174
:102E00007C818D819E812B960FB6F894DEBF0FBE1C
:102E1000CDBFDF91CF910C94251DFC018081918164
:102E20000C94DB1FCF93C82F882309F488C0823805
:102E3000C1F40E94CF1581FD82C089E30E94092060
:102E40000E947A202FEF81EE94E021508040904044
:102E5000E1F700C0000089E30E941020CF910C949C
:102E60007A208338A1F40E94CF1580FD68C083E5E5
:102E70000E9409200E947A202FEF81EE94E02150D9
:102E800080409040E1F700C0000083E5E5CF843842
:102E9000A1F40E94CF1582FD52C087E40E94092050
:102EA0000E947A202FEF81EE94E0215080409040E4
:102EB000E1F700C0000087E4CFCF8CEF8C0F813AA0
:102EC000B8F48C2F0E94A023811139C06C2F8091FF
:102ED0001701909118010E949921882329F08C2FC5
:102EE0000E9410200E947A208C2F0E940920B6CFC9
:102EF00080E28C0F883048F4C77081E001C0880FF1
:102F0000CA95EAF70E943120A9CFEBE5EC0FE33038
:102F100040F4F0E0E054FE4F808190E0CF910C94BB
:102F2000E615C85AC73158F4EC2FF0E0EE0FFF1F3A
:102F3000EE56FE4F80819181CF910C94FC15CF917C
:102F40000895882309F44BC0823871F40E94CF158C
:102F500081FF45C089E30E9409200E947A2089E30D
:102F60000E9410200C947A20833859F40E94CF15C7
:102F700080FF35C083E50E9409200E947A2083E506
:102F8000EFCF843859F40E94CF1582FF28C087E420
:102F90000E9409200E947A2087E4E2CF9CEF980FDC
:102FA000913AF0F290E2980F983050F4877091E0E7
:102FB00001C0990F8A95EAF7892F0E943720D2CF56
:102FC0009BE5980F933020F490E080E00C94E61598
:102FD000885A873120F490E080E00C94FC15089525
:102FE000CF93C82F0E941217C93349F42FEF87EEF1
:102FF00093E0215080409040E1F700C000008C2F0A
:10300000CF910C94A117882321F00E9431200C94B9
:103010007A200895882321F00E9437200C947A208A
:103020000895BF92CF92DF92EF92FF920F931F937A
:10303000CF93DF936C01D62FC72FFC01058102953A
:103040000F70128111110E944E200E942720E82E3D
:10305000882391F01123D1F08C2F807F803421F0D0
:1030600080E28D0F883090F082E00E94C5200E949F
:10307000272091E0E82EE926BC2EB2949FE0B922E9
:10308000EB2DF0E0E655F34D0C94732BE12CF4CFCF
:103090000C2F0F70C07F11F00295007F1123A9F053
:1030A000002359F080E28D0F883010F0D11109C053
:1030B000802F0E9431200E947A208D2F0E941217AB
:1030C00014C0802F0E944120F6CF8D2F0E94A1179F
:1030D000002359F080E28D0F883010F0D1112CC000
:1030E000802F0E9437200E947A202B2D2850330BEE
:1030F0002430310520F40E94CF150E944A05EE20AD
:1031000009F493C10E94232080FD8FC1F601128231
:103110000E941D200E94A91EC6010E94361A0E940C
:103120001D20DF91CF911F910F91FF90EF90DF90C5
:10313000CF90BF900C94CA1E802F0E944720D3CFFF
:10314000FC2FFF70FF2EC07FC03219F0F29480EF89
:10315000F822DD2369F0D13049F1112391F10023E8
:1031600051F1F601858180FFA8CF8F70858323C040
:10317000112381F0011106C00E9461208F290E9455
:103180000318B3CF0130C1F70E9461208F290E943C
:103190006720ABCF011106C00E9470208F2D0E94C6
:1031A0000A18A3CF013009F4A0CFF6CF112329F0DC
:1031B000063008F09ACF8F2DE2CF053008F095CF7A
:1031C000EDCF002359F3D93349F4FFEF27EE33E075
:1031D000F15020403040E1F700C000008D2F0E94E8
:1031E000A11783CF8C2F86958695837069F08130E7
:1031F00009F07BCF8D2F9C2F9370111102C090E0AE
:1032000080E00E94FC1571CF8D2F9C2F93701111BF
:1032100002C090E080E00E94E61567CF8C2F83709B
:1032200009F041C0111161CF4D2F4295469547706D
:10323000440F440F0D2F0F7010E030E020E0042EFB
:1032400004C0000F111F221F331F0A94D2F760E041
:1032500070E0CB01D4FF0FC06FE070E080E090E041
:1032600004C0660F771F881F991F4A95D2F7609593
:10327000709580959095C695C695C370602B712BFF
:10328000822B932BC23049F058F4C13019F00E94C0
:103290005B1E2BCF0E94491E28CF0E946D1E25CF9A
:1032A0000E94471E22CF8695112311F08C2F81702A
:1032B000882309F41ACF4D2F429546954770440F45
:1032C000440F0D2F0F7010E030E020E0042E04C0FA
:1032D000000F111F221F331F0A94D2F760E070E025
:1032E000CB01D4FF0FC06FE070E080E090E004C03D
:1032F000660F771F881F991F4A95D2F760957095C2
:1033000080959095C695C695C370602B712B822BC6
:10331000932BC23049F058F4C13019F00E94201F9D
:10332000E4CE0E940E1FE1CE0E94321FDECE0E942C
:10333000831EDBCECF70112329F08C2F0E94A91E93
:103340008D2F1DCF8D2F0E940A188C2F0E94CA1E10
:10335000CCCED23F89F160F4D03FC9F0D13F29F102
:10336000112309F442C00111A8CE8C2F8F7121C006
:10337000D33F39F1D43FA1F7112369F1CF718C2FDD
:103380000E94A91E63E08C2F0E94B020AECE1123B4
:1033900041F0053008F0A9CE8C2F8F710E94ED1EF0
:1033A000A4CE063008F0A1CEF7CF8C2F8F71112359
:1033B00069F20E94A91E99CE8C2F8F711123C9F337
:1033C000C5CF112329F08C2F8F710E94941E8DCEB2
:1033D0000E948F1E8ACE81E00E94C520023008F430
:1033E00084CE82E00E94C52080CE002359F0D933DC
:1033F00009F0F4CE8FEF97EEE3E081509040E0408B
:10340000E1F7EACE8C2F8F71A1CF4C2F4F706D2F2B
:10341000C6010E9452050E94BF1D67CE4C2F4F70FF
:103420006D2FC6010E94550560CEDF91CF911F918F
:103430000F91FF90EF90DF90CF90BF9008950F9382
:103440001F93CF93DF93EC01688179818A810E9479
:10345000E51F8C010E94441F0E94461EB801CE0148
:10346000DF91CF911F910F910C941118CF93DF939F
:10347000EC018B819C81892B29F08881998189239A
:103480008F3F59F4DF91CF910895CE010E941F1A0A
:10349000CE01DF91CF910C94B703CE010E94FB04C3
:1034A0008111F3CF0E942720882361F38A8188232A
:1034B00049F382E0DF91CF910C94C5200E944E2009
:1034C0000E945E200E947A2090E080E00E94E61533
:1034D00090E080E00C94FC150E9417200C945E1A7A
:1034E0000E943E200C946C1AE92FE295EF70E25096
:1034F000EE3070F4F0E0E654F34D0C94732B803F03
:1035000019F020F4883E20F481E00895843FE1F32F
:1035100080E00895883EC0F3813FD1F7F5CF93FB5B
:10352000882780F908950E94DB1F0C94741ACF93AA
:10353000DF9300D000D00F92CDB7DEB70F900F9081
:103540000F900F900F90DF91CF910895CF93DF935D
:1035500000D000D000D0CDB7DEB726960FB6F894D5
:10356000DEBF0FBECDBFDF91CF9108951F93CF93E4
:10357000DF93C091040216E0809105028C1304C011
:10358000DF91CF911F910895D0E01C9FF0011D9F06
:10359000F00D1124EA5FFD4F4081518162817381FA
:1035A000848195810E94A61A2196C770E5CF40912B
:1035B0003602509137026091380270913902809141
:1035C0003A0290913B020C94A61A20910402909129
:1035D000050256E0291302C080E0089530E0529FB2
:1035E000F001539FF00D1124EA5FFD4F71817613B6
:1035F00006C07081781303C07281741304C02F5FFA
:103600003F4F2770E7CF81E008951F93CF93DF935B
:1036100080913B02807FA9F480913802882389F051
:1036200080910402C09105026091360270913702C8
:10363000A0913902B0913A02D62FD72316E0C813D1
:1036400004C0DF91CF911F91089590E0109711F081
:10365000DF3F19F401968770F2CF189F9001199FF0
:10366000300D1124F901EA5FFD4F41814713F2CF7C
:1036700040814613EFCF42814111ECCF4381548109
:103680004A1B5B0B4F3A510528F780913B028F7024
:10369000806180933B02F901E55FFD4F80818F706F
:1036A0008061808386E392E00E94361ADF91CF9199
:1036B0001F910C94B61A8F929F92AF92BF92CF92A5
:1036C000DF92EF92FF920F931F93CF93DF93CDB7CB
:1036D000DEB761970FB6F894DEBF0FBECDBF8C0189
:1036E00085E0F801DE011D9601900D928A95E1F7C3
:1036F000D801EC901196FC9011971296CC901297ED
:1037000086E3A82E82E0B82E4091390250913A0209
:103710004115510509F474C1909136022091370288
:10372000892F82238F3F09F46BC113968D909C9053
:103730001497D0903802F401E41BF50BDD2009F456
:103740000AC180913B02382F307FEF3AF10508F033
:10375000C1C0311189C0DC2C2F1126C09E1124C09C
:10376000C11022C08F70806180933B020E94D71AE3
:10377000C5010E94361A80913B02D80115968C93A0
:103780008D2D61960FB6F894DEBF0FBECDBFDF91D1
:10379000CF911F910F91FF90EF90DF90CF90BF904E
:1037A000AF909F908F9008958114910429F08F2DF0
:1037B0008E218F3F09F043C180E080FF15C04C2D62
:1037C0006F2D8E2D0E94E51A882371F086E392E01A
:1037D0000E94361A86E0E6E3F2E0DF011D928A9548
:1037E000E9F70E94D71A3EC0892829F08F2D8E2133
:1037F0008F3F09F021C180E0B82FB170AB2E80FF60
:1038000029C04C2D6F2D8E2D0E94E51AB82E8111E6
:1038100021C0ED86FE868D859E850E94DB1F292FA7
:1038200022952F70223050F0243078F49F7051F0A0
:10383000F8019581907F31F4DB2CA2CF9F7011F0BD
:103840008823D1F3805E8830B8F3C8010E94361A0D
:10385000BA2CF2CFCC2009F493CF80913B02816047
:1038600080933B02D12C8CCF2F1105C09E1103C039
:10387000CC2009F48DC0ED86FE868D859E850E9444
:10388000931A882319F1CC2009F180913B028032F0
:1038900070F0209136023091370238872F831986D5
:1038A0009B868A868C87CE0107960E94361A86E010
:1038B000F801A6E3B2E001900D928A95E1F70E942B
:1038C000051B0E94D71ADD24D3945ACFC8010E9449
:1038D000361AF9CF311112C0782D998A888AA7013A
:1038E0006C2D89890E94971A86E392E00E94361A0D
:1038F00086E0F50111928A95E9F773CF2F110FC079
:103900009E110DC0C1100BC015968C93C8010E946A
:10391000361A86E0F50111928A95E9F731CFED86E6
:10392000FE868D859E850E94931A882379F2CC208D
:1039300069F280913B02803208F4B9CF20913602BF
:10394000309137023A8329831B829D828C828E8339
:10395000CE010196AACFEF3AF10508F043C0DC2C66
:10396000CC2009F4B3CF2F112CC09E112AC0809116
:103970003B0280FD1DC0982F907FD1F015968C934F
:103980001597903F39F0982F907F905F8F70892B1B
:1039900015968C93C8010E94361A86E0F801A6E3BA
:1039A000B2E001900D928A95E1F70E94D71AE8CE15
:1039B00086E0F801A6E3B2E001900D928A95E1F766
:1039C000DFCEED86FE868D859E850E94931A81113D
:1039D0006ECF80913B02816080933B02C8010E94C0
:1039E000361ACECE782D998A888AA7016C2D8989BE
:1039F0000E94971A86E0F50111928A95E9F7D5CFD2
:103A0000CC2009F463CFED86FE868D859E850E94CD
:103A1000931AD82E882309F459CF86E0F801A6E33B
:103A2000B2E001900D928A95E1F786E392E00E9460
:103A30000D170E94051BB9CF81E08C25DDCE81E0FA
:103A40008C25BBCE8FEA90E008951F93CF93DF9330
:103A5000CDB7DEB72C970FB6F894DEBF0FBECDBF43
:103A60004F83588769877A878B879C87CE01079613
:103A70000E945B1B882369F08A859B85892B39F01E
:103A80004F815885842F85238F3F09F071C016E040
:103A90005FC086E0FE013796DE01119601900D921F
:103AA0008A95E1F78A859B85892B89F38F81988593
:103AB00089238F3F61F32091050230E0C90101960F
:103AC00087709927409104024817190671F40E94E3
:103AD000701A109205021092040286E0E6E3F2E00A
:103AE000DF011D928A95E9F7D2CF96E0929FD0012F
:103AF000939FB00D1124AA5FBD4FFE013196019036
:103B00000D929A95E1F7809305020E94B61ABFCFF5
:103B1000819FC00111248A5F9D4F0E945B1B8823F7
:103B2000E9F0E09104021E9FF0011124EA5FFD4FCD
:103B30004081518162817381848195810E94A61A9E
:103B40008091040290E00196877099278093040287
:103B500080910402909105028913DACF2C960FB65A
:103B6000F894DEBF0FBECDBFDF91CF911F910895B6
:103B700069857A858B859C850E94A61A88CFEF92ED
:103B8000FF920F931F93CF93DF938C01892B81F0CA
:103B9000F12CEE24E394E8012196F8018491843716
:103BA00070F4843008F05FC08130B1F08230A1F150
:103BB000DF91CF911F910F91FF90EF90089585377E
:103BC00009F44CC008F43DC09CE7980F903780F78B
:103BD0008F770E94A11749C00E5F1F4FFE0184918D
:103BE00090E2980F983060F48770FE2D01C0FF0FAF
:103BF0008A95EAF78F2F0E9451200E947A2002C0F6
:103C00000E9412178F2D815030F2EFE9FFE03197BB
:103C1000F1F700C00000F7CF0E5F1F4FFE01849147
:103C200090E2980F983050F48770FE2D01C0FF0F7E
:103C30008A95EAF78F2F0E945720DFCF0E94A117A5
:103C4000E1CF0E5F1F4FFE01C491C150D8F28FE942
:103C50009FE00197F1F700C00000F7CF0E5F1F4F04
:103C6000FE01F490CFCF0E9412178E01CBCF0895A2
:103C70000C94371E0E94381E609363027093640296
:103C800080936502909366020C945E1A08950C94DA
:103C90003A1E0F931F9300916302109164022091CA
:103CA000650230916602602B712B822B932B1F9142
:103CB0000F910C943A1E0F931F9300916302109181
:103CC0006402209165023091660260237123822391
:103CD00093231F910F910C943A1E0F931F93009101
:103CE00063021091640220916502309166026027A0
:103CF0007127822793271F910F910C943A1E0C94E1
:103D0000371E0C947F1E0E94811E60935F02709389
:103D1000600280936102909362020C945E1A60E0EC
:103D200070E0CB010C94831E0F931F9341E050E091
:103D300060E070E08A019B0104C0000F111F221F88
:103D4000331F8A95D2F7C901B8011F910F910C94C6
:103D5000831E0F931F9341E050E060E070E004C0C9
:103D6000440F551F661F771F8A95D2F780915F0217
:103D700090916002A0916102B09162028A019B0160
:103D8000082B192B2A2B3B2BC901B8011F910F912E
:103D90000C94831E0F931F9341E050E060E070E0AD
:103DA00004C0440F551F661F771F8A95D2F7CB01B9
:103DB000BA01609570958095909500915F02109181
:103DC000600220916102309162026023712382239C
:103DD00093231F910F910C94831E0F931F9341E027
:103DE00050E060E070E004C0440F551F661F771F6D
:103DF0008A95D2F780915F0290916002A091610252
:103E0000B09162028A019B01082719272A273B27C4
:103E1000C901B8011F910F910C94831E0F931F933A
:103E200000915F0210916002209161023091620264
:103E3000602B712B822B932B1F910F910C94831E5F
:103E40000F931F9300915F02109160022091610215
:103E50003091620260237123822393231F910F917B
:103E60000C94831E0F931F9300915F0210916002C8
:103E70002091610230916202602771278227932787
:103E80001F910F910C94831E08952EE0929F800D38
:103E90001124982F977041E001C0440F9A95EAF7DA
:103EA00086958695869595E0899FF0011124E45CBE
:103EB000FD4F90E080E070E05191DF0111979B0190
:103EC000082E02C0369527950A94E2F721702195B5
:103ED0002527242325272C9301968530910561F70A
:103EE00008952EE0929F800D1124982F977086954B
:103EF0008695869525E0829FF0011124E45CFD4FB4
:103F000050E040E080E0219130E0092E02C036957B
:103F100027950A94E2F721703327042E01C0220F5F
:103F20000A94EAF7822B4F5F5F4F4530510559F7EE
:103F30000895BF92CF92DF92EF92FF920F931F935B
:103F4000CF93DF938C01C0905F02D0906002E0902D
:103F50006102F09062028091630290916402A091EC
:103F60006502B0916602C82AD92AEA2AFB2ACFE163
:103F7000D0E0BC2ED701C6010C2E04C0B695A79583
:103F8000979587950A94D2F780FD0EC0219788F700
:103F9000B12C8B2DDF91CF911F910F91FF90EF905E
:103FA000DF90CF90BF900895B8018C2F0E945E05DE
:103FB000019761F3EECFCF93DF93EC010E94991F3D
:103FC000BE01DF91CF910C945E051F93CF93DF93D9
:103FD000EB0190910302992331F0CB01DF91CF9156
:103FE0001F910C94DB1F882379F0CB010E94991F4D
:103FF000182F682FCE010E94451FBE01812FDF912F
:10400000CF911F910C945E05CB010E94711F182F58
:10401000F4CF682F80911701909118010C94CF2153
:10402000682F80911701909118010C94D1218091F3
:104030001701909118010C94D32180916702859506
:104040008595859508958091670287700895909170
:104050006702977081E009F480E00895809173020F
:10406000089590917302892B80937302089580952F
:1040700090917302982390937302089510927302A3
:10408000089590917202892B809372020895809511
:104090009091720298239093720208951092720286
:1040A000089590917102892B8093710208958095F3
:1040B0009091710298239093710208951092710269
:1040C000089580916802089508950C946420909159
:1040D0006802981721F0809368020C946520089577
:1040E00080916802882329F01092680280E00C9485
:1040F00065200895E0911701F091180180917302F5
:104100008083E0911701F0911801808190917202F3
:10411000892B8083E0911701F091180180819091A3
:104120007102892B808390916802992381F0E0913C
:104130001701F09118018081892B808380911701EC
:10414000909118010E94872181110E947020809116
:104150001701909118010C94DB1508950C94AD2073
:1041600098E0899F90011124622B609367020E945E
:10417000A91E809167028595859585950C94AE2042
:104180001092670280E00C94AE20909167028095B7
:10419000892380936702282F277071F4282F082E17
:1041A000000C330B9217130639F08595859585958C
:1041B0000E94CA1E0C94C02008956FEF7FEF90E01C
:1041C00080E00C944C2C90E080E00E94282C21E0B0
:1041D0008C3E9E4F09F020E0822F089582E090E00F
:1041E0000C941A2C83E090E00C941A2CCF9384E06A
:1041F00090E00E941A2CC82F81E290E00E941A2CB5
:10420000982F8C2FCF910895CF93C92F682F84E0DA
:1042100090E00E942E2C6C2F81E290E0CF910C94C4
:104220002E2CAB01BC018FE090E00C94402CAB0134
:10423000BC0183E190E00C94402C60E070E0CB0185
:104240000C94172160E070E0CB010E9411210C94C6
:104250001D216CEE7EEF90E080E00E944C2C60E02F
:1042600082E090E00E942E2C60E083E090E00E94CB
:104270002E2C10926302109264021092650210922A
:10428000660260E084E090E00E942E2C60E081E213
:1042900090E00E942E2C60E085E090E00E942E2CA1
:1042A00060E086E090E00E942E2C6FEF87E090E0C7
:1042B0000E942E2C40E050E0BA0188E090E00E947D
:1042C000402C60E08DE090E00E942E2C40E050E019
:1042D000BA0188E190E00E94402C60E087E190E024
:1042E0000E942E2C40E050E0BA018CE190E00E9448
:1042F000402C60E080E290E00E942E2C0C94222161
:104300000C942921682F8EE090E00C942E2C9C01B7
:104310002E5F3F4FAC01485F5F4F80E024173507A9
:1043200009F40895F90191919F019923B9F38F5FE1
:10433000F5CF662349F0FC013296089621912617A5
:1043400029F0E817F907D1F780E0089581E0089592
:104350009C01FC0132969FEF80E04191461751F09D
:104360009F3F19F4411101C0982F8F5F8630A9F744
:104370009F3F09F40895290F311D97FD3A95F901E2
:1043800062830895FC01329608962191261303C09A
:10439000DF0111971C92E817F907B9F708950C94FB
:1043A000A8210C94C221029626E0FC0111922A95C4
:1043B000E9F70895089508950C94DB210E94DC210B
:1043C0008091A902843049F11092750288E190E051
:1043D00020E40FB6F894A895809360000FBE209358
:1043E000600080E00E944A050E94DC2183B7817F43
:1043F000846083BF83B7816083BF7894889583B7D7
:104400008E7F83BF0FB6F894A89580916000886175
:1044100080936000109260000FBE08950895CF93BE
:104420000E94DA210E94B9070E940E22C0E08C2F60
:104430000E944A07892B31F4CF5FC430C1F780E076
:10444000CF91089581E0FCCF08950C9424220E941E
:10445000701A0E94CF150E944A050C9425221F92C3
:104460001FB61F9211248F939F93AF93BF93809198
:104470007502811113C080919F029091A002A091BA
:10448000A102B091A2024196A11DB11D80939F028D
:104490009093A002A093A102B093A202BF91AF910A
:1044A0009F918F911F901FBE1F90189582E084BD31
:1044B00093E095BD9AEF97BD80936E0008952FB756
:1044C000F89480919F029091A002A091A102B091D6
:1044D000A2022FBF08952FB7F89460919F027091A8
:1044E000A0028091A1029091A2022FBF08959C0189
:1044F0004FB7F89480919F029091A002A091A102E1
:10450000B091A2024FBF821B930B089578941F9223
:104510001FB61F9211248F939F93AF93BF938091E7
:104520009F029091A002A091A102B091A2020196D7
:10453000A11DB11D80939F029093A002A093A102A0
:10454000B093A202BF91AF919F918F911F901FBE18
:104550001F90189581E08093E00080E28093D8005E
:104560001092C9008FE19EE40197F1F700C00000AE
:1045700087E090EBDC018093B2029093B302A093AA
:10458000B402B093B50288E19CE00FB6F894A89508
:10459000809360000FBE90936000FFCF0C94841056
:1045A0000E94B9078FE39CE90197F1F700C0000072
:1045B0000E94B90780E00E944A0780FF04C00E9461
:1045C000CE220C94AA2208950E94E320811102C0F9
:1045D0000E9480210E94EE20809374020E94F620A7
:1045E0009093A4028093A3020E94F220682F70E0AF
:1045F00090E080E00E94471E60915F02709160022F
:1046000080916102909162020C94811E0F931F931E
:1046100041E050E060E070E08A019B0104C0000FBF
:10462000111F221F331F8A95D2F7C901B8010E94BA
:10463000471E1F910F910C94701A8B3109F461C0C1
:1046400040F58B3071F078F4863009F443C020F4E3
:10465000853059F180E00895873009F444C08830EE
:10466000C9F781E00895803109F459C068F48E30AB
:1046700089F790917402892F8B7F92FF84608093D9
:10468000740282FD48C0EDCF863159F3893149F378
:10469000E1CF8A32E1F060F48732A9F020F48E3164
:1046A000C8F28D5111C08932A9F60E94EC04D9CF0D
:1046B000833438F48A33F0F5853329F0883389F26E
:1046C000C9CF833439F680E00E940623CACF0E9406
:1046D0008021C7CF80917402807F8093740281E033
:1046E00080937602089590917402892F8E7F90FFB7
:1046F00081608093740280FDB4CF817F80937402C7
:10470000B0CF90917402892F8D7F91FF826080934A
:10471000740281FFA6CF809174028160EFCF9091E7
:104720007402892F877F93FF88608093740283FDD2
:10473000F2CF97CF8953C8CF80E008950C949C2383
:10474000CF93C82F80917602882331F0813099F081
:104750001092760280E00DC00E942E208232D1F7A6
:104760008C2F0E949C23811116C08C2F0E941D2328
:104770008170CF9108950E942E20823289F38C2F70
:104780000E949E23811105C0C43171F038F4CB30F2
:1047900079F781E0EDCF81E090E0EACFC93221F0F6
:1047A000C833B9F380E0E4CF10927602FBCF80915A
:1047B0007F0208950895CF93DF9300D00F92CDB775
:1047C000DEB79091A902943011F589837B836A83C7
:1047D0009093E9008FEF9091E800815095FD06C01D
:1047E00095ED9A95F1F700008111F5CF8091E800E1
:1047F00085FF0DC050E040E063E070E0CE0101961F
:104800000E942F268091E8008E778093E8000F9019
:104810000F900F90DF91CF910895BC0184E00C942C
:10482000DB23BC0183E00C94DB23CF93DF93EC010B
:1048300081E08093E9008FEF9091E800815095FD31
:1048400006C095ED9A95F1F700008111F5CF8091A2
:10485000E80085FF14C050E040E068E070E0CE0161
:104860000E942F268091E8008E778093E80088E0F0
:10487000FE01A7E7B2E001900D928A95E1F7DF9182
:10488000CF910895CF93FC01603221F58091A90268
:10489000843001F5C091E900CF702091EC00922F97
:1048A000917020FD90E8C92B82E08093E90080910F
:1048B000E80080FF0CC050E040E060E270E0CF0113
:1048C0000E942F268091E8008E778093E800CF70B9
:1048D000C093E900CF9108958091A802811109C089
:1048E0000E940E280E946B288091E20084608093D1
:1048F000E20008951092A8020895089508950C9476
:10490000272242E061EC81E00E948A2742E261ECCA
:1049100084E00E948A2742E261EC82E00E948A27BA
:1049200042E260EC83E00C948A278091AB028330F2
:1049300009F461C030F48130D1F1823009F49DC0B6
:1049400008958A3009F489C08B3009F46FC089302A
:1049500009F050C08091AA02813209F04BC08091C9
:10496000AE029091AF02009719F0029709F042C091
:104970008091E800877F8093E8008091E80082FFC3
:1049800035C09091F3008091F200029729F4809154
:10499000F1008B7F813021F48091F10080937F02C0
:1049A0008091E8008B778093E8000C94BE2780917B
:1049B000AA02813AF9F48091E800877F8093E800A9
:1049C0008091AE029091AF02892B61F468E087E795
:1049D00092E070E00E94CD268091E8008B77809372
:1049E000E800089560E090E080E0F3CF8091A902B4
:1049F0008111C3CF08958091AA02813AD9F780919D
:104A0000AE029091AF02892BA9F78091E800877FD1
:104A10008093E8008091E80080FFFCCF8091230123
:104A20008093F1008091E8008E77BDCF8091AA023B
:104A3000813201F78091AE029091AF02892BD1F6BD
:104A40008091E800877F8093E8000E94BE278091D4
:104A5000AC02809323010C94701A8091AA028132D7
:104A600049F68091E800877F8093E8000E94BE2786
:104A70008091AD028093800208958091AA02813ACC
:104A800009F0B8CF8091E800877F8093E80080919B
:104A9000E80080FFFCCF80918002C2CFCDB7DEB7A7
:104AA000A0970FB6F894DEBF0FBECDBF84B7877F47
:104AB00084BF0FB6F894A8958091600088618093B8
:104AC0006000109260000FBE80E890E00FB6F8948E
:104AD00080936100909361000FBE0E9420160E9497
:104AE0000E280E946B288091E20084608093E2008F
:104AF00078940E94F42A0E942A1689E191E00E948B
:104B0000CA1513E08091A902853039F10E9436164A
:104B10008091A9028430B1F71093E9008091E800F8
:104B200082FFF0CF8091E80090E085FF09C050E05F
:104B300040E060E270E0CE0101960E947E2691E0A6
:104B40008091E8008B778093E8009923D9F260E2A6
:104B5000CE0101960E943C11D5CF0E94DE218091AA
:104B6000A702882379F20E940F22882359F20E941B
:104B70001926C8CF0C94BC25292F332723303105A3
:104B800021F168F42130310509F449C022303105A2
:104B900009F44AC090E080E030E020E029C02132F2
:104BA000310581F122323105A9F76330710590F7A3
:104BB000FB01EE0FFF1FEA53FE4F208131816D5341
:104BC0007E4FFB01808190E013C0992781309105D1
:104BD00099F0009741F08230910589F00397D1F662
:104BE000E6E2F5E002C0ECE4F5E0849190E09F019C
:104BF000FA01318320830895E0E4F5E0F6CFECE29A
:104C0000F5E0F3CF6330710528F6660F771FFB01DF
:104C1000E453FE4F2081318189E090E0E9CF82E1C9
:104C200090E02BEA35E0E4CF8BE590E020E535E03D
:104C3000DFCF80E189BD82E189BD09B400FEFDCFEF
:104C40008091D8008F7D8093D8008091E0008260B1
:104C50008093E0008091E00081FDFCCF0895AF9249
:104C6000BF92CF92DF92FF920F931F93CF93DF9368
:104C70006C01EB018A010E94DD27F82E811123C00F
:104C80000115110539F0F80180819181C81BD90BFC
:104C9000C80ED91EB12CA12C2097A9F08091E80054
:104CA00085FD22C08091E8008E778093E800011591
:104CB0001105A1F0F80180819181A80EB91EB18281
:104CC000A08285E0F82E8F2DDF91CF911F910F915B
:104CD000FF90DF90CF90BF90AF9008950E94DD27A6
:104CE0008823D1F2F82EEFCFF60181916F018093E6
:104CF000F1002197FFEFAF1ABF0ACECFAF92BF925C
:104D0000CF92DF92FF920F931F93CF93DF936C01AB
:104D1000EB018A010E94DD27F82E811123C00115C5
:104D2000110539F0F80180819181C81BD90BC80E9B
:104D3000D91EB12CA12C2097A9F08091E80085FD07
:104D400022C08091E8008B778093E800011511055F
:104D5000A1F0F80180819181A80EB91EB182A082D4
:104D600085E0F82E8F2DDF91CF911F910F91FF904D
:104D7000DF90CF90BF90AF9008950E94DD278823E9
:104D8000D1F2F82EEFCF8091F100F60181936F01FF
:104D90002197FFEFAF1ABF0ACECFFC018091B0027E
:104DA0009091B10286179707A0F06115710529F45B
:104DB0009091E8009E779093E80090E0611571056E
:104DC00051F4911108C08091E80082FF34C080E066
:104DD0000895BC01F2CF8091A9028823C1F18530EA
:104DE000C1F18091E80083FD30C08091E80082FD30
:104DF000EACF8091E80080FFE1CF8091F30020911D
:104E0000F200382F6115710519F02830310558F07E
:104E100091E02830310509F090E02091E8002E77EC
:104E20002093E800CBCF81918093F100615071090C
:104E30002F5F3F4FE7CF8091A902882341F0853053
:104E400041F08091E80083FFBECF81E0089582E0C9
:104E5000089583E00895FC018091B0029091B10221
:104E600086179707A0F06115710529F48091E80075
:104E70008E778093E80090E06115710551F49111EF
:104E800008C08091E80082FF35C080E00895BC0131
:104E9000F2CF8091A9028823C9F18530C9F18091B0
:104EA000E80083FD31C08091E80082FDEACF809167
:104EB000E80080FFE1CF8091F3002091F200382FCD
:104EC0006115710519F02830310558F091E028304E
:104ED000310509F090E08091E8008E778093E8003A
:104EE000CBCF84918093F1003196615071092F5F8F
:104EF0003F4FE6CF8091A902882341F0853041F0F1
:104F00008091E80083FFBDCF81E0089582E008959D
:104F100083E00895982F973028F08F708093E900F0
:104F200081E008959093E900242F762F50E09817A0
:104F300031F07091EC002091ED005091F00021FDD6
:104F400002C09F5FE8CF3091EB003E7F3093EB00D3
:104F50003091ED003D7F3093ED003091EB003160FA
:104F60003093EB007093EC002093ED005093F00031
:104F70002091EE0027FDE5CF80E008958091AA0200
:104F800087FF13C08091E80082FF06C08091E8008F
:104F90008B778093E80004C08091A9028111F2CF41
:104FA00008958091A9028823D9F38091E80080FFB9
:104FB000F8CF8091E8008E77ECCF2091E40030911B
:104FC000E50095E6A9012091EC00822F817020FF79
:104FD00006C08091E80080FF06C080E0089520911F
:104FE000E80022FD1AC08091A902882389F085304B
:104FF00089F08091EB0085FD0FC02091E400309195
:10500000E50042175307F9F29150E1F684E0089564
:1050100082E0089583E0089581E008950E947C284D
:105020000E948428E0EEF0E0808181608083E8EDDA
:10503000F0E080818F77808319BCA7EDB0E08C9180
:105040008E7F8C9380818F7E80831092A80208953A
:105050000F931F93CF93DF930E947C280E94842894
:10506000C8EDD0E088818F778883888180688883C5
:1050700088818F7D888319BC1092A9021092A502A5
:105080001092A7021092A60200EE10E0F8018081B3
:105090008B7F808388818160888342E060E080E04C
:1050A0000E948A27E1EEF0E080818E7F8083E2EE2D
:1050B000F0E0808181608083808188608083F80156
:1050C00080818E7F8083888180618883DF91CF910A
:1050D0001F910F910895E8EDF0E080818F7E80832D
:1050E000E7EDF0E080818160808384E082BF81E031
:1050F0008093A8020C942828E8EDF0E080818E7F50
:1051000080831092E20008951092DA001092E1007C
:1051100008951F920F920FB60F9211242F933F9371
:105120004F935F936F937F938F939F93AF93BF93AF
:10513000EF93FF938091E10082FF0BC08091E2002A
:1051400082FF07C08091E1008B7F8093E1000E9485
:10515000F32A8091DA0080FF19C08091D80080FF87
:1051600015C08091DA008E7F8093DA008091D9009B
:1051700080FF96C080E189BD82E189BD09B400FE4F
:10518000FDCF81E08093A9020E946C248091E10010
:1051900080FF19C08091E20080FF15C08091E2007D
:1051A0008E7F8093E2008091E20080618093E20034
:1051B0008091D80080628093D80019BC85E08093EC
:1051C000A9020E947E248091E10084FF2BC080917F
:1051D000E20084FF27C080E189BD82E189BD89B5F5
:1051E000982F917080FFFBCF8091D8008F7D8093A6
:1051F000D8008091E1008F7E8093E1008091E200F1
:105200008F7E8093E2008091E20081608093E200D3
:105210008091A502882309F449C084E08093A90203
:105220000E947F248091E10083FF29C08091E200E9
:1052300083FF25C08091E100877F8093E10082E0B9
:105240008093A9021092A5028091E1008E7F809345
:10525000E1008091E2008E7F8093E2008091E20085
:1052600080618093E20042E060E080E00E948A2753
:105270008091F00088608093F0000E947D24FF916F
:10528000EF91BF91AF919F918F917F916F915F91BE
:105290004F913F912F910F900FBE0F901F90189537
:1052A00019BC1092A9020E947A2470CF8091E30069
:1052B00087FD93E09093A902B3CF1F920F920FB690
:1052C0000F9211242F933F934F935F936F937F938C
:1052D0008F939F93AF93BF93CF93DF93EF93FF93FE
:1052E000D091E900DF708091EC00C82FC17080FD83
:1052F000C0E81092E9008091F000877F8093F00071
:1053000078940E94A1291092E9008091F0008860B1
:105310008093F000CD2BCF70C093E900FF91EF9107
:10532000DF91CF91BF91AF919F918F917F916F91BD
:105330005F914F913F912F910F900FBE0F901F9053
:1053400018951F93CF93DF93CDB7DEB7AA970FB60B
:10535000F894DEBF0FBECDBF8AEA92E02091F10043
:10536000FC012193CF01F2E0823B9F07B9F70E9435
:1053700095248091E80083FF1EC18091AA0290913C
:10538000AB029A3008F017C1E92FF0E0E853F34D73
:105390000C94732B803899F0823809F00CC18091FD
:1053A000AE028F70873008F006C18093E9008091CB
:1053B000EB0085FB882780F91092E90006C08091F8
:1053C000A6029091A702911182609091E800977FC8
:1053D0009093E8008093F1001092F1008091E80032
:1053E0008E77E5C0882309F4D3C0823009F0E3C08A
:1053F0008091AC028111D6C08091AE028F702FEFE8
:10540000280F263008F0D7C08093E9002091EB00E8
:1054100020FFC8C0933031F48091EB00806280930C
:10542000EB00C0C09091EB0090619093EB0021E005
:1054300030E001C0220F8A95EAF72093EA0010922B
:10544000EA008091EB008860EACF8111B4C010912E
:10545000AC021F778091E3008078812B8093E3007A
:105460008091E800877F8093E8000E94BE278091AA
:10547000E80080FFFCCF8091E30080688093E30028
:1054800082E0111183E08093A90295C08058823098
:1054900008F091C08091AC029091AD028C3D23E068
:1054A0009207A1F583E08A838AE289834FB7F89453
:1054B000DE01139620E03EE051E2E32FF0E050934E
:1054C0005700E49120FF03C0E295EF703F5FEF705B
:1054D0008E2F90E0EA30C0F0C7968D939D932F5F9A
:1054E000243159F74FBF8091E800877F8093E8000F
:1054F0006AE270E0CE0101960E94CD268091E8001C
:105500008B778093E80057C0C096E7CF6091AE02DA
:105510007091AF02AE014F5F5F4F0E94BA25BC0190
:10552000892B09F448C09091E800977F9093E80098
:1055300089819A810E942B27E1CF8038E1F5809103
:10554000E800877F8093E8008091A5028093F100B6
:1055500045CF811130C09091AC02923060F58091BE
:10556000E800877F8093E8009093A5020E94BE2701
:105570008091A502882311F084E005C08091E300AA
:1055800087FDFACF81E08093A9020E94812413C095
:105590008091AC02813079F481E0933009F080E0B1
:1055A0008093A7021092E9008091E800877F8093A2
:1055B000E8000E94BE278091E80083FF0AC0809126
:1055C000E800877F8093E8008091EB008062809301
:1055D000EB00AA960FB6F894DEBF0FBECDBFDF91E9
:1055E000CF911F9108950895CF938091A9028823A8
:1055F000A1F0C091E900CF709091EC00892F8170EB
:1056000090FD80E8C82B1092E9008091E80083FDAE
:105610000E94A129CF70C093E900CF910895991BF2
:1056200079E004C0991F961708F0961B881F7A9599
:10563000C9F78095089587FB082E062687FD81957A
:1056400067FD61950E940F2B0EF4919507FC8195E3
:105650000895AA1BBB1B51E107C0AA1FBB1FA617B9
:10566000B70710F0A61BB70B881F991F5A95A9F70B
:1056700080959095BC01CD01089597FB072E16F4F7
:10568000009407D077FD09D00E94292B07FC05D094
:105690003EF4909581959F4F0895709561957F4F49
:1056A0000895A1E21A2EAA1BBB1BFD010DC0AA1F63
:1056B000BB1FEE1FFF1FA217B307E407F50720F07B
:1056C000A21BB30BE40BF50B661F771F881F991FF6
:1056D0001A9469F760957095809590959B01AC013F
:1056E000BD01CF010895EE0FFF1F0590F491E02D4D
:1056F00009946927962769277827872778270895A7
:105700000E94882B332312F48A1B9B0B0C94992B39
:10571000A29FB001B39FC001A39F700D811D1124F2
:10572000911DB29F700D811D1124911D08950E943D
:10573000882BB7FF0895821B930B08950E94882B36
:10574000A59F900DB49F900DA49F800D911D1124D5
:105750000895B7FF0C949E2B0E949E2B821B930BE7
:1057600008958F929F92AF92BF92CF92DF92EF9265
:10577000FF92CF93DF93EC01688179818A819B81CD
:10578000611571058105910521F464E279ED8BE5E0
:1057900097E02DE133EF41E050E00E94622C490197
:1057A0005A019B01AC01A7EAB1E40E949E2B6B0158
:1057B0007C01ACEEB4EFA50194010E94AC2BDC019E
:1057C000CB018C0D9D1DAE1DBF1DB7FF03C0019702
:1057D000A109B04888839983AA83BB839F77DF910F
:1057E000CF91FF90EF90DF90CF90BF90AF909F90C0
:1057F0008F9008950E94B12B089580E091E00E945F
:10580000B12B0895B0E0A0E08093000190930101D6
:10581000A0930201B09303010895FC014150504050
:1058200030F001900616D1F73197CF0108958827FF
:1058300099270895F999FECF92BD81BDF89A9927CD
:1058400080B50895A6E1B0E044E050E00C94542CFB
:10585000A8E1B0E042E050E00C94542C262FF999D6
:10586000FECF92BD81BDF89A019700B4021639F0BF
:105870001FBA20BD0FB6F894FA9AF99A0FBE089590
:105880000396272F0E942F2C0E942E2C252F0E943A
:105890002F2C242F0C942F2C0196272F0E942F2C75
:1058A0000C942E2CDC01CB01FC01F999FECF06C033
:1058B000F2BDE1BDF89A319600B40D9241505040CE
:1058C000B8F70895052E97FB1EF400940E94792CDA
:1058D00057FD07D00E94512B07FC03D04EF40C94C7
:1058E000792C50954095309521953F4F4F4F5F4F04
:1058F000089590958095709561957F4F8F4F9F4F3C
:105900000895F894FFCFCD0FD50FDC0FE10FE60F10
:10591000EB0FF00FF50FFA0FFF0F041009100D1029
:105920001210151018101B101E10201023105011EB
:105930005D11841190119B11A611A911AC11AF1129
:10594000F811FB11B211B611BE11CB11D811DB1138
:10595000DE11EB1148184818A018A018F218751895
:10596000751875180E199A19A919A919051A751813
:1059700075180E1A7F1A7F1A881A881A8A1A881AB6
:10598000881A881A7F1A7F1A8F1A881A881A8F1A0B
:10599000CA29F229DB2AF229DB2A252A462ADB2A10
:0459A0009D2AA92A69
:1059A40001000000010102000300030301191A1B96
:1059B4001C1D1E1F2021226902D7231524DA23115E
:1059C400240D2401E200E900EA00B500B600B700A6
:1059D400CD008301CC008A019201940121022302AB
:1059E40024022502260227022A02B300B4006F0013
:1059F4007000818283F0F1F4F5F6F735366667348A
:105A0400909300C63092910001020202020606063B
:105A14000909090909090F0F0F0F0F0F151515189B
:105A2400191919191919191919192324252525259D
:105A34002525E200E900EA00B500B600B700CD0074
:105A44008301CC008A0192019401210223022402E1
:105A54002502260227022A02B300B4006F00700058
:105A64008182834022321106BD05DF0562057B0574
:025A74009B0590
:00000001FF
