:100000000C942C030C9473030C9473030C947303DF
:100010000C9473030C9473030C9473030C94730388
:100020000C9473030C9473030C94F9290C94CD2A4B
:100030000C94AA230C9473030C9473030C94730311
:100040000C9473030C9473030C9473030C94730358
:100050000C9473030C9401240C9473030C94730399
:100060000C9473030C9473030C9473030C94730338
:100070000C9473030C9473030C9473030C94730328
:100080000C9473030C9473030C9473030C94730318
:100090000C9473030C9473030C9473030C94730308
:1000A0000C9473030C9473030C9473032B001400CF
:1000B0001A000800150017001C0018000C001200A0
:1000C00013004C00296104001600070009000A0013
:1000D0000B000D000E000F0033003400E1001D0086
:1000E0001B00060019000500110010003600370043
:1000F000380028004600E3000000E200015800003C
:100100002C4200002F0030000000390035021E0292
:100110001F022002210222022302240225022602BB
:1001200027022A0038001E001F00200021002200A4
:1001300023002400250026002700310001000100D3
:100140000100010001000100010057002E00010024
:100150000100010029004C050000290301000000F6
:1001600001000000640035000000010001000100F2
:10017000010052000100010001002D0201002F00CA
:100180003000010001000100500051004F0001004B
:1001900001002D0001002F02300201003A003B0057
:1001A0003C003D003E003F00400041004200430053
:1001B00044004500005C0100000001000100000057
:1001C0000100000001000100000001000100010029
:1001D0000100010001000100010001000100010017
:1001E0000100010001000100010001000100010007
:1001F00001000100010001000100010001000100F7
:1002000001000100010001000100010001000100E6
:1002100001000100010001000000010001000000D8
:1002200001000000010001000000010000000000CA
:10023000000000002A2B2800000000000000000041
:100240000000000000000029000000002C1E3420E7
:10025000212224342627252E362D3738271E1F200D
:100260002122232425263333362E37381F04050652
:100270000708090A0B0C0D0E0F1011121314151696
:100280001718191A1B1C1D2F3130232D3504050694
:100290000708090A0B0C0D0E0F1011121314151676
:1002A0001718191A1B1C1D2F3130354C0000000087
:1002B000000000000000000000000000000000003E
:1002C0007E0F00D4FFFFFFC70000007832190A003C
:1002D000047F3F1F643214643214783C1E1E140ADB
:1002E000052223252628292A2C2D2F303233353676
:1002F000383A3B3D3E4042434547494A4C4E5051B7
:10030000535557595A5C5E6062646668696B6D6FDD
:1003100071737577797B7D7F81838587898A8C8EE0
:1003200090929496989A9C9E9FA1A3A5A7A8AAACE8
:10033000AEAFB1B3B4B6B8B9BBBCBEBFC1C2C3C522
:10034000C6C7C9CACBCCCDCED0D1D2D2D3D4D5D6C4
:10035000D7D7D8D9D9DADADBDBDBDCDCDCDCDCDDF7
:10036000DDDDDDDCDCDCDCDCDBDBDBDADAD9D9D8DB
:10037000D7D7D6D5D4D3D2D2D1D0CECDCCCBCAC973
:10038000C7C6C5C3C2C1BFBEBCBBB9B8B6B4B3B1A2
:10039000AFAEACAAA8A7A5A3A19F9E9C9A9896943D
:1003A00092908E8C8A89878583817F7D7B79777512
:1003B00073716F6D6B6968666462605E5C5A5957F1
:1003C000555351504E4C4A4947454342403E3D3BB0
:1003D0003A3836353332302F2D2C2A29282625233A
:1003E00022FFAA7F55400001010101010101010125
:1003F00002020202020202020203030303030303D6
:1004000003040404040404040505050505060606A2
:100410000606070707070708080808090909090A5F
:100420000A0A0B0B0B0C0C0C0D0D0D0E0E0E0F0F04
:100430000F10101111111212131314141515161692
:100440001717181819191A1A1B1B1C1D1D1E1E1F01
:100450002020212222232424252626272829292A50
:100460002B2C2D2D2E2F3031323233343536373878
:10047000393A3B3C3D3E3F40414243444546474874
:10048000494A4C4D4E4F50515354555658595A5B4A
:100490005D5E5F616264656668696B6C6D6F7072EA
:1004A000737577787A7B7D7E8082838587888A8C56
:1004B0008E8F91939596989A9C9EA0A2A3A5A7A98A
:1004C000ABADAFB1B3B5B7BABCBEC0C2C4C6C9CB81
:1004D000CDCFD1D4D6D8DBDDDFE2E4E7E9EBEEF037
:1004E000F3F5F8FAFDFF0403300000001E03550089
:1004F0004400340030005F004F0072007400680058
:100500006F005F0041006C00740000000A034E00A1
:1005100061007300700000000403090409025B001D
:10052000030100A0FA0904000001030101000921F0
:10053000110100012240000705810308000A090497
:100540000100020300000009211101000122220024
:1005500007058203200001070503032000010904A9
:1005600002000103000000092111010001226D00B9
:100570000705840320000A12011001000000087022
:100580007030700100010203010660FF0961A101E2
:100590000962150026FF0095207508810209631580
:1005A0000026FF00952075089102C005010980A171
:1005B00001850319012AB700150126B700950175B9
:1005C000108100C0050C0901A101850419012AA0B0
:1005D00002150126A002950175108100C0050109D0
:1005E00006A1018505050719E029E71500250195F4
:1005F00008750181020507190029EF1500250195ED
:10060000F07501810205081901290595057501910B
:1006100002950175039101C005010906A1010507B5
:1006200019E029E71500250195087501810295015A
:10063000750881010507190029FF150026FF00959F
:1006400006750881000508190129059505750191B0
:1006500002950175039101C011241FBECFEFDAE0AE
:10066000DEBFCDBF04B603FE27C080912803909162
:100670002903A0912A03B0912B038730904BA74008
:10068000B04BD1F4109228031092290310922A0340
:1006900010922B0314BE84B7877F84BF0FB6F894E3
:1006A000A89580916000886180936000109260003E
:1006B0000FBEE0E0F8E3099511E0A0E0B1E0E2E070
:1006C000FDE502C005900D92A03DB107D9F723E0EA
:1006D000A0EDB1E001C01D92A832B207E1F70E947F
:1006E000BE260C94F12D0C940000CF93DF939C0157
:1006F0003A9521153F4168F5EC01CC27D170DC011A
:10070000AA27B270AC01442754709C01222738708C
:1007100094FF11C080E1CD2B09F480E0AB2B09F0F0
:100720008062452B09F08064232B09F08068FB016F
:10073000DF91CF91099481E0CD2B09F480E0AB2BC0
:1007400009F08260452B09F08460232B81F38860D7
:10075000EECFDF91CF910895CF93DF93EC01805ED0
:100760009109089720F06BE97BE1209711F460E490
:1007700079E1CE010E9475038C2FDF91CF910C940B
:100780004F18CF93DF93EC010E94DE18CE01805EFC
:100790009109089720F062EA7BE1209711F467E461
:1007A00079E1CE01DF91CF910C947503CF93DF9364
:1007B000EC010E94AC03CE01DF91CF910C94C103F8
:1007C00081E0089581E008950C94E20308950C946B
:1007D000E6031F93CF93DF9300D000D00F92CDB7E5
:1007E000DEB749835A836B8330912E0289819A81C7
:1007F00031111DC06623B9F02223A9F00E94A82060
:10080000182F682F89819A810E94542069817A81EA
:10081000812F0F900F900F900F900F90DF91CF913D
:100820001F910C9459130E948020182FEFCF0E9423
:10083000A82069817A81EDCFFC01262F408151816A
:100840006281738184810C94E903CF93DF93EC017F
:1008500060E00E941C04BE01DF91CF910C94E7037D
:10086000FF920F931F93CF93DF93E82FF0E0E45DA7
:10087000FD4FF490C82FC695C695C695D0E0FE01F1
:10088000E454FD4F0491877010E0082E02C01595C6
:1008900007950A94E2F701701127C455DD4FFE0158
:1008A000C491D0E002C0D595C7958A95E2F7C17092
:1008B000DD270115110519F081EE0E944F182097D0
:1008C00019F086EE0E944F188F2D0E942D19CD2B06
:1008D00019F086EE0E94DE18012B41F081EEDF91C7
:1008E000CF911F910F91FF900C94DE18DF91CF9163
:1008F0001F910F91FF900895EF92FF920F931F9316
:10090000CF93DF93EC01162F0AE08881882309F446
:1009100054C0813009F04EC08981813099F47E0144
:1009200022E0E20EF11C8A810E942D19E701219636
:10093000812F815050F3EFE9FFE03197F1F700C0CC
:100940000000F7CF823041F47E0182E0E80EF11C16
:100950008A810E944F18EACF833041F47E01E2E0A1
:10096000EE0EF11C8A810E94DE18E0CF843011F077
:100970002196DDCF2A81229690E080E0AE014F5F84
:100980005F4F2053330B2A30310548F0019778F23E
:10099000EFE9FFE03197F1F700C00000F7CF089FC3
:1009A000B001099F700D1124C901860F971F29817D
:1009B000EA01E4CF0E943004BACFDF91CF911F91BA
:1009C0000F91FF90EF90089560E00C947C048F925B
:1009D0009F92AF92BF92CF92DF92EF92FF920F93CE
:1009E0001F936B017C0181E090E0A0E0B0E04C013E
:1009F0005D0104C0880C991CAA1CBB1C4A95D2F747
:100A0000B501A4014C015D0104C0880C991CAA1C0D
:100A1000BB1C2A95D2F7482959296A297B2904C089
:100A2000880F991FAA1FBB1F0A95D2F78A019B0145
:100A30000C211D212E213F210417150726073707FA
:100A400089F48C299D29AE29BF29BC01CD011F91B4
:100A50000F91FF90EF90DF90CF90BF90AF909F905D
:100A60008F90089580959095A095B0958C219D21AB
:100A7000AE21BF21EACF0F93382F262F6091850238
:100A8000709186028091870290918802042F432FF3
:100A90000E94E7040F910C94921F0E944B240E9425
:100AA000F521811102C00E9492220E9439140C94F7
:100AB000C9070C94CC07282F2F7041F0822F90E0AB
:100AC0002A3010F44D9608950697089587E290E035
:100AD000089508950E94BB1B0E9469052FEF84E3CF
:100AE0009CE0215080409040E1F700C000000C9451
:100AF00025240F931F93CF93DF93EC0161E00E94B5
:100B00001C048C01BE010E942E118823B9F1BE0184
:100B1000C8010E94E403882389F1BE01C8010E9434
:100B2000B014882359F1BE01C8010E9459158823C9
:100B300029F1BE01C8010E94AB158823F9F0BE015E
:100B4000C8010E94CE168823C9F0BE01C8010E94C8
:100B50003B10882399F08A81882339F001158CE5B0
:100B6000180751F00E3D1C4579F0CE01DF91CF9171
:100B70001F910F910C94E0030E946A0580E0DF91C1
:100B8000CF911F910F9108950E949222F7CF08955F
:100B90000C94C70581E008950C94CA05CF93C82F23
:100BA0000E94C8058C2FCF910C94CC0590E080E07A
:100BB00008950895FC01EE0FFF1FE453FD4F85914A
:100BC00094910895CF93DF930E9459130E94EE06EB
:100BD000EC01811520E5920708F041C0811530E451
:100BE000930708F0B4C0803E910518F5803C91054C
:100BF00008F09DC0883A910570F4853A910508F097
:100C00008EC081309105F9F00097E9F00497D8F48F
:100C1000D0E0C0E018C08F3B9105D0F7C85AD0E0B3
:100C2000CC0FDD1FCC5DDE4F0990D881C02DD46480
:100C30000AC08115904258F4C11581E0D80718F414
:100C4000C83ED10528F7CE01DF91CF910895C11597
:100C500090E3D90708F071C0CE019F706AC081157A
:100C600025E5920758F5811534E5930708F09EC0F5
:100C7000811542E5940750F4C11581E5D80708F4C1
:100C800069C0DC2FCC27C16FD06ADDCF982F969535
:100C900096959E0123703327C115D34508F077C080
:100CA000C1E0D0E002C0CC0FDD1F2A95E2F720E2C0
:100CB000929FC0011124C82BD92B67C0C11589E5AB
:100CC000D807A8F4C11598E5D90708F074C0C11574
:100CD00026E5D20708F09CCF8C2F0E948507C82FED
:100CE000D0E0DC2FCC27CC27DF71D062ACCFC11590
:100CF0003AE5D30708F464C0CE01905681159042BE
:100D000008F086CF8D2F8F710E94850790E0982F75
:100D1000882788279F719C012C2BE901E6CFC55AB3
:100D2000D0E0CE5ADE4FC881D0E0D0648CCF805C5A
:100D300091090E94DA05EC0186CFCE019927D3FFF5
:100D400003C0EC01D86C7FCFEC01D06C7CCFDF709E
:100D5000D06A79CFCE01E4E096958795EA95E1F7E0
:100D600083702C2F26952695237090E2299F900161
:100D70001124382B8C2F8370C1E0D0E002C0CC0F3F
:100D8000DD1F8A95E2F7C22BD32BDC685CCFC1E074
:100D9000D0E002C0CC0FDD1F2A95E2F730E2939F2E
:100DA000C0011124C82BD92BDA684DCFD82FCC27FE
:100DB000C46FD06A48CFDC2FCC27C06FD06A43CF36
:100DC0008C2F8F700E94850734E0D695C7953A9591
:100DD000E1F7CF709C2FEC01D06935CF82389105B7
:100DE000B1F1B0F48133910509F475C048F489324A
:100DF000910509F469C08A32910509F473C0089518
:100E00008533910509F459C08933910501F108959D
:100E1000833E9105A9F138F4803E9105F9F0823EB8
:100E2000910549F10895863E9105A9F1873E910506
:100E3000C9F1843E910519F520911A0321FF1FC0C5
:100E40008091190384FD14C087EE90E008952091ED
:100E500019032370A1F080EE90E00895209119030A
:100E600020FD47C030911A0330FF09C024FF44C061
:100E700090E080E004C02091190322FDF7CF08958F
:100E80002091190322FD3BC030911A0330FDE3CFBE
:100E900024FFF5CFEDCF2091190323FFF0CF24FDE0
:100EA000E7CFD2CF2091190323FD2CC030911A0334
:100EB00031FFEECF84EE90E008952091190325FFD5
:100EC000DECF89E290E008952091190325FFD7CF66
:100ED00085E390E008952091190326FFD0CF8AE2A0
:100EE00090E008952091190326FFC9CF81E390E097
:100EF000089589E390E0089583EE90E0089582EEEE
:100F000090E0089586EE90E008959091190392FF85
:100F100006C0282F28712830F9F4877F846093FF5A
:100F200006C0282F28712831F1F4877E8461209132
:100F30001A0320FF06C0382F38713830D9F4877F64
:100F4000816021FF06C0282F28712831D1F4877EC7
:100F5000816194FD877E0895282F24712430F9F64D
:100F60008B7F8860DCCF282F2471243101F78B7EA2
:100F70008861DDCF382F3171313019F78E7F88606D
:100F8000E0CF282F2171213121F78E7E8861E1CFBA
:100F900008950C94C80708950C94CB07E82FF0E04F
:100FA000EE0FFF1FE152FD4F80819181089508955A
:100FB00080EA8A95F1F70895CF93DF93A1E6B1E037
:100FC00045E651E0C1E0D0E08D91E82FE295EF7069
:100FD000F0E061A18F709E0101C0220F8A95EAF7AF
:100FE000922F9095962391A382A1822B82A34A17D8
:100FF0005B0751F7A5E5B1E041E651E0C1E0D0E083
:101000008D91E82FE295EF70F0E061A18F709E0165
:1010100001C0220F8A95EAF7922F9095962391A30B
:1010200082A1822B82A34A175B0751F71092D80244
:101030001092D7021092E0021092DF021092DA02B0
:101040001092D9021092E2021092E1021092DC0298
:101050001092DB021092E4021092E3021092DE0280
:101060001092DD021092E6021092E50284E00E94E6
:10107000C408DF91CF910C944D058F929F92AF924F
:10108000BF92CF92DF92EF92FF920F931F93CF9375
:10109000DF9381E6E82E81E0F82E07ED12E0912C37
:1010A000AA24A394B12CF70181917F01C82FC29586
:1010B000CF70D0E099A18F70650101C0CC0C8A95EA
:1010C000EAF7892F8C2989A38AA18C2C8094882106
:1010D0008AA30E94D807E5E5F1E050E040E030E067
:1010E00020E06191A62FA295AF70B0E090968C9110
:1010F00090E06F7002C0959587956A95E2F780FD44
:101100003EC0C501042E02C0880F991F0A94E2F761
:10111000282B392B4F5F5F4F4C30510511F789A1B8
:10112000882289A28AA1C82ACAA2F8018081918155
:101130002817390739F13183208381E0982A0E5F1F
:101140001F4FF5E6EF16F1E0FF0609F0ACCF292DB1
:1011500044E06FED72E087ED92E00E94C5080E94C6
:101160005905892DDF91CF911F910F91FF90EF903D
:10117000DF90CF90BF90AF909F908F90089590E0B8
:1011800080E0C6CF80E0DACF0895FF920F931F93DF
:10119000CF93DF93F82E092F162FD72FC42F22239A
:1011A00049F081E08093D2010E94DA239093D1012B
:1011B0008093D0018091D2018823A1F08091D00149
:1011C0009091D1010E94F223069760F0EF2DF02F4D
:1011D000A12FBD2F90E080E0D0E08C179D0744F058
:1011E0001092D201DF91CF911F910F91FF9008953E
:1011F000219131912D933D930196EFCFEF92FF9284
:101200000F931F93CF93DF93EB01E82FD11110C001
:10121000442321F0F0E0EA51FC4FE4916E2F7E2F41
:101220008E2FDF91CF911F910F91FF90EF90089536
:101230000D2F10E0282F30E0442329F02A513C4F95
:10124000F901249130E0F6E0CF9FC0011124EFEFC7
:10125000F0E0BF010E94992CAB018C2F90E0880F29
:10126000991FA5E5A49FB001A59F700D1124861BB1
:10127000970B982F990F980FBF01601B710B629FFE
:10128000D001639FB00D729FB00D11248B2F9D9FD5
:10129000B0011124672F7727EF01C61BD70BBE01C2
:1012A000629FE001639FD00D729FD00D11247F01DA
:1012B000E91AF108E09EB001E19E700DF09E700DFC
:1012C0001124672F7727E61BF70BE29F8001E39F2E
:1012D000100DF29F100D1124E12F722F4230510595
:1012E00099F048F44115510569F04130510581F0FC
:1012F000EB2F8D2F07C04430510569F080F0463048
:101300005105B1F76E2F8DCFE22F7B2F812FFACFB2
:10131000E22F7D2FF7CFEB2F822F712FF3CF7B2F73
:10132000822FED2FEFCF41E00C94FE080895CF936C
:10133000DF93762FE901682F842F0E949309798328
:1013400068838A83DF91CF9108958091E702982F77
:101350009E7F29F4817082608093E702089586352C
:10136000E8F381708465F8CF88E090E00C94922DCA
:10137000CF92DF92EF92FF926B017C010E94A50950
:10138000B701A60188E090E0FF90EF90DF90CF904A
:101390000C94B02D6091E7027091E8028091E9020F
:1013A0009091EA020C94B809E7EEF2E083E08083C2
:1013B00011828FEF828383831482608171818281A5
:1013C00093810C94B8098091E70280FF02C0869552
:1013D000089580E008959091EB02933018F49F5F98
:1013E0009093EB02882351F06091E7027091E8023C
:1013F0008091E9029091EA020C94B809089581E085
:101400000C94EB099091EB02992319F09150909371
:10141000EB02882351F06091E7027091E80280911D
:10142000E9029091EA020C94B809089581E00C94C5
:10143000020A8091EB0208958093EB02662351F03B
:101440006091E7027091E8028091E9029091EA02CE
:101450000C94B809089560E00C941C0A8091E8028D
:1014600008958091E90208958091EA02089570E05C
:101470000C94AB10609108018091E70280FF0AC0D4
:101480008091070123E0829FC001112484519D4F68
:101490000C94370A8091090190910A0123E0829F00
:1014A000F0011124E451FD4F891750F71182108289
:1014B00012828F5F3396F8CF9091E70290FF14C0AD
:1014C0009091090120910A0133E0939FF0011124CA
:1014D000E451FD4F921710F00C943A0A8183608317
:1014E00042839F5F3396F6CF0895CF93DF9300D06A
:1014F0000F92CDB7DEB79091E70290FF0AC09E0130
:101500002F5F3F4F0E9497094B8169818A810E941A
:101510005C0A0F900F900F90DF91CF910895CF93B9
:10152000DF93EC01EC81F0E0EF51FD4F4491E7EEE9
:10153000F2E0628181810E94750A8C818F5F8C83C9
:10154000DF91CF910895CF93DF93EC01E7EEF2E0C6
:10155000438162818C810E94750A8C818F5F8C83AC
:10156000DF91CF9108950F931F93CF93DF9300D016
:101570000F92CDB7DEB78C018091D30181110AC0E3
:101580009E012F5F3F4F4FEF6FEF0E9497098A81B7
:101590008093D301F8016481613069F08091D301B7
:1015A00040E0662361F040E0623011F44091D301E5
:1015B00080E060E004C06091D30140E080E00E94E0
:1015C0005C0AF801848190E0019663E070E00E947B
:1015D000AD2C84830F900F900F90DF91CF911F91CE
:1015E0000F910895AF92BF92CF92DF92EF92FF9248
:1015F0000F931F93CF93DF9300D00F92CDB7DEB739
:10160000182FF62E042FE22E9091E70290FF29C0AA
:10161000E92FE695AE2FB0E0AB59BE4F8C91809389
:1016200019029E7F923059F59E012F5F3F4F812F07
:101630000E9497094B8169818A810E945C0A1093FC
:10164000E802F092E9020093EA02EE2051F0609184
:10165000E7027091E8028091E9029091EA020E940B
:10166000B8090F900F900F90DF91CF911F910F91BC
:10167000FF90EF90DF90CF90BF90AF9008958230B1
:1016800019F40091EA02DBCF863019F41091E802D8
:10169000D6CF8930D9F3893191F6E9518E2F8170F7
:1016A000D82EE695F0E0EF51FC4FA590B490C12CF8
:1016B000BB2460910B01C61618F00E943A0ABFCFF6
:1016C0002C2D30E0A29EC001A39E900DB29E900DE5
:1016D000112470E00E94992C812FD11013C0860F25
:1016E00040910901420F532F511D9A01220F331FC0
:1016F000240F351F24513D4F402F6F2D0E94970915
:10170000C394D7CF861BECCFE7EEF2E09181282F70
:10171000438162818CE0890F0C94F20A81E00C9481
:10172000840BE7EEF2E09181282F4381628184EF00
:10173000890F0C94F20A81E00C94910BE7EEF2E031
:1017400062812CE0620F08F46FEF282F43818181C2
:101750000C94F20A81E00C949E0BE7EEF2E06281B9
:101760002CE0621B08F460E0282F438181810C94F7
:10177000F20A81E00C94AD0BE7EEF2E043812CE03D
:10178000420F08F44FEF282F628181810C94F20AF6
:1017900081E00C94BC0BE7EEF2E043812CE0421BAD
:1017A00008F440E0282F628181810C94F20A81E0E4
:1017B0000C94CB0B20E00C94F20AEF92FF921F9353
:1017C000CF93DF93EC0110E0EE24EA94F12C6091CA
:1017D0000B01161770F00E943A0A9A818C8190FFD3
:1017E00027C08F5F8C83DF91CF911F91FF90EF9087
:1017F000089520910901422F410F5527551FCA0115
:101800009A01220F331F280F391F24513D4F70E0DA
:10181000C7010E94AD2C962F8C814091EA02609105
:10182000E902199F800D11240E9497091F5FCFCFF5
:101830008150D8CFAF92BF92CF92DF92EF92FF92BA
:101840000F931F93CF93DF93FC0182810FEF80FFF3
:1018500001E010E04CE0A42E80910B011817C8F0B5
:101860000E943A0A8091D501013009F055C08111DA
:1018700002C080910B0181508093D501DF91CF91FF
:101880001F910F91FF90EF90DF90CF90BF90AF909E
:101890000895C0910901C12ED12CCC0DDD2DD11D93
:1018A000CE01880F991FC80FD91FC451DD4F19826F
:1018B00018821A8234E0E32EF12CB12C8091D501EC
:1018C0008B0D8D301CF16A2D0E948B2C892F082ED8
:1018D000000C990BC816D90691F48091EA028E9DEE
:1018E000A0018F9D500D112455954795559547950D
:1018F0009E016091E9028091E8020E949709B00E72
:10190000F1E0EF1AF108D1F61F5FA6CF87FFDFCF16
:1019100090910B01890FDBCF90E0019660910B0154
:1019200070E00E94AD2CA8CF0F931F93CF93DF934D
:101930008091090190910A0123E0829FF001112416
:10194000E451FD4F891740F1C0E0D3E060910B01F5
:10195000C61740F10E943A0A209105018091D401F6
:10196000820F8093D40190910601920F909306010B
:10197000191654F4082E000C990B40910B0141509C
:10198000550B841795071CF0219520930501DF91D5
:10199000CF911F910F9108951182108212828F5F53
:1019A0003396D0CF0C2F10E070E0C8010E94AD2C10
:1019B00020910901820F482F50E02091D401022E7E
:1019C000000C330B02171307BCF020910601022E06
:1019D000000C330B201731077CF08D9F90011124F0
:1019E00024513D4F4091EA026091E9028091E80262
:1019F0000E949709CF5FAACFFA01EE0FFF1FE40FF5
:101A0000F51FE451FD4F118210821282F3CF8F92A5
:101A10009F92AF92BF92CF92DF92EF92FF920F937D
:101A20001F93CF93DF93EC014C81042F10E09801BA
:101A3000D8010E94F82C9B01AC010E940E2D4B0195
:101A40005C01E0E2F0E0E01BF10BA5E5B0E0AC01E9
:101A50009B010E940E2D6B017C019F01DF010E9402
:101A6000F02C9B01AC010E94192D9B01AC01280DAB
:101A7000391D4A1D5B1DC701B6010E94C12CF22E03
:101A8000822F90E039E23F1560F143E0249F9001FE
:101A9000112435952795122F109500E085E5E82E45
:101AA000EF1880910B01081758F10E943A0A9C81A7
:101AB00081E0992319F0903219F48FEF809304019B
:101AC00080910401890F8C83DF91CF911F910F9139
:101AD000FF90EF90DF90CF90BF90AF909F908F904E
:101AE000089525E530E0B901681B790B9B01220FB1
:101AF000331F260F371F37FFCCCF2F5F3F4FC9CF84
:101B00008E2D01FD8F2D20910901622F600F772707
:101B1000771F9B01220F331F260F371F24513D4F84
:101B2000412F6091E9020E9497090F5FBACF0F938E
:101B30001F93CF93DF93EC0110E000E090910B0135
:101B40009017110609F06CF40E943A0A8C8190E01B
:101B50000196817099278C83DF91CF911F910F910E
:101B6000089520910901A801420F511D9A01220FE9
:101B7000331F240F351F24513D4F4C816091E902E2
:101B80008091E80296959017110651F04CF044238D
:101B900049F04091EA020E9497090F5F1F4FCECF94
:101BA0004423B9F340E0F7CF8F929F92AF92BF9258
:101BB000CF92DF92EF92FF920F931F93CF93DF9319
:101BC000FC01B280948081E0848300E015E05BE456
:101BD000A52E88248394EE24EA94F12C7BE4C72E6E
:101BE000D12C80910B01081770F0DF91CF911F91DC
:101BF0000F91FF90EF90DF90CF90BF90AF909F90AC
:101C00008F900C943A0AC02FD0E01C9FF0011D9FCA
:101C1000F00D1124EA52FE4F91101CC01382128263
:101C200020910901CE01820F911D9C01220F331FCB
:101C3000280F391F24513D4F1C9FF0011D9FF00DAF
:101C40001124EA52FE4F4281618180810E949709EE
:101C50000F5FC7CF2381222379F121502383348161
:101C60008A2D821B311101C0822F1C9FF0011D9F04
:101C7000F00D1124EA52FE4F9091EA02899FC001B3
:101C80001124B6010E94992C6283211104C03323D0
:101C900011F01482A38222E02B1510F21C9FF00198
:101CA0001D9FF00D1124EA52FE4F8091E8028083BF
:101CB0008091E9028183B4CF0E946D2D82309140E2
:101CC0000CF0AECF82E08B1530F50E946D2DB70180
:101CD0000E94AD2C1C9FF0011D9FF00D1124EA52B3
:101CE000FE4F808322E02B15C8F40E946D2D2091B9
:101CF000E9022695622F70E00E94AD2C280F1C9FF0
:101D0000F0011D9FF00D1124EA52FE4F2183128233
:101D1000A382848285CF8091E802DCCF2091E90202
:101D2000EECFE7EEF2E080818E7F8083608171816B
:101D3000828193810E94B80910921A022FEF80E7E6
:101D400092E0215080409040E1F700C000000C94E8
:101D50003A0AE7EEF2E080818E7F808310921A02C9
:101D60002FEF80E792E0215080409040E1F700C0E3
:101D700000000C943A0A6091E702669570E04BE02F
:101D800050E08CE091E00E947D2D892B19F481E0D8
:101D900080931A020E94DA23909313028093120216
:101DA00008959091E70290FF35C09170811128C08D
:101DB00092609093E702662351F06091E702709180
:101DC000E8028091E9029091EA020E94B8096091CC
:101DD000E702669570E04BE050E08CE091E00E94F5
:101DE0007D2D892BA1F010921A0281E080931502BB
:101DF0004091EA026091E9028091E8020C94DA0BCA
:101E00008B3210F09465D5CF880F982BD2CF0E94DB
:101E1000BB0EEBCF0895682F9091E702969581E075
:101E2000890F8B3208F081E00C94D10E81E00C9484
:101E30000B0F682F9091E70296958FEF890F09F4A9
:101E40008AE20C94D10E81E00C94190F61E00C949D
:101E5000D10EE7EEF2E080818160808386950C945C
:101E6000260F8091E70280FD0C94910E0C94290FAF
:101E700060E00C94D10E8091180281112EC00E9456
:101E8000F521811104C00E9492220E94D4090E946F
:101E9000B4096093E7027093E8028093E90290939B
:101EA000EA026E7F61F40E94D4090E94B409609333
:101EB000E7027093E8028093E9029093EA020E949D
:101EC000A50910921A028091E70280FF03C086954F
:101ED0000E94380F81E0809318020895E7EEF2E047
:101EE00080818160808386950C94380F0F931F93B7
:101EF000CF93DF9380911A02882309F49DC08091CB
:101F00001902E091E702E695E81BE09314028230A3
:101F1000C9F5F0E0E352FD4FE491CE2FD0E00FE899
:101F20001AE080911502882389F0109215020E9410
:101F3000DA239E0120953095820F931F9093130210
:101F400080931202109217021092160280911202D0
:101F5000909113020E94F2238C179D0708F46CC025
:101F6000E0911202F0911302CE0FDF1FD093130203
:101F7000C093120282E192E0F801DF91CF911F91AC
:101F80000F910994863049F4F0E0E652FD4FE49158
:101F9000CE2FD0E003EA1AE0C4CF893051F4E695A1
:101FA000F0E0E952FD4FE491CE2FD0E00DED1BE0C3
:101FB000B8CF8F3051F4E695F0E0EC52FD4FE4914C
:101FC000CE2FD0E00AE11CE0ACCF853149F4F0E03F
:101FD000EF52FD4FE491CE2FD0E004E91CE0A1CFF9
:101FE000C8E2D0E007E01DE0883109F49ACF8332DF
:101FF00039F4EFECF2E0C591D49103EB1AE091CF04
:10200000C4EFD1E007E91DE0843209F48ACFC0EDC6
:10201000D7E006E919E0853209F083CF8E2F63E01F
:102020000E947F2CE92FF0E0E453FD4FE491CE2F86
:10203000D0E004ED1DE075CFDF91CF911F910F919E
:102040000895FA01811101C0FB010994CF93DF9338
:10205000C82FD62F0E94E3098C1740F00E94E30995
:102060008D1720F4DF91CF910C94160F8C2FDF91F8
:10207000CF910C94260F0F931F93CF938C01FB01EC
:10208000C281CC2309F465C00E943D218272F8010F
:10209000E25CFC45E431F10538F4ED50F24D0C946E
:1020A000E32C0E94310FC0E08C2FCF911F910F9134
:1020B000089543E25FE066E17FE00E942110F3CFE4
:1020C00046E15FE063E27FE0F8CF4BE95BE06EE87A
:1020D0007BE0F3CF4EE85BE06BE97BE0EECF49EBD2
:1020E0005BE06AEA7BE0E9CF4AEA5BE069EB7BE030
:1020F000E4CF47ED5BE068EC7BE0DFCF48EC5BE0F2
:1021000067ED7BE0DACF46E15AE06FEF79E0D5CFBB
:102110004FEF59E066E17AE0D0CF81E00E94260FD0
:10212000C2CF65E082E00E942610BDCF68E086E065
:10213000FACF6EE089E0F7CF64E18FE0F4CF67E19A
:1021400085E1F1CF88E1EACF62E289E1ECCF83E279
:10215000E5CFC1E0A9CF549A4BB14F7E5BB150613E
:10216000EFB7F8949B01220F331F260F371F280F5C
:10217000391F2817390741F4EFBF8FE594E0019725
:10218000F1F700C000000895DC016D91CD0178E009
:102190005BB9000000C067FF4BB9660F000000C0CC
:1021A00000C000C04BB900C07A9591F7E2CF82E23F
:1021B00090E00E948A2D813289F483E290E00E94AF
:1021C0008A2D863059F484E290E00E948A2D91E0B5
:1021D000883109F090E0892F8170089580E0FCCF6C
:1021E000CF93C82F6FEF811161E282E290E00E94ED
:1021F0009E2D6FEFC11166E083E290E00E949E2D5C
:102200006FEFC11168E184E290E0CF910C949E2DB4
:1022100080E00E94F0100C94EF21089585E290E098
:102220000E948A2D682F70E090E080E0089585E29A
:1022300090E00C949E2D0E940D110E94D7108111E8
:102240000CC060E070E0CB010E9417110E94D11217
:102250000E94BD1381E00C94F0100895CF93FB0110
:10226000C281CC2309F19C0122513F452031310527
:1022700020F582510E94CD13C0E08C2FCF9108959C
:1022800081E00E94B81F43E062E081E00E943B05CC
:10229000F3CF81E00E94D91F43E062E081E00E9419
:1022A0003B05EBCF82E0F6CF8031FFE59F0789F356
:1022B00081319F45B9F3C1E0E0CF8031EFE59E0762
:1022C000F9F281319F45C9F682E0DBCF2FEFFC01A7
:1022D00020830895CF93DF93EC0188818138A9F0A2
:1022E00028F4803871F0DF91CF910895823881F021
:1022F0008338C9F70E942E0A89830E94310A8A8393
:10230000F2CF0E94340A8983EECF0E94E309FBCF0B
:102310000E94190AF8CFCF93DF93EC0188818138AE
:10232000E1F028F4803869F0DF91CF910895823888
:1023300011F18338C9F70E94340A482F6A818981D4
:1023400008C0D9810E94310AC82F0E942E0A4D2F41
:102350006C2FDF91CF910C94DA0B89810E94380F9A
:102360008981811104C0DF91CF910C94A90EDF9176
:10237000CF910C946E0F8981DF91CF910C942B0A31
:10238000EF92FF920F931F93CF93DF93EC01062FF1
:10239000DC01ED91CD01E150E33108F0BFC0F0E088
:1023A000E95FF14D0C94E32C198289E08A83602F58
:1023B000CE01DF91CF911F910F91FF90EF900C9480
:1023C000B2258981823069F0833071F08130D9F48F
:1023D0000E94E6230E94E92C6A837B838C839D8381
:1023E000E6CF0E940E11F6CF7E0110E0812F0E94F1
:1023F000CE07F701928383831F5FF2E0EF0EF11C9B
:102400001430A1F7D4CF602FCE010E946611CFCF38
:1024100089818230C1F76A817B818C819D810E9494
:10242000E92C0E941711C3CF4B816A8189810E94D8
:10243000A3129827892798279D838C83B8CF2C8156
:102440003D813227232732274B816A8189810E946F
:10245000BC12ADCF0E94D112AACF0E948B11A7CF80
:102460000E946A11A4CF0E94CA09A1CF0E946613DC
:1024700089839DCF0E9468139827892798279A837C
:10248000898395CF6B8170E089819A81AE014C5F21
:102490005F4F9827892798270E946B1388CF6B81FD
:1024A00070E089819A81AE014C5F5F4F9827892740
:1024B00098270E9492137BCF0E94BD1378CF0E9471
:1024C0009112D6CF6B8170E089819A81AE014C5F09
:1024D0005F4F9827892798270E94091368CF6B813F
:1024E00070E089819A81AE014C5F5F4F9827892700
:1024F00098270E942F135BCF0E94081158CFCE015E
:102500000E94B2252FEF81EE94E021508040904050
:10251000E1F700C000000E94252449CF8FEF888397
:1025200046CF84E0089550E0440F551F98E1699F1D
:10253000400D511D112490E6899F400D511D11241D
:10254000CA01869608950F931F93CF93DF930E943D
:1025500093128C010E948A2DC82FD0E0DC2FCC274B
:10256000C80101960E948A2D9E01282BC901DF9186
:10257000CF911F910F9108950F931F93CF93DF93E6
:10258000122F032F0E949312EC01602F0E949E2DA8
:10259000612FCE010196DF91CF911F910F910C9485
:1025A0009E2DAF92BF92CF92DF92EF92FF921F9338
:1025B000CF93DF938CEAC82E80E0D82ED0E076014E
:1025C000C0E014C0F50125913491412F6C2F8D2F5F
:1025D0000E94BC1282E0A80EB11C1F5F1C3091F754
:1025E00088E1E80EF11CCF5FC43019F0570110E00C
:1025F000E9CFDF5F80E6C80ED11CD43001F7DF9150
:10260000CF911F91FF90EF90DF90CF90BF90AF9050
:102610000895EF92FF920F931F93CF93DF93EC01F6
:102620008A017C01E60EF71ECE018696CE15DF05E7
:1026300039F4DF91CF911F910F91FF90EF900895A2
:10264000C03821E0D20740F40E948A2DF80180832F
:102650000F5F1F4F2196E8CFF8011082F9CFCF927C
:10266000DF92EF92FF920F931F93CF93DF937C0142
:102670006A018C01060F171FEC01CE018696C01768
:10268000D10749F4DF91CF911F910F91FF90EF9007
:10269000DF90CF900895C03821E0D20740F4FE01CA
:1026A000EE19FF09EC0DFD1D60810E949E2D219603
:1026B000E4CF462F843038F4743028F46C3018F4AA
:1026C000672F0C94A31290E080E0089580E10895B4
:1026D0008AE592E00895EF92FF920F931F93CF93B4
:1026E000DF93EC018A017C01E60EF71ECE018A55CC
:1026F0009E4FCE15DF0539F4DF91CF911F910F91D9
:10270000FF90EF900895CA3522E0D20740F40E946E
:102710008A2DF80180830F5F1F4F2196E7CFF801C4
:102720001082F9CFCF92DF92EF92FF920F931F9317
:10273000CF93DF937C016A018C01060F171FEC0118
:10274000CE018A559E4FC017D10749F4DF91CF9132
:102750001F910F91FF90EF90DF90CF900895CA35B1
:1027600022E0D20740F4FE01EE19FF09EC0DFD1D39
:1027700060810E949E2D2196E3CFCF93DF93C6EA1E
:10278000D1E060E0CE010E949E2D2196C11584E02B
:10279000D807B9F7DF91CF910895DF92EF92FF92BA
:1027A0000F931F93CF93DF9300D000D0CDB7DEB748
:1027B000F82E8FE08F1540F08FEF93E00E948A2D66
:1027C00006EA11E08823C1F00F900F900F900F9050
:1027D000DF91CF911F910F91FF90EF90DF900895BF
:1027E000011584E0180781F3C8010E948A2D811128
:1027F00001C0FA940F5F1F4FF110F2CF19821A82B5
:102800001B821C82DD24D39478018FEFE81AF80A2A
:10281000C8010E948A2D89831A828823A9F29FEF1A
:10282000980F933078F48A83D9820E5F1F4FC701C7
:102830000E948A2D8B83882339F2CE0101960E9453
:10284000E404E2CF8701F9CFCF93DF93EC0197FF48
:102850000CC0FB018281882341F00E944F14CE01FD
:102860009F770E9493140E947B1481E0DF91CF91A7
:1028700008958CE090E00E948A2D90E0B0E0A0E006
:102880008093100390931103A0931203B09313034A
:102890000895609110038CE090E00C949E2D0E94AE
:1028A0003D21809314030E945021809110038130B8
:1028B00089F0882359F0823091F08430B9F08FE3A9
:1028C0009CE90197F1F700C00000089582EE0E9494
:1028D0004F18F5CF88E193E00E94D603F0CF82EE47
:1028E0000E944F1887E50E942D19E9CF86EE0E94BD
:1028F0002D1988E1F8CF80911003813071F0882381
:1029000041F0823031F0843061F0809114030C94F6
:102910004D2182EE0E94DE18F8CF8CE20E942D1924
:10292000F4CF88E2FBCF0F931F93CF93DF938C01FB
:10293000CCE0D0E0C8010C2E02C0969587950A9491
:10294000E2F78F700E945B050E94D6032497CC3F6C
:102950008FEFD80779F7DF91CF911F910F910895ED
:102960000F931F93CF93DF93EC018B01FB018281C7
:10297000882361F00E943D21CE01815E9C45853017
:10298000910520F4809310030E944914B801CE01F0
:10299000DF91CF911F910F910C942414AF92BF92AD
:1029A000CF92DF92EF92FF920F931F93CF93DF931B
:1029B0007C015B01C42FD22FFC0182818823F9F0B6
:1029C00040931D020E94DA2390931C0280931B0205
:1029D00080E28C0F883008F061C0C77081E001C0D0
:1029E000880FCA95EAF7DF91CF911F910F91FF9061
:1029F000EF90DF90CF90BF90AF900C944019109162
:102A00001D02141340C080911B0290911C020E9471
:102A1000F2236C01B701C5010E94311EC816D90608
:102A200090F5C0E2CD0F1D17B9F080E2810F88301C
:102A300040F4177081E001C0880F1A95EAF70E94F0
:102A40004719C83048F481E09D2F977001C0880F66
:102A50009A95EAF70E944019802F0E942D19C830DC
:102A6000E8F4D77081E001C0880FDA95EAF7DF91CA
:102A7000CF911F910F91FF90EF90DF90CF90BF907B
:102A8000AF900C94471980E28C0F883038F4C770EF
:102A900081E001C0880FCA95EAF7E9CFDF91CF91B5
:102AA0001F910F91FF90EF90DF90CF90BF90AF906C
:102AB00008950F939C01CB01233F4CE5340759F156
:102AC000A8F4283DFCE53F0701F1293D4CE534071A
:102AD000D1F1273D3C4591F406E221EE41EE67ED50
:102AE0007CE50E94CE1480E00F910895253FFCE51F
:102AF0003F07E9F0B0F0263F3C45F9F0FC01828148
:102B0000882339F110921D02EFCF07E225EE45EE42
:102B100068ED7CE5E6CF06E221EE40EE63EF7CE572
:102B2000E0CF07E225EE44EE64EF7CE5DACF06E283
:102B300021EE42EE65EF7CE5D4CF07E225EE46EECE
:102B400066EF7CE5CECF08E221E045EE69ED7CE55D
:102B5000C8CF81E0C9CFCF93DF93EC01FB01828125
:102B6000882309F419C1C230FCE5DF07C0F1C63182
:102B70009CE5D90730F09E012A5F3C45293031059C
:102B800070F50E94082290931A0380931903C031B4
:102B9000ECE5DE0709F4CFC008F05BC0C8308CE577
:102BA000D80709F4B6C088F5C430ECE5DE0709F4AF
:102BB000A8C0C0F4C2308CE5D80709F49CC080914D
:102BC00019038260C330DC4509F498C08091190371
:102BD00090911A030E9416220E94BB1B80E0DF9195
:102BE000CF910895809119038061C630ECE5DE072E
:102BF00009F484C0809119038860C730DC4508F46B
:102C00007DC080911903806279C0CC308CE5D807F3
:102C100009F489C070F4809119038C60CA30ECE526
:102C2000DE0709F46BC008F478C0809119038E7F29
:102C300065C0CE308CE5D80709F479C080911903BE
:102C40008B7FCF30DC4508F459C0809119038F7E0B
:102C500055C0CB3FECE5DE0709F457C030F5C33172
:102C60008CE5D80709F46FC078F4C131ECE5DE07D4
:102C700009F465C0C231DC4509F0A8CF0E94BB1B36
:102C8000809119038F773AC0C5318CE5D80709F4D4
:102C900062C008F476C080911A038160CA3FDC45A7
:102CA00009F094CF80931A0391CFCF3FFCE5DF0763
:102CB00009F44DC088F480911A038D7FCD3F9CE5C7
:102CC000D90781F380911A038E7FCE3FDC4550F304
:102CD00080911A038360E6CFC130FDE5DF0709F478
:102CE00059C008F444C080E0C230DD4509F06ECF21
:102CF0000E9494226BCF8091190381608093190305
:102D000065CF809119038460F9CF80911A038260A6
:102D1000C9CF809119038064F1CF0E94BB1B8091C1
:102D200019038068EBCF809119038D7FE7CF8091E5
:102D30001903877FE3CF809119038F7DDFCF8091C7
:102D400019038F7BDBCF80911903837FD7CF8091CD
:102D50001A038C7FA7CF8091190382FB992790F9E2
:102D600021E0922790FB82F990FB83F9C7CF8091F5
:102D70001A03982F909591708E7F892B90FB81F983
:102D800091CF0E94BB1B90911903892F97FB87F964
:102D90008058B4CF81E0ACCF81E021CFCF93DF93D7
:102DA000EB0186319C4511F50E943D219A819923C2
:102DB00099F08A7A91E009F490E090931E028111D3
:102DC00009C089E20E9418210E948C2180E0DF91D5
:102DD000CF91089585E3F6CF80911E02811104C042
:102DE00089E20E941F21F0CF85E3FBCF81E0EFCF86
:102DF00090932402809323020895E0912302F0919E
:102E00002402309721F00190F081E02D099480E0B8
:102E10000895E0912302F0912402309799F02091D7
:102E20002301222359F02091190327FF07C0DC0159
:102E30002C9111962C93119725E02C930280F3810D
:102E4000E02D099408952091210230912202281743
:102E5000390771F09093220280932102E0912302BE
:102E6000F0912402309721F00680F781E02D09943B
:102E7000089520911F02309120022817390771F020
:102E80009093200280931F02E0912302F09124028C
:102E9000309721F00084F185E02D0994089585B7DD
:102EA000806885BF85B7806885BF089508950895B7
:102EB0000C94561708950C945A170E944F170E94AD
:102EC00057170C94581781E008950C9463170E94CB
:102ED000D1230E94DC070E941B110E945F240E94E4
:102EE0003B0F0C945B179F92AF92BF92CF92DF92F1
:102EF000EF92FF920F931F93CF93DF93CDB7DEB77F
:102F00002A970FB6F894DEBF0FBECDBF0E943D08D2
:102F10000E946517882309F470C056E2A52E52E07E
:102F2000B52E10E000E0902E802F0E94CE076C019D
:102F3000F501E190F1905F01E816F90609F457C038
:102F40008091B20281FD0E94D70797012C253D2573
:102F500080E0EE24E394F12CA9014E215F21452B62
:102F600009F43FC08E839F82CE20DF2081E0CD28F0
:102F700009F480E088870E94DA238160782F9A879D
:102F800089874E815F8168858A850E942018000F9D
:102F9000111FF801EA5DFD4F80819181E826F92635
:102FA000F182E0820E94760F0E94FD169091250228
:102FB0008917A1F10E94FD16809325022A960FB66B
:102FC000F894DEBF0FBECDBFDF91CF911F910F915F
:102FD000FF90EF90DF90CF90BF90AF909F900C94B8
:102FE000CE058F5FEE0CFF1C8C3009F0B5CF0F5F64
:102FF0001F4F0430110509F096CF8FEF89838A8324
:103000001B820E94DA238160782F9D838C83498103
:103010005A816B818D810E942018C4CF2A960FB6E9
:10302000F894DEBF0FBECDBFDF91CF911F910F91FE
:10303000FF90EF90DF90CF90BF90AF909F9008955A
:10304000CF93DF93CDB7DEB72B970FB6F894DEBFE3
:103050000FBECDBF4F83588769877A878B871E82C3
:103060001D8285E0FE013796DE01119601900D92DA
:103070008A95E1F749815A816B817C818D819E819E
:103080002B960FB6F894DEBF0FBECDBFDF91CF9168
:103090000C94341EFC01808191810C94EA20CF9322
:1030A000C82F882309F488C08238C1F40E94FD1615
:1030B00081FD82C089E30E9418210E948C212FEF9C
:1030C00081EE94E0215080409040E1F700C0000084
:1030D00089E30E941F21CF910C948C218338A1F4A5
:1030E0000E94FD1680FD68C083E50E9418210E94A1
:1030F0008C212FEF81EE94E0215080409040E1F749
:1031000000C0000083E5E5CF8438A1F40E94FD16DD
:1031100082FD52C087E40E9418210E948C212FEF6B
:1031200081EE94E0215080409040E1F700C0000023
:1031300087E4CFCF8CEF8C0F813AB8F48C2F0E94AC
:10314000FD24811139C06C2F8091170190911801D5
:103150000E94AD22882329F08C2F0E941F210E94FB
:103160008C218C2F0E941821B6CF80E28C0F8830E2
:1031700048F4C77081E001C0880FCA95EAF70E9441
:103180004021A9CFEBE5EC0FE33040F4F0E0E2544E
:10319000FE4F808190E0CF910C942317C85AC7311D
:1031A00058F4EC2FF0E0EE0FFF1FE057FE4F808148
:1031B0009181CF910C943917CF910895882309F408
:1031C0004BC0823871F40E94FD1681FF45C089E32F
:1031D0000E9418210E948C2189E30E941F210C94D7
:1031E0008C21833859F40E94FD1680FF35C083E599
:1031F0000E9418210E948C2183E5EFCF843859F476
:103200000E94FD1682FF28C087E40E9418210E94B8
:103210008C2187E4E2CF9CEF980F913AF0F290E294
:10322000980F983050F4877091E001C0990F8A95FB
:10323000EAF7892F0E944621D2CF9BE5980F933061
:1032400020F490E080E00C942317885A873120F412
:1032500090E080E00C9439170895CF93C82F0E9416
:103260004F18C93349F42FEF87EE93E02150804087
:103270009040E1F700C000008C2FCF910C94DE1835
:10328000882321F00E9440210C948C2108958823EA
:1032900021F00E9446210C948C210895BF92CF9278
:1032A000DF92EF92FF920F931F93CF93DF936C0106
:1032B000D62FC72FFC01058102950F7012811111C5
:1032C0000E9460210E943621E82E882391F011236C
:1032D000D1F08C2F807F803421F080E28D0F8830F8
:1032E00090F082E00E94D7210E94362191E0E82EE2
:1032F000E926BC2EB2949FE0B922EB2DF0E0E65E09
:10330000F14D0C94E32CE12CF4CF0C2F0F70C07F07
:1033100011F00295007F1123A9F0002359F080E2FB
:103320008D0F883010F0D11109C0802F0E944021EC
:103330000E948C218D2F0E944F1814C0802F0E9454
:103340005321F6CF8D2F0E94DE18002359F080E222
:103350008D0F883010F0D1112CC0802F0E94462193
:103360000E948C212B2D2850330B2430310520F462
:103370000E94FD160E94CE05EE2009F493C10E9422
:10338000322180FD8FC1F60112820E942C210E9401
:10339000B81FC6010E94731B0E942C21DF91CF91A0
:1033A0001F910F91FF90EF90DF90CF90BF900C9402
:1033B000D91F802F0E945921D3CFFC2FFF70FF2EE1
:1033C000C07FC03219F0F29480EFF822DD2369F05B
:1033D000D13049F1112391F1002351F1F60185819A
:1033E00080FFA8CF8F70858323C0112381F0011146
:1033F00006C00E9473218F290E944019B3CF01306B
:10340000C1F70E9473218F290E947921ABCF01114E
:1034100006C00E9482218F2D0E944719A3CF013040
:1034200009F4A0CFF6CF112329F0063008F09ACF87
:103430008F2DE2CF053008F095CFEDCF002359F363
:10344000D93349F4FFEF27EE33E0F150204030400C
:10345000E1F700C000008D2F0E94DE1883CF8C2F73
:1034600086958695837069F0813009F07BCF8D2F2A
:103470009C2F9370111102C090E080E00E943917D8
:1034800071CF8D2F9C2F9370111102C090E080E0BE
:103490000E94231767CF8C2F837009F041C0111150
:1034A00061CF4D2F429546954770440F440F0D2F25
:1034B0000F7010E030E020E0042E04C0000F111F58
:1034C000221F331F0A94D2F760E070E0CB01D4FFD3
:1034D0000FC06FE070E080E090E004C0660F771FDF
:1034E000881F991F4A95D2F76095709580959095A1
:1034F000C695C695C370602B712B822B932BC2305F
:1035000049F058F4C13019F00E946A1F2BCF0E9475
:10351000581F28CF0E947C1F25CF0E94561F22CF04
:103520008695112311F08C2F8170882309F41ACF0E
:103530004D2F429546954770440F440F0D2F0F7045
:1035400010E030E020E0042E04C0000F111F221F05
:10355000331F0A94D2F760E070E0CB01D4FF0FC0B4
:103560006FE070E080E090E004C0660F771F881F76
:10357000991F4A95D2F76095709580959095C6955C
:10358000C695C370602B712B822B932BC23049F0F0
:1035900058F4C13019F00E942F20E4CE0E941D2063
:1035A000E1CE0E944120DECE0E94921FDBCECF7082
:1035B000112329F08C2F0E94B81F8D2F1DCF8D2F26
:1035C0000E9447198C2F0E94D91FCCCED23F89F17F
:1035D00060F4D03FC9F0D13F29F1112309F442C072
:1035E0000111A8CE8C2F8F7121C0D33F39F1D43F68
:1035F000A1F7112369F1CF718C2F0E94B81F63E0EE
:103600008C2F0E94C221AECE112341F0053008F06C
:10361000A9CE8C2F8F710E94FC1FA4CE063008F01B
:10362000A1CEF7CF8C2F8F71112369F20E94B81FA2
:1036300099CE8C2F8F711123C9F3C5CF112329F097
:103640008C2F8F710E94A31F8DCE0E949E1F8ACE49
:1036500081E00E94D721023008F484CE82E00E94EB
:10366000D72180CE002359F0D93309F0F4CE8FEF63
:1036700097EEE3E081509040E040E1F7EACE8C2FF6
:103680008F71A1CF4C2F4F706D2FC6010E94D605B0
:103690000E94CE1E67CE4C2F4F706D2FC6010E9428
:1036A000D90560CEDF91CF911F910F91FF90EF90E0
:1036B000DF90CF90BF9008950F931F93CF93DF9328
:1036C000EC01688179818A810E94F4208C010E943A
:1036D00053200E94551FB801CE01DF91CF911F9159
:1036E0000F910C944E19CF93DF93EC018B819C8149
:1036F000892B29F08881998189238F3F59F4DF91A3
:10370000CF910895CE010E945C1BCE01DF91CF9135
:103710000C942504CE010E9479058111F3CF0E94FB
:103720003621882361F38A81882349F382E0DF917F
:10373000CF910C94D721882321F00E9453210C941F
:103740008C210895882321F00E9459210C948C210A
:1037500008950E9460210E9470210E948C2190E0B7
:1037600080E00E94231790E080E00C9439170E94BB
:1037700026210C94A91B0E9450210C94B71BE92F01
:10378000E295EF70E250EE3070F4F0E0E65DF14D5E
:103790000C94E32C803F19F020F4883E20F481E063
:1037A0000895843FE1F380E00895883EC0F3813FAF
:1037B000D1F7F5CF93FB882780F908950E94EA207E
:1037C0000C94BF1BCF93DF9300D000D00F92CDB7E6
:1037D000DEB70F900F900F900F900F90DF91CF9169
:1037E0000895CF93DF9300D000D000D0CDB7DEB7DF
:1037F00026960FB6F894DEBF0FBECDBFDF91CF91F6
:1038000008951F93CF93DF93C0912F0216E080910C
:1038100030028C1304C0DF91CF911F910895D0E046
:103820001C9FF0011D9FF00D1124EF5CFD4F4081A6
:10383000518162817381848195810E94F11B21965F
:10384000C770E5CF409161025091620260916302BE
:103850007091640280916502909166020C94F11B54
:103860001F93CF93DF9380916602807FA9F48091AC
:103870006302882389F080912F02C0913002609109
:10388000610270916202A0916402B0916502D62F2C
:10389000D72316E0C81304C0DF91CF911F9108957C
:1038A00090E0109711F0DF3F19F401968770F2CF86
:1038B000189F9001199F300D1124F901EF5CFD4F05
:1038C00041814713F2CF40814613EFCF428141112E
:1038D000ECCF438154814A1B5B0B483C510528F7D0
:1038E000809166028F70806180936602F901EA5CC4
:1038F000FD4F80818F708061808381E692E00E941D
:10390000731BDF91CF911F910C94011CAF92BF925A
:10391000CF92DF92EF92FF920F931F93CF93DF939B
:10392000CDB7DEB761970FB6F894DEBF0FBECDBF3F
:103930008C0185E0F801DE011D9601900D928A95BB
:10394000E1F7F80140815181E28081E6C82E82E0F2
:10395000D82E60916402709165026115710509F4B9
:1039600061C19091610220916202892F82238F3F71
:1039700009F458C1A380B480F0906302F501E61BFE
:10398000F70BFF2009F4FCC080916602382F307FCE
:10399000E83CF10508F0B2C0311179C0FE2C2513C6
:1039A00023C0941321C0E1101FC08F7080618093E9
:1039B00066020E94221CC6010E94731B809166024F
:1039C000F80185838F2D61960FB6F894DEBF0FBE88
:1039D000CDBFDF91CF911F910F91FF90EF90DF90BE
:1039E000CF90BF90AF900895AB2829F0842F852306
:1039F0008F3F09F033C180E0F82FF170DF2E80FF98
:103A00003CC080912F022091300236E0821315C015
:103A10004D875E878D859E850E94EA20292F2295FD
:103A20002F702230F0F0243018F59F70F1F0F8017B
:103A30009581907FD1F4D12C1EC090E0389FF00189
:103A4000399FF00D1124EF5CFD4F6181651306C0B5
:103A50006081641303C062816E110FC0019687708C
:103A6000D5CF9F7011F0882331F3805E883018F332
:103A7000C8010E94731BFD2CA5CFEE2009F4A2CF34
:103A800080916602816080936602F12C9BCF2513A2
:103A900006C0941304C0F801EE2009F48DC04D87D0
:103AA0005E878D859E850E94DE1B882319F1EE209E
:103AB00009F180916602803270F0209161023091AC
:103AC000620238872F831986BB86AA868C87CE012F
:103AD00007960E94731B86E0F801A1E6B2E0019010
:103AE0000D928A95E1F70E94301C0E94221CFF244F
:103AF000F39468CFC8010E94731BF9CF311113C032
:103B00007A2DB98AA88A6E2D89890E94E21B81E6E6
:103B100092E00E94731B86E0F60111928A95E9F704
:103B20000E94221CB2CF25130FC094130DC0E110C8
:103B30000BC0F8018583C8010E94731B86E0F60163
:103B400011928A95E9F73ECF4D875E878D859E85D8
:103B50000E94DE1B882371F2EE2061F280916602E2
:103B6000803208F4B8CF20916102309162023A832A
:103B700029831B82BD82AC828E83CE010196A9CFA0
:103B8000E83CF10508F041C0FE2CEE2009F4B2CF6C
:103B900025132AC0941328C08091660280FD1BC0A3
:103BA000982F907FC1F0F8018583903F31F0982FD6
:103BB000907F905F8F70892B8583C8010E94731B53
:103BC00086E0F801A1E6B2E001900D928A95E1F756
:103BD0000E94221CF7CE86E0F801A1E6B2E0019037
:103BE0000D928A95E1F7EECE4D875E878D859E8595
:103BF0000E94DE1B81116FCF8091660281608093ED
:103C00006602C8010E94731BDDCE7A2DB98AA88A8C
:103C10006E2D89890E94E21B86E0F60111928A9539
:103C2000E9F7D6CFEE2009F465CF4D875E878D8505
:103C30009E850E94DE1BF82E882309F45BCF86E068
:103C4000F801A1E6B2E001900D928A95E1F781E6D4
:103C500092E00E944A180E94301CBACF81E08E2563
:103C6000CBCE88EC90E008951F93CF93DF93CDB730
:103C7000DEB72C970FB6F894DEBF0FBECDBF4F83D3
:103C8000588769877A878B879C87CE0107960E9421
:103C9000861C882369F08A859B85892B39F04F81A2
:103CA0005885842F85238F3F09F071C016E05FC0CF
:103CB00086E0FE013796DE01119601900D928A95FD
:103CC000E1F78A859B85892B89F38F8198858923E4
:103CD0008F3F61F32091300230E0C9010196877077
:103CE000992740912F024817190671F40E94BB1BB7
:103CF0001092300210922F0286E0E1E6F2E0DF013E
:103D00001D928A95E9F7D2CF96E0929FD001939FBA
:103D1000B00D1124AF5CBD4FFE01319601900D92A4
:103D20009A95E1F7809330020E94011CBFCF819FDA
:103D3000C00111248F5C9D4F0E94861C8823E9F0EE
:103D4000E0912F021E9FF0011124EF5CFD4F408196
:103D5000518162817381848195810E94F11B8091E0
:103D60002F0290E001968770992780932F0280910F
:103D70002F02909130028913DACF2C960FB6F89467
:103D8000DEBF0FBECDBFDF91CF911F910895698532
:103D90007A858B859C850E94F11B88CFEF92FF92DC
:103DA0000F931F93CF93DF938C01892B81F0F12C1C
:103DB000EE24E394E8012196F8018491843770F4AD
:103DC000843008F05FC08130B1F08230A1F1DF9122
:103DD000CF911F910F91FF90EF900895853709F4CF
:103DE0004CC008F43DC09CE7980F903780F78F7760
:103DF0000E94DE1849C00E5F1F4FFE01849190E2C1
:103E0000980F983060F48770FE2D01C0FF0F8A95DF
:103E1000EAF78F2F0E9463210E948C2102C00E942A
:103E20004F188F2D815030F2EFE9FFE03197F1F715
:103E300000C00000F7CF0E5F1F4FFE01849190E29B
:103E4000980F983050F48770FE2D01C0FF0F8A95AF
:103E5000EAF78F2F0E946921DFCF0E94DE18E1CFA1
:103E60000E5F1F4FFE01C491C150D8F28FE99FE051
:103E70000197F1F700C00000F7CF0E5F1F4FFE0162
:103E8000F490CFCF0E944F188E01CBCF08950C94A1
:103E9000461F0E94471F6093890270938A02809395
:103EA0008B0290938C020C94A91B08950C94491FCB
:103EB0000F931F930091890210918A0220918B0227
:103EC00030918C02602B712B822B932B1F910F91C1
:103ED0000C94491F0F931F930091890210918A023D
:103EE00020918B0230918C026023712382239323D3
:103EF0001F910F910C94491F0F931F9300918902FA
:103F000010918A0220918B0230918C0260277127D8
:103F1000822793271F910F910C94491F0C94461FE1
:103F20000C948E1F0E94901F6093850270938602EE
:103F300080938702909388020C94A91B60E070E044
:103F4000CB010C94921F0F931F9341E050E060E06F
:103F500070E08A019B0104C0000F111F221F331F54
:103F60008A95D2F7C901B8011F910F910C94921F45
:103F70000F931F9341E050E060E070E004C0440FF5
:103F8000551F661F771F8A95D2F780918502909101
:103F90008602A0918702B09188028A019B01082BBA
:103FA000192B2A2B3B2BC901B8011F910F910C949F
:103FB000921F0F931F9341E050E060E070E004C057
:103FC000440F551F661F771F8A95D2F7CB01BA01A0
:103FD000609570958095909500918502109186026C
:103FE00020918702309188026023712382239323DA
:103FF0001F910F910C94921F0F931F9341E050E07B
:1040000060E070E004C0440F551F661F771F8A955B
:10401000D2F78091850290918602A0918702B0919B
:1040200088028A019B01082719272A273B27C901F3
:10403000B8011F910F910C94921F0F931F93009141
:104040008502109186022091870230918802602BB0
:10405000712B822B932B1F910F910C94921F0F9316
:104060001F93009185021091860220918702309162
:10407000880260237123822393231F910F910C9454
:10408000921F0F931F930091850210918602209139
:1040900087023091880260277127822793271F911A
:1040A0000F910C94921F08952CE0929F800D112483
:1040B000982F977041E001C0440F9A95EAF78695D2
:1040C0008695869595E0899FF0011124E959FD4F69
:1040D00090E080E070E05191DF0111979B01082E84
:1040E00002C0369527950A94E2F72170219525277D
:1040F000242325272C9301968530910561F7089597
:104100002CE0929F800D1124982F977086958695AC
:10411000869525E0829FF0011124E959FD4F50E07A
:1041200040E080E0219130E0092E02C036952795CD
:104130000A94E2F721703327042E01C0220F0A945B
:10414000EAF7822B4F5F5F4F4530510559F70895CD
:10415000BF92CF92DF92EF92FF920F931F93CF9374
:10416000DF938C01C0908502D0908602E090870298
:10417000F09088028091890290918A02A0918B022E
:10418000B0918C02C82AD92AEA2AFB2ACFE1D0E0D2
:10419000BC2ED701C6010C2E04C0B695A7959795E5
:1041A00087950A94D2F780FD0EC0219788F7B12C2D
:1041B0008B2DDF91CF911F910F91FF90EF90DF90AA
:1041C000CF90BF900895B8018C2F0E94E20501970F
:1041D00061F3EECFCF93DF93EC010E94A820BE01E4
:1041E000DF91CF910C94E2051F93CF93DF93EB0106
:1041F00090912E02992331F0CB01DF91CF911F9145
:104200000C94EA20882379F0CB010E94A820182F73
:10421000682FCE010E945420BE01812FDF91CF91E3
:104220001F910C94E205CB010E948020182FF4CF3F
:10423000682F80911701909118010C942D23682FFD
:1042400080911701909118010C94382380911701E7
:10425000909118010C94432380918D02859585954A
:104260008595089580918D028770089590918D02B3
:10427000977081E009F480E008958091B10208957B
:104280009091B102892B8093B1020895809590910D
:10429000B10298239093B10208958093B1020895DA
:1042A0001092B10208959091B002892B8093B002D0
:1042B000089580959091B00298239093B00208954C
:1042C0001092B00208959091AF02892B8093AF02B3
:1042D000089580959091AF0298239093AF0208952E
:1042E0001092AF02089580918E02089508950C9463
:1042F000762190918E02981721F080938E020C9473
:104300007721089580918E02882329F010928E02E1
:1043100080E00C9477210895E0911701F091180145
:104320008091B1028083E0911701F09118018081A2
:104330009091B002892B8083E0911701F0911801D0
:1043400080819091AF02892B808390918E02992376
:1043500081F0E0911701F09118018081892B808311
:1043600080911701909118010E94992281110E9459
:10437000822180911701909118010C9409170895DA
:104380000C94BF2198E0899F90011124622B6093C7
:104390008D020E94B81F80918D0285958595859527
:1043A0000C94C02110928D0280E00C94C021909159
:1043B0008D028095892380938D02282F277071F4B8
:1043C000282F082E000C330B9217130639F0859511
:1043D000859585950E94D91F0C94D22108956FEF81
:1043E0007FEF90E080E00C94BC2D90E080E00E9494
:1043F000982D21E08C3E9E4F09F020E0822F0895F9
:1044000082E090E00C948A2D83E090E00C948A2D59
:10441000CF9384E090E00E948A2DC82F81E290E043
:104420000E948A2D982F8C2FCF910895CF93C92F5A
:10443000682F84E090E00E949E2D6C2F81E290E036
:10444000CF910C949E2DAB01BC018FE090E00C94B9
:10445000B02DAB01BC0183E190E00C94B02D60E085
:1044600070E0CB010C94292260E070E0CB010E9447
:1044700023220C942F226CEE7EEF90E080E00E94CD
:10448000BC2D60E082E090E00E949E2D60E083E021
:1044900090E00E949E2D1092890210928A02109242
:1044A0008B0210928C0260E084E090E00E949E2DCE
:1044B00060E081E290E00E949E2D60E085E090E067
:1044C0000E949E2D60E086E090E00E949E2D6FEF9E
:1044D00087E090E00E949E2D40E050E0BA0188E025
:1044E00090E00E94B02D60E08DE090E00E949E2D53
:1044F00040E050E0BA0188E190E00E94B02D60E019
:1045000087E190E00E949E2D40E050E0BA018CE1EE
:1045100090E00E94B02D60E080E290E00E949E2D2D
:104520000C9434220C943B22682F8EE090E00C9483
:104530009E2DFC01329680912301882321F08091E9
:1045400019039EE187FF96E080E0915008F40895FA
:1045500021912223D1F38F5FF8CF662301F12091BF
:1045600023012223F1F02091190327FF1AC0462FBF
:104570004695469546954E3190F4677021E030E0BF
:1045800002C0220F331F6A95E2F7840F911DFC01D0
:10459000828190E02823392381E0232B69F480E095
:1045A0000895FC01329608962191261721F0E8170C
:1045B000F907D1F7F4CF81E008959C01FC01329610
:1045C0009FEF80E04191461751F09F3F19F4411150
:1045D00001C0982F8F5F8630A9F79F3F09F4089597
:1045E000290F311D97FD3A95F90162830895FC0169
:1045F000329608962191261303C0DF0111971C9271
:10460000E817F907B9F70895E62FE695E695E695D8
:10461000EE3168F4E80FF92FF11D677021E030E00A
:1046200001C0220F6A95EAF78281822B8283089566
:10463000E62FE695E695E695EE3170F4E80FF92F52
:10464000F11D677021E030E001C0220F6A95EAF7A2
:1046500020958281282322830895209123012223FB
:1046600029F02091190327FD0C9404230C94DD22DA
:1046700020912301222329F02091190327FD0C9476
:1046800018230C94F722FC01329680912301882391
:1046900051F08091190387FF06C08EE1DF011D9262
:1046A0008A95E9F7089586E0F9CF089508950C9466
:1046B00056230E94572380911F03843049F11092A2
:1046C000B30288E190E020E40FB6F894A8958093B7
:1046D00060000FBE2093600080E00E94CE050E9423
:1046E000572383B7817F846083BF83B7816083BF93
:1046F0007894889583B78E7F83BF0FB6F894A8957A
:1047000080916000886180936000109260000FBE0D
:1047100008950895CF930E9455230E943D080E945A
:104720008923C0E08C2F0E94CE07892B31F4CF5F04
:10473000C430C1F780E0CF91089581E0FCCF0895A7
:104740000C949F230E94BB1B0E94FD160E94CE0565
:104750000C94A0231F921FB61F9211248F939F9336
:10476000AF93BF938091B302811113C08091150361
:1047700090911603A0911703B09118034196A11DC3
:10478000B11D8093150390931603A0931703B09364
:104790001803BF91AF919F918F911F901FBE1F90E3
:1047A000189582E084BD93E095BD9AEF97BD809304
:1047B0006E0008952FB7F894809115039091160319
:1047C000A0911703B09118032FBF08952FB7F89445
:1047D000609115037091160380911703909118034F
:1047E0002FBF08959C014FB7F894809115039091C5
:1047F0001603A0911703B09118034FBF821B930BB0
:10480000089578941F921FB61F9211248F939F933F
:10481000AF93BF938091150390911603A091170356
:10482000B09118030196A11DB11D809315039093BB
:104830001603A0931703B0931803BF91AF919F91F4
:104840008F911F901FBE1F90189581E08093E0000C
:1048500080E28093D8001092C9008FE19EE4019716
:10486000F1F700C0000087E090EBDC0180932803A3
:1048700090932903A0932A03B0932B0388E19CE033
:104880000FB6F894A895809360000FBE90936000D7
:10489000FFCF0C9408110E943D088FE39CE901971B
:1048A000F1F700C000000E943D0880E00E94CE07A2
:1048B00080FF04C00E9449240C94252408950E947E
:1048C000F521811102C00E9492220E940022809351
:1048D000B2020E94082290931A03809319030E9447
:1048E0000422682F70E090E080E00E94561F6091E3
:1048F00085027091860280918702909188020C94C3
:10490000901F0F931F9341E050E060E070E08A0138
:104910009B0104C0000F111F221F331F8A95D2F77D
:10492000C901B8010E94561F1F910F910C94BB1B27
:10493000EBEFE80FEF3308F05AC0F0E0E85CF14D20
:104940000C94E32C0E94922281E008958091B2029F
:10495000807F8093B20281E08093B40208950E9428
:104960006A05F2CF9091B202892F8E7F90FF81600D
:104970008093B20280FDE8CF817F8093B202E4CFC2
:104980009091B202892F8D7F91FF82608093B20255
:1049900081FFDACF8091B2028160EFCF9091B202B5
:1049A000892F8B7F92FF84608093B20282FDF2CFC9
:1049B000CBCF9091B202892F877F93FF886080933D
:1049C000B20283FDE7CFC0CF0E94BB1B90911903B9
:1049D000892F97FB87F9805880931903B5CF80E022
:1049E0000E948124B1CF8953FBCF8D51F9CF80E054
:1049F000089580E008950C94F924CF93C82F8091F6
:104A0000B402882331F0813099F01092B40280E032
:104A10000DC00E943D218232D1F78C2F0E94F924D3
:104A2000811116C08C2F0E9498248170CF91089517
:104A30000E943D21823289F38C2F0E94FB24811138
:104A400005C0C43171F038F4CB3079F781E0EDCF97
:104A500081E090E0EACFC93221F0C833B9F380E0B9
:104A6000E4CF1092B402FBCF8091D502089508954F
:104A7000CF93DF9300D00F92CDB7DEB790911F0395
:104A8000943011F589837B836A839093E9008FEFDB
:104A90009091E800815095FD06C095ED9A95F1F74B
:104AA00000008111F5CF8091E80085FF0DC050E036
:104AB00040E063E070E0CE0101960E949F27809164
:104AC000E8008E778093E8000F900F900F90DF91B1
:104AD000CF910895BC0184E00C943825BC0183E09B
:104AE0000C943825CF93DF93EC0180912301882328
:104AF000B1F18091190387FF32C060E284E08093B6
:104B0000E9008FEF9091E800815095FD06C095ED8A
:104B10009A95F1F700008111F5CF8091E80085FFAB
:104B20001BC08091230170E050E040E0811104C07F
:104B300050E040E068E070E0CE010E949F27809145
:104B4000E8008E778093E80080E2FE01A5EBB2E0FA
:104B500001900D928A95E1F7DF91CF91089568E079
:104B600081E0CDCFCF93FC01603221F580911F030E
:104B7000843001F5C091E900CF702091EC00922FB4
:104B8000917020FD90E8C92B82E08093E90080912C
:104B9000E80080FF0CC050E040E060E270E0CF0130
:104BA0000E949F278091E8008E778093E800CF7065
:104BB000C093E900CF91089580911E03811109C02F
:104BC0000E947E290E94DB298091E200846080930C
:104BD000E200089510921E030895089508950C941C
:104BE000A22342E061EC81E00E94FA2842E261ECFB
:104BF00084E00E94FA2842E261EC82E00E94FA28F6
:104C000042E260EC83E00C94FA2880912103833027
:104C100009F461C030F48130D1F1823009F49DC0D3
:104C200008958A3009F489C08B3009F46FC0893047
:104C300009F050C080912003813209F04BC080916F
:104C4000240390912503009719F0029709F042C0C0
:104C50008091E800877F8093E8008091E80082FFE0
:104C600035C09091F3008091F200029729F4809171
:104C7000F1008B7F813021F48091F1008093D50287
:104C80008091E8008B778093E8000C942E29809126
:104C90002003813AF9F48091E800877F8093E8004F
:104CA0008091240390912503892B61F460E285EBC8
:104CB00092E070E00E943D288091E8008B7780931D
:104CC000E800089560E090E080E0F3CF80911F035A
:104CD0008111C3CF089580912003813AD9F7809143
:104CE000240390912503892BA9F78091E800877F01
:104CF0008093E8008091E80080FFFCCF8091230141
:104D00008093F1008091E8008E77BDCF80912003E1
:104D1000813201F78091240390912503892BD1F6EC
:104D20008091E800877F8093E8000E942E2980917F
:104D30002203809323010C94BB1B809120038132BA
:104D400049F68091E800877F8093E8000E942E2931
:104D5000809123038093D602089580912003813AA5
:104D600009F0B8CF8091E800877F8093E8008091B8
:104D7000E80080FFFCCF8091D602C2CFCDB7DEB76E
:104D8000A0970FB6F894DEBF0FBECDBF84B7877F64
:104D900084BF0FB6F894A8958091600088618093D5
:104DA0006000109260000FBE80E890E00FB6F894AB
:104DB00080936100909361000FBE0E945D170E9476
:104DC0007E290E94DB298091E20084608093E200CA
:104DD00078940E94642C0E94671789E191E00E94F8
:104DE000F81613E080911F03853039F10E94731784
:104DF00080911F038430B1F71093E9008091E8009F
:104E000082FFF0CF8091E80090E085FF09C050E07C
:104E100040E060E270E0CE0101960E94EE2791E052
:104E20008091E8008B778093E8009923D9F260E2C3
:104E3000CE0101960E94C011D5CF0E9459238091C6
:104E40001D03882379F20E948A23882359F20E9445
:104E50008927C8CF0C942C27292F332723303105DD
:104E600021F168F42130310509F449C022303105BF
:104E700009F44AC090E080E030E020E029C021320F
:104E8000310581F122323105A9F76330710590F7C0
:104E9000FB01EE0FFF1FEC53FE4F208131816F535A
:104EA0007E4FFB01808190E013C0992781309105EE
:104EB00099F0009741F08230910589F00397D1F67F
:104EC000E6EEF4E002C0E8E1F5E0849190E09F01B5
:104ED000FA01318320830895ECE0F5E0F6CFECEEA3
:104EE000F4E0F3CF6330710528F6660F771FFB01FE
:104EF000E653FE4F2081318189E090E0E9CF82E1E5
:104F000090E027E735E0E4CF8BE590E02CE135E059
:104F1000DFCF80E189BD82E189BD09B400FEFDCF0C
:104F20008091D8008F7D8093D8008091E0008260CE
:104F30008093E0008091E00081FDFCCF0895AF9266
:104F4000BF92CF92DF92FF920F931F93CF93DF9385
:104F50006C01EB018A010E944D29F82E811123C0BA
:104F60000115110539F0F80180819181C81BD90B19
:104F7000C80ED91EB12CA12C2097A9F08091E80071
:104F800085FD22C08091E8008E778093E8000115AE
:104F90001105A1F0F80180819181A80EB91EB1829E
:104FA000A08285E0F82E8F2DDF91CF911F910F9178
:104FB000FF90DF90CF90BF90AF9008950E944D2951
:104FC0008823D1F2F82EEFCFF60181916F01809303
:104FD000F1002197FFEFAF1ABF0ACECFAF92BF9279
:104FE000CF92DF92FF920F931F93CF93DF936C01C9
:104FF000EB018A010E944D29F82E811123C0011571
:10500000110539F0F80180819181C81BD90BC80EB8
:10501000D91EB12CA12C2097A9F08091E80085FD24
:1050200022C08091E8008B778093E800011511057C
:10503000A1F0F80180819181A80EB91EB182A082F1
:1050400085E0F82E8F2DDF91CF911F910F91FF906A
:10505000DF90CF90BF90AF9008950E944D29882394
:10506000D1F2F82EEFCF8091F100F60181936F011C
:105070002197FFEFAF1ABF0ACECFFC018091260324
:105080009091270386179707A0F06115710529F401
:105090009091E8009E779093E80090E0611571058B
:1050A00051F4911108C08091E80082FF34C080E083
:1050B0000895BC01F2CF80911F038823C1F1853090
:1050C000C1F18091E80083FD30C08091E80082FD4D
:1050D000EACF8091E80080FFE1CF8091F30020913A
:1050E000F200382F6115710519F02830310558F09C
:1050F00091E02830310509F090E02091E8002E770A
:105100002093E800CBCF81918093F1006150710929
:105110002F5F3F4FE7CF80911F03882341F08530F9
:1051200041F08091E80083FFBECF81E0089582E0E6
:10513000089583E00895FC01809126039091270350
:1051400086179707A0F06115710529F48091E80092
:105150008E778093E80090E06115710551F491110C
:1051600008C08091E80082FF35C080E00895BC014E
:10517000F2CF80911F038823C9F18530C9F1809156
:10518000E80083FD31C08091E80082FDEACF809184
:10519000E80080FFE1CF8091F3002091F200382FEA
:1051A0006115710519F02830310558F091E028306B
:1051B000310509F090E08091E8008E778093E80057
:1051C000CBCF84918093F1003196615071092F5FAC
:1051D0003F4FE6CF80911F03882341F0853041F097
:1051E0008091E80083FFBDCF81E0089582E00895BB
:1051F00083E00895982F973028F08F708093E9000E
:1052000081E008959093E900242F762F50E09817BD
:1052100031F07091EC002091ED005091F00021FDF3
:1052200002C09F5FE8CF3091EB003E7F3093EB00F0
:105230003091ED003D7F3093ED003091EB00316017
:105240003093EB007093EC002093ED005093F0004E
:105250002091EE0027FDE5CF80E0089580912003A6
:1052600087FF13C08091E80082FF06C08091E800AC
:105270008B778093E80004C080911F038111F2CFE7
:10528000089580911F038823D9F38091E80080FF5F
:10529000F8CF8091E8008E77ECCF2091E400309138
:1052A000E50095E6A9012091EC00822F817020FF96
:1052B00006C08091E80080FF06C080E0089520913C
:1052C000E80022FD1AC080911F03882389F08530F1
:1052D00089F08091EB0085FD0FC02091E4003091B2
:1052E000E50042175307F9F29150E1F684E0089582
:1052F00082E0089583E0089581E008950E94EC29FA
:105300000E94F429E0EEF0E0808181608083E8ED86
:10531000F0E080818F77808319BCA7EDB0E08C919D
:105320008E7F8C9380818F7E808310921E030895E0
:105330000F931F93CF93DF930E94EC290E94F429CF
:10534000C8EDD0E088818F778883888180688883E2
:1053500088818F7D888319BC10921F0310921B03D4
:1053600010921D0310921C0300EE10E0F8018081E2
:105370008B7F808388818160888342E060E080E069
:105380000E94FA28E1EEF0E080818E7F8083E2EED9
:10539000F0E0808181608083808188608083F80173
:1053A00080818E7F8083888180618883DF91CF9127
:1053B0001F910F910895E8EDF0E080818F7E80834A
:1053C000E7EDF0E080818160808384E082BF81E04E
:1053D00080931E030C949829E8EDF0E080818E7F85
:1053E00080831092E20008951092DA001092E1009A
:1053F00008951F920F920FB60F9211242F933F938F
:105400004F935F936F937F938F939F93AF93BF93CC
:10541000EF93FF938091E10082FF0BC08091E20047
:1054200082FF07C08091E1008B7F8093E1000E94A2
:10543000632C8091DA0080FF19C08091D80080FF32
:1054400015C08091DA008E7F8093DA008091D900B8
:1054500080FF96C080E189BD82E189BD09B400FE6C
:10546000FDCF81E080931F030E94DC258091E10045
:1054700080FF19C08091E20080FF15C08091E2009A
:105480008E7F8093E2008091E20080618093E20051
:105490008091D80080628093D80019BC85E0809309
:1054A0001F030E94EE258091E10084FF2BC08091B4
:1054B000E20084FF27C080E189BD82E189BD89B512
:1054C000982F917080FFFBCF8091D8008F7D8093C3
:1054D000D8008091E1008F7E8093E1008091E2000E
:1054E0008F7E8093E2008091E20081608093E200F1
:1054F00080911B03882309F449C084E080931F0333
:105500000E94EF258091E10083FF29C08091E20095
:1055100083FF25C08091E100877F8093E10082E0D6
:1055200080931F0310921B038091E1008E7F809374
:10553000E1008091E2008E7F8093E2008091E200A2
:1055400080618093E20042E060E080E00E94FA28FF
:105550008091F00088608093F0000E94ED25FF911B
:10556000EF91BF91AF919F918F917F916F915F91DB
:105570004F913F912F910F900FBE0F901F90189554
:1055800019BC10921F030E94EA2570CF8091E3009E
:1055900087FD93E090931F03B3CF1F920F920FB636
:1055A0000F9211242F933F934F935F936F937F93A9
:1055B0008F939F93AF93BF93CF93DF93EF93FF931B
:1055C000D091E900DF708091EC00C82FC17080FDA0
:1055D000C0E81092E9008091F000877F8093F0008E
:1055E00078940E94112B1092E9008091F00088605D
:1055F0008093F000CD2BCF70C093E900FF91EF9125
:10560000DF91CF91BF91AF919F918F917F916F91DA
:105610005F914F913F912F910F900FBE0F901F9070
:1056200018951F93CF93DF93CDB7DEB7AA970FB628
:10563000F894DEBF0FBECDBF80E293E02091F10071
:10564000FC012193CF01F3E088329F07B9F70E9454
:1056500005268091E80083FF1EC180912003909170
:1056600021039A3008F017C1E92FF0E0E958F14D15
:105670000C94E32C803899F0823809F00CC18091A9
:1056800024038F70873008F006C18093E900809171
:10569000EB0085FB882780F91092E90006C0809115
:1056A0001C0390911D03911182609091E800977FF7
:1056B0009093E8008093F1001092F1008091E8004F
:1056C0008E77E5C0882309F4D3C0823009F0E3C0A7
:1056D000809122038111D6C0809124038F702FEF17
:1056E000280F263008F0D7C08093E9002091EB0006
:1056F00020FFC8C0933031F48091EB00806280932A
:10570000EB00C0C09091EB0090619093EB0021E022
:1057100030E001C0220F8A95EAF72093EA00109248
:10572000EA008091EB008860EACF8111B4C010914B
:1057300022031F778091E3008078812B8093E30020
:105740008091E800877F8093E8000E942E29809155
:10575000E80080FFFCCF8091E30080688093E30045
:1057600082E0111183E080931F0395C0805882303E
:1057700008F091C080912203909123038C3D23E097
:105780009207A1F583E08A838AE289834FB7F89470
:10579000DE01139620E03EE051E2E32FF0E050936B
:1057A0005700E49120FF03C0E295EF703F5FEF7078
:1057B0008E2F90E0EA30C0F0C7968D939D932F5FB7
:1057C000243159F74FBF8091E800877F8093E8002C
:1057D0006AE270E0CE0101960E943D288091E800C7
:1057E0008B778093E80057C0C096E7CF6091240381
:1057F00070912503AE014F5F5F4F0E942A27BC01C5
:10580000892B09F448C09091E800977F9093E800B5
:1058100089819A810E949B28E1CF8038E1F58091AF
:10582000E800877F8093E80080911B038093F1005C
:1058300045CF811130C090912203923060F5809164
:10584000E800877F8093E80090931B030E942E2935
:1058500080911B03882311F084E005C08091E30050
:1058600087FDFACF81E080931F030E94F12513C0CA
:1058700080912203813079F481E0933009F080E057
:1058800080931D031092E9008091E800877F809348
:10589000E8000E942E298091E80083FF0AC08091D1
:1058A000E800877F8093E8008091EB00806280931E
:1058B000EB00AA960FB6F894DEBF0FBECDBFDF9106
:1058C000CF911F9108950895CF9380911F0388234E
:1058D000A1F0C091E900CF709091EC00892F817008
:1058E00090FD80E8C82B1092E9008091E80083FDCC
:1058F0000E94112BCF70C093E900CF910895991B9E
:1059000079E004C0991F961708F0961B881F7A95B6
:10591000C9F78095089587FB082E062687FD819597
:1059200067FD61950E947F2C0EF4919507FC81958F
:105930000895AA1BBB1B51E107C0AA1FBB1FA617D6
:10594000B70710F0A61BB70B881F991F5A95A9F728
:1059500080959095BC01CD01089597FB072E16F414
:10596000009407D077FD09D00E94992C07FC05D040
:105970003EF4909581959F4F0895709561957F4F66
:105980000895A1E21A2EAA1BBB1BFD010DC0AA1F80
:10599000BB1FEE1FFF1FA217B307E407F50720F098
:1059A000A21BB30BE40BF50B661F771F881F991F13
:1059B0001A9469F760957095809590959B01AC015C
:1059C000BD01CF010895EE0FFF1F0590F491E02D6A
:1059D00009946927962769277827872778270895C4
:1059E0000E94F82C332312F48A1B9B0B0C94092D74
:1059F000A29FB001B39FC001A39F700D811D112410
:105A0000911DB29F700D811D1124911D08950E945A
:105A1000F82CB7FF0895821B930B08950E94F82C71
:105A2000A59F900DB49F900DA49F800D911D1124F2
:105A30000895B7FF0C940E2D0E940E2D821B930B20
:105A400008958F929F92AF92BF92CF92DF92EF9282
:105A5000FF92CF93DF93EC01688179818A819B81EA
:105A6000611571058105910521F464E279ED8BE5FD
:105A700097E02DE133EF41E050E00E94D22D490143
:105A80005A019B01AC01A7EAB1E40E940E2D6B0103
:105A90007C01ACEEB4EFA50194010E941C2DDC0149
:105AA000CB018C0D9D1DAE1DBF1DB7FF03C001971F
:105AB000A109B04888839983AA83BB839F77DF912C
:105AC000CF91FF90EF90DF90CF90BF90AF909F90DD
:105AD0008F9008950E94212D089580E091E00E940A
